{
  "contractName": "BTCUtils",
  "abi": [
    {
      "constant": true,
      "inputs": [
        {
          "name": "_b",
          "type": "bytes"
        }
      ],
      "name": "extractPrefix",
      "outputs": [
        {
          "name": "",
          "type": "bytes"
        }
      ],
      "payable": false,
      "stateMutability": "pure",
      "type": "function"
    },
    {
      "constant": true,
      "inputs": [
        {
          "name": "_b",
          "type": "bytes"
        }
      ],
      "name": "reverseEndianness",
      "outputs": [
        {
          "name": "",
          "type": "bytes"
        }
      ],
      "payable": false,
      "stateMutability": "pure",
      "type": "function"
    },
    {
      "constant": true,
      "inputs": [
        {
          "name": "_b",
          "type": "bytes"
        }
      ],
      "name": "bytesToUint",
      "outputs": [
        {
          "name": "",
          "type": "uint256"
        }
      ],
      "payable": false,
      "stateMutability": "pure",
      "type": "function"
    },
    {
      "constant": true,
      "inputs": [
        {
          "name": "_b",
          "type": "bytes"
        },
        {
          "name": "_num",
          "type": "uint256"
        }
      ],
      "name": "lastBytes",
      "outputs": [
        {
          "name": "",
          "type": "bytes"
        }
      ],
      "payable": false,
      "stateMutability": "pure",
      "type": "function"
    },
    {
      "constant": true,
      "inputs": [
        {
          "name": "_b",
          "type": "bytes"
        }
      ],
      "name": "hash160",
      "outputs": [
        {
          "name": "",
          "type": "bytes"
        }
      ],
      "payable": false,
      "stateMutability": "pure",
      "type": "function"
    },
    {
      "constant": true,
      "inputs": [
        {
          "name": "_b",
          "type": "bytes"
        }
      ],
      "name": "hash256",
      "outputs": [
        {
          "name": "",
          "type": "bytes32"
        }
      ],
      "payable": false,
      "stateMutability": "pure",
      "type": "function"
    },
    {
      "constant": true,
      "inputs": [
        {
          "name": "_b",
          "type": "bytes"
        }
      ],
      "name": "extractSequenceLE",
      "outputs": [
        {
          "name": "",
          "type": "bytes"
        }
      ],
      "payable": false,
      "stateMutability": "pure",
      "type": "function"
    },
    {
      "constant": true,
      "inputs": [
        {
          "name": "_b",
          "type": "bytes"
        }
      ],
      "name": "extractSequence",
      "outputs": [
        {
          "name": "",
          "type": "uint32"
        }
      ],
      "payable": false,
      "stateMutability": "pure",
      "type": "function"
    },
    {
      "constant": true,
      "inputs": [
        {
          "name": "_b",
          "type": "bytes"
        }
      ],
      "name": "extractOutpoint",
      "outputs": [
        {
          "name": "",
          "type": "bytes"
        }
      ],
      "payable": false,
      "stateMutability": "pure",
      "type": "function"
    },
    {
      "constant": true,
      "inputs": [
        {
          "name": "_b",
          "type": "bytes"
        }
      ],
      "name": "extractTxIdLE",
      "outputs": [
        {
          "name": "",
          "type": "bytes32"
        }
      ],
      "payable": false,
      "stateMutability": "pure",
      "type": "function"
    },
    {
      "constant": true,
      "inputs": [
        {
          "name": "_b",
          "type": "bytes"
        }
      ],
      "name": "extractTxId",
      "outputs": [
        {
          "name": "",
          "type": "bytes32"
        }
      ],
      "payable": false,
      "stateMutability": "pure",
      "type": "function"
    },
    {
      "constant": true,
      "inputs": [
        {
          "name": "_b",
          "type": "bytes"
        }
      ],
      "name": "extractTxIndexLE",
      "outputs": [
        {
          "name": "",
          "type": "bytes"
        }
      ],
      "payable": false,
      "stateMutability": "pure",
      "type": "function"
    },
    {
      "constant": true,
      "inputs": [
        {
          "name": "_b",
          "type": "bytes"
        }
      ],
      "name": "extractTxIndex",
      "outputs": [
        {
          "name": "",
          "type": "uint32"
        }
      ],
      "payable": false,
      "stateMutability": "pure",
      "type": "function"
    },
    {
      "constant": true,
      "inputs": [
        {
          "name": "_b",
          "type": "bytes"
        }
      ],
      "name": "extractOutputScriptLen",
      "outputs": [
        {
          "name": "",
          "type": "bytes"
        }
      ],
      "payable": false,
      "stateMutability": "pure",
      "type": "function"
    },
    {
      "constant": true,
      "inputs": [
        {
          "name": "_b",
          "type": "bytes"
        }
      ],
      "name": "extractValueLE",
      "outputs": [
        {
          "name": "",
          "type": "bytes"
        }
      ],
      "payable": false,
      "stateMutability": "pure",
      "type": "function"
    },
    {
      "constant": true,
      "inputs": [
        {
          "name": "_b",
          "type": "bytes"
        }
      ],
      "name": "extractValue",
      "outputs": [
        {
          "name": "",
          "type": "uint64"
        }
      ],
      "payable": false,
      "stateMutability": "pure",
      "type": "function"
    },
    {
      "constant": true,
      "inputs": [
        {
          "name": "_b",
          "type": "bytes"
        }
      ],
      "name": "extractOpReturnData",
      "outputs": [
        {
          "name": "",
          "type": "bytes"
        }
      ],
      "payable": false,
      "stateMutability": "pure",
      "type": "function"
    },
    {
      "constant": true,
      "inputs": [
        {
          "name": "_b",
          "type": "bytes"
        }
      ],
      "name": "extractHash",
      "outputs": [
        {
          "name": "",
          "type": "bytes"
        }
      ],
      "payable": false,
      "stateMutability": "pure",
      "type": "function"
    },
    {
      "constant": true,
      "inputs": [
        {
          "name": "_b",
          "type": "bytes"
        }
      ],
      "name": "extractLocktimeLE",
      "outputs": [
        {
          "name": "",
          "type": "bytes"
        }
      ],
      "payable": false,
      "stateMutability": "pure",
      "type": "function"
    },
    {
      "constant": true,
      "inputs": [
        {
          "name": "_b",
          "type": "bytes"
        }
      ],
      "name": "extractLocktime",
      "outputs": [
        {
          "name": "",
          "type": "uint32"
        }
      ],
      "payable": false,
      "stateMutability": "pure",
      "type": "function"
    },
    {
      "constant": true,
      "inputs": [
        {
          "name": "_b",
          "type": "bytes"
        }
      ],
      "name": "extractNumInputsBytes",
      "outputs": [
        {
          "name": "",
          "type": "bytes"
        }
      ],
      "payable": false,
      "stateMutability": "pure",
      "type": "function"
    },
    {
      "constant": true,
      "inputs": [
        {
          "name": "_b",
          "type": "bytes"
        }
      ],
      "name": "extractNumInputs",
      "outputs": [
        {
          "name": "",
          "type": "uint8"
        }
      ],
      "payable": false,
      "stateMutability": "pure",
      "type": "function"
    },
    {
      "constant": true,
      "inputs": [
        {
          "name": "_b",
          "type": "bytes"
        }
      ],
      "name": "findNumOutputs",
      "outputs": [
        {
          "name": "",
          "type": "uint256"
        }
      ],
      "payable": false,
      "stateMutability": "pure",
      "type": "function"
    },
    {
      "constant": true,
      "inputs": [
        {
          "name": "_b",
          "type": "bytes"
        }
      ],
      "name": "extractNumOutputsBytes",
      "outputs": [
        {
          "name": "",
          "type": "bytes"
        }
      ],
      "payable": false,
      "stateMutability": "pure",
      "type": "function"
    },
    {
      "constant": true,
      "inputs": [
        {
          "name": "_b",
          "type": "bytes"
        }
      ],
      "name": "extractNumOutputs",
      "outputs": [
        {
          "name": "",
          "type": "uint8"
        }
      ],
      "payable": false,
      "stateMutability": "pure",
      "type": "function"
    },
    {
      "constant": true,
      "inputs": [
        {
          "name": "_b",
          "type": "bytes"
        },
        {
          "name": "_index",
          "type": "uint8"
        }
      ],
      "name": "extractInputAtIndex",
      "outputs": [
        {
          "name": "",
          "type": "bytes"
        }
      ],
      "payable": false,
      "stateMutability": "pure",
      "type": "function"
    },
    {
      "constant": true,
      "inputs": [
        {
          "name": "_b",
          "type": "bytes"
        }
      ],
      "name": "determineOutputLength",
      "outputs": [
        {
          "name": "",
          "type": "uint256"
        }
      ],
      "payable": false,
      "stateMutability": "pure",
      "type": "function"
    },
    {
      "constant": true,
      "inputs": [
        {
          "name": "_b",
          "type": "bytes"
        },
        {
          "name": "_index",
          "type": "uint8"
        }
      ],
      "name": "extractOutputAtIndex",
      "outputs": [
        {
          "name": "",
          "type": "bytes"
        }
      ],
      "payable": false,
      "stateMutability": "pure",
      "type": "function"
    },
    {
      "constant": true,
      "inputs": [
        {
          "name": "_b",
          "type": "bytes"
        }
      ],
      "name": "extractMerkleRootLE",
      "outputs": [
        {
          "name": "",
          "type": "bytes"
        }
      ],
      "payable": false,
      "stateMutability": "pure",
      "type": "function"
    },
    {
      "constant": true,
      "inputs": [
        {
          "name": "_b",
          "type": "bytes"
        }
      ],
      "name": "extractMerkleRootBE",
      "outputs": [
        {
          "name": "",
          "type": "bytes"
        }
      ],
      "payable": false,
      "stateMutability": "pure",
      "type": "function"
    },
    {
      "constant": true,
      "inputs": [
        {
          "name": "_b",
          "type": "bytes"
        }
      ],
      "name": "extractTarget",
      "outputs": [
        {
          "name": "",
          "type": "uint256"
        }
      ],
      "payable": false,
      "stateMutability": "pure",
      "type": "function"
    },
    {
      "constant": true,
      "inputs": [
        {
          "name": "_target",
          "type": "uint256"
        }
      ],
      "name": "calculateDifficulty",
      "outputs": [
        {
          "name": "",
          "type": "uint256"
        }
      ],
      "payable": false,
      "stateMutability": "pure",
      "type": "function"
    },
    {
      "constant": true,
      "inputs": [
        {
          "name": "_b",
          "type": "bytes"
        }
      ],
      "name": "extractPrevBlockLE",
      "outputs": [
        {
          "name": "",
          "type": "bytes"
        }
      ],
      "payable": false,
      "stateMutability": "pure",
      "type": "function"
    },
    {
      "constant": true,
      "inputs": [
        {
          "name": "_b",
          "type": "bytes"
        }
      ],
      "name": "extractPrevBlockBE",
      "outputs": [
        {
          "name": "",
          "type": "bytes"
        }
      ],
      "payable": false,
      "stateMutability": "pure",
      "type": "function"
    },
    {
      "constant": true,
      "inputs": [
        {
          "name": "_b",
          "type": "bytes"
        }
      ],
      "name": "extractTimestampLE",
      "outputs": [
        {
          "name": "",
          "type": "bytes"
        }
      ],
      "payable": false,
      "stateMutability": "pure",
      "type": "function"
    },
    {
      "constant": true,
      "inputs": [
        {
          "name": "_b",
          "type": "bytes"
        }
      ],
      "name": "extractTimestamp",
      "outputs": [
        {
          "name": "",
          "type": "uint32"
        }
      ],
      "payable": false,
      "stateMutability": "pure",
      "type": "function"
    },
    {
      "constant": true,
      "inputs": [
        {
          "name": "_a",
          "type": "bytes"
        },
        {
          "name": "_b",
          "type": "bytes"
        }
      ],
      "name": "_hash256MerkleStep",
      "outputs": [
        {
          "name": "",
          "type": "bytes32"
        }
      ],
      "payable": false,
      "stateMutability": "pure",
      "type": "function"
    },
    {
      "constant": true,
      "inputs": [
        {
          "name": "_a",
          "type": "bytes"
        },
        {
          "name": "_index",
          "type": "uint256"
        }
      ],
      "name": "verifyHash256Merkle",
      "outputs": [
        {
          "name": "",
          "type": "bool"
        }
      ],
      "payable": false,
      "stateMutability": "pure",
      "type": "function"
    }
  ],
  "bytecode": "0x612507610030600b82828239805160001a6073146000811461002057610022565bfe5b5030600052607381538281f30073000000000000000000000000000000000000000030146080604052600436106101ec5763ffffffff7c01000000000000000000000000000000000000000000000000000000006000350416620c81f481146101f15780629941a6146102b257806302d06d05146103035780630ca25cc0146103615780630f513b35146103ad5780631486ab38146103f957806320db3e0e146104455780632436d387146104915780633318efcd146104dd578063379cf68c1461056757806339efb09a146105c95780633e39b4101461061557806348cf5c941461067e5780634e82ce44146106ca5780635196ba03146107165780636b45106714610762578063737c1eea146107ae578063848e332c146107fa57806388dbbe341461085f57806390c4a9ad1461086a57806398b979b4146108b65780639ba32073146109075780639fd7148414610969578063a3b62a8f146109b5578063a6a54a9414610a01578063af7000d414610a4d578063b230b74214610a99578063b37d0f5d14610ae5578063b59d073614610b31578063b77f520c14610b7d578063b8fa783014610bcb578063dc1f9a1414610c17578063df2f4e4814610c63578063e31952c314610caf578063e79d3e2314610cfb578063ea66780114610d47578063ecc5912414610d93578063fc9a752c14610ddf575b600080fd5b6040805160206004803580820135601f810184900484028501840190955284845261023d943694929360249392840191908190840183828082843750949750610e2b9650505050505050565b6040805160208082528351818301528351919283929083019185019080838360005b8381101561027757818101518382015260200161025f565b50505050905090810190601f1680156102a45780820380516001836020036101000a031916815260200191505b509250505060405180910390f35b6040805160206004803580820135601f810184900484028501840190955284845261023d9436949293602493928401919081908401838280828437509497505050923560ff169350610f3292505050565b6040805160206004803580820135601f810184900484028501840190955284845261034f9436949293602493928401919081908401838280828437509497506110499650505050505050565b60408051918252519081900360200190f35b6040805160206004803580820135601f810184900484028501840190955284845261034f9436949293602493928401919081908401838280828437509497506110989650505050505050565b6040805160206004803580820135601f810184900484028501840190955284845261023d9436949293602493928401919081908401838280828437509497506110f99650505050505050565b6040805160206004803580820135601f810184900484028501840190955284845261023d9436949293602493928401919081908401838280828437509497506111259650505050505050565b6040805160206004803580820135601f810184900484028501840190955284845261023d94369492936024939284019190819084018382808284375094975061113a9650505050505050565b6040805160206004803580820135601f810184900484028501840190955284845261023d94369492936024939284019190819084018382808284375094975061114f9650505050505050565b6040805160206004803580820135601f810184900484028501840190955284845261034f94369492936024939284019190819084018382808284375050604080516020601f89358b018035918201839004830284018301909452808352979a9998810197919650918201945092508291508401838280828437509497506111649650505050505050565b6040805160206004803580820135601f81018490048402850184019095528484526105b39436949293602493928401919081908401838280828437509497506112269650505050505050565b6040805160ff9092168252519081900360200190f35b6040805160206004803580820135601f810184900484028501840190955284845261034f9436949293602493928401919081908401838280828437509497506112a59650505050505050565b6040805160206004803580820135601f81018490048402850184019095528484526106619436949293602493928401919081908401838280828437509497506114d19650505050505050565b6040805167ffffffffffffffff9092168252519081900360200190f35b6040805160206004803580820135601f810184900484028501840190955284845261023d9436949293602493928401919081908401838280828437509497506114fd9650505050505050565b6040805160206004803580820135601f810184900484028501840190955284845261034f94369492936024939284019190819084018382808284375094975061165a9650505050505050565b6040805160206004803580820135601f810184900484028501840190955284845261023d9436949293602493928401919081908401838280828437509497506116d79650505050505050565b6040805160206004803580820135601f810184900484028501840190955284845261023d9436949293602493928401919081908401838280828437509497506117899650505050505050565b6040805160206004803580820135601f810184900484028501840190955284845261023d94369492936024939284019190819084018382808284375094975061179e9650505050505050565b6040805160206004803580820135601f81018490048402850184019095528484526108469436949293602493928401919081908401838280828437509497506117bf9650505050505050565b6040805163ffffffff9092168252519081900360200190f35b61034f6004356117cd565b6040805160206004803580820135601f810184900484028501840190955284845261023d9436949293602493928401919081908401838280828437509497506117fc9650505050505050565b6040805160206004803580820135601f810184900484028501840190955284845261023d9436949293602493928401919081908401838280828437509497505050923560ff16935061180f92505050565b6040805160206004803580820135601f8101849004840285018401909552848452610955943694929360249392840191908190840183828082843750949750509335945061189c9350505050565b604080519115158252519081900360200190f35b6040805160206004803580820135601f810184900484028501840190955284845261023d943694929360249392840191908190840183828082843750949750611bb79650505050505050565b6040805160206004803580820135601f810184900484028501840190955284845261023d943694929360249392840191908190840183828082843750949750611bcc9650505050505050565b6040805160206004803580820135601f810184900484028501840190955284845261023d943694929360249392840191908190840183828082843750949750611be19650505050505050565b6040805160206004803580820135601f8101849004840285018401909552848452610846943694929360249392840191908190840183828082843750949750611cbb9650505050505050565b6040805160206004803580820135601f81018490048402850184019095528484526105b3943694929360249392840191908190840183828082843750949750611cc99650505050505050565b6040805160206004803580820135601f810184900484028501840190955284845261023d943694929360249392840191908190840183828082843750949750611d389650505050505050565b6040805160206004803580820135601f8101849004840285018401909552848452610846943694929360249392840191908190840183828082843750949750611d4d9650505050505050565b6040805160206004803580820135601f810184900484028501840190955284845261023d9436949293602493928401919081908401838280828437509497505093359450611d5e9350505050565b6040805160206004803580820135601f810184900484028501840190955284845261023d943694929360249392840191908190840183828082843750949750611d899650505050505050565b6040805160206004803580820135601f810184900484028501840190955284845261023d943694929360249392840191908190840183828082843750949750611d9e9650505050505050565b6040805160206004803580820135601f810184900484028501840190955284845261023d943694929360249392840191908190840183828082843750949750611dab9650505050505050565b6040805160206004803580820135601f810184900484028501840190955284845261023d943694929360249392840191908190840183828082843750949750611db59650505050505050565b6040805160206004803580820135601f8101849004840285018401909552848452610846943694929360249392840191908190840183828082843750949750611dca9650505050505050565b6040805160206004803580820135601f810184900484028501840190955284845261034f943694929360249392840191908190840183828082843750949750611dd89650505050505050565b6040805160206004803580820135601f810184900484028501840190955284845261034f943694929360249392840191908190840183828082843750949750611ef79650505050505050565b6040805160206004803580820135601f810184900484028501840190955284845261034f94369492936024939284019190819084018382808284375094975061231b9650505050505050565b60606000610e6c6040805190810160405280600181526020016000815250610e6060096001876123369092919063ffffffff16565b9063ffffffff61240216565b1515610ec2576040805160e560020a62461bcd02815260206004820152601460248201527f4e6f742061207769746e657373206f7574707574000000000000000000000000604482015290519081900360640190fd5b610f046040805190810160405280600181526020017f2200000000000000000000000000000000000000000000000000000000000000815250610e6085611789565b610f0f576014610f12565b60205b60ff169050610f2983600b8363ffffffff61233616565b91505b50919050565b60606000806000610f4286611226565b60ff168560ff16101515610fc6576040805160e560020a62461bcd02815260206004820152602160248201527f496e646578206d6f7265207468616e206e756d626572206f66206f757470757460448201527f7300000000000000000000000000000000000000000000000000000000000000606482015290519081900360840190fd5b610fcf8661231b565b600181019350610ff490610fef908890600901600263ffffffff61233616565b611ef7565b9150600090505b8460ff1681101561102c5791810191611022610fef8760088601600263ffffffff61233616565b9150600101610ffb565b61103d86848463ffffffff61233616565b93505b50505092915050565b600080805b8351811015611091578060010184510360080260020a848281518110151561107257fe5b016020015160f860020a9081900481020402919091019060010161104e565b5092915050565b600060608082806110b2866048600363ffffffff61233616565b93506110c786604b600163ffffffff61233616565b92506110da6110d5856116d7565b611049565b915060036110e784611049565b036101000a9190910295945050505050565b606060068251101561110a57611120565b61111d826000600663ffffffff61233616565b90505b919050565b606061111d826006600163ffffffff61233616565b606061111d826004602063ffffffff61233616565b606061111d826025600463ffffffff61233616565b600061121f83836040516020018083805190602001908083835b6020831061119d5780518252601f19909201916020918201910161117e565b51815160209384036101000a600019018019909216911617905285519190930192850191508083835b602083106111e55780518252601f1990920191602091820191016111c6565b6001836020036101000a038019825116818451168082178552505050505050905001925050506040516020818303038152906040526112a5565b9392505050565b60008060006112348461231b565b915061124b6110d58584600163ffffffff61233616565b905060fd811061121f576040805160e560020a62461bcd02815260206004820152601560248201527f566172496e7473206e6f7420737570706f727465640000000000000000000000604482015290519081900360640190fd5b6000600280836040518082805190602001908083835b602083106112da5780518252601f1990920191602091820191016112bb565b51815160209384036101000a600019018019909216911617905260405191909301945091925050808303816000865af115801561131b573d6000803e3d6000fd5b5050506040513d602081101561133057600080fd5b50516040805160208181019390935281518082038401815290820191829052805190928291908401908083835b6020831061137c5780518252601f19909201916020918201910161135d565b51815160209384036101000a600019018019909216911617905260405191909301945091925050808303816000865af11580156113bd573d6000803e3d6000fd5b5050506040513d60208110156113d257600080fd5b5051604080516020818101939093528151808203840181528183019283905260e060020a6347f53431029092526044810183815282516064830152825173__BytesLib______________________________946347f534319493839260849091019185019080838360005b8381101561145557818101518382015260200161143d565b50505050905090810190601f1680156114825780820380516001836020036101000a031916815260200191505b509250505060206040518083038186803b15801561149f57600080fd5b505af41580156114b3573d6000803e3d6000fd5b505050506040513d60208110156114c957600080fd5b505192915050565b60006060806114df84611bb7565b91506114ea826116d7565b90506114f581611049565b949350505050565b606060036002836040518082805190602001908083835b602083106115335780518252601f199092019160209182019101611514565b51815160209384036101000a600019018019909216911617905260405191909301945091925050808303816000865af1158015611574573d6000803e3d6000fd5b5050506040513d602081101561158957600080fd5b50516040805160208181019390935281518082038401815290820191829052805190928291908401908083835b602083106115d55780518252601f1990920191602091820191016115b6565b51815160209384036101000a600019018019909216911617905260405191909301945091925050808303816000865af1158015611616573d6000803e3d6000fd5b50506040805180516c01000000000000000000000000026bffffffffffffffffffffffff191660208201528151601481830301815260349091019091529392505050565b600061166e8282602063ffffffff61233616565b60405160e060020a6347f5343102815260206004820181815283516024840152835173__BytesLib______________________________946347f5343194909383926044909201919085019080838360008381101561145557818101518382015260200161143d565b606080600083516040519080825280601f01601f19166020018201604052801561170b578160200160208202803883390190505b509150600090505b835181101561109157838181518110151561172a57fe5b90602001015160f860020a900460f860020a02826001838751030381518110151561175157fe5b9060200101907effffffffffffffffffffffffffffffffffffffffffffffffffffffffffffff1916908160001a905350600101611713565b606061111d826008600163ffffffff61233616565b606060006117ab8361231b565b9050610f298382600163ffffffff61233616565b60006060806114df84611d9e565b60007bffff0000000000000000000000000000000000000000000000000000610f29818463ffffffff61246616565b606061111d61180a8361113a565b6116d7565b6060600061181c84611cc9565b60ff168360ff1610151561187a576040805160e560020a62461bcd02815260206004820181905260248201527f496e646578206d6f7265207468616e206e756d626572206f6620696e70757473604482015290519081900360640190fd5b8260290260070160ff1690506114f5816029866123369092919063ffffffff16565b600080600080602086518115156118af57fe5b06156118be5760009350611040565b8551602014156118d15760019350611040565b8551604014156118e45760009350611040565b85516118fd908790601f1901602063ffffffff61233616565b60405160e060020a6347f5343102815260206004820181815283516024840152835173__BytesLib______________________________946347f5343194909383926044909201919085019080838360005b8381101561196757818101518382015260200161194f565b50505050905090810190601f1680156119945780820380516001836020036101000a031916815260200191505b509250505060206040518083038186803b1580156119b157600080fd5b505af41580156119c5573d6000803e3d6000fd5b505050506040513d60208110156119db57600080fd5b505192506119f2866000602063ffffffff61233616565b60405160e060020a6347f5343102815260206004820181815283516024840152835173__BytesLib______________________________946347f5343194909383926044909201919085019080838360005b83811015611a5c578181015183820152602001611a44565b50505050905090810190601f168015611a895780820380516001836020036101000a031916815260200191505b509250505060206040518083038186803b158015611aa657600080fd5b505af4158015611aba573d6000803e3d6000fd5b505050506040513d6020811015611ad057600080fd5b50519150600190505b8551600190611aef90602063ffffffff61246616565b03811015611bae57600285061515611b5457611b3a611b198760208085029063ffffffff61233616565b60408051602080820187905282518083039091018152908201909152611164565b9150611b4d85600263ffffffff61246616565b9450611ba6565b604080516020808201859052825180830382018152918301909252611b8d91611b889089908581029063ffffffff61233616565b611164565b9150611ba085600263ffffffff61246616565b60010194505b600101611ad9565b50149392505050565b606061111d826000600863ffffffff61233616565b606061111d826020600463ffffffff61233616565b606080611c346040805190810160405280600181526020017f6a00000000000000000000000000000000000000000000000000000000000000815250610e6060096001876123369092919063ffffffff16565b1515611c8a576040805160e560020a62461bcd02815260206004820152601760248201527f4e6f7420616e204f505f52455455524e206f7574707574000000000000000000604482015290519081900360640190fd5b611c9d83600a600163ffffffff61233616565b9050610f29600b611cad83611049565b85919063ffffffff61233616565b60006060806114df84611bcc565b600080611cd86110d584611125565b905060fd8110611d32576040805160e560020a62461bcd02815260206004820152601560248201527f566172496e7473206e6f7420737570706f727465640000000000000000000000604482015290519081900360640190fd5b92915050565b606061111d826044600463ffffffff61233616565b600061111d6110d561180a84611d38565b60606000611d7683855161247b90919063ffffffff16565b90506114f584828563ffffffff61233616565b606061111d826000602463ffffffff61233616565b606061111d826004611d5e565b606061111d61180a835b606061111d826024602063ffffffff61233616565b60006060806114df8461114f565b6000606080611de68461165a565b6040805160208082019390935281518082039093018352810190529150611e0c826116d7565b60405160e060020a6347f5343102815260206004820181815283516024840152835193945073__BytesLib______________________________936347f5343193869383926044909201919085019080838360005b83811015611e79578181015183820152602001611e61565b50505050905090810190601f168015611ea65780820380516001836020036101000a031916815260200191505b509250505060206040518083038186803b158015611ec357600080fd5b505af4158015611ed7573d6000803e3d6000fd5b505050506040513d6020811015611eed57600080fd5b5051949350505050565b604080517f2200000000000000000000000000000000000000000000000000000000000000815290519081900360020181208251600092839291859190819060208401908083835b60208310611f5e5780518252601f199092019160209182019101611f3f565b6001836020036101000a0380198251168184511680821785525050505050509050019150506040518091039020600019161415611f9e57602b9150610f2c565b604080517f160000000000000000000000000000000000000000000000000000000000000081529051908190036002018120845190918591819060208401908083835b602083106120005780518252601f199092019160209182019101611fe1565b6001836020036101000a038019825116818451168082178552505050505050905001915050604051809103902060001916141561204057601f9150610f2c565b604080517f197600000000000000000000000000000000000000000000000000000000000081529051908190036002018120845190918591819060208401908083835b602083106120a25780518252601f199092019160209182019101612083565b6001836020036101000a03801982511681845116808217855250505050505090500191505060405180910390206000191614156120e25760229150610f2c565b604080517f17a900000000000000000000000000000000000000000000000000000000000081529051908190036002018120845190918591819060208401908083835b602083106121445780518252601f199092019160209182019101612125565b6001836020036101000a03801982511681845116808217855250505050505090500191505060405180910390206000191614156121845760209150610f2c565b604080517f6a000000000000000000000000000000000000000000000000000000000000008152905160019181900382019020906121c490859080612336565b6040518082805190602001908083835b602083106121f35780518252601f1990920191602091820191016121d4565b6001836020036101000a03801982511681845116808217855250505050505090500191505060405180910390206000191614156122a5576122406110d5846000600163ffffffff61233616565b9050604c811061229a576040805160e560020a62461bcd02815260206004820152601f60248201527f4d756c74692d6279746520707573686573206e6f7420737570706f7274656400604482015290519081900360640190fd5b806009019150610f2c565b6040805160e560020a62461bcd02815260206004820152602160248201527f556e61626c6520746f2064657465726d696e65206f7574707574206c656e677460448201527f6800000000000000000000000000000000000000000000000000000000000000606482015290519081900360840190fd5b600061232682611cc9565b60290260070160ff169050919050565b606080828401855110151515612396576040805160e560020a62461bcd02815260206004820152601360248201527f536c696365206f7574206f6620626f756e647300000000000000000000000000604482015290519081900360640190fd5b821580156123af576040519150602082016040526123f9565b6040519150601f8416801560200281840101858101878315602002848b0101015b818310156123e85780518352602092830192016123d0565b5050858452601f01601f1916604052505b50949350505050565b81518151600091600191811480831461241e576000925061245c565b600160208701838101602088015b60028483851001141561245757805183511461244b5760009650600093505b6020928301920161242c565b505050505b5090949350505050565b6000818381151561247357fe5b049392505050565b6000828211156124d5576040805160e560020a62461bcd02815260206004820152601d60248201527f556e646572666c6f7720647572696e67207375627472616374696f6e2e000000604482015290519081900360640190fd5b509003905600a165627a7a72305820f1dbbdded59354890c983baa63d84343bf329bc35ac83c44de7e53291491d99d0029",
  "source": "pragma solidity 0.4.25;\n\n/** @title BitcoinSPV */\n/** @author Summa (https://summa.one) */\n\nimport {BytesLib} from \"./BytesLib.sol\";\nimport {SafeMath} from \"./SafeMath.sol\";\n\n\nlibrary BTCUtils {\n\n    using BytesLib for bytes;\n    using SafeMath for uint256;\n\n    function extractPrefix(bytes _b) public pure returns (bytes) {\n        // Not enough bytes to extract a valid prefix\n        if (_b.length < 6) { return; }\n        return _b.slice(0, 6);\n    }\n\n    /// @notice          Changes the endianness of a byte array\n    /// @dev             Returns a new, backwards, bytes\n    /// @param _b        The bytes to reverse\n    /// @return          The reversed bytes\n    function reverseEndianness(bytes _b) public pure returns (bytes) {\n\n        bytes memory _newValue = new bytes(_b.length);\n\n        for (uint i = 0; i < _b.length; i++) {\n            _newValue[_b.length - i - 1] = _b[i];\n        }\n\n        return _newValue;\n    }\n\n    /// @notice          Converts big-endian bytes to a uint\n    /// @dev             Traverses the byte array and sums the bytes\n    /// @param _b        The big-endian bytes-encoded integer\n    /// @return          The integer representation\n    function bytesToUint(bytes _b) public pure returns (uint256) {\n        uint256 _number;\n\n        for (uint i = 0; i < _b.length; i++) {\n            _number = _number + uint(_b[i]) * (2 ** (8 * (_b.length - (i + 1))));\n        }\n\n        return _number;\n    }\n\n    /// @notice          Get the last _num bytes from a byte array\n    /// @param _b        The byte array to slice\n    /// @param _num      The number of bytes to extract from the end\n    /// @return          The last _num bytes of _b\n    function lastBytes(bytes _b, uint256 _num) public pure returns (bytes) {\n\n        uint256 _start = _b.length.sub(_num);\n\n        return _b.slice(_start, _num);\n    }\n\n    /// @notice          Implements bitcoin\"s hash160 (rmd160(sha2()))\n    /// @dev             abi.encodePacked changes the return to bytes instead of bytes32\n    /// @param _b        The pre-image\n    /// @return          The digest\n    function hash160(bytes _b) public pure returns (bytes) {\n        return abi.encodePacked(ripemd160(abi.encodePacked(sha256(_b))));\n    }\n\n    /// @notice          Implements bitcoin\"s hash256 (double sha2)\n    /// @dev             abi.encodePacked changes the return to bytes instead of bytes32\n    /// @param _b        The pre-image\n    /// @return          The digest\n    function hash256(bytes _b) public pure returns (bytes32) {\n        return abi.encodePacked(sha256(abi.encodePacked(sha256(_b)))).toBytes32();\n    }\n\n    /* Witness Input */\n    /// @notice          Extracts the LE sequence bytes from an input\n    /// @dev             Sequence is used for relative time locks\n    /// @param _b        The input\n    /// @return          The sequence bytes (LE uint)\n    function extractSequenceLE(bytes _b) public pure returns (bytes) { return _b.slice(37, 4); }\n\n    /// @notice          Extracts the sequence from the input in a tx\n    /// @dev             Sequence is a 4-byte little-endian number\n    /// @param _b        The input\n    /// @return          The sequence number (big-endian uint)\n    function extractSequence(bytes _b) public pure returns (uint32) {\n        bytes memory _leSeqence = extractSequenceLE(_b);\n        bytes memory _beSequence = reverseEndianness(_leSeqence);\n        return uint32(bytesToUint(_beSequence));\n    }\n\n    /// @notice          Extracts the outpoint from the input in a tx\n    /// @dev             32 byte tx id with 4 byte index\n    /// @param _b        The input\n    /// @return          The outpoint (LE bytes of prev tx hash + LE bytes of prev tx index)\n    function extractOutpoint(bytes _b) public pure returns (bytes) { return _b.slice(0, 36); }\n\n    /// @notice          Extracts the tx input tx id from the input in a tx\n    /// @dev             32 byte tx id\n    /// @param _b        The input\n    /// @return          The tx id (little-endian bytes)\n    function extractTxIdLE(bytes _b) public pure returns (bytes32) { return _b.slice(0, 32).toBytes32(); }\n\n    /// @notice          Extracts the tx input tx id from the input in a tx\n    /// @dev             32 byte tx id\n    /// @param _b        The input\n    /// @return          The tx id (big-endian bytes)\n    function extractTxId(bytes _b) public pure returns (bytes32) {\n        bytes memory _leId = abi.encodePacked(extractTxIdLE(_b));\n        bytes memory _beId = reverseEndianness(_leId);\n        return _beId.toBytes32();\n    }\n\n    /// @notice          Extracts the LE tx input index from the input in a tx\n    /// @dev             4 byte tx index\n    /// @param _b        The input\n    /// @return          The tx index (little-endian bytes)\n    function extractTxIndexLE(bytes _b) public pure returns (bytes) { return _b.slice(32, 4); }\n\n    /// @notice          Extracts the tx input index from the input in a tx\n    /// @dev             4 byte tx index\n    /// @param _b        The input\n    /// @return          The tx index (big-endian uint)\n    function extractTxIndex(bytes _b) public pure returns (uint32) {\n        bytes memory _leIndex = extractTxIndexLE(_b);\n        bytes memory _beIndex = reverseEndianness(_leIndex);\n        return uint32(bytesToUint(_beIndex));\n    }\n\n    /* Witness Output */\n    /// @notice          Extracts the output script length\n    /// @dev             Indexes the length prefix on the pk_script\n    /// @param _b        The output\n    /// @return          The 1 byte length prefix\n    function extractOutputScriptLen(bytes _b) public pure returns (bytes) { return _b.slice(8, 1); }\n\n    /// @notice          Extracts the value bytes from the output in a tx\n    /// @dev             Value is an 8-byte little-endian number\n    /// @param _b        The tx\n    /// @return          The output value as LE bytes\n    function extractValueLE(bytes _b) public pure returns (bytes) { return _b.slice(0, 8); }\n\n    /// @notice          Extracts the value from the output in a tx\n    /// @dev             Value is an 8-byte little-endian number\n    /// @param _b        The tx\n    /// @return          The output value\n    function extractValue(bytes _b) public pure returns (uint64) {\n        bytes memory _leValue = extractValueLE(_b);\n        bytes memory _beValue = reverseEndianness(_leValue);\n        return uint64(bytesToUint(_beValue));\n    }\n\n    /// @notice          Extracts the value from the output in a tx\n    /// @dev             Value is an 8-byte little-endian number\n    /// @param _b        The tx\n    /// @return          The output value\n    function extractOpReturnData(bytes _b) public pure returns (bytes) {\n        require(_b.slice(9, 1).equal(hex\"6a\"), \"Not an OP_RETURN output\");\n        bytes memory _dataLen = _b.slice(10, 1);\n        return _b.slice(11, bytesToUint(_dataLen));\n    }\n\n    /// @notice          Extracts the hash from the output script\n    /// @dev             Determines type by the length prefix\n    /// @param _b        The output\n    /// @return          The hash committed to by the pk_script\n    function extractHash(bytes _b) public pure returns (bytes) {\n        require(_b.slice(9, 1).equal(hex\"00\"), \"Not a witness output\");\n        uint256 _len = (extractOutputScriptLen(_b).equal(hex\"22\")) ? 32 : 20;\n        return _b.slice(11, _len);\n    }\n\n    /* TX */\n    /// @notice          Extracts the locktime bytes from a transaction\n    /// @dev             Takes the last 4 bytes off a byte array\n    /// @param _b        The bytes containing the encoded locktime\n    /// @return          The LE-encoded locktime\n    function extractLocktimeLE(bytes _b) public pure returns (bytes) { return lastBytes(_b, 4); }\n\n    /// @notice          Extracts the locktime and converts it to integer\n    /// @dev             Locktimes are littleendian\n    /// @param _b        The transaction terminating in the lock time\n    /// @return          The uint value of the locktime bytes\n    function extractLocktime(bytes _b) public pure returns (uint32) {\n        bytes memory _leLocktime = extractLocktimeLE(_b);\n        bytes memory _beLocktime = reverseEndianness(_leLocktime);\n        return uint32(bytesToUint(_beLocktime));\n    }\n\n    /// @notice          Extracts number of inputs as bytes\n    /// @dev             This is encoded as a VarInt, and errors for high values\n    /// @param _b        The tx to evaluate\n    /// @return          The number of inputs\n    function extractNumInputsBytes(bytes _b) public pure returns (bytes) {\n        return _b.slice(6, 1);\n    }\n\n    /// @notice          Extracts number of inputs as integer\n    /// @dev             This is encoded as a VarInt, and errors for high values\n    /// @param _b        The tx to evaluate\n    /// @return          The number of inputs\n    function extractNumInputs(bytes _b) public pure returns (uint8) {\n        uint256 _n = bytesToUint(extractNumInputsBytes(_b));\n        require(_n < 0xfd, \"VarInts not supported\");  // Error on VarInts\n        return uint8(_n);\n    }\n\n    /// @notice          Finds the location of the number of outputs\n    /// @dev             This depends on the number of inputs\n    /// @param _b        The tx to evaluate\n    /// @return          The index of the VarInt numTxOuts\n    function findNumOutputs(bytes _b) public pure returns (uint256) {\n        return 7 + (41 * extractNumInputs(_b));\n    }\n\n    /// @notice          Extracts number of outputs as integer\n    /// @dev             This is encoded as a VarInt, and errors for high values\n    /// @param _b        The tx to evaluate\n    /// @return          The number of outputs\n    function extractNumOutputsBytes(bytes _b) public pure returns (bytes) {\n        uint256 _offset = findNumOutputs(_b);\n        return _b.slice(_offset, 1);\n    }\n\n    /// @notice          Extracts number of outputs as integer\n    /// @dev             This is encoded as a VarInt, and errors for high values\n    /// @param _b        The tx to evaluate\n    /// @return          The number of outputs\n    function extractNumOutputs(bytes _b) public pure returns (uint8) {\n        uint256 _offset = findNumOutputs(_b);\n        uint256 _n = bytesToUint(_b.slice(_offset, 1));\n        require(_n < 0xfd, \"VarInts not supported\");  // Error on VarInts\n        return uint8(_n);\n    }\n\n    /// @notice          Extracts the input at a given index in the TxIns vector\n    /// @param _b        The tx to evaluate\n    /// @param _index    The 0-indexed location of the input to extract\n    /// @return          The specified input\n    function extractInputAtIndex(bytes _b, uint8 _index) public pure returns (bytes) {\n        require(_index < extractNumInputs(_b), \"Index more than number of inputs\");\n        uint256 _offset = 7 + (41 * _index);\n        return _b.slice(_offset, 41);\n    }\n\n    /// @notice          Determines the length of an output\n    /// @dev             5 types: WPKH, WSH, PKH, SH, and OP_RETURN\n    /// @param _b        2 bytes from the start of the output script\n    /// @return          The length indicated by the prefix, error if invalid length\n    function determineOutputLength(bytes _b) public pure returns (uint256) {\n\n        // Keccak for equality because it doesn\"t work otherwise.\n        // Wasted an hour here\n\n        // P2WSH\n        if (keccak256(_b) == keccak256(hex\"2200\")) { return 43; }\n\n        // P2WPKH\n        if (keccak256(_b) == keccak256(hex\"1600\")) { return 31; }\n\n        // Legacy P2PKH\n        if (keccak256(_b) == keccak256(hex\"1976\")) { return 34; }\n\n        // legacy P2SH\n        if (keccak256(_b) == keccak256(hex\"17a9\")) { return 32; }\n\n        // OP_RETURN\n        if (keccak256(_b.slice(1, 1)) == keccak256(hex\"6a\")) {\n            uint _pushLen = bytesToUint(_b.slice(0, 1));\n            require(_pushLen < 76, \"Multi-byte pushes not supported\");\n            // 8 byte value + 1 byte len + len bytes data\n            return 9 + _pushLen;\n        }\n\n        // Error if we fall through the if statements\n        require(false, \"Unable to determine output length\");\n    }\n\n    /// @notice          Extracts the output at a given index in the TxIns vector\n    /// @param _b        The tx to evaluate\n    /// @param _index    The 0-indexed location of the output to extract\n    /// @return          The specified output\n    function extractOutputAtIndex(bytes _b, uint8 _index) public pure returns (bytes) {\n\n        // Some gas wasted here. This duplicates findNumOutputs\n        require(_index < extractNumOutputs(_b), \"Index more than number of outputs\");\n\n        // First output is the next byte after the number of outputs\n        uint256 _offset = findNumOutputs(_b) + 1;\n\n        // Determine length of first ouput\n        uint _len = determineOutputLength(_b.slice(_offset + 8, 2));\n\n        // This loop moves forward, and then gets the len of the next one\n        for (uint i = 0; i < _index; i++) {\n            _offset = _offset + _len;\n            _len = determineOutputLength(_b.slice(_offset + 8, 2));\n        }\n\n        // We now have the length and offset of the one we want\n        return _b.slice(_offset, _len);\n    }\n\n    /* Block Header */\n    /// @notice          Extracts the transaction merkle root from a block header\n    /// @dev             Use verifyHash256Merkle to verify proofs with this root\n    /// @param _b        The header\n    /// @return          The merkle root (little-endian)\n    function extractMerkleRootLE(bytes _b) public pure returns (bytes) { return _b.slice(36, 32); }\n\n    /// @notice          Extracts the transaction merkle root from a block header\n    /// @dev             Use verifyHash256Merkle to verify proofs with this root\n    /// @param _b        The header\n    /// @return          The merkle root (big-endian)\n    function extractMerkleRootBE(bytes _b) public pure returns (bytes) {\n        return reverseEndianness(extractMerkleRootLE(_b));\n    }\n\n    /// @notice          Extracts the target from a block header\n    /// @dev             Target is a 256 bit number encoded as a 3-byte mantissa and 1 byte exponent\n    /// @param _b        The header\n    /// @return          The target threshold\n    function extractTarget(bytes _b) public pure returns (uint256) {\n        bytes memory _m = _b.slice(72, 3);\n        bytes memory _e = _b.slice(75, 1);\n        uint256 _mantissa = bytesToUint(reverseEndianness(_m));\n        uint _exponent = bytesToUint(_e) - 3;\n\n        return _mantissa * (256 ** _exponent);\n    }\n\n    /// @notice          Calculate difficulty from the difficulty 1 target and current target\n    /// @dev             Difficulty 1 is 0x1d00ffff on mainnet and testnet\n    /// @dev             Difficulty 1 is a 256 bit number encoded as a 3-byte mantissa and 1 byte exponent\n    /// @param _target   The current target\n    /// @return          The block difficulty (bdiff)\n    function calculateDifficulty(uint256 _target) public pure returns (uint256) {\n        // Difficulty 1 calculated from 0x1d00ffff\n        uint256 _difficulty1Target = 26959535291011309493156476344723991336010898738574164086137773096960;\n        return _difficulty1Target.div(_target);\n    }\n\n    /// @notice          Extracts the previous block\"s hash from a block header\n    /// @dev             Block headers do NOT include block number :(\n    /// @param _b        The header\n    /// @return          The previous block\"s hash (little-endian)\n    function extractPrevBlockLE(bytes _b) public pure returns (bytes) { return _b.slice(4, 32); }\n\n    /// @notice          Extracts the previous block\"s hash from a block header\n    /// @dev             Block headers do NOT include block number :(\n    /// @param _b        The header\n    /// @return          The previous block\"s hash (big-endian)\n    function extractPrevBlockBE(bytes _b) public pure returns (bytes) {\n        return reverseEndianness(extractPrevBlockLE(_b));\n    }\n\n    /// @notice          Extracts the timestamp from a block header\n    /// @dev             Time is not 100% reliable\n    /// @param _b        The header\n    /// @return          The timestamp (little-endian bytes)\n    function extractTimestampLE(bytes _b) public pure returns (bytes) { return _b.slice(68, 4); }\n\n    /// @notice          Extracts the timestamp from a block header\n    /// @dev             Time is not 100% reliable\n    /// @param _b        The header\n    /// @return          The timestamp (uint)\n    function extractTimestamp(bytes _b) public pure returns (uint32) {\n        return uint32(bytesToUint(reverseEndianness(extractTimestampLE(_b))));\n    }\n\n    /// @notice          Concatenates and hashes two inputs for merkle proving\n    /// @param _a        The first hash\n    /// @param _b        The second hash\n    /// @return          The double-sha256 of the concatenated hashes\n    function _hash256MerkleStep(bytes _a, bytes _b) public pure returns (bytes32) {\n        return hash256(abi.encodePacked(_a, _b));\n    }\n\n    /// @notice          Verifies a Bitcoin-style merkle tree\n    /// @dev             Leaves are 1-indexed.\n    /// @param _a        The proof. Tightly packed LE sha256 hashes. The last hash is the root\n    /// @param _index    The index of the leaf\n    /// @return          true if the proof is valid, else false\n    function verifyHash256Merkle(bytes _a, uint _index) public pure returns (bool) {\n        // Not an even number of hashes\n        if (_a.length % 32 != 0) { return false; }\n\n        // Special case for coinbase-only blocks\n        if (_a.length == 32) { return true; }\n\n        // Should never occur\n        if (_a.length == 64) { return false; }\n\n        bytes32 _root = _a.slice(_a.length - 32, 32).toBytes32();\n        bytes32 _current = _a.slice(0, 32).toBytes32();\n\n        for (uint i = 1; i < (_a.length.div(32)) - 1; i++) {\n\n            if (_index % 2 == 0) {\n                _current = _hash256MerkleStep(_a.slice(i * 32, 32), abi.encodePacked(_current));\n                _index = _index.div(2);\n            } else {\n                _current = _hash256MerkleStep(abi.encodePacked(_current), _a.slice(i * 32, 32));\n                _index = _index.div(2) + 1;\n            }\n        }\n        return _current == _root;\n    }\n}\n",
  "sourcePath": "/Users/liamz/go/src/github.com/keep-network/tbtc/implementation/contracts/bitcoin-spv/BTCUtils.sol",
  "compiler": {
    "name": "solc",
    "version": "0.4.25+commit.59dbf8f1.Emscripten.clang"
  },
  "schemaVersion": "3.0.10",
  "updatedAt": "2019-08-01T17:39:26.677Z",
  "devdoc": {
    "methods": {
      "_hash256MerkleStep(bytes,bytes)": {
        "params": {
          "_a": "The first hash",
          "_b": "The second hash"
        },
        "return": "The double-sha256 of the concatenated hashes"
      },
      "bytesToUint(bytes)": {
        "details": "Traverses the byte array and sums the bytes",
        "params": {
          "_b": "The big-endian bytes-encoded integer"
        },
        "return": "The integer representation"
      },
      "calculateDifficulty(uint256)": {
        "details": "Difficulty 1 is 0x1d00ffff on mainnet and testnetDifficulty 1 is a 256 bit number encoded as a 3-byte mantissa and 1 byte exponent",
        "params": {
          "_target": "The current target"
        },
        "return": "The block difficulty (bdiff)"
      },
      "determineOutputLength(bytes)": {
        "details": "5 types: WPKH, WSH, PKH, SH, and OP_RETURN",
        "params": {
          "_b": "2 bytes from the start of the output script"
        },
        "return": "The length indicated by the prefix, error if invalid length"
      },
      "extractHash(bytes)": {
        "details": "Determines type by the length prefix",
        "params": {
          "_b": "The output"
        },
        "return": "The hash committed to by the pk_script"
      },
      "extractInputAtIndex(bytes,uint8)": {
        "params": {
          "_b": "The tx to evaluate",
          "_index": "The 0-indexed location of the input to extract"
        },
        "return": "The specified input"
      },
      "extractLocktime(bytes)": {
        "details": "Locktimes are littleendian",
        "params": {
          "_b": "The transaction terminating in the lock time"
        },
        "return": "The uint value of the locktime bytes"
      },
      "extractLocktimeLE(bytes)": {
        "details": "Takes the last 4 bytes off a byte array",
        "params": {
          "_b": "The bytes containing the encoded locktime"
        },
        "return": "The LE-encoded locktime"
      },
      "extractMerkleRootBE(bytes)": {
        "details": "Use verifyHash256Merkle to verify proofs with this root",
        "params": {
          "_b": "The header"
        },
        "return": "The merkle root (big-endian)"
      },
      "extractMerkleRootLE(bytes)": {
        "details": "Use verifyHash256Merkle to verify proofs with this root",
        "params": {
          "_b": "The header"
        },
        "return": "The merkle root (little-endian)"
      },
      "extractNumInputs(bytes)": {
        "details": "This is encoded as a VarInt, and errors for high values",
        "params": {
          "_b": "The tx to evaluate"
        },
        "return": "The number of inputs"
      },
      "extractNumInputsBytes(bytes)": {
        "details": "This is encoded as a VarInt, and errors for high values",
        "params": {
          "_b": "The tx to evaluate"
        },
        "return": "The number of inputs"
      },
      "extractNumOutputs(bytes)": {
        "details": "This is encoded as a VarInt, and errors for high values",
        "params": {
          "_b": "The tx to evaluate"
        },
        "return": "The number of outputs"
      },
      "extractNumOutputsBytes(bytes)": {
        "details": "This is encoded as a VarInt, and errors for high values",
        "params": {
          "_b": "The tx to evaluate"
        },
        "return": "The number of outputs"
      },
      "extractOpReturnData(bytes)": {
        "details": "Value is an 8-byte little-endian number",
        "params": {
          "_b": "The tx"
        },
        "return": "The output value"
      },
      "extractOutpoint(bytes)": {
        "details": "32 byte tx id with 4 byte index",
        "params": {
          "_b": "The input"
        },
        "return": "The outpoint (LE bytes of prev tx hash + LE bytes of prev tx index)"
      },
      "extractOutputAtIndex(bytes,uint8)": {
        "params": {
          "_b": "The tx to evaluate",
          "_index": "The 0-indexed location of the output to extract"
        },
        "return": "The specified output"
      },
      "extractOutputScriptLen(bytes)": {
        "details": "Indexes the length prefix on the pk_script",
        "params": {
          "_b": "The output"
        },
        "return": "The 1 byte length prefix"
      },
      "extractPrevBlockBE(bytes)": {
        "details": "Block headers do NOT include block number :(",
        "params": {
          "_b": "The header"
        },
        "return": "The previous block\"s hash (big-endian)"
      },
      "extractPrevBlockLE(bytes)": {
        "details": "Block headers do NOT include block number :(",
        "params": {
          "_b": "The header"
        },
        "return": "The previous block\"s hash (little-endian)"
      },
      "extractSequence(bytes)": {
        "details": "Sequence is a 4-byte little-endian number",
        "params": {
          "_b": "The input"
        },
        "return": "The sequence number (big-endian uint)"
      },
      "extractSequenceLE(bytes)": {
        "details": "Sequence is used for relative time locks",
        "params": {
          "_b": "The input"
        },
        "return": "The sequence bytes (LE uint)"
      },
      "extractTarget(bytes)": {
        "details": "Target is a 256 bit number encoded as a 3-byte mantissa and 1 byte exponent",
        "params": {
          "_b": "The header"
        },
        "return": "The target threshold"
      },
      "extractTimestamp(bytes)": {
        "details": "Time is not 100% reliable",
        "params": {
          "_b": "The header"
        },
        "return": "The timestamp (uint)"
      },
      "extractTimestampLE(bytes)": {
        "details": "Time is not 100% reliable",
        "params": {
          "_b": "The header"
        },
        "return": "The timestamp (little-endian bytes)"
      },
      "extractTxId(bytes)": {
        "details": "32 byte tx id",
        "params": {
          "_b": "The input"
        },
        "return": "The tx id (big-endian bytes)"
      },
      "extractTxIdLE(bytes)": {
        "details": "32 byte tx id",
        "params": {
          "_b": "The input"
        },
        "return": "The tx id (little-endian bytes)"
      },
      "extractTxIndex(bytes)": {
        "details": "4 byte tx index",
        "params": {
          "_b": "The input"
        },
        "return": "The tx index (big-endian uint)"
      },
      "extractTxIndexLE(bytes)": {
        "details": "4 byte tx index",
        "params": {
          "_b": "The input"
        },
        "return": "The tx index (little-endian bytes)"
      },
      "extractValue(bytes)": {
        "details": "Value is an 8-byte little-endian number",
        "params": {
          "_b": "The tx"
        },
        "return": "The output value"
      },
      "extractValueLE(bytes)": {
        "details": "Value is an 8-byte little-endian number",
        "params": {
          "_b": "The tx"
        },
        "return": "The output value as LE bytes"
      },
      "findNumOutputs(bytes)": {
        "details": "This depends on the number of inputs",
        "params": {
          "_b": "The tx to evaluate"
        },
        "return": "The index of the VarInt numTxOuts"
      },
      "hash160(bytes)": {
        "details": "abi.encodePacked changes the return to bytes instead of bytes32",
        "params": {
          "_b": "The pre-image"
        },
        "return": "The digest"
      },
      "hash256(bytes)": {
        "details": "abi.encodePacked changes the return to bytes instead of bytes32",
        "params": {
          "_b": "The pre-image"
        },
        "return": "The digest"
      },
      "lastBytes(bytes,uint256)": {
        "params": {
          "_b": "The byte array to slice",
          "_num": "The number of bytes to extract from the end"
        },
        "return": "The last _num bytes of _b"
      },
      "reverseEndianness(bytes)": {
        "details": "Returns a new, backwards, bytes",
        "params": {
          "_b": "The bytes to reverse"
        },
        "return": "The reversed bytes"
      },
      "verifyHash256Merkle(bytes,uint256)": {
        "details": "Leaves are 1-indexed.",
        "params": {
          "_a": "The proof. Tightly packed LE sha256 hashes. The last hash is the root",
          "_index": "The index of the leaf"
        },
        "return": "true if the proof is valid, else false"
      }
    }
  },
  "userdoc": {
    "methods": {
      "_hash256MerkleStep(bytes,bytes)": {
        "notice": "Concatenates and hashes two inputs for merkle proving"
      },
      "bytesToUint(bytes)": {
        "notice": "Converts big-endian bytes to a uint"
      },
      "calculateDifficulty(uint256)": {
        "notice": "Calculate difficulty from the difficulty 1 target and current target"
      },
      "determineOutputLength(bytes)": {
        "notice": "Determines the length of an output"
      },
      "extractHash(bytes)": {
        "notice": "Extracts the hash from the output script"
      },
      "extractInputAtIndex(bytes,uint8)": {
        "notice": "Extracts the input at a given index in the TxIns vector"
      },
      "extractLocktime(bytes)": {
        "notice": "Extracts the locktime and converts it to integer"
      },
      "extractLocktimeLE(bytes)": {
        "notice": "Extracts the locktime bytes from a transaction"
      },
      "extractMerkleRootBE(bytes)": {
        "notice": "Extracts the transaction merkle root from a block header"
      },
      "extractMerkleRootLE(bytes)": {
        "notice": "Extracts the transaction merkle root from a block header"
      },
      "extractNumInputs(bytes)": {
        "notice": "Extracts number of inputs as integer"
      },
      "extractNumInputsBytes(bytes)": {
        "notice": "Extracts number of inputs as bytes"
      },
      "extractNumOutputs(bytes)": {
        "notice": "Extracts number of outputs as integer"
      },
      "extractNumOutputsBytes(bytes)": {
        "notice": "Extracts number of outputs as integer"
      },
      "extractOpReturnData(bytes)": {
        "notice": "Extracts the value from the output in a tx"
      },
      "extractOutpoint(bytes)": {
        "notice": "Extracts the outpoint from the input in a tx"
      },
      "extractOutputAtIndex(bytes,uint8)": {
        "notice": "Extracts the output at a given index in the TxIns vector"
      },
      "extractOutputScriptLen(bytes)": {
        "notice": "Extracts the output script length"
      },
      "extractPrevBlockBE(bytes)": {
        "notice": "Extracts the previous block\"s hash from a block header"
      },
      "extractPrevBlockLE(bytes)": {
        "notice": "Extracts the previous block\"s hash from a block header"
      },
      "extractSequence(bytes)": {
        "notice": "Extracts the sequence from the input in a tx"
      },
      "extractSequenceLE(bytes)": {
        "notice": "Extracts the LE sequence bytes from an input"
      },
      "extractTarget(bytes)": {
        "notice": "Extracts the target from a block header"
      },
      "extractTimestamp(bytes)": {
        "notice": "Extracts the timestamp from a block header"
      },
      "extractTimestampLE(bytes)": {
        "notice": "Extracts the timestamp from a block header"
      },
      "extractTxId(bytes)": {
        "notice": "Extracts the tx input tx id from the input in a tx"
      },
      "extractTxIdLE(bytes)": {
        "notice": "Extracts the tx input tx id from the input in a tx"
      },
      "extractTxIndex(bytes)": {
        "notice": "Extracts the tx input index from the input in a tx"
      },
      "extractTxIndexLE(bytes)": {
        "notice": "Extracts the LE tx input index from the input in a tx"
      },
      "extractValue(bytes)": {
        "notice": "Extracts the value from the output in a tx"
      },
      "extractValueLE(bytes)": {
        "notice": "Extracts the value bytes from the output in a tx"
      },
      "findNumOutputs(bytes)": {
        "notice": "Finds the location of the number of outputs"
      },
      "hash160(bytes)": {
        "notice": "Implements bitcoin\"s hash160 (rmd160(sha2()))"
      },
      "hash256(bytes)": {
        "notice": "Implements bitcoin\"s hash256 (double sha2)"
      },
      "lastBytes(bytes,uint256)": {
        "notice": "Get the last _num bytes from a byte array"
      },
      "reverseEndianness(bytes)": {
        "notice": "Changes the endianness of a byte array"
      },
      "verifyHash256Merkle(bytes,uint256)": {
        "notice": "Verifies a Bitcoin-style merkle tree"
      }
    }
  }
}