{
  "contractName": "CheckBitcoinSigs",
  "abi": [
    {
      "constant": true,
      "inputs": [
        {
          "name": "_pubkey",
          "type": "bytes"
        }
      ],
      "name": "accountFromPubkey",
      "outputs": [
        {
          "name": "",
          "type": "address"
        }
      ],
      "payable": false,
      "stateMutability": "pure",
      "type": "function"
    },
    {
      "constant": true,
      "inputs": [
        {
          "name": "_pubkey",
          "type": "bytes"
        }
      ],
      "name": "p2wpkhFromPubkey",
      "outputs": [
        {
          "name": "",
          "type": "bytes"
        }
      ],
      "payable": false,
      "stateMutability": "pure",
      "type": "function"
    },
    {
      "constant": true,
      "inputs": [
        {
          "name": "_pubkey",
          "type": "bytes"
        },
        {
          "name": "_digest",
          "type": "bytes32"
        },
        {
          "name": "_v",
          "type": "uint8"
        },
        {
          "name": "_r",
          "type": "bytes32"
        },
        {
          "name": "_s",
          "type": "bytes32"
        }
      ],
      "name": "checkSig",
      "outputs": [
        {
          "name": "",
          "type": "bool"
        }
      ],
      "payable": false,
      "stateMutability": "pure",
      "type": "function"
    },
    {
      "constant": true,
      "inputs": [
        {
          "name": "_p2wpkhOutputScript",
          "type": "bytes"
        },
        {
          "name": "_pubkey",
          "type": "bytes"
        },
        {
          "name": "_digest",
          "type": "bytes32"
        },
        {
          "name": "_v",
          "type": "uint8"
        },
        {
          "name": "_r",
          "type": "bytes32"
        },
        {
          "name": "_s",
          "type": "bytes32"
        }
      ],
      "name": "checkBitcoinSig",
      "outputs": [
        {
          "name": "",
          "type": "bool"
        }
      ],
      "payable": false,
      "stateMutability": "pure",
      "type": "function"
    },
    {
      "constant": true,
      "inputs": [
        {
          "name": "_candidate",
          "type": "bytes"
        },
        {
          "name": "_digest",
          "type": "bytes32"
        }
      ],
      "name": "isSha256Preimage",
      "outputs": [
        {
          "name": "",
          "type": "bool"
        }
      ],
      "payable": false,
      "stateMutability": "pure",
      "type": "function"
    },
    {
      "constant": true,
      "inputs": [
        {
          "name": "_candidate",
          "type": "bytes"
        },
        {
          "name": "_digest",
          "type": "bytes32"
        }
      ],
      "name": "isKeccak256Preimage",
      "outputs": [
        {
          "name": "",
          "type": "bool"
        }
      ],
      "payable": false,
      "stateMutability": "pure",
      "type": "function"
    },
    {
      "constant": true,
      "inputs": [
        {
          "name": "_outpoint",
          "type": "bytes"
        },
        {
          "name": "_inputPKH",
          "type": "bytes20"
        },
        {
          "name": "_inputValue",
          "type": "bytes8"
        },
        {
          "name": "_outputValue",
          "type": "bytes8"
        },
        {
          "name": "_outputPKH",
          "type": "bytes20"
        }
      ],
      "name": "oneInputOneOutputSighash",
      "outputs": [
        {
          "name": "",
          "type": "bytes32"
        }
      ],
      "payable": false,
      "stateMutability": "pure",
      "type": "function"
    }
  ],
  "bytecode": "0x611118610030600b82828239805160001a6073146000811461002057610022565bfe5b5030600052607381538281f30073000000000000000000000000000000000000000030146080604052600436106100995763ffffffff7c01000000000000000000000000000000000000000000000000000000006000350416633cab9126811461009e5780633f43b4a0146101005780633f69fc971461014e5780637452ab241461020f578063831567a0146102ad5780638ad522f91461034e578063cac9c974146103c3575b600080fd5b6040805160206004803580820135601f81018490048402850184019095528484526100ec94369492936024939284019190819084018382808284375094975050933594506104239350505050565b604080519115158252519081900360200190f35b6040805160206004803580820135601f81018490048402850184019095528484526100ec94369492936024939284019190819084018382808284375094975050933594506104bc9350505050565b6040805160206004803580820135601f810184900484028501840190955284845261019a94369492936024939284019190819084018382808284375094975061052a9650505050505050565b6040805160208082528351818301528351919283929083019185019080838360005b838110156101d45781810151838201526020016101bc565b50505050905090810190601f1680156102015780820380516001836020036101000a031916815260200191505b509250505060405180910390f35b6040805160206004803580820135601f81018490048402850184019095528484526100ec94369492936024939284019190819084018382808284375050604080516020601f89358b018035918201839004830284018301909452808352979a9998810197919650918201945092508291508401838280828437509497505084359550505050602082013560ff169160408101359150606001356107c1565b6040805160206004803580820135601f810184900484028501840190955284845261033c943694929360249392840191908190840183828082843750949750506bffffffffffffffffffffffff1985358116965077ffffffffffffffffffffffffffffffffffffffffffffffff19602087013581169660408101359091169550606001351692506108d6915050565b60408051918252519081900360200190f35b6040805160206004803580820135601f810184900484028501840190955284845261039a943694929360249392840191908190840183828082843750949750610e169650505050505050565b6040805173ffffffffffffffffffffffffffffffffffffffff9092168252519081900360200190f35b6040805160206004803580820135601f81018490048402850184019095528484526100ec9436949293602493928401919081908401838280828437509497505084359550505050602082013560ff16916040810135915060600135610eb3565b600081600019166002846040518082805190602001908083835b6020831061045c5780518252601f19909201916020918201910161043d565b51815160209384036101000a600019018019909216911617905260405191909301945091925050808303816000865af115801561049d573d6000803e3d6000fd5b5050506040513d60208110156104b257600080fd5b5051149392505050565b60008160001916836040518082805190602001908083835b602083106104f35780518252601f1990920191602091820191016104d4565b5181516020939093036101000a60001901801990911692169190911790526040519201829003909120939093149695505050505050565b6060808251604014156105c9578260405160200180807f040000000000000000000000000000000000000000000000000000000000000081525060010182805190602001908083835b602083106105925780518252601f199092019160209182019101610573565b6001836020036101000a03801982511681845116808217855250505050505090500191505060405160208183030381529060405292505b82516041146105d757600080fd5b6040517f48cf5c9400000000000000000000000000000000000000000000000000000000815260206004820181815285516024840152855173__BTCUtils______________________________936348cf5c949388939283926044019185019080838360005b8381101561065557818101518382015260200161063d565b50505050905090810190601f1680156106825780820380516001836020036101000a031916815260200191505b509250505060006040518083038186803b15801561069f57600080fd5b505af41580156106b3573d6000803e3d6000fd5b505050506040513d6000823e601f3d908101601f1916820160405260208110156106dc57600080fd5b8101908080516401000000008111156106f457600080fd5b8201602081018481111561070757600080fd5b815164010000000081118282018710171561072157600080fd5b505092919050505090508060405160200180807e1400000000000000000000000000000000000000000000000000000000000081525060020182805190602001908083835b602083106107855780518252601f199092019160209182019101610766565b6001836020036101000a038019825116818451168082178552505050505050905001915050604051602081830303815290604052915050919050565b60008060606000896040518082805190602001908083835b602083106107f85780518252601f1990920191602091820191016107d9565b6001836020036101000a0380198251168184511680821785525050505050509050019150506040518091039020600019166108328a61052a565b6040518082805190602001908083835b602083106108615780518252601f199092019160209182019101610842565b5181516000196020949094036101000a8401908116901991909116179052604051939091018390039092208e51951497506108ad948e945060019350909101905063ffffffff610f5116565b91506108bc8289898989610eb3565b90508280156108c85750805b9a9950505050505050505050565b604080517f1976a914000000000000000000000000000000000000000000000000000000006020808301919091526bffffffffffffffffffffffff1980881660248401527f88ac00000000000000000000000000000000000000000000000000000000000060388401528351601a818503018152603a8401855277ffffffffffffffffffffffffffffffffffffffffffffffff198716605a8501527f1600140000000000000000000000000000000000000000000000000000000000606285015290851660658401528351605981850301815260798401948590527f39efb09a00000000000000000000000000000000000000000000000000000000909452607d83018281528451609d85015284516000959294869460609473__BTCUtils______________________________946339efb09a9491939092839260bd90920191908501908083838c5b83811015610a38578181015183820152602001610a20565b50505050905090810190601f168015610a655780820380516001836020036101000a031916815260200191505b509250505060206040518083038186803b158015610a8257600080fd5b505af4158015610a96573d6000803e3d6000fd5b505050506040513d6020811015610aac57600080fd5b50516040517f39efb09a0000000000000000000000000000000000000000000000000000000081526020600482018181528c5160248401528c5193955073__BTCUtils______________________________936339efb09a938e9383926044909201919085019080838360005b83811015610b31578181015183820152602001610b19565b50505050905090810190601f168015610b5e5780820380516001836020036101000a031916815260200191505b509250505060206040518083038186803b158015610b7b57600080fd5b505af4158015610b8f573d6000803e3d6000fd5b505050506040513d6020811015610ba557600080fd5b50516040517f01000000000000000000000000000000000000000000000000000000000000006020828101918252602483018490527f8cb9012517c817fead650287d61bdd9c68803b6bf9c64133dcab3e65b5a50cb960448401528c518d9388938d938993919260640191908701908083835b60208310610c375780518252601f199092019160209182019101610c18565b51815160209384036101000a600019018019909216911617905287519190930192870191508083835b60208310610c7f5780518252601f199092019160209182019101610c60565b51815160209384036101000a600019018019909216911617905277ffffffffffffffffffffffffffffffffffffffffffffffff1996909616920191825250600060088201819052600c820193909352602c81018390527f0100000000000000000000000000000000000000000000000000000000000000603082015260408051808303601401815260348301918290527f39efb09a000000000000000000000000000000000000000000000000000000009091526038820185815281516058840152815191995073__BTCUtils______________________________98506339efb09a9750899650948594607890930193508601918190849084905b83811015610d93578181015183820152602001610d7b565b50505050905090810190601f168015610dc05780820380516001836020036101000a031916815260200191505b509250505060206040518083038186803b158015610ddd57600080fd5b505af4158015610df1573d6000803e3d6000fd5b505050506040513d6020811015610e0757600080fd5b50519998505050505050505050565b6000606082516040141515610e2a57600080fd5b826040518082805190602001908083835b60208310610e5a5780518252601f199092019160209182019101610e3b565b51815160209384036101000a6000190180199092169116179052604080519290940182900382208282015283518083039091018152908301909252508051909350610eac925083915060131901611034565b9392505050565b6000806000610ec188610e16565b60408051600080825260208083018085528c905260ff8b1683850152606083018a905260808301899052925193955060019360a08084019493601f19830193908390039091019190865af1158015610f1d573d6000803e3d6000fd5b5050604051601f19015173ffffffffffffffffffffffffffffffffffffffff90811693169290921498975050505050505050565b606080828401855110151515610fc857604080517f08c379a000000000000000000000000000000000000000000000000000000000815260206004820152601360248201527f536c696365206f7574206f6620626f756e647300000000000000000000000000604482015290519081900360640190fd5b82158015610fe15760405191506020820160405261102b565b6040519150601f8416801560200281840101858101878315602002848b0101015b8183101561101a578051835260209283019201611002565b5050858452601f01601f1916604052505b50949350505050565b600080826014018451101515156110d257604080517f08c379a000000000000000000000000000000000000000000000000000000000815260206004820152602160248201527f4164647265737320636f6e76657273696f6e206f7574206f6620626f756e647360448201527f2e00000000000000000000000000000000000000000000000000000000000000606482015290519081900360840190fd5b505001602001516c010000000000000000000000009004905600a165627a7a723058209606e1377e9104bcef9c81c3a6c3a91e4ed90af973707c6f976e26b0097c9ea70029",
  "source": "pragma solidity 0.4.25;\n\n/** @title CheckBitcoinSigs */\n/** @author Summa (https://summa.one) */\n\nimport {BytesLib} from \"./BytesLib.sol\";\nimport {BTCUtils} from \"./BTCUtils.sol\";\n\n\nlibrary CheckBitcoinSigs {\n\n    using BytesLib for bytes;\n    using BTCUtils for bytes;\n\n    /// @notice          derives an Ethereum Account address from a pubkey\n    /// @dev             the address is the last 20 bytes of the keccak256 of the address\n    /// @param _pubkey   the public key\n    /// @return          the account address\n    function accountFromPubkey(bytes _pubkey) public pure returns (address) {\n        require(_pubkey.length == 64);\n\n        // keccak hash of uncompressed unprefixed pubkey\n        bytes memory _digest = abi.encodePacked(keccak256(_pubkey));\n        return _digest.toAddress(_digest.length - 20);  // last 20 bytes\n    }\n\n    /// @notice          calculates the p2wpkh output script of a pubkey\n    /// @dev             pads uncompressed pubkeys to 65 bytes as required by Bitcoin\n    /// @param _pubkey   the public key\n    /// @return          the p2wkph output script\n    function p2wpkhFromPubkey(bytes _pubkey) public pure returns (bytes) {\n        if (_pubkey.length == 64) {\n            _pubkey = abi.encodePacked(hex\"04\", _pubkey);\n        }\n        require(_pubkey.length == 65);  // prefixed uncompressed\n\n        bytes memory _pubkeyHash = _pubkey.hash160();\n        return abi.encodePacked(hex\"0014\", _pubkeyHash);\n    }\n\n    /// @notice          checks a signed message's validity under a pubkey\n    /// @dev             does this using ecrecover because Ethereum has no soul\n    /// @param _pubkey   the public key to check (64 bytes)\n    /// @param _digest   the message digest signed\n    /// @param _v        the signature recovery value\n    /// @param _r        the signature r value\n    /// @param _s        the signature s value\n    /// @return          true if signature is valid, else false\n    function checkSig(\n        bytes _pubkey,\n        bytes32 _digest,\n        uint8 _v,\n        bytes32 _r,\n        bytes32 _s\n    ) public pure returns (bool) {\n        address _expected = accountFromPubkey(_pubkey);\n        address _actual = ecrecover(_digest, _v, _r, _s);\n        return _actual == _expected;\n    }\n\n    /// @notice                     checks a signed message against a bitcoin p2wpkh output script\n    /// @dev                        does this my verifying the p2wpkh matches an ethereum account\n    /// @param _p2wpkhOutputScript  the bitcoin output script\n    /// @param _pubkey              the public key to check\n    /// @param _digest              the message digest signed\n    /// @param _v                   the signature recovery value\n    /// @param _r                   the signature r value\n    /// @param _s                   the signature s value\n    /// @return                     true if signature is valid, else false\n    function checkBitcoinSig(\n        bytes _p2wpkhOutputScript,\n        bytes _pubkey,\n        bytes32 _digest,\n        uint8 _v,\n        bytes32 _r,\n        bytes32 _s\n    ) public pure returns (bool) {\n        bool _isExpectedSigner = keccak256(p2wpkhFromPubkey(_pubkey)) == keccak256(_p2wpkhOutputScript);  // is it the expected signer?\n        bytes memory _truncatedPubkey = _pubkey.slice(1, _pubkey.length - 1);  // slice off the 04 prefix\n        bool _sigResult = checkSig(_truncatedPubkey, _digest, _v, _r, _s);\n        return (_isExpectedSigner && _sigResult);\n    }\n\n    /// @notice             checks if a message is the sha256 preimage of a digest\n    /// @dev                this is NOT the hash256!  this step is necessary for ECDSA security!\n    /// @param _digest      the digest\n    /// @param _candidate   the purported preimage\n    /// @return             the p2wkph output script\n    function isSha256Preimage(\n        bytes _candidate,\n        bytes32 _digest\n    ) public pure returns (bool) {\n        return sha256(_candidate) == _digest;\n    }\n\n    /// @notice             checks if a message is the keccak256 preimage of a digest\n    /// @dev                this step is necessary for ECDSA security!\n    /// @param _digest      the digest\n    /// @param _candidate   the purported preimage\n    /// @return             the p2wkph output script\n    function isKeccak256Preimage(\n        bytes _candidate,\n        bytes32 _digest\n    ) public pure returns (bool) {\n        return keccak256(_candidate) == _digest;\n    }\n\n\n    /// @notice                 calculates the signature hash of a Bitcoin transaction with the provided details\n    /// @dev                    documented in bip143. many values are hardcoded here\n    /// @param _outpoint        the bitcoin output script\n    /// @param _inputPKH        the input pubkeyhash (hash160(sender_pubkey))\n    /// @param _inputValue      the value of the input in satoshi\n    /// @param _outputValue     the value of the output in satoshi\n    /// @param _outputPKH       the output pubkeyhash (hash160(recipient_pubkey))\n    /// @return                 the double-sha256 (hash256) signature hash as defined by bip143\n    function oneInputOneOutputSighash(\n        bytes _outpoint,  // 36 byte UTXO id\n        bytes20 _inputPKH,  // 20 byte hash160\n        bytes8 _inputValue,  // 8-byte LE\n        bytes8 _outputValue,  // 8-byte LE\n        bytes20 _outputPKH  // 20 byte hash160\n    ) public pure returns (bytes32) {\n        // Fixes elements to easily make a 1-in 1-out sighash digest\n        // Does not support timelocks\n        bytes memory _scriptCode = abi.encodePacked(\n            hex\"1976a914\",  // length, dup, hash160, pkh_length\n            _inputPKH,\n            hex\"88ac\");  // equal, checksig\n        bytes32 _hashOutputs = abi.encodePacked(\n            _outputValue,  // 8-byte LE\n            hex\"160014\",  // this assumes p2wpkh\n            _outputPKH).hash256();\n        bytes memory _sighashPreimage = abi.encodePacked(\n            hex\"01000000\",  // version\n            _outpoint.hash256(),  // hashPrevouts\n            hex\"8cb9012517c817fead650287d61bdd9c68803b6bf9c64133dcab3e65b5a50cb9\",  // hashSequence(00000000)\n            _outpoint,  // outpoint\n            _scriptCode,  // p2wpkh script code\n            _inputValue,  // value of the input in 8-byte LE\n            hex\"00000000\",  // input nSequence\n            _hashOutputs,  // hash of the single output\n            hex\"00000000\",  // nLockTime\n            hex\"01000000\"  // SIGHASH_ALL\n        );\n        return _sighashPreimage.hash256();\n    }\n}\n",
  "sourcePath": "/Users/liamz/go/src/github.com/keep-network/tbtc/implementation/contracts/bitcoin-spv/SigCheck.sol",
  "compiler": {
    "name": "solc",
    "version": "0.4.25+commit.59dbf8f1.Emscripten.clang"
  },
  "schemaVersion": "3.0.10",
  "updatedAt": "2019-08-01T17:39:26.721Z",
  "devdoc": {
    "methods": {
      "accountFromPubkey(bytes)": {
        "details": "the address is the last 20 bytes of the keccak256 of the address",
        "params": {
          "_pubkey": "the public key"
        },
        "return": "the account address"
      },
      "checkBitcoinSig(bytes,bytes,bytes32,uint8,bytes32,bytes32)": {
        "details": "does this my verifying the p2wpkh matches an ethereum account",
        "params": {
          "_digest": "the message digest signed",
          "_p2wpkhOutputScript": "the bitcoin output script",
          "_pubkey": "the public key to check",
          "_r": "the signature r value",
          "_s": "the signature s value",
          "_v": "the signature recovery value"
        },
        "return": "true if signature is valid, else false"
      },
      "checkSig(bytes,bytes32,uint8,bytes32,bytes32)": {
        "details": "does this using ecrecover because Ethereum has no soul",
        "params": {
          "_digest": "the message digest signed",
          "_pubkey": "the public key to check (64 bytes)",
          "_r": "the signature r value",
          "_s": "the signature s value",
          "_v": "the signature recovery value"
        },
        "return": "true if signature is valid, else false"
      },
      "isKeccak256Preimage(bytes,bytes32)": {
        "details": "this step is necessary for ECDSA security!",
        "params": {
          "_candidate": "the purported preimage",
          "_digest": "the digest"
        },
        "return": "the p2wkph output script"
      },
      "isSha256Preimage(bytes,bytes32)": {
        "details": "this is NOT the hash256!  this step is necessary for ECDSA security!",
        "params": {
          "_candidate": "the purported preimage",
          "_digest": "the digest"
        },
        "return": "the p2wkph output script"
      },
      "oneInputOneOutputSighash(bytes,bytes20,bytes8,bytes8,bytes20)": {
        "details": "documented in bip143. many values are hardcoded here",
        "params": {
          "_inputPKH": "the input pubkeyhash (hash160(sender_pubkey))",
          "_inputValue": "the value of the input in satoshi",
          "_outpoint": "the bitcoin output script",
          "_outputPKH": "the output pubkeyhash (hash160(recipient_pubkey))",
          "_outputValue": "the value of the output in satoshi"
        },
        "return": "the double-sha256 (hash256) signature hash as defined by bip143"
      },
      "p2wpkhFromPubkey(bytes)": {
        "details": "pads uncompressed pubkeys to 65 bytes as required by Bitcoin",
        "params": {
          "_pubkey": "the public key"
        },
        "return": "the p2wkph output script"
      }
    }
  },
  "userdoc": {
    "methods": {
      "accountFromPubkey(bytes)": {
        "notice": "derives an Ethereum Account address from a pubkey"
      },
      "checkBitcoinSig(bytes,bytes,bytes32,uint8,bytes32,bytes32)": {
        "notice": "checks a signed message against a bitcoin p2wpkh output script"
      },
      "checkSig(bytes,bytes32,uint8,bytes32,bytes32)": {
        "notice": "checks a signed message's validity under a pubkey"
      },
      "isKeccak256Preimage(bytes,bytes32)": {
        "notice": "checks if a message is the keccak256 preimage of a digest"
      },
      "isSha256Preimage(bytes,bytes32)": {
        "notice": "checks if a message is the sha256 preimage of a digest"
      },
      "oneInputOneOutputSighash(bytes,bytes20,bytes8,bytes8,bytes20)": {
        "notice": "calculates the signature hash of a Bitcoin transaction with the provided details"
      },
      "p2wpkhFromPubkey(bytes)": {
        "notice": "calculates the p2wpkh output script of a pubkey"
      }
    }
  }
}