{
  "contractName": "DepositLiquidation",
  "abi": [
    {
      "constant": true,
      "inputs": [],
      "name": "attemptToLiquidateOnchain",
      "outputs": [
        {
          "name": "",
          "type": "bool"
        }
      ],
      "payable": false,
      "stateMutability": "pure",
      "type": "function"
    }
  ],
  "bytecode": "0x6136fe610026600b82828239805160001a60731461001957fe5b30600052607381538281f3fe73000000000000000000000000000000000000000030146080604052600436106100d95760003560e01c806349969d1d1161009657806393a386641161007057806393a3866414610543578063a22154211461056d578063a43c845b14610597578063c396a1f4146105c1576100d9565b806349969d1d146104e257806360ca747e146104ea578063648d3aa614610519576100d9565b80630427cacd146100de57806310e0b6c3146101c5578063181db948146103915780632ea84506146103bb5780633bd675c8146103e55780634941676c1461040f575b600080fd5b8180156100ea57600080fd5b506101b1600480360360c081101561010157600080fd5b81359160ff602082013516916040820135916060810135916080820135919081019060c0810160a0820135600160201b81111561013d57600080fd5b82018360208201111561014f57600080fd5b803590602001918460018302840111600160201b8311171561017057600080fd5b91908080601f0160208091040260200160405190810160405280939291908181526020018383808284376000920191909152509295506105eb945050505050565b604080519115158252519081900360200190f35b8180156101d157600080fd5b5061038f600480360360a08110156101e857600080fd5b81359190810190604081016020820135600160201b81111561020957600080fd5b82018360208201111561021b57600080fd5b803590602001918460018302840111600160201b8311171561023c57600080fd5b91908080601f0160208091040260200160405190810160405280939291908181526020018383808284376000920191909152509295949360208101935035915050600160201b81111561028e57600080fd5b8201836020820111156102a057600080fd5b803590602001918460018302840111600160201b831117156102c157600080fd5b91908080601f01602080910402602001604051908101604052809392919081815260200183838082843760009201919091525092958435959094909350604081019250602001359050600160201b81111561031b57600080fd5b82018360208201111561032d57600080fd5b803590602001918460018302840111600160201b8311171561034e57600080fd5b91908080601f01602080910402602001604051908101604052809392919081815260200183838082843760009201919091525092955061073f945050505050565b005b81801561039d57600080fd5b5061038f600480360360208110156103b457600080fd5b5035611591565b8180156103c757600080fd5b5061038f600480360360208110156103de57600080fd5b5035611a7d565b8180156103f157600080fd5b5061038f6004803603602081101561040857600080fd5b503561209c565b81801561041b57600080fd5b5061038f600480360360c081101561043257600080fd5b81359160ff602082013516916040820135916060810135916080820135919081019060c0810160a0820135600160201b81111561046e57600080fd5b82018360208201111561048057600080fd5b803590602001918460018302840111600160201b831117156104a157600080fd5b91908080601f0160208091040260200160405190810160405280939291908181526020018383808284376000920191909152509295506123b5945050505050565b6101b16126d3565b6105076004803603602081101561050057600080fd5b50356126d8565b60408051918252519081900360200190f35b81801561052557600080fd5b5061038f6004803603602081101561053c57600080fd5b50356128e8565b81801561054f57600080fd5b5061038f6004803603602081101561056657600080fd5b5035612c86565b81801561057957600080fd5b5061038f6004803603602081101561059057600080fd5b5035612dfc565b8180156105a357600080fd5b5061038f600480360360208110156105ba57600080fd5b503561302c565b8180156105cd57600080fd5b5061038f600480360360208110156105e457600080fd5b50356131c4565b6000808760020160009054906101000a90046001600160a01b03169050806001600160a01b031663e951993e8960050160009054906101000a90046001600160a01b031689898989896040518763ffffffff1660e01b815260040180876001600160a01b03166001600160a01b031681526020018660ff1660ff16815260200185815260200184815260200183815260200180602001828103825283818151815260200191508051906020019080838360005b838110156106b657818101518382015260200161069e565b50505050905090810190601f1680156106e35780820380516001836020036101000a031916815260200191505b50975050505050505050602060405180830381600087803b15801561070757600080fd5b505af115801561071b573d6000803e3d6000fd5b505050506040513d602081101561073157600080fd5b505198975050505050505050565b6060806000808873__DepositStates_________________________6348312fa390916040518263ffffffff1660e01b81526004018082815260200191505060206040518083038186803b15801561079657600080fd5b505af41580156107aa573d6000803e3d6000fd5b505050506040513d60208110156107c057600080fd5b505115801561084957508873__DepositStates_________________________6339e1b2c490916040518263ffffffff1660e01b81526004018082815260200191505060206040518083038186803b15801561081b57600080fd5b505af415801561082f573d6000803e3d6000fd5b505050506040513d602081101561084557600080fd5b5051155b6108845760405162461bcd60e51b815260040180806020018281038252602f815260200180613654602f913960400191505060405180910390fd5b8873__DepositStates_________________________63fb0611ff90916040518263ffffffff1660e01b81526004018082815260200191505060206040518083038186803b1580156108d557600080fd5b505af41580156108e9573d6000803e3d6000fd5b505050506040513d60208110156108ff57600080fd5b50511561093d5760405162461bcd60e51b81526004018080602001828103825260268152602001806135dd6026913960400191505060405180910390fd5b8873__DepositStates_________________________635a33257590916040518263ffffffff1660e01b81526004018082815260200191505060206040518083038186803b15801561098e57600080fd5b505af41580156109a2573d6000803e3d6000fd5b505050506040513d60208110156109b857600080fd5b505115610a02576040805162461bcd60e51b815260206004820152601360248201527210dbdb9d1c9858dd081a185cc81a185b1d1959606a1b604482015290519081900360640190fd5b8873__DepositUtils__________________________63b7b3810f90918a8a8a8a6040518663ffffffff1660e01b815260040180868152602001806020018060200185815260200180602001848103845288818151815260200191508051906020019080838360005b83811015610a83578181015183820152602001610a6b565b50505050905090810190601f168015610ab05780820380516001836020036101000a031916815260200191505b50848103835287518152875160209182019189019080838360005b83811015610ae3578181015183820152602001610acb565b50505050905090810190601f168015610b105780820380516001836020036101000a031916815260200191505b50848103825285518152855160209182019187019080838360005b83811015610b43578181015183820152602001610b2b565b50505050905090810190601f168015610b705780820380516001836020036101000a031916815260200191505b509850505050505050505060206040518083038186803b158015610b9357600080fd5b505af4158015610ba7573d6000803e3d6000fd5b505050506040513d6020811015610bbd57600080fd5b5060009150505b6040516359185ba160e11b81526020600482018181528a5160248401528a5173__BTCUtils______________________________9363b230b742938d939283926044019185019080838360005b83811015610c29578181015183820152602001610c11565b50505050905090810190601f168015610c565780820380516001836020036101000a031916815260200191505b509250505060206040518083038186803b158015610c7357600080fd5b505af4158015610c87573d6000803e3d6000fd5b505050506040513d6020811015610c9d57600080fd5b505160ff9081169082161015610fb5576040805163262e5e6d60e21b815260ff831660248201526004810191825289516044820152895173__BTCUtils______________________________926398b979b4928c928692918291606490910190602086019080838360005b83811015610d20578181015183820152602001610d08565b50505050905090810190601f168015610d4d5780820380516001836020036101000a031916815260200191505b50935050505060006040518083038186803b158015610d6b57600080fd5b505af4158015610d7f573d6000803e3d6000fd5b505050506040513d6000823e601f3d908101601f191682016040526020811015610da857600080fd5b810190808051600160201b811115610dbf57600080fd5b82016020810184811115610dd257600080fd5b8151600160201b811182820187101715610deb57600080fd5b50509291905050509350886011016040518082805460018160011615610100020316600290048015610e545780601f10610e32576101008083540402835291820191610e54565b820191906000526020600020905b815481529060010190602001808311610e40575b5050604051908190038120630b8fa78360e41b825260206004830181815289516024850152895192955073__BTCUtils______________________________945063b8fa7830938a93919283926044909201919085019080838360005b83811015610ec9578181015183820152602001610eb1565b50505050905090810190601f168015610ef65780820380516001836020036101000a031916815260200191505b509250505060006040518083038186803b158015610f1357600080fd5b505af4158015610f27573d6000803e3d6000fd5b505050506040513d6000823e601f3d908101601f191682016040526020811015610f5057600080fd5b810190808051600160201b811115610f6757600080fd5b82016020810184811115610f7a57600080fd5b8151600160201b811182820187101715610f9357600080fd5b5050929190505050805190602001201415610fad57600191505b600101610bc4565b81610ff15760405162461bcd60e51b81526004018080602001828103825260268152602001806136836026913960400191505060405180910390fd5b600060059050600061108f826001018c600c0154028c73__DepositUtils__________________________6368bf68e190916040518263ffffffff1660e01b81526004018082815260200191505060206040518083038186803b15801561105757600080fd5b505af415801561106b573d6000803e3d6000fd5b505050506040513d602081101561108157600080fd5b50519063ffffffff61343216565b9050600092505b604051630de73da360e21b81526020600482018181528c5160248401528c5173__BTCUtils______________________________9363379cf68c938f939283926044019185019080838360005b838110156110fb5781810151838201526020016110e3565b50505050905090810190601f1680156111285780820380516001836020036101000a031916815260200191505b509250505060206040518083038186803b15801561114557600080fd5b505af4158015611159573d6000803e3d6000fd5b505050506040513d602081101561116f57600080fd5b505160ff908116908416101561157b5760408051624ca0d360e11b815260ff85166024820152600481019182528b5160448201528b5173__BTCUtils______________________________92629941a6928e928892918291606490910190602086019080838360005b838110156111f05781810151838201526020016111d8565b50505050905090810190601f16801561121d5780820380516001836020036101000a031916815260200191505b50935050505060006040518083038186803b15801561123b57600080fd5b505af415801561124f573d6000803e3d6000fd5b505050506040513d6000823e601f3d908101601f19168201604052602081101561127857600080fd5b810190808051600160201b81111561128f57600080fd5b820160208101848111156112a257600080fd5b8151600160201b8111828201871017156112bb57600080fd5b50506040516303e39b4160e41b8152602060048201818152835160248401528351939b5087965073__BTCUtils______________________________9550633e39b41094508b93909283926044909101919085019080838360005b8381101561132e578181015183820152602001611316565b50505050905090810190601f16801561135b5780820380516001836020036101000a031916815260200191505b509250505060206040518083038186803b15801561137857600080fd5b505af415801561138c573d6000803e3d6000fd5b505050506040513d60208110156113a257600080fd5b505167ffffffffffffffff16108015906115345750600b8b01546040805160609290921b6bffffffffffffffffffffffff19166020808401919091528151601481850301815260348401928390528051908201206203207d60e21b90925260388301818152885160588501528851929373__BTCUtils______________________________93620c81f4938b9392839260789091019185019080838360005b83811015611459578181015183820152602001611441565b50505050905090810190601f1680156114865780820380516001836020036101000a031916815260200191505b509250505060006040518083038186803b1580156114a357600080fd5b505af41580156114b7573d6000803e3d6000fd5b505050506040513d6000823e601f3d908101601f1916820160405260208110156114e057600080fd5b810190808051600160201b8111156114f757600080fd5b8201602081018481111561150a57600080fd5b8151600160201b81118282018710171561152357600080fd5b505092919050505080519060200120145b156115705760405162461bcd60e51b815260040180806020018281038252603081526020018061353e6030913960400191505060405180910390fd5b600190920191611096565b6115848b611591565b5050505050505050505050565b60408051630b97468760e31b81526004810183905260016024820152905173__OutsourceDepositLogging_______________91635cba3438916044808301926000929190829003018186803b1580156115ea57600080fd5b505af41580156115fe573d6000803e3d6000fd5b505050508073__DepositUtils__________________________63a22b061490916040518263ffffffff1660e01b81526004018082815260200191505060006040518083038186803b15801561165357600080fd5b505af4158015611667573d6000803e3d6000fd5b5050505060008173__DepositUtils__________________________63f6d3e5b990916040518263ffffffff1660e01b81526004018082815260200191505060206040518083038186803b1580156116be57600080fd5b505af41580156116d2573d6000803e3d6000fd5b505050506040513d60208110156116e857600080fd5b50516040805163e2d6473d60e01b815260048101859052905191925073__DepositUtils__________________________9163e2d6473d91602480820192602092909190829003018186803b15801561174057600080fd5b505af4158015611754573d6000803e3d6000fd5b505050506040513d602081101561176a57600080fd5b5051611885578173__DepositStates_________________________63056256a890916040518263ffffffff1660e01b81526004018082815260200191505060006040518083038186803b1580156117c157600080fd5b505af41580156117d5573d6000803e3d6000fd5b505050600a8301546040516001600160a01b03909116915082156108fc029083906000818181858888f19350505050158015611815573d6000803e3d6000fd5b508173__OutsourceDepositLogging_______________6332e42f2d90916040518263ffffffff1660e01b81526004018082815260200191505060006040518083038186803b15801561186757600080fd5b505af415801561187b573d6000803e3d6000fd5b5050505050611a7a565b600061188f6126d3565b90508015611a02578273__DepositUtils__________________________63bcb7bc7290916040518263ffffffff1660e01b81526004018082815260200191505060006040518083038186803b1580156118e857600080fd5b505af41580156118fc573d6000803e3d6000fd5b505050508273__DepositStates_________________________63056256a890916040518263ffffffff1660e01b81526004018082815260200191505060006040518083038186803b15801561195157600080fd5b505af4158015611965573d6000803e3d6000fd5b505050508273__OutsourceDepositLogging_______________6332e42f2d90916040518263ffffffff1660e01b81526004018082815260200191505060006040518083038186803b1580156119ba57600080fd5b505af41580156119ce573d6000803e3d6000fd5b505060405160009250303180156108fc0292509083818181858288f19350505050158015611a00573d6000803e3d6000fd5b505b80611a77578273__DepositStates_________________________63c28eab4090916040518263ffffffff1660e01b81526004018082815260200191505060006040518083038186803b158015611a5857600080fd5b505af4158015611a6c573d6000803e3d6000fd5b505042600386015550505b50505b50565b60008173__DepositStates_________________________63a2f9a98090916040518263ffffffff1660e01b81526004018082815260200191505060206040518083038186803b158015611ad057600080fd5b505af4158015611ae4573d6000803e3d6000fd5b505050506040513d6020811015611afa57600080fd5b50516040805163fb0611ff60e01b815260048101859052905191925073__DepositStates_________________________9163fb0611ff91602480820192602092909190829003018186803b158015611b5257600080fd5b505af4158015611b66573d6000803e3d6000fd5b505050506040513d6020811015611b7c57600080fd5b5051611bc3576040805162461bcd60e51b815260206004820152601160248201527027379030b1ba34bb329030bab1ba34b7b760791b604482015290519081900360640190fd5b8173__DepositStates_________________________63056256a890916040518263ffffffff1660e01b81526004018082815260200191505060006040518083038186803b158015611c1457600080fd5b505af4158015611c28573d6000803e3d6000fd5b505050508173__OutsourceDepositLogging_______________6332e42f2d90916040518263ffffffff1660e01b81526004018082815260200191505060006040518083038186803b158015611c7d57600080fd5b505af4158015611c91573d6000803e3d6000fd5b5050505060008260010160009054906101000a90046001600160a01b0316905073__TBTCConstants_________________________63ecaf1cdf6040518163ffffffff1660e01b815260040160206040518083038186803b158015611cf557600080fd5b505af4158015611d09573d6000803e3d6000fd5b505050506040513d6020811015611d1f57600080fd5b5051604080516370a0823160e01b815233600482015290516001600160a01b038416916370a08231916024808301926020929190829003018186803b158015611d6757600080fd5b505afa158015611d7b573d6000803e3d6000fd5b505050506040513d6020811015611d9157600080fd5b50511015611dd05760405162461bcd60e51b815260040180806020018281038252602981526020018061356e6029913960400191505060405180910390fd5b806001600160a01b03166379cc67903373__TBTCConstants_________________________63ecaf1cdf6040518163ffffffff1660e01b815260040160206040518083038186803b158015611e2457600080fd5b505af4158015611e38573d6000803e3d6000fd5b505050506040513d6020811015611e4e57600080fd5b5051604080516001600160e01b031960e086901b1681526001600160a01b039093166004840152602483019190915251604480830192600092919082900301818387803b158015611e9e57600080fd5b505af1158015611eb2573d6000803e3d6000fd5b5050505060008373__DepositUtils__________________________6350ef3aa190916040518263ffffffff1660e01b81526004018082815260200191505060206040518083038186803b158015611f0957600080fd5b505af4158015611f1d573d6000803e3d6000fd5b505050506040513d6020811015611f3357600080fd5b5051604051909150339082156108fc029083906000818181858888f19350505050158015611f65573d6000803e3d6000fd5b508373__DepositUtils__________________________63bcb7bc7290916040518263ffffffff1660e01b81526004018082815260200191505060006040518083038186803b158015611fb757600080fd5b505af4158015611fcb573d6000803e3d6000fd5b505050303115905061209657821561201057604051600090303180156108fc029183818181858288f1935050505015801561200a573d6000803e3d6000fd5b50612096565b604080516319a559b560e31b81526004810186905230316024820152905173__DepositUtils__________________________9163cd2acda8916044808301926020929190829003018186803b15801561206957600080fd5b505af415801561207d573d6000803e3d6000fd5b505050506040513d602081101561209357600080fd5b50505b50505050565b8073__DepositStates_________________________63761275bf90916040518263ffffffff1660e01b81526004018082815260200191505060206040518083038186803b1580156120ed57600080fd5b505af4158015612101573d6000803e3d6000fd5b505050506040513d602081101561211757600080fd5b505161216a576040805162461bcd60e51b815260206004820152601e60248201527f4e6f742063757272656e746c7920696e20636f7572746573792063616c6c0000604482015290519081900360640190fd5b73__TBTCConstants_________________________63d565d1f16040518163ffffffff1660e01b815260040160206040518083038186803b1580156121ae57600080fd5b505af41580156121c2573d6000803e3d6000fd5b505050506040513d60208110156121d857600080fd5b505160108201540142111561222a576040805162461bcd60e51b81526020600482015260136024820152724465706f736974206973206578706972696e6760681b604482015290519081900360640190fd5b73__TBTCConstants_________________________632851f4db6040518163ffffffff1660e01b815260040160206040518083038186803b15801561226e57600080fd5b505af4158015612282573d6000803e3d6000fd5b505050506040513d602081101561229857600080fd5b50516122a3826126d8565b10156122e05760405162461bcd60e51b81526004018080602001828103825260248152602001806135976024913960400191505060405180910390fd5b8073__DepositStates_________________________63375ec42090916040518263ffffffff1660e01b81526004018082815260200191505060006040518083038186803b15801561233157600080fd5b505af4158015612345573d6000803e3d6000fd5b505050508073__OutsourceDepositLogging_______________632a2542e490916040518263ffffffff1660e01b81526004018082815260200191505060006040518083038186803b15801561239a57600080fd5b505af41580156123ae573d6000803e3d6000fd5b5050505050565b8573__DepositStates_________________________6348312fa390916040518263ffffffff1660e01b81526004018082815260200191505060206040518083038186803b15801561240657600080fd5b505af415801561241a573d6000803e3d6000fd5b505050506040513d602081101561243057600080fd5b50511580156124b957508573__DepositStates_________________________6339e1b2c490916040518263ffffffff1660e01b81526004018082815260200191505060206040518083038186803b15801561248b57600080fd5b505af415801561249f573d6000803e3d6000fd5b505050506040513d60208110156124b557600080fd5b5051155b6124f45760405162461bcd60e51b815260040180806020018281038252602981526020018061362b6029913960400191505060405180910390fd5b8573__DepositStates_________________________63fb0611ff90916040518263ffffffff1660e01b81526004018082815260200191505060206040518083038186803b15801561254557600080fd5b505af4158015612559573d6000803e3d6000fd5b505050506040513d602081101561256f57600080fd5b5051156125ad5760405162461bcd60e51b81526004018080602001828103825260268152602001806135dd6026913960400191505060405180910390fd5b8573__DepositStates_________________________635a33257590916040518263ffffffff1660e01b81526004018082815260200191505060206040518083038186803b1580156125fe57600080fd5b505af4158015612612573d6000803e3d6000fd5b505050506040513d602081101561262857600080fd5b505115612672576040805162461bcd60e51b815260206004820152601360248201527210dbdb9d1c9858dd081a185cc81a185b1d1959606a1b604482015290519081900360640190fd5b6126808686868686866105eb565b6126ca576040805162461bcd60e51b815260206004820152601660248201527514da59db985d1d5c99481a5cc81b9bdd08199c985d5960521b604482015290519081900360640190fd5b61209386611591565b600090565b6000808273__DepositUtils__________________________63b6f3e9fc90916040518263ffffffff1660e01b81526004018082815260200191505060206040518083038186803b15801561272c57600080fd5b505af4158015612740573d6000803e3d6000fd5b505050506040513d602081101561275657600080fd5b5051905080158061276e5750670de0b6b3a764000081115b156127c0576040805162461bcd60e51b815260206004820152601b60248201527f4f7261636c652072657475726e65642061206261642070726963650000000000604482015290519081900360640190fd5b600073__TBTCConstants_________________________63ecaf1cdf6040518163ffffffff1660e01b815260040160206040518083038186803b15801561280657600080fd5b505af415801561281a573d6000803e3d6000fd5b505050506040513d602081101561283057600080fd5b5051604080516317d6404560e11b81526004810187905290519192508383029160009173__DepositUtils__________________________91632fac808a91602480820192602092909190829003018186803b15801561288f57600080fd5b505af41580156128a3573d6000803e3d6000fd5b505050506040513d60208110156128b957600080fd5b505190506128de826128d283606463ffffffff61349416565b9063ffffffff61350416565b9695505050505050565b60408051630b97468760e31b815260048101839052600060248201819052915173__OutsourceDepositLogging_______________92635cba34389260448082019391829003018186803b15801561293f57600080fd5b505af4158015612953573d6000803e3d6000fd5b505050508073__DepositUtils__________________________63a22b061490916040518263ffffffff1660e01b81526004018082815260200191505060006040518083038186803b1580156129a857600080fd5b505af41580156129bc573d6000803e3d6000fd5b505050508073__DepositUtils__________________________63f6d3e5b990916040518263ffffffff1660e01b81526004018082815260200191505060206040518083038186803b158015612a1157600080fd5b505af4158015612a25573d6000803e3d6000fd5b505050506040513d6020811015612a3b57600080fd5b5060009050612a486126d3565b90508015612c11578173__DepositUtils__________________________63bcb7bc7290916040518263ffffffff1660e01b81526004018082815260200191505060006040518083038186803b158015612aa157600080fd5b505af4158015612ab5573d6000803e3d6000fd5b5050604080516319a559b560e31b81526004810186905230316024820152905173__DepositUtils__________________________935063cd2acda892506044808301926020929190829003018186803b158015612b1257600080fd5b505af4158015612b26573d6000803e3d6000fd5b505050506040513d6020811015612b3c57600080fd5b50506040805162ac4ad560e31b815260048101849052905173__DepositStates_________________________9163056256a8916024808301926000929190829003018186803b158015612b8f57600080fd5b505af4158015612ba3573d6000803e3d6000fd5b505050508173__OutsourceDepositLogging_______________6332e42f2d90916040518263ffffffff1660e01b81526004018082815260200191505060006040518083038186803b158015612bf857600080fd5b505af4158015612c0c573d6000803e3d6000fd5b505050505b80612c82574260038301556040805163030a3aad60e61b815260048101849052905173__DepositStates_________________________9163c28eab40916024808301926000929190829003018186803b158015612c6e57600080fd5b505af4158015612093573d6000803e3d6000fd5b5050565b8073__DepositStates_________________________63afb8e29390916040518263ffffffff1660e01b81526004018082815260200191505060206040518083038186803b158015612cd757600080fd5b505af4158015612ceb573d6000803e3d6000fd5b505050506040513d6020811015612d0157600080fd5b5051612d3e5760405162461bcd60e51b81526004018080602001828103825260268152602001806135186026913960400191505060405180910390fd5b73__TBTCConstants_________________________636760dab96040518163ffffffff1660e01b815260040160206040518083038186803b158015612d8257600080fd5b505af4158015612d96573d6000803e3d6000fd5b505050506040513d6020811015612dac57600080fd5b5051612db7826126d8565b10612df35760405162461bcd60e51b81526004018080602001828103825260218152602001806136a96021913960400191505060405180910390fd5b611a7a816128e8565b8073__DepositStates_________________________630f2c635590916040518263ffffffff1660e01b81526004018082815260200191505060206040518083038186803b158015612e4d57600080fd5b505af4158015612e61573d6000803e3d6000fd5b505050506040513d6020811015612e7757600080fd5b5051612eb45760405162461bcd60e51b81526004018080602001828103825260288152602001806136036028913960400191505060405180910390fd5b73__TBTCConstants_________________________632851f4db6040518163ffffffff1660e01b815260040160206040518083038186803b158015612ef857600080fd5b505af4158015612f0c573d6000803e3d6000fd5b505050506040513d6020811015612f2257600080fd5b5051612f2d826126d8565b10612f695760405162461bcd60e51b81526004018080602001828103825260228152602001806135bb6022913960400191505060405180910390fd5b4281600401819055508073__DepositStates_________________________63171b2a0590916040518263ffffffff1660e01b81526004018082815260200191505060006040518083038186803b158015612fc357600080fd5b505af4158015612fd7573d6000803e3d6000fd5b505050508073__OutsourceDepositLogging_______________63e35227b890916040518263ffffffff1660e01b81526004018082815260200191505060006040518083038186803b15801561239a57600080fd5b8073__DepositStates_________________________63761275bf90916040518263ffffffff1660e01b81526004018082815260200191505060206040518083038186803b15801561307d57600080fd5b505af4158015613091573d6000803e3d6000fd5b505050506040513d60208110156130a757600080fd5b50516130fa576040805162461bcd60e51b815260206004820152601d60248201527f4e6f7420696e206120636f7572746573792063616c6c20706572696f64000000604482015290519081900360640190fd5b73__TBTCConstants_________________________639887426d6040518163ffffffff1660e01b815260040160206040518083038186803b15801561313e57600080fd5b505af4158015613152573d6000803e3d6000fd5b505050506040513d602081101561316857600080fd5b5051600482015401421015612df3576040805162461bcd60e51b815260206004820152601f60248201527f436f75727465737920706572696f6420686173206e6f7420656c617073656400604482015290519081900360640190fd5b8073__DepositStates_________________________630f2c635590916040518263ffffffff1660e01b81526004018082815260200191505060206040518083038186803b15801561321557600080fd5b505af4158015613229573d6000803e3d6000fd5b505050506040513d602081101561323f57600080fd5b505161328a576040805162461bcd60e51b81526020600482015260156024820152744465706f736974206973206e6f742061637469766560581b604482015290519081900360640190fd5b73__TBTCConstants_________________________63d565d1f16040518163ffffffff1660e01b815260040160206040518083038186803b1580156132ce57600080fd5b505af41580156132e2573d6000803e3d6000fd5b505050506040513d60208110156132f857600080fd5b5051601082015401421015613354576040805162461bcd60e51b815260206004820152601860248201527f4465706f736974207465726d206e6f7420656c61707365640000000000000000604482015290519081900360640190fd5b8073__DepositStates_________________________63171b2a0590916040518263ffffffff1660e01b81526004018082815260200191505060006040518083038186803b1580156133a557600080fd5b505af41580156133b9573d6000803e3d6000fd5b505050508073__OutsourceDepositLogging_______________63e35227b890916040518263ffffffff1660e01b81526004018082815260200191505060006040518083038186803b15801561340e57600080fd5b505af4158015613422573d6000803e3d6000fd5b5050505042816004018190555050565b600082821115613489576040805162461bcd60e51b815260206004820152601d60248201527f556e646572666c6f7720647572696e67207375627472616374696f6e2e000000604482015290519081900360640190fd5b508082035b92915050565b6000826134a35750600061348e565b50818102818382816134b157fe5b041461348e576040805162461bcd60e51b815260206004820152601f60248201527f4f766572666c6f7720647572696e67206d756c7469706c69636174696f6e2e00604482015290519081900360640190fd5b600081838161350f57fe5b04939250505056fe4465706f736974206e6f7420696e20616374697665206f7220636f7572746573792063616c6c466f756e6420616e206f757470757420706179696e67207468652072656465656d6572206173207265717565737465644e6f7420656e6f756768205442544320746f20636f766572206f75747374616e64696e6720646562744465706f736974206973207374696c6c20756e646572636f6c6c61746572616c697a65645369676e65727320686176652073756666696369656e7420636f6c6c61746572616c5369676e6572206c69717569646174696f6e20616c726561647920696e2070726f677265737343616e206f6e6c7920636f7572746573792063616c6c2066726f6d206163746976652073746174655573652070726f7669646546756e64696e674543445341467261756450726f6f6620696e73746561645350562046726175642070726f6f6673206e6f742076616c6964206265666f7265204163746976652073746174652e4e6f20696e707574207370656e64696e6720637573746f64696564205554584f20666f756e644465706f736974206861732073756666696369656e7420636f6c6c61746572616ca265627a7a72305820329824595a33ac5e3d369da5404c02662163f46317010daf4a0c1ef274014bb464736f6c634300050a0032",
  "source": "pragma solidity ^0.5.10;\n\nimport {SafeMath} from \"bitcoin-spv/contracts/SafeMath.sol\";\nimport {BTCUtils} from \"bitcoin-spv/contracts/BTCUtils.sol\";\nimport {DepositStates} from \"./DepositStates.sol\";\nimport {DepositUtils} from \"./DepositUtils.sol\";\nimport {TBTCConstants} from \"./TBTCConstants.sol\";\nimport {IKeep} from \"../interfaces/IKeep.sol\";\nimport {OutsourceDepositLogging} from \"./OutsourceDepositLogging.sol\";\nimport {TBTCToken} from \"../system/TBTCToken.sol\";\n\nlibrary DepositLiquidation {\n\n    using BTCUtils for bytes;\n    using SafeMath for uint256;\n\n    using DepositUtils for DepositUtils.Deposit;\n    using DepositStates for DepositUtils.Deposit;\n    using OutsourceDepositLogging for DepositUtils.Deposit;\n\n    /// @notice     Tries to liquidate the position on-chain using the signer bond\n    /// @dev        Calls out to other contracts, watch for re-entrance\n    /// @return     True if Liquidated, False otherwise\n    function attemptToLiquidateOnchain() public pure returns (bool) {\n        return false;\n    }\n\n    /// @notice                 Notifies the keep contract of fraud\n    /// @dev                    Calls out to the keep contract. this could get expensive if preimage is large\n    /// @param  _d               deposit storage pointer\n    /// @param  _v              Signature recovery value\n    /// @param  _r              Signature R value\n    /// @param  _s              Signature S value\n    /// @param _signedDigest    The digest signed by the signature vrs tuple\n    /// @param _preimage        The sha256 preimage of the digest\n    /// @return                 True if fraud, otherwise revert\n    function submitSignatureFraud(\n        DepositUtils.Deposit storage _d,\n        uint8 _v,\n        bytes32 _r,\n        bytes32 _s,\n        bytes32 _signedDigest,\n        bytes memory _preimage\n    ) public returns (bool _isFraud) {\n        IKeep _keep = IKeep(_d.KeepBridge);\n        return _keep.submitSignatureFraud(_d.keepAddress, _v, _r, _s, _signedDigest, _preimage);\n    }\n\n    /// @notice     Determines the collateralization percentage of the signing group\n    /// @dev        Compares the bond value and lot value\n    /// @param _d   deposit storage pointer\n    /// @return     collateralization percentage as uint\n    function getCollateralizationPercentage(DepositUtils.Deposit storage _d) public view returns (uint256) {\n\n        // Determine value of the lot in wei\n        uint256 _oraclePrice = _d.fetchOraclePrice();\n        if (_oraclePrice == 0 || _oraclePrice > 10 ** 18) {\n            /*\n              This is if a sat is worth 0 wei, or is worth 1 ether\n              TODO: what should this behavior be?\n            */\n            revert(\"Oracle returned a bad price\");\n        }\n\n        uint256 _lotSize = TBTCConstants.getLotSize();\n        uint256 _lotValue = _lotSize * _oraclePrice;\n\n        // Amount of wei the signers have\n        uint256 _bondValue = _d.fetchBondAmount();\n\n        // This converts into a percentage\n        return (_bondValue.mul(100).div(_lotValue));\n    }\n\n    /// @notice         Starts signer liquidation due to fraud\n    /// @dev            We first attempt to liquidate on chain, then by auction\n    /// @param  _d      deposit storage pointer\n    function startSignerFraudLiquidation(DepositUtils.Deposit storage _d) public {\n        _d.logStartedLiquidation(true);\n\n        // Reclaim used state for gas savings\n        _d.redemptionTeardown();\n        uint256 _seized = _d.seizeSignerBonds();\n\n        if (_d.auctionTBTCAmount() == 0) {\n            // we came from the redemption flow\n            _d.setLiquidated();\n            _d.requesterAddress.transfer(_seized);\n            _d.logLiquidated();\n            return;\n        }\n\n        bool _liquidated = attemptToLiquidateOnchain();\n\n        if (_liquidated) {\n            _d.distributeBeneficiaryReward();\n            _d.setLiquidated();\n            _d.logLiquidated();\n            address(0).transfer(address(this).balance);  // burn it down\n        }\n        if (!_liquidated) {\n            _d.setFraudLiquidationInProgress();\n            _d.liquidationInitiated = block.timestamp;  // Store the timestamp for auction\n        }\n    }\n\n    /// @notice         Starts signer liquidation due to abort or undercollateralization\n    /// @dev            We first attempt to liquidate on chain, then by auction\n    /// @param  _d      deposit storage pointer\n    function startSignerAbortLiquidation(DepositUtils.Deposit storage _d) public {\n        _d.logStartedLiquidation(false);\n        // Reclaim used state for gas savings\n        _d.redemptionTeardown();\n        _d.seizeSignerBonds();\n\n        bool _liquidated = attemptToLiquidateOnchain();\n\n        if (_liquidated) {\n            _d.distributeBeneficiaryReward();\n            _d.pushFundsToKeepGroup(address(this).balance);\n            _d.setLiquidated();\n            _d.logLiquidated();\n        }\n        if (!_liquidated) {\n            _d.liquidationInitiated = block.timestamp;  // Store the timestamp for auction\n            _d.setFraudLiquidationInProgress();\n        }\n    }\n\n    /// @notice                 Anyone can provide a signature that was not requested to prove fraud\n    /// @dev                    ECDSA is NOT SECURE unless you verify the digest\n    /// @param  _d              deposit storage pointer\n    /// @param  _v              Signature recovery value\n    /// @param  _r              Signature R value\n    /// @param  _s              Signature S value\n    /// @param _signedDigest    The digest signed by the signature vrs tuple\n    /// @param _preimage        The sha256 preimage of the digest\n    function provideECDSAFraudProof(\n        DepositUtils.Deposit storage _d,\n        uint8 _v,\n        bytes32 _r,\n        bytes32 _s,\n        bytes32 _signedDigest,\n        bytes memory _preimage\n    ) public {\n        require(\n            !_d.inFunding() && !_d.inFundingFailure(),\n            \"Use provideFundingECDSAFraudProof instead\"\n        );\n        require(\n            !_d.inSignerLiquidation(),\n            \"Signer liquidation already in progress\"\n        );\n        require(!_d.inEndState(), \"Contract has halted\");\n        require(submitSignatureFraud(_d, _v, _r, _s, _signedDigest, _preimage), \"Signature is not fraud\");\n        startSignerFraudLiquidation(_d);\n    }\n\n    /// @notice                 Anyone may notify the deposit of fraud via an SPV proof\n    /// @dev                    We strong prefer ECDSA fraud proofs\n    /// @param  _d              deposit storage pointer\n    /// @param  _bitcoinTx      The bitcoin tx that purportedly contains the funding output\n    /// @param  _merkleProof    The merkle proof of inclusion of the tx in the bitcoin block\n    /// @param  _index          The index of the tx in the Bitcoin block (1-indexed)\n    /// @param  _bitcoinHeaders An array of tightly-packed bitcoin headers\n    function provideSPVFraudProof(\n        DepositUtils.Deposit storage _d,\n        bytes memory _bitcoinTx,\n        bytes memory _merkleProof,\n        uint256 _index,\n        bytes memory _bitcoinHeaders\n    ) public {\n        bytes memory _input;\n        bytes memory _output;\n        bool _inputConsumed;\n        uint8 i;\n\n        require(\n            !_d.inFunding() && !_d.inFundingFailure(),\n            \"SPV Fraud proofs not valid before Active state.\"\n        );\n        require(\n            !_d.inSignerLiquidation(),\n            \"Signer liquidation already in progress\"\n        );\n        require(!_d.inEndState(), \"Contract has halted\");\n\n        _d.checkProofFromTx(_bitcoinTx, _merkleProof, _index, _bitcoinHeaders);\n        for (i = 0; i < _bitcoinTx.extractNumInputs(); i++) {\n            _input = _bitcoinTx.extractInputAtIndex(i);\n            if (keccak256(_input.extractOutpoint()) == keccak256(_d.utxoOutpoint)) {\n                _inputConsumed = true;\n            }\n        }\n        require(_inputConsumed, \"No input spending custodied UTXO found\");\n\n        uint256 _permittedFeeBumps = 5;  /* TODO: can we refactor withdrawal flow to improve this? */\n        uint256 _requiredOutputSize = _d.utxoSize().sub((_d.initialRedemptionFee * (1 + _permittedFeeBumps)));\n        for (i = 0; i < _bitcoinTx.extractNumOutputs(); i++) {\n            _output = _bitcoinTx.extractOutputAtIndex(i);\n\n            if (_output.extractValue() >= _requiredOutputSize\n                && keccak256(_output.extractHash()) == keccak256(abi.encodePacked(_d.requesterPKH))) {\n                revert(\"Found an output paying the redeemer as requested\");\n            }\n        }\n\n        startSignerFraudLiquidation(_d);\n    }\n\n    /// @notice     Closes an auction and purchases the signer bonds. Payout to buyer, funder, then signers if not fraud\n    /// @dev        For interface, reading auctionValue will give a past value. the current is better\n    /// @param  _d  deposit storage pointer\n    function purchaseSignerBondsAtAuction(DepositUtils.Deposit storage _d) public {\n        bool _wasFraud = _d.inFraudLiquidationInProgress();\n        require(_d.inSignerLiquidation(), \"No active auction\");\n\n        _d.setLiquidated();\n        _d.logLiquidated();\n\n        // Burn the outstanding TBTC\n        TBTCToken _tbtc = TBTCToken(_d.TBTCToken);\n        require(_tbtc.balanceOf(msg.sender) >= TBTCConstants.getLotSize(), \"Not enough TBTC to cover outstanding debt\");\n        _tbtc.burnFrom(msg.sender, TBTCConstants.getLotSize());  // burn minimal amount to cover size\n\n        // Distribute funds to auction buyer\n        uint256 _valueToDistribute = _d.auctionValue();\n        msg.sender.transfer(_valueToDistribute);\n\n        // Send any TBTC left to the beneficiary\n        _d.distributeBeneficiaryReward();\n\n        // then if there are funds left, and it wasn't fraud, pay out the signers\n        if (address(this).balance > 0) {\n            if (_wasFraud) {\n                // Burn it\n                address(0).transfer(address(this).balance);\n            } else {\n                // Send it back\n                _d.pushFundsToKeepGroup(address(this).balance);\n            }\n        }\n    }\n\n    /// @notice     Notify the contract that the signers are undercollateralized\n    /// @dev        Calls out to the system for oracle info\n    /// @param  _d  deposit storage pointer\n    function notifyCourtesyCall(DepositUtils.Deposit storage _d) public  {\n        require(_d.inActive(), \"Can only courtesy call from active state\");\n        require(getCollateralizationPercentage(_d) < TBTCConstants.getUndercollateralizedPercent(), \"Signers have sufficient collateral\");\n        _d.courtesyCallInitiated = block.timestamp;\n        _d.setCourtesyCall();\n        _d.logCourtesyCalled();\n    }\n\n    /// @notice     Goes from courtesy call to active\n    /// @dev        Only callable if collateral is sufficient and the deposit is not expiring\n    /// @param  _d  deposit storage pointer\n    function exitCourtesyCall(DepositUtils.Deposit storage _d) public {\n        require(_d.inCourtesyCall(), \"Not currently in courtesy call\");\n        require(block.timestamp <= _d.fundedAt + TBTCConstants.getDepositTerm(), \"Deposit is expiring\");\n        require(getCollateralizationPercentage(_d) >= TBTCConstants.getUndercollateralizedPercent(), \"Deposit is still undercollateralized\");\n        _d.setActive();\n        _d.logExitedCourtesyCall();\n    }\n\n    /// @notice     Notify the contract that the signers are undercollateralized\n    /// @dev        Calls out to the system for oracle info\n    /// @param  _d  deposit storage pointer\n    function notifyUndercollateralizedLiquidation(DepositUtils.Deposit storage _d) public {\n        require(_d.inRedeemableState(), \"Deposit not in active or courtesy call\");\n        require(getCollateralizationPercentage(_d) < TBTCConstants.getSeverelyUndercollateralizedPercent(), \"Deposit has sufficient collateral\");\n        startSignerAbortLiquidation(_d);\n    }\n\n    /// @notice     Notifies the contract that the courtesy period has elapsed\n    /// @dev        This is treated as an abort, rather than fraud\n    /// @param  _d  deposit storage pointer\n    function notifyCourtesyTimeout(DepositUtils.Deposit storage _d) public {\n        require(_d.inCourtesyCall(), \"Not in a courtesy call period\");\n        require(block.timestamp >= _d.courtesyCallInitiated + TBTCConstants.getCourtesyCallTimeout(), \"Courtesy period has not elapsed\");\n        startSignerAbortLiquidation(_d);\n    }\n\n    /// @notice     Notifies the contract that its term limit has been reached\n    /// @dev        This initiates a courtesy call\n    /// @param  _d  deposit storage pointer\n    function notifyDepositExpiryCourtesyCall(DepositUtils.Deposit storage _d) public {\n        require(_d.inActive(), \"Deposit is not active\");\n        require(block.timestamp >= _d.fundedAt + TBTCConstants.getDepositTerm(), \"Deposit term not elapsed\");\n        _d.setCourtesyCall();\n        _d.logCourtesyCalled();\n        _d.courtesyCallInitiated = block.timestamp;\n    }\n}\n",
  "sourcePath": "/Users/liamz/go/src/github.com/keep-network/tbtc/implementation/contracts/deposit/DepositLiquidation.sol",
  "compiler": {
    "name": "solc",
    "version": "0.5.10+commit.5a6ea5b1.Emscripten.clang"
  },
  "schemaVersion": "3.0.10",
  "updatedAt": "2019-08-01T17:39:26.848Z",
  "devdoc": {
    "methods": {
      "attemptToLiquidateOnchain()": {
        "details": "Calls out to other contracts, watch for re-entrance",
        "return": "True if Liquidated, False otherwise"
      },
      "exitCourtesyCall(DepositUtils.Deposit storage)": {
        "details": "Only callable if collateral is sufficient and the deposit is not expiring",
        "params": {
          "_d": "deposit storage pointer"
        }
      },
      "getCollateralizationPercentage(DepositUtils.Deposit storage)": {
        "details": "Compares the bond value and lot value",
        "params": {
          "_d": "deposit storage pointer"
        },
        "return": "collateralization percentage as uint"
      },
      "notifyCourtesyCall(DepositUtils.Deposit storage)": {
        "details": "Calls out to the system for oracle info",
        "params": {
          "_d": "deposit storage pointer"
        }
      },
      "notifyCourtesyTimeout(DepositUtils.Deposit storage)": {
        "details": "This is treated as an abort, rather than fraud",
        "params": {
          "_d": "deposit storage pointer"
        }
      },
      "notifyDepositExpiryCourtesyCall(DepositUtils.Deposit storage)": {
        "details": "This initiates a courtesy call",
        "params": {
          "_d": "deposit storage pointer"
        }
      },
      "notifyUndercollateralizedLiquidation(DepositUtils.Deposit storage)": {
        "details": "Calls out to the system for oracle info",
        "params": {
          "_d": "deposit storage pointer"
        }
      },
      "provideECDSAFraudProof(DepositUtils.Deposit storage,uint8,bytes32,bytes32,bytes32,bytes)": {
        "details": "ECDSA is NOT SECURE unless you verify the digest",
        "params": {
          "_d": "deposit storage pointer",
          "_preimage": "The sha256 preimage of the digest",
          "_r": "Signature R value",
          "_s": "Signature S value",
          "_signedDigest": "The digest signed by the signature vrs tuple",
          "_v": "Signature recovery value"
        }
      },
      "provideSPVFraudProof(DepositUtils.Deposit storage,bytes,bytes,uint256,bytes)": {
        "details": "We strong prefer ECDSA fraud proofs",
        "params": {
          "_bitcoinHeaders": "An array of tightly-packed bitcoin headers",
          "_bitcoinTx": "The bitcoin tx that purportedly contains the funding output",
          "_d": "deposit storage pointer",
          "_index": "The index of the tx in the Bitcoin block (1-indexed)",
          "_merkleProof": "The merkle proof of inclusion of the tx in the bitcoin block"
        }
      },
      "purchaseSignerBondsAtAuction(DepositUtils.Deposit storage)": {
        "details": "For interface, reading auctionValue will give a past value. the current is better",
        "params": {
          "_d": "deposit storage pointer"
        }
      },
      "startSignerAbortLiquidation(DepositUtils.Deposit storage)": {
        "details": "We first attempt to liquidate on chain, then by auction",
        "params": {
          "_d": "deposit storage pointer"
        }
      },
      "startSignerFraudLiquidation(DepositUtils.Deposit storage)": {
        "details": "We first attempt to liquidate on chain, then by auction",
        "params": {
          "_d": "deposit storage pointer"
        }
      },
      "submitSignatureFraud(DepositUtils.Deposit storage,uint8,bytes32,bytes32,bytes32,bytes)": {
        "details": "Calls out to the keep contract. this could get expensive if preimage is large",
        "params": {
          "_d": "deposit storage pointer",
          "_preimage": "The sha256 preimage of the digest",
          "_r": "Signature R value",
          "_s": "Signature S value",
          "_signedDigest": "The digest signed by the signature vrs tuple",
          "_v": "Signature recovery value"
        },
        "return": "True if fraud, otherwise revert"
      }
    }
  },
  "userdoc": {
    "methods": {
      "attemptToLiquidateOnchain()": {
        "notice": "Tries to liquidate the position on-chain using the signer bond"
      },
      "exitCourtesyCall(DepositUtils.Deposit storage)": {
        "notice": "Goes from courtesy call to active"
      },
      "getCollateralizationPercentage(DepositUtils.Deposit storage)": {
        "notice": "Determines the collateralization percentage of the signing group"
      },
      "notifyCourtesyCall(DepositUtils.Deposit storage)": {
        "notice": "Notify the contract that the signers are undercollateralized"
      },
      "notifyCourtesyTimeout(DepositUtils.Deposit storage)": {
        "notice": "Notifies the contract that the courtesy period has elapsed"
      },
      "notifyDepositExpiryCourtesyCall(DepositUtils.Deposit storage)": {
        "notice": "Notifies the contract that its term limit has been reached"
      },
      "notifyUndercollateralizedLiquidation(DepositUtils.Deposit storage)": {
        "notice": "Notify the contract that the signers are undercollateralized"
      },
      "provideECDSAFraudProof(DepositUtils.Deposit storage,uint8,bytes32,bytes32,bytes32,bytes)": {
        "notice": "Anyone can provide a signature that was not requested to prove fraud"
      },
      "provideSPVFraudProof(DepositUtils.Deposit storage,bytes,bytes,uint256,bytes)": {
        "notice": "Anyone may notify the deposit of fraud via an SPV proof"
      },
      "purchaseSignerBondsAtAuction(DepositUtils.Deposit storage)": {
        "notice": "Closes an auction and purchases the signer bonds. Payout to buyer, funder, then signers if not fraud"
      },
      "startSignerAbortLiquidation(DepositUtils.Deposit storage)": {
        "notice": "Starts signer liquidation due to abort or undercollateralization"
      },
      "startSignerFraudLiquidation(DepositUtils.Deposit storage)": {
        "notice": "Starts signer liquidation due to fraud"
      },
      "submitSignatureFraud(DepositUtils.Deposit storage,uint8,bytes32,bytes32,bytes32,bytes)": {
        "notice": "Notifies the keep contract of fraud"
      }
    }
  }
}