{
  "contractName": "DepositFactory",
  "abi": [
    {
      "constant": true,
      "inputs": [],
      "name": "masterDepositAddress",
      "outputs": [
        {
          "name": "",
          "type": "address"
        }
      ],
      "payable": false,
      "stateMutability": "view",
      "type": "function"
    },
    {
      "inputs": [
        {
          "name": "_masterDepositAddress",
          "type": "address"
        }
      ],
      "payable": false,
      "stateMutability": "nonpayable",
      "type": "constructor"
    },
    {
      "anonymous": false,
      "inputs": [
        {
          "indexed": false,
          "name": "depositCloneAddress",
          "type": "address"
        }
      ],
      "name": "DepositCloneCreated",
      "type": "event"
    },
    {
      "constant": false,
      "inputs": [
        {
          "name": "_TBTCSystem",
          "type": "address"
        },
        {
          "name": "_TBTCToken",
          "type": "address"
        },
        {
          "name": "_KeepBridge",
          "type": "address"
        },
        {
          "name": "_keepThreshold",
          "type": "uint256"
        },
        {
          "name": "_keepSize",
          "type": "uint256"
        }
      ],
      "name": "createDeposit",
      "outputs": [
        {
          "name": "",
          "type": "address"
        }
      ],
      "payable": false,
      "stateMutability": "nonpayable",
      "type": "function"
    }
  ],
  "bytecode": "0x608060405234801561001057600080fd5b506040516102933803806102938339818101604052602081101561003357600080fd5b5051600080546001600160a01b039092166001600160a01b031990921691909117905561022e806100656000396000f3fe608060405234801561001057600080fd5b50600436106100365760003560e01c80639da1e2441461003b578063f791940e1461005f575b600080fd5b6100436100a1565b604080516001600160a01b039092168252519081900360200190f35b610043600480360360a081101561007557600080fd5b506001600160a01b038135811691602081013582169160408201351690606081013590608001356100b0565b6000546001600160a01b031681565b6000805481906100c8906001600160a01b03166101a7565b6040805163e64bc82960e01b81526001600160a01b038a8116600483015289811660248301528881166044830152606482018890526084820187905291519293509083169163e64bc8299160a4808201926020929091908290030181600087803b15801561013557600080fd5b505af1158015610149573d6000803e3d6000fd5b505050506040513d602081101561015f57600080fd5b5050604080516001600160a01b038316815290517f1d6e7961301df0f19b325bf7669f5b932069b5ad8f9b71292351c7bed17cf4f19181900360200190a19695505050505050565b6000808260601b9050604051733d602d80600a3d3981f3363d3d373d3d3d363d7360601b81528160148201526e5af43d82803e903d91602b57fd5bf360881b60288201526037816000f094935050505056fea265627a7a723058202b60e201c9d10af915e428593eb689feae9cb76df0e99e32a462b6125222956b64736f6c634300050a0032",
  "source": "pragma solidity ^0.5.10;\n\nimport \"./CloneFactory.sol\";\nimport \"../deposit/Deposit.sol\";\n\n/// @title Deposit Factory\n/// @notice Factory for the creation of new deposit clones.\n/// @dev We avoid redeployment of deposit contract by using the clone factory.\n/// Proxy delegates calls to Deposit and therefore does not affect deposit state.\n/// This means that we only need to deploy the deposit contracts once.\n/// The factory provides clean state for every new deposit clone.\ncontract DepositFactory is CloneFactory{\n\n    // Holds the address of the deposit contract\n    // which will be used as a master contract for cloning.\n    address public masterDepositAddress;\n\n    event DepositCloneCreated(address depositCloneAddress);\n\n    /// @dev                          Set the master deposit contract address\n    ///                               on contract initialization\n    /// @param _masterDepositAddress  The address of the master deposit contract\n    constructor(address _masterDepositAddress) public {\n        masterDepositAddress = _masterDepositAddress;\n    }\n\n    /// @notice                Creates a new deposit instance\n    /// @dev                   Calls createNewDeposit from deposit contract as init method.\n    ///                        We don't offer pure createClone, meaning that the only way\n    ///                        to create a clone is by also calling createNewDeposit()\n    ///                        Deposits created this way will never pass by state 0 (START)\n    /// @param _TBTCSystem     Address of system contract\n    /// @param _TBTCToken      Address of TBTC token contract\n    /// @param _KeepBridge     Address of Keep Bridge contract\n    /// @param _keepThreshold  Minimum number of honest keep members\n    /// @param _keepSize       Number of all members in a keep\n    /// @return                True if successful, otherwise revert\n    function createDeposit (\n        address _TBTCSystem,\n        address _TBTCToken,\n        address _KeepBridge,\n        uint256 _keepThreshold,\n        uint256 _keepSize\n    ) public returns(address) {\n        address cloneAddress = createClone(masterDepositAddress);\n        Deposit(address(uint160(cloneAddress))).createNewDeposit(_TBTCSystem, _TBTCToken, _KeepBridge, _keepThreshold, _keepSize);\n\n        emit DepositCloneCreated(cloneAddress);\n        return cloneAddress;\n    }\n}",
  "sourcePath": "/Users/liamz/go/src/github.com/keep-network/tbtc/implementation/contracts/proxy/DepositFactory.sol",
  "compiler": {
    "name": "solc",
    "version": "0.5.10+commit.5a6ea5b1.Emscripten.clang"
  },
  "schemaVersion": "3.0.10",
  "updatedAt": "2019-08-01T17:39:26.898Z",
  "devdoc": {
    "details": "We avoid redeployment of deposit contract by using the clone factory. Proxy delegates calls to Deposit and therefore does not affect deposit state. This means that we only need to deploy the deposit contracts once. The factory provides clean state for every new deposit clone.",
    "methods": {
      "constructor": {
        "details": "Set the master deposit contract address                               on contract initialization",
        "params": {
          "_masterDepositAddress": "The address of the master deposit contract"
        }
      },
      "createDeposit(address,address,address,uint256,uint256)": {
        "details": "Calls createNewDeposit from deposit contract as init method.                        We don't offer pure createClone, meaning that the only way                        to create a clone is by also calling createNewDeposit()                        Deposits created this way will never pass by state 0 (START)",
        "params": {
          "_KeepBridge": "Address of Keep Bridge contract",
          "_TBTCSystem": "Address of system contract",
          "_TBTCToken": "Address of TBTC token contract",
          "_keepSize": "Number of all members in a keep",
          "_keepThreshold": "Minimum number of honest keep members"
        },
        "return": "True if successful, otherwise revert"
      }
    },
    "title": "Deposit Factory"
  },
  "userdoc": {
    "methods": {
      "createDeposit(address,address,address,uint256,uint256)": {
        "notice": "Creates a new deposit instance"
      }
    },
    "notice": "Factory for the creation of new deposit clones."
  }
}