{
  "contractName": "DepositUtils",
  "abi": [
    {
      "constant": true,
      "inputs": [
        {
          "name": "_txOutputVector",
          "type": "bytes"
        },
        {
          "name": "_fundingOutputIndex",
          "type": "uint8"
        }
      ],
      "name": "extractOutputAtIndex",
      "outputs": [
        {
          "name": "",
          "type": "bytes"
        }
      ],
      "payable": false,
      "stateMutability": "view",
      "type": "function"
    },
    {
      "constant": true,
      "inputs": [],
      "name": "signerFee",
      "outputs": [
        {
          "name": "",
          "type": "uint256"
        }
      ],
      "payable": false,
      "stateMutability": "pure",
      "type": "function"
    },
    {
      "constant": true,
      "inputs": [],
      "name": "beneficiaryReward",
      "outputs": [
        {
          "name": "",
          "type": "uint256"
        }
      ],
      "payable": false,
      "stateMutability": "pure",
      "type": "function"
    },
    {
      "constant": true,
      "inputs": [
        {
          "name": "_pubkeyY",
          "type": "bytes32"
        }
      ],
      "name": "determineCompressionPrefix",
      "outputs": [
        {
          "name": "",
          "type": "bytes"
        }
      ],
      "payable": false,
      "stateMutability": "pure",
      "type": "function"
    },
    {
      "constant": true,
      "inputs": [
        {
          "name": "_pubkeyX",
          "type": "bytes32"
        },
        {
          "name": "_pubkeyY",
          "type": "bytes32"
        }
      ],
      "name": "compressPubkey",
      "outputs": [
        {
          "name": "",
          "type": "bytes"
        }
      ],
      "payable": false,
      "stateMutability": "pure",
      "type": "function"
    },
    {
      "constant": true,
      "inputs": [
        {
          "name": "_b",
          "type": "bytes8"
        }
      ],
      "name": "bytes8LEToUint",
      "outputs": [
        {
          "name": "",
          "type": "uint256"
        }
      ],
      "payable": false,
      "stateMutability": "pure",
      "type": "function"
    }
  ],
  "bytecode": "0x6135f7610026600b82828239805160001a60731461001957fe5b30600052607381538281f3fe73000000000000000000000000000000000000000030146080604052600436106101b25760003560e01c80638fdd038811610103578063d044de63116100a1578063e0dfd81a1161007b578063e0dfd81a14610c52578063e2d6473d14610c91578063f6d3e5b914610cae578063f846f37114610cd8576101b2565b8063d044de6314610c0a578063d9ab8b8114610c12578063db08d91914610c35576101b2565b8063b6f3e9fc116100dd578063b6f3e9fc146109c2578063b7b3810f146109df578063bcb7bc7214610b9c578063cd2acda814610bc6576101b2565b80638fdd03881461059a578063a22b0614146105b7578063afadeb7b146105e1576101b2565b806350ef3aa11161017057806368bf68e11161014a57806368bf68e11461053b57806368c2bd861461055857806375030f9c146105755780637a6fbf421461057d576101b2565b806350ef3aa1146104385780635c7b82d71461045557806365fbe4bd14610502576101b2565b80629941a6146101b75780630f27e5a0146102d55780631129a8a9146103a257806327e75cee146103d75780632fac808a146103f4578063406af69514610411575b600080fd5b610260600480360360408110156101cd57600080fd5b810190602081018135600160201b8111156101e757600080fd5b8201836020820111156101f957600080fd5b803590602001918460018302840111600160201b8311171561021a57600080fd5b91908080601f0160208091040260200160405190810160405280939291908181526020018383808284376000920191909152509295505050903560ff169150610e159050565b6040805160208082528351818301528351919283929083019185019080838360005b8381101561029a578181015183820152602001610282565b50505050905090810190601f1680156102c75780820380516001836020036101000a031916815260200191505b509250505060405180910390f35b610385600480360360608110156102eb57600080fd5b81359190810190604081016020820135600160201b81111561030c57600080fd5b82018360208201111561031e57600080fd5b803590602001918460018302840111600160201b8311171561033f57600080fd5b91908080601f0160208091040260200160405190810160405280939291908181526020018383808284376000920191909152509295505050903560ff16915061116b9050565b604080516001600160c01b03199092168252519081900360200190f35b6103c5600480360360408110156103b857600080fd5b5080359060200135611435565b60408051918252519081900360200190f35b610260600480360360208110156103ed57600080fd5b50356114c9565b6103c56004803603602081101561040a57600080fd5b5035611513565b6103c56004803603602081101561042757600080fd5b50356001600160c01b03191661159f565b6103c56004803603602081101561044e57600080fd5b50356117de565b6105006004803603604081101561046b57600080fd5b81359190810190604081016020820135600160201b81111561048c57600080fd5b82018360208201111561049e57600080fd5b803590602001918460018302840111600160201b831117156104bf57600080fd5b91908080601f0160208091040260200160405190810160405280939291908181526020018383808284376000920191909152509295506119cf945050505050565b005b61051f6004803603602081101561051857600080fd5b5035611f7f565b604080516001600160a01b039092168252519081900360200190f35b6103c56004803603602081101561055157600080fd5b5035611fcc565b6103c56004803603602081101561056e57600080fd5b5035611fe0565b6103c5612027565b6103c56004803603602081101561059357600080fd5b5035612124565b6103c5600480360360208110156105b057600080fd5b50356121e6565b8180156105c357600080fd5b50610500600480360360208110156105da57600080fd5b503561222d565b61093960048036036101208110156105f857600080fd5b81359190810190604081016020820135600160201b81111561061957600080fd5b82018360208201111561062b57600080fd5b803590602001918460018302840111600160201b8311171561064c57600080fd5b91908080601f0160208091040260200160405190810160405280939291908181526020018383808284376000920191909152509295949360208101935035915050600160201b81111561069e57600080fd5b8201836020820111156106b057600080fd5b803590602001918460018302840111600160201b831117156106d157600080fd5b91908080601f0160208091040260200160405190810160405280939291908181526020018383808284376000920191909152509295949360208101935035915050600160201b81111561072357600080fd5b82018360208201111561073557600080fd5b803590602001918460018302840111600160201b8311171561075657600080fd5b91908080601f0160208091040260200160405190810160405280939291908181526020018383808284376000920191909152509295949360208101935035915050600160201b8111156107a857600080fd5b8201836020820111156107ba57600080fd5b803590602001918460018302840111600160201b831117156107db57600080fd5b91908080601f016020809104026020016040519081016040528093929190818152602001838380828437600092019190915250929560ff853516959094909350604081019250602001359050600160201b81111561083857600080fd5b82018360208201111561084a57600080fd5b803590602001918460018302840111600160201b8311171561086b57600080fd5b91908080601f01602080910402602001604051908101604052809392919081815260200183838082843760009201919091525092958435959094909350604081019250602001359050600160201b8111156108c557600080fd5b8201836020820111156108d757600080fd5b803590602001918460018302840111600160201b831117156108f857600080fd5b91908080601f016020809104026020016040519081016040528093929190818152602001838380828437600092019190915250929550612257945050505050565b604080516001600160c01b03198416815260208082018381528451938301939093528351919291606084019185019080838360005b8381101561098657818101518382015260200161096e565b50505050905090810190601f1680156109b35780820380516001836020036101000a031916815260200191505b50935050505060405180910390f35b6103c5600480360360208110156109d857600080fd5b503561259d565b6103c5600480360360a08110156109f557600080fd5b81359190810190604081016020820135600160201b811115610a1657600080fd5b820183602082011115610a2857600080fd5b803590602001918460018302840111600160201b83111715610a4957600080fd5b91908080601f0160208091040260200160405190810160405280939291908181526020018383808284376000920191909152509295949360208101935035915050600160201b811115610a9b57600080fd5b820183602082011115610aad57600080fd5b803590602001918460018302840111600160201b83111715610ace57600080fd5b91908080601f01602080910402602001604051908101604052809392919081815260200183838082843760009201919091525092958435959094909350604081019250602001359050600160201b811115610b2857600080fd5b820183602082011115610b3a57600080fd5b803590602001918460018302840111600160201b83111715610b5b57600080fd5b91908080601f0160208091040260200160405190810160405280939291908181526020018383808284376000920191909152509295506125e4945050505050565b818015610ba857600080fd5b5061050060048036036020811015610bbf57600080fd5b50356128bd565b818015610bd257600080fd5b50610bf660048036036040811015610be957600080fd5b5080359060200135612a0e565b604080519115158252519081900360200190f35b6103c5612ae8565b61026060048036036040811015610c2857600080fd5b5080359060200135612b31565b61026060048036036020811015610c4b57600080fd5b5035612ba7565b610c6f60048036036020811015610c6857600080fd5b5035612bd8565b604080516bffffffffffffffffffffffff199092168252519081900360200190f35b6103c560048036036020811015610ca757600080fd5b5035612d4a565b818015610cba57600080fd5b506103c560048036036020811015610cd157600080fd5b5035612dd6565b610500600480360360a0811015610cee57600080fd5b813591602081013591810190606081016040820135600160201b811115610d1457600080fd5b820183602082011115610d2657600080fd5b803590602001918460018302840111600160201b83111715610d4757600080fd5b91908080601f01602080910402602001604051908101604052809392919081815260200183838082843760009201919091525092958435959094909350604081019250602001359050600160201b811115610da157600080fd5b820183602082011115610db357600080fd5b803590602001918460018302840111600160201b83111715610dd457600080fd5b91908080601f016020809104026020016040519081016040528093929190818152602001838380828437600092019190915250929550612ecc945050505050565b60606000610e2b8482600163ffffffff61322a16565b6040516302d06d0560e01b815260206004820181815283516024840152835173__BTCUtils______________________________946302d06d0594909383926044909201919085019080838360005b83811015610e92578181015183820152602001610e7a565b50505050905090810190601f168015610ebf5780820380516001836020036101000a031916815260200191505b509250505060206040518083038186803b158015610edc57600080fd5b505af4158015610ef0573d6000803e3d6000fd5b505050506040513d6020811015610f0657600080fd5b5051905060fd8110610f495760405162461bcd60e51b815260040180806020018281038252603a81526020018061352d603a913960400191505060405180910390fd5b60096000610f5f8683600263ffffffff61322a16565b604051633b31644960e21b815260206004820181815283516024840152835173__BTCUtils______________________________9463ecc5912494909383926044909201919085019080838360005b83811015610fc6578181015183820152602001610fae565b50505050905090810190601f168015610ff35780820380516001836020036101000a031916815260200191505b509250505060206040518083038186803b15801561101057600080fd5b505af4158015611024573d6000803e3d6000fd5b505050506040513d602081101561103a57600080fd5b5051905060005b8560ff1681101561114957918101916110628784600263ffffffff61322a16565b604051633b31644960e21b815260206004820181815283516024840152835173__BTCUtils______________________________9463ecc5912494909383926044909201919085019080838360005b838110156110c95781810151838201526020016110b1565b50505050905090810190601f1680156110f65780820380516001836020036101000a031916815260200191505b509250505060206040518083038186803b15801561111357600080fd5b505af4158015611127573d6000803e3d6000fd5b505050506040513d602081101561113d57600080fd5b50519150600101611041565b5061115f8660071984018363ffffffff61322a16565b93505050505b92915050565b600080606061117a8585610e15565b905061118586612bd8565b604080516bffffffffffffffffffffffff199092166020808401919091528151808403601401815260348401928390528051908201206203207d60e21b90925260388301818152845160588501528451929373__BTCUtils______________________________93620c81f493879392839260789091019185019080838360005b8381101561121e578181015183820152602001611206565b50505050905090810190601f16801561124b5780820380516001836020036101000a031916815260200191505b509250505060006040518083038186803b15801561126857600080fd5b505af415801561127c573d6000803e3d6000fd5b505050506040513d6000823e601f3d908101601f1916820160405260208110156112a557600080fd5b810190808051600160201b8111156112bc57600080fd5b820160208101848111156112cf57600080fd5b8151600160201b8111828201871017156112e857600080fd5b50509291905050508051906020012014156113f757611310816000600863ffffffff61322a16565b6040516347f5343160e01b815260206004820181815283516024840152835173__BytesLib______________________________946347f5343194909383926044909201919085019080838360005b8381101561137757818101518382015260200161135f565b50505050905090810190601f1680156113a45780820380516001836020036101000a031916815260200191505b509250505060206040518083038186803b1580156113c157600080fd5b505af41580156113d5573d6000803e3d6000fd5b505050506040513d60208110156113eb57600080fd5b5051925061142e915050565b60405162461bcd60e51b815260040180806020018281038252603e815260200180613497603e913960400191505060405180910390fd5b9392505050565b6002820154600583015460408051634889419d60e01b81526001600160a01b03928316600482015260248101859052905160009392909216918291634889419d916044808301926020929190829003018186803b15801561149557600080fd5b505afa1580156114a9573d6000803e3d6000fd5b505050506040513d60208110156114bf57600080fd5b5051949350505050565b6060600180831614156114f457506040805180820190915260018152600360f81b602082015261150e565b506040805180820190915260018152600160f91b60208201525b919050565b600281015460058201546040805163124b290160e11b81526001600160a01b0392831660048201529051600093929092169182916324965202916024808301926020929190829003018186803b15801561156c57600080fd5b505afa158015611580573d6000803e3d6000fd5b505050506040513d602081101561159657600080fd5b50519392505050565b604080516001600160c01b03198316602080830191909152825180830360080181526028830193849052635196ba0360e01b909352602c82018181528351604c840152835160009473__BTCUtils______________________________94635196ba03949193928392606c909201918501908083838b5b8381101561162e578181015183820152602001611616565b50505050905090810190601f16801561165b5780820380516001836020036101000a031916815260200191505b509250505060006040518083038186803b15801561167857600080fd5b505af415801561168c573d6000803e3d6000fd5b505050506040513d6000823e601f3d908101601f1916820160405260208110156116b557600080fd5b810190808051600160201b8111156116cc57600080fd5b820160208101848111156116df57600080fd5b8151600160201b8111828201871017156116f857600080fd5b50506040516302d06d0560e01b815260206004820181815283516024840152835173__BTCUtils______________________________97506302d06d0596509394509283926044019185019080838360005b8381101561176257818101518382015260200161174a565b50505050905090810190601f16801561178f5780820380516001836020036101000a031916815260200191505b509250505060206040518083038186803b1580156117ac57600080fd5b505af41580156117c0573d6000803e3d6000fd5b505050506040513d60208110156117d657600080fd5b505192915050565b6000806117f88360030154426132e890919063ffffffff16565b90506000306001600160a01b031631905073__TBTCConstants_________________________6378cb51af6040518163ffffffff1660e01b815260040160206040518083038186803b15801561184d57600080fd5b505af4158015611861573d6000803e3d6000fd5b505050506040513d602081101561187757600080fd5b505182111561188957915061150e9050565b600073__TBTCConstants_________________________63c4572eb96040518163ffffffff1660e01b815260040160206040518083038186803b1580156118cf57600080fd5b505af41580156118e3573d6000803e3d6000fd5b505050506040513d60208110156118f957600080fd5b5051604080516378cb51af60e01b815290519192506000916119aa9173__TBTCConstants_________________________916378cb51af91600480820192602092909190829003018186803b15801561195157600080fd5b505af4158015611965573d6000803e3d6000fd5b505050506040513d602081101561197b57600080fd5b505161199e8661199260648763ffffffff6132e816565b9063ffffffff61334516565b9063ffffffff6133b516565b90508181016119c4606461199e868463ffffffff61334516565b979650505050505050565b6000806119db846121e6565b905060006119e885611fe0565b6040516232897360e61b815260206004820181815287516024840152875193945060009373__BTCUtils______________________________93630ca25cc0938a93928392604401918501908083838b5b83811015611a51578181015183820152602001611a39565b50505050905090810190601f168015611a7e5780820380516001836020036101000a031916815260200191505b509250505060206040518083038186803b158015611a9b57600080fd5b505af4158015611aaf573d6000803e3d6000fd5b505050506040513d6020811015611ac557600080fd5b505160408051632236ef8d60e21b815260048101929092525173__BTCUtils______________________________916388dbbe34916024808301926020929190829003018186803b158015611b1957600080fd5b505af4158015611b2d573d6000803e3d6000fd5b505050506040513d6020811015611b4357600080fd5b5051905082811415611b5757829350611b9e565b81811415611b6757819350611b9e565b60405162461bcd60e51b81526004018080602001828103825260258152602001806135086025913960400191505060405180910390fd5b604051633e36138960e01b815260206004820181815287516024840152875160009373__ValidateSPV___________________________93633e361389938b9390928392604490910191908501908083838b5b83811015611c09578181015183820152602001611bf1565b50505050905090810190601f168015611c365780820380516001836020036101000a031916815260200191505b509250505060206040518083038186803b158015611c5357600080fd5b505af4158015611c67573d6000803e3d6000fd5b505050506040513d6020811015611c7d57600080fd5b505160408051630b14b30560e41b8152905191925073__ValidateSPV___________________________9163b14b305091600480820192602092909190829003018186803b158015611cce57600080fd5b505af4158015611ce2573d6000803e3d6000fd5b505050506040513d6020811015611cf857600080fd5b5051811415611d385760405162461bcd60e51b81526004018080602001828103825260238152602001806135676023913960400191505060405180910390fd5b73__ValidateSPV___________________________63224302396040518163ffffffff1660e01b815260040160206040518083038186803b158015611d7c57600080fd5b505af4158015611d90573d6000803e3d6000fd5b505050506040513d6020811015611da657600080fd5b5051811415611df4576040805162461bcd60e51b815260206004820152601560248201527424b73b30b634b2103432b0b232b9399031b430b4b760591b604482015290519081900360640190fd5b73__ValidateSPV___________________________63e68c184f6040518163ffffffff1660e01b815260040160206040518083038186803b158015611e3857600080fd5b505af4158015611e4c573d6000803e3d6000fd5b505050506040513d6020811015611e6257600080fd5b5051811415611eb8576040805162461bcd60e51b815260206004820152601d60248201527f496e73756666696369656e7420776f726b20696e206120686561646572000000604482015290519081900360640190fd5b611f3873__TBTCConstants_________________________639b3fd99f6040518163ffffffff1660e01b815260040160206040518083038186803b158015611eff57600080fd5b505af4158015611f13573d6000803e3d6000fd5b505050506040513d6020811015611f2957600080fd5b5051869063ffffffff61334516565b811015611f765760405162461bcd60e51b81526004018080602001828103825260338152602001806134d56033913960400191505060405180910390fd5b50505050505050565b8054604080516331a9108f60e11b815230600482015290516000926001600160a01b0316918291636352211e91602480820192602092909190829003018186803b15801561156c57600080fd5b600f8101546000906111659060c01b61159f565b80546040805163402b783d60e01b815290516000926001600160a01b031691829163402b783d91600480820192602092909190829003018186803b15801561156c57600080fd5b600061211f73__TBTCConstants_________________________6360e98d596040518163ffffffff1660e01b815260040160206040518083038186803b15801561207057600080fd5b505af4158015612084573d6000803e3d6000fd5b505050506040513d602081101561209a57600080fd5b50516040805163ecaf1cdf60e01b8152905173__TBTCConstants_________________________9163ecaf1cdf916004808301926020929190829003018186803b1580156120e757600080fd5b505af41580156120fb573d6000803e3d6000fd5b505050506040513d602081101561211157600080fd5b50519063ffffffff6133b516565b905090565b600a8101546000906001600160a01b03166121de576121d7612144612ae8565b6121cb61214f612027565b73__TBTCConstants_________________________63ecaf1cdf6040518163ffffffff1660e01b815260040160206040518083038186803b15801561219357600080fd5b505af41580156121a7573d6000803e3d6000fd5b505050506040513d60208110156121bd57600080fd5b50519063ffffffff6133c816565b9063ffffffff6133c816565b905061150e565b50600061150e565b80546040805163dab70cb160e01b815290516000926001600160a01b031691829163dab70cb191600480820192602092909190829003018186803b15801561156c57600080fd5b600b810180546001600160a01b03191690556000600c8201819055600d8201819055600e90910155565b6000606060008a8a8a8a6040516020018085805190602001908083835b602083106122935780518252601f199092019160209182019101612274565b51815160209384036101000a600019018019909216911617905287519190930192870191508083835b602083106122db5780518252601f1990920191602091820191016122bc565b51815160209384036101000a600019018019909216911617905286519190930192860191508083835b602083106123235780518252601f199092019160209182019101612304565b51815160209384036101000a600019018019909216911617905285519190930192850191508083835b6020831061236b5780518252601f19909201916020918201910161234c565b51815160209384036101000a60001901801990921691161790526040805192909401828103601f1901835293849052631cf7d84d60e11b84526004840181815282516024860152825173__BTCUtils______________________________9a506339efb09a995092975095508594506044909301928601915080838360005b838110156124025781810151838201526020016123ea565b50505050905090810190601f16801561242f5780820380516001836020036101000a031916815260200191505b509250505060206040518083038186803b15801561244c57600080fd5b505af4158015612460573d6000803e3d6000fd5b505050506040513d602081101561247657600080fd5b505190506124858c8a8961116b565b925073__TBTCConstants_________________________63ecaf1cdf6040518163ffffffff1660e01b815260040160206040518083038186803b1580156124cb57600080fd5b505af41580156124df573d6000803e3d6000fd5b505050506040513d60208110156124f557600080fd5b50516125008461159f565b1015612547576040805162461bcd60e51b815260206004820152601160248201527011195c1bdcda5d081d1bdbc81cdb585b1b607a1b604482015290519081900360640190fd5b6125548c82888888612ecc565b60408051602081019290925260f89790971b6001600160f81b03191681880152600060418201528651808203602401815260449091019096525099939850929650505050505050565b80546040805163add1c81760e01b815290516000926001600160a01b031691829163add1c81791600480820192602092909190829003018186803b15801561156c57600080fd5b6000606080606080606060008a73__ValidateSPV___________________________636750d35b90916040518263ffffffff1660e01b81526004018080602001828103825283818151815260200191508051906020019080838360005b83811015612659578181015183820152602001612641565b50505050905090810190601f1680156126865780820380516001836020036101000a031916815260200191505b509250505060006040518083038186803b1580156126a357600080fd5b505af41580156126b7573d6000803e3d6000fd5b505050506040513d6000823e601f3d908101601f1916820160405260c08110156126e057600080fd5b810190808051600160201b8111156126f757600080fd5b8201602081018481111561270a57600080fd5b8151600160201b81118282018710171561272357600080fd5b50509291906020018051600160201b81111561273e57600080fd5b8201602081018481111561275157600080fd5b8151600160201b81118282018710171561276a57600080fd5b50509291906020018051600160201b81111561278557600080fd5b8201602081018481111561279857600080fd5b8151600160201b8111828201871017156127b157600080fd5b50509291906020018051600160201b8111156127cc57600080fd5b820160208101848111156127df57600080fd5b8151600160201b8111828201871017156127f857600080fd5b50509291906020018051600160201b81111561281357600080fd5b8201602081018481111561282657600080fd5b8151600160201b81118282018710171561283f57600080fd5b5050602090910151969c50949a509298509096509194509192505050806128a1576040805162461bcd60e51b81526020600482015260116024820152704661696c65642074782070617273696e6760781b604482015290519081900360640190fd5b6128ae8c828c8c8c612ecc565b9b9a5050505050505050505050565b60018101546001600160a01b03168063a9059cbb6128da84611f7f565b604080516370a0823160e01b815230600482015290516001600160a01b038616916370a08231916024808301926020929190829003018186803b15801561292057600080fd5b505afa158015612934573d6000803e3d6000fd5b505050506040513d602081101561294a57600080fd5b5051604080516001600160e01b031960e086901b1681526001600160a01b03909316600484015260248301919091525160448083019260209291908290030181600087803b15801561299b57600080fd5b505af11580156129af573d6000803e3d6000fd5b505050506040513d60208110156129c557600080fd5b5051612a0a576040805162461bcd60e51b815260206004820152600f60248201526e151c985b9cd9995c8819985a5b1959608a1b604482015290519081900360640190fd5b5050565b60003031821115612a66576040805162461bcd60e51b815260206004820152601860248201527f4e6f7420656e6f7567682066756e647320746f2073656e640000000000000000604482015290519081900360640190fd5b600283015460058401546040805162d1e78560e01b81526001600160a01b03928316600482015290519190921691829162d1e785918691602480830192602092919082900301818588803b158015612abd57600080fd5b505af1158015612ad1573d6000803e3d6000fd5b50505050506040513d60208110156114bf57600080fd5b600061211f73__TBTCConstants_________________________63a1f6c6396040518163ffffffff1660e01b815260040160206040518083038186803b15801561207057600080fd5b6060612b3c826114c9565b836040516020018083805190602001908083835b60208310612b6f5780518252601f199092019160209182019101612b50565b51815160209384036101000a600019018019909216911617905292019384525060408051808503815293909101905250949350505050565b6008810154600990910154604080516020810193909352828101919091528051808303820181526060909201905290565b60006060612bee83600801548460090154612b31565b604051631233d72560e21b815260206004820181815283516024840152835193945060609373__BTCUtils______________________________936348cf5c949387939283926044019185019080838360005b83811015612c59578181015183820152602001612c41565b50505050905090810190601f168015612c865780820380516001836020036101000a031916815260200191505b509250505060006040518083038186803b158015612ca357600080fd5b505af4158015612cb7573d6000803e3d6000fd5b505050506040513d6000823e601f3d908101601f191682016040526020811015612ce057600080fd5b810190808051600160201b811115612cf757600080fd5b82016020810184811115612d0a57600080fd5b8151600160201b811182820187101715612d2357600080fd5b50909450612d3f9350849250600091505063ffffffff61342016565b60601b949350505050565b600a8101546000906001600160a01b03166121de5773__TBTCConstants_________________________63ecaf1cdf6040518163ffffffff1660e01b815260040160206040518083038186803b158015612da357600080fd5b505af4158015612db7573d6000803e3d6000fd5b505050506040513d6020811015612dcd57600080fd5b5051905061150e565b600281015460058201546040805163ce72b18360e01b81526001600160a01b03928316600482015290516000933031931691829163ce72b1839160248082019260209290919082900301818987803b158015612e3157600080fd5b505af1158015612e45573d6000803e3d6000fd5b505050506040513d6020811015612e5b57600080fd5b50503031828111612eb3576040805162461bcd60e51b815260206004820152601d60248201527f4e6f2066756e64732072656365697665642c20756e6578706563746564000000604482015290519081900360640190fd5b612ec3818463ffffffff6132e816565b95945050505050565b60405163e31952c360e01b815260206004820181815283516024840152835173__ValidateSPV___________________________936331c03d0f93899373__BTCUtils______________________________9363e31952c393899383926044909201919085019080838360005b83811015612f51578181015183820152602001612f39565b50505050905090810190601f168015612f7e5780820380516001836020036101000a031916815260200191505b509250505060006040518083038186803b158015612f9b57600080fd5b505af4158015612faf573d6000803e3d6000fd5b505050506040513d6000823e601f3d908101601f191682016040526020811015612fd857600080fd5b810190808051600160201b811115612fef57600080fd5b8201602081018481111561300257600080fd5b8151600160201b81118282018710171561301b57600080fd5b50506040516347f5343160e01b815260206004820181815283516024840152835173__BytesLib______________________________97506347f5343196509394509283926044019185019080838360005b8381101561308557818101518382015260200161306d565b50505050905090810190601f1680156130b25780820380516001836020036101000a031916815260200191505b509250505060206040518083038186803b1580156130cf57600080fd5b505af41580156130e3573d6000803e3d6000fd5b505050506040513d60208110156130f957600080fd5b50516040516001600160e01b031960e085901b1681526004810183815260248201839052606482018890526080604483019081528951608484015289518a938a93929160a490910190602086019080838360005b8381101561316557818101518382015260200161314d565b50505050905090810190601f1680156131925780820380516001836020036101000a031916815260200191505b509550505050505060206040518083038186803b1580156131b257600080fd5b505af41580156131c6573d6000803e3d6000fd5b505050506040513d60208110156131dc57600080fd5b50516132195760405162461bcd60e51b815260040180806020018281038252603981526020018061358a6039913960400191505060405180910390fd5b61322385826119cf565b5050505050565b60608183018451101561327a576040805162461bcd60e51b8152602060048201526013602482015272536c696365206f7574206f6620626f756e647360681b604482015290519081900360640190fd5b606082158015613295576040519150602082016040526132df565b6040519150601f8416801560200281840101858101878315602002848b0101015b818310156132ce5780518352602092830192016132b6565b5050858452601f01601f1916604052505b50949350505050565b60008282111561333f576040805162461bcd60e51b815260206004820152601d60248201527f556e646572666c6f7720647572696e67207375627472616374696f6e2e000000604482015290519081900360640190fd5b50900390565b60008261335457506000611165565b508181028183828161336257fe5b0414611165576040805162461bcd60e51b815260206004820152601f60248201527f4f766572666c6f7720647572696e67206d756c7469706c69636174696f6e2e00604482015290519081900360640190fd5b60008183816133c057fe5b049392505050565b81810182811015611165576040805162461bcd60e51b815260206004820152601960248201527f4f766572666c6f7720647572696e67206164646974696f6e2e00000000000000604482015290519081900360640190fd5b600081601401835110156134655760405162461bcd60e51b81526004018080602001828103825260218152602001806134766021913960400191505060405180910390fd5b500160200151600160601b90049056fe4164647265737320636f6e76657273696f6e206f7574206f6620626f756e64732e636f756c64206e6f74206964656e74696679206f75747075742066756e64696e6720746865207265717569726564207075626c6963206b65792068617368496e73756666696369656e7420616363756d756c6174656420646966666963756c747920696e2068656164657220636861696e6e6f742061742063757272656e74206f722070726576696f757320646966666963756c7479566172496e7473206e6f7420737570706f727465642c204e756d626572206f66206f7574707574732063616e6e6f742065786365656420323532496e76616c6964206c656e677468206f6620746865206865616465727320636861696e5478206d65726b6c652070726f6f66206973206e6f742076616c696420666f722070726f76696465642068656164657220616e642074784964a265627a7a7230582068152df488bb69804e8c0986f34bd12e433b9dc59238ce161f61561395d2c02264736f6c634300050a0032",
  "source": "pragma solidity ^0.5.10;\n\nimport {ValidateSPV} from \"bitcoin-spv/contracts/ValidateSPV.sol\";\nimport {SafeMath} from \"bitcoin-spv/contracts/SafeMath.sol\";\nimport {BTCUtils} from \"bitcoin-spv/contracts/BTCUtils.sol\";\nimport {BytesLib} from \"bitcoin-spv/contracts/BytesLib.sol\";\nimport {TBTCConstants} from \"./TBTCConstants.sol\";\nimport {ITBTCSystem} from \"../interfaces/ITBTCSystem.sol\";\nimport {IERC721} from \"../interfaces/IERC721.sol\";\nimport {IKeep} from \"../interfaces/IKeep.sol\";\nimport {TBTCToken} from \"../system/TBTCToken.sol\";\n\nlibrary DepositUtils {\n\n    using SafeMath for uint256;\n    using BytesLib for bytes;\n    using BTCUtils for bytes;\n    using BTCUtils for uint256;\n    using ValidateSPV for bytes;\n    using ValidateSPV for bytes32;\n\n    struct Deposit {\n\n        // SET DURING CONSTRUCTION\n        address TBTCSystem;\n        address TBTCToken;\n        address KeepBridge;\n        uint8 currentState;\n\n        // SET ON FRAUD\n        uint256 liquidationInitiated;  // Timestamp of when liquidation starts\n        uint256 courtesyCallInitiated; // When the courtesy call is issued\n\n        // written when we request a keep\n        address keepAddress;  // The address of our keep contract\n        uint256 signingGroupRequestedAt;  // timestamp of signing group request\n\n        // written when we get a keep result\n        uint256 fundingProofTimerStart;  // start of the funding proof period. reused for funding fraud proof period\n        bytes32 signingGroupPubkeyX;  // The X coordinate of the signing group's pubkey\n        bytes32 signingGroupPubkeyY;  // The Y coordinate of the signing group's pubkey\n\n        // INITIALLY WRITTEN BY REDEMPTION FLOW\n        address payable requesterAddress;  // The requester's address, used as fallback for fraud in redemption\n        bytes20 requesterPKH;  // The 20-byte requester PKH\n        uint256 initialRedemptionFee;  // the initial fee as requested\n        uint256 withdrawalRequestTime;  // the most recent withdrawal request timestamp\n        bytes32 lastRequestedDigest;  // the digest most recently requested for signing\n\n        // written when we get funded\n        bytes8 utxoSizeBytes;  // LE uint. the size of the deposit UTXO in satoshis\n        uint256 fundedAt; // timestamp when funding proof was received\n        bytes utxoOutpoint;  // the 36-byte outpoint of the custodied UTXO\n    }\n\n    /// @notice         Gets the current block difficulty\n    /// @dev            Calls the light relay and gets the current block difficulty\n    /// @return         The difficulty\n    function currentBlockDifficulty(Deposit storage _d) public view returns (uint256) {\n        ITBTCSystem _sys = ITBTCSystem(_d.TBTCSystem);\n        return _sys.fetchRelayCurrentDifficulty();\n    }\n\n    /// @notice         Gets the previous block difficulty\n    /// @dev            Calls the light relay and gets the previous block difficulty\n    /// @return         The difficulty\n    function previousBlockDifficulty(Deposit storage _d) public view returns (uint256) {\n        ITBTCSystem _sys = ITBTCSystem(_d.TBTCSystem);\n        return _sys.fetchRelayPreviousDifficulty();\n    }\n\n    /// @notice                     Evaluates the header difficulties in a proof\n    /// @dev                        Uses the light oracle to source recent difficulty\n    /// @param  _bitcoinHeaders     The header chain to evaluate\n    /// @return                     True if acceptable, otherwise revert\n    function evaluateProofDifficulty(Deposit storage _d, bytes memory _bitcoinHeaders) public view {\n        uint256 _reqDiff;\n        uint256 _current = currentBlockDifficulty(_d);\n        uint256 _previous = previousBlockDifficulty(_d);\n        uint256 _firstHeaderDiff = _bitcoinHeaders.extractTarget().calculateDifficulty();\n\n        if (_firstHeaderDiff == _current) {\n            _reqDiff = _current;\n        } else if (_firstHeaderDiff == _previous) {\n            _reqDiff = _previous;\n        } else {\n            revert(\"not at current or previous difficulty\");\n        }\n\n        uint256 _observedDiff = _bitcoinHeaders.validateHeaderChain();\n\n        require(_observedDiff != ValidateSPV.getErrBadLength(), \"Invalid length of the headers chain\");\n        require(_observedDiff != ValidateSPV.getErrInvalidChain(), \"Invalid headers chain\");\n        require(_observedDiff != ValidateSPV.getErrLowWork(), \"Insufficient work in a header\");\n        \n        /* TODO: make this better than 6 */\n        require(\n            _observedDiff >= _reqDiff.mul(TBTCConstants.getTxProofDifficultyFactor()),\n            \"Insufficient accumulated difficulty in header chain\"\n        );\n    }\n\n    /// @notice                 Syntactically check an SPV proof for a bitcoin tx\n    /// @dev                    Stateless SPV Proof verification documented elsewhere\n    /// @param _d               Deposit storage pointer\n    /// @param _bitcoinTx       The bitcoin tx that is purportedly included in the header chain\n    /// @param _merkleProof     The merkle proof of inclusion of the tx in the bitcoin block\n    /// @param _txIndexInBlock  The index of the tx in the Bitcoin block (1-indexed)\n    /// @param _bitcoinHeaders  An array of tightly-packed bitcoin headers\n    /// @return                 The 32 byte transaction id (little-endian, not block-explorer)\n    function checkProofFromTx(\n        Deposit storage _d,\n        bytes memory _bitcoinTx,\n        bytes memory _merkleProof,\n        uint256 _txIndexInBlock,\n        bytes memory _bitcoinHeaders\n    ) public view returns (bytes32) {\n        bytes memory _nIns;\n        bytes memory _ins;\n        bytes memory _nOuts;\n        bytes memory _outs;\n        bytes memory _locktime;\n        bytes32 _txid;\n        (_nIns, _ins, _nOuts, _outs, _locktime, _txid) = _bitcoinTx.parseTransaction();\n        require(_txid != bytes32(0), \"Failed tx parsing\");\n        checkProofFromTxId(_d, _txid, _merkleProof, _txIndexInBlock, _bitcoinHeaders);\n        return _txid;\n    }\n\n    /// @notice                 Syntactically check an SPV proof for a bitcoin transaction with its hash (ID)\n    /// @dev                    Stateless SPV Proof verification documented elsewhere (see github.com/summa-tx/bitcoin-spv)\n    /// @param _d               Deposit storage pointer\n    /// @param _txId            The bitcoin txid of the tx that is purportedly included in the header chain\n    /// @param _merkleProof     The merkle proof of inclusion of the tx in the bitcoin block\n    /// @param _txIndexInBlock  The index of the tx in the Bitcoin block (1-indexed)\n    /// @param _bitcoinHeaders  An array of tightly-packed bitcoin headers\n    function checkProofFromTxId(\n        Deposit storage _d,\n        bytes32 _txId,\n        bytes memory _merkleProof,\n        uint256 _txIndexInBlock,\n        bytes memory _bitcoinHeaders\n    ) public view{\n        require(\n            _txId.prove(\n                _bitcoinHeaders.extractMerkleRootLE().toBytes32(),\n                _merkleProof,\n                _txIndexInBlock\n            ),\n            \"Tx merkle proof is not valid for provided header and txId\");\n\n        evaluateProofDifficulty(_d, _bitcoinHeaders);\n    }\n\n    /// @notice                     Find and validate funding output in transaction output vector using the index\n    /// @dev                        Gets `_fundingOutputIndex` output from the output vector and validates if it's\n    ///                             Public Key Hash matches a Public Key Hash of the deposit.\n    /// @param _d                   Deposit storage pointer\n    /// @param _txOutputVector      All transaction outputs prepended by the number of outputs encoded as a VarInt, max 0xFC outputs\n    /// @param _fundingOutputIndex  Index of funding output in _txOutputVector\n    /// @return                     Funding value\n    function findAndParseFundingOutput(\n        DepositUtils.Deposit storage _d,\n        bytes memory _txOutputVector,\n        uint8 _fundingOutputIndex\n    ) public view returns (bytes8) {\n        bytes8 _valueBytes;\n        bytes memory _output;\n\n        // Find the output paying the signer PKH\n        _output = extractOutputAtIndex(_txOutputVector, _fundingOutputIndex);\n        if (keccak256(_output.extractHash()) == keccak256(abi.encodePacked(signerPKH(_d)))) {\n            _valueBytes = bytes8(_output.slice(0, 8).toBytes32());\n            return _valueBytes;\n        }\n        // If we don't return from inside the loop, we failed.\n        revert(\"could not identify output funding the required public key hash\");\n    }\n\n    /// @notice                     Extracts the output at a given index in _txOutputVector\n    /// @param _txOutputVector      All transaction outputs prepended by the number of outputs encoded as a VarInt, max 0xFC outputs\n    /// @param _fundingOutputIndex  Index of funding output in _txOutputVector (0-indexed)\n    /// @return                     The specified output\n    function extractOutputAtIndex(\n        bytes memory _txOutputVector,\n        uint8 _fundingOutputIndex\n    ) public view returns (bytes memory) {\n        // Transaction outputs vector consists of a number of outputs followed by a list of outputs:\n        //\n        // |                                  outputs vector                                  |\n        // | outputs number |            output 1            |          output 2...           |\n        // | outputs number | value | script length | script | value | script length | script |\n        //\n        // Each output contains value (8 bytes), script length (VarInt) and a script.\n\n        // extract output number to verify that it's not a varint.\n        uint256 _n = (_txOutputVector.slice(0, 1)).bytesToUint();\n        require(_n < 0xfd, \"VarInts not supported, Number of outputs cannot exceed 252\");\n\n        // Determine length of first output\n        // offset starts at 1 to skip output number varint\n        // skip the 8 byte output value to get to length\n        // next two bytes used to calculate length\n        uint _offset = 1 + 8;\n        uint _length = (_txOutputVector.slice(_offset, 2)).determineOutputLength();\n\n        // This loop moves forward, and then gets the len of the next one\n        for (uint i = 0; i < _fundingOutputIndex; i++) {\n            _offset = _offset + _length;\n            _length = (_txOutputVector.slice(_offset, 2)).determineOutputLength();\n        }\n\n        // We now have the length and offset of the one we want\n        return _txOutputVector.slice(_offset - 8, _length);\n    }\n\n    /// @notice                     Validates the funding tx and parses information from it\n    /// @dev                        Takes a pre-parsed transaction and calculates values needed to verify funding\n    /// @param  _d                  Deposit storage pointer\n    /// @param _txVersion           Transaction version number (4-byte LE)\n    /// @param _txInputVector       All transaction inputs prepended by the number of inputs encoded as a VarInt, max 0xFC(252) inputs\n    /// @param _txOutputVector      All transaction outputs prepended by the number of outputs encoded as a VarInt, max 0xFC(252) outputs\n    /// @param _txLocktime          Final 4 bytes of the transaction\n    /// @param _fundingOutputIndex  Index of funding output in _txOutputVector (0-indexed)\n    /// @param _merkleProof         The merkle proof of transaction inclusion in a block\n    /// @param _txIndexInBlock      Transaction index in the block (1-indexed)\n    /// @param _bitcoinHeaders      Single bytestring of 80-byte bitcoin headers, lowest height first\n    /// @return                     The 8-byte LE UTXO size in satoshi, the 36byte outpoint\n    function validateAndParseFundingSPVProof(\n        DepositUtils.Deposit storage _d,\n        bytes memory _txVersion,\n        bytes memory _txInputVector,\n        bytes memory _txOutputVector,\n        bytes memory _txLocktime,\n        uint8 _fundingOutputIndex,\n        bytes memory _merkleProof,\n        uint256 _txIndexInBlock,\n        bytes memory _bitcoinHeaders\n    ) public view returns (bytes8 _valueBytes, bytes memory _utxoOutpoint){\n        bytes32 txID = abi.encodePacked(_txVersion, _txInputVector, _txOutputVector, _txLocktime).hash256();\n\n        _valueBytes = findAndParseFundingOutput(_d, _txOutputVector, _fundingOutputIndex);\n        require(bytes8LEToUint(_valueBytes) >= TBTCConstants.getLotSize(), \"Deposit too small\");\n\n        checkProofFromTxId(_d, txID, _merkleProof, _txIndexInBlock, _bitcoinHeaders);\n\n        // The utxoOutpoint is the LE txID plus the index of the output as a 4-byte LE int\n        // _fundingOutputIndex is a uint8, so we know it is only 1 byte\n        // Therefore, pad with 3 more bytes\n        _utxoOutpoint = abi.encodePacked(txID, _fundingOutputIndex, hex\"000000\");\n    }\n\n    /// @notice     Calculates the amount of value at auction right now\n    /// @dev        We calculate the % of the auction that has elapsed, then scale the value up\n    /// @param _d   deposit storage pointer\n    /// @return     the value to distribute in the auction at the current time\n    function auctionValue(Deposit storage _d) public view returns (uint256) {\n        uint256 _elapsed = block.timestamp.sub(_d.liquidationInitiated);\n        uint256 _available = address(this).balance;\n        if (_elapsed > TBTCConstants.getAuctionDuration()) {\n            return _available;\n        }\n\n        // This should make a smooth flow from base% to 100%\n        uint256 _basePercentage = TBTCConstants.getAuctionBasePercentage();\n        uint256 _elapsedPercentage = uint256(100).sub(_basePercentage).mul(_elapsed).div(TBTCConstants.getAuctionDuration());\n        uint256 _percentage = _basePercentage + _elapsedPercentage;\n\n        return _available.mul(_percentage).div(100);\n    }\n\n    /// @notice         Determines the fees due to the signers for work performeds\n    /// @dev            Signers are paid based on the TBTC issued\n    /// @return         Accumulated fees in smallest TBTC unit (tsat)\n    function signerFee() public pure returns (uint256) {\n        return TBTCConstants.getLotSize().div(TBTCConstants.getSignerFeeDivisor());\n    }\n\n    /// @notice     calculates the beneficiary reward based on the deposit size\n    /// @dev        the amount of extra ether to pay the beneficiary at closing time\n    /// @return     the amount of ether in wei to pay the beneficiary\n    function beneficiaryReward() public pure returns (uint256) {\n        return TBTCConstants.getLotSize().div(TBTCConstants.getBeneficiaryRewardDivisor());\n    }\n\n    /// @notice         Determines the amount of TBTC paid to redeem the deposit\n    /// @dev            This is the amount of TBTC needed to repay to redeem the Deposit\n    /// @return         Outstanding debt in smallest TBTC unit (tsat)\n    function redemptionTBTCAmount(Deposit storage _d) public view returns (uint256) {\n        if (_d.requesterAddress == address(0)) {\n            return TBTCConstants.getLotSize().add(signerFee()).add(beneficiaryReward());\n        } else {\n            return 0;\n        }\n    }\n\n    /// @notice     Determines the amount of TBTC accepted in the auction\n    /// @dev        If requesterAddress is non-0, that means we came from redemption, and no auction should happen\n    /// @return     The amount of TBTC that must be paid at auction for the signer's bond\n    function auctionTBTCAmount(Deposit storage _d) public view returns (uint256) {\n        if (_d.requesterAddress == address(0)) {\n            return TBTCConstants.getLotSize();\n        } else {\n            return 0;\n        }\n    }\n\n    /// @notice             Determines the prefix to the compressed public key\n    /// @dev                The prefix encodes the parity of the Y coordinate\n    /// @param  _pubkeyY    The Y coordinate of the public key\n    /// @return             The 1-byte prefix for the compressed key\n    function determineCompressionPrefix(bytes32 _pubkeyY) public pure returns (bytes memory) {\n        if(uint256(_pubkeyY) & 1 == 1) {\n            return hex\"03\";  // Odd Y\n        } else {\n            return hex\"02\";  // Even Y\n        }\n    }\n\n    /// @notice             Compresses a public key\n    /// @dev                Converts the 64-byte key to a 33-byte key, bitcoin-style\n    /// @param  _pubkeyX    The X coordinate of the public key\n    /// @param  _pubkeyY    The Y coordinate of the public key\n    /// @return             The 33-byte compressed pubkey\n    function compressPubkey(bytes32 _pubkeyX, bytes32 _pubkeyY) public pure returns (bytes memory) {\n        return abi.encodePacked(determineCompressionPrefix(_pubkeyY), _pubkeyX);\n    }\n\n    /// @notice         Returns the packed public key (64 bytes) for the signing group\n    /// @dev            We store it as 2 bytes32, (2 slots) then repack it on demand\n    /// @return         64 byte public key\n    function signerPubkey(Deposit storage _d) public view returns (bytes memory) {\n        return abi.encodePacked(_d.signingGroupPubkeyX, _d.signingGroupPubkeyY);\n    }\n\n    /// @notice         Returns the Bitcoin pubkeyhash (hash160) for the signing group\n    /// @dev            This is used in bitcoin output scripts for the signers\n    /// @return         20-bytes public key hash\n    function signerPKH(Deposit storage _d) public view returns (bytes20) {\n        bytes memory _pubkey = compressPubkey(_d.signingGroupPubkeyX, _d.signingGroupPubkeyY);\n        bytes memory _digest = _pubkey.hash160();\n        return bytes20(_digest.toAddress(0));  // dirty solidity hack\n    }\n\n    /// @notice         Returns the size of the deposit UTXO in satoshi\n    /// @dev            We store the deposit as bytes8 to make signature checking easier\n    /// @return         UTXO value in satoshi\n    function utxoSize(Deposit storage _d) public view returns (uint256) {\n        return bytes8LEToUint(_d.utxoSizeBytes);\n    }\n\n    /// @notice     Gets the current oracle price of Bitcoin in Ether\n    /// @dev        Polls the oracle via the system contract\n    /// @return     The current price of 1 sat in wei\n    function fetchOraclePrice(Deposit storage _d) public view returns (uint256) {\n        ITBTCSystem _sys = ITBTCSystem(_d.TBTCSystem);\n        return _sys.fetchOraclePrice();\n    }\n\n    /// @notice     Fetches the Keep's bond amount in wei\n    /// @dev        Calls the keep contract to do so\n    /// @return     The amount of bonded ETH in wei\n    function fetchBondAmount(Deposit storage _d) public view returns (uint256) {\n        IKeep _keep = IKeep(_d.KeepBridge);\n        return _keep.checkBondAmount(_d.keepAddress);\n    }\n\n    /// @notice         Convert a LE bytes8 to a uint256\n    /// @dev            Do this by converting to bytes, then reversing endianness, then converting to int\n    /// @return         The uint256 represented in LE by the bytes8\n    function bytes8LEToUint(bytes8 _b) public pure returns (uint256) {\n        return abi.encodePacked(_b).reverseEndianness().bytesToUint();\n    }\n\n    /// @notice         determines whether a digest has been approved for our keep group\n    /// @dev            calls out to the keep contract, storing a 256bit int costs the same as a bool\n    /// @param  _digest the digest to check approval time for\n    /// @return         the time it was approved. 0 if unapproved\n    function wasDigestApprovedForSigning(Deposit storage _d, bytes32 _digest) public view returns (uint256) {\n        IKeep _keep = IKeep(_d.KeepBridge);\n        return _keep.wasDigestApprovedForSigning(_d.keepAddress, _digest);\n    }\n\n    /// @notice         Looks up the deposit beneficiary by calling the tBTC system\n    /// @dev            We cast the address to a uint256 to match the 721 standard\n    /// @return         The current deposit beneficiary\n    function depositBeneficiary(Deposit storage _d) public view returns (address payable) {\n        IERC721 _systemContract = IERC721(_d.TBTCSystem);\n        return address(uint160(_systemContract.ownerOf(uint256(address(this)))));\n    }\n\n    /// @notice     Deletes state after termination of redemption process\n    /// @dev        We keep around the requester address so we can pay them out\n    function redemptionTeardown(Deposit storage _d) public {\n        // don't 0 requesterAddress because we use it to calculate auctionTBTCAmount\n        _d.requesterPKH = bytes20(0);\n        _d.initialRedemptionFee = 0;\n        _d.withdrawalRequestTime = 0;\n        _d.lastRequestedDigest = bytes32(0);\n    }\n\n    /// @notice     Seize the signer bond from the keep contract\n    /// @dev        we check our balance before and after\n    /// @return     the amount of ether seized\n    function seizeSignerBonds(Deposit storage _d) public returns (uint256) {\n        uint256 _preCallBalance = address(this).balance;\n        IKeep _keep = IKeep(_d.KeepBridge);\n        _keep.seizeSignerBonds(_d.keepAddress);\n        uint256 _postCallBalance = address(this).balance;\n        require(_postCallBalance > _preCallBalance, \"No funds received, unexpected\");\n        return _postCallBalance.sub(_preCallBalance);\n    }\n\n    /// @notice     Distributes the beneficiary reward to the beneficiary\n    /// @dev        We distribute the whole TBTC balance as a convenience,\n    ///             whenever this is called we are shutting down.\n    function distributeBeneficiaryReward(Deposit storage _d) public {\n        TBTCToken _tbtc = TBTCToken(_d.TBTCToken);\n        /* solium-disable-next-line */\n        require(_tbtc.transfer(depositBeneficiary(_d), _tbtc.balanceOf(address(this))),\"Transfer failed\");\n    }\n\n    /// @notice             pushes ether held by the deposit to the signer group\n    /// @dev                useful for returning bonds to the group, or otherwise paying them\n    /// @param  _ethValue   the amount of ether to send\n    /// @return             true if successful, otherwise revert\n    function pushFundsToKeepGroup(Deposit storage _d, uint256 _ethValue) public returns (bool) {\n        require(address(this).balance >= _ethValue, \"Not enough funds to send\");\n        IKeep _keep = IKeep(_d.KeepBridge);\n        return _keep.distributeEthToKeepGroup.value(_ethValue)(_d.keepAddress);\n    }\n}\n",
  "sourcePath": "/Users/liamz/go/src/github.com/keep-network/tbtc/implementation/contracts/deposit/DepositUtils.sol",
  "compiler": {
    "name": "solc",
    "version": "0.5.10+commit.5a6ea5b1.Emscripten.clang"
  },
  "schemaVersion": "3.0.10",
  "updatedAt": "2019-08-01T17:39:26.770Z",
  "devdoc": {
    "methods": {
      "auctionTBTCAmount(DepositUtils.Deposit storage)": {
        "details": "If requesterAddress is non-0, that means we came from redemption, and no auction should happen",
        "return": "The amount of TBTC that must be paid at auction for the signer's bond"
      },
      "auctionValue(DepositUtils.Deposit storage)": {
        "details": "We calculate the % of the auction that has elapsed, then scale the value up",
        "params": {
          "_d": "deposit storage pointer"
        },
        "return": "the value to distribute in the auction at the current time"
      },
      "beneficiaryReward()": {
        "details": "the amount of extra ether to pay the beneficiary at closing time",
        "return": "the amount of ether in wei to pay the beneficiary"
      },
      "bytes8LEToUint(bytes8)": {
        "details": "Do this by converting to bytes, then reversing endianness, then converting to int",
        "return": "The uint256 represented in LE by the bytes8"
      },
      "checkProofFromTx(DepositUtils.Deposit storage,bytes,bytes,uint256,bytes)": {
        "details": "Stateless SPV Proof verification documented elsewhere",
        "params": {
          "_bitcoinHeaders": "An array of tightly-packed bitcoin headers",
          "_bitcoinTx": "The bitcoin tx that is purportedly included in the header chain",
          "_d": "Deposit storage pointer",
          "_merkleProof": "The merkle proof of inclusion of the tx in the bitcoin block",
          "_txIndexInBlock": "The index of the tx in the Bitcoin block (1-indexed)"
        },
        "return": "The 32 byte transaction id (little-endian, not block-explorer)"
      },
      "checkProofFromTxId(DepositUtils.Deposit storage,bytes32,bytes,uint256,bytes)": {
        "details": "Stateless SPV Proof verification documented elsewhere (see github.com/summa-tx/bitcoin-spv)",
        "params": {
          "_bitcoinHeaders": "An array of tightly-packed bitcoin headers",
          "_d": "Deposit storage pointer",
          "_merkleProof": "The merkle proof of inclusion of the tx in the bitcoin block",
          "_txId": "The bitcoin txid of the tx that is purportedly included in the header chain",
          "_txIndexInBlock": "The index of the tx in the Bitcoin block (1-indexed)"
        }
      },
      "compressPubkey(bytes32,bytes32)": {
        "details": "Converts the 64-byte key to a 33-byte key, bitcoin-style",
        "params": {
          "_pubkeyX": "The X coordinate of the public key",
          "_pubkeyY": "The Y coordinate of the public key"
        },
        "return": "The 33-byte compressed pubkey"
      },
      "currentBlockDifficulty(DepositUtils.Deposit storage)": {
        "details": "Calls the light relay and gets the current block difficulty",
        "return": "The difficulty"
      },
      "depositBeneficiary(DepositUtils.Deposit storage)": {
        "details": "We cast the address to a uint256 to match the 721 standard",
        "return": "The current deposit beneficiary"
      },
      "determineCompressionPrefix(bytes32)": {
        "details": "The prefix encodes the parity of the Y coordinate",
        "params": {
          "_pubkeyY": "The Y coordinate of the public key"
        },
        "return": "The 1-byte prefix for the compressed key"
      },
      "distributeBeneficiaryReward(DepositUtils.Deposit storage)": {
        "details": "We distribute the whole TBTC balance as a convenience,             whenever this is called we are shutting down."
      },
      "evaluateProofDifficulty(DepositUtils.Deposit storage,bytes)": {
        "details": "Uses the light oracle to source recent difficulty",
        "params": {
          "_bitcoinHeaders": "The header chain to evaluate"
        },
        "return": "True if acceptable, otherwise revert"
      },
      "extractOutputAtIndex(bytes,uint8)": {
        "params": {
          "_fundingOutputIndex": "Index of funding output in _txOutputVector (0-indexed)",
          "_txOutputVector": "All transaction outputs prepended by the number of outputs encoded as a VarInt, max 0xFC outputs"
        },
        "return": "The specified output"
      },
      "fetchBondAmount(DepositUtils.Deposit storage)": {
        "details": "Calls the keep contract to do so",
        "return": "The amount of bonded ETH in wei"
      },
      "fetchOraclePrice(DepositUtils.Deposit storage)": {
        "details": "Polls the oracle via the system contract",
        "return": "The current price of 1 sat in wei"
      },
      "findAndParseFundingOutput(DepositUtils.Deposit storage,bytes,uint8)": {
        "details": "Gets `_fundingOutputIndex` output from the output vector and validates if it's                             Public Key Hash matches a Public Key Hash of the deposit.",
        "params": {
          "_d": "Deposit storage pointer",
          "_fundingOutputIndex": "Index of funding output in _txOutputVector",
          "_txOutputVector": "All transaction outputs prepended by the number of outputs encoded as a VarInt, max 0xFC outputs"
        },
        "return": "Funding value"
      },
      "previousBlockDifficulty(DepositUtils.Deposit storage)": {
        "details": "Calls the light relay and gets the previous block difficulty",
        "return": "The difficulty"
      },
      "pushFundsToKeepGroup(DepositUtils.Deposit storage,uint256)": {
        "details": "useful for returning bonds to the group, or otherwise paying them",
        "params": {
          "_ethValue": "the amount of ether to send"
        },
        "return": "true if successful, otherwise revert"
      },
      "redemptionTBTCAmount(DepositUtils.Deposit storage)": {
        "details": "This is the amount of TBTC needed to repay to redeem the Deposit",
        "return": "Outstanding debt in smallest TBTC unit (tsat)"
      },
      "redemptionTeardown(DepositUtils.Deposit storage)": {
        "details": "We keep around the requester address so we can pay them out"
      },
      "seizeSignerBonds(DepositUtils.Deposit storage)": {
        "details": "we check our balance before and after",
        "return": "the amount of ether seized"
      },
      "signerFee()": {
        "details": "Signers are paid based on the TBTC issued",
        "return": "Accumulated fees in smallest TBTC unit (tsat)"
      },
      "signerPKH(DepositUtils.Deposit storage)": {
        "details": "This is used in bitcoin output scripts for the signers",
        "return": "20-bytes public key hash"
      },
      "signerPubkey(DepositUtils.Deposit storage)": {
        "details": "We store it as 2 bytes32, (2 slots) then repack it on demand",
        "return": "64 byte public key"
      },
      "utxoSize(DepositUtils.Deposit storage)": {
        "details": "We store the deposit as bytes8 to make signature checking easier",
        "return": "UTXO value in satoshi"
      },
      "validateAndParseFundingSPVProof(DepositUtils.Deposit storage,bytes,bytes,bytes,bytes,uint8,bytes,uint256,bytes)": {
        "details": "Takes a pre-parsed transaction and calculates values needed to verify funding",
        "params": {
          "_bitcoinHeaders": "Single bytestring of 80-byte bitcoin headers, lowest height first",
          "_d": "Deposit storage pointer",
          "_fundingOutputIndex": "Index of funding output in _txOutputVector (0-indexed)",
          "_merkleProof": "The merkle proof of transaction inclusion in a block",
          "_txIndexInBlock": "Transaction index in the block (1-indexed)",
          "_txInputVector": "All transaction inputs prepended by the number of inputs encoded as a VarInt, max 0xFC(252) inputs",
          "_txLocktime": "Final 4 bytes of the transaction",
          "_txOutputVector": "All transaction outputs prepended by the number of outputs encoded as a VarInt, max 0xFC(252) outputs",
          "_txVersion": "Transaction version number (4-byte LE)"
        },
        "return": "The 8-byte LE UTXO size in satoshi, the 36byte outpoint"
      },
      "wasDigestApprovedForSigning(DepositUtils.Deposit storage,bytes32)": {
        "details": "calls out to the keep contract, storing a 256bit int costs the same as a bool",
        "params": {
          "_digest": "the digest to check approval time for"
        },
        "return": "the time it was approved. 0 if unapproved"
      }
    }
  },
  "userdoc": {
    "methods": {
      "auctionTBTCAmount(DepositUtils.Deposit storage)": {
        "notice": "Determines the amount of TBTC accepted in the auction"
      },
      "auctionValue(DepositUtils.Deposit storage)": {
        "notice": "Calculates the amount of value at auction right now"
      },
      "beneficiaryReward()": {
        "notice": "calculates the beneficiary reward based on the deposit size"
      },
      "bytes8LEToUint(bytes8)": {
        "notice": "Convert a LE bytes8 to a uint256"
      },
      "checkProofFromTx(DepositUtils.Deposit storage,bytes,bytes,uint256,bytes)": {
        "notice": "Syntactically check an SPV proof for a bitcoin tx"
      },
      "checkProofFromTxId(DepositUtils.Deposit storage,bytes32,bytes,uint256,bytes)": {
        "notice": "Syntactically check an SPV proof for a bitcoin transaction with its hash (ID)"
      },
      "compressPubkey(bytes32,bytes32)": {
        "notice": "Compresses a public key"
      },
      "currentBlockDifficulty(DepositUtils.Deposit storage)": {
        "notice": "Gets the current block difficulty"
      },
      "depositBeneficiary(DepositUtils.Deposit storage)": {
        "notice": "Looks up the deposit beneficiary by calling the tBTC system"
      },
      "determineCompressionPrefix(bytes32)": {
        "notice": "Determines the prefix to the compressed public key"
      },
      "distributeBeneficiaryReward(DepositUtils.Deposit storage)": {
        "notice": "Distributes the beneficiary reward to the beneficiary"
      },
      "evaluateProofDifficulty(DepositUtils.Deposit storage,bytes)": {
        "notice": "Evaluates the header difficulties in a proof"
      },
      "extractOutputAtIndex(bytes,uint8)": {
        "notice": "Extracts the output at a given index in _txOutputVector"
      },
      "fetchBondAmount(DepositUtils.Deposit storage)": {
        "notice": "Fetches the Keep's bond amount in wei"
      },
      "fetchOraclePrice(DepositUtils.Deposit storage)": {
        "notice": "Gets the current oracle price of Bitcoin in Ether"
      },
      "findAndParseFundingOutput(DepositUtils.Deposit storage,bytes,uint8)": {
        "notice": "Find and validate funding output in transaction output vector using the index"
      },
      "previousBlockDifficulty(DepositUtils.Deposit storage)": {
        "notice": "Gets the previous block difficulty"
      },
      "pushFundsToKeepGroup(DepositUtils.Deposit storage,uint256)": {
        "notice": "pushes ether held by the deposit to the signer group"
      },
      "redemptionTBTCAmount(DepositUtils.Deposit storage)": {
        "notice": "Determines the amount of TBTC paid to redeem the deposit"
      },
      "redemptionTeardown(DepositUtils.Deposit storage)": {
        "notice": "Deletes state after termination of redemption process"
      },
      "seizeSignerBonds(DepositUtils.Deposit storage)": {
        "notice": "Seize the signer bond from the keep contract"
      },
      "signerFee()": {
        "notice": "Determines the fees due to the signers for work performeds"
      },
      "signerPKH(DepositUtils.Deposit storage)": {
        "notice": "Returns the Bitcoin pubkeyhash (hash160) for the signing group"
      },
      "signerPubkey(DepositUtils.Deposit storage)": {
        "notice": "Returns the packed public key (64 bytes) for the signing group"
      },
      "utxoSize(DepositUtils.Deposit storage)": {
        "notice": "Returns the size of the deposit UTXO in satoshi"
      },
      "validateAndParseFundingSPVProof(DepositUtils.Deposit storage,bytes,bytes,bytes,bytes,uint8,bytes,uint256,bytes)": {
        "notice": "Validates the funding tx and parses information from it"
      },
      "wasDigestApprovedForSigning(DepositUtils.Deposit storage,bytes32)": {
        "notice": "determines whether a digest has been approved for our keep group"
      }
    }
  }
}