{
  "contractName": "Deposit",
  "abi": [
    {
      "inputs": [],
      "payable": false,
      "stateMutability": "nonpayable",
      "type": "constructor",
      "signature": "constructor"
    },
    {
      "payable": true,
      "stateMutability": "payable",
      "type": "fallback"
    },
    {
      "constant": true,
      "inputs": [],
      "name": "getCurrentState",
      "outputs": [
        {
          "name": "",
          "type": "uint256"
        }
      ],
      "payable": false,
      "stateMutability": "view",
      "type": "function",
      "signature": "0x378aa701"
    },
    {
      "constant": false,
      "inputs": [
        {
          "name": "_TBTCSystem",
          "type": "address"
        },
        {
          "name": "_TBTCToken",
          "type": "address"
        },
        {
          "name": "_m",
          "type": "uint256"
        },
        {
          "name": "_n",
          "type": "uint256"
        }
      ],
      "name": "createNewDeposit",
      "outputs": [
        {
          "name": "",
          "type": "bool"
        }
      ],
      "payable": true,
      "stateMutability": "payable",
      "type": "function",
      "signature": "0xf31a43f1"
    },
    {
      "constant": false,
      "inputs": [
        {
          "name": "_outputValueBytes",
          "type": "bytes8"
        },
        {
          "name": "_requesterPKH",
          "type": "bytes20"
        }
      ],
      "name": "requestRedemption",
      "outputs": [
        {
          "name": "",
          "type": "bool"
        }
      ],
      "payable": false,
      "stateMutability": "nonpayable",
      "type": "function",
      "signature": "0x7d18eed9"
    },
    {
      "constant": false,
      "inputs": [
        {
          "name": "_v",
          "type": "uint8"
        },
        {
          "name": "_r",
          "type": "bytes32"
        },
        {
          "name": "_s",
          "type": "bytes32"
        }
      ],
      "name": "provideRedemptionSignature",
      "outputs": [
        {
          "name": "",
          "type": "bool"
        }
      ],
      "payable": false,
      "stateMutability": "nonpayable",
      "type": "function",
      "signature": "0xc4159559"
    },
    {
      "constant": false,
      "inputs": [
        {
          "name": "_previousOutputValueBytes",
          "type": "bytes8"
        },
        {
          "name": "_newOutputValueBytes",
          "type": "bytes8"
        }
      ],
      "name": "increaseRedemptionFee",
      "outputs": [
        {
          "name": "",
          "type": "bool"
        }
      ],
      "payable": false,
      "stateMutability": "nonpayable",
      "type": "function",
      "signature": "0x9894d734"
    },
    {
      "constant": false,
      "inputs": [
        {
          "name": "_bitcoinTx",
          "type": "bytes"
        },
        {
          "name": "_merkleProof",
          "type": "bytes"
        },
        {
          "name": "_index",
          "type": "uint256"
        },
        {
          "name": "_bitcoinHeaders",
          "type": "bytes"
        }
      ],
      "name": "provideRedemptionProof",
      "outputs": [
        {
          "name": "",
          "type": "bool"
        }
      ],
      "payable": false,
      "stateMutability": "nonpayable",
      "type": "function",
      "signature": "0x861ac012"
    },
    {
      "constant": false,
      "inputs": [],
      "name": "notifySignatureTimeout",
      "outputs": [
        {
          "name": "",
          "type": "bool"
        }
      ],
      "payable": false,
      "stateMutability": "nonpayable",
      "type": "function",
      "signature": "0x8a68db65"
    },
    {
      "constant": false,
      "inputs": [],
      "name": "notifyRedemptionProofTimeout",
      "outputs": [
        {
          "name": "",
          "type": "bool"
        }
      ],
      "payable": false,
      "stateMutability": "nonpayable",
      "type": "function",
      "signature": "0x34cf5283"
    },
    {
      "constant": false,
      "inputs": [],
      "name": "notifySignerSetupFailure",
      "outputs": [
        {
          "name": "",
          "type": "bool"
        }
      ],
      "payable": false,
      "stateMutability": "nonpayable",
      "type": "function",
      "signature": "0xe6d6aaba"
    },
    {
      "constant": false,
      "inputs": [],
      "name": "retrieveSignerPubkey",
      "outputs": [
        {
          "name": "",
          "type": "bool"
        }
      ],
      "payable": false,
      "stateMutability": "nonpayable",
      "type": "function",
      "signature": "0xea3db250"
    },
    {
      "constant": false,
      "inputs": [],
      "name": "notifyFundingTimeout",
      "outputs": [
        {
          "name": "",
          "type": "bool"
        }
      ],
      "payable": false,
      "stateMutability": "nonpayable",
      "type": "function",
      "signature": "0x06d6bf1a"
    },
    {
      "constant": false,
      "inputs": [
        {
          "name": "_v",
          "type": "uint8"
        },
        {
          "name": "_r",
          "type": "bytes32"
        },
        {
          "name": "_s",
          "type": "bytes32"
        },
        {
          "name": "_signedDigest",
          "type": "bytes32"
        },
        {
          "name": "_preimage",
          "type": "bytes"
        }
      ],
      "name": "provideFundingECDSAFraudProof",
      "outputs": [
        {
          "name": "",
          "type": "bool"
        }
      ],
      "payable": false,
      "stateMutability": "nonpayable",
      "type": "function",
      "signature": "0x2d099442"
    },
    {
      "constant": false,
      "inputs": [],
      "name": "notifyFraudFundingTimeout",
      "outputs": [
        {
          "name": "",
          "type": "bool"
        }
      ],
      "payable": false,
      "stateMutability": "nonpayable",
      "type": "function",
      "signature": "0xc1b87368"
    },
    {
      "constant": false,
      "inputs": [
        {
          "name": "_txVersion",
          "type": "bytes"
        },
        {
          "name": "_txInputVector",
          "type": "bytes"
        },
        {
          "name": "_txOutputVector",
          "type": "bytes"
        },
        {
          "name": "_txLocktime",
          "type": "bytes"
        },
        {
          "name": "_fundingOutputIndex",
          "type": "uint8"
        },
        {
          "name": "_merkleProof",
          "type": "bytes"
        },
        {
          "name": "_txIndexInBlock",
          "type": "uint256"
        },
        {
          "name": "_bitcoinHeaders",
          "type": "bytes"
        }
      ],
      "name": "provideFraudBTCFundingProof",
      "outputs": [
        {
          "name": "",
          "type": "bool"
        }
      ],
      "payable": false,
      "stateMutability": "nonpayable",
      "type": "function",
      "signature": "0x9e8a6815"
    },
    {
      "constant": false,
      "inputs": [
        {
          "name": "_txVersion",
          "type": "bytes"
        },
        {
          "name": "_txInputVector",
          "type": "bytes"
        },
        {
          "name": "_txOutputVector",
          "type": "bytes"
        },
        {
          "name": "_txLocktime",
          "type": "bytes"
        },
        {
          "name": "_fundingOutputIndex",
          "type": "uint8"
        },
        {
          "name": "_merkleProof",
          "type": "bytes"
        },
        {
          "name": "_txIndexInBlock",
          "type": "uint256"
        },
        {
          "name": "_bitcoinHeaders",
          "type": "bytes"
        }
      ],
      "name": "provideBTCFundingProof",
      "outputs": [
        {
          "name": "",
          "type": "bool"
        }
      ],
      "payable": false,
      "stateMutability": "nonpayable",
      "type": "function",
      "signature": "0xeba12c5a"
    },
    {
      "constant": false,
      "inputs": [
        {
          "name": "_v",
          "type": "uint8"
        },
        {
          "name": "_r",
          "type": "bytes32"
        },
        {
          "name": "_s",
          "type": "bytes32"
        },
        {
          "name": "_signedDigest",
          "type": "bytes32"
        },
        {
          "name": "_preimage",
          "type": "bytes"
        }
      ],
      "name": "provideECDSAFraudProof",
      "outputs": [
        {
          "name": "",
          "type": "bool"
        }
      ],
      "payable": false,
      "stateMutability": "nonpayable",
      "type": "function",
      "signature": "0xd5eef971"
    },
    {
      "constant": false,
      "inputs": [
        {
          "name": "_bitcoinTx",
          "type": "bytes"
        },
        {
          "name": "_merkleProof",
          "type": "bytes"
        },
        {
          "name": "_index",
          "type": "uint256"
        },
        {
          "name": "_bitcoinHeaders",
          "type": "bytes"
        }
      ],
      "name": "provideSPVFraudProof",
      "outputs": [
        {
          "name": "",
          "type": "bool"
        }
      ],
      "payable": false,
      "stateMutability": "nonpayable",
      "type": "function",
      "signature": "0xb66f261a"
    },
    {
      "constant": false,
      "inputs": [],
      "name": "purchaseSignerBondsAtAuction",
      "outputs": [
        {
          "name": "",
          "type": "bool"
        }
      ],
      "payable": false,
      "stateMutability": "nonpayable",
      "type": "function",
      "signature": "0x2c735daa"
    },
    {
      "constant": false,
      "inputs": [],
      "name": "notifyCourtesyCall",
      "outputs": [
        {
          "name": "",
          "type": "bool"
        }
      ],
      "payable": false,
      "stateMutability": "nonpayable",
      "type": "function",
      "signature": "0x96aab311"
    },
    {
      "constant": false,
      "inputs": [],
      "name": "exitCourtesyCall",
      "outputs": [
        {
          "name": "",
          "type": "bool"
        }
      ],
      "payable": false,
      "stateMutability": "nonpayable",
      "type": "function",
      "signature": "0x287b32e5"
    },
    {
      "constant": false,
      "inputs": [],
      "name": "notifyUndercollateralizedLiquidation",
      "outputs": [
        {
          "name": "",
          "type": "bool"
        }
      ],
      "payable": false,
      "stateMutability": "nonpayable",
      "type": "function",
      "signature": "0xb4bd2e7a"
    },
    {
      "constant": false,
      "inputs": [],
      "name": "notifyCourtesyTimeout",
      "outputs": [
        {
          "name": "",
          "type": "bool"
        }
      ],
      "payable": false,
      "stateMutability": "nonpayable",
      "type": "function",
      "signature": "0x72ed2b4a"
    },
    {
      "constant": false,
      "inputs": [],
      "name": "notifyDepositExpiryCourtesyCall",
      "outputs": [
        {
          "name": "",
          "type": "bool"
        }
      ],
      "payable": false,
      "stateMutability": "nonpayable",
      "type": "function",
      "signature": "0x902d2ead"
    }
  ],
  "bytecode": "0x608060405234801561001057600080fd5b50611ed5806100206000396000f3fe6080604052600436106101445760003560e060020a9004806396aab311116100ba578063c415955911610073578063c415955914610ac4578063d5eef97114610afd578063e6d6aaba14610bcb578063ea3db25014610be0578063eba12c5a14610bf5578063f31a43f114610f5f57610144565b806396aab311146105055780639894d7341461051a5780639e8a681514610567578063b4bd2e7a146108d1578063b66f261a146108e6578063c1b8736814610aaf57610144565b8063378aa7011161010c578063378aa7011461027c57806372ed2b4a146102a35780637d18eed9146102b8578063861ac012146103125780638a68db65146104db578063902d2ead146104f057610144565b806306d6bf1a14610146578063287b32e51461016f5780632c735daa146101845780632d0994421461019957806334cf528314610267575b005b34801561015257600080fd5b5061015b610fa8565b604080519115158252519081900360200190f35b34801561017b57600080fd5b5061015b61101d565b34801561019057600080fd5b5061015b611073565b3480156101a557600080fd5b5061015b600480360360a08110156101bc57600080fd5b60ff8235169160208101359160408201359160608101359181019060a0810160808201356401000000008111156101f257600080fd5b82018360208201111561020457600080fd5b8035906020019184600183028401116401000000008311171561022657600080fd5b91908080601f0160208091040260200160405190810160405280939291908181526020018383808284376000920191909152509295506110c9945050505050565b34801561027357600080fd5b5061015b6111d3565b34801561028857600080fd5b50610291611229565b60408051918252519081900360200190f35b3480156102af57600080fd5b5061015b61124a565b3480156102c457600080fd5b5061015b600480360360408110156102db57600080fd5b50803577ffffffffffffffffffffffffffffffffffffffffffffffff191690602001356bffffffffffffffffffffffff19166112a0565b34801561031e57600080fd5b5061015b6004803603608081101561033557600080fd5b81019060208101813564010000000081111561035057600080fd5b82018360208201111561036257600080fd5b8035906020019184600183028401116401000000008311171561038457600080fd5b91908080601f01602080910402602001604051908101604052809392919081815260200183838082843760009201919091525092959493602081019350359150506401000000008111156103d757600080fd5b8201836020820111156103e957600080fd5b8035906020019184600183028401116401000000008311171561040b57600080fd5b91908080601f0160208091040260200160405190810160405280939291908181526020018383808284376000920191909152509295843595909490935060408101925060200135905064010000000081111561046657600080fd5b82018360208201111561047857600080fd5b8035906020019184600183028401116401000000008311171561049a57600080fd5b91908080601f016020809104026020016040519081016040528093929190818152602001838380828437600092019190915250929550611363945050505050565b3480156104e757600080fd5b5061015b61151c565b3480156104fc57600080fd5b5061015b611572565b34801561051157600080fd5b5061015b6115c8565b34801561052657600080fd5b5061015b6004803603604081101561053d57600080fd5b5077ffffffffffffffffffffffffffffffffffffffffffffffff198135811691602001351661161e565b34801561057357600080fd5b5061015b600480360361010081101561058b57600080fd5b8101906020810181356401000000008111156105a657600080fd5b8201836020820111156105b857600080fd5b803590602001918460018302840111640100000000831117156105da57600080fd5b91908080601f016020809104026020016040519081016040528093929190818152602001838380828437600092019190915250929594936020810193503591505064010000000081111561062d57600080fd5b82018360208201111561063f57600080fd5b8035906020019184600183028401116401000000008311171561066157600080fd5b91908080601f01602080910402602001604051908101604052809392919081815260200183838082843760009201919091525092959493602081019350359150506401000000008111156106b457600080fd5b8201836020820111156106c657600080fd5b803590602001918460018302840111640100000000831117156106e857600080fd5b91908080601f016020809104026020016040519081016040528093929190818152602001838380828437600092019190915250929594936020810193503591505064010000000081111561073b57600080fd5b82018360208201111561074d57600080fd5b8035906020019184600183028401116401000000008311171561076f57600080fd5b91908080601f016020809104026020016040519081016040528093929190818152602001838380828437600092019190915250929560ff8535169590949093506040810192506020013590506401000000008111156107cd57600080fd5b8201836020820111156107df57600080fd5b8035906020019184600183028401116401000000008311171561080157600080fd5b91908080601f0160208091040260200160405190810160405280939291908181526020018383808284376000920191909152509295843595909490935060408101925060200135905064010000000081111561085c57600080fd5b82018360208201111561086e57600080fd5b8035906020019184600183028401116401000000008311171561089057600080fd5b91908080601f0160208091040260200160405190810160405280939291908181526020018383808284376000920191909152509295506116e7945050505050565b3480156108dd57600080fd5b5061015b6119fe565b3480156108f257600080fd5b5061015b6004803603608081101561090957600080fd5b81019060208101813564010000000081111561092457600080fd5b82018360208201111561093657600080fd5b8035906020019184600183028401116401000000008311171561095857600080fd5b91908080601f01602080910402602001604051908101604052809392919081815260200183838082843760009201919091525092959493602081019350359150506401000000008111156109ab57600080fd5b8201836020820111156109bd57600080fd5b803590602001918460018302840111640100000000831117156109df57600080fd5b91908080601f01602080910402602001604051908101604052809392919081815260200183838082843760009201919091525092958435959094909350604081019250602001359050640100000000811115610a3a57600080fd5b820183602082011115610a4c57600080fd5b80359060200191846001830284011164010000000083111715610a6e57600080fd5b91908080601f016020809104026020016040519081016040528093929190818152602001838380828437600092019190915250929550611a54945050505050565b348015610abb57600080fd5b5061015b611ad9565b348015610ad057600080fd5b5061015b60048036036060811015610ae757600080fd5b5060ff8135169060208101359060400135611b2f565b348015610b0957600080fd5b5061015b600480360360a0811015610b2057600080fd5b60ff8235169160208101359160408201359160608101359181019060a081016080820135640100000000811115610b5657600080fd5b820183602082011115610b6857600080fd5b80359060200191846001830284011164010000000083111715610b8a57600080fd5b91908080601f016020809104026020016040519081016040528093929190818152602001838380828437600092019190915250929550611bd4945050505050565b348015610bd757600080fd5b5061015b611c6a565b348015610bec57600080fd5b5061015b611cc0565b348015610c0157600080fd5b5061015b6004803603610100811015610c1957600080fd5b810190602081018135640100000000811115610c3457600080fd5b820183602082011115610c4657600080fd5b80359060200191846001830284011164010000000083111715610c6857600080fd5b91908080601f0160208091040260200160405190810160405280939291908181526020018383808284376000920191909152509295949360208101935035915050640100000000811115610cbb57600080fd5b820183602082011115610ccd57600080fd5b80359060200191846001830284011164010000000083111715610cef57600080fd5b91908080601f0160208091040260200160405190810160405280939291908181526020018383808284376000920191909152509295949360208101935035915050640100000000811115610d4257600080fd5b820183602082011115610d5457600080fd5b80359060200191846001830284011164010000000083111715610d7657600080fd5b91908080601f0160208091040260200160405190810160405280939291908181526020018383808284376000920191909152509295949360208101935035915050640100000000811115610dc957600080fd5b820183602082011115610ddb57600080fd5b80359060200191846001830284011164010000000083111715610dfd57600080fd5b91908080601f016020809104026020016040519081016040528093929190818152602001838380828437600092019190915250929560ff853516959094909350604081019250602001359050640100000000811115610e5b57600080fd5b820183602082011115610e6d57600080fd5b80359060200191846001830284011164010000000083111715610e8f57600080fd5b91908080601f01602080910402602001604051908101604052809392919081815260200183838082843760009201919091525092958435959094909350604081019250602001359050640100000000811115610eea57600080fd5b820183602082011115610efc57600080fd5b80359060200191846001830284011164010000000083111715610f1e57600080fd5b91908080601f016020809104026020016040519081016040528093929190818152602001838380828437600092019190915250929550611d16945050505050565b61015b60048036036080811015610f7557600080fd5b5073ffffffffffffffffffffffffffffffffffffffff813581169160208101359091169060408101359060600135611db7565b60008073__DepositFunding________________________63490f787190916040518263ffffffff1660e060020a0281526004018082815260200191505060006040518083038186803b158015610ffe57600080fd5b505af4158015611012573d6000803e3d6000fd5b505050506001905090565b60008073__DepositLiquidation____________________633bd675c890916040518263ffffffff1660e060020a0281526004018082815260200191505060006040518083038186803b158015610ffe57600080fd5b60008073__DepositLiquidation____________________632ea8450690916040518263ffffffff1660e060020a0281526004018082815260200191505060006040518083038186803b158015610ffe57600080fd5b60008073__DepositFunding________________________63fb12d9df909188888888886040518763ffffffff1660e060020a028152600401808781526020018660ff1660ff16815260200185815260200184815260200183815260200180602001828103825283818151815260200191508051906020019080838360005b83811015611160578181015183820152602001611148565b50505050905090810190601f16801561118d5780820380516001836020036101000a031916815260200191505b5097505050505050505060006040518083038186803b1580156111af57600080fd5b505af41580156111c3573d6000803e3d6000fd5b5060019998505050505050505050565b60008073__DepositRedemption_____________________63cd53895490916040518263ffffffff1660e060020a0281526004018082815260200191505060006040518083038186803b158015610ffe57600080fd5b60015474010000000000000000000000000000000000000000900460ff1690565b60008073__DepositLiquidation____________________63a43c845b90916040518263ffffffff1660e060020a0281526004018082815260200191505060006040518083038186803b158015610ffe57600080fd5b604080517fea89624a00000000000000000000000000000000000000000000000000000000815260006004820181905277ffffffffffffffffffffffffffffffffffffffffffffffff19851660248301526bffffffffffffffffffffffff1984166044830152915173__DepositRedemption_____________________9163ea89624a9160648083019286929190829003018186803b15801561134257600080fd5b505af4158015611356573d6000803e3d6000fd5b5060019695505050505050565b60008073__DepositRedemption_____________________63eec163b89091878787876040518663ffffffff1660e060020a02815260040180868152602001806020018060200185815260200180602001848103845288818151815260200191508051906020019080838360005b838110156113e95781810151838201526020016113d1565b50505050905090810190601f1680156114165780820380516001836020036101000a031916815260200191505b50848103835287518152875160209182019189019080838360005b83811015611449578181015183820152602001611431565b50505050905090810190601f1680156114765780820380516001836020036101000a031916815260200191505b50848103825285518152855160209182019187019080838360005b838110156114a9578181015183820152602001611491565b50505050905090810190601f1680156114d65780820380516001836020036101000a031916815260200191505b509850505050505050505060006040518083038186803b1580156114f957600080fd5b505af415801561150d573d6000803e3d6000fd5b50600198975050505050505050565b60008073__DepositRedemption_____________________635976635790916040518263ffffffff1660e060020a0281526004018082815260200191505060006040518083038186803b158015610ffe57600080fd5b60008073__DepositLiquidation____________________63c396a1f490916040518263ffffffff1660e060020a0281526004018082815260200191505060006040518083038186803b158015610ffe57600080fd5b60008073__DepositLiquidation____________________63a221542190916040518263ffffffff1660e060020a0281526004018082815260200191505060006040518083038186803b158015610ffe57600080fd5b604080517f2d0c21bf00000000000000000000000000000000000000000000000000000000815260006004820181905277ffffffffffffffffffffffffffffffffffffffffffffffff19808616602484015284166044830152915173__DepositRedemption_____________________91632d0c21bf916064808301926020929190829003018186803b1580156116b457600080fd5b505af41580156116c8573d6000803e3d6000fd5b505050506040513d60208110156116de57600080fd5b50519392505050565b60008073__DepositFunding________________________63811cc3a190918b8b8b8b8b8b8b8b6040518a63ffffffff1660e060020a028152600401808a8152602001806020018060200180602001806020018960ff1660ff168152602001806020018881526020018060200187810387528f818151815260200191508051906020019080838360005b83811015611789578181015183820152602001611771565b50505050905090810190601f1680156117b65780820380516001836020036101000a031916815260200191505b5087810386528e818151815260200191508051906020019080838360005b838110156117ec5781810151838201526020016117d4565b50505050905090810190601f1680156118195780820380516001836020036101000a031916815260200191505b5087810385528d5181528d516020918201918f019080838360005b8381101561184c578181015183820152602001611834565b50505050905090810190601f1680156118795780820380516001836020036101000a031916815260200191505b5087810384528c5181528c516020918201918e019080838360005b838110156118ac578181015183820152602001611894565b50505050905090810190601f1680156118d95780820380516001836020036101000a031916815260200191505b5087810383528a5181528a516020918201918c019080838360005b8381101561190c5781810151838201526020016118f4565b50505050905090810190601f1680156119395780820380516001836020036101000a031916815260200191505b5087810382528851815288516020918201918a019080838360005b8381101561196c578181015183820152602001611954565b50505050905090810190601f1680156119995780820380516001836020036101000a031916815260200191505b509f5050505050505050505050505050505060206040518083038186803b1580156119c357600080fd5b505af41580156119d7573d6000803e3d6000fd5b505050506040513d60208110156119ed57600080fd5b5060019a9950505050505050505050565b60008073__DepositLiquidation____________________6393a3866490916040518263ffffffff1660e060020a0281526004018082815260200191505060006040518083038186803b158015610ffe57600080fd5b60008073__DepositLiquidation____________________6310e0b6c39091878787876040518663ffffffff1660e060020a0281526004018086815260200180602001806020018581526020018060200184810384528881815181526020019150805190602001908083836000838110156113e95781810151838201526020016113d1565b60008073__DepositFunding________________________635347b1de90916040518263ffffffff1660e060020a0281526004018082815260200191505060006040518083038186803b158015610ffe57600080fd5b604080517f3c686baa00000000000000000000000000000000000000000000000000000000815260006004820181905260ff861660248301526044820185905260648201849052915173__DepositRedemption_____________________91633c686baa9160848083019286929190829003018186803b158015611bb257600080fd5b505af4158015611bc6573d6000803e3d6000fd5b506001979650505050505050565b60008073__DepositLiquidation____________________634941676c909188888888886040518763ffffffff1660e060020a028152600401808781526020018660ff1660ff168152602001858152602001848152602001838152602001806020018281038252838181518152602001915080519060200190808383600083811015611160578181015183820152602001611148565b60008073__DepositFunding________________________63cd40cc6490916040518263ffffffff1660e060020a0281526004018082815260200191505060006040518083038186803b158015610ffe57600080fd5b60008073__DepositFunding________________________63bb21d02490916040518263ffffffff1660e060020a0281526004018082815260200191505060006040518083038186803b158015610ffe57600080fd5b60008073__DepositFunding________________________6351bad39790918b8b8b8b8b8b8b8b6040518a63ffffffff1660e060020a028152600401808a8152602001806020018060200180602001806020018960ff1660ff168152602001806020018881526020018060200187810387528f8181518152602001915080519060200190808383600083811015611789578181015183820152602001611771565b6000805473ffffffffffffffffffffffffffffffffffffffff80871673ffffffffffffffffffffffffffffffffffffffff199283161783556001805491871691909216179055604080517f09ab65f5000000000000000000000000000000000000000000000000000000008152600481018390526024810185905260448101849052905173__DepositFunding________________________916309ab65f5916064808301926020929190829003018186803b158015611e7657600080fd5b505af4158015611e8a573d6000803e3d6000fd5b505050506040513d602081101561135657600080fdfea265627a7a72305820eb5794fbbed46f63631a744deff8e7a9046978bec5fe0da9b7a0142a6e8e0b8464736f6c634300050a0032",
  "source": "pragma solidity ^0.5.10;\n\nimport {DepositLiquidation} from \"./DepositLiquidation.sol\";\nimport {DepositUtils} from \"./DepositUtils.sol\";\nimport {DepositFunding} from \"./DepositFunding.sol\";\nimport {DepositRedemption} from \"./DepositRedemption.sol\";\n\ncontract Deposit {\n\n    using DepositRedemption for DepositUtils.Deposit;\n    using DepositFunding for DepositUtils.Deposit;\n    using DepositLiquidation for DepositUtils.Deposit;\n    using DepositUtils for DepositUtils.Deposit;\n\n    DepositUtils.Deposit self;\n\n    // We separate the constructor from createNewDeposit to make proxy factories easier\n    /* solium-disable-next-line no-empty-blocks */\n    constructor () public {}\n\n    function () external payable {}\n\n    /// @notice     Get the integer representing the current state\n    /// @dev        We implement this because contracts don't handle foreign enums well\n    /// @return     The 0-indexed state from the DepositStates enum\n    function getCurrentState() public view returns (uint256) {\n        return uint256(self.currentState);\n    }\n\n    // THIS IS THE INIT FUNCTION\n    /// @notice         The system can spin up a new deposit\n    /// @dev            This should be called by an approved contract, not a developer\n    /// @param _m       m for m-of-n\n    /// @param _m       n for m-of-n\n    /// @return         True if successful, otherwise revert\n    function createNewDeposit(\n        address _TBTCSystem,\n        address _TBTCToken,\n        uint256 _m,\n        uint256 _n\n    ) public payable returns (bool) {\n        self.TBTCSystem = _TBTCSystem;\n        self.TBTCToken = _TBTCToken;\n        self.createNewDeposit(_m, _n);\n        return true;\n    }\n\n    /// @notice                     Anyone can request redemption\n    /// @dev                        The redeemer specifies details about the Bitcoin redemption tx\n    /// @param  _outputValueBytes   The 8-byte LE output size\n    /// @param  _requesterPKH       The 20-byte Bitcoin pubkeyhash to which to send funds\n    /// @return                     True if successful, otherwise revert\n    function requestRedemption(\n        bytes8 _outputValueBytes,\n        bytes20 _requesterPKH\n    ) public returns (bool) {\n        self.requestRedemption(_outputValueBytes, _requesterPKH);\n        return true;\n    }\n\n    /// @notice     Anyone may provide a withdrawal signature if it was requested\n    /// @dev        The signers will be penalized if this (or provideRedemptionProof) is not called\n    /// @param  _v  Signature recovery value\n    /// @param  _r  Signature R value\n    /// @param  _s  Signature S value\n    /// @return     True if successful, False if prevented by timeout, otherwise revert\n    function provideRedemptionSignature(\n        uint8 _v,\n        bytes32 _r,\n        bytes32 _s\n    ) public returns (bool) {\n        self.provideRedemptionSignature(_v, _r, _s);\n        return true;\n    }\n\n    /// @notice                             Anyone may notify the contract that a fee bump is needed\n    /// @dev                                This sends us back to AWAITING_WITHDRAWAL_SIGNATURE\n    /// @param  _previousOutputValueBytes   The previous output's value\n    /// @param  _newOutputValueBytes        The new output's value\n    /// @return                             True if successful, False if prevented by timeout, otherwise revert\n    function increaseRedemptionFee(\n        bytes8 _previousOutputValueBytes,\n        bytes8 _newOutputValueBytes\n    ) public returns (bool) {\n        return self.increaseRedemptionFee(_previousOutputValueBytes, _newOutputValueBytes);\n    }\n\n    /// @notice                 Anyone may provide a withdrawal proof to prove redemption\n    /// @dev                    The signers will be penalized if this is not called\n    /// @param  _bitcoinTx      The bitcoin tx that purportedly contain the redemption output\n    /// @param  _merkleProof    The merkle proof of inclusion of the tx in the bitcoin block\n    /// @param  _index          The index of the tx in the Bitcoin block (1-indexed)\n    /// @param  _bitcoinHeaders An array of tightly-packed bitcoin headers\n    /// @return                 True if successful, otherwise revert\n    function provideRedemptionProof(\n        bytes memory _bitcoinTx,\n        bytes memory _merkleProof,\n        uint256 _index,\n        bytes memory _bitcoinHeaders\n    ) public returns (bool) {\n        self.provideRedemptionProof(_bitcoinTx, _merkleProof, _index, _bitcoinHeaders);\n        return true;\n    }\n\n    /// @notice     Anyone may notify the contract that the signers have failed to produce a signature\n    /// @dev        This is considered fraud, and is punished\n    /// @return     True if successful, otherwise revert\n    function notifySignatureTimeout() public returns (bool) {\n        self.notifySignatureTimeout();\n        return true;\n    }\n\n    /// @notice     Anyone may notify the contract that the signers have failed to produce a redemption proof\n    /// @dev        This is considered fraud, and is punished\n    /// @return     True if successful, otherwise revert\n    function notifyRedemptionProofTimeout() public returns (bool) {\n        self.notifyRedemptionProofTimeout();\n        return true;\n    }\n\n    //\n    // FUNDING FLOW\n    //\n\n    /// @notice     Anyone may notify the contract that signing group setup has timed out\n    /// @dev        We rely on the keep system punishes the signers in this case\n    /// @return     True if successful, otherwise revert\n    function notifySignerSetupFailure() public returns (bool) {\n        self.notifySignerSetupFailure();\n        return true;\n    }\n\n    /// @notice             we poll the Keep contract to retrieve our pubkey\n    /// @dev                We store the pubkey as 2 bytestrings, X and Y.\n    /// @return             True if successful, otherwise revert\n    function retrieveSignerPubkey() public returns (bool) {\n        self.retrieveSignerPubkey();\n        return true;\n    }\n\n    /// @notice     Anyone may notify the contract that the funder has failed to send BTC\n    /// @dev        This is considered a funder fault, and we revoke their bond\n    /// @return     True if successful, otherwise revert\n    function notifyFundingTimeout() public returns (bool) {\n        self.notifyFundingTimeout();\n        return true;\n    }\n\n    /// @notice                 Anyone can provide a signature that was not requested to prove fraud during funding\n    /// @dev                    ECDSA is NOT SECURE unless you verify the digest\n    /// @param  _v              Signature recovery value\n    /// @param  _r              Signature R value\n    /// @param  _s              Signature S value\n    /// @param _signedDigest    The digest signed by the signature vrs tuple\n    /// @param _preimage        The sha256 preimage of the digest\n    /// @return                 True if successful, otherwise revert\n    function provideFundingECDSAFraudProof(\n        uint8 _v,\n        bytes32 _r,\n        bytes32 _s,\n        bytes32 _signedDigest,\n        bytes memory _preimage\n    ) public returns (bool) {\n        self.provideFundingECDSAFraudProof(_v, _r, _s, _signedDigest, _preimage);\n        return true;\n    }\n\n    /// @notice     Anyone may notify the contract no funding proof was submitted during funding fraud\n    /// @dev        This is not a funder fault. The signers have faulted, so the funder shouldn't fund\n    /// @return     True if successful, otherwise revert\n    function notifyFraudFundingTimeout() public returns (bool) {\n        self.notifyFraudFundingTimeout();\n        return true;\n    }\n\n    /// @notice                     Anyone may notify the deposit of a funding proof during funding fraud\n    //                              We reward the funder the entire bond if this occurs\n    /// @dev                        Takes a pre-parsed transaction and calculates values needed to verify funding\n    /// @param _txVersion           Transaction version number (4-byte LE)\n    /// @param _txInputVector       All transaction inputs prepended by the number of inputs encoded as a VarInt, max 0xFC(252) inputs\n    /// @param _txOutputVector      All transaction outputs prepended by the number of outputs encoded as a VarInt, max 0xFC(252) outputs\n    /// @param _txLocktime          Final 4 bytes of the transaction\n    /// @param _fundingOutputIndex  Index of funding output in _txOutputVector (0-indexed)\n    /// @param _merkleProof         The merkle proof of transaction inclusion in a block\n    /// @param _txIndexInBlock      Transaction index in the block (1-indexed)\n    /// @param _bitcoinHeaders      Single bytestring of 80-byte bitcoin headers, lowest height first\n    /// @return                     True if no errors are thrown\n    function provideFraudBTCFundingProof(\n        bytes memory _txVersion,\n        bytes memory _txInputVector,\n        bytes memory _txOutputVector,\n        bytes memory _txLocktime,\n        uint8 _fundingOutputIndex,\n        bytes memory _merkleProof,\n        uint256 _txIndexInBlock,\n        bytes memory _bitcoinHeaders\n    ) public returns (bool) {\n        self.provideFraudBTCFundingProof(\n            _txVersion,\n            _txInputVector,\n            _txOutputVector,\n            _txLocktime,\n            _fundingOutputIndex,\n            _merkleProof,\n            _txIndexInBlock,\n            _bitcoinHeaders\n        );\n        return true;\n    }\n\n    /// @notice                     Anyone may notify the deposit of a funding proof to activate the deposit\n    ///                             This is the happy-path of the funding flow. It means that we have succeeded\n    /// @dev                        Takes a pre-parsed transaction and calculates values needed to verify funding\n    /// @param _txVersion           Transaction version number (4-byte LE)\n    /// @param _txInputVector       All transaction inputs prepended by the number of inputs encoded as a VarInt, max 0xFC(252) inputs\n    /// @param _txOutputVector      All transaction outputs prepended by the number of outputs encoded as a VarInt, max 0xFC(252) outputs\n    /// @param _txLocktime          Final 4 bytes of the transaction\n    /// @param _fundingOutputIndex  Index of funding output in _txOutputVector (0-indexed)\n    /// @param _merkleProof         The merkle proof of transaction inclusion in a block\n    /// @param _txIndexInBlock      Transaction index in the block (1-indexed)\n    /// @param _bitcoinHeaders      Single bytestring of 80-byte bitcoin headers, lowest height first\n    /// @return                     True if no errors are thrown\n    function provideBTCFundingProof(\n        bytes memory _txVersion,\n        bytes memory _txInputVector,\n        bytes memory _txOutputVector,\n        bytes memory _txLocktime,\n        uint8 _fundingOutputIndex,\n        bytes memory _merkleProof,\n        uint256 _txIndexInBlock,\n        bytes memory _bitcoinHeaders\n    ) public returns (bool) {\n        self.provideBTCFundingProof(\n            _txVersion,\n            _txInputVector,\n            _txOutputVector,\n            _txLocktime,\n            _fundingOutputIndex,\n            _merkleProof,\n            _txIndexInBlock,\n            _bitcoinHeaders\n        );\n        return true;\n    }\n\n    //\n    // FRAUD\n    //\n\n    /// @notice                 Anyone can provide a signature that was not requested to prove fraud\n    /// @dev                    ECDSA is NOT SECURE unless you verify the digest\n    /// @param  _v              Signature recovery value\n    /// @param  _r              Signature R value\n    /// @param  _s              Signature S value\n    /// @param _signedDigest    The digest signed by the signature vrs tuple\n    /// @param _preimage        The sha256 preimage of the digest\n    /// @return                 True if successful, otherwise revert\n    function provideECDSAFraudProof(\n        uint8 _v,\n        bytes32 _r,\n        bytes32 _s,\n        bytes32 _signedDigest,\n        bytes memory _preimage\n    ) public returns (bool) {\n        self.provideECDSAFraudProof(_v, _r, _s, _signedDigest, _preimage);\n        return true;\n    }\n\n    /// @notice                 Anyone may notify the deposit of fraud via an SPV proof\n    /// @dev                    We strong prefer ECDSA fraud proofs\n    /// @param  _bitcoinTx      The bitcoin tx that purportedly contains the funding output\n    /// @param  _merkleProof    The merkle proof of inclusion of the tx in the bitcoin block\n    /// @param  _index          The index of the tx in the Bitcoin block (1-indexed)\n    /// @param  _bitcoinHeaders An array of tightly-packed bitcoin headers\n    /// @return                 True if successful, otherwise revert\n    function provideSPVFraudProof(\n        bytes memory _bitcoinTx,\n        bytes memory _merkleProof,\n        uint256 _index,\n        bytes memory _bitcoinHeaders\n    ) public returns (bool) {\n        self.provideSPVFraudProof(_bitcoinTx, _merkleProof, _index, _bitcoinHeaders);\n        return true;\n    }\n\n    ///\n    /// LIQUIDATION\n    ///\n\n    /// @notice     Closes an auction and purchases the signer bonds. Payout to buyer, funder, then signers if not fraud\n    /// @dev        For interface, reading auctionValue will give a past value. the current is better\n    /// @return     True if successful, revert otherwise\n    function purchaseSignerBondsAtAuction() public returns (bool) {\n        self.purchaseSignerBondsAtAuction();\n        return true;\n    }\n\n    /// @notice     Notify the contract that the signers are undercollateralized\n    /// @dev        Calls out to the system for oracle info\n    /// @return     True if successful, otherwise revert\n    function notifyCourtesyCall() public returns (bool) {\n        self.notifyCourtesyCall();\n        return true;\n    }\n\n    /// @notice     Goes from courtesy call to active\n    /// @dev        Only callable if collateral is sufficient and the deposit is not expiring\n    /// @return     True if successful, otherwise revert\n    function exitCourtesyCall() public returns (bool) {\n        self.exitCourtesyCall();\n        return true;\n    }\n\n    /// @notice     Notify the contract that the signers are undercollateralized\n    /// @dev        Calls out to the system for oracle info\n    /// @return     True if successful, otherwise revert\n    function notifyUndercollateralizedLiquidation() public returns (bool) {\n        self.notifyUndercollateralizedLiquidation();\n        return true;\n    }\n\n    /// @notice     Notifies the contract that the courtesy period has elapsed\n    /// @dev        This is treated as an abort, rather than fraud\n    /// @return     True if successful, otherwise revert\n    function notifyCourtesyTimeout() public returns (bool) {\n        self.notifyCourtesyTimeout();\n        return true;\n    }\n\n    /// @notice     Notifies the contract that its term limit has been reached\n    /// @dev        This initiates a courtesy call\n    /// @return     True if successful, otherwise revert\n    function notifyDepositExpiryCourtesyCall() public returns (bool) {\n        self.notifyDepositExpiryCourtesyCall();\n        return true;\n    }\n}\n",
  "sourcePath": "/tmp/e30f33c5dfb260b80a9984962289abffbac10c7b/implementation/contracts/deposit/Deposit.sol",
  "compiler": {
    "name": "solc",
    "version": "0.5.10+commit.5a6ea5b1.Emscripten.clang"
  },
  "schemaVersion": "3.0.2",
  "updatedAt": "2019-10-08T15:21:06.822Z",
  "devdoc": {
    "methods": {
      "createNewDeposit(address,address,uint256,uint256)": {
        "details": "This should be called by an approved contract, not a developer",
        "params": {
          "_m": "n for m-of-n"
        },
        "return": "True if successful, otherwise revert"
      },
      "exitCourtesyCall()": {
        "details": "Only callable if collateral is sufficient and the deposit is not expiring",
        "return": "True if successful, otherwise revert"
      },
      "getCurrentState()": {
        "details": "We implement this because contracts don't handle foreign enums well",
        "return": "The 0-indexed state from the DepositStates enum"
      },
      "increaseRedemptionFee(bytes8,bytes8)": {
        "details": "This sends us back to AWAITING_WITHDRAWAL_SIGNATURE",
        "params": {
          "_newOutputValueBytes": "The new output's value",
          "_previousOutputValueBytes": "The previous output's value"
        },
        "return": "True if successful, False if prevented by timeout, otherwise revert"
      },
      "notifyCourtesyCall()": {
        "details": "Calls out to the system for oracle info",
        "return": "True if successful, otherwise revert"
      },
      "notifyCourtesyTimeout()": {
        "details": "This is treated as an abort, rather than fraud",
        "return": "True if successful, otherwise revert"
      },
      "notifyDepositExpiryCourtesyCall()": {
        "details": "This initiates a courtesy call",
        "return": "True if successful, otherwise revert"
      },
      "notifyFraudFundingTimeout()": {
        "details": "This is not a funder fault. The signers have faulted, so the funder shouldn't fund",
        "return": "True if successful, otherwise revert"
      },
      "notifyFundingTimeout()": {
        "details": "This is considered a funder fault, and we revoke their bond",
        "return": "True if successful, otherwise revert"
      },
      "notifyRedemptionProofTimeout()": {
        "details": "This is considered fraud, and is punished",
        "return": "True if successful, otherwise revert"
      },
      "notifySignatureTimeout()": {
        "details": "This is considered fraud, and is punished",
        "return": "True if successful, otherwise revert"
      },
      "notifySignerSetupFailure()": {
        "details": "We rely on the keep system punishes the signers in this case",
        "return": "True if successful, otherwise revert"
      },
      "notifyUndercollateralizedLiquidation()": {
        "details": "Calls out to the system for oracle info",
        "return": "True if successful, otherwise revert"
      },
      "provideBTCFundingProof(bytes,bytes,bytes,bytes,uint8,bytes,uint256,bytes)": {
        "details": "Takes a pre-parsed transaction and calculates values needed to verify funding",
        "params": {
          "_bitcoinHeaders": "Single bytestring of 80-byte bitcoin headers, lowest height first",
          "_fundingOutputIndex": "Index of funding output in _txOutputVector (0-indexed)",
          "_merkleProof": "The merkle proof of transaction inclusion in a block",
          "_txIndexInBlock": "Transaction index in the block (1-indexed)",
          "_txInputVector": "All transaction inputs prepended by the number of inputs encoded as a VarInt, max 0xFC(252) inputs",
          "_txLocktime": "Final 4 bytes of the transaction",
          "_txOutputVector": "All transaction outputs prepended by the number of outputs encoded as a VarInt, max 0xFC(252) outputs",
          "_txVersion": "Transaction version number (4-byte LE)"
        },
        "return": "True if no errors are thrown"
      },
      "provideECDSAFraudProof(uint8,bytes32,bytes32,bytes32,bytes)": {
        "details": "ECDSA is NOT SECURE unless you verify the digest",
        "params": {
          "_preimage": "The sha256 preimage of the digest",
          "_r": "Signature R value",
          "_s": "Signature S value",
          "_signedDigest": "The digest signed by the signature vrs tuple",
          "_v": "Signature recovery value"
        },
        "return": "True if successful, otherwise revert"
      },
      "provideFraudBTCFundingProof(bytes,bytes,bytes,bytes,uint8,bytes,uint256,bytes)": {
        "details": "Takes a pre-parsed transaction and calculates values needed to verify funding",
        "params": {
          "_bitcoinHeaders": "Single bytestring of 80-byte bitcoin headers, lowest height first",
          "_fundingOutputIndex": "Index of funding output in _txOutputVector (0-indexed)",
          "_merkleProof": "The merkle proof of transaction inclusion in a block",
          "_txIndexInBlock": "Transaction index in the block (1-indexed)",
          "_txInputVector": "All transaction inputs prepended by the number of inputs encoded as a VarInt, max 0xFC(252) inputs",
          "_txLocktime": "Final 4 bytes of the transaction",
          "_txOutputVector": "All transaction outputs prepended by the number of outputs encoded as a VarInt, max 0xFC(252) outputs",
          "_txVersion": "Transaction version number (4-byte LE)"
        },
        "return": "True if no errors are thrown"
      },
      "provideFundingECDSAFraudProof(uint8,bytes32,bytes32,bytes32,bytes)": {
        "details": "ECDSA is NOT SECURE unless you verify the digest",
        "params": {
          "_preimage": "The sha256 preimage of the digest",
          "_r": "Signature R value",
          "_s": "Signature S value",
          "_signedDigest": "The digest signed by the signature vrs tuple",
          "_v": "Signature recovery value"
        },
        "return": "True if successful, otherwise revert"
      },
      "provideRedemptionProof(bytes,bytes,uint256,bytes)": {
        "details": "The signers will be penalized if this is not called",
        "params": {
          "_bitcoinHeaders": "An array of tightly-packed bitcoin headers",
          "_bitcoinTx": "The bitcoin tx that purportedly contain the redemption output",
          "_index": "The index of the tx in the Bitcoin block (1-indexed)",
          "_merkleProof": "The merkle proof of inclusion of the tx in the bitcoin block"
        },
        "return": "True if successful, otherwise revert"
      },
      "provideRedemptionSignature(uint8,bytes32,bytes32)": {
        "details": "The signers will be penalized if this (or provideRedemptionProof) is not called",
        "params": {
          "_r": "Signature R value",
          "_s": "Signature S value",
          "_v": "Signature recovery value"
        },
        "return": "True if successful, False if prevented by timeout, otherwise revert"
      },
      "provideSPVFraudProof(bytes,bytes,uint256,bytes)": {
        "details": "We strong prefer ECDSA fraud proofs",
        "params": {
          "_bitcoinHeaders": "An array of tightly-packed bitcoin headers",
          "_bitcoinTx": "The bitcoin tx that purportedly contains the funding output",
          "_index": "The index of the tx in the Bitcoin block (1-indexed)",
          "_merkleProof": "The merkle proof of inclusion of the tx in the bitcoin block"
        },
        "return": "True if successful, otherwise revert"
      },
      "purchaseSignerBondsAtAuction()": {
        "details": "For interface, reading auctionValue will give a past value. the current is better",
        "return": "True if successful, revert otherwise"
      },
      "requestRedemption(bytes8,bytes20)": {
        "details": "The redeemer specifies details about the Bitcoin redemption tx",
        "params": {
          "_outputValueBytes": "The 8-byte LE output size",
          "_requesterPKH": "The 20-byte Bitcoin pubkeyhash to which to send funds"
        },
        "return": "True if successful, otherwise revert"
      },
      "retrieveSignerPubkey()": {
        "details": "We store the pubkey as 2 bytestrings, X and Y.",
        "return": "True if successful, otherwise revert"
      }
    }
  },
  "userdoc": {
    "methods": {
      "createNewDeposit(address,address,uint256,uint256)": {
        "notice": "The system can spin up a new deposit"
      },
      "exitCourtesyCall()": {
        "notice": "Goes from courtesy call to active"
      },
      "getCurrentState()": {
        "notice": "Get the integer representing the current state"
      },
      "increaseRedemptionFee(bytes8,bytes8)": {
        "notice": "Anyone may notify the contract that a fee bump is needed"
      },
      "notifyCourtesyCall()": {
        "notice": "Notify the contract that the signers are undercollateralized"
      },
      "notifyCourtesyTimeout()": {
        "notice": "Notifies the contract that the courtesy period has elapsed"
      },
      "notifyDepositExpiryCourtesyCall()": {
        "notice": "Notifies the contract that its term limit has been reached"
      },
      "notifyFraudFundingTimeout()": {
        "notice": "Anyone may notify the contract no funding proof was submitted during funding fraud"
      },
      "notifyFundingTimeout()": {
        "notice": "Anyone may notify the contract that the funder has failed to send BTC"
      },
      "notifyRedemptionProofTimeout()": {
        "notice": "Anyone may notify the contract that the signers have failed to produce a redemption proof"
      },
      "notifySignatureTimeout()": {
        "notice": "Anyone may notify the contract that the signers have failed to produce a signature"
      },
      "notifySignerSetupFailure()": {
        "notice": "Anyone may notify the contract that signing group setup has timed out"
      },
      "notifyUndercollateralizedLiquidation()": {
        "notice": "Notify the contract that the signers are undercollateralized"
      },
      "provideBTCFundingProof(bytes,bytes,bytes,bytes,uint8,bytes,uint256,bytes)": {
        "notice": "Anyone may notify the deposit of a funding proof to activate the deposit                             This is the happy-path of the funding flow. It means that we have succeeded"
      },
      "provideECDSAFraudProof(uint8,bytes32,bytes32,bytes32,bytes)": {
        "notice": "Anyone can provide a signature that was not requested to prove fraud"
      },
      "provideFundingECDSAFraudProof(uint8,bytes32,bytes32,bytes32,bytes)": {
        "notice": "Anyone can provide a signature that was not requested to prove fraud during funding"
      },
      "provideRedemptionProof(bytes,bytes,uint256,bytes)": {
        "notice": "Anyone may provide a withdrawal proof to prove redemption"
      },
      "provideRedemptionSignature(uint8,bytes32,bytes32)": {
        "notice": "Anyone may provide a withdrawal signature if it was requested"
      },
      "provideSPVFraudProof(bytes,bytes,uint256,bytes)": {
        "notice": "Anyone may notify the deposit of fraud via an SPV proof"
      },
      "purchaseSignerBondsAtAuction()": {
        "notice": " LIQUIDATION  Closes an auction and purchases the signer bonds. Payout to buyer, funder, then signers if not fraud"
      },
      "requestRedemption(bytes8,bytes20)": {
        "notice": "Anyone can request redemption"
      },
      "retrieveSignerPubkey()": {
        "notice": "we poll the Keep contract to retrieve our pubkey"
      }
    }
  }
}