{
  "contractName": "ECDSAKeep",
  "abi": [
    {
      "inputs": [
        {
          "name": "_owner",
          "type": "address"
        },
        {
          "name": "_members",
          "type": "address[]"
        },
        {
          "name": "_honestThreshold",
          "type": "uint256"
        }
      ],
      "payable": false,
      "stateMutability": "nonpayable",
      "type": "constructor"
    },
    {
      "anonymous": false,
      "inputs": [
        {
          "indexed": false,
          "name": "publicKey",
          "type": "bytes"
        }
      ],
      "name": "PublicKeyPublished",
      "type": "event"
    },
    {
      "anonymous": false,
      "inputs": [
        {
          "indexed": false,
          "name": "digest",
          "type": "bytes32"
        }
      ],
      "name": "SignatureRequested",
      "type": "event"
    },
    {
      "constant": false,
      "inputs": [
        {
          "name": "_publicKey",
          "type": "bytes"
        }
      ],
      "name": "setPublicKey",
      "outputs": [],
      "payable": false,
      "stateMutability": "nonpayable",
      "type": "function"
    },
    {
      "constant": true,
      "inputs": [],
      "name": "getPublicKey",
      "outputs": [
        {
          "name": "",
          "type": "bytes"
        }
      ],
      "payable": false,
      "stateMutability": "view",
      "type": "function"
    },
    {
      "constant": false,
      "inputs": [
        {
          "name": "_digest",
          "type": "bytes32"
        }
      ],
      "name": "sign",
      "outputs": [],
      "payable": false,
      "stateMutability": "nonpayable",
      "type": "function"
    }
  ],
  "bytecode": "0x608060405234801561001057600080fd5b506040516106d53803806106d58339810180604052606081101561003357600080fd5b8101908080519060200190929190805164010000000081111561005557600080fd5b8281019050602081018481111561006b57600080fd5b815185602082028301116401000000008211171561008857600080fd5b505092919060200180519060200190929190505050826000806101000a81548173ffffffffffffffffffffffffffffffffffffffff021916908373ffffffffffffffffffffffffffffffffffffffff16021790555081600190805190602001906100f3929190610103565b50806002819055505050506101d0565b82805482825590600052602060002090810192821561017c579160200282015b8281111561017b5782518260006101000a81548173ffffffffffffffffffffffffffffffffffffffff021916908373ffffffffffffffffffffffffffffffffffffffff16021790555091602001919060010190610123565b5b509050610189919061018d565b5090565b6101cd91905b808211156101c957600081816101000a81549073ffffffffffffffffffffffffffffffffffffffff021916905550600101610193565b5090565b90565b6104f6806101df6000396000f3fe608060405234801561001057600080fd5b506004361061005e576000357c0100000000000000000000000000000000000000000000000000000000900480632e33445214610063578063799cd333146100e6578063a91d58b414610114575b600080fd5b61006b6101cf565b6040518080602001828103825283818151815260200191508051906020019080838360005b838110156100ab578082015181840152602081019050610090565b50505050905090810190601f1680156100d85780820380516001836020036101000a031916815260200191505b509250505060405180910390f35b610112600480360360208110156100fc57600080fd5b8101908080359060200190929190505050610271565b005b6101cd6004803603602081101561012a57600080fd5b810190808035906020019064010000000081111561014757600080fd5b82018360208201111561015957600080fd5b8035906020019184600183028401116401000000008311171561017b57600080fd5b91908080601f016020809104026020016040519081016040528093929190818152602001838380828437600081840152601f19601f82011690508083019250505050505050919291929050505061036f565b005b606060038054600181600116156101000203166002900480601f0160208091040260200160405190810160405280929190818152602001828054600181600116156101000203166002900480156102675780601f1061023c57610100808354040283529160200191610267565b820191906000526020600020905b81548152906001019060200180831161024a57829003601f168201915b5050505050905090565b6000809054906101000a900473ffffffffffffffffffffffffffffffffffffffff1673ffffffffffffffffffffffffffffffffffffffff163373ffffffffffffffffffffffffffffffffffffffff16141515610335576040517f08c379a000000000000000000000000000000000000000000000000000000000815260040180806020018281038252601f8152602001807f4f6e6c79206b656570206f776e65722063616e2061736b20746f207369676e0081525060200191505060405180910390fd5b7f34f611bedd4f8c135323bbfc4921e3f6e4feb7eef591036eed6af5462e6cfab0816040518082815260200191505060405180910390a150565b8060039080519060200190610385929190610425565b507ff62bba8b270bef3e8d0fcebc1f86567664da8ccbd03e8509d6231cc8d63f4b31816040518080602001828103825283818151815260200191508051906020019080838360005b838110156103e85780820151818401526020810190506103cd565b50505050905090810190601f1680156104155780820380516001836020036101000a031916815260200191505b509250505060405180910390a150565b828054600181600116156101000203166002900490600052602060002090601f016020900481019282601f1061046657805160ff1916838001178555610494565b82800160010185558215610494579182015b82811115610493578251825591602001919060010190610478565b5b5090506104a191906104a5565b5090565b6104c791905b808211156104c35760008160009055506001016104ab565b5090565b9056fea165627a7a723058207b71b1c368fc52564065357b1d8d281d53f1fbcac35890e71b370ff058d7157c0029",
  "source": "pragma solidity ^0.5.4;\n\n/// @title ECDSA Keep\n/// @notice Contract reflecting an ECDSA keep.\n/// @dev TODO: This is a stub contract - needs to be implemented.\ncontract ECDSAKeep {\n    // Owner of the keep.\n    address owner;\n    // List of keep members' addresses.\n    address[] internal members;\n    // Minimum number of honest keep members required to produce a signature.\n    uint256 honestThreshold;\n    // Signer's ECDSA public key serialized to 64-bytes, where X and Y coordinates\n    // are padded with zeros to 32-byte each.\n    bytes publicKey;\n\n    // Notification that a signer's public key was published for the keep.\n    event PublicKeyPublished(\n        bytes publicKey\n    );\n\n    // Notification that the keep was requested to sign a digest.\n    event SignatureRequested(\n        bytes32 digest\n    );\n\n    constructor(\n        address _owner,\n        address[] memory _members,\n        uint256 _honestThreshold\n    ) public {\n        owner = _owner;\n        members = _members;\n        honestThreshold = _honestThreshold;\n    }\n\n    /// @notice Set a signer's public key for the keep.\n    /// @dev Stub implementations.\n    /// @param _publicKey Signer's public key.\n    function setPublicKey(bytes memory _publicKey) public {\n        // TODO: Validate if `msg.sender` is on `members` list.\n        // TODO: Validate format: 32-bytes X + 32-bytes Y.\n        publicKey = _publicKey;\n        emit PublicKeyPublished(_publicKey);\n    }\n\n    /// @notice Returns the keep signer's public key.\n    /// @return Signer's public key.\n    function getPublicKey() public view returns (bytes memory) {\n       return publicKey;\n    }\n\n    /// @notice Calculates a signature over provided digest by the keep.\n    /// @dev TODO: Access control.\n    /// @param _digest Digest to be signed.\n    function sign(bytes32 _digest) public {\n        require(msg.sender == owner, \"Only keep owner can ask to sign\");\n        emit SignatureRequested(_digest);\n    }\n}\n",
  "sourcePath": "/Users/jakub/go/src/github.com/keep-network/keep-tecdsa/solidity/contracts/ECDSAKeep.sol",
  "compiler": {
    "name": "solc",
    "version": "0.5.4+commit.9549d8ff.Emscripten.clang"
  },
  "schemaVersion": "3.0.11",
  "updatedAt": "2019-08-13T10:01:18.332Z",
  "devdoc": {
    "details": "TODO: This is a stub contract - needs to be implemented.",
    "methods": {
      "getPublicKey()": {
        "return": "Signer's public key."
      },
      "setPublicKey(bytes)": {
        "details": "Stub implementations.",
        "params": {
          "_publicKey": "Signer's public key."
        }
      },
      "sign(bytes32)": {
        "details": "TODO: Access control.",
        "params": {
          "_digest": "Digest to be signed."
        }
      }
    },
    "title": "ECDSA Keep"
  },
  "userdoc": {
    "methods": {
      "getPublicKey()": {
        "notice": "Returns the keep signer's public key."
      },
      "setPublicKey(bytes)": {
        "notice": "Set a signer's public key for the keep."
      },
      "sign(bytes32)": {
        "notice": "Calculates a signature over provided digest by the keep."
      }
    },
    "notice": "Contract reflecting an ECDSA keep."
  }
}