{
  "contractName": "ECDSAKeep",
  "abi": [
    {
      "constant": false,
      "inputs": [],
      "name": "renounceOwnership",
      "outputs": [],
      "payable": false,
      "stateMutability": "nonpayable",
      "type": "function"
    },
    {
      "constant": true,
      "inputs": [],
      "name": "owner",
      "outputs": [
        {
          "name": "",
          "type": "address"
        }
      ],
      "payable": false,
      "stateMutability": "view",
      "type": "function"
    },
    {
      "constant": true,
      "inputs": [],
      "name": "isOwner",
      "outputs": [
        {
          "name": "",
          "type": "bool"
        }
      ],
      "payable": false,
      "stateMutability": "view",
      "type": "function"
    },
    {
      "constant": false,
      "inputs": [
        {
          "name": "newOwner",
          "type": "address"
        }
      ],
      "name": "transferOwnership",
      "outputs": [],
      "payable": false,
      "stateMutability": "nonpayable",
      "type": "function"
    },
    {
      "inputs": [
        {
          "name": "_owner",
          "type": "address"
        },
        {
          "name": "_members",
          "type": "address[]"
        },
        {
          "name": "_honestThreshold",
          "type": "uint256"
        }
      ],
      "payable": false,
      "stateMutability": "nonpayable",
      "type": "constructor"
    },
    {
      "anonymous": false,
      "inputs": [
        {
          "indexed": false,
          "name": "publicKey",
          "type": "bytes"
        }
      ],
      "name": "PublicKeyPublished",
      "type": "event"
    },
    {
      "anonymous": false,
      "inputs": [
        {
          "indexed": false,
          "name": "digest",
          "type": "bytes32"
        }
      ],
      "name": "SignatureRequested",
      "type": "event"
    },
    {
      "anonymous": false,
      "inputs": [
        {
          "indexed": false,
          "name": "digest",
          "type": "bytes32"
        },
        {
          "indexed": false,
          "name": "r",
          "type": "bytes32"
        },
        {
          "indexed": false,
          "name": "s",
          "type": "bytes32"
        },
        {
          "indexed": false,
          "name": "recoveryID",
          "type": "uint8"
        }
      ],
      "name": "SignatureSubmitted",
      "type": "event"
    },
    {
      "anonymous": false,
      "inputs": [
        {
          "indexed": true,
          "name": "previousOwner",
          "type": "address"
        },
        {
          "indexed": true,
          "name": "newOwner",
          "type": "address"
        }
      ],
      "name": "OwnershipTransferred",
      "type": "event"
    },
    {
      "constant": false,
      "inputs": [
        {
          "name": "_publicKey",
          "type": "bytes"
        }
      ],
      "name": "setPublicKey",
      "outputs": [],
      "payable": false,
      "stateMutability": "nonpayable",
      "type": "function"
    },
    {
      "constant": true,
      "inputs": [],
      "name": "getPublicKey",
      "outputs": [
        {
          "name": "",
          "type": "bytes"
        }
      ],
      "payable": false,
      "stateMutability": "view",
      "type": "function"
    },
    {
      "constant": false,
      "inputs": [
        {
          "name": "_digest",
          "type": "bytes32"
        }
      ],
      "name": "sign",
      "outputs": [],
      "payable": false,
      "stateMutability": "nonpayable",
      "type": "function"
    },
    {
      "constant": false,
      "inputs": [
        {
          "name": "_digest",
          "type": "bytes32"
        },
        {
          "name": "_r",
          "type": "bytes32"
        },
        {
          "name": "_s",
          "type": "bytes32"
        },
        {
          "name": "_recoveryID",
          "type": "uint8"
        }
      ],
      "name": "submitSignature",
      "outputs": [],
      "payable": false,
      "stateMutability": "nonpayable",
      "type": "function"
    }
  ],
  "bytecode": "0x60806040523480156200001157600080fd5b50604051620013e3380380620013e3833981018060405260608110156200003757600080fd5b810190808051906020019092919080516401000000008111156200005a57600080fd5b828101905060208101848111156200007157600080fd5b81518560208202830111640100000000821117156200008f57600080fd5b505092919060200180519060200190929190505050336000806101000a81548173ffffffffffffffffffffffffffffffffffffffff021916908373ffffffffffffffffffffffffffffffffffffffff1602179055506000809054906101000a900473ffffffffffffffffffffffffffffffffffffffff1673ffffffffffffffffffffffffffffffffffffffff16600073ffffffffffffffffffffffffffffffffffffffff167f8be0079c531659141344cd1fd0a4f28419497f9722a3daafe3b4186f6b6457e060405160405180910390a36200017a83620001a3640100000000026401000000009004565b816001908051906020019062000192929190620003ed565b5080600281905550505050620004c2565b620001bc6200024e640100000000026401000000009004565b151562000231576040517f08c379a00000000000000000000000000000000000000000000000000000000081526004018080602001828103825260208152602001807f4f776e61626c653a2063616c6c6572206973206e6f7420746865206f776e657281525060200191505060405180910390fd5b6200024b81620002a5640100000000026401000000009004565b50565b60008060009054906101000a900473ffffffffffffffffffffffffffffffffffffffff1673ffffffffffffffffffffffffffffffffffffffff163373ffffffffffffffffffffffffffffffffffffffff1614905090565b600073ffffffffffffffffffffffffffffffffffffffff168173ffffffffffffffffffffffffffffffffffffffff16141515156200032f576040517f08c379a0000000000000000000000000000000000000000000000000000000008152600401808060200182810382526026815260200180620013bd6026913960400191505060405180910390fd5b8073ffffffffffffffffffffffffffffffffffffffff166000809054906101000a900473ffffffffffffffffffffffffffffffffffffffff1673ffffffffffffffffffffffffffffffffffffffff167f8be0079c531659141344cd1fd0a4f28419497f9722a3daafe3b4186f6b6457e060405160405180910390a3806000806101000a81548173ffffffffffffffffffffffffffffffffffffffff021916908373ffffffffffffffffffffffffffffffffffffffff16021790555050565b82805482825590600052602060002090810192821562000469579160200282015b82811115620004685782518260006101000a81548173ffffffffffffffffffffffffffffffffffffffff021916908373ffffffffffffffffffffffffffffffffffffffff160217905550916020019190600101906200040e565b5b5090506200047891906200047c565b5090565b620004bf91905b80821115620004bb57600081816101000a81549073ffffffffffffffffffffffffffffffffffffffff02191690555060010162000483565b5090565b90565b610eeb80620004d26000396000f3fe608060405234801561001057600080fd5b50600436106100a5576000357c0100000000000000000000000000000000000000000000000000000000900480638f32d59b116100785780638f32d59b146101af578063a91d58b4146101d1578063b935d5cf1461024a578063f2fde38b14610299576100a5565b80632e334452146100aa578063715018a61461012d578063799cd333146101375780638da5cb5b14610165575b600080fd5b6100b26102dd565b6040518080602001828103825283818151815260200191508051906020019080838360005b838110156100f25780820151818401526020810190506100d7565b50505050905090810190601f16801561011f5780820380516001836020036101000a031916815260200191505b509250505060405180910390f35b61013561037f565b005b6101636004803603602081101561014d57600080fd5b81019080803590602001909291905050506104ba565b005b61016d610570565b604051808273ffffffffffffffffffffffffffffffffffffffff1673ffffffffffffffffffffffffffffffffffffffff16815260200191505060405180910390f35b6101b7610599565b604051808215151515815260200191505060405180910390f35b610248600480360360208110156101e757600080fd5b810190808035906020019064010000000081111561020457600080fd5b82018360208201111561021657600080fd5b8035906020019184600183028401116401000000008311171561023857600080fd5b90919293919293905050506105f0565b005b6102976004803603608081101561026057600080fd5b81019080803590602001909291908035906020019092919080359060200190929190803560ff1690602001909291905050506107f1565b005b6102db600480360360208110156102af57600080fd5b81019080803573ffffffffffffffffffffffffffffffffffffffff169060200190929190505050610b6b565b005b606060038054600181600116156101000203166002900480601f0160208091040260200160405190810160405280929190818152602001828054600181600116156101000203166002900480156103755780601f1061034a57610100808354040283529160200191610375565b820191906000526020600020905b81548152906001019060200180831161035857829003601f168201915b5050505050905090565b610387610599565b15156103fb576040517f08c379a00000000000000000000000000000000000000000000000000000000081526004018080602001828103825260208152602001807f4f776e61626c653a2063616c6c6572206973206e6f7420746865206f776e657281525060200191505060405180910390fd5b600073ffffffffffffffffffffffffffffffffffffffff166000809054906101000a900473ffffffffffffffffffffffffffffffffffffffff1673ffffffffffffffffffffffffffffffffffffffff167f8be0079c531659141344cd1fd0a4f28419497f9722a3daafe3b4186f6b6457e060405160405180910390a360008060006101000a81548173ffffffffffffffffffffffffffffffffffffffff021916908373ffffffffffffffffffffffffffffffffffffffff160217905550565b6104c2610599565b1515610536576040517f08c379a00000000000000000000000000000000000000000000000000000000081526004018080602001828103825260208152602001807f4f776e61626c653a2063616c6c6572206973206e6f7420746865206f776e657281525060200191505060405180910390fd5b7f34f611bedd4f8c135323bbfc4921e3f6e4feb7eef591036eed6af5462e6cfab0816040518082815260200191505060405180910390a150565b60008060009054906101000a900473ffffffffffffffffffffffffffffffffffffffff16905090565b60008060009054906101000a900473ffffffffffffffffffffffffffffffffffffffff1673ffffffffffffffffffffffffffffffffffffffff163373ffffffffffffffffffffffffffffffffffffffff1614905090565b61068933600180548060200260200160405190810160405280929190818152602001828054801561067657602002820191906000526020600020905b8160009054906101000a900473ffffffffffffffffffffffffffffffffffffffff1673ffffffffffffffffffffffffffffffffffffffff168152602001906001019080831161062c575b5050505050610bf390919063ffffffff16565b15156106fd576040517f08c379a000000000000000000000000000000000000000000000000000000000815260040180806020018281038252601d8152602001807f43616c6c6572206973206e6f7420746865206b656570206d656d62657200000081525060200191505060405180910390fd5b604082829050141515610778576040517f08c379a00000000000000000000000000000000000000000000000000000000081526004018080602001828103825260208152602001807f5075626c6963206b6579206d757374206265203634206279746573206c6f6e6781525060200191505060405180910390fd5b818160039190610789929190610dcd565b507ff62bba8b270bef3e8d0fcebc1f86567664da8ccbd03e8509d6231cc8d63f4b31828260405180806020018281038252848482818152602001925080828437600081840152601f19601f820116905080830192505050935050505060405180910390a15050565b61088a33600180548060200260200160405190810160405280929190818152602001828054801561087757602002820191906000526020600020905b8160009054906101000a900473ffffffffffffffffffffffffffffffffffffffff1673ffffffffffffffffffffffffffffffffffffffff168152602001906001019080831161082d575b5050505050610bf390919063ffffffff16565b15156108fe576040517f08c379a000000000000000000000000000000000000000000000000000000000815260040180806020018281038252601d8152602001807f43616c6c6572206973206e6f7420746865206b656570206d656d62657200000081525060200191505060405180910390fd5b60048160ff1610151561095c576040517f08c379a0000000000000000000000000000000000000000000000000000000008152600401808060200182810382526027815260200180610e996027913960400191505060405180910390fd5b600081601b01905060018582868660405160008152602001604052604051808581526020018460ff1660ff1681526020018381526020018281526020019450505050506020604051602081039080840390855afa1580156109c1573d6000803e3d6000fd5b5050506020604051035173ffffffffffffffffffffffffffffffffffffffff16610a8460038054600181600116156101000203166002900480601f016020809104026020016040519081016040528092919081815260200182805460018160011615610100020316600290048015610a7a5780601f10610a4f57610100808354040283529160200191610a7a565b820191906000526020600020905b815481529060010190602001808311610a5d57829003601f168201915b5050505050610c72565b73ffffffffffffffffffffffffffffffffffffffff16141515610b0f576040517f08c379a00000000000000000000000000000000000000000000000000000000081526004018080602001828103825260118152602001807f496e76616c6964207369676e617475726500000000000000000000000000000081525060200191505060405180910390fd5b7fb19546e9e0b503d103dd4ae295f4d526e9115adf7c902ead329b1f2404efd35f85858585604051808581526020018481526020018381526020018260ff1660ff16815260200194505050505060405180910390a15050505050565b610b73610599565b1515610be7576040517f08c379a00000000000000000000000000000000000000000000000000000000081526004018080602001828103825260208152602001807f4f776e61626c653a2063616c6c6572206973206e6f7420746865206f776e657281525060200191505060405180910390fd5b610bf081610c87565b50565b600080600090505b8351811015610c66578381815181101515610c1257fe5b9060200190602002015173ffffffffffffffffffffffffffffffffffffffff168373ffffffffffffffffffffffffffffffffffffffff161415610c59576001915050610c6c565b8080600101915050610bfb565b50600090505b92915050565b60008180519060200120600190049050919050565b600073ffffffffffffffffffffffffffffffffffffffff168173ffffffffffffffffffffffffffffffffffffffff1614151515610d0f576040517f08c379a0000000000000000000000000000000000000000000000000000000008152600401808060200182810382526026815260200180610e736026913960400191505060405180910390fd5b8073ffffffffffffffffffffffffffffffffffffffff166000809054906101000a900473ffffffffffffffffffffffffffffffffffffffff1673ffffffffffffffffffffffffffffffffffffffff167f8be0079c531659141344cd1fd0a4f28419497f9722a3daafe3b4186f6b6457e060405160405180910390a3806000806101000a81548173ffffffffffffffffffffffffffffffffffffffff021916908373ffffffffffffffffffffffffffffffffffffffff16021790555050565b828054600181600116156101000203166002900490600052602060002090601f016020900481019282601f10610e0e57803560ff1916838001178555610e3c565b82800160010185558215610e3c579182015b82811115610e3b578235825591602001919060010190610e20565b5b509050610e499190610e4d565b5090565b610e6f91905b80821115610e6b576000816000905550600101610e53565b5090565b9056fe4f776e61626c653a206e6577206f776e657220697320746865207a65726f20616464726573735265636f76657279204944206d757374206265206f6e65206f66207b302c20312c20322c20337da165627a7a72305820c4b5931bf4b28d1aba16f7c1abf59c5ed6907e6b5e75bc3c57c16b56ae6837f400294f776e61626c653a206e6577206f776e657220697320746865207a65726f2061646472657373",
  "source": "pragma solidity ^0.5.4;\n\nimport \"openzeppelin-solidity/contracts/ownership/Ownable.sol\";\nimport \"./api/IECDSAKeep.sol\";\nimport \"./utils/AddressArrayUtils.sol\";\n\n/// @title ECDSA Keep\n/// @notice Contract reflecting an ECDSA keep.\n/// @dev TODO: This is a stub contract - needs to be implemented.\ncontract ECDSAKeep is IECDSAKeep, Ownable {\n    using AddressArrayUtils for address[];\n\n    // List of keep members' addresses.\n    address[] internal members;\n    // Minimum number of honest keep members required to produce a signature.\n    uint256 honestThreshold;\n    // Signer's ECDSA public key serialized to 64-bytes, where X and Y coordinates\n    // are padded with zeros to 32-byte each.\n    bytes publicKey;\n\n    // Notification that a signer's public key was published for the keep.\n    event PublicKeyPublished(\n        bytes publicKey\n    );\n\n    // Notification that the keep was requested to sign a digest.\n    event SignatureRequested(\n        bytes32 digest\n    );\n\n    // Notification that the signature has been calculated. Contains a digest which\n    // was used for signature calculation and a signature in a form of r, s and\n    // recovery ID values.\n    // The signature is chain-agnostic. Some chains (e.g. Ethereum and BTC) requires\n    // `v` to be calculated by increasing recovery id by 27. Please consult the\n    // documentation about what the particular chain expects.\n    event SignatureSubmitted(\n        bytes32 digest,\n        bytes32 r,\n        bytes32 s,\n        uint8   recoveryID\n    );\n\n    constructor(\n        address _owner,\n        address[] memory _members,\n        uint256 _honestThreshold\n    ) public {\n        transferOwnership(_owner);\n        members = _members;\n        honestThreshold = _honestThreshold;\n    }\n\n    /// @notice Set a signer's public key for the keep.\n    /// @dev Stub implementations.\n    /// @param _publicKey Signer's public key.\n    function setPublicKey(bytes calldata _publicKey) external onlyMember {\n        require(_publicKey.length == 64, \"Public key must be 64 bytes long\");\n        publicKey = _publicKey;\n        emit PublicKeyPublished(_publicKey);\n    }\n\n    /// @notice Returns the keep signer's public key.\n    /// @return Signer's public key.\n    function getPublicKey() external view returns (bytes memory) {\n       return publicKey;\n    }\n\n    /// @notice Calculates a signature over provided digest by the keep.\n    /// @param _digest Digest to be signed.\n    function sign(bytes32 _digest) external onlyOwner {\n        emit SignatureRequested(_digest);\n    }\n\n    /// @notice Submits a signature calculated for the given digest.\n    /// @param _digest Digest for which calculator was calculated.\n    /// @param _r Calculated signature's R value.\n    /// @param _s Calculated signature's S value.\n    /// @param _recoveryID Calculated signature's recovery ID (one of {0, 1, 2, 3}).\n    function submitSignature(\n        bytes32 _digest,\n        bytes32 _r,\n        bytes32 _s,\n        uint8 _recoveryID\n    ) external onlyMember {\n        require(_recoveryID < 4, \"Recovery ID must be one of {0, 1, 2, 3}\");\n\n        // We add 27 to the recovery ID to align it with ethereum and bitcoin\n        // protocols where 27 is added to recovery ID to indicate usage of\n        // uncompressed public keys.\n        uint8 _v = 27 + _recoveryID;\n\n        // Validate signature.\n        require(\n            publicKeyToAddress(publicKey) == ecrecover(_digest, _v, _r, _s),\n            \"Invalid signature\"\n        );\n\n        emit SignatureSubmitted(_digest, _r, _s, _recoveryID);\n    }\n\n    /// @notice Checks if the caller is a keep member.\n    /// @dev Throws an error if called by any account other than one of the members.\n    modifier onlyMember() {\n        require(members.contains(msg.sender), \"Caller is not the keep member\");\n        _;\n    }\n\n    /// @notice Coverts a public key to an ethereum address.\n    /// @param _publicKey Public key provided as 64-bytes concatenation of\n    /// X and Y coordinates (32-bytes each).\n    /// @return Ethereum address.\n    function publicKeyToAddress(bytes memory _publicKey) internal pure returns (address) {\n        // We hash the public key and then truncate last 20 bytes of the digest\n        // which is the ethereum address.\n        return address(uint160(uint256(keccak256(_publicKey))));\n    }\n}\n",
  "sourcePath": "/tmp/aa8525379a0c8f2d85c48d40676f26871983ffeb/solidity/contracts/ECDSAKeep.sol",
  "compiler": {
    "name": "solc",
    "version": "0.5.4+commit.9549d8ff.Emscripten.clang"
  },
  "schemaVersion": "3.0.16",
  "updatedAt": "2019-10-08T14:58:20.306Z",
  "devdoc": {
    "details": "TODO: This is a stub contract - needs to be implemented.",
    "methods": {
      "getPublicKey()": {
        "return": "Signer's public key."
      },
      "isOwner()": {
        "details": "Returns true if the caller is the current owner."
      },
      "owner()": {
        "details": "Returns the address of the current owner."
      },
      "renounceOwnership()": {
        "details": "Leaves the contract without owner. It will not be possible to call `onlyOwner` functions anymore. Can only be called by the current owner.     * > Note: Renouncing ownership will leave the contract without an owner, thereby removing any functionality that is only available to the owner."
      },
      "setPublicKey(bytes)": {
        "details": "Stub implementations.",
        "params": {
          "_publicKey": "Signer's public key."
        }
      },
      "sign(bytes32)": {
        "params": {
          "_digest": "Digest to be signed."
        }
      },
      "submitSignature(bytes32,bytes32,bytes32,uint8)": {
        "params": {
          "_digest": "Digest for which calculator was calculated.",
          "_r": "Calculated signature's R value.",
          "_recoveryID": "Calculated signature's recovery ID (one of {0, 1, 2, 3}).",
          "_s": "Calculated signature's S value."
        }
      },
      "transferOwnership(address)": {
        "details": "Transfers ownership of the contract to a new account (`newOwner`). Can only be called by the current owner."
      }
    },
    "title": "ECDSA Keep"
  },
  "userdoc": {
    "methods": {
      "getPublicKey()": {
        "notice": "Returns the keep signer's public key."
      },
      "setPublicKey(bytes)": {
        "notice": "Set a signer's public key for the keep."
      },
      "sign(bytes32)": {
        "notice": "Calculates a signature over provided digest by the keep."
      },
      "submitSignature(bytes32,bytes32,bytes32,uint8)": {
        "notice": "Submits a signature calculated for the given digest."
      }
    },
    "notice": "Contract reflecting an ECDSA keep."
  }
}