{
  "contractName": "KeepBridge",
  "abi": [
    {
      "constant": true,
      "inputs": [
        {
          "name": "_keepAddress",
          "type": "address"
        },
        {
          "name": "_digest",
          "type": "bytes32"
        }
      ],
      "name": "wasDigestApprovedForSigning",
      "outputs": [
        {
          "name": "",
          "type": "uint256"
        }
      ],
      "payable": false,
      "stateMutability": "view",
      "type": "function",
      "signature": "0x4889419d"
    },
    {
      "constant": false,
      "inputs": [
        {
          "name": "_keepAddress",
          "type": "address"
        },
        {
          "name": "_digest",
          "type": "bytes32"
        }
      ],
      "name": "approveDigest",
      "outputs": [
        {
          "name": "_success",
          "type": "bool"
        }
      ],
      "payable": false,
      "stateMutability": "nonpayable",
      "type": "function",
      "signature": "0x3bc2b388"
    },
    {
      "constant": false,
      "inputs": [
        {
          "name": "_keepAddress",
          "type": "address"
        },
        {
          "name": "_v",
          "type": "uint8"
        },
        {
          "name": "_r",
          "type": "bytes32"
        },
        {
          "name": "_s",
          "type": "bytes32"
        },
        {
          "name": "_signedDigest",
          "type": "bytes32"
        },
        {
          "name": "_preimage",
          "type": "bytes"
        }
      ],
      "name": "submitSignatureFraud",
      "outputs": [
        {
          "name": "_isFraud",
          "type": "bool"
        }
      ],
      "payable": false,
      "stateMutability": "nonpayable",
      "type": "function",
      "signature": "0xe951993e"
    },
    {
      "constant": false,
      "inputs": [
        {
          "name": "_keepAddress",
          "type": "address"
        }
      ],
      "name": "distributeEthToKeepGroup",
      "outputs": [
        {
          "name": "",
          "type": "bool"
        }
      ],
      "payable": true,
      "stateMutability": "payable",
      "type": "function",
      "signature": "0x00d1e785"
    },
    {
      "constant": false,
      "inputs": [
        {
          "name": "_keepAddress",
          "type": "address"
        },
        {
          "name": "_asset",
          "type": "address"
        },
        {
          "name": "_value",
          "type": "uint256"
        }
      ],
      "name": "distributeERC20ToKeepGroup",
      "outputs": [
        {
          "name": "",
          "type": "bool"
        }
      ],
      "payable": false,
      "stateMutability": "nonpayable",
      "type": "function",
      "signature": "0xb595b79a"
    },
    {
      "constant": false,
      "inputs": [
        {
          "name": "_m",
          "type": "uint256"
        },
        {
          "name": "_n",
          "type": "uint256"
        }
      ],
      "name": "requestNewKeep",
      "outputs": [
        {
          "name": "_keepAddress",
          "type": "address"
        }
      ],
      "payable": true,
      "stateMutability": "payable",
      "type": "function",
      "signature": "0xdafd59b2"
    },
    {
      "constant": true,
      "inputs": [
        {
          "name": "_keepAddress",
          "type": "address"
        }
      ],
      "name": "getKeepPubkey",
      "outputs": [
        {
          "name": "",
          "type": "bytes"
        }
      ],
      "payable": false,
      "stateMutability": "view",
      "type": "function",
      "signature": "0x10e03529"
    },
    {
      "constant": true,
      "inputs": [
        {
          "name": "_keepAddress",
          "type": "address"
        }
      ],
      "name": "checkBondAmount",
      "outputs": [
        {
          "name": "",
          "type": "uint256"
        }
      ],
      "payable": false,
      "stateMutability": "view",
      "type": "function",
      "signature": "0x24965202"
    },
    {
      "constant": false,
      "inputs": [
        {
          "name": "_keepAddress",
          "type": "address"
        }
      ],
      "name": "seizeSignerBonds",
      "outputs": [
        {
          "name": "",
          "type": "bool"
        }
      ],
      "payable": false,
      "stateMutability": "nonpayable",
      "type": "function",
      "signature": "0xce72b183"
    },
    {
      "constant": false,
      "inputs": [
        {
          "name": "_keepRegistry",
          "type": "address"
        }
      ],
      "name": "initialize",
      "outputs": [],
      "payable": false,
      "stateMutability": "nonpayable",
      "type": "function",
      "signature": "0xc4d66de8"
    }
  ],
  "bytecode": "0x608060405234801561001057600080fd5b50610677806100206000396000f3fe6080604052600436106100ad576000357c010000000000000000000000000000000000000000000000000000000090048063b595b79a11610076578063b595b79a14610225578063c4d66de814610268578063ce72b1831461029d578063dafd59b2146102c0578063e951993e146102ff576100ad565b8062d1e785146100b257806310e03529146100ec57806324965202146101945780633bc2b388146101c95780634889419d14610202575b600080fd5b6100d8600480360360208110156100c857600080fd5b5035600160a060020a03166103a7565b604080519115158252519081900360200190f35b3480156100f857600080fd5b5061011f6004803603602081101561010f57600080fd5b5035600160a060020a03166103ad565b6040805160208082528351818301528351919283929083019185019080838360005b83811015610159578181015183820152602001610141565b50505050905090810190601f1680156101865780820380516001836020036101000a031916815260200191505b509250505060405180910390f35b3480156101a057600080fd5b506101b7600480360360208110156100c857600080fd5b60408051918252519081900360200190f35b3480156101d557600080fd5b506100d8600480360360408110156101ec57600080fd5b50600160a060020a038135169060200135610492565b34801561020e57600080fd5b506101b7600480360360408110156101ec57600080fd5b34801561023157600080fd5b506100d86004803603606081101561024857600080fd5b50600160a060020a0381358116916020810135909116906040013561049a565b34801561027457600080fd5b5061029b6004803603602081101561028b57600080fd5b5035600160a060020a03166104a3565b005b3480156102a957600080fd5b506100d8600480360360208110156100c857600080fd5b6102e3600480360360408110156102d657600080fd5b50803590602001356104d2565b60408051600160a060020a039092168252519081900360200190f35b34801561030b57600080fd5b506100d8600480360360c081101561032257600080fd5b600160a060020a038235169160ff602082013516916040820135916060810135916080820135919081019060c0810160a082013564010000000081111561036857600080fd5b82018360208201111561037a57600080fd5b8035906020019184600183028401116401000000008311171561039c57600080fd5b509092509050610635565b50600090565b606081600160a060020a0316632e3344526040518163ffffffff167c010000000000000000000000000000000000000000000000000000000002815260040160006040518083038186803b15801561040457600080fd5b505afa158015610418573d6000803e3d6000fd5b505050506040513d6000823e601f3d908101601f19168201604052602081101561044157600080fd5b81019080805164010000000081111561045957600080fd5b8201602081018481111561046c57600080fd5b815164010000000081118282018710171561048657600080fd5b50909695505050505050565b600092915050565b60009392505050565b6000805473ffffffffffffffffffffffffffffffffffffffff1916600160a060020a0392909216919091179055565b60008054604080517fb2bd5b6d000000000000000000000000000000000000000000000000000000008152602060048201819052600960248301527f45434453414b6565700000000000000000000000000000000000000000000000604483015291518493600160a060020a03169263b2bd5b6d9260648082019391829003018186803b15801561056257600080fd5b505afa158015610576573d6000803e3d6000fd5b505050506040513d602081101561058c57600080fd5b5051604080517fd485782700000000000000000000000000000000000000000000000000000000815260048101869052602481018790523360448201529051919250600160a060020a0383169163d4857827916064808201926020929091908290030181600087803b15801561060157600080fd5b505af1158015610615573d6000803e3d6000fd5b505050506040513d602081101561062b57600080fd5b5051949350505050565b600097965050505050505056fea265627a7a72305820b12d6fc1f0b077323b25e22695cf813d1d36a30736e3938424383ede4785a77164736f6c634300050a0032",
  "source": "pragma solidity ^0.5.10;\n\nimport {IKeep} from \"./IKeep.sol\";\n\ncontract KeepBridge is IKeep {\n    address keepRegistry;\n\n    function wasDigestApprovedForSigning(address _keepAddress, bytes32 _digest) external view returns (uint256){\n        //TODO: Implement\n        return 0;\n    }\n\n\n    function approveDigest(address _keepAddress, bytes32 _digest) external returns (bool _success){\n        //TODO: Implement\n        return _success;\n    }\n\n    function submitSignatureFraud(\n        address _keepAddress,\n        uint8 _v,\n        bytes32 _r,\n        bytes32 _s,\n        bytes32 _signedDigest,\n        bytes calldata _preimage\n    ) external returns (bool _isFraud){\n        //TODO: Implement\n        return _isFraud;\n    }\n\n    function distributeEthToKeepGroup(address _keepAddress) external payable returns (bool){\n        //TODO: Implement\n        return false;\n    }\n\n    function distributeERC20ToKeepGroup(address _keepAddress, address _asset, uint256 _value) external returns (bool){\n        //TODO: Implement\n        return false;\n    }\n\n    function requestNewKeep(uint256 _m, uint256 _n) external payable returns (address _keepAddress){\n        address keepVendorAddress = KeepRegistry(keepRegistry)\n            .getVendor(\"ECDSAKeep\");\n\n        _keepAddress = ECDSAKeepVendor(keepVendorAddress)\n            .openKeep(_n,_m, msg.sender);\n    }\n\n    // get the result of a keep formation\n    // should return a 64 byte packed pubkey (x and y)\n    // error if not ready yet\n    function getKeepPubkey(address _keepAddress) external view returns (bytes memory){\n        return ECDSAKeep(_keepAddress).getPublicKey();\n    }\n\n\n    // returns the amount of the keep's ETH bond in wei\n    function checkBondAmount(address _keepAddress) external view returns (uint256){\n        //TODO: Implement\n        return 0;\n    }\n\n    function seizeSignerBonds(address _keepAddress) external returns (bool){\n        //TODO: Implement\n        return false;\n    }\n\n    //TODO: add: onlyOwner\n    function initialize(address _keepRegistry) public {\n        keepRegistry = _keepRegistry;\n    }\n}\n\n/// @notice Interface for communication with `KeepRegistry` contract\n/// @dev It allows to call a function without the need of low-level call\ninterface KeepRegistry {\n    /// @notice Get a keep vendor contract address for a keep type.\n    /// @param _keepType Keep type.\n    /// @return Keep vendor contract address.\n    function getVendor(string calldata _keepType) external view returns (address);\n}\n\n/// @notice Interface for communication with `ECDSAKeepVendor` contract\n/// @dev It allows to call a function without the need of low-level call\ninterface ECDSAKeepVendor {\n    /// @notice Open a new ECDSA keep.\n    /// @param _groupSize Number of members in the keep.\n    /// @param _honestThreshold Minimum number of honest keep members.\n    /// @param _owner Address of the keep owner.\n    /// @return Opened keep address.\n    function openKeep(\n        uint256 _groupSize,\n        uint256 _honestThreshold,\n        address _owner\n    ) external payable returns (address keepAddress);\n}\n\n/// @notice Interface for communication with `ECDSAKeep` contract\n/// @dev It allows to call a function without the need of low-level call\ninterface ECDSAKeep {\n    /// @notice Returns the keep signer's public key.\n    /// @return Signer's public key.\n    function getPublicKey() external view returns (bytes memory);\n}\n",
  "sourcePath": "/tmp/892801fc84e9285e647acdc157d705c8aca4a9b5/implementation/contracts/interfaces/KeepBridge.sol",
  "compiler": {
    "name": "solc",
    "version": "0.5.10+commit.5a6ea5b1.Emscripten.clang"
  },
  "schemaVersion": "3.0.2",
  "updatedAt": "2019-08-06T12:54:21.930Z",
  "devdoc": {
    "methods": {}
  },
  "userdoc": {
    "methods": {}
  }
}