{
  "contractName": "KeepBridge",
  "abi": [
    {
      "constant": true,
      "inputs": [
        {
          "name": "_keepAddress",
          "type": "address"
        },
        {
          "name": "_digest",
          "type": "bytes32"
        }
      ],
      "name": "wasDigestApprovedForSigning",
      "outputs": [
        {
          "name": "",
          "type": "uint256"
        }
      ],
      "payable": false,
      "stateMutability": "view",
      "type": "function"
    },
    {
      "constant": false,
      "inputs": [
        {
          "name": "_keepAddress",
          "type": "address"
        },
        {
          "name": "_digest",
          "type": "bytes32"
        }
      ],
      "name": "approveDigest",
      "outputs": [
        {
          "name": "_success",
          "type": "bool"
        }
      ],
      "payable": false,
      "stateMutability": "nonpayable",
      "type": "function"
    },
    {
      "constant": false,
      "inputs": [
        {
          "name": "_keepAddress",
          "type": "address"
        },
        {
          "name": "_v",
          "type": "uint8"
        },
        {
          "name": "_r",
          "type": "bytes32"
        },
        {
          "name": "_s",
          "type": "bytes32"
        },
        {
          "name": "_signedDigest",
          "type": "bytes32"
        },
        {
          "name": "_preimage",
          "type": "bytes"
        }
      ],
      "name": "submitSignatureFraud",
      "outputs": [
        {
          "name": "_isFraud",
          "type": "bool"
        }
      ],
      "payable": false,
      "stateMutability": "nonpayable",
      "type": "function"
    },
    {
      "constant": false,
      "inputs": [
        {
          "name": "_keepAddress",
          "type": "address"
        }
      ],
      "name": "distributeEthToKeepGroup",
      "outputs": [
        {
          "name": "",
          "type": "bool"
        }
      ],
      "payable": true,
      "stateMutability": "payable",
      "type": "function"
    },
    {
      "constant": false,
      "inputs": [
        {
          "name": "_keepAddress",
          "type": "address"
        },
        {
          "name": "_asset",
          "type": "address"
        },
        {
          "name": "_value",
          "type": "uint256"
        }
      ],
      "name": "distributeERC20ToKeepGroup",
      "outputs": [
        {
          "name": "",
          "type": "bool"
        }
      ],
      "payable": false,
      "stateMutability": "nonpayable",
      "type": "function"
    },
    {
      "constant": false,
      "inputs": [
        {
          "name": "_m",
          "type": "uint256"
        },
        {
          "name": "_n",
          "type": "uint256"
        }
      ],
      "name": "requestNewKeep",
      "outputs": [
        {
          "name": "_keepAddress",
          "type": "address"
        }
      ],
      "payable": true,
      "stateMutability": "payable",
      "type": "function"
    },
    {
      "constant": true,
      "inputs": [
        {
          "name": "_keepAddress",
          "type": "address"
        }
      ],
      "name": "getKeepPubkey",
      "outputs": [
        {
          "name": "",
          "type": "bytes"
        }
      ],
      "payable": false,
      "stateMutability": "view",
      "type": "function"
    },
    {
      "constant": true,
      "inputs": [
        {
          "name": "_keepAddress",
          "type": "address"
        }
      ],
      "name": "checkBondAmount",
      "outputs": [
        {
          "name": "",
          "type": "uint256"
        }
      ],
      "payable": false,
      "stateMutability": "view",
      "type": "function"
    },
    {
      "constant": false,
      "inputs": [
        {
          "name": "_keepAddress",
          "type": "address"
        }
      ],
      "name": "seizeSignerBonds",
      "outputs": [
        {
          "name": "",
          "type": "bool"
        }
      ],
      "payable": false,
      "stateMutability": "nonpayable",
      "type": "function"
    },
    {
      "constant": false,
      "inputs": [
        {
          "name": "_keepRegistry",
          "type": "address"
        }
      ],
      "name": "initialize",
      "outputs": [],
      "payable": false,
      "stateMutability": "nonpayable",
      "type": "function"
    }
  ],
  "bytecode": "0x608060405234801561001057600080fd5b506105eb806100206000396000f3fe6080604052600436106100905760003560e01c8063b595b79a11610059578063b595b79a14610208578063c4d66de81461024b578063ce72b18314610280578063dafd59b2146102a3578063e951993e146102e257610090565b8062d1e7851461009557806310e03529146100cf57806324965202146101775780633bc2b388146101ac5780634889419d146101e5575b600080fd5b6100bb600480360360208110156100ab57600080fd5b50356001600160a01b031661038a565b604080519115158252519081900360200190f35b3480156100db57600080fd5b50610102600480360360208110156100f257600080fd5b50356001600160a01b0316610390565b6040805160208082528351818301528351919283929083019185019080838360005b8381101561013c578181015183820152602001610124565b50505050905090810190601f1680156101695780820380516001836020036101000a031916815260200191505b509250505060405180910390f35b34801561018357600080fd5b5061019a600480360360208110156100ab57600080fd5b60408051918252519081900360200190f35b3480156101b857600080fd5b506100bb600480360360408110156101cf57600080fd5b506001600160a01b038135169060200135610459565b3480156101f157600080fd5b5061019a600480360360408110156101cf57600080fd5b34801561021457600080fd5b506100bb6004803603606081101561022b57600080fd5b506001600160a01b03813581169160208101359091169060400135610461565b34801561025757600080fd5b5061027e6004803603602081101561026e57600080fd5b50356001600160a01b031661046a565b005b34801561028c57600080fd5b506100bb600480360360208110156100ab57600080fd5b6102c6600480360360408110156102b957600080fd5b508035906020013561048c565b604080516001600160a01b039092168252519081900360200190f35b3480156102ee57600080fd5b506100bb600480360360c081101561030557600080fd5b6001600160a01b038235169160ff602082013516916040820135916060810135916080820135919081019060c0810160a082013564010000000081111561034b57600080fd5b82018360208201111561035d57600080fd5b8035906020019184600183028401116401000000008311171561037f57600080fd5b5090925090506105a9565b50600090565b6060816001600160a01b0316632e3344526040518163ffffffff1660e01b815260040160006040518083038186803b1580156103cb57600080fd5b505afa1580156103df573d6000803e3d6000fd5b505050506040513d6000823e601f3d908101601f19168201604052602081101561040857600080fd5b81019080805164010000000081111561042057600080fd5b8201602081018481111561043357600080fd5b815164010000000081118282018710171561044d57600080fd5b50909695505050505050565b600092915050565b60009392505050565b600080546001600160a01b0319166001600160a01b0392909216919091179055565b600080546040805163b2bd5b6d60e01b81526020600482018190526009602483015268045434453414b6565760bc1b6044830152915184936001600160a01b03169263b2bd5b6d9260648082019391829003018186803b1580156104ef57600080fd5b505afa158015610503573d6000803e3d6000fd5b505050506040513d602081101561051957600080fd5b50516040805163d485782760e01b8152600481018690526024810187905233604482015290519192506001600160a01b0383169163d4857827916064808201926020929091908290030181600087803b15801561057557600080fd5b505af1158015610589573d6000803e3d6000fd5b505050506040513d602081101561059f57600080fd5b5051949350505050565b600097965050505050505056fea265627a7a723058203aab08db905bda6b49ecee0e78443f9fa1e1b5f11cf80558eeda909467b9895864736f6c634300050a0032",
  "source": "pragma solidity ^0.5.10;\n\nimport {IKeep} from \"./IKeep.sol\";\n\ncontract KeepBridge is IKeep {\n    address keepRegistry;\n\n    function wasDigestApprovedForSigning(address _keepAddress, bytes32 _digest) external view returns (uint256){\n        //TODO: Implement\n        return 0;\n    }\n\n\n    function approveDigest(address _keepAddress, bytes32 _digest) external returns (bool _success){\n        //TODO: Implement\n        return _success;\n    }\n\n    function submitSignatureFraud(\n        address _keepAddress,\n        uint8 _v,\n        bytes32 _r,\n        bytes32 _s,\n        bytes32 _signedDigest,\n        bytes calldata _preimage\n    ) external returns (bool _isFraud){\n        //TODO: Implement\n        return _isFraud;\n    }\n\n    function distributeEthToKeepGroup(address _keepAddress) external payable returns (bool){\n        //TODO: Implement\n        return false;\n    }\n\n    function distributeERC20ToKeepGroup(address _keepAddress, address _asset, uint256 _value) external returns (bool){\n        //TODO: Implement\n        return false;\n    }\n\n    function requestNewKeep(uint256 _m, uint256 _n) external payable returns (address _keepAddress){\n        address keepVendorAddress = KeepRegistry(keepRegistry)\n            .getVendor(\"ECDSAKeep\");\n\n        _keepAddress = ECDSAKeepVendor(keepVendorAddress)\n            .openKeep(_n,_m, msg.sender);\n    }\n\n    // get the result of a keep formation\n    // should return a 64 byte packed pubkey (x and y)\n    // error if not ready yet\n    function getKeepPubkey(address _keepAddress) external view returns (bytes memory){\n        return ECDSAKeep(_keepAddress).getPublicKey();\n    }\n\n\n    // returns the amount of the keep's ETH bond in wei\n    function checkBondAmount(address _keepAddress) external view returns (uint256){\n        //TODO: Implement\n        return 0;\n    }\n\n    function seizeSignerBonds(address _keepAddress) external returns (bool){\n        //TODO: Implement\n        return false;\n    }\n\n    //TODO: add: onlyOwner\n    function initialize(address _keepRegistry) public {\n        keepRegistry = _keepRegistry;\n    }\n}\n\n/// @notice Interface for communication with `KeepRegistry` contract\n/// @dev It allows to call a function without the need of low-level call\ninterface KeepRegistry {\n    /// @notice Get a keep vendor contract address for a keep type.\n    /// @param _keepType Keep type.\n    /// @return Keep vendor contract address.\n    function getVendor(string calldata _keepType) external view returns (address);\n}\n\n/// @notice Interface for communication with `ECDSAKeepVendor` contract\n/// @dev It allows to call a function without the need of low-level call\ninterface ECDSAKeepVendor {\n    /// @notice Open a new ECDSA keep.\n    /// @param _groupSize Number of members in the keep.\n    /// @param _honestThreshold Minimum number of honest keep members.\n    /// @param _owner Address of the keep owner.\n    /// @return Opened keep address.\n    function openKeep(\n        uint256 _groupSize,\n        uint256 _honestThreshold,\n        address _owner\n    ) external payable returns (address keepAddress);\n}\n\n/// @notice Interface for communication with `ECDSAKeep` contract\n/// @dev It allows to call a function without the need of low-level call\ninterface ECDSAKeep {\n    /// @notice Returns the keep signer's public key.\n    /// @return Signer's public key.\n    function getPublicKey() external view returns (bytes memory);\n}\n",
  "sourcePath": "/Users/liamz/go/src/github.com/keep-network/tbtc/implementation/contracts/interfaces/KeepBridge.sol",
  "compiler": {
    "name": "solc",
    "version": "0.5.10+commit.5a6ea5b1.Emscripten.clang"
  },
  "schemaVersion": "3.0.10",
  "updatedAt": "2019-08-01T17:39:26.893Z",
  "devdoc": {
    "methods": {}
  },
  "userdoc": {
    "methods": {}
  }
}