{
  "contractName": "PriceOracleV1",
  "abi": [
    {
      "constant": true,
      "inputs": [],
      "name": "operator",
      "outputs": [
        {
          "name": "",
          "type": "address"
        }
      ],
      "payable": false,
      "stateMutability": "view",
      "type": "function"
    },
    {
      "constant": true,
      "inputs": [],
      "name": "priceExpiryTime",
      "outputs": [
        {
          "name": "",
          "type": "uint256"
        }
      ],
      "payable": false,
      "stateMutability": "view",
      "type": "function"
    },
    {
      "inputs": [
        {
          "name": "_operator",
          "type": "address"
        },
        {
          "name": "_defaultPrice",
          "type": "uint128"
        }
      ],
      "payable": false,
      "stateMutability": "nonpayable",
      "type": "constructor"
    },
    {
      "anonymous": false,
      "inputs": [
        {
          "indexed": false,
          "name": "price",
          "type": "uint128"
        },
        {
          "indexed": false,
          "name": "priceExpiryTime",
          "type": "uint256"
        }
      ],
      "name": "PriceUpdated",
      "type": "event"
    },
    {
      "constant": true,
      "inputs": [],
      "name": "getPrice",
      "outputs": [
        {
          "name": "",
          "type": "uint128"
        }
      ],
      "payable": false,
      "stateMutability": "view",
      "type": "function"
    },
    {
      "constant": false,
      "inputs": [
        {
          "name": "_newPrice",
          "type": "uint128"
        }
      ],
      "name": "updatePrice",
      "outputs": [],
      "payable": false,
      "stateMutability": "nonpayable",
      "type": "function"
    }
  ],
  "bytecode": "0x608060405234801561001057600080fd5b5060405161042a38038061042a8339818101604052604081101561003357600080fd5b508051602090910151600280546001600160a01b0319166001600160a01b0390931692909217909155600080546001600160801b0319166001600160801b03909216919091178155615460420160015561039790819061009390396000f3fe608060405234801561001057600080fd5b506004361061004c5760003560e01c806347fe0bcc14610051578063570ca7351461007957806398d5fdca1461009d578063d04a9d40146100c1575b600080fd5b6100776004803603602081101561006757600080fd5b50356001600160801b03166100db565b005b610081610285565b604080516001600160a01b039092168252519081900360200190f35b6100a5610294565b604080516001600160801b039092168252519081900360200190f35b6100c96102ec565b60408051918252519081900360200190f35b6002546001600160a01b03163314610129576040805162461bcd60e51b815260206004820152600c60248201526b155b985d5d1a1bdc9a5cd95960a21b604482015290519081900360640190fd5b60015442610e0f199091011115806102125760008054610159906001600160801b0316606463ffffffff6102f216565b60008054919250906001600160801b039081169085161161019957600054610194906001600160801b0390811690861663ffffffff61030516565b6101b8565b6000546101b8906001600160801b03868116911663ffffffff61030516565b90508181101561020f576040805162461bcd60e51b815260206004820181905260248201527f5072696365206368616e6765206973206e65676c696769626c6520283c312529604482015290519081900360640190fd5b50505b600080546fffffffffffffffffffffffffffffffff19166001600160801b0384811691909117918290556154604201600181905560408051939092168352602083015280517fa6fa673e7ebd4e1dc9e539a5264544263b2041311693d8bb72e37ae63fd4f73e9281900390910190a15050565b6002546001600160a01b031681565b600060015442106102dc576040805162461bcd60e51b815260206004820152600d60248201526c141c9a58d948195e1c1a5c9959609a1b604482015290519081900360640190fd5b506000546001600160801b031690565b60015481565b60008183816102fd57fe5b049392505050565b60008282111561035c576040805162461bcd60e51b815260206004820152601d60248201527f556e646572666c6f7720647572696e67207375627472616374696f6e2e000000604482015290519081900360640190fd5b5090039056fea265627a7a723058202122ff4f53a80e13dee0c810234e5aae199da72c5238b7b447a0e76cac7de9a264736f6c634300050a0032",
  "source": "pragma solidity ^0.5.10;\n\nimport {SafeMath} from \"bitcoin-spv/contracts/SafeMath.sol\";\nimport \"../interfaces/IPriceOracle.sol\";\n\n/// @title BTC-ETH Price Oracle V1\n/// @notice Implements a simple price feed, managed by a trusted operator.\ncontract PriceOracleV1 is IPriceOracle {\n    using SafeMath for uint128;\n\n    // Price of BTC expressed in ETH, denominated in `x` wei to a satoshi.\n    //\n    // A bitcoin has 8 decimal places, the smallest unit a satoshi,\n    // meaning 100 000 000 sat = 1 bitcoin\n    //\n    // An ether by contract, has 18 decimal places, the smallest unit a wei,\n    // meaning 1 000 000 000 000 000 000 wei = 1 ether\n    //\n    // eg. 1 BTC : 32.32 ETH (Jun 2019), which represents:\n    //     100 000 000 sat : 32 320 000 000 000 000 000 wei\n    //               1 sat : 323 200 000 000 wei\n    //               price = 323200000000\n    //\n    // uint128 can store an int of max size 2^128 (3.403 e38)\n    // 38 decimals should be enough to store the price of a satoshi in wei\n    uint128 internal price;\n\n    // The time at which the last price update is not valid for usage.\n    uint256 public priceExpiryTime;\n    uint256 constant PRICE_EXPIRY_PERIOD = 6 hours;\n    uint256 constant PRICE_NEAR_EXPIRY_PERIOD = 1 hours;\n\n    // Trusted user that updates the oracle.\n    address public operator;\n\n    constructor(\n        address _operator,\n        uint128 _defaultPrice\n    ) public {\n        operator = _operator;\n        price = _defaultPrice;\n        priceExpiryTime = block.timestamp + PRICE_EXPIRY_PERIOD;\n    }\n\n    function getPrice() external view returns (uint128) {\n        require(block.timestamp < priceExpiryTime, \"Price expired\");\n        return price;\n    }\n\n    /// @notice Updates the price\n    /// @dev Requires price to differ by at least 1%, unless it is close to expiry\n    function updatePrice(uint128 _newPrice) external {\n        require(msg.sender == operator, \"Unauthorised\");\n\n        bool nearExpiry = (priceExpiryTime - PRICE_NEAR_EXPIRY_PERIOD) <= block.timestamp;\n\n        if(!nearExpiry) {\n            // abs(1 - (p1 / p0)) > 0.01\n            // p0 * 0.01 = minimum delta\n            // 1% = 0.01 = 1/100\n            uint256 minDelta = price.div(100);\n            /* solium-disable */\n            uint256 delta = _newPrice > price\n                            ? _newPrice.sub(price)\n                            : price.sub(_newPrice);\n            /* solium-enable */\n            require(delta >= minDelta, \"Price change is negligible (<1%)\");\n        }\n\n        price = _newPrice;\n        priceExpiryTime = block.timestamp + PRICE_EXPIRY_PERIOD;\n\n        emit PriceUpdated(price, priceExpiryTime);\n    }\n}\n",
  "sourcePath": "/Users/liamz/go/src/github.com/keep-network/tbtc/implementation/contracts/price-oracle/PriceOracleV1.sol",
  "compiler": {
    "name": "solc",
    "version": "0.5.10+commit.5a6ea5b1.Emscripten.clang"
  },
  "schemaVersion": "3.0.10",
  "updatedAt": "2019-08-01T17:39:26.879Z",
  "devdoc": {
    "methods": {
      "updatePrice(uint128)": {
        "details": "Requires price to differ by at least 1%, unless it is close to expiry"
      }
    },
    "title": "BTC-ETH Price Oracle V1"
  },
  "userdoc": {
    "methods": {
      "updatePrice(uint128)": {
        "notice": "Updates the price"
      }
    },
    "notice": "Implements a simple price feed, managed by a trusted operator."
  }
}