{
  "contractName": "TBTCSystem",
  "abi": [
    {
      "constant": false,
      "inputs": [],
      "name": "logCourtesyCalled",
      "outputs": [
        {
          "name": "",
          "type": "bool"
        }
      ],
      "payable": false,
      "stateMutability": "nonpayable",
      "type": "function",
      "signature": "0x22a147e6"
    },
    {
      "constant": false,
      "inputs": [],
      "name": "logExitedCourtesyCall",
      "outputs": [
        {
          "name": "",
          "type": "bool"
        }
      ],
      "payable": false,
      "stateMutability": "nonpayable",
      "type": "function",
      "signature": "0x22e5724c"
    },
    {
      "constant": false,
      "inputs": [
        {
          "name": "_keepAddress",
          "type": "address"
        }
      ],
      "name": "logCreated",
      "outputs": [
        {
          "name": "",
          "type": "bool"
        }
      ],
      "payable": false,
      "stateMutability": "nonpayable",
      "type": "function",
      "signature": "0x282bfd38"
    },
    {
      "constant": false,
      "inputs": [
        {
          "name": "_requester",
          "type": "address"
        },
        {
          "name": "_digest",
          "type": "bytes32"
        },
        {
          "name": "_utxoSize",
          "type": "uint256"
        },
        {
          "name": "_requesterPKH",
          "type": "bytes20"
        },
        {
          "name": "_requestedFee",
          "type": "uint256"
        },
        {
          "name": "_outpoint",
          "type": "bytes"
        }
      ],
      "name": "logRedemptionRequested",
      "outputs": [
        {
          "name": "",
          "type": "bool"
        }
      ],
      "payable": false,
      "stateMutability": "nonpayable",
      "type": "function",
      "signature": "0x2b8af661"
    },
    {
      "constant": false,
      "inputs": [
        {
          "name": "_wasFraud",
          "type": "bool"
        }
      ],
      "name": "logStartedLiquidation",
      "outputs": [
        {
          "name": "",
          "type": "bool"
        }
      ],
      "payable": false,
      "stateMutability": "nonpayable",
      "type": "function",
      "signature": "0x3aac3467"
    },
    {
      "constant": false,
      "inputs": [
        {
          "name": "_txid",
          "type": "bytes32"
        }
      ],
      "name": "logRedeemed",
      "outputs": [
        {
          "name": "",
          "type": "bool"
        }
      ],
      "payable": false,
      "stateMutability": "nonpayable",
      "type": "function",
      "signature": "0x6e1ba283"
    },
    {
      "constant": false,
      "inputs": [
        {
          "name": "_signingGroupPubkeyX",
          "type": "bytes32"
        },
        {
          "name": "_signingGroupPubkeyY",
          "type": "bytes32"
        }
      ],
      "name": "logRegisteredPubkey",
      "outputs": [
        {
          "name": "",
          "type": "bool"
        }
      ],
      "payable": false,
      "stateMutability": "nonpayable",
      "type": "function",
      "signature": "0x869f9469"
    },
    {
      "constant": false,
      "inputs": [],
      "name": "logFunded",
      "outputs": [
        {
          "name": "",
          "type": "bool"
        }
      ],
      "payable": false,
      "stateMutability": "nonpayable",
      "type": "function",
      "signature": "0x8c736503"
    },
    {
      "constant": true,
      "inputs": [
        {
          "name": "_caller",
          "type": "address"
        }
      ],
      "name": "approvedToLog",
      "outputs": [
        {
          "name": "",
          "type": "bool"
        }
      ],
      "payable": false,
      "stateMutability": "view",
      "type": "function",
      "signature": "0x9ffb3862"
    },
    {
      "constant": false,
      "inputs": [],
      "name": "logSetupFailed",
      "outputs": [
        {
          "name": "",
          "type": "bool"
        }
      ],
      "payable": false,
      "stateMutability": "nonpayable",
      "type": "function",
      "signature": "0xa831c816"
    },
    {
      "constant": false,
      "inputs": [],
      "name": "logLiquidated",
      "outputs": [
        {
          "name": "",
          "type": "bool"
        }
      ],
      "payable": false,
      "stateMutability": "nonpayable",
      "type": "function",
      "signature": "0xc8fba243"
    },
    {
      "constant": false,
      "inputs": [],
      "name": "logFraudDuringSetup",
      "outputs": [
        {
          "name": "",
          "type": "bool"
        }
      ],
      "payable": false,
      "stateMutability": "nonpayable",
      "type": "function",
      "signature": "0xe2c50ad8"
    },
    {
      "constant": false,
      "inputs": [
        {
          "name": "_digest",
          "type": "bytes32"
        },
        {
          "name": "_r",
          "type": "bytes32"
        },
        {
          "name": "_s",
          "type": "bytes32"
        }
      ],
      "name": "logGotRedemptionSignature",
      "outputs": [
        {
          "name": "",
          "type": "bool"
        }
      ],
      "payable": false,
      "stateMutability": "nonpayable",
      "type": "function",
      "signature": "0xf760621e"
    },
    {
      "anonymous": false,
      "inputs": [
        {
          "indexed": true,
          "name": "_depositContractAddress",
          "type": "address"
        },
        {
          "indexed": true,
          "name": "_keepAddress",
          "type": "address"
        },
        {
          "indexed": false,
          "name": "_timestamp",
          "type": "uint256"
        }
      ],
      "name": "Created",
      "type": "event",
      "signature": "0x822b3073be62c5c7f143c2dcd71ee266434ee935d90a1eec3be34710ac8ec1a2"
    },
    {
      "anonymous": false,
      "inputs": [
        {
          "indexed": true,
          "name": "_depositContractAddress",
          "type": "address"
        },
        {
          "indexed": true,
          "name": "_requester",
          "type": "address"
        },
        {
          "indexed": true,
          "name": "_digest",
          "type": "bytes32"
        },
        {
          "indexed": false,
          "name": "_utxoSize",
          "type": "uint256"
        },
        {
          "indexed": false,
          "name": "_requesterPKH",
          "type": "bytes20"
        },
        {
          "indexed": false,
          "name": "_requestedFee",
          "type": "uint256"
        },
        {
          "indexed": false,
          "name": "_outpoint",
          "type": "bytes"
        }
      ],
      "name": "RedemptionRequested",
      "type": "event",
      "signature": "0xc878d7c38ac02179fd80904f0f6c8126ea8659612f4cbb389af37ddf671eb761"
    },
    {
      "anonymous": false,
      "inputs": [
        {
          "indexed": true,
          "name": "_depositContractAddress",
          "type": "address"
        },
        {
          "indexed": true,
          "name": "_digest",
          "type": "bytes32"
        },
        {
          "indexed": false,
          "name": "_r",
          "type": "bytes32"
        },
        {
          "indexed": false,
          "name": "_s",
          "type": "bytes32"
        },
        {
          "indexed": false,
          "name": "_timestamp",
          "type": "uint256"
        }
      ],
      "name": "GotRedemptionSignature",
      "type": "event",
      "signature": "0x7f7d7327762d01d2c4a552ea0be2bc5a76264574a80aa78083e691a840e509f2"
    },
    {
      "anonymous": false,
      "inputs": [
        {
          "indexed": true,
          "name": "_depositContractAddress",
          "type": "address"
        },
        {
          "indexed": false,
          "name": "_signingGroupPubkeyX",
          "type": "bytes32"
        },
        {
          "indexed": false,
          "name": "_signingGroupPubkeyY",
          "type": "bytes32"
        },
        {
          "indexed": false,
          "name": "_timestamp",
          "type": "uint256"
        }
      ],
      "name": "RegisteredPubkey",
      "type": "event",
      "signature": "0x8ee737ab16909c4e9d1b750814a4393c9f84ab5d3a29c08c313b783fc846ae33"
    },
    {
      "anonymous": false,
      "inputs": [
        {
          "indexed": true,
          "name": "_depositContractAddress",
          "type": "address"
        },
        {
          "indexed": false,
          "name": "_timestamp",
          "type": "uint256"
        }
      ],
      "name": "SetupFailed",
      "type": "event",
      "signature": "0x8fd2cfb62a35fccc1ecef829f83a6c2f840b73dad49d3eaaa402909752086d4b"
    },
    {
      "anonymous": false,
      "inputs": [
        {
          "indexed": true,
          "name": "_depositContractAddress",
          "type": "address"
        },
        {
          "indexed": false,
          "name": "_timestamp",
          "type": "uint256"
        }
      ],
      "name": "FraudDuringSetup",
      "type": "event",
      "signature": "0x1e61af503f1d7de21d5300094c18bf8700f82b2951a4d54dd2adda13f6b3da30"
    },
    {
      "anonymous": false,
      "inputs": [
        {
          "indexed": true,
          "name": "_depositContractAddress",
          "type": "address"
        },
        {
          "indexed": false,
          "name": "_timestamp",
          "type": "uint256"
        }
      ],
      "name": "Funded",
      "type": "event",
      "signature": "0x5af8184bef8e4b45eb9f6ed7734d04da38ced226495548f46e0c8ff8d7d9a524"
    },
    {
      "anonymous": false,
      "inputs": [
        {
          "indexed": true,
          "name": "_depositContractAddress",
          "type": "address"
        },
        {
          "indexed": false,
          "name": "_timestamp",
          "type": "uint256"
        }
      ],
      "name": "CourtesyCalled",
      "type": "event",
      "signature": "0x6e7b45210b79c12cd1332babd8d86c0bbb9ca898a89ce0404f17064dbfba18c0"
    },
    {
      "anonymous": false,
      "inputs": [
        {
          "indexed": true,
          "name": "_depositContractAddress",
          "type": "address"
        },
        {
          "indexed": false,
          "name": "_timestamp",
          "type": "uint256"
        }
      ],
      "name": "ExitedCourtesyCall",
      "type": "event",
      "signature": "0x07f0eaafadb9abb1d28da85d4b4c74f1939fd61b535c7f5ab501f618f07e76ee"
    },
    {
      "anonymous": false,
      "inputs": [
        {
          "indexed": true,
          "name": "_depositContractAddress",
          "type": "address"
        },
        {
          "indexed": false,
          "name": "_wasFraud",
          "type": "bool"
        },
        {
          "indexed": false,
          "name": "_timestamp",
          "type": "uint256"
        }
      ],
      "name": "StartedLiquidation",
      "type": "event",
      "signature": "0xbef11c059eefba82a15aea8a3a89c86fd08d7711c88fa7daea2632a55488510c"
    },
    {
      "anonymous": false,
      "inputs": [
        {
          "indexed": true,
          "name": "_depositContractAddress",
          "type": "address"
        },
        {
          "indexed": true,
          "name": "_txid",
          "type": "bytes32"
        },
        {
          "indexed": false,
          "name": "_timestamp",
          "type": "uint256"
        }
      ],
      "name": "Redeemed",
      "type": "event",
      "signature": "0x44b7f176bcc739b54bd0800fe491cbdea19df7d4d6b19c281462e6b4fc504344"
    },
    {
      "anonymous": false,
      "inputs": [
        {
          "indexed": true,
          "name": "_depositContractAddress",
          "type": "address"
        },
        {
          "indexed": false,
          "name": "_timestamp",
          "type": "uint256"
        }
      ],
      "name": "Liquidated",
      "type": "event",
      "signature": "0xa5ee7a2b0254fce91deed604506790ed7fa072d0b14cba4859c3bc8955b9caac"
    },
    {
      "anonymous": false,
      "inputs": [
        {
          "indexed": true,
          "name": "from",
          "type": "address"
        },
        {
          "indexed": true,
          "name": "to",
          "type": "address"
        },
        {
          "indexed": true,
          "name": "tokenId",
          "type": "uint256"
        }
      ],
      "name": "Transfer",
      "type": "event",
      "signature": "0xddf252ad1be2c89b69c2b068fc378daa952ba7f163c4a11628f55a4df523b3ef"
    },
    {
      "anonymous": false,
      "inputs": [
        {
          "indexed": true,
          "name": "owner",
          "type": "address"
        },
        {
          "indexed": true,
          "name": "approved",
          "type": "address"
        },
        {
          "indexed": true,
          "name": "tokenId",
          "type": "uint256"
        }
      ],
      "name": "Approval",
      "type": "event",
      "signature": "0x8c5be1e5ebec7d5bd14f71427d1e84f3dd0314c0f7b2291e5b200ac8c7c3b925"
    },
    {
      "anonymous": false,
      "inputs": [
        {
          "indexed": true,
          "name": "owner",
          "type": "address"
        },
        {
          "indexed": true,
          "name": "operator",
          "type": "address"
        },
        {
          "indexed": false,
          "name": "approved",
          "type": "bool"
        }
      ],
      "name": "ApprovalForAll",
      "type": "event",
      "signature": "0x17307eab39ab6107e8899845ad3d59bd9653f200f220920489ca2b5937696c31"
    },
    {
      "constant": true,
      "inputs": [],
      "name": "fetchOraclePrice",
      "outputs": [
        {
          "name": "",
          "type": "uint256"
        }
      ],
      "payable": false,
      "stateMutability": "view",
      "type": "function",
      "signature": "0xadd1c817"
    },
    {
      "constant": true,
      "inputs": [],
      "name": "fetchRelayCurrentDifficulty",
      "outputs": [
        {
          "name": "",
          "type": "uint256"
        }
      ],
      "payable": false,
      "stateMutability": "view",
      "type": "function",
      "signature": "0xdab70cb1"
    },
    {
      "constant": true,
      "inputs": [],
      "name": "fetchRelayPreviousDifficulty",
      "outputs": [
        {
          "name": "",
          "type": "uint256"
        }
      ],
      "payable": false,
      "stateMutability": "view",
      "type": "function",
      "signature": "0x402b783d"
    },
    {
      "constant": false,
      "inputs": [
        {
          "name": "_currentDifficulty",
          "type": "uint256"
        }
      ],
      "name": "submitCurrentDifficulty",
      "outputs": [],
      "payable": false,
      "stateMutability": "nonpayable",
      "type": "function",
      "signature": "0x0bcfd609"
    },
    {
      "constant": true,
      "inputs": [
        {
          "name": "_owner",
          "type": "address"
        }
      ],
      "name": "balanceOf",
      "outputs": [
        {
          "name": "balance",
          "type": "uint256"
        }
      ],
      "payable": false,
      "stateMutability": "view",
      "type": "function",
      "signature": "0x70a08231"
    },
    {
      "constant": true,
      "inputs": [
        {
          "name": "_tokenId",
          "type": "uint256"
        }
      ],
      "name": "ownerOf",
      "outputs": [
        {
          "name": "owner",
          "type": "address"
        }
      ],
      "payable": false,
      "stateMutability": "view",
      "type": "function",
      "signature": "0x6352211e"
    },
    {
      "constant": false,
      "inputs": [
        {
          "name": "_to",
          "type": "address"
        },
        {
          "name": "_tokenId",
          "type": "uint256"
        }
      ],
      "name": "approve",
      "outputs": [],
      "payable": false,
      "stateMutability": "nonpayable",
      "type": "function",
      "signature": "0x095ea7b3"
    },
    {
      "constant": true,
      "inputs": [
        {
          "name": "_tokenId",
          "type": "uint256"
        }
      ],
      "name": "getApproved",
      "outputs": [
        {
          "name": "operator",
          "type": "address"
        }
      ],
      "payable": false,
      "stateMutability": "view",
      "type": "function",
      "signature": "0x081812fc"
    },
    {
      "constant": false,
      "inputs": [
        {
          "name": "_operator",
          "type": "address"
        },
        {
          "name": "_approved",
          "type": "bool"
        }
      ],
      "name": "setApprovalForAll",
      "outputs": [],
      "payable": false,
      "stateMutability": "nonpayable",
      "type": "function",
      "signature": "0xa22cb465"
    },
    {
      "constant": true,
      "inputs": [
        {
          "name": "_owner",
          "type": "address"
        },
        {
          "name": "_operator",
          "type": "address"
        }
      ],
      "name": "isApprovedForAll",
      "outputs": [
        {
          "name": "",
          "type": "bool"
        }
      ],
      "payable": false,
      "stateMutability": "view",
      "type": "function",
      "signature": "0xe985e9c5"
    },
    {
      "constant": false,
      "inputs": [
        {
          "name": "_from",
          "type": "address"
        },
        {
          "name": "_to",
          "type": "address"
        },
        {
          "name": "_tokenId",
          "type": "uint256"
        }
      ],
      "name": "transferFrom",
      "outputs": [],
      "payable": false,
      "stateMutability": "nonpayable",
      "type": "function",
      "signature": "0x23b872dd"
    },
    {
      "constant": false,
      "inputs": [
        {
          "name": "_from",
          "type": "address"
        },
        {
          "name": "_to",
          "type": "address"
        },
        {
          "name": "_tokenId",
          "type": "uint256"
        }
      ],
      "name": "safeTransferFrom",
      "outputs": [],
      "payable": false,
      "stateMutability": "nonpayable",
      "type": "function",
      "signature": "0x42842e0e"
    },
    {
      "constant": false,
      "inputs": [
        {
          "name": "_from",
          "type": "address"
        },
        {
          "name": "_to",
          "type": "address"
        },
        {
          "name": "_tokenId",
          "type": "uint256"
        },
        {
          "name": "_data",
          "type": "bytes"
        }
      ],
      "name": "safeTransferFrom",
      "outputs": [],
      "payable": false,
      "stateMutability": "nonpayable",
      "type": "function",
      "signature": "0xb88d4fde"
    }
  ],
  "bytecode": "0x60806040526001600081905580805564e8d4a5100060025560038054600160a060020a031916909117905534801561003657600080fd5b50610b59806100466000396000f3fe608060405234801561001057600080fd5b50600436106101ab576000357c01000000000000000000000000000000000000000000000000000000009004806370a08231116100fb578063add1c817116100b4578063dab70cb11161008e578063dab70cb114610587578063e2c50ad81461058f578063e985e9c514610597578063f760621e146105c5576101ab565b8063add1c817146104b1578063b88d4fde146104b9578063c8fba2431461057f576101ab565b806370a0823114610404578063869f94691461042a5780638c7365031461044d5780639ffb386214610455578063a22cb4651461047b578063a831c816146104a9576101ab565b8063282bfd3811610168578063402b783d11610142578063402b783d146103b057806342842e0e146102585780636352211e146103ca5780636e1ba283146103e7576101ab565b8063282bfd381461028e5780632b8af661146102b45780633aac346714610391576101ab565b8063081812fc146101b0578063095ea7b3146101e95780630bcfd6091461021757806322a147e61461023457806322e5724c1461025057806323b872dd14610258575b600080fd5b6101cd600480360360208110156101c657600080fd5b50356105ee565b60408051600160a060020a039092168252519081900360200190f35b610215600480360360408110156101ff57600080fd5b50600160a060020a0381351690602001356105f4565b005b6102156004803603602081101561022d57600080fd5b50356105f8565b61023c61060f565b604080519115158252519081900360200190f35b61023c610663565b6102156004803603606081101561026e57600080fd5b50600160a060020a038135811691602081013590911690604001356106b6565b61023c600480360360208110156102a457600080fd5b5035600160a060020a03166106bb565b61023c600480360360c08110156102ca57600080fd5b600160a060020a03823516916020810135916040820135916bffffffffffffffffffffffff19606082013516916080820135919081019060c0810160a082013564010000000081111561031c57600080fd5b82018360208201111561032e57600080fd5b8035906020019184600183028401116401000000008311171561035057600080fd5b91908080601f01602080910402602001604051908101604052809392919081815260200183838082843760009201919091525092955061071b945050505050565b61023c600480360360208110156103a757600080fd5b50351515610824565b6103b861087e565b60408051918252519081900360200190f35b6101cd600480360360208110156103e057600080fd5b5035610884565b61023c600480360360208110156103fd57600080fd5b5035610894565b6103b86004803603602081101561041a57600080fd5b5035600160a060020a03166108ea565b61023c6004803603604081101561044057600080fd5b50803590602001356108f0565b61023c610953565b61023c6004803603602081101561046b57600080fd5b5035600160a060020a03166109a6565b6102156004803603604081101561049157600080fd5b50600160a060020a03813516906020013515156105f4565b61023c6109ac565b6103b86109ff565b610215600480360360808110156104cf57600080fd5b600160a060020a0382358116926020810135909116916040820135919081019060808101606082013564010000000081111561050a57600080fd5b82018360208201111561051c57600080fd5b8035906020019184600183028401116401000000008311171561053e57600080fd5b91908080601f016020809104026020016040519081016040528093929190818152602001838380828437600092019190915250929550610a05945050505050565b61023c610a0b565b6103b8610a5e565b61023c610a64565b61023c600480360360408110156105ad57600080fd5b50600160a060020a0381358116916020013516610ab7565b61023c600480360360608110156105db57600080fd5b5080359060208101359060400135610abf565b50600890565b5050565b806000541461060c57600080546001558190555b50565b600061061a336109a6565b61062657506000610660565b60408051428152905133917f6e7b45210b79c12cd1332babd8d86c0bbb9ca898a89ce0404f17064dbfba18c0919081900360200190a25060015b90565b600061066e336109a6565b61067a57506000610660565b60408051428152905133917f07f0eaafadb9abb1d28da85d4b4c74f1939fd61b535c7f5ab501f618f07e76ee919081900360200190a250600190565b505050565b60006106c6336109a6565b6106d257506000610716565b604080514281529051600160a060020a0384169133917f822b3073be62c5c7f143c2dcd71ee266434ee935d90a1eec3be34710ac8ec1a29181900360200190a35060015b919050565b6000610726336109a6565b6107325750600061081a565b8587600160a060020a031633600160a060020a03167fc878d7c38ac02179fd80904f0f6c8126ea8659612f4cbb389af37ddf671eb7618888888860405180858152602001846bffffffffffffffffffffffff19166bffffffffffffffffffffffff1916815260200183815260200180602001828103825283818151815260200191508051906020019080838360005b838110156107d95781810151838201526020016107c1565b50505050905090810190601f1680156108065780820380516001836020036101000a031916815260200191505b509550505050505060405180910390a45060015b9695505050505050565b600061082f336109a6565b61083b57506000610716565b604080518315158152426020820152815133927fbef11c059eefba82a15aea8a3a89c86fd08d7711c88fa7daea2632a55488510c928290030190a2506001919050565b60015490565b50600354600160a060020a031690565b600061089f336109a6565b6108ab57506000610716565b604080514281529051839133917f44b7f176bcc739b54bd0800fe491cbdea19df7d4d6b19c281462e6b4fc5043449181900360200190a3506001919050565b50600090565b60006108fb336109a6565b6109075750600061094d565b60408051848152602081018490524281830152905133917f8ee737ab16909c4e9d1b750814a4393c9f84ab5d3a29c08c313b783fc846ae33919081900360600190a25060015b92915050565b600061095e336109a6565b61096a57506000610660565b60408051428152905133917f5af8184bef8e4b45eb9f6ed7734d04da38ced226495548f46e0c8ff8d7d9a524919081900360200190a250600190565b50600190565b60006109b7336109a6565b6109c357506000610660565b60408051428152905133917f8fd2cfb62a35fccc1ecef829f83a6c2f840b73dad49d3eaaa402909752086d4b919081900360200190a250600190565b60025490565b50505050565b6000610a16336109a6565b610a2257506000610660565b60408051428152905133917fa5ee7a2b0254fce91deed604506790ed7fa072d0b14cba4859c3bc8955b9caac919081900360200190a250600190565b60005490565b6000610a6f336109a6565b610a7b57506000610660565b60408051428152905133917f1e61af503f1d7de21d5300094c18bf8700f82b2951a4d54dd2adda13f6b3da30919081900360200190a250600190565b600092915050565b6000610aca336109a6565b610ad657506000610b1d565b604080518481526020810184905242818301529051859133917f7f7d7327762d01d2c4a552ea0be2bc5a76264574a80aa78083e691a840e509f29181900360600190a35060015b939250505056fea265627a7a72305820181eb0521ae3f8e4b7789fe124dfecdcc8db06d0014abf8560380ec2e82d409f64736f6c634300050a0032",
  "source": "pragma solidity ^0.5.10;\n\nimport {ITBTCSystem} from \"../interfaces/ITBTCSystem.sol\";\nimport {IERC721} from \"../interfaces/IERC721.sol\";\nimport {DepositLog} from \"../DepositLog.sol\";\n\ncontract TBTCSystem is ITBTCSystem, IERC721, DepositLog {\n\n    uint256 currentDifficulty = 1;\n    uint256 previousDifficulty = 1;\n    uint256 oraclePrice = 10 ** 12;\n    address depositOwner = address(1);\n\n    // Price Oracle\n    function fetchOraclePrice() external view returns (uint256) {return oraclePrice;}\n\n    // Difficulty Oracle\n    // TODO: This is a workaround. It will be replaced by tbtc-difficulty-oracle.\n    function fetchRelayCurrentDifficulty() external view returns (uint256) {\n        return currentDifficulty;\n    }\n\n    function fetchRelayPreviousDifficulty() external view returns (uint256) {\n        return previousDifficulty;\n    }\n\n    function submitCurrentDifficulty(uint256 _currentDifficulty) public {\n        if (currentDifficulty != _currentDifficulty) {\n            previousDifficulty = currentDifficulty;\n            currentDifficulty = _currentDifficulty;\n        }\n    }\n\n    // ERC721\n    function balanceOf(address _owner) public view returns (uint256 balance) {_owner; balance = 0;}\n    function ownerOf(uint256 _tokenId) public view returns (address owner) {_tokenId; owner = depositOwner;}\n    function approve(address _to, uint256 _tokenId) public {_to; _tokenId;}\n    function getApproved(uint256 _tokenId) public view returns (address operator) {_tokenId; operator = address(8);}\n    function setApprovalForAll(address _operator, bool _approved) public {_operator; _approved;}\n    function isApprovedForAll(address _owner, address _operator) public view returns (bool) {_owner; _operator;}\n    function transferFrom(address _from, address _to, uint256 _tokenId) public {_from; _to; _tokenId;}\n    function safeTransferFrom(address _from, address _to, uint256 _tokenId) public {_from; _to; _tokenId;}\n    function safeTransferFrom(address _from, address _to, uint256 _tokenId, bytes memory _data) public {_from; _to; _tokenId; _data;}\n}\n",
  "sourcePath": "/tmp/e892dcc220f24e94a7c94e36b8e8a584cb656f3b/implementation/contracts/system/TBTCSystem.sol",
  "compiler": {
    "name": "solc",
    "version": "0.5.10+commit.5a6ea5b1.Emscripten.clang"
  },
  "schemaVersion": "3.0.2",
  "updatedAt": "2019-08-05T16:15:48.990Z",
  "devdoc": {
    "methods": {
      "approvedToLog(address)": {
        "details": "Calls the system to check if the caller is a Deposit                     We don't require this, so deposits are not bricked if the system borks",
        "params": {
          "_caller": "The address of the calling contract"
        },
        "return": "True if approved, otherwise false"
      },
      "logCourtesyCalled()": {
        "details": "We append the sender, which is the deposit contract that called             returns false if not approved, to prevent accidentally halting Deposit",
        "return": "True if successful, else false"
      },
      "logCreated(address)": {
        "details": "We append the sender, which is the deposit contract that called",
        "params": {
          "_keepAddress": "The address of the associated keep"
        },
        "return": "True if successful, else revert"
      },
      "logExitedCourtesyCall()": {
        "details": "We append the sender, which is the deposit contract that called             returns false if not approved, to prevent accidentally halting Deposit",
        "return": "True if successful, else false"
      },
      "logFraudDuringSetup()": {
        "details": "We append the sender, which is the deposit contract that called             returns false if not approved, to prevent accidentally halting Deposit",
        "return": "True if successful, else false"
      },
      "logFunded()": {
        "details": "We append the sender, which is the deposit contract that called             returns false if not approved, to prevent accidentally halting Deposit",
        "return": "True if successful, else false"
      },
      "logGotRedemptionSignature(bytes32,bytes32,bytes32)": {
        "details": "We append the sender, which is the deposit contract that called",
        "params": {
          "_digest": "signed digest",
          "_r": "signature r value",
          "_s": "signature s value"
        },
        "return": "True if successful, else revert"
      },
      "logLiquidated()": {
        "details": "We append the sender, which is the deposit contract that called             returns false if not approved, to prevent accidentally halting Deposit",
        "return": "True if successful, else false"
      },
      "logRedeemed(bytes32)": {
        "details": "We append the sender, which is the deposit contract that called             returns false if not approved, to prevent accidentally halting Deposit",
        "return": "True if successful, else false"
      },
      "logRedemptionRequested(address,bytes32,uint256,bytes20,uint256,bytes)": {
        "details": "This is the only event without an explicit timestamp",
        "params": {
          "_digest": "The calculated sighash digest",
          "_outpoint": "The 36 byte outpoint",
          "_requestedFee": "The requester or bump-system specified fee",
          "_requester": "The ethereum address of the requester",
          "_requesterPKH": "The requester's 20-byte bitcoin pkh",
          "_utxoSize": "The size of the utxo in sat"
        },
        "return": "True if successful, else revert"
      },
      "logRegisteredPubkey(bytes32,bytes32)": {
        "details": "We append the sender, which is the deposit contract that called             returns false if not approved, to prevent accidentally halting Deposit",
        "return": "True if successful, else false"
      },
      "logSetupFailed()": {
        "details": "We append the sender, which is the deposit contract that called             returns false if not approved, to prevent accidentally halting Deposit",
        "return": "True if successful, else false"
      },
      "logStartedLiquidation(bool)": {
        "details": "We append the sender, which is the deposit contract that called",
        "params": {
          "_wasFraud": "True if liquidating for fraud"
        },
        "return": "True if successful, else revert"
      }
    }
  },
  "userdoc": {
    "methods": {
      "approvedToLog(address)": {
        "notice": " AUTH  Checks if an address is an allowed logger"
      },
      "logCourtesyCalled()": {
        "notice": "Fires a CourtesyCalled event"
      },
      "logCreated(address)": {
        "notice": " Logging  Fires a Created event"
      },
      "logExitedCourtesyCall()": {
        "notice": "Fires a ExitedCourtesyCall event"
      },
      "logFraudDuringSetup()": {
        "notice": "Fires a FraudDuringSetup event"
      },
      "logFunded()": {
        "notice": "Fires a Funded event"
      },
      "logGotRedemptionSignature(bytes32,bytes32,bytes32)": {
        "notice": "Fires a GotRedemptionSignature event"
      },
      "logLiquidated()": {
        "notice": "Fires a Liquidated event"
      },
      "logRedeemed(bytes32)": {
        "notice": "Fires a Redeemed event"
      },
      "logRedemptionRequested(address,bytes32,uint256,bytes20,uint256,bytes)": {
        "notice": "Fires a RedemptionRequested event"
      },
      "logRegisteredPubkey(bytes32,bytes32)": {
        "notice": "Fires a RegisteredPubkey event"
      },
      "logSetupFailed()": {
        "notice": "Fires a SetupFailed event"
      },
      "logStartedLiquidation(bool)": {
        "notice": "Fires a StartedLiquidation event"
      }
    }
  }
}