{
  "contractName": "TBTCToken",
  "abi": [
    {
      "constant": true,
      "inputs": [],
      "name": "name",
      "outputs": [
        {
          "name": "",
          "type": "string"
        }
      ],
      "payable": false,
      "stateMutability": "view",
      "type": "function"
    },
    {
      "constant": false,
      "inputs": [
        {
          "name": "spender",
          "type": "address"
        },
        {
          "name": "value",
          "type": "uint256"
        }
      ],
      "name": "approve",
      "outputs": [
        {
          "name": "",
          "type": "bool"
        }
      ],
      "payable": false,
      "stateMutability": "nonpayable",
      "type": "function"
    },
    {
      "constant": true,
      "inputs": [],
      "name": "totalSupply",
      "outputs": [
        {
          "name": "",
          "type": "uint256"
        }
      ],
      "payable": false,
      "stateMutability": "view",
      "type": "function"
    },
    {
      "constant": true,
      "inputs": [],
      "name": "decimals",
      "outputs": [
        {
          "name": "",
          "type": "uint8"
        }
      ],
      "payable": false,
      "stateMutability": "view",
      "type": "function"
    },
    {
      "constant": false,
      "inputs": [
        {
          "name": "spender",
          "type": "address"
        },
        {
          "name": "addedValue",
          "type": "uint256"
        }
      ],
      "name": "increaseAllowance",
      "outputs": [
        {
          "name": "",
          "type": "bool"
        }
      ],
      "payable": false,
      "stateMutability": "nonpayable",
      "type": "function"
    },
    {
      "constant": true,
      "inputs": [
        {
          "name": "account",
          "type": "address"
        }
      ],
      "name": "balanceOf",
      "outputs": [
        {
          "name": "",
          "type": "uint256"
        }
      ],
      "payable": false,
      "stateMutability": "view",
      "type": "function"
    },
    {
      "constant": true,
      "inputs": [],
      "name": "symbol",
      "outputs": [
        {
          "name": "",
          "type": "string"
        }
      ],
      "payable": false,
      "stateMutability": "view",
      "type": "function"
    },
    {
      "constant": false,
      "inputs": [
        {
          "name": "spender",
          "type": "address"
        },
        {
          "name": "subtractedValue",
          "type": "uint256"
        }
      ],
      "name": "decreaseAllowance",
      "outputs": [
        {
          "name": "",
          "type": "bool"
        }
      ],
      "payable": false,
      "stateMutability": "nonpayable",
      "type": "function"
    },
    {
      "constant": false,
      "inputs": [
        {
          "name": "recipient",
          "type": "address"
        },
        {
          "name": "amount",
          "type": "uint256"
        }
      ],
      "name": "transfer",
      "outputs": [
        {
          "name": "",
          "type": "bool"
        }
      ],
      "payable": false,
      "stateMutability": "nonpayable",
      "type": "function"
    },
    {
      "constant": true,
      "inputs": [
        {
          "name": "owner",
          "type": "address"
        },
        {
          "name": "spender",
          "type": "address"
        }
      ],
      "name": "allowance",
      "outputs": [
        {
          "name": "",
          "type": "uint256"
        }
      ],
      "payable": false,
      "stateMutability": "view",
      "type": "function"
    },
    {
      "inputs": [],
      "payable": false,
      "stateMutability": "nonpayable",
      "type": "constructor"
    },
    {
      "anonymous": false,
      "inputs": [
        {
          "indexed": true,
          "name": "from",
          "type": "address"
        },
        {
          "indexed": true,
          "name": "to",
          "type": "address"
        },
        {
          "indexed": false,
          "name": "value",
          "type": "uint256"
        }
      ],
      "name": "Transfer",
      "type": "event"
    },
    {
      "anonymous": false,
      "inputs": [
        {
          "indexed": true,
          "name": "owner",
          "type": "address"
        },
        {
          "indexed": true,
          "name": "spender",
          "type": "address"
        },
        {
          "indexed": false,
          "name": "value",
          "type": "uint256"
        }
      ],
      "name": "Approval",
      "type": "event"
    },
    {
      "constant": false,
      "inputs": [
        {
          "name": "_account",
          "type": "address"
        },
        {
          "name": "_amount",
          "type": "uint256"
        }
      ],
      "name": "mint",
      "outputs": [
        {
          "name": "",
          "type": "bool"
        }
      ],
      "payable": false,
      "stateMutability": "nonpayable",
      "type": "function"
    },
    {
      "constant": false,
      "inputs": [
        {
          "name": "_account",
          "type": "address"
        },
        {
          "name": "_amount",
          "type": "uint256"
        }
      ],
      "name": "burnFrom",
      "outputs": [],
      "payable": false,
      "stateMutability": "nonpayable",
      "type": "function"
    },
    {
      "constant": false,
      "inputs": [
        {
          "name": "_from",
          "type": "address"
        },
        {
          "name": "_to",
          "type": "address"
        },
        {
          "name": "_value",
          "type": "uint256"
        }
      ],
      "name": "transferFrom",
      "outputs": [
        {
          "name": "",
          "type": "bool"
        }
      ],
      "payable": false,
      "stateMutability": "nonpayable",
      "type": "function"
    }
  ],
  "bytecode": "0x608060405234801561001057600080fd5b50604080518082018252601181527f54727573746c65737320626974636f696e00000000000000000000000000000060208083019182528351808501909452600484527f544254430000000000000000000000000000000000000000000000000000000090840152815191929160129161008d91600091906100be565b5081516100a19060019060208501906100be565b506002805460ff191660ff92909216919091179055506101599050565b828054600181600116156101000203166002900490600052602060002090601f016020900481019282601f106100ff57805160ff191683800117855561012c565b8280016001018555821561012c579182015b8281111561012c578251825591602001919060010190610111565b5061013892915061013c565b5090565b61015691905b808211156101385760008155600101610142565b90565b610af4806101686000396000f3fe608060405234801561001057600080fd5b50600436106100cf5760003560e01c806340c10f191161008c57806395d89b411161006657806395d89b41146102ab578063a457c2d7146102b3578063a9059cbb146102df578063dd62ed3e1461030b576100cf565b806340c10f191461022b57806370a082311461025757806379cc67901461027d576100cf565b806306fdde03146100d4578063095ea7b31461015157806318160ddd1461019157806323b872dd146101ab578063313ce567146101e157806339509351146101ff575b600080fd5b6100dc610339565b6040805160208082528351818301528351919283929083019185019080838360005b838110156101165781810151838201526020016100fe565b50505050905090810190601f1680156101435780820380516001836020036101000a031916815260200191505b509250505060405180910390f35b61017d6004803603604081101561016757600080fd5b506001600160a01b0381351690602001356103cf565b604080519115158252519081900360200190f35b6101996103e5565b60408051918252519081900360200190f35b61017d600480360360608110156101c157600080fd5b506001600160a01b038135811691602081013590911690604001356103eb565b6101e9610402565b6040805160ff9092168252519081900360200190f35b61017d6004803603604081101561021557600080fd5b506001600160a01b03813516906020013561040b565b61017d6004803603604081101561024157600080fd5b506001600160a01b03813516906020013561044c565b6101996004803603602081101561026d57600080fd5b50356001600160a01b0316610458565b6102a96004803603604081101561029357600080fd5b506001600160a01b038135169060200135610473565b005b6100dc610481565b61017d600480360360408110156102c957600080fd5b506001600160a01b0381351690602001356104e1565b61017d600480360360408110156102f557600080fd5b506001600160a01b03813516906020013561051d565b6101996004803603604081101561032157600080fd5b506001600160a01b038135811691602001351661052a565b60008054604080516020601f60026000196101006001881615020190951694909404938401819004810282018101909252828152606093909290918301828280156103c55780601f1061039a576101008083540402835291602001916103c5565b820191906000526020600020905b8154815290600101906020018083116103a857829003601f168201915b5050505050905090565b60006103dc338484610555565b50600192915050565b60055490565b60006103f8848484610641565b5060019392505050565b60025460ff1690565b3360008181526004602090815260408083206001600160a01b038716845290915281205490916103dc918590610447908663ffffffff61078516565b610555565b60006103dc83836107e6565b6001600160a01b031660009081526003602052604090205490565b61047d82826108d8565b5050565b60018054604080516020601f600260001961010087891615020190951694909404938401819004810282018101909252828152606093909290918301828280156103c55780601f1061039a576101008083540402835291602001916103c5565b3360008181526004602090815260408083206001600160a01b038716845290915281205490916103dc918590610447908663ffffffff6109b316565b60006103dc338484610641565b6001600160a01b03918216600090815260046020908152604080832093909416825291909152205490565b6001600160a01b03831661059a5760405162461bcd60e51b8152600401808060200182810382526024815260200180610a9c6024913960400191505060405180910390fd5b6001600160a01b0382166105df5760405162461bcd60e51b8152600401808060200182810382526022815260200180610a346022913960400191505060405180910390fd5b6001600160a01b03808416600081815260046020908152604080832094871680845294825291829020859055815185815291517f8c5be1e5ebec7d5bd14f71427d1e84f3dd0314c0f7b2291e5b200ac8c7c3b9259281900390910190a3505050565b6001600160a01b0383166106865760405162461bcd60e51b8152600401808060200182810382526025815260200180610a776025913960400191505060405180910390fd5b6001600160a01b0382166106cb5760405162461bcd60e51b8152600401808060200182810382526023815260200180610a116023913960400191505060405180910390fd5b6001600160a01b0383166000908152600360205260409020546106f4908263ffffffff6109b316565b6001600160a01b038085166000908152600360205260408082209390935590841681522054610729908263ffffffff61078516565b6001600160a01b0380841660008181526003602090815260409182902094909455805185815290519193928716927fddf252ad1be2c89b69c2b068fc378daa952ba7f163c4a11628f55a4df523b3ef92918290030190a3505050565b6000828201838110156107df576040805162461bcd60e51b815260206004820152601b60248201527f536166654d6174683a206164646974696f6e206f766572666c6f770000000000604482015290519081900360640190fd5b9392505050565b6001600160a01b038216610841576040805162461bcd60e51b815260206004820152601f60248201527f45524332303a206d696e7420746f20746865207a65726f206164647265737300604482015290519081900360640190fd5b600554610854908263ffffffff61078516565b6005556001600160a01b038216600090815260036020526040902054610880908263ffffffff61078516565b6001600160a01b03831660008181526003602090815260408083209490945583518581529351929391927fddf252ad1be2c89b69c2b068fc378daa952ba7f163c4a11628f55a4df523b3ef9281900390910190a35050565b6001600160a01b03821661091d5760405162461bcd60e51b8152600401808060200182810382526021815260200180610a566021913960400191505060405180910390fd5b600554610930908263ffffffff6109b316565b6005556001600160a01b03821660009081526003602052604090205461095c908263ffffffff6109b316565b6001600160a01b0383166000818152600360209081526040808320949094558351858152935191937fddf252ad1be2c89b69c2b068fc378daa952ba7f163c4a11628f55a4df523b3ef929081900390910190a35050565b600082821115610a0a576040805162461bcd60e51b815260206004820152601e60248201527f536166654d6174683a207375627472616374696f6e206f766572666c6f770000604482015290519081900360640190fd5b5090039056fe45524332303a207472616e7366657220746f20746865207a65726f206164647265737345524332303a20617070726f766520746f20746865207a65726f206164647265737345524332303a206275726e2066726f6d20746865207a65726f206164647265737345524332303a207472616e736665722066726f6d20746865207a65726f206164647265737345524332303a20617070726f76652066726f6d20746865207a65726f2061646472657373a265627a7a72305820a3ac58e60edcc2db220bf979cccd88c126e0ffb5e21973fc8bcd858a710bf6bb64736f6c634300050a0032",
  "source": "pragma solidity ^0.5.10;\n\nimport \"openzeppelin-solidity/contracts/token/ERC20/ERC20Detailed.sol\";\nimport \"openzeppelin-solidity/contracts/token/ERC20/ERC20.sol\";\n\ncontract TBTCToken is ERC20Detailed, ERC20 {\n    /// @dev Constructor, calls ERC20Detailed constructor to set Token info\n    ///      ERC20Detailed(TokenName, TokenSymbol, NumberOfDecimals)\n    constructor() ERC20Detailed(\"Trustless bitcoin\", \"TBTC\", 18) public {\n        // solium-disable-previous-line no-empty-blocks\n    }\n\n    /// @dev             Mints an amount of the token and assigns it to an account.\n    ///                  Uses the internal _mint function\n    /// @param _account  The account that will receive the created tokens.\n    /// @param _amount   The amount of tokens that will be created.\n    function mint(address _account, uint256 _amount) public returns (bool){\n        // NOTE: this is a public function with unchecked minting.\n        // TODO: enforce calling authority.\n        _mint(_account, _amount);\n        return true;\n    }\n\n    /// @dev             Burns an amount of the token of a given account\n    ///                  deducting from the sender's allowance for said account.\n    ///                  Uses the internal _burn function.\n    /// @param _account  The account whose tokens will be burnt.\n    /// @param _amount   The amount of tokens that will be burnt.\n    function burnFrom(address _account, uint256 _amount) public {\n        // NOTE: this uses internal function _burn instead of _burnFrom.\n        // This will bypass allowance check for now.\n        // TODO: enforce calling authority.\n        _burn(_account, _amount);\n    }\n\n    /// @dev           Transfer tokens from one address to another\n    ///                Uses the internal _transfer function.\n    /// @param _from   The address to send tokens from\n    /// @param _to     The address to transfer tokens to\n    /// @param _value  The amount of tokens to be transferred\n    function transferFrom(address _from, address _to, uint256 _value) public returns (bool) {\n        // NOTE: this overrides transferFrom in openZeppelin ERC20.sol\n        // in order to bypass allowance check for now.\n        // TODO: enforce calling authority.\n        _transfer(_from, _to, _value);\n        return true;\n    }\n}\n",
  "sourcePath": "/Users/liamz/go/src/github.com/keep-network/tbtc/implementation/contracts/system/TBTCToken.sol",
  "compiler": {
    "name": "solc",
    "version": "0.5.10+commit.5a6ea5b1.Emscripten.clang"
  },
  "schemaVersion": "3.0.10",
  "updatedAt": "2019-08-01T17:39:26.896Z",
  "devdoc": {
    "methods": {
      "allowance(address,address)": {
        "details": "See `IERC20.allowance`."
      },
      "approve(address,uint256)": {
        "details": "See `IERC20.approve`.     * Requirements:     * - `spender` cannot be the zero address."
      },
      "balanceOf(address)": {
        "details": "See `IERC20.balanceOf`."
      },
      "burnFrom(address,uint256)": {
        "details": "Burns an amount of the token of a given account                  deducting from the sender's allowance for said account.                  Uses the internal _burn function.",
        "params": {
          "_account": "The account whose tokens will be burnt.",
          "_amount": "The amount of tokens that will be burnt."
        }
      },
      "constructor": {
        "details": "Constructor, calls ERC20Detailed constructor to set Token info      ERC20Detailed(TokenName, TokenSymbol, NumberOfDecimals)"
      },
      "decimals()": {
        "details": "Returns the number of decimals used to get its user representation. For example, if `decimals` equals `2`, a balance of `505` tokens should be displayed to a user as `5,05` (`505 / 10 ** 2`).     * Tokens usually opt for a value of 18, imitating the relationship between Ether and Wei.     * > Note that this information is only used for _display_ purposes: it in no way affects any of the arithmetic of the contract, including `IERC20.balanceOf` and `IERC20.transfer`."
      },
      "decreaseAllowance(address,uint256)": {
        "details": "Atomically decreases the allowance granted to `spender` by the caller.     * This is an alternative to `approve` that can be used as a mitigation for problems described in `IERC20.approve`.     * Emits an `Approval` event indicating the updated allowance.     * Requirements:     * - `spender` cannot be the zero address. - `spender` must have allowance for the caller of at least `subtractedValue`."
      },
      "increaseAllowance(address,uint256)": {
        "details": "Atomically increases the allowance granted to `spender` by the caller.     * This is an alternative to `approve` that can be used as a mitigation for problems described in `IERC20.approve`.     * Emits an `Approval` event indicating the updated allowance.     * Requirements:     * - `spender` cannot be the zero address."
      },
      "mint(address,uint256)": {
        "details": "Mints an amount of the token and assigns it to an account.                  Uses the internal _mint function",
        "params": {
          "_account": "The account that will receive the created tokens.",
          "_amount": "The amount of tokens that will be created."
        }
      },
      "name()": {
        "details": "Returns the name of the token."
      },
      "symbol()": {
        "details": "Returns the symbol of the token, usually a shorter version of the name."
      },
      "totalSupply()": {
        "details": "See `IERC20.totalSupply`."
      },
      "transfer(address,uint256)": {
        "details": "See `IERC20.transfer`.     * Requirements:     * - `recipient` cannot be the zero address. - the caller must have a balance of at least `amount`."
      },
      "transferFrom(address,address,uint256)": {
        "details": "Transfer tokens from one address to another                Uses the internal _transfer function.",
        "params": {
          "_from": "The address to send tokens from",
          "_to": "The address to transfer tokens to",
          "_value": "The amount of tokens to be transferred"
        }
      }
    }
  },
  "userdoc": {
    "methods": {}
  }
}