{
  "contractName": "TBTCConstants",
  "abi": [
    {
      "constant": true,
      "inputs": [],
      "name": "TX_PROOF_DIFFICULTY_FACTOR",
      "outputs": [
        {
          "name": "",
          "type": "uint256"
        }
      ],
      "payable": false,
      "stateMutability": "view",
      "type": "function",
      "signature": "0x02b7044b"
    },
    {
      "constant": true,
      "inputs": [],
      "name": "DEPOSIT_TERM_LENGTH",
      "outputs": [
        {
          "name": "",
          "type": "uint256"
        }
      ],
      "payable": false,
      "stateMutability": "view",
      "type": "function",
      "signature": "0x0a913dea"
    },
    {
      "constant": true,
      "inputs": [],
      "name": "FUNDING_PROOF_TIMEOUT",
      "outputs": [
        {
          "name": "",
          "type": "uint256"
        }
      ],
      "payable": false,
      "stateMutability": "view",
      "type": "function",
      "signature": "0x12aeac83"
    },
    {
      "constant": true,
      "inputs": [],
      "name": "SEVERELY_UNDERCOLLATERALIZED_THRESHOLD_PERCENT",
      "outputs": [
        {
          "name": "",
          "type": "uint256"
        }
      ],
      "payable": false,
      "stateMutability": "view",
      "type": "function",
      "signature": "0x1999101b"
    },
    {
      "constant": true,
      "inputs": [],
      "name": "INCREASE_FEE_TIMER",
      "outputs": [
        {
          "name": "",
          "type": "uint256"
        }
      ],
      "payable": false,
      "stateMutability": "view",
      "type": "function",
      "signature": "0x242c0ed0"
    },
    {
      "constant": true,
      "inputs": [],
      "name": "UNDERCOLLATERALIZED_THRESHOLD_PERCENT",
      "outputs": [
        {
          "name": "",
          "type": "uint256"
        }
      ],
      "payable": false,
      "stateMutability": "view",
      "type": "function",
      "signature": "0x3f8653ab"
    },
    {
      "constant": true,
      "inputs": [],
      "name": "AUCTION_BASE_PERCENTAGE",
      "outputs": [
        {
          "name": "",
          "type": "uint256"
        }
      ],
      "payable": false,
      "stateMutability": "view",
      "type": "function",
      "signature": "0x4136c1e7"
    },
    {
      "constant": true,
      "inputs": [],
      "name": "FUNDING_FRAUD_PARTIAL_SLASH_DIVISOR",
      "outputs": [
        {
          "name": "",
          "type": "uint256"
        }
      ],
      "payable": false,
      "stateMutability": "view",
      "type": "function",
      "signature": "0x582d1071"
    },
    {
      "constant": true,
      "inputs": [],
      "name": "REDEMPTION_SIGNATURE_TIMEOUT",
      "outputs": [
        {
          "name": "",
          "type": "uint256"
        }
      ],
      "payable": false,
      "stateMutability": "view",
      "type": "function",
      "signature": "0x5b6b452a"
    },
    {
      "constant": true,
      "inputs": [],
      "name": "BENEFICIARY_FEE_DIVISOR",
      "outputs": [
        {
          "name": "",
          "type": "uint256"
        }
      ],
      "payable": false,
      "stateMutability": "view",
      "type": "function",
      "signature": "0x6da1dda2"
    },
    {
      "constant": true,
      "inputs": [],
      "name": "FUNDER_BOND_AMOUNT_WEI",
      "outputs": [
        {
          "name": "",
          "type": "uint256"
        }
      ],
      "payable": false,
      "stateMutability": "view",
      "type": "function",
      "signature": "0x7196e87b"
    },
    {
      "constant": true,
      "inputs": [],
      "name": "MINIMUM_REDEMPTION_FEE",
      "outputs": [
        {
          "name": "",
          "type": "uint256"
        }
      ],
      "payable": false,
      "stateMutability": "view",
      "type": "function",
      "signature": "0x741b5e4c"
    },
    {
      "constant": true,
      "inputs": [],
      "name": "PERMITTED_FEE_BUMPS",
      "outputs": [
        {
          "name": "",
          "type": "uint256"
        }
      ],
      "payable": false,
      "stateMutability": "view",
      "type": "function",
      "signature": "0x7b9adf7c"
    },
    {
      "constant": true,
      "inputs": [],
      "name": "LOT_SIZE",
      "outputs": [
        {
          "name": "",
          "type": "uint256"
        }
      ],
      "payable": false,
      "stateMutability": "view",
      "type": "function",
      "signature": "0x7fee67a2"
    },
    {
      "constant": true,
      "inputs": [],
      "name": "FRAUD_FUNDING_PROOF_TIMEOUT",
      "outputs": [
        {
          "name": "",
          "type": "uint256"
        }
      ],
      "payable": false,
      "stateMutability": "view",
      "type": "function",
      "signature": "0x866a5400"
    },
    {
      "constant": true,
      "inputs": [],
      "name": "SIGNER_FEE_DIVISOR",
      "outputs": [
        {
          "name": "",
          "type": "uint256"
        }
      ],
      "payable": false,
      "stateMutability": "view",
      "type": "function",
      "signature": "0x8ab279cf"
    },
    {
      "constant": true,
      "inputs": [],
      "name": "AUCTION_DURATION",
      "outputs": [
        {
          "name": "",
          "type": "uint256"
        }
      ],
      "payable": false,
      "stateMutability": "view",
      "type": "function",
      "signature": "0xa271e525"
    },
    {
      "constant": true,
      "inputs": [],
      "name": "FORMATION_TIMEOUT",
      "outputs": [
        {
          "name": "",
          "type": "uint256"
        }
      ],
      "payable": false,
      "stateMutability": "view",
      "type": "function",
      "signature": "0xa99b5283"
    },
    {
      "constant": true,
      "inputs": [],
      "name": "REDEMPTION_PROOF_TIMEOUT",
      "outputs": [
        {
          "name": "",
          "type": "uint256"
        }
      ],
      "payable": false,
      "stateMutability": "view",
      "type": "function",
      "signature": "0xac8bfdad"
    },
    {
      "constant": true,
      "inputs": [],
      "name": "SATOSHI_MULTIPLIER",
      "outputs": [
        {
          "name": "",
          "type": "uint256"
        }
      ],
      "payable": false,
      "stateMutability": "view",
      "type": "function",
      "signature": "0xc7ba0347"
    },
    {
      "constant": true,
      "inputs": [],
      "name": "COURTESY_CALL_DURATION",
      "outputs": [
        {
          "name": "",
          "type": "uint256"
        }
      ],
      "payable": false,
      "stateMutability": "view",
      "type": "function",
      "signature": "0xfc94f1d6"
    },
    {
      "constant": true,
      "inputs": [],
      "name": "getLotSize",
      "outputs": [
        {
          "name": "",
          "type": "uint256"
        }
      ],
      "payable": false,
      "stateMutability": "pure",
      "type": "function",
      "signature": "0xecaf1cdf"
    },
    {
      "constant": true,
      "inputs": [],
      "name": "getSatoshiMultiplier",
      "outputs": [
        {
          "name": "",
          "type": "uint256"
        }
      ],
      "payable": false,
      "stateMutability": "pure",
      "type": "function",
      "signature": "0xae9eb127"
    },
    {
      "constant": true,
      "inputs": [],
      "name": "getSignerFeeDivisor",
      "outputs": [
        {
          "name": "",
          "type": "uint256"
        }
      ],
      "payable": false,
      "stateMutability": "pure",
      "type": "function",
      "signature": "0x60e98d59"
    },
    {
      "constant": true,
      "inputs": [],
      "name": "getBeneficiaryRewardDivisor",
      "outputs": [
        {
          "name": "",
          "type": "uint256"
        }
      ],
      "payable": false,
      "stateMutability": "pure",
      "type": "function",
      "signature": "0xa1f6c639"
    },
    {
      "constant": true,
      "inputs": [],
      "name": "getFundingFraudPartialSlashDivisor",
      "outputs": [
        {
          "name": "",
          "type": "uint256"
        }
      ],
      "payable": false,
      "stateMutability": "pure",
      "type": "function",
      "signature": "0x65564920"
    },
    {
      "constant": true,
      "inputs": [],
      "name": "getDepositTerm",
      "outputs": [
        {
          "name": "",
          "type": "uint256"
        }
      ],
      "payable": false,
      "stateMutability": "pure",
      "type": "function",
      "signature": "0xd565d1f1"
    },
    {
      "constant": true,
      "inputs": [],
      "name": "getUndercollateralizedPercent",
      "outputs": [
        {
          "name": "",
          "type": "uint256"
        }
      ],
      "payable": false,
      "stateMutability": "pure",
      "type": "function",
      "signature": "0x2851f4db"
    },
    {
      "constant": true,
      "inputs": [],
      "name": "getSeverelyUndercollateralizedPercent",
      "outputs": [
        {
          "name": "",
          "type": "uint256"
        }
      ],
      "payable": false,
      "stateMutability": "pure",
      "type": "function",
      "signature": "0x6760dab9"
    },
    {
      "constant": true,
      "inputs": [],
      "name": "getTxProofDifficultyFactor",
      "outputs": [
        {
          "name": "",
          "type": "uint256"
        }
      ],
      "payable": false,
      "stateMutability": "pure",
      "type": "function",
      "signature": "0x9b3fd99f"
    },
    {
      "constant": true,
      "inputs": [],
      "name": "getSignatureTimeout",
      "outputs": [
        {
          "name": "",
          "type": "uint256"
        }
      ],
      "payable": false,
      "stateMutability": "pure",
      "type": "function",
      "signature": "0xd891dcdb"
    },
    {
      "constant": true,
      "inputs": [],
      "name": "getIncreaseFeeTimer",
      "outputs": [
        {
          "name": "",
          "type": "uint256"
        }
      ],
      "payable": false,
      "stateMutability": "pure",
      "type": "function",
      "signature": "0xf653c0b9"
    },
    {
      "constant": true,
      "inputs": [],
      "name": "getRedepmtionProofTimeout",
      "outputs": [
        {
          "name": "",
          "type": "uint256"
        }
      ],
      "payable": false,
      "stateMutability": "pure",
      "type": "function",
      "signature": "0xb4d01219"
    },
    {
      "constant": true,
      "inputs": [],
      "name": "getMinimumRedemptionFee",
      "outputs": [
        {
          "name": "",
          "type": "uint256"
        }
      ],
      "payable": false,
      "stateMutability": "pure",
      "type": "function",
      "signature": "0x86322af7"
    },
    {
      "constant": true,
      "inputs": [],
      "name": "getFundingTimeout",
      "outputs": [
        {
          "name": "",
          "type": "uint256"
        }
      ],
      "payable": false,
      "stateMutability": "pure",
      "type": "function",
      "signature": "0x38c86093"
    },
    {
      "constant": true,
      "inputs": [],
      "name": "getSigningGroupFormationTimeout",
      "outputs": [
        {
          "name": "",
          "type": "uint256"
        }
      ],
      "payable": false,
      "stateMutability": "pure",
      "type": "function",
      "signature": "0xc342b1f7"
    },
    {
      "constant": true,
      "inputs": [],
      "name": "getFraudFundingTimeout",
      "outputs": [
        {
          "name": "",
          "type": "uint256"
        }
      ],
      "payable": false,
      "stateMutability": "pure",
      "type": "function",
      "signature": "0xcdf95050"
    },
    {
      "constant": true,
      "inputs": [],
      "name": "getFunderBondAmount",
      "outputs": [
        {
          "name": "",
          "type": "uint256"
        }
      ],
      "payable": false,
      "stateMutability": "pure",
      "type": "function",
      "signature": "0x4145cf8e"
    },
    {
      "constant": true,
      "inputs": [],
      "name": "getCourtesyCallTimeout",
      "outputs": [
        {
          "name": "",
          "type": "uint256"
        }
      ],
      "payable": false,
      "stateMutability": "pure",
      "type": "function",
      "signature": "0x9887426d"
    },
    {
      "constant": true,
      "inputs": [],
      "name": "getAuctionDuration",
      "outputs": [
        {
          "name": "",
          "type": "uint256"
        }
      ],
      "payable": false,
      "stateMutability": "pure",
      "type": "function",
      "signature": "0x78cb51af"
    },
    {
      "constant": true,
      "inputs": [],
      "name": "getAuctionBasePercentage",
      "outputs": [
        {
          "name": "",
          "type": "uint256"
        }
      ],
      "payable": false,
      "stateMutability": "pure",
      "type": "function",
      "signature": "0xc4572eb9"
    },
    {
      "constant": true,
      "inputs": [],
      "name": "getPermittedFeeBumps",
      "outputs": [
        {
          "name": "",
          "type": "uint256"
        }
      ],
      "payable": false,
      "stateMutability": "pure",
      "type": "function",
      "signature": "0x28f76894"
    }
  ],
  "bytecode": "0x6104a9610026600b82828239805160001a60731461001957fe5b30600052607381538281f3fe7300000000000000000000000000000000000000003014608060405260043610610285576000357c0100000000000000000000000000000000000000000000000000000000900480637fee67a21161016d578063ae9eb127116100ea578063cdf95050116100ae578063cdf95050146102d4578063d565d1f114610394578063d891dcdb1461039c578063ecaf1cdf14610364578063f653c0b9146103a4578063fc94f1d61461037457610285565b8063ae9eb1271461037c578063b4d0121914610354578063c342b1f7146102d4578063c4572eb914610384578063c7ba03471461038c57610285565b80639b3fd99f116101315780639b3fd99f1461035c578063a1f6c63914610364578063a271e5251461036c578063a99b5283146102ac578063ac8bfdad1461037457610285565b80637fee67a21461031c57806386322af714610344578063866a5400146102ac5780638ab279cf1461034c5780639887426d1461035457610285565b80634145cf8e116102065780636760dab9116101ca5780636760dab9146103145780636da1dda21461031c5780637196e87b14610324578063741b5e4c1461032c57806378cb51af146103345780637b9adf7c1461033c57610285565b80634145cf8e146102ec578063582d1071146102f45780635b6b452a146102fc57806360e98d5914610304578063655649201461030c57610285565b80632851f4db1161024d5780632851f4db146102c457806328f76894146102cc57806338c86093146102d45780633f8653ab146102dc5780634136c1e7146102e457610285565b806302b7044b1461028a5780630a913dea146102a457806312aeac83146102ac5780631999101b146102b4578063242c0ed0146102bc575b600080fd5b6102926103ac565b60408051918252519081900360200190f35b6102926103b1565b6102926103b8565b6102926103be565b6102926103c3565b6102926103c9565b6102926103ce565b6102926103d3565b6102926103d9565b6102926103de565b6102926103e3565b6102926103ea565b6102926103ef565b6102926103f5565b6102926103fa565b6102926103ff565b610292610404565b61029261040a565b610292610411565b610292610416565b61029261041d565b610292610422565b610292610427565b61029261042c565b610292610432565b610292610437565b61029261043d565b610292610444565b61029261044a565b610292610453565b610292610458565b610292610461565b610292610468565b61029261046e565b600181565b62ed4e0081565b612a3081565b607881565b61384081565b608c90565b600590565b612a3090565b608c81565b605a81565b620186a090565b600281565b611c2081565b60c890565b600290565b607890565b6103e881565b620186a081565b609681565b6201518090565b600581565b609690565b60c881565b61546090565b600190565b6103e890565b6201518081565b61546081565b6402540be40090565b605a90565b6402540be40081565b62ed4e0090565b611c2090565b6138409056fea265627a7a723058206dc6b5f713a58ee64f40ca519c79ad354183110acd52ec24d9ada92f1a463e9a64736f6c634300050a0032",
  "source": "pragma solidity ^0.5.10;\n\nlibrary TBTCConstants {\n\n    // This is intended to make it easy to update system params\n    // During testing swap this out with another constats contract\n\n    // System Parameters\n    uint256 public constant LOT_SIZE = 1000; // satoshi TODO: decreased for testing, set it back original value `10 ** 8`\n    uint256 public constant SATOSHI_MULTIPLIER = 10 ** 10; // multiplier to convert satoshi to TBTC token units\n    uint256 public constant SIGNER_FEE_DIVISOR = 200; // 1/200 == 50bps == 0.5% == 0.005\n    uint256 public constant BENEFICIARY_FEE_DIVISOR = 1000;  // 1/1000 = 10 bps = 0.1% = 0.001\n    uint256 public constant FUNDING_FRAUD_PARTIAL_SLASH_DIVISOR = 2;  // 1/2 = 5000bps = 50% = 0.5\n    uint256 public constant DEPOSIT_TERM_LENGTH = 180 * 24 * 60 * 60; // 180 days in seconds\n    uint256 public constant UNDERCOLLATERALIZED_THRESHOLD_PERCENT = 140;  // percent\n    uint256 public constant SEVERELY_UNDERCOLLATERALIZED_THRESHOLD_PERCENT = 120; // percent\n    uint256 public constant TX_PROOF_DIFFICULTY_FACTOR = 1; // TODO: decreased for testing, original value: `6`\n\n    // Redemption Flow\n    uint256 public constant REDEMPTION_SIGNATURE_TIMEOUT = 2 * 60 * 60;  // seconds\n    uint256 public constant INCREASE_FEE_TIMER = 4 * 60 * 60;  // seconds\n    uint256 public constant REDEMPTION_PROOF_TIMEOUT = 6 * 60 * 60;  // seconds\n    uint256 public constant MINIMUM_REDEMPTION_FEE = 150; // satoshi TODO: decreased for testing, set it back original value `2000`\n\n    // Funding Flow\n    uint256 public constant FUNDING_PROOF_TIMEOUT = 3 * 60 * 60; // seconds\n    uint256 public constant FORMATION_TIMEOUT = 3 * 60 * 60; // seconds\n    uint256 public constant FRAUD_FUNDING_PROOF_TIMEOUT = 3 * 60 * 60; // seconds\n    uint256 public constant FUNDER_BOND_AMOUNT_WEI = 10 ** 5; // wei\n\n    // Liquidation Flow\n    uint256 public constant COURTESY_CALL_DURATION = 6 * 60 * 60; // seconds\n    uint256 public constant AUCTION_DURATION = 24 * 60 * 60; // seconds\n    uint256 public constant AUCTION_BASE_PERCENTAGE = 90; // percents\n    uint256 public constant PERMITTED_FEE_BUMPS = 5; // number of times the fee can be increased\n\n    // Getters for easy access\n    function getLotSize() public pure returns (uint256) { return LOT_SIZE; }\n    function getSatoshiMultiplier() public pure returns (uint256) { return SATOSHI_MULTIPLIER; }\n    function getSignerFeeDivisor() public pure returns (uint256) { return SIGNER_FEE_DIVISOR; }\n    function getBeneficiaryRewardDivisor() public pure returns (uint256) { return BENEFICIARY_FEE_DIVISOR; }\n    function getFundingFraudPartialSlashDivisor() public pure returns (uint256) { return FUNDING_FRAUD_PARTIAL_SLASH_DIVISOR; }\n    function getDepositTerm() public pure returns (uint256) { return DEPOSIT_TERM_LENGTH; }\n    function getUndercollateralizedPercent() public pure returns (uint256) { return UNDERCOLLATERALIZED_THRESHOLD_PERCENT; }\n    function getSeverelyUndercollateralizedPercent() public pure returns (uint256) { return SEVERELY_UNDERCOLLATERALIZED_THRESHOLD_PERCENT; }\n    function getTxProofDifficultyFactor() public pure returns (uint256) { return TX_PROOF_DIFFICULTY_FACTOR; }\n\n    function getSignatureTimeout() public pure returns (uint256) { return REDEMPTION_SIGNATURE_TIMEOUT; }\n    function getIncreaseFeeTimer() public pure returns (uint256) { return INCREASE_FEE_TIMER; }\n    function getRedepmtionProofTimeout() public pure returns (uint256) { return REDEMPTION_PROOF_TIMEOUT; }\n    function getMinimumRedemptionFee() public pure returns (uint256) { return MINIMUM_REDEMPTION_FEE; }\n\n    function getFundingTimeout() public pure returns (uint256) { return FUNDING_PROOF_TIMEOUT; }\n    function getSigningGroupFormationTimeout() public pure returns (uint256) { return FORMATION_TIMEOUT; }\n    function getFraudFundingTimeout() public pure returns (uint256) { return FRAUD_FUNDING_PROOF_TIMEOUT; }\n    function getFunderBondAmount() public pure returns (uint256) { return FUNDER_BOND_AMOUNT_WEI; }\n\n    function getCourtesyCallTimeout() public pure returns (uint256) { return COURTESY_CALL_DURATION; }\n    function getAuctionDuration() public pure returns (uint256) { return AUCTION_DURATION; }\n    function getAuctionBasePercentage() public pure returns (uint256) { return AUCTION_BASE_PERCENTAGE; }\n    function getPermittedFeeBumps() public pure returns (uint256) {return PERMITTED_FEE_BUMPS; }\n}\n",
  "sourcePath": "/tmp/513cb2aebd9d178253241933a4bcda0235b5c973/implementation/contracts/deposit/TBTCConstants.sol",
  "compiler": {
    "name": "solc",
    "version": "0.5.10+commit.5a6ea5b1.Emscripten.clang"
  },
  "schemaVersion": "3.0.2",
  "updatedAt": "2019-11-08T17:01:35.153Z",
  "devdoc": {
    "methods": {}
  },
  "userdoc": {
    "methods": {}
  }
}