{
  "contractName": "TBTCToken",
  "abi": [
    {
      "constant": true,
      "inputs": [],
      "name": "name",
      "outputs": [
        {
          "name": "",
          "type": "string"
        }
      ],
      "payable": false,
      "stateMutability": "view",
      "type": "function",
      "signature": "0x06fdde03"
    },
    {
      "constant": false,
      "inputs": [
        {
          "name": "spender",
          "type": "address"
        },
        {
          "name": "value",
          "type": "uint256"
        }
      ],
      "name": "approve",
      "outputs": [
        {
          "name": "",
          "type": "bool"
        }
      ],
      "payable": false,
      "stateMutability": "nonpayable",
      "type": "function",
      "signature": "0x095ea7b3"
    },
    {
      "constant": true,
      "inputs": [],
      "name": "totalSupply",
      "outputs": [
        {
          "name": "",
          "type": "uint256"
        }
      ],
      "payable": false,
      "stateMutability": "view",
      "type": "function",
      "signature": "0x18160ddd"
    },
    {
      "constant": false,
      "inputs": [
        {
          "name": "sender",
          "type": "address"
        },
        {
          "name": "recipient",
          "type": "address"
        },
        {
          "name": "amount",
          "type": "uint256"
        }
      ],
      "name": "transferFrom",
      "outputs": [
        {
          "name": "",
          "type": "bool"
        }
      ],
      "payable": false,
      "stateMutability": "nonpayable",
      "type": "function",
      "signature": "0x23b872dd"
    },
    {
      "constant": true,
      "inputs": [],
      "name": "decimals",
      "outputs": [
        {
          "name": "",
          "type": "uint8"
        }
      ],
      "payable": false,
      "stateMutability": "view",
      "type": "function",
      "signature": "0x313ce567"
    },
    {
      "constant": false,
      "inputs": [
        {
          "name": "spender",
          "type": "address"
        },
        {
          "name": "addedValue",
          "type": "uint256"
        }
      ],
      "name": "increaseAllowance",
      "outputs": [
        {
          "name": "",
          "type": "bool"
        }
      ],
      "payable": false,
      "stateMutability": "nonpayable",
      "type": "function",
      "signature": "0x39509351"
    },
    {
      "constant": true,
      "inputs": [
        {
          "name": "account",
          "type": "address"
        }
      ],
      "name": "balanceOf",
      "outputs": [
        {
          "name": "",
          "type": "uint256"
        }
      ],
      "payable": false,
      "stateMutability": "view",
      "type": "function",
      "signature": "0x70a08231"
    },
    {
      "constant": true,
      "inputs": [],
      "name": "symbol",
      "outputs": [
        {
          "name": "",
          "type": "string"
        }
      ],
      "payable": false,
      "stateMutability": "view",
      "type": "function",
      "signature": "0x95d89b41"
    },
    {
      "constant": false,
      "inputs": [
        {
          "name": "spender",
          "type": "address"
        },
        {
          "name": "subtractedValue",
          "type": "uint256"
        }
      ],
      "name": "decreaseAllowance",
      "outputs": [
        {
          "name": "",
          "type": "bool"
        }
      ],
      "payable": false,
      "stateMutability": "nonpayable",
      "type": "function",
      "signature": "0xa457c2d7"
    },
    {
      "constant": false,
      "inputs": [
        {
          "name": "recipient",
          "type": "address"
        },
        {
          "name": "amount",
          "type": "uint256"
        }
      ],
      "name": "transfer",
      "outputs": [
        {
          "name": "",
          "type": "bool"
        }
      ],
      "payable": false,
      "stateMutability": "nonpayable",
      "type": "function",
      "signature": "0xa9059cbb"
    },
    {
      "constant": true,
      "inputs": [
        {
          "name": "owner",
          "type": "address"
        },
        {
          "name": "spender",
          "type": "address"
        }
      ],
      "name": "allowance",
      "outputs": [
        {
          "name": "",
          "type": "uint256"
        }
      ],
      "payable": false,
      "stateMutability": "view",
      "type": "function",
      "signature": "0xdd62ed3e"
    },
    {
      "inputs": [
        {
          "name": "_TBTCSystem",
          "type": "address"
        }
      ],
      "payable": false,
      "stateMutability": "nonpayable",
      "type": "constructor",
      "signature": "constructor"
    },
    {
      "anonymous": false,
      "inputs": [
        {
          "indexed": true,
          "name": "from",
          "type": "address"
        },
        {
          "indexed": true,
          "name": "to",
          "type": "address"
        },
        {
          "indexed": false,
          "name": "value",
          "type": "uint256"
        }
      ],
      "name": "Transfer",
      "type": "event",
      "signature": "0xddf252ad1be2c89b69c2b068fc378daa952ba7f163c4a11628f55a4df523b3ef"
    },
    {
      "anonymous": false,
      "inputs": [
        {
          "indexed": true,
          "name": "owner",
          "type": "address"
        },
        {
          "indexed": true,
          "name": "spender",
          "type": "address"
        },
        {
          "indexed": false,
          "name": "value",
          "type": "uint256"
        }
      ],
      "name": "Approval",
      "type": "event",
      "signature": "0x8c5be1e5ebec7d5bd14f71427d1e84f3dd0314c0f7b2291e5b200ac8c7c3b925"
    },
    {
      "constant": false,
      "inputs": [
        {
          "name": "_account",
          "type": "address"
        },
        {
          "name": "_amount",
          "type": "uint256"
        }
      ],
      "name": "mint",
      "outputs": [
        {
          "name": "",
          "type": "bool"
        }
      ],
      "payable": false,
      "stateMutability": "nonpayable",
      "type": "function",
      "signature": "0x40c10f19"
    },
    {
      "constant": false,
      "inputs": [
        {
          "name": "_account",
          "type": "address"
        },
        {
          "name": "_amount",
          "type": "uint256"
        }
      ],
      "name": "burnFrom",
      "outputs": [],
      "payable": false,
      "stateMutability": "nonpayable",
      "type": "function",
      "signature": "0x79cc6790"
    }
  ],
  "bytecode": "0x608060405234801561001057600080fd5b50604051610f1d380380610f1d8339818101604052602081101561003357600080fd5b5051604080518082018252601181527f54727573746c65737320626974636f696e00000000000000000000000000000060208281019182528351808501909452600484527f54425443000000000000000000000000000000000000000000000000000000009084015281518493916012916100b091600091610101565b5081516100c4906001906020850190610101565b506002805460ff191660ff92909216919091179055505060068054600160a060020a031916600160a060020a03929092169190911790555061019c565b828054600181600116156101000203166002900490600052602060002090601f016020900481019282601f1061014257805160ff191683800117855561016f565b8280016001018555821561016f579182015b8281111561016f578251825591602001919060010190610154565b5061017b92915061017f565b5090565b61019991905b8082111561017b5760008155600101610185565b90565b610d72806101ab6000396000f3fe608060405234801561001057600080fd5b50600436106100ec576000357c01000000000000000000000000000000000000000000000000000000009004806340c10f19116100a957806395d89b411161008357806395d89b41146102c8578063a457c2d7146102d0578063a9059cbb146102fc578063dd62ed3e14610328576100ec565b806340c10f191461024857806370a082311461027457806379cc67901461029a576100ec565b806306fdde03146100f1578063095ea7b31461016e57806318160ddd146101ae57806323b872dd146101c8578063313ce567146101fe578063395093511461021c575b600080fd5b6100f9610356565b6040805160208082528351818301528351919283929083019185019080838360005b8381101561013357818101518382015260200161011b565b50505050905090810190601f1680156101605780820380516001836020036101000a031916815260200191505b509250505060405180910390f35b61019a6004803603604081101561018457600080fd5b50600160a060020a0381351690602001356103ec565b604080519115158252519081900360200190f35b6101b6610402565b60408051918252519081900360200190f35b61019a600480360360608110156101de57600080fd5b50600160a060020a03813581169160208101359091169060400135610408565b61020661045f565b6040805160ff9092168252519081900360200190f35b61019a6004803603604081101561023257600080fd5b50600160a060020a038135169060200135610468565b61019a6004803603604081101561025e57600080fd5b50600160a060020a0381351690602001356104a4565b6101b66004803603602081101561028a57600080fd5b5035600160a060020a0316610593565b6102c6600480360360408110156102b057600080fd5b50600160a060020a0381351690602001356105ae565b005b6100f96106a2565b61019a600480360360408110156102e657600080fd5b50600160a060020a038135169060200135610702565b61019a6004803603604081101561031257600080fd5b50600160a060020a03813516906020013561073e565b6101b66004803603604081101561033e57600080fd5b50600160a060020a038135811691602001351661074b565b60008054604080516020601f60026000196101006001881615020190951694909404938401819004810282018101909252828152606093909290918301828280156103e25780601f106103b7576101008083540402835291602001916103e2565b820191906000526020600020905b8154815290600101906020018083116103c557829003601f168201915b5050505050905090565b60006103f9338484610776565b50600192915050565b60055490565b6000610415848484610868565b600160a060020a038416600090815260046020908152604080832033808552925290912054610455918691610450908663ffffffff6109b216565b610776565b5060019392505050565b60025460ff1690565b336000818152600460209081526040808320600160a060020a038716845290915281205490916103f9918590610450908663ffffffff610a1216565b600654604080517ff690a3a30000000000000000000000000000000000000000000000000000000081523360048201529051600092600160a060020a03169163f690a3a391602480830192602092919082900301818787803b15801561050957600080fd5b505af115801561051d573d6000803e3d6000fd5b505050506040513d602081101561053357600080fd5b5051610589576040805160e560020a62461bcd02815260206004820152601860248201527f63616c6c6572206d7573742062652061206465706f7369740000000000000000604482015290519081900360640190fd5b6103f98383610a76565b600160a060020a031660009081526003602052604090205490565b600654604080517ff690a3a30000000000000000000000000000000000000000000000000000000081523360048201529051600160a060020a039092169163f690a3a3916024808201926020929091908290030181600087803b15801561061457600080fd5b505af1158015610628573d6000803e3d6000fd5b505050506040513d602081101561063e57600080fd5b5051610694576040805160e560020a62461bcd02815260206004820152601860248201527f63616c6c6572206d7573742062652061206465706f7369740000000000000000604482015290519081900360640190fd5b61069e8282610b6b565b5050565b60018054604080516020601f600260001961010087891615020190951694909404938401819004810282018101909252828152606093909290918301828280156103e25780601f106103b7576101008083540402835291602001916103e2565b336000818152600460209081526040808320600160a060020a038716845290915281205490916103f9918590610450908663ffffffff6109b216565b60006103f9338484610868565b600160a060020a03918216600090815260046020908152604080832093909416825291909152205490565b600160a060020a0383166107be5760405160e560020a62461bcd028152600401808060200182810382526024815260200180610d1a6024913960400191505060405180910390fd5b600160a060020a0382166108065760405160e560020a62461bcd028152600401808060200182810382526022815260200180610cb26022913960400191505060405180910390fd5b600160a060020a03808416600081815260046020908152604080832094871680845294825291829020859055815185815291517f8c5be1e5ebec7d5bd14f71427d1e84f3dd0314c0f7b2291e5b200ac8c7c3b9259281900390910190a3505050565b600160a060020a0383166108b05760405160e560020a62461bcd028152600401808060200182810382526025815260200180610cf56025913960400191505060405180910390fd5b600160a060020a0382166108f85760405160e560020a62461bcd028152600401808060200182810382526023815260200180610c8f6023913960400191505060405180910390fd5b600160a060020a038316600090815260036020526040902054610921908263ffffffff6109b216565b600160a060020a038085166000908152600360205260408082209390935590841681522054610956908263ffffffff610a1216565b600160a060020a0380841660008181526003602090815260409182902094909455805185815290519193928716927fddf252ad1be2c89b69c2b068fc378daa952ba7f163c4a11628f55a4df523b3ef92918290030190a3505050565b600082821115610a0c576040805160e560020a62461bcd02815260206004820152601e60248201527f536166654d6174683a207375627472616374696f6e206f766572666c6f770000604482015290519081900360640190fd5b50900390565b600082820183811015610a6f576040805160e560020a62461bcd02815260206004820152601b60248201527f536166654d6174683a206164646974696f6e206f766572666c6f770000000000604482015290519081900360640190fd5b9392505050565b600160a060020a038216610ad4576040805160e560020a62461bcd02815260206004820152601f60248201527f45524332303a206d696e7420746f20746865207a65726f206164647265737300604482015290519081900360640190fd5b600554610ae7908263ffffffff610a1216565b600555600160a060020a038216600090815260036020526040902054610b13908263ffffffff610a1216565b600160a060020a03831660008181526003602090815260408083209490945583518581529351929391927fddf252ad1be2c89b69c2b068fc378daa952ba7f163c4a11628f55a4df523b3ef9281900390910190a35050565b610b758282610bb0565b600160a060020a03821660009081526004602090815260408083203380855292529091205461069e918491610450908563ffffffff6109b216565b600160a060020a038216610bf85760405160e560020a62461bcd028152600401808060200182810382526021815260200180610cd46021913960400191505060405180910390fd5b600554610c0b908263ffffffff6109b216565b600555600160a060020a038216600090815260036020526040902054610c37908263ffffffff6109b216565b600160a060020a0383166000818152600360209081526040808320949094558351858152935191937fddf252ad1be2c89b69c2b068fc378daa952ba7f163c4a11628f55a4df523b3ef929081900390910190a3505056fe45524332303a207472616e7366657220746f20746865207a65726f206164647265737345524332303a20617070726f766520746f20746865207a65726f206164647265737345524332303a206275726e2066726f6d20746865207a65726f206164647265737345524332303a207472616e736665722066726f6d20746865207a65726f206164647265737345524332303a20617070726f76652066726f6d20746865207a65726f2061646472657373a265627a7a723058206f6e06d494be5b83b295508b4579853c0b9dadf1d1575cc31c839b91314a05ab64736f6c634300050a0032",
  "source": "pragma solidity ^0.5.10;\n\nimport \"openzeppelin-solidity/contracts/token/ERC20/ERC20.sol\";\nimport \"openzeppelin-solidity/contracts/token/ERC20/ERC20Detailed.sol\";\nimport \"./ERC20MinterAuthority.sol\";\n\ncontract TBTCToken is ERC20Detailed, ERC20, ERC20MinterAuthority {\n    /// @dev Constructor, calls ERC20Detailed constructor to set Token info\n    ///      ERC20Detailed(TokenName, TokenSymbol, NumberOfDecimals)\n    constructor(address _TBTCSystem)\n        ERC20Detailed(\"Trustless bitcoin\", \"TBTC\", 18)\n        ERC20MinterAuthority(_TBTCSystem)\n    public {\n        // solium-disable-previous-line no-empty-blocks\n    }\n\n    /// @dev             Mints an amount of the token and assigns it to an account.\n    ///                  Uses the internal _mint function\n    /// @param _account  The account that will receive the created tokens.\n    /// @param _amount   The amount of tokens that will be created.\n    function mint(address _account, uint256 _amount) public onlyDeposit returns (bool){\n        // NOTE: this is a public function with unchecked minting.\n        _mint(_account, _amount);\n        return true;\n    }\n\n    /// @dev             Burns an amount of the token of a given account\n    ///                  deducting from the sender's allowance for said account.\n    ///                  Uses the internal _burn function.\n    /// @param _account  The account whose tokens will be burnt.\n    /// @param _amount   The amount of tokens that will be burnt.\n    function burnFrom(address _account, uint256 _amount) public onlyDeposit {\n        _burnFrom(_account, _amount);\n    }\n}\n",
  "sourcePath": "/tmp/513cb2aebd9d178253241933a4bcda0235b5c973/implementation/contracts/system/TBTCToken.sol",
  "compiler": {
    "name": "solc",
    "version": "0.5.10+commit.5a6ea5b1.Emscripten.clang"
  },
  "schemaVersion": "3.0.2",
  "updatedAt": "2019-11-11T14:10:58.809Z",
  "devdoc": {
    "methods": {
      "allowance(address,address)": {
        "details": "See `IERC20.allowance`."
      },
      "approve(address,uint256)": {
        "details": "See `IERC20.approve`.     * Requirements:     * - `spender` cannot be the zero address."
      },
      "balanceOf(address)": {
        "details": "See `IERC20.balanceOf`."
      },
      "burnFrom(address,uint256)": {
        "details": "Burns an amount of the token of a given account                  deducting from the sender's allowance for said account.                  Uses the internal _burn function.",
        "params": {
          "_account": "The account whose tokens will be burnt.",
          "_amount": "The amount of tokens that will be burnt."
        }
      },
      "constructor": {
        "details": "Constructor, calls ERC20Detailed constructor to set Token info      ERC20Detailed(TokenName, TokenSymbol, NumberOfDecimals)"
      },
      "decimals()": {
        "details": "Returns the number of decimals used to get its user representation. For example, if `decimals` equals `2`, a balance of `505` tokens should be displayed to a user as `5,05` (`505 / 10 ** 2`).     * Tokens usually opt for a value of 18, imitating the relationship between Ether and Wei.     * > Note that this information is only used for _display_ purposes: it in no way affects any of the arithmetic of the contract, including `IERC20.balanceOf` and `IERC20.transfer`."
      },
      "decreaseAllowance(address,uint256)": {
        "details": "Atomically decreases the allowance granted to `spender` by the caller.     * This is an alternative to `approve` that can be used as a mitigation for problems described in `IERC20.approve`.     * Emits an `Approval` event indicating the updated allowance.     * Requirements:     * - `spender` cannot be the zero address. - `spender` must have allowance for the caller of at least `subtractedValue`."
      },
      "increaseAllowance(address,uint256)": {
        "details": "Atomically increases the allowance granted to `spender` by the caller.     * This is an alternative to `approve` that can be used as a mitigation for problems described in `IERC20.approve`.     * Emits an `Approval` event indicating the updated allowance.     * Requirements:     * - `spender` cannot be the zero address."
      },
      "mint(address,uint256)": {
        "details": "Mints an amount of the token and assigns it to an account.                  Uses the internal _mint function",
        "params": {
          "_account": "The account that will receive the created tokens.",
          "_amount": "The amount of tokens that will be created."
        }
      },
      "name()": {
        "details": "Returns the name of the token."
      },
      "symbol()": {
        "details": "Returns the symbol of the token, usually a shorter version of the name."
      },
      "totalSupply()": {
        "details": "See `IERC20.totalSupply`."
      },
      "transfer(address,uint256)": {
        "details": "See `IERC20.transfer`.     * Requirements:     * - `recipient` cannot be the zero address. - the caller must have a balance of at least `amount`."
      },
      "transferFrom(address,address,uint256)": {
        "details": "See `IERC20.transferFrom`.     * Emits an `Approval` event indicating the updated allowance. This is not required by the EIP. See the note at the beginning of `ERC20`;     * Requirements: - `sender` and `recipient` cannot be the zero address. - `sender` must have a balance of at least `value`. - the caller must have allowance for `sender`'s tokens of at least `amount`."
      }
    }
  },
  "userdoc": {
    "methods": {}
  }
}