{
  "contractName": "TBTCSystem",
  "abi": [
    {
      "constant": false,
      "inputs": [],
      "name": "logCourtesyCalled",
      "outputs": [
        {
          "name": "",
          "type": "bool"
        }
      ],
      "payable": false,
      "stateMutability": "nonpayable",
      "type": "function"
    },
    {
      "constant": false,
      "inputs": [],
      "name": "logExitedCourtesyCall",
      "outputs": [
        {
          "name": "",
          "type": "bool"
        }
      ],
      "payable": false,
      "stateMutability": "nonpayable",
      "type": "function"
    },
    {
      "constant": false,
      "inputs": [
        {
          "name": "_keepAddress",
          "type": "address"
        }
      ],
      "name": "logCreated",
      "outputs": [
        {
          "name": "",
          "type": "bool"
        }
      ],
      "payable": false,
      "stateMutability": "nonpayable",
      "type": "function"
    },
    {
      "constant": false,
      "inputs": [
        {
          "name": "_requester",
          "type": "address"
        },
        {
          "name": "_digest",
          "type": "bytes32"
        },
        {
          "name": "_utxoSize",
          "type": "uint256"
        },
        {
          "name": "_requesterPKH",
          "type": "bytes20"
        },
        {
          "name": "_requestedFee",
          "type": "uint256"
        },
        {
          "name": "_outpoint",
          "type": "bytes"
        }
      ],
      "name": "logRedemptionRequested",
      "outputs": [
        {
          "name": "",
          "type": "bool"
        }
      ],
      "payable": false,
      "stateMutability": "nonpayable",
      "type": "function"
    },
    {
      "constant": false,
      "inputs": [
        {
          "name": "_wasFraud",
          "type": "bool"
        }
      ],
      "name": "logStartedLiquidation",
      "outputs": [
        {
          "name": "",
          "type": "bool"
        }
      ],
      "payable": false,
      "stateMutability": "nonpayable",
      "type": "function"
    },
    {
      "constant": false,
      "inputs": [
        {
          "name": "_txid",
          "type": "bytes32"
        }
      ],
      "name": "logRedeemed",
      "outputs": [
        {
          "name": "",
          "type": "bool"
        }
      ],
      "payable": false,
      "stateMutability": "nonpayable",
      "type": "function"
    },
    {
      "constant": false,
      "inputs": [
        {
          "name": "_signingGroupPubkeyX",
          "type": "bytes32"
        },
        {
          "name": "_signingGroupPubkeyY",
          "type": "bytes32"
        }
      ],
      "name": "logRegisteredPubkey",
      "outputs": [
        {
          "name": "",
          "type": "bool"
        }
      ],
      "payable": false,
      "stateMutability": "nonpayable",
      "type": "function"
    },
    {
      "constant": false,
      "inputs": [],
      "name": "logFunded",
      "outputs": [
        {
          "name": "",
          "type": "bool"
        }
      ],
      "payable": false,
      "stateMutability": "nonpayable",
      "type": "function"
    },
    {
      "constant": true,
      "inputs": [
        {
          "name": "_caller",
          "type": "address"
        }
      ],
      "name": "approvedToLog",
      "outputs": [
        {
          "name": "",
          "type": "bool"
        }
      ],
      "payable": false,
      "stateMutability": "view",
      "type": "function"
    },
    {
      "constant": false,
      "inputs": [],
      "name": "logSetupFailed",
      "outputs": [
        {
          "name": "",
          "type": "bool"
        }
      ],
      "payable": false,
      "stateMutability": "nonpayable",
      "type": "function"
    },
    {
      "constant": false,
      "inputs": [],
      "name": "logLiquidated",
      "outputs": [
        {
          "name": "",
          "type": "bool"
        }
      ],
      "payable": false,
      "stateMutability": "nonpayable",
      "type": "function"
    },
    {
      "constant": false,
      "inputs": [],
      "name": "logFraudDuringSetup",
      "outputs": [
        {
          "name": "",
          "type": "bool"
        }
      ],
      "payable": false,
      "stateMutability": "nonpayable",
      "type": "function"
    },
    {
      "constant": false,
      "inputs": [
        {
          "name": "_digest",
          "type": "bytes32"
        },
        {
          "name": "_r",
          "type": "bytes32"
        },
        {
          "name": "_s",
          "type": "bytes32"
        }
      ],
      "name": "logGotRedemptionSignature",
      "outputs": [
        {
          "name": "",
          "type": "bool"
        }
      ],
      "payable": false,
      "stateMutability": "nonpayable",
      "type": "function"
    },
    {
      "anonymous": false,
      "inputs": [
        {
          "indexed": true,
          "name": "_depositContractAddress",
          "type": "address"
        },
        {
          "indexed": true,
          "name": "_keepAddress",
          "type": "address"
        },
        {
          "indexed": false,
          "name": "_timestamp",
          "type": "uint256"
        }
      ],
      "name": "Created",
      "type": "event"
    },
    {
      "anonymous": false,
      "inputs": [
        {
          "indexed": true,
          "name": "_depositContractAddress",
          "type": "address"
        },
        {
          "indexed": true,
          "name": "_requester",
          "type": "address"
        },
        {
          "indexed": true,
          "name": "_digest",
          "type": "bytes32"
        },
        {
          "indexed": false,
          "name": "_utxoSize",
          "type": "uint256"
        },
        {
          "indexed": false,
          "name": "_requesterPKH",
          "type": "bytes20"
        },
        {
          "indexed": false,
          "name": "_requestedFee",
          "type": "uint256"
        },
        {
          "indexed": false,
          "name": "_outpoint",
          "type": "bytes"
        }
      ],
      "name": "RedemptionRequested",
      "type": "event"
    },
    {
      "anonymous": false,
      "inputs": [
        {
          "indexed": true,
          "name": "_depositContractAddress",
          "type": "address"
        },
        {
          "indexed": true,
          "name": "_digest",
          "type": "bytes32"
        },
        {
          "indexed": false,
          "name": "_r",
          "type": "bytes32"
        },
        {
          "indexed": false,
          "name": "_s",
          "type": "bytes32"
        },
        {
          "indexed": false,
          "name": "_timestamp",
          "type": "uint256"
        }
      ],
      "name": "GotRedemptionSignature",
      "type": "event"
    },
    {
      "anonymous": false,
      "inputs": [
        {
          "indexed": true,
          "name": "_depositContractAddress",
          "type": "address"
        },
        {
          "indexed": false,
          "name": "_signingGroupPubkeyX",
          "type": "bytes32"
        },
        {
          "indexed": false,
          "name": "_signingGroupPubkeyY",
          "type": "bytes32"
        },
        {
          "indexed": false,
          "name": "_timestamp",
          "type": "uint256"
        }
      ],
      "name": "RegisteredPubkey",
      "type": "event"
    },
    {
      "anonymous": false,
      "inputs": [
        {
          "indexed": true,
          "name": "_depositContractAddress",
          "type": "address"
        },
        {
          "indexed": false,
          "name": "_timestamp",
          "type": "uint256"
        }
      ],
      "name": "SetupFailed",
      "type": "event"
    },
    {
      "anonymous": false,
      "inputs": [
        {
          "indexed": true,
          "name": "_depositContractAddress",
          "type": "address"
        },
        {
          "indexed": false,
          "name": "_timestamp",
          "type": "uint256"
        }
      ],
      "name": "FraudDuringSetup",
      "type": "event"
    },
    {
      "anonymous": false,
      "inputs": [
        {
          "indexed": true,
          "name": "_depositContractAddress",
          "type": "address"
        },
        {
          "indexed": false,
          "name": "_timestamp",
          "type": "uint256"
        }
      ],
      "name": "Funded",
      "type": "event"
    },
    {
      "anonymous": false,
      "inputs": [
        {
          "indexed": true,
          "name": "_depositContractAddress",
          "type": "address"
        },
        {
          "indexed": false,
          "name": "_timestamp",
          "type": "uint256"
        }
      ],
      "name": "CourtesyCalled",
      "type": "event"
    },
    {
      "anonymous": false,
      "inputs": [
        {
          "indexed": true,
          "name": "_depositContractAddress",
          "type": "address"
        },
        {
          "indexed": false,
          "name": "_timestamp",
          "type": "uint256"
        }
      ],
      "name": "ExitedCourtesyCall",
      "type": "event"
    },
    {
      "anonymous": false,
      "inputs": [
        {
          "indexed": true,
          "name": "_depositContractAddress",
          "type": "address"
        },
        {
          "indexed": false,
          "name": "_wasFraud",
          "type": "bool"
        },
        {
          "indexed": false,
          "name": "_timestamp",
          "type": "uint256"
        }
      ],
      "name": "StartedLiquidation",
      "type": "event"
    },
    {
      "anonymous": false,
      "inputs": [
        {
          "indexed": true,
          "name": "_depositContractAddress",
          "type": "address"
        },
        {
          "indexed": true,
          "name": "_txid",
          "type": "bytes32"
        },
        {
          "indexed": false,
          "name": "_timestamp",
          "type": "uint256"
        }
      ],
      "name": "Redeemed",
      "type": "event"
    },
    {
      "anonymous": false,
      "inputs": [
        {
          "indexed": true,
          "name": "_depositContractAddress",
          "type": "address"
        },
        {
          "indexed": false,
          "name": "_timestamp",
          "type": "uint256"
        }
      ],
      "name": "Liquidated",
      "type": "event"
    },
    {
      "anonymous": false,
      "inputs": [
        {
          "indexed": true,
          "name": "from",
          "type": "address"
        },
        {
          "indexed": true,
          "name": "to",
          "type": "address"
        },
        {
          "indexed": true,
          "name": "tokenId",
          "type": "uint256"
        }
      ],
      "name": "Transfer",
      "type": "event"
    },
    {
      "anonymous": false,
      "inputs": [
        {
          "indexed": true,
          "name": "owner",
          "type": "address"
        },
        {
          "indexed": true,
          "name": "approved",
          "type": "address"
        },
        {
          "indexed": true,
          "name": "tokenId",
          "type": "uint256"
        }
      ],
      "name": "Approval",
      "type": "event"
    },
    {
      "anonymous": false,
      "inputs": [
        {
          "indexed": true,
          "name": "owner",
          "type": "address"
        },
        {
          "indexed": true,
          "name": "operator",
          "type": "address"
        },
        {
          "indexed": false,
          "name": "approved",
          "type": "bool"
        }
      ],
      "name": "ApprovalForAll",
      "type": "event"
    },
    {
      "constant": true,
      "inputs": [],
      "name": "fetchOraclePrice",
      "outputs": [
        {
          "name": "",
          "type": "uint256"
        }
      ],
      "payable": false,
      "stateMutability": "view",
      "type": "function"
    },
    {
      "constant": true,
      "inputs": [],
      "name": "fetchRelayCurrentDifficulty",
      "outputs": [
        {
          "name": "",
          "type": "uint256"
        }
      ],
      "payable": false,
      "stateMutability": "view",
      "type": "function"
    },
    {
      "constant": true,
      "inputs": [],
      "name": "fetchRelayPreviousDifficulty",
      "outputs": [
        {
          "name": "",
          "type": "uint256"
        }
      ],
      "payable": false,
      "stateMutability": "view",
      "type": "function"
    },
    {
      "constant": false,
      "inputs": [
        {
          "name": "_currentDifficulty",
          "type": "uint256"
        }
      ],
      "name": "submitCurrentDifficulty",
      "outputs": [],
      "payable": false,
      "stateMutability": "nonpayable",
      "type": "function"
    },
    {
      "constant": true,
      "inputs": [
        {
          "name": "_owner",
          "type": "address"
        }
      ],
      "name": "balanceOf",
      "outputs": [
        {
          "name": "balance",
          "type": "uint256"
        }
      ],
      "payable": false,
      "stateMutability": "view",
      "type": "function"
    },
    {
      "constant": true,
      "inputs": [
        {
          "name": "_tokenId",
          "type": "uint256"
        }
      ],
      "name": "ownerOf",
      "outputs": [
        {
          "name": "owner",
          "type": "address"
        }
      ],
      "payable": false,
      "stateMutability": "view",
      "type": "function"
    },
    {
      "constant": false,
      "inputs": [
        {
          "name": "_to",
          "type": "address"
        },
        {
          "name": "_tokenId",
          "type": "uint256"
        }
      ],
      "name": "approve",
      "outputs": [],
      "payable": false,
      "stateMutability": "nonpayable",
      "type": "function"
    },
    {
      "constant": true,
      "inputs": [
        {
          "name": "_tokenId",
          "type": "uint256"
        }
      ],
      "name": "getApproved",
      "outputs": [
        {
          "name": "operator",
          "type": "address"
        }
      ],
      "payable": false,
      "stateMutability": "view",
      "type": "function"
    },
    {
      "constant": false,
      "inputs": [
        {
          "name": "_operator",
          "type": "address"
        },
        {
          "name": "_approved",
          "type": "bool"
        }
      ],
      "name": "setApprovalForAll",
      "outputs": [],
      "payable": false,
      "stateMutability": "nonpayable",
      "type": "function"
    },
    {
      "constant": true,
      "inputs": [
        {
          "name": "_owner",
          "type": "address"
        },
        {
          "name": "_operator",
          "type": "address"
        }
      ],
      "name": "isApprovedForAll",
      "outputs": [
        {
          "name": "",
          "type": "bool"
        }
      ],
      "payable": false,
      "stateMutability": "view",
      "type": "function"
    },
    {
      "constant": false,
      "inputs": [
        {
          "name": "_from",
          "type": "address"
        },
        {
          "name": "_to",
          "type": "address"
        },
        {
          "name": "_tokenId",
          "type": "uint256"
        }
      ],
      "name": "transferFrom",
      "outputs": [],
      "payable": false,
      "stateMutability": "nonpayable",
      "type": "function"
    },
    {
      "constant": false,
      "inputs": [
        {
          "name": "_from",
          "type": "address"
        },
        {
          "name": "_to",
          "type": "address"
        },
        {
          "name": "_tokenId",
          "type": "uint256"
        }
      ],
      "name": "safeTransferFrom",
      "outputs": [],
      "payable": false,
      "stateMutability": "nonpayable",
      "type": "function"
    },
    {
      "constant": false,
      "inputs": [
        {
          "name": "_from",
          "type": "address"
        },
        {
          "name": "_to",
          "type": "address"
        },
        {
          "name": "_tokenId",
          "type": "uint256"
        },
        {
          "name": "_data",
          "type": "bytes"
        }
      ],
      "name": "safeTransferFrom",
      "outputs": [],
      "payable": false,
      "stateMutability": "nonpayable",
      "type": "function"
    }
  ],
  "bytecode": "0x60806040526001600081905580805564e8d4a51000600255600380546001600160a01b031916909117905534801561003657600080fd5b50610b3c806100466000396000f3fe608060405234801561001057600080fd5b506004361061018e5760003560e01c806370a08231116100de578063add1c81711610097578063dab70cb111610071578063dab70cb11461056a578063e2c50ad814610572578063e985e9c51461057a578063f760621e146105a85761018e565b8063add1c81714610494578063b88d4fde1461049c578063c8fba243146105625761018e565b806370a08231146103e7578063869f94691461040d5780638c736503146104305780639ffb386214610438578063a22cb4651461045e578063a831c8161461048c5761018e565b8063282bfd381161014b578063402b783d11610125578063402b783d1461039357806342842e0e1461023b5780636352211e146103ad5780636e1ba283146103ca5761018e565b8063282bfd38146102715780632b8af661146102975780633aac3467146103745761018e565b8063081812fc14610193578063095ea7b3146101cc5780630bcfd609146101fa57806322a147e61461021757806322e5724c1461023357806323b872dd1461023b575b600080fd5b6101b0600480360360208110156101a957600080fd5b50356105d1565b604080516001600160a01b039092168252519081900360200190f35b6101f8600480360360408110156101e257600080fd5b506001600160a01b0381351690602001356105d7565b005b6101f86004803603602081101561021057600080fd5b50356105db565b61021f6105f2565b604080519115158252519081900360200190f35b61021f610646565b6101f86004803603606081101561025157600080fd5b506001600160a01b03813581169160208101359091169060400135610699565b61021f6004803603602081101561028757600080fd5b50356001600160a01b031661069e565b61021f600480360360c08110156102ad57600080fd5b6001600160a01b03823516916020810135916040820135916bffffffffffffffffffffffff19606082013516916080820135919081019060c0810160a08201356401000000008111156102ff57600080fd5b82018360208201111561031157600080fd5b8035906020019184600183028401116401000000008311171561033357600080fd5b91908080601f0160208091040260200160405190810160405280939291908181526020018383808284376000920191909152509295506106fe945050505050565b61021f6004803603602081101561038a57600080fd5b50351515610807565b61039b610861565b60408051918252519081900360200190f35b6101b0600480360360208110156103c357600080fd5b5035610867565b61021f600480360360208110156103e057600080fd5b5035610877565b61039b600480360360208110156103fd57600080fd5b50356001600160a01b03166108cd565b61021f6004803603604081101561042357600080fd5b50803590602001356108d3565b61021f610936565b61021f6004803603602081101561044e57600080fd5b50356001600160a01b0316610989565b6101f86004803603604081101561047457600080fd5b506001600160a01b03813516906020013515156105d7565b61021f61098f565b61039b6109e2565b6101f8600480360360808110156104b257600080fd5b6001600160a01b038235811692602081013590911691604082013591908101906080810160608201356401000000008111156104ed57600080fd5b8201836020820111156104ff57600080fd5b8035906020019184600183028401116401000000008311171561052157600080fd5b91908080601f0160208091040260200160405190810160405280939291908181526020018383808284376000920191909152509295506109e8945050505050565b61021f6109ee565b61039b610a41565b61021f610a47565b61021f6004803603604081101561059057600080fd5b506001600160a01b0381358116916020013516610a9a565b61021f600480360360608110156105be57600080fd5b5080359060208101359060400135610aa2565b50600890565b5050565b80600054146105ef57600080546001558190555b50565b60006105fd33610989565b61060957506000610643565b60408051428152905133917f6e7b45210b79c12cd1332babd8d86c0bbb9ca898a89ce0404f17064dbfba18c0919081900360200190a25060015b90565b600061065133610989565b61065d57506000610643565b60408051428152905133917f07f0eaafadb9abb1d28da85d4b4c74f1939fd61b535c7f5ab501f618f07e76ee919081900360200190a250600190565b505050565b60006106a933610989565b6106b5575060006106f9565b6040805142815290516001600160a01b0384169133917f822b3073be62c5c7f143c2dcd71ee266434ee935d90a1eec3be34710ac8ec1a29181900360200190a35060015b919050565b600061070933610989565b610715575060006107fd565b85876001600160a01b0316336001600160a01b03167fc878d7c38ac02179fd80904f0f6c8126ea8659612f4cbb389af37ddf671eb7618888888860405180858152602001846bffffffffffffffffffffffff19166bffffffffffffffffffffffff1916815260200183815260200180602001828103825283818151815260200191508051906020019080838360005b838110156107bc5781810151838201526020016107a4565b50505050905090810190601f1680156107e95780820380516001836020036101000a031916815260200191505b509550505050505060405180910390a45060015b9695505050505050565b600061081233610989565b61081e575060006106f9565b604080518315158152426020820152815133927fbef11c059eefba82a15aea8a3a89c86fd08d7711c88fa7daea2632a55488510c928290030190a2506001919050565b60015490565b506003546001600160a01b031690565b600061088233610989565b61088e575060006106f9565b604080514281529051839133917f44b7f176bcc739b54bd0800fe491cbdea19df7d4d6b19c281462e6b4fc5043449181900360200190a3506001919050565b50600090565b60006108de33610989565b6108ea57506000610930565b60408051848152602081018490524281830152905133917f8ee737ab16909c4e9d1b750814a4393c9f84ab5d3a29c08c313b783fc846ae33919081900360600190a25060015b92915050565b600061094133610989565b61094d57506000610643565b60408051428152905133917f5af8184bef8e4b45eb9f6ed7734d04da38ced226495548f46e0c8ff8d7d9a524919081900360200190a250600190565b50600190565b600061099a33610989565b6109a657506000610643565b60408051428152905133917f8fd2cfb62a35fccc1ecef829f83a6c2f840b73dad49d3eaaa402909752086d4b919081900360200190a250600190565b60025490565b50505050565b60006109f933610989565b610a0557506000610643565b60408051428152905133917fa5ee7a2b0254fce91deed604506790ed7fa072d0b14cba4859c3bc8955b9caac919081900360200190a250600190565b60005490565b6000610a5233610989565b610a5e57506000610643565b60408051428152905133917f1e61af503f1d7de21d5300094c18bf8700f82b2951a4d54dd2adda13f6b3da30919081900360200190a250600190565b600092915050565b6000610aad33610989565b610ab957506000610b00565b604080518481526020810184905242818301529051859133917f7f7d7327762d01d2c4a552ea0be2bc5a76264574a80aa78083e691a840e509f29181900360600190a35060015b939250505056fea265627a7a7230582087e6707d13ad5dbe051421cfb141ac8fca9b3754dfecf1ce1aa7138491bcb69764736f6c634300050a0032",
  "source": "pragma solidity ^0.5.10;\n\nimport {ITBTCSystem} from \"../interfaces/ITBTCSystem.sol\";\nimport {IERC721} from \"../interfaces/IERC721.sol\";\nimport {DepositLog} from \"../DepositLog.sol\";\n\ncontract TBTCSystem is ITBTCSystem, IERC721, DepositLog {\n\n    uint256 currentDifficulty = 1;\n    uint256 previousDifficulty = 1;\n    uint256 oraclePrice = 10 ** 12;\n    address depositOwner = address(1);\n\n    // Price Oracle\n    function fetchOraclePrice() external view returns (uint256) {return oraclePrice;}\n\n    // Difficulty Oracle\n    // TODO: This is a workaround. It will be replaced by tbtc-difficulty-oracle.\n    function fetchRelayCurrentDifficulty() external view returns (uint256) {\n        return currentDifficulty;\n    }\n\n    function fetchRelayPreviousDifficulty() external view returns (uint256) {\n        return previousDifficulty;\n    }\n\n    function submitCurrentDifficulty(uint256 _currentDifficulty) public {\n        if (currentDifficulty != _currentDifficulty) {\n            previousDifficulty = currentDifficulty;\n            currentDifficulty = _currentDifficulty;\n        }\n    }\n\n    // ERC721\n    function balanceOf(address _owner) public view returns (uint256 balance) {_owner; balance = 0;}\n    function ownerOf(uint256 _tokenId) public view returns (address owner) {_tokenId; owner = depositOwner;}\n    function approve(address _to, uint256 _tokenId) public {_to; _tokenId;}\n    function getApproved(uint256 _tokenId) public view returns (address operator) {_tokenId; operator = address(8);}\n    function setApprovalForAll(address _operator, bool _approved) public {_operator; _approved;}\n    function isApprovedForAll(address _owner, address _operator) public view returns (bool) {_owner; _operator;}\n    function transferFrom(address _from, address _to, uint256 _tokenId) public {_from; _to; _tokenId;}\n    function safeTransferFrom(address _from, address _to, uint256 _tokenId) public {_from; _to; _tokenId;}\n    function safeTransferFrom(address _from, address _to, uint256 _tokenId, bytes memory _data) public {_from; _to; _tokenId; _data;}\n}\n",
  "sourcePath": "/Users/liamz/go/src/github.com/keep-network/tbtc/implementation/contracts/system/TBTCSystem.sol",
  "compiler": {
    "name": "solc",
    "version": "0.5.10+commit.5a6ea5b1.Emscripten.clang"
  },
  "schemaVersion": "3.0.10",
  "updatedAt": "2019-08-01T17:39:26.888Z",
  "devdoc": {
    "methods": {
      "approvedToLog(address)": {
        "details": "Calls the system to check if the caller is a Deposit                     We don't require this, so deposits are not bricked if the system borks",
        "params": {
          "_caller": "The address of the calling contract"
        },
        "return": "True if approved, otherwise false"
      },
      "logCourtesyCalled()": {
        "details": "We append the sender, which is the deposit contract that called             returns false if not approved, to prevent accidentally halting Deposit",
        "return": "True if successful, else false"
      },
      "logCreated(address)": {
        "details": "We append the sender, which is the deposit contract that called",
        "params": {
          "_keepAddress": "The address of the associated keep"
        },
        "return": "True if successful, else revert"
      },
      "logExitedCourtesyCall()": {
        "details": "We append the sender, which is the deposit contract that called             returns false if not approved, to prevent accidentally halting Deposit",
        "return": "True if successful, else false"
      },
      "logFraudDuringSetup()": {
        "details": "We append the sender, which is the deposit contract that called             returns false if not approved, to prevent accidentally halting Deposit",
        "return": "True if successful, else false"
      },
      "logFunded()": {
        "details": "We append the sender, which is the deposit contract that called             returns false if not approved, to prevent accidentally halting Deposit",
        "return": "True if successful, else false"
      },
      "logGotRedemptionSignature(bytes32,bytes32,bytes32)": {
        "details": "We append the sender, which is the deposit contract that called",
        "params": {
          "_digest": "signed digest",
          "_r": "signature r value",
          "_s": "signature s value"
        },
        "return": "True if successful, else revert"
      },
      "logLiquidated()": {
        "details": "We append the sender, which is the deposit contract that called             returns false if not approved, to prevent accidentally halting Deposit",
        "return": "True if successful, else false"
      },
      "logRedeemed(bytes32)": {
        "details": "We append the sender, which is the deposit contract that called             returns false if not approved, to prevent accidentally halting Deposit",
        "return": "True if successful, else false"
      },
      "logRedemptionRequested(address,bytes32,uint256,bytes20,uint256,bytes)": {
        "details": "This is the only event without an explicit timestamp",
        "params": {
          "_digest": "The calculated sighash digest",
          "_outpoint": "The 36 byte outpoint",
          "_requestedFee": "The requester or bump-system specified fee",
          "_requester": "The ethereum address of the requester",
          "_requesterPKH": "The requester's 20-byte bitcoin pkh",
          "_utxoSize": "The size of the utxo in sat"
        },
        "return": "True if successful, else revert"
      },
      "logRegisteredPubkey(bytes32,bytes32)": {
        "details": "We append the sender, which is the deposit contract that called             returns false if not approved, to prevent accidentally halting Deposit",
        "return": "True if successful, else false"
      },
      "logSetupFailed()": {
        "details": "We append the sender, which is the deposit contract that called             returns false if not approved, to prevent accidentally halting Deposit",
        "return": "True if successful, else false"
      },
      "logStartedLiquidation(bool)": {
        "details": "We append the sender, which is the deposit contract that called",
        "params": {
          "_wasFraud": "True if liquidating for fraud"
        },
        "return": "True if successful, else revert"
      }
    }
  },
  "userdoc": {
    "methods": {
      "approvedToLog(address)": {
        "notice": " AUTH  Checks if an address is an allowed logger"
      },
      "logCourtesyCalled()": {
        "notice": "Fires a CourtesyCalled event"
      },
      "logCreated(address)": {
        "notice": " Logging  Fires a Created event"
      },
      "logExitedCourtesyCall()": {
        "notice": "Fires a ExitedCourtesyCall event"
      },
      "logFraudDuringSetup()": {
        "notice": "Fires a FraudDuringSetup event"
      },
      "logFunded()": {
        "notice": "Fires a Funded event"
      },
      "logGotRedemptionSignature(bytes32,bytes32,bytes32)": {
        "notice": "Fires a GotRedemptionSignature event"
      },
      "logLiquidated()": {
        "notice": "Fires a Liquidated event"
      },
      "logRedeemed(bytes32)": {
        "notice": "Fires a Redeemed event"
      },
      "logRedemptionRequested(address,bytes32,uint256,bytes20,uint256,bytes)": {
        "notice": "Fires a RedemptionRequested event"
      },
      "logRegisteredPubkey(bytes32,bytes32)": {
        "notice": "Fires a RegisteredPubkey event"
      },
      "logSetupFailed()": {
        "notice": "Fires a SetupFailed event"
      },
      "logStartedLiquidation(bool)": {
        "notice": "Fires a StartedLiquidation event"
      }
    }
  }
}