{
  "contractName": "BytesLib",
  "abi": [
    {
      "constant": true,
      "inputs": [
        {
          "name": "_source",
          "type": "bytes"
        }
      ],
      "name": "toBytes32",
      "outputs": [
        {
          "name": "result",
          "type": "bytes32"
        }
      ],
      "payable": false,
      "stateMutability": "pure",
      "type": "function"
    }
  ],
  "bytecode": "0x610104610030600b82828239805160001a6073146000811461002057610022565bfe5b5030600052607381538281f300730000000000000000000000000000000000000000301460806040526004361060555763ffffffff7c010000000000000000000000000000000000000000000000000000000060003504166347f534318114605a575b600080fd5b6040805160206004803580820135601f810184900484028501840190955284845260a494369492936024939284019190819084018382808284375094975060b69650505050505050565b60408051918252519081900360200190f35b80516000908290151560ca576000915060d2565b602083015191505b509190505600a165627a7a72305820f219d0fcf47e15a1cfe8159385701e9736a76d2c023ae64512d32a734b256e3d0029",
  "source": "pragma solidity 0.4.25;\n\n/*\n\nhttps://github.com/GNSPS/solidity-bytes-utils/\n\nThis is free and unencumbered software released into the public domain.\n\nAnyone is free to copy, modify, publish, use, compile, sell, or\ndistribute this software, either in source code form or as a compiled\nbinary, for any purpose, commercial or non-commercial, and by any\nmeans.\n\nIn jurisdictions that recognize copyright laws, the author or authors\nof this software dedicate any and all copyright interest in the\nsoftware to the public domain. We make this dedication for the benefit\nof the public at large and to the detriment of our heirs and\nsuccessors. We intend this dedication to be an overt act of\nrelinquishment in perpetuity of all present and future rights to this\nsoftware under copyright law.\n\nTHE SOFTWARE IS PROVIDED \"AS IS\", WITHOUT WARRANTY OF ANY KIND,\nEXPRESS OR IMPLIED, INCLUDING BUT NOT LIMITED TO THE WARRANTIES OF\nMERCHANTABILITY, FITNESS FOR A PARTICULAR PURPOSE AND NONINFRINGEMENT.\nIN NO EVENT SHALL THE AUTHORS BE LIABLE FOR ANY CLAIM, DAMAGES OR\nOTHER LIABILITY, WHETHER IN AN ACTION OF CONTRACT, TORT OR OTHERWISE,\nARISING FROM, OUT OF OR IN CONNECTION WITH THE SOFTWARE OR THE USE OR\nOTHER DEALINGS IN THE SOFTWARE.\n\nFor more information, please refer to <https://unlicense.org>\n*/\n\n\n/** @title BytesLib **/\n/** @author https://github.com/GNSPS **/\n\nlibrary BytesLib {\n    function concat(bytes memory _preBytes, bytes memory _postBytes) internal pure returns (bytes) {\n        bytes memory tempBytes;\n\n        assembly {\n            // Get a location of some free memory and store it in tempBytes as\n            // Solidity does for memory variables.\n            tempBytes := mload(0x40)\n\n            // Store the length of the first bytes array at the beginning of\n            // the memory for tempBytes.\n            let length := mload(_preBytes)\n            mstore(tempBytes, length)\n\n            // Maintain a memory counter for the current write location in the\n            // temp bytes array by adding the 32 bytes for the array length to\n            // the starting location.\n            let mc := add(tempBytes, 0x20)\n            // Stop copying when the memory counter reaches the length of the\n            // first bytes array.\n            let end := add(mc, length)\n\n            for {\n                // Initialize a copy counter to the start of the _preBytes data,\n                // 32 bytes into its memory.\n                let cc := add(_preBytes, 0x20)\n            } lt(mc, end) {\n                // Increase both counters by 32 bytes each iteration.\n                mc := add(mc, 0x20)\n                cc := add(cc, 0x20)\n            } {\n                // Write the _preBytes data into the tempBytes memory 32 bytes\n                // at a time.\n                mstore(mc, mload(cc))\n            }\n\n            // Add the length of _postBytes to the current length of tempBytes\n            // and store it as the new length in the first 32 bytes of the\n            // tempBytes memory.\n            length := mload(_postBytes)\n            mstore(tempBytes, add(length, mload(tempBytes)))\n\n            // Move the memory counter back from a multiple of 0x20 to the\n            // actual end of the _preBytes data.\n            mc := end\n            // Stop copying when the memory counter reaches the new combined\n            // length of the arrays.\n            end := add(mc, length)\n\n            for {\n                let cc := add(_postBytes, 0x20)\n            } lt(mc, end) {\n                mc := add(mc, 0x20)\n                cc := add(cc, 0x20)\n            } {\n                mstore(mc, mload(cc))\n            }\n\n            // Update the free-memory pointer by padding our last write location\n            // to 32 bytes: add 31 bytes to the end of tempBytes to move to the\n            // next 32 byte block, then round down to the nearest multiple of\n            // 32. If the sum of the length of the two arrays is zero then add\n            // one before rounding down to leave a blank 32 bytes (the length block with 0).\n            mstore(0x40, and(\n                add(add(end, iszero(add(length, mload(_preBytes)))), 31),\n                not(31) // Round down to the nearest 32 bytes.\n            ))\n        }\n\n        return tempBytes;\n    }\n\n    function concatStorage(bytes storage _preBytes, bytes memory _postBytes) internal {\n        assembly {\n            // Read the first 32 bytes of _preBytes storage, which is the length\n            // of the array. (We don't need to use the offset into the slot\n            // because arrays use the entire slot.)\n            let fslot := sload(_preBytes_slot)\n            // Arrays of 31 bytes or less have an even value in their slot,\n            // while longer arrays have an odd value. The actual length is\n            // the slot divided by two for odd values, and the lowest order\n            // byte divided by two for even values.\n            // If the slot is even, bitwise and the slot with 255 and divide by\n            // two to get the length. If the slot is odd, bitwise and the slot\n            // with -1 and divide by two.\n            let slength := div(and(fslot, sub(mul(0x100, iszero(and(fslot, 1))), 1)), 2)\n            let mlength := mload(_postBytes)\n            let newlength := add(slength, mlength)\n            // slength can contain both the length and contents of the array\n            // if length < 32 bytes so let's prepare for that\n            // v. http://solidity.readthedocs.io/en/latest/miscellaneous.html#layout-of-state-variables-in-storage\n            switch add(lt(slength, 32), lt(newlength, 32))\n            case 2 {\n                // Since the new array still fits in the slot, we just need to\n                // update the contents of the slot.\n                // uint256(bytes_storage) = uint256(bytes_storage) + uint256(bytes_memory) + new_length\n                sstore(\n                    _preBytes_slot,\n                    // all the modifications to the slot are inside this\n                    // next block\n                    add(\n                        // we can just add to the slot contents because the\n                        // bytes we want to change are the LSBs\n                        fslot,\n                        add(\n                            mul(\n                                div(\n                                    // load the bytes from memory\n                                    mload(add(_postBytes, 0x20)),\n                                    // zero all bytes to the right\n                                    exp(0x100, sub(32, mlength))\n                        ),\n                        // and now shift left the number of bytes to\n                        // leave space for the length in the slot\n                        exp(0x100, sub(32, newlength))\n                        ),\n                        // increase length by the double of the memory\n                        // bytes length\n                        mul(mlength, 2)\n                        )\n                    )\n                )\n            }\n            case 1 {\n                // The stored value fits in the slot, but the combined value\n                // will exceed it.\n                // get the keccak hash to get the contents of the array\n                mstore(0x0, _preBytes_slot)\n                let sc := add(keccak256(0x0, 0x20), div(slength, 32))\n\n                // save new length\n                sstore(_preBytes_slot, add(mul(newlength, 2), 1))\n\n                // The contents of the _postBytes array start 32 bytes into\n                // the structure. Our first read should obtain the `submod`\n                // bytes that can fit into the unused space in the last word\n                // of the stored array. To get this, we read 32 bytes starting\n                // from `submod`, so the data we read overlaps with the array\n                // contents by `submod` bytes. Masking the lowest-order\n                // `submod` bytes allows us to add that value directly to the\n                // stored value.\n\n                let submod := sub(32, slength)\n                let mc := add(_postBytes, submod)\n                let end := add(_postBytes, mlength)\n                let mask := sub(exp(0x100, submod), 1)\n\n                sstore(\n                    sc,\n                    add(\n                        and(\n                            fslot,\n                            0xffffffffffffffffffffffffffffffffffffffffffffffffffffffffffffff00\n                    ),\n                    and(mload(mc), mask)\n                    )\n                )\n\n                for {\n                    mc := add(mc, 0x20)\n                    sc := add(sc, 1)\n                } lt(mc, end) {\n                    sc := add(sc, 1)\n                    mc := add(mc, 0x20)\n                } {\n                    sstore(sc, mload(mc))\n                }\n\n                mask := exp(0x100, sub(mc, end))\n\n                sstore(sc, mul(div(mload(mc), mask), mask))\n            }\n            default {\n                // get the keccak hash to get the contents of the array\n                mstore(0x0, _preBytes_slot)\n                // Start copying to the last used word of the stored array.\n                let sc := add(keccak256(0x0, 0x20), div(slength, 32))\n\n                // save new length\n                sstore(_preBytes_slot, add(mul(newlength, 2), 1))\n\n                // Copy over the first `submod` bytes of the new data as in\n                // case 1 above.\n                let slengthmod := mod(slength, 32)\n                let mlengthmod := mod(mlength, 32)\n                let submod := sub(32, slengthmod)\n                let mc := add(_postBytes, submod)\n                let end := add(_postBytes, mlength)\n                let mask := sub(exp(0x100, submod), 1)\n\n                sstore(sc, add(sload(sc), and(mload(mc), mask)))\n\n                for {\n                    sc := add(sc, 1)\n                    mc := add(mc, 0x20)\n                } lt(mc, end) {\n                    sc := add(sc, 1)\n                    mc := add(mc, 0x20)\n                } {\n                    sstore(sc, mload(mc))\n                }\n\n                mask := exp(0x100, sub(mc, end))\n\n                sstore(sc, mul(div(mload(mc), mask), mask))\n            }\n        }\n    }\n\n    function slice(bytes _bytes, uint _start, uint _length) internal  pure returns (bytes) {\n        require(_bytes.length >= (_start + _length), \"Slice out of bounds\");\n\n        bytes memory tempBytes;\n\n        assembly {\n            switch iszero(_length)\n            case 0 {\n                // Get a location of some free memory and store it in tempBytes as\n                // Solidity does for memory variables.\n                tempBytes := mload(0x40)\n\n                // The first word of the slice result is potentially a partial\n                // word read from the original array. To read it, we calculate\n                // the length of that partial word and start copying that many\n                // bytes into the array. The first word we copy will start with\n                // data we don't care about, but the last `lengthmod` bytes will\n                // land at the beginning of the contents of the new array. When\n                // we're done copying, we overwrite the full first word with\n                // the actual length of the slice.\n                let lengthmod := and(_length, 31)\n\n                // The multiplication in the next line is necessary\n                // because when slicing multiples of 32 bytes (lengthmod == 0)\n                // the following copy loop was copying the origin's length\n                // and then ending prematurely not copying everything it should.\n                let mc := add(add(tempBytes, lengthmod), mul(0x20, iszero(lengthmod)))\n                let end := add(mc, _length)\n\n                for {\n                    // The multiplication in the next line has the same exact purpose\n                    // as the one above.\n                    let cc := add(add(add(_bytes, lengthmod), mul(0x20, iszero(lengthmod))), _start)\n                } lt(mc, end) {\n                    mc := add(mc, 0x20)\n                    cc := add(cc, 0x20)\n                } {\n                    mstore(mc, mload(cc))\n                }\n\n                mstore(tempBytes, _length)\n\n                //update free-memory pointer\n                //allocating the array padded to 32 bytes like the compiler does now\n                mstore(0x40, and(add(mc, 31), not(31)))\n            }\n            //if we want a zero-length slice let's just return a zero-length array\n            default {\n                tempBytes := mload(0x40)\n\n                mstore(0x40, add(tempBytes, 0x20))\n            }\n        }\n\n        return tempBytes;\n    }\n\n    function toAddress(bytes _bytes, uint _start) internal  pure returns (address) {\n        require(_bytes.length >= (_start + 20), \"Address conversion out of bounds.\");\n        address tempAddress;\n\n        assembly {\n            tempAddress := div(mload(add(add(_bytes, 0x20), _start)), 0x1000000000000000000000000)\n        }\n\n        return tempAddress;\n    }\n\n    function toUint(bytes _bytes, uint _start) internal  pure returns (uint256) {\n        require(_bytes.length >= (_start + 32), \"Uint conversion out of bounds.\");\n        uint256 tempUint;\n\n        assembly {\n            tempUint := mload(add(add(_bytes, 0x20), _start))\n        }\n\n        return tempUint;\n    }\n\n    function equal(bytes memory _preBytes, bytes memory _postBytes) internal pure returns (bool) {\n        bool success = true;\n\n        assembly {\n            let length := mload(_preBytes)\n\n            // if lengths don't match the arrays are not equal\n            switch eq(length, mload(_postBytes))\n            case 1 {\n                // cb is a circuit breaker in the for loop since there's\n                //  no said feature for inline assembly loops\n                // cb = 1 - don't breaker\n                // cb = 0 - break\n                let cb := 1\n\n                let mc := add(_preBytes, 0x20)\n                let end := add(mc, length)\n\n                for {\n                    let cc := add(_postBytes, 0x20)\n                    // the next line is the loop condition:\n                    // while(uint(mc < end) + cb == 2)\n                } eq(add(lt(mc, end), cb), 2) {\n                    mc := add(mc, 0x20)\n                    cc := add(cc, 0x20)\n                } {\n                    // if any of these checks fails then arrays are not equal\n                    if iszero(eq(mload(mc), mload(cc))) {\n                        // unsuccess:\n                        success := 0\n                        cb := 0\n                    }\n                }\n            }\n            default {\n                // unsuccess:\n                success := 0\n            }\n        }\n\n        return success;\n    }\n\n    function equalStorage(bytes storage _preBytes, bytes memory _postBytes) internal view returns (bool) {\n        bool success = true;\n\n        assembly {\n            // we know _preBytes_offset is 0\n            let fslot := sload(_preBytes_slot)\n            // Decode the length of the stored array like in concatStorage().\n            let slength := div(and(fslot, sub(mul(0x100, iszero(and(fslot, 1))), 1)), 2)\n            let mlength := mload(_postBytes)\n\n            // if lengths don't match the arrays are not equal\n            switch eq(slength, mlength)\n            case 1 {\n                // slength can contain both the length and contents of the array\n                // if length < 32 bytes so let's prepare for that\n                // v. http://solidity.readthedocs.io/en/latest/miscellaneous.html#layout-of-state-variables-in-storage\n                if iszero(iszero(slength)) {\n                    switch lt(slength, 32)\n                    case 1 {\n                        // blank the last byte which is the length\n                        fslot := mul(div(fslot, 0x100), 0x100)\n\n                        if iszero(eq(fslot, mload(add(_postBytes, 0x20)))) {\n                            // unsuccess:\n                            success := 0\n                        }\n                    }\n                    default {\n                        // cb is a circuit breaker in the for loop since there's\n                        //  no said feature for inline assembly loops\n                        // cb = 1 - don't breaker\n                        // cb = 0 - break\n                        let cb := 1\n\n                        // get the keccak hash to get the contents of the array\n                        mstore(0x0, _preBytes_slot)\n                        let sc := keccak256(0x0, 0x20)\n\n                        let mc := add(_postBytes, 0x20)\n                        let end := add(mc, mlength)\n\n                        // the next line is the loop condition:\n                        // while(uint(mc < end) + cb == 2)\n                        for {} eq(add(lt(mc, end), cb), 2) {\n                            sc := add(sc, 1)\n                            mc := add(mc, 0x20)\n                        } {\n                            if iszero(eq(sload(sc), mload(mc))) {\n                                // unsuccess:\n                                success := 0\n                                cb := 0\n                            }\n                        }\n                    }\n                }\n            }\n            default {\n                // unsuccess:\n                success := 0\n            }\n        }\n\n        return success;\n    }\n\n    function toBytes32(bytes memory _source) pure public returns (bytes32 result) {\n        bytes memory tempEmptyStringTest = bytes(_source);\n        if (tempEmptyStringTest.length == 0) {\n            return 0x0;\n        }\n\n        assembly {\n            result := mload(add(_source, 32))\n        }\n    }\n}\n",
  "sourcePath": "/Users/liamz/go/src/github.com/keep-network/tbtc/implementation/contracts/bitcoin-spv/BytesLib.sol",
  "compiler": {
    "name": "solc",
    "version": "0.4.25+commit.59dbf8f1.Emscripten.clang"
  },
  "schemaVersion": "3.0.10",
  "updatedAt": "2019-07-19T12:16:35.440Z",
  "devdoc": {
    "author": "https://github.com/GNSPS *",
    "methods": {}
  },
  "userdoc": {
    "methods": {}
  }
}