{
  "contractName": "DepositFunding",
  "abi": [
    {
      "constant": false,
      "inputs": [
        {
          "name": "_d",
          "type": "DepositUtils.Deposit storage"
        }
      ],
      "name": "fundingTeardown",
      "outputs": [],
      "payable": false,
      "stateMutability": "nonpayable",
      "type": "function"
    },
    {
      "constant": false,
      "inputs": [
        {
          "name": "_d",
          "type": "DepositUtils.Deposit storage"
        }
      ],
      "name": "fundingFraudTeardown",
      "outputs": [],
      "payable": false,
      "stateMutability": "nonpayable",
      "type": "function"
    },
    {
      "constant": true,
      "inputs": [
        {
          "name": "_d",
          "type": "DepositUtils.Deposit storage"
        }
      ],
      "name": "getKeepPubkeyResult",
      "outputs": [
        {
          "name": "",
          "type": "bytes"
        }
      ],
      "payable": false,
      "stateMutability": "view",
      "type": "function"
    },
    {
      "constant": false,
      "inputs": [
        {
          "name": "_d",
          "type": "DepositUtils.Deposit storage"
        },
        {
          "name": "_m",
          "type": "uint256"
        },
        {
          "name": "_n",
          "type": "uint256"
        }
      ],
      "name": "createNewDeposit",
      "outputs": [
        {
          "name": "",
          "type": "bool"
        }
      ],
      "payable": false,
      "stateMutability": "nonpayable",
      "type": "function"
    },
    {
      "constant": false,
      "inputs": [
        {
          "name": "_d",
          "type": "DepositUtils.Deposit storage"
        }
      ],
      "name": "revokeFunderBond",
      "outputs": [],
      "payable": false,
      "stateMutability": "nonpayable",
      "type": "function"
    },
    {
      "constant": false,
      "inputs": [
        {
          "name": "_d",
          "type": "DepositUtils.Deposit storage"
        }
      ],
      "name": "returnFunderBond",
      "outputs": [],
      "payable": false,
      "stateMutability": "nonpayable",
      "type": "function"
    },
    {
      "constant": false,
      "inputs": [
        {
          "name": "_d",
          "type": "DepositUtils.Deposit storage"
        }
      ],
      "name": "partiallySlashForFraudInFunding",
      "outputs": [],
      "payable": false,
      "stateMutability": "nonpayable",
      "type": "function"
    },
    {
      "constant": false,
      "inputs": [
        {
          "name": "_d",
          "type": "DepositUtils.Deposit storage"
        }
      ],
      "name": "distributeSignerBondsToFunder",
      "outputs": [],
      "payable": false,
      "stateMutability": "nonpayable",
      "type": "function"
    },
    {
      "constant": true,
      "inputs": [
        {
          "name": "_d",
          "type": "DepositUtils.Deposit storage"
        },
        {
          "name": "_bitcoinTx",
          "type": "bytes"
        }
      ],
      "name": "findAndParseFundingOutput",
      "outputs": [
        {
          "name": "",
          "type": "bytes8"
        },
        {
          "name": "",
          "type": "uint8"
        }
      ],
      "payable": false,
      "stateMutability": "view",
      "type": "function"
    },
    {
      "constant": true,
      "inputs": [
        {
          "name": "_d",
          "type": "DepositUtils.Deposit storage"
        },
        {
          "name": "_bitcoinTx",
          "type": "bytes"
        },
        {
          "name": "_merkleProof",
          "type": "bytes"
        },
        {
          "name": "_index",
          "type": "uint256"
        },
        {
          "name": "_bitcoinHeaders",
          "type": "bytes"
        }
      ],
      "name": "validateAndParseFundingSPVProof",
      "outputs": [
        {
          "name": "_valueBytes",
          "type": "bytes8"
        },
        {
          "name": "_outpoint",
          "type": "bytes"
        }
      ],
      "payable": false,
      "stateMutability": "view",
      "type": "function"
    },
    {
      "constant": false,
      "inputs": [
        {
          "name": "_d",
          "type": "DepositUtils.Deposit storage"
        }
      ],
      "name": "notifySignerSetupFailure",
      "outputs": [],
      "payable": false,
      "stateMutability": "nonpayable",
      "type": "function"
    },
    {
      "constant": false,
      "inputs": [
        {
          "name": "_d",
          "type": "DepositUtils.Deposit storage"
        }
      ],
      "name": "retrieveSignerPubkey",
      "outputs": [],
      "payable": false,
      "stateMutability": "nonpayable",
      "type": "function"
    },
    {
      "constant": false,
      "inputs": [
        {
          "name": "_d",
          "type": "DepositUtils.Deposit storage"
        }
      ],
      "name": "notifyFundingTimeout",
      "outputs": [],
      "payable": false,
      "stateMutability": "nonpayable",
      "type": "function"
    },
    {
      "constant": false,
      "inputs": [
        {
          "name": "_d",
          "type": "DepositUtils.Deposit storage"
        },
        {
          "name": "_v",
          "type": "uint8"
        },
        {
          "name": "_r",
          "type": "bytes32"
        },
        {
          "name": "_s",
          "type": "bytes32"
        },
        {
          "name": "_signedDigest",
          "type": "bytes32"
        },
        {
          "name": "_preimage",
          "type": "bytes"
        }
      ],
      "name": "provideFundingECDSAFraudProof",
      "outputs": [],
      "payable": false,
      "stateMutability": "nonpayable",
      "type": "function"
    },
    {
      "constant": false,
      "inputs": [
        {
          "name": "_d",
          "type": "DepositUtils.Deposit storage"
        }
      ],
      "name": "notifyFraudFundingTimeout",
      "outputs": [],
      "payable": false,
      "stateMutability": "nonpayable",
      "type": "function"
    },
    {
      "constant": false,
      "inputs": [
        {
          "name": "_d",
          "type": "DepositUtils.Deposit storage"
        },
        {
          "name": "_bitcoinTx",
          "type": "bytes"
        },
        {
          "name": "_merkleProof",
          "type": "bytes"
        },
        {
          "name": "_index",
          "type": "uint256"
        },
        {
          "name": "_bitcoinHeaders",
          "type": "bytes"
        }
      ],
      "name": "provideFraudBTCFundingProof",
      "outputs": [
        {
          "name": "",
          "type": "bool"
        }
      ],
      "payable": false,
      "stateMutability": "nonpayable",
      "type": "function"
    },
    {
      "constant": false,
      "inputs": [
        {
          "name": "_d",
          "type": "DepositUtils.Deposit storage"
        },
        {
          "name": "_bitcoinTx",
          "type": "bytes"
        },
        {
          "name": "_merkleProof",
          "type": "bytes"
        },
        {
          "name": "_index",
          "type": "uint256"
        },
        {
          "name": "_bitcoinHeaders",
          "type": "bytes"
        }
      ],
      "name": "provideBTCFundingProof",
      "outputs": [
        {
          "name": "",
          "type": "bool"
        }
      ],
      "payable": false,
      "stateMutability": "nonpayable",
      "type": "function"
    }
  ],
  "bytecode": "0x61390c610030600b82828239805160001a6073146000811461002057610022565bfe5b5030600052607381538281f30073000000000000000000000000000000000000000030146080604052600436106100ee5763ffffffff60e060020a60003504166309ab65f581146100f357806346334ab914610125578063490f78711461013f5780635347b1de146101575780638a7ea3c01461016f578063b818935f14610187578063b8c01c441461019f578063bb21d0241461021f578063c5db658014610237578063ca174dd9146102bf578063cd40cc64146102d7578063df99def1146102ef578063e82b8cd414610307578063fb12d9df1461031f578063fb8d245d1461038e578063fe9834bb146104fb578063fed4bcdf146105db575b600080fd5b8180156100ff57600080fd5b506101116004356024356044356106bb565b604080519115158252519081900360200190f35b81801561013157600080fd5b5061013d600435610946565b005b81801561014b57600080fd5b5061013d600435610957565b81801561016357600080fd5b5061013d600435610be9565b81801561017b57600080fd5b5061013d600435610ec4565b81801561019357600080fd5b5061013d60043561101d565b6101aa600435611242565b6040805160208082528351818301528351919283929083019185019080838360005b838110156101e45781810151838201526020016101cc565b50505050905090810190601f1680156102115780820380516001836020036101000a031916815260200191505b509250505060405180910390f35b81801561022b57600080fd5b5061013d6004356113c5565b60408051602060046024803582810135601f810185900485028601850190965285855261028895833595369560449491939091019190819084018382808284375094975061187b9650505050505050565b6040805177ffffffffffffffffffffffffffffffffffffffffffffffff19909316835260ff90911660208301528051918290030190f35b8180156102cb57600080fd5b5061013d600435611f51565b8180156102e357600080fd5b5061013d600435611f77565b8180156102fb57600080fd5b5061013d600435612223565b81801561031357600080fd5b5061013d6004356124b5565b81801561032b57600080fd5b50604080516020600460a43581810135601f810184900484028501840190955284845261013d948235946024803560ff16956044359560643595608435953695929460c49492019181908401838280828437509497506127439650505050505050565b60408051602060046024803582810135601f810185900485028601850190965285855261046195833595369560449491939091019190819084018382808284375050604080516020601f89358b018035918201839004830284018301909452808352979a99988101979196509182019450925082915084018382808284375050604080516020601f818a01358b0180359182018390048302840183018552818452989b8a359b909a909994019750919550918201935091508190840183828082843750949750612caa9650505050505050565b6040805177ffffffffffffffffffffffffffffffffffffffffffffffff198416815260208082018381528451938301939093528351919291606084019185019080838360005b838110156104bf5781810151838201526020016104a7565b50505050905090810190601f1680156104ec5780820380516001836020036101000a031916815260200191505b50935050505060405180910390f35b81801561050757600080fd5b5060408051602060046024803582810135601f810185900485028601850190965285855261011195833595369560449491939091019190819084018382808284375050604080516020601f89358b018035918201839004830284018301909452808352979a99988101979196509182019450925082915084018382808284375050604080516020601f818a01358b0180359182018390048302840183018552818452989b8a359b909a90999401975091955091820193509150819084018382808284375094975061305e9650505050505050565b8180156105e757600080fd5b5060408051602060046024803582810135601f810185900485028601850190965285855261011195833595369560449491939091019190819084018382808284375050604080516020601f89358b018035918201839004830284018301909452808352979a99988101979196509182019450925082915084018382808284375050604080516020601f818a01358b0180359182018390048302840183018552818452989b8a359b909a9099940197509195509182019350915081908401838280828437509497506132829650505050505050565b6000808473__DepositStates_________________________63652d343090916040518263ffffffff1660e060020a0281526004018082815260200191505060206040518083038186803b15801561071257600080fd5b505af4158015610726573d6000803e3d6000fd5b505050506040513d602081101561073c57600080fd5b50511515610794576040805160e560020a62461bcd02815260206004820152601f60248201527f4465706f73697420736574757020616c72656164792072657175657374656400604482015290519081900360640190fd5b506002840154604080517f36a10efd00000000000000000000000000000000000000000000000000000000815260048101869052602481018590529051600160a060020a039092169182916336a10efd91349160448082019260209290919082900301818588803b15801561080857600080fd5b505af115801561081c573d6000803e3d6000fd5b50505050506040513d602081101561083357600080fd5b50516005860155426006860155604080517f16cddf4e00000000000000000000000000000000000000000000000000000000815260048101879052905173__DepositStates_________________________916316cddf4e916024808301926000929190829003018186803b1580156108ab57600080fd5b505af41580156108bf573d6000803e3d6000fd5b505050508473__OutsourceDepositLogging_______________63cac90dc3909187600501546040518363ffffffff1660e060020a028152600401808381526020018281526020019250505060006040518083038186803b15801561092357600080fd5b505af4158015610937573d6000803e3d6000fd5b50600198975050505050505050565b600060068201819055600790910155565b8073__DepositStates_________________________6327f2744990916040518263ffffffff1660e060020a0281526004018082815260200191505060206040518083038186803b1580156109ab57600080fd5b505af41580156109bf573d6000803e3d6000fd5b505050506040513d60208110156109d557600080fd5b50511515610a2d576040805160e560020a62461bcd02815260206004820152601f60248201527f46756e64696e672074696d656f757420686173206e6f74207374617274656400604482015290519081900360640190fd5b73__TBTCConstants_________________________6338c860936040518163ffffffff1660e060020a02815260040160206040518083038186803b158015610a7457600080fd5b505af4158015610a88573d6000803e3d6000fd5b505050506040513d6020811015610a9e57600080fd5b50516007820154014211610afc576040805160e560020a62461bcd02815260206004820181905260248201527f46756e64696e672074696d656f757420686173206e6f7420656c61707365642e604482015290519081900360640190fd5b8073__DepositStates_________________________636fdbb3c490916040518263ffffffff1660e060020a0281526004018082815260200191505060006040518083038186803b158015610b5057600080fd5b505af4158015610b64573d6000803e3d6000fd5b505050508073__OutsourceDepositLogging_______________63cebb22f590916040518263ffffffff1660e060020a0281526004018082815260200191505060006040518083038186803b158015610bbc57600080fd5b505af4158015610bd0573d6000803e3d6000fd5b50505050610bdd8161101d565b610be681610946565b50565b8073__DepositStates_________________________6376fa990290916040518263ffffffff1660e060020a0281526004018082815260200191505060206040518083038186803b158015610c3d57600080fd5b505af4158015610c51573d6000803e3d6000fd5b505050506040513d6020811015610c6757600080fd5b50511515610ce5576040805160e560020a62461bcd02815260206004820152603260248201527f4e6f742063757272656e746c79206177616974696e672066726175642d72656c60448201527f617465642066756e64696e672070726f6f660000000000000000000000000000606482015290519081900360840190fd5b73__TBTCConstants_________________________63cdf950506040518163ffffffff1660e060020a02815260040160206040518083038186803b158015610d2c57600080fd5b505af4158015610d40573d6000803e3d6000fd5b505050506040513d6020811015610d5657600080fd5b50516007820154014211610dda576040805160e560020a62461bcd02815260206004820152602b60248201527f46726175642066756e64696e672070726f6f662074696d656f7574206861732060448201527f6e6f7420656c6170736564000000000000000000000000000000000000000000606482015290519081900360840190fd5b8073__DepositStates_________________________636fdbb3c490916040518263ffffffff1660e060020a0281526004018082815260200191505060006040518083038186803b158015610e2e57600080fd5b505af4158015610e42573d6000803e3d6000fd5b505050508073__OutsourceDepositLogging_______________63cebb22f590916040518263ffffffff1660e060020a0281526004018082815260200191505060006040518083038186803b158015610e9a57600080fd5b505af4158015610eae573d6000803e3d6000fd5b50505050610ebb81612223565b610be681611f51565b60008173__DepositUtils__________________________63f6d3e5b990916040518263ffffffff1660e060020a0281526004018082815260200191505060206040518083038186803b158015610f1a57600080fd5b505af4158015610f2e573d6000803e3d6000fd5b505050506040513d6020811015610f4457600080fd5b5051604080517f65fbe4bd00000000000000000000000000000000000000000000000000000000815260048101859052905191925073__DepositUtils__________________________916365fbe4bd91602480820192602092909190829003018186803b158015610fb557600080fd5b505af4158015610fc9573d6000803e3d6000fd5b505050506040513d6020811015610fdf57600080fd5b5051604051600160a060020a039091169082156108fc029083906000818181858888f19350505050158015611018573d6000803e3d6000fd5b505050565b73__TBTCConstants_________________________634145cf8e6040518163ffffffff1660e060020a02815260040160206040518083038186803b15801561106457600080fd5b505af4158015611078573d6000803e3d6000fd5b505050506040513d602081101561108e57600080fd5b505130311061119c578073__DepositUtils__________________________63cd2acda8909173__TBTCConstants_________________________634145cf8e6040518163ffffffff1660e060020a02815260040160206040518083038186803b1580156110fb57600080fd5b505af415801561110f573d6000803e3d6000fd5b505050506040513d602081101561112557600080fd5b50516040805160e060020a63ffffffff861602815260048101939093526024830191909152516044808301926020929190829003018186803b15801561116a57600080fd5b505af415801561117e573d6000803e3d6000fd5b505050506040513d602081101561119457600080fd5b50610be69050565b600030311115610be657604080517fcd2acda80000000000000000000000000000000000000000000000000000000081526004810183905230316024820152905173__DepositUtils__________________________9163cd2acda8916044808301926020929190829003018186803b15801561121857600080fd5b505af415801561122c573d6000803e3d6000fd5b505050506040513d602081101561101857600080fd5b60028101546005820154604080517f0792c96b000000000000000000000000000000000000000000000000000000008152600481019290925251606092600160a060020a03169183918391630792c96b91602480830192600092919082900301818387803b1580156112b357600080fd5b505af11580156112c7573d6000803e3d6000fd5b505050506040513d6000823e601f3d908101601f1916820160405260208110156112f057600080fd5b81019080805164010000000081111561130857600080fd5b8201602081018481111561131b57600080fd5b815164010000000081118282018710171561133557600080fd5b5050805190945060401492506113be915050576040805160e560020a62461bcd02815260206004820152602760248201527f7075626c6963206b6579206e6f7420736574206f72206e6f742036342d62797460448201527f6573206c6f6e6700000000000000000000000000000000000000000000000000606482015290519081900360840190fd5b9392505050565b60608173__DepositStates_________________________63b5e6a0a090916040518263ffffffff1660e060020a0281526004018082815260200191505060206040518083038186803b15801561141b57600080fd5b505af415801561142f573d6000803e3d6000fd5b505050506040513d602081101561144557600080fd5b505115156114c3576040805160e560020a62461bcd02815260206004820152602360248201527f4e6f742063757272656e746c79206177616974696e67207369676e657220736560448201527f7475700000000000000000000000000000000000000000000000000000000000606482015290519081900360840190fd5b6114cc82611242565b90506114e1816000602063ffffffff61368b16565b6040517f47f5343100000000000000000000000000000000000000000000000000000000815260206004820181815283516024840152835173__BytesLib______________________________946347f5343194909383926044909201919085019080838360005b83811015611561578181015183820152602001611549565b50505050905090810190601f16801561158e5780820380516001836020036101000a031916815260200191505b509250505060206040518083038186803b1580156115ab57600080fd5b505af41580156115bf573d6000803e3d6000fd5b505050506040513d60208110156115d557600080fd5b505160088301556115ee8160208063ffffffff61368b16565b6040517f47f5343100000000000000000000000000000000000000000000000000000000815260206004820181815283516024840152835173__BytesLib______________________________946347f5343194909383926044909201919085019080838360005b8381101561166e578181015183820152602001611656565b50505050905090810190601f16801561169b5780820380516001836020036101000a031916815260200191505b509250505060206040518083038186803b1580156116b857600080fd5b505af41580156116cc573d6000803e3d6000fd5b505050506040513d60208110156116e257600080fd5b505160098301819055158015906116fc5750600882015415155b1515611752576040805160e560020a62461bcd02815260206004820152601860248201527f4b6565702072657475726e656420626164207075626b65790000000000000000604482015290519081900360640190fd5b426007830155604080517f8be5e97f00000000000000000000000000000000000000000000000000000000815260048101849052905173__DepositStates_________________________91638be5e97f916024808301926000929190829003018186803b1580156117c357600080fd5b505af41580156117d7573d6000803e3d6000fd5b5050505060088201546009830154604080517f4a79927800000000000000000000000000000000000000000000000000000000815260048101869052602481019390935260448301919091525173__OutsourceDepositLogging_______________91634a799278916064808301926000929190829003018186803b15801561185f57600080fd5b505af4158015611873573d6000803e3d6000fd5b505050505050565b600080806060815b6040517f379cf68c00000000000000000000000000000000000000000000000000000000815260206004820181815288516024840152885173__BTCUtils______________________________9363379cf68c938b939283926044019185019080838360005b838110156119015781810151838201526020016118e9565b50505050905090810190601f16801561192e5780820380516001836020036101000a031916815260200191505b509250505060206040518083038186803b15801561194b57600080fd5b505af415801561195f573d6000803e3d6000fd5b505050506040513d602081101561197557600080fd5b505160ff9081169082161015611ed257604080517e9941a600000000000000000000000000000000000000000000000000000000815260ff831660248201526004810191825287516044820152875173__BTCUtils______________________________92629941a6928a928692918291606490910190602086019080838360005b83811015611a0f5781810151838201526020016119f7565b50505050905090810190601f168015611a3c5780820380516001836020036101000a031916815260200191505b50935050505060006040518083038186803b158015611a5a57600080fd5b505af4158015611a6e573d6000803e3d6000fd5b505050506040513d6000823e601f3d908101601f191682016040526020811015611a9757600080fd5b810190808051640100000000811115611aaf57600080fd5b82016020810184811115611ac257600080fd5b8151640100000000811182820187101715611adc57600080fd5b5050604080517fe0dfd81a000000000000000000000000000000000000000000000000000000008152600481018d9052905191965073__DepositUtils__________________________945063e0dfd81a93506024808201935060209291829003018186803b158015611b4e57600080fd5b505af4158015611b62573d6000803e3d6000fd5b505050506040513d6020811015611b7857600080fd5b5051604080516bffffffffffffffffffffffff1990921660208381019190915281518084036014018152603490930191829052825182918401908083835b60208310611bd55780518252601f199092019160209182019101611bb6565b51815160209384036101000a60001901801990921691161790526040519190930181900381207e0c81f40000000000000000000000000000000000000000000000000000000082526004820184815288516024840152885191965073__BTCUtils______________________________9550620c81f4948994509092839260449091019185019080838360005b83811015611c7a578181015183820152602001611c62565b50505050905090810190601f168015611ca75780820380516001836020036101000a031916815260200191505b509250505060006040518083038186803b158015611cc457600080fd5b505af4158015611cd8573d6000803e3d6000fd5b505050506040513d6000823e601f3d908101601f191682016040526020811015611d0157600080fd5b810190808051640100000000811115611d1957600080fd5b82016020810184811115611d2c57600080fd5b8151640100000000811182820187101715611d4657600080fd5b50509291905050506040518082805190602001908083835b60208310611d7d5780518252601f199092019160209182019101611d5e565b6001836020036101000a0380198251168184511680821785525050505050509050019150506040518091039020600019161415611eca57611dc7826000600863ffffffff61368b16565b6040517f47f5343100000000000000000000000000000000000000000000000000000000815260206004820181815283516024840152835173__BytesLib______________________________946347f5343194909383926044909201919085019080838360005b83811015611e47578181015183820152602001611e2f565b50505050905090810190601f168015611e745780820380516001836020036101000a031916815260200191505b509250505060206040518083038186803b158015611e9157600080fd5b505af4158015611ea5573d6000803e3d6000fd5b505050506040513d6020811015611ebb57600080fd5b50519450925083915082611f47565b600101611883565b6040805160e560020a62461bcd028152602060048201526024808201527f446964206e6f742066696e64206f7574707574207769746820636f727265637460448201527f20504b4800000000000000000000000000000000000000000000000000000000606482015290519081900360840190fd5b5050509250929050565b600060058201819055600682018190556007820181905560088201819055600990910155565b8073__DepositStates_________________________63b5e6a0a090916040518263ffffffff1660e060020a0281526004018082815260200191505060206040518083038186803b158015611fcb57600080fd5b505af4158015611fdf573d6000803e3d6000fd5b505050506040513d6020811015611ff557600080fd5b5051151561204d576040805160e560020a62461bcd02815260206004820152601260248201527f4e6f74206177616974696e672073657475700000000000000000000000000000604482015290519081900360640190fd5b73__TBTCConstants_________________________63c342b1f76040518163ffffffff1660e060020a02815260040160206040518083038186803b15801561209457600080fd5b505af41580156120a8573d6000803e3d6000fd5b505050506040513d60208110156120be57600080fd5b50516006820154014211612142576040805160e560020a62461bcd02815260206004820152602f60248201527f5369676e696e672067726f757020666f726d6174696f6e2074696d656f75742060448201527f6e6f742079657420656c61707365640000000000000000000000000000000000606482015290519081900360840190fd5b8073__DepositStates_________________________636fdbb3c490916040518263ffffffff1660e060020a0281526004018082815260200191505060006040518083038186803b15801561219657600080fd5b505af41580156121aa573d6000803e3d6000fd5b505050508073__OutsourceDepositLogging_______________63cebb22f590916040518263ffffffff1660e060020a0281526004018082815260200191505060006040518083038186803b15801561220257600080fd5b505af4158015612216573d6000803e3d6000fd5b50505050610bdd816124b5565b6000808273__DepositUtils__________________________63f6d3e5b990916040518263ffffffff1660e060020a0281526004018082815260200191505060206040518083038186803b15801561227a57600080fd5b505af415801561228e573d6000803e3d6000fd5b505050506040513d60208110156122a457600080fd5b5051604080517f65564920000000000000000000000000000000000000000000000000000000008152905191935061234a9173__TBTCConstants_________________________916365564920916004808301926020929190829003018186803b15801561231157600080fd5b505af4158015612325573d6000803e3d6000fd5b505050506040513d602081101561233b57600080fd5b5051839063ffffffff61375716565b905073__DepositUtils__________________________63cd2acda884612377858563ffffffff61376e16565b6040518363ffffffff1660e060020a028152600401808381526020018281526020019250505060206040518083038186803b1580156123b557600080fd5b505af41580156123c9573d6000803e3d6000fd5b505050506040513d60208110156123df57600080fd5b5050604080517f65fbe4bd00000000000000000000000000000000000000000000000000000000815260048101859052905173__DepositUtils__________________________916365fbe4bd916024808301926020929190829003018186803b15801561244c57600080fd5b505af4158015612460573d6000803e3d6000fd5b505050506040513d602081101561247657600080fd5b5051604051600160a060020a039091169082156108fc029083906000818181858888f193505050501580156124af573d6000803e3d6000fd5b50505050565b73__TBTCConstants_________________________634145cf8e6040518163ffffffff1660e060020a02815260040160206040518083038186803b1580156124fc57600080fd5b505af4158015612510573d6000803e3d6000fd5b505050506040513d602081101561252657600080fd5b505130311061267e578073__DepositUtils__________________________6365fbe4bd90916040518263ffffffff1660e060020a0281526004018082815260200191505060206040518083038186803b15801561258357600080fd5b505af4158015612597573d6000803e3d6000fd5b505050506040513d60208110156125ad57600080fd5b5051604080517f4145cf8e0000000000000000000000000000000000000000000000000000000081529051600160a060020a03909216916108fc9173__TBTCConstants_________________________91634145cf8e91600480820192602092909190829003018186803b15801561262457600080fd5b505af4158015612638573d6000803e3d6000fd5b505050506040513d602081101561264e57600080fd5b50516040518115909202916000818181858888f19350505050158015612678573d6000803e3d6000fd5b50610be6565b600030311115610be6578073__DepositUtils__________________________6365fbe4bd90916040518263ffffffff1660e060020a0281526004018082815260200191505060206040518083038186803b1580156126dc57600080fd5b505af41580156126f0573d6000803e3d6000fd5b505050506040513d602081101561270657600080fd5b5051604051600160a060020a0390911690303180156108fc02916000818181858888f1935050505015801561273f573d6000803e3d6000fd5b5050565b60008673__DepositStates_________________________6327f2744990916040518263ffffffff1660e060020a0281526004018082815260200191505060206040518083038186803b15801561279957600080fd5b505af41580156127ad573d6000803e3d6000fd5b505050506040513d60208110156127c357600080fd5b50511515612867576040805160e560020a62461bcd02815260206004820152604660248201527f5369676e657220667261756420647572696e672066756e64696e6720666c6f7760448201527f206f6e6c7920617661696c61626c65207768696c65206177616974696e67206660648201527f756e64696e670000000000000000000000000000000000000000000000000000608482015290519081900360a40190fd5b6040517f0427cacd0000000000000000000000000000000000000000000000000000000081526004810188815260ff8816602483015260448201879052606482018690526084820185905260c060a48301908152845160c4840152845173__DepositLiquidation____________________93630427cacd938c938c938c938c938c938c939192909160e490910190602085019080838360005b83811015612919578181015183820152602001612901565b50505050905090810190601f1680156129465780820380516001836020036101000a031916815260200191505b5097505050505050505060206040518083038186803b15801561296857600080fd5b505af415801561297c573d6000803e3d6000fd5b505050506040513d602081101561299257600080fd5b505190508015156129ed576040805160e560020a62461bcd02815260206004820152601b60248201527f5369676e6174757265206973206e6f74206672617564756c656e740000000000604482015290519081900360640190fd5b8673__DepositUtils__________________________63f6d3e5b990916040518263ffffffff1660e060020a0281526004018082815260200191505060206040518083038186803b158015612a4157600080fd5b505af4158015612a55573d6000803e3d6000fd5b505050506040513d6020811015612a6b57600080fd5b5050604080517f09d65d2400000000000000000000000000000000000000000000000000000000815260048101899052905173__OutsourceDepositLogging_______________916309d65d24916024808301926000929190829003018186803b158015612ad857600080fd5b505af4158015612aec573d6000803e3d6000fd5b5050505073__TBTCConstants_________________________6338c860936040518163ffffffff1660e060020a02815260040160206040518083038186803b158015612b3757600080fd5b505af4158015612b4b573d6000803e3d6000fd5b505050506040513d6020811015612b6157600080fd5b5051600788015401421115612c0f57604051600090303180156108fc029183818181858288f19350505050158015612b9d573d6000803e3d6000fd5b508673__DepositStates_________________________636fdbb3c490916040518263ffffffff1660e060020a0281526004018082815260200191505060006040518083038186803b158015612bf257600080fd5b505af4158015612c06573d6000803e3d6000fd5b50505050612ca1565b426007880155604080517f28a7a33600000000000000000000000000000000000000000000000000000000815260048101899052905173__DepositStates_________________________916328a7a336916024808301926000929190829003018186803b158015612c8057600080fd5b505af4158015612c94573d6000803e3d6000fd5b50505050612ca1876124b5565b50505050505050565b600060606000808873__DepositUtils__________________________63566d081690918a8a8a8a6040518663ffffffff1660e060020a02815260040180868152602001806020018060200185815260200180602001848103845288818151815260200191508051906020019080838360005b83811015612d35578181015183820152602001612d1d565b50505050905090810190601f168015612d625780820380516001836020036101000a031916815260200191505b50848103835287518152875160209182019189019080838360005b83811015612d95578181015183820152602001612d7d565b50505050905090810190601f168015612dc25780820380516001836020036101000a031916815260200191505b50848103825285518152855160209182019187019080838360005b83811015612df5578181015183820152602001612ddd565b50505050905090810190601f168015612e225780820380516001836020036101000a031916815260200191505b509850505050505050505060206040518083038186803b158015612e4557600080fd5b505af4158015612e59573d6000803e3d6000fd5b505050506040513d6020811015612e6f57600080fd5b50519050612e7d898961187b565b809350819550505073__TBTCConstants_________________________63ecaf1cdf6040518163ffffffff1660e060020a02815260040160206040518083038186803b158015612ecc57600080fd5b505af4158015612ee0573d6000803e3d6000fd5b505050506040513d6020811015612ef657600080fd5b5051604080517f406af69500000000000000000000000000000000000000000000000000000000815277ffffffffffffffffffffffffffffffffffffffffffffffff1987166004820152905173__DepositUtils__________________________9163406af695916024808301926020929190829003018186803b158015612f7d57600080fd5b505af4158015612f91573d6000803e3d6000fd5b505050506040513d6020811015612fa757600080fd5b50511015612fff576040805160e560020a62461bcd02815260206004820152601160248201527f4465706f73697420746f6f20736d616c6c000000000000000000000000000000604482015290519081900360640190fd5b60408051602081019290925260ff929092167f0100000000000000000000000000000000000000000000000000000000000000028183015260006041820152815180820360240181526044909101909152919791965090945050505050565b60008060608773__DepositStates_________________________6376fa990290916040518263ffffffff1660e060020a0281526004018082815260200191505060206040518083038186803b1580156130b757600080fd5b505af41580156130cb573d6000803e3d6000fd5b505050506040513d60208110156130e157600080fd5b5051151561315f576040805160e560020a62461bcd02815260206004820152602f60248201527f4e6f74206177616974696e6720612066756e64696e672070726f6f662064757260448201527f696e672073657475702066726175640000000000000000000000000000000000606482015290519081900360840190fd5b61316c8888888888612caa565b604080517f6fdbb3c4000000000000000000000000000000000000000000000000000000008152600481018c9052905192945090925073__DepositStates_________________________91636fdbb3c491602480820192600092909190829003018186803b1580156131de57600080fd5b505af41580156131f2573d6000803e3d6000fd5b505050508773__OutsourceDepositLogging_______________63cebb22f590916040518263ffffffff1660e060020a0281526004018082815260200191505060006040518083038186803b15801561324a57600080fd5b505af415801561325e573d6000803e3d6000fd5b5050505061326b88610ec4565b61327488611f51565b506001979650505050505050565b60008060606000808973__DepositStates_________________________6327f2744990916040518263ffffffff1660e060020a0281526004018082815260200191505060206040518083038186803b1580156132de57600080fd5b505af41580156132f2573d6000803e3d6000fd5b505050506040513d602081101561330857600080fd5b50511515613360576040805160e560020a62461bcd02815260206004820152601460248201527f4e6f74206177616974696e672066756e64696e67000000000000000000000000604482015290519081900360640190fd5b61336d8a8a8a8a8a612caa565b600f8c01805467ffffffffffffffff191678010000000000000000000000000000000000000000000000008404179055805191955093506133b79060118c01906020860190613845565b506133c18a610946565b8973__DepositStates_________________________63375ec42090916040518263ffffffff1660e060020a0281526004018082815260200191505060006040518083038186803b15801561341557600080fd5b505af4158015613429573d6000803e3d6000fd5b505050508973__OutsourceDepositLogging_______________63161c9a7590916040518263ffffffff1660e060020a0281526004018082815260200191505060006040518083038186803b15801561348157600080fd5b505af4158015613495573d6000803e3d6000fd5b505050506134a28a6124b5565b8960010160009054906101000a9004600160a060020a0316915073__TBTCConstants_________________________63ecaf1cdf6040518163ffffffff1660e060020a02815260040160206040518083038186803b15801561350357600080fd5b505af4158015613517573d6000803e3d6000fd5b505050506040513d602081101561352d57600080fd5b5051604080517f65fbe4bd000000000000000000000000000000000000000000000000000000008152600481018d90529051919250600160a060020a038416916340c10f199173__DepositUtils__________________________916365fbe4bd91602480820192602092909190829003018186803b1580156135af57600080fd5b505af41580156135c3573d6000803e3d6000fd5b505050506040513d60208110156135d957600080fd5b50516135fd60646135f186605f63ffffffff6137ce16565b9063ffffffff61375716565b6040518363ffffffff1660e060020a0281526004018083600160a060020a0316600160a060020a0316815260200182815260200192505050602060405180830381600087803b15801561364f57600080fd5b505af1158015613663573d6000803e3d6000fd5b505050506040513d602081101561367957600080fd5b5060019b9a5050505050505050505050565b6060808284018551101515156136eb576040805160e560020a62461bcd02815260206004820152601360248201527f536c696365206f7574206f6620626f756e647300000000000000000000000000604482015290519081900360640190fd5b821580156137045760405191506020820160405261374e565b6040519150601f8416801560200281840101858101878315602002848b0101015b8183101561373d578051835260209283019201613725565b5050858452601f01601f1916604052505b50949350505050565b6000818381151561376457fe5b0490505b92915050565b6000828211156137c8576040805160e560020a62461bcd02815260206004820152601d60248201527f556e646572666c6f7720647572696e67207375627472616374696f6e2e000000604482015290519081900360640190fd5b50900390565b60008215156137df57506000613768565b508181028183828115156137ef57fe5b0414613768576040805160e560020a62461bcd02815260206004820152601f60248201527f4f766572666c6f7720647572696e67206d756c7469706c69636174696f6e2e00604482015290519081900360640190fd5b828054600181600116156101000203166002900490600052602060002090601f016020900481019282601f1061388657805160ff19168380011785556138b3565b828001600101855582156138b3579182015b828111156138b3578251825591602001919060010190613898565b506138bf9291506138c3565b5090565b6138dd91905b808211156138bf57600081556001016138c9565b905600a165627a7a723058207128c0b785261dc8c4c9e46ddfd500bb5c6f64f8f7f6345cf96257e27e359bd00029",
  "source": "pragma solidity 0.4.25;\n\nimport {SafeMath} from \"../bitcoin-spv/SafeMath.sol\";\nimport {BytesLib} from \"../bitcoin-spv/BytesLib.sol\";\nimport {BTCUtils} from \"../bitcoin-spv/BTCUtils.sol\";\nimport {IBurnableERC20} from \"../interfaces/IBurnableERC20.sol\";\nimport {IKeep} from \"../interfaces/IKeep.sol\";\nimport {DepositUtils} from \"./DepositUtils.sol\";\nimport {DepositLiquidation} from \"./DepositLiquidation.sol\";\nimport {DepositStates} from \"./DepositStates.sol\";\nimport {OutsourceDepositLogging} from \"./OutsourceDepositLogging.sol\";\nimport {TBTCConstants} from \"./TBTCConstants.sol\";\n\nlibrary DepositFunding {\n\n    using SafeMath for uint256;\n    using BTCUtils for bytes;\n    using BytesLib for bytes;\n\n    using DepositUtils for DepositUtils.Deposit;\n    using DepositStates for DepositUtils.Deposit;\n    using DepositLiquidation for DepositUtils.Deposit;\n    using OutsourceDepositLogging for DepositUtils.Deposit;\n\n    /// @notice     Deletes state after funding\n    /// @dev        This is called when we go to ACTIVE or setup fails without fraud\n    function fundingTeardown(DepositUtils.Deposit storage _d) public {\n        _d.signingGroupRequestedAt = 0;\n        _d.fundingProofTimerStart = 0;\n    }\n\n    /// @notice     Deletes state after the funding ECDSA fraud process\n    /// @dev        This is only called as we transition to setup failed\n    function fundingFraudTeardown(DepositUtils.Deposit storage _d) public {\n        _d.keepID = 0;\n        _d.signingGroupRequestedAt = 0;\n        _d.fundingProofTimerStart = 0;\n        _d.signingGroupPubkeyX = bytes32(0);\n        _d.signingGroupPubkeyY = bytes32(0);\n    }\n\n    /// @notice         get the signer pubkey for our keep\n    /// @dev            calls out to the keep contract, should get 64 bytes back\n    /// @return         the 64 byte pubkey\n    function getKeepPubkeyResult(DepositUtils.Deposit storage _d) public view returns (bytes) {\n        IKeep _keep = IKeep(_d.KeepBridge);\n        bytes memory _pubkey = _keep.getKeepPubkey(_d.keepID);\n        /* solium-disable-next-line */\n        require(_pubkey.length == 64, \"public key not set or not 64-bytes long\");\n        return _pubkey;\n    }\n\n    /// @notice         The system can spin up a new deposit\n    /// @dev            This should be called by an approved contract, not a developer\n    /// @param _d       deposit storage pointer\n    /// @param _m       m for m-of-n\n    /// @param _m       n for m-of-n\n    /// @return         True if successful, otherwise revert\n    function createNewDeposit(\n        DepositUtils.Deposit storage _d,\n        uint256 _m,\n        uint256 _n\n    ) public returns (bool) {\n        require(_d.inStart(), \"Deposit setup already requested\");\n\n        IKeep _keep = IKeep(_d.KeepBridge);\n\n        /* solium-disable-next-line value-in-payable */\n        _d.keepID = _keep.requestKeepGroup.value(msg.value)(_m, _n);  // kinda gross but\n        _d.signingGroupRequestedAt = block.timestamp;\n\n        _d.setAwaitingSignerSetup();\n        _d.logCreated(_d.keepID);\n\n        return true;\n    }\n\n    /// @notice     Transfers the funders bond to the signers if the funder never funds\n    /// @dev        Called only by notifyFundingTimeout\n    function revokeFunderBond(DepositUtils.Deposit storage _d) public {\n        if (address(this).balance >= TBTCConstants.getFunderBondAmount()) {\n            _d.pushFundsToKeepGroup(TBTCConstants.getFunderBondAmount());\n        } else if (address(this).balance > 0) {\n            _d.pushFundsToKeepGroup(address(this).balance);\n        }\n    }\n\n    /// @notice     Returns the funder's bond plus a payment at contract teardown\n    /// @dev        Returns the balance if insufficient. Always call this before distributing signer payments\n    function returnFunderBond(DepositUtils.Deposit storage _d) public {\n        if (address(this).balance >= TBTCConstants.getFunderBondAmount()) {\n            _d.depositBeneficiary().transfer(TBTCConstants.getFunderBondAmount());\n        } else if (address(this).balance > 0) {\n            _d.depositBeneficiary().transfer(address(this).balance);\n        }\n    }\n\n    /// @notice     slashes the signers partially for committing fraud before funding occurs\n    /// @dev        called only by notifyFraudFundingTimeout\n    function partiallySlashForFraudInFunding(DepositUtils.Deposit storage _d) public {\n        uint256 _seized = _d.seizeSignerBonds();\n        uint256 _slash = _seized.div(TBTCConstants.getFundingFraudPartialSlashDivisor());\n        _d.pushFundsToKeepGroup(_seized.sub(_slash));\n        _d.depositBeneficiary().transfer(_slash);\n    }\n\n    /// @notice     Seizes signer bonds and distributes them to the funder\n    /// @dev        This is only called as part of funding fraud flow\n    function distributeSignerBondsToFunder(DepositUtils.Deposit storage _d) public {\n        uint256 _seized = _d.seizeSignerBonds();\n        _d.depositBeneficiary().transfer(_seized);  // Transfer whole amount\n    }\n\n    /// @notice                 Parses a bitcoin tx to find an output paying the signing group PKH\n    /// @dev                    Reverts if no funding output found\n    /// @param  _d              deposit storage pointer\n    /// @param  _bitcoinTx      The bitcoin tx that should contain the funding output\n    /// @return                 The 8-byte LE encoded value, and the index of the output\n    function findAndParseFundingOutput(\n        DepositUtils.Deposit storage _d,\n        bytes _bitcoinTx\n    ) public view returns (bytes8, uint8) {\n        bytes8 _valueBytes;\n        bytes memory _output;\n\n        // Find the output paying the signer PKH\n        // This will fail if there are more than 256 outputs\n        for (uint8 i = 0; i < _bitcoinTx.extractNumOutputs(); i++) {\n            _output = _bitcoinTx.extractOutputAtIndex(i);\n            if (keccak256(_output.extractHash()) == keccak256(abi.encodePacked(_d.signerPKH()))) {\n                _valueBytes = bytes8(_output.slice(0, 8).toBytes32());\n                return (_valueBytes, i);\n            }\n        }\n        // If we don't return from inside the loop, we failed.\n        revert(\"Did not find output with correct PKH\");\n    }\n\n    /// @notice                 Validates the funding tx and parses information from it\n    /// @dev                    Stateless SPV Proof & Bitcoin tx format documented elsewhere\n    /// @param  _d              deposit storage pointer\n    /// @param  _bitcoinTx      The bitcoin tx that purportedly contain the funding output\n    /// @param  _merkleProof    The merkle proof of inclusion of the tx in the bitcoin block\n    /// @param  _index          The index of the tx in the Bitcoin block (1-indexed)\n    /// @param  _bitcoinHeaders An array of tightly-packed bitcoin headers\n    /// @return                 The 8-byte LE UTXO size in satoshi, the 36byte outpoint\n    function validateAndParseFundingSPVProof(\n        DepositUtils.Deposit storage _d,\n        bytes _bitcoinTx,\n        bytes _merkleProof,\n        uint256 _index,\n        bytes _bitcoinHeaders\n    ) public view returns (bytes8 _valueBytes, bytes _outpoint) {\n        uint8 _outputIndex;\n        bytes32 _txid = _d.checkProof(_bitcoinTx, _merkleProof, _index, _bitcoinHeaders);\n        (_valueBytes, _outputIndex) = findAndParseFundingOutput(_d, _bitcoinTx);\n\n        // Don't validate deposits under the lot size\n        require(DepositUtils.bytes8LEToUint(_valueBytes) >= TBTCConstants.getLotSize(), \"Deposit too small\");\n\n        // The outpoint is the LE TXID plus the index of the output as a 4-byte LE int\n        // _outputIndex is a uint8, so we know it is only 1 byte\n        // Therefore, pad with 3 more bytes\n        _outpoint = abi.encodePacked(_txid, _outputIndex, hex\"000000\");\n    }\n\n    /// @notice     Anyone may notify the contract that signing group setup has timed out\n    /// @dev        We rely on the keep system punishes the signers in this case\n    /// @param  _d  deposit storage pointer\n    function notifySignerSetupFailure(DepositUtils.Deposit storage _d) public {\n        require(_d.inAwaitingSignerSetup(), \"Not awaiting setup\");\n        require(\n            block.timestamp > _d.signingGroupRequestedAt + TBTCConstants.getSigningGroupFormationTimeout(),\n            \"Signing group formation timeout not yet elapsed\"\n        );\n        _d.setFailedSetup();\n        _d.logSetupFailed();\n\n        returnFunderBond(_d);\n        fundingTeardown(_d);\n    }\n\n    /// @notice             we poll the Keep contract to retrieve our pubkey\n    /// @dev                We store the pubkey as 2 bytestrings, X and Y.\n    /// @param  _d          deposit storage pointer\n    /// @return             True if successful, otherwise revert\n    function retrieveSignerPubkey(DepositUtils.Deposit storage _d) public {\n        require(_d.inAwaitingSignerSetup(), \"Not currently awaiting signer setup\");\n        bytes memory _keepResult = getKeepPubkeyResult(_d);\n\n        _d.signingGroupPubkeyX = _keepResult.slice(0, 32).toBytes32();\n        _d.signingGroupPubkeyY = _keepResult.slice(32, 32).toBytes32();\n        require(_d.signingGroupPubkeyY != bytes32(0) && _d.signingGroupPubkeyX != bytes32(0), \"Keep returned bad pubkey\");\n        _d.fundingProofTimerStart = block.timestamp;\n\n        _d.setAwaitingBTCFundingProof();\n        _d.logRegisteredPubkey(\n            _d.signingGroupPubkeyX,\n            _d.signingGroupPubkeyY);\n    }\n\n    /// @notice     Anyone may notify the contract that the funder has failed to send BTC\n    /// @dev        This is considered a funder fault, and we revoke their bond\n    /// @param  _d  deposit storage pointer\n    function notifyFundingTimeout(DepositUtils.Deposit storage _d) public {\n        require(_d.inAwaitingBTCFundingProof(), \"Funding timeout has not started\");\n        require(\n            block.timestamp > _d.fundingProofTimerStart + TBTCConstants.getFundingTimeout(),\n            \"Funding timeout has not elapsed.\"\n        );\n        _d.setFailedSetup();\n        _d.logSetupFailed();\n\n        revokeFunderBond(_d);\n        fundingTeardown(_d);\n    }\n\n    /// @notice                 Anyone can provide a signature that was not requested to prove fraud during funding\n    /// @dev                    ECDSA is NOT SECURE unless you verify the digest\n    /// @param  _d              deposit storage pointer\n    /// @param  _v              Signature recovery value\n    /// @param  _r              Signature R value\n    /// @param  _s              Signature S value\n    /// @param _signedDigest    The digest signed by the signature vrs tuple\n    /// @param _preimage        The sha256 preimage of the digest\n    /// @return                 True if successful, otherwise revert\n    function provideFundingECDSAFraudProof(\n        DepositUtils.Deposit storage _d,\n        uint8 _v,\n        bytes32 _r,\n        bytes32 _s,\n        bytes32 _signedDigest,\n        bytes _preimage\n    ) public {\n        require(\n            _d.inAwaitingBTCFundingProof(),\n            \"Signer fraud during funding flow only available while awaiting funding\"\n        );\n\n        bool _isFraud = _d.submitSignatureFraud(_v, _r, _s, _signedDigest, _preimage);\n        require(_isFraud, \"Signature is not fraudulent\");\n        _d.seizeSignerBonds();\n        _d.logFraudDuringSetup();\n\n        // If the funding timeout has elapsed, punish the funder too!\n        if (block.timestamp > _d.fundingProofTimerStart + TBTCConstants.getFundingTimeout()) {\n            address(0).transfer(address(this).balance);  // Burn it all down (fire emoji)\n            _d.setFailedSetup();\n        } else {\n            /* NB: This is reuse of the variable */\n            _d.fundingProofTimerStart = block.timestamp;\n            _d.setFraudAwaitingBTCFundingProof();\n            returnFunderBond(_d);\n        }\n    }\n\n    /// @notice     Anyone may notify the contract no funding proof was submitted during funding fraud\n    /// @dev        This is not a funder fault. The signers have faulted, so the funder shouldn't fund\n    /// @param  _d  deposit storage pointer\n    function notifyFraudFundingTimeout(DepositUtils.Deposit storage _d) public {\n        require(\n            _d.inFraudAwaitingBTCFundingProof(),\n            \"Not currently awaiting fraud-related funding proof\"\n        );\n        require(\n            block.timestamp > _d.fundingProofTimerStart + TBTCConstants.getFraudFundingTimeout(),\n            \"Fraud funding proof timeout has not elapsed\"\n        );\n        _d.setFailedSetup();\n        _d.logSetupFailed();\n\n        partiallySlashForFraudInFunding(_d);\n        fundingFraudTeardown(_d);\n    }\n\n    /// @notice                 Anyone may notify the deposit of a funding proof during funding fraud\n    /// @dev                    We reward the funder the entire bond if this occurs\n    /// @param  _d              deposit storage pointer\n    /// @param  _bitcoinTx      The bitcoin tx that purportedly contains the funding output\n    /// @param  _merkleProof    The merkle proof of inclusion of the tx in the bitcoin block\n    /// @param  _index          The index of the tx in the Bitcoin block (1-indexed)\n    /// @param  _bitcoinHeaders An array of tightly-packed bitcoin headers\n    /// @return                 True if successful, False if prevented by timeout, otherwise revert\n    function provideFraudBTCFundingProof(\n        DepositUtils.Deposit storage _d,\n        bytes _bitcoinTx,\n        bytes _merkleProof,\n        uint256 _index,\n        bytes _bitcoinHeaders\n    ) public returns (bool) {\n        bytes8 _valueBytes;\n        bytes memory _outpoint;\n        require(_d.inFraudAwaitingBTCFundingProof(), \"Not awaiting a funding proof during setup fraud\");\n\n        (_valueBytes, _outpoint) = validateAndParseFundingSPVProof(_d, _bitcoinTx, _merkleProof, _index, _bitcoinHeaders);\n\n        _d.setFailedSetup();\n        _d.logSetupFailed();\n\n        // If the proof is accepted, update to failed, and distribute signer bonds\n        distributeSignerBondsToFunder(_d);\n        fundingFraudTeardown(_d);\n\n        return true;\n    }\n\n    /// @notice                 Anyone may notify the deposit of a funding proof to activate the deposit\n    /// @dev                    This is the happy-path of the funding flow. It means that we have suecceeded\n    /// @param  _d              deposit storage pointer\n    /// @param  _bitcoinTx      The bitcoin tx that purportedly contains the funding output\n    /// @param  _merkleProof    The merkle proof of inclusion of the tx in the bitcoin block\n    /// @param  _index          The index of the tx in the Bitcoin block (1-indexed)\n    /// @param  _bitcoinHeaders An array of tightly-packed bitcoin headers\n    /// @return                 True if successful, False if prevented by timeout, otherwise revert\n    function provideBTCFundingProof(\n        DepositUtils.Deposit storage _d,\n        bytes _bitcoinTx,\n        bytes _merkleProof,\n        uint256 _index,\n        bytes _bitcoinHeaders\n    ) public returns (bool) {\n        bytes8 _valueBytes;\n        bytes memory _outpoint;\n\n        require(_d.inAwaitingBTCFundingProof(), \"Not awaiting funding\");\n\n        // Design decision:\n        // We COULD revoke the funder bond here if the funding proof timeout has elapsed\n        // HOWEVER, that would only create a situation where the funder loses eerything\n        // It would be a large punishment for a small crime (being slightly late)\n        // So if the funder manages to call this before anyone notifies of timeout\n        // We let them have a freebie\n\n        (_valueBytes, _outpoint) = validateAndParseFundingSPVProof(_d, _bitcoinTx, _merkleProof, _index, _bitcoinHeaders);\n\n        // Write down the UTXO info and set to active. Congratulations :)\n        _d.utxoSizeBytes = _valueBytes;\n        _d.utxoOutpoint = _outpoint;\n\n        fundingTeardown(_d);\n        _d.setActive();\n        _d.logFunded();\n\n        returnFunderBond(_d);\n\n        // Mint 95% of the deposit size\n        IBurnableERC20 _tbtc = IBurnableERC20(_d.TBTCToken);\n        uint256 _value = TBTCConstants.getLotSize();\n        _tbtc.mint(_d.depositBeneficiary(), _value.mul(95).div(100));\n\n        return true;\n    }\n}\n",
  "sourcePath": "/Users/liamz/go/src/github.com/keep-network/tbtc/implementation/contracts/deposit/DepositFunding.sol",
  "compiler": {
    "name": "solc",
    "version": "0.4.25+commit.59dbf8f1.Emscripten.clang"
  },
  "schemaVersion": "3.0.10",
  "updatedAt": "2019-07-19T12:16:35.610Z",
  "devdoc": {
    "methods": {
      "createNewDeposit(DepositUtils.Deposit storage,uint256,uint256)": {
        "details": "This should be called by an approved contract, not a developer",
        "params": {
          "_d": "deposit storage pointer",
          "_m": "n for m-of-n"
        },
        "return": "True if successful, otherwise revert"
      },
      "distributeSignerBondsToFunder(DepositUtils.Deposit storage)": {
        "details": "This is only called as part of funding fraud flow"
      },
      "findAndParseFundingOutput(DepositUtils.Deposit storage,bytes)": {
        "details": "Reverts if no funding output found",
        "params": {
          "_bitcoinTx": "The bitcoin tx that should contain the funding output",
          "_d": "deposit storage pointer"
        },
        "return": "The 8-byte LE encoded value, and the index of the output"
      },
      "fundingFraudTeardown(DepositUtils.Deposit storage)": {
        "details": "This is only called as we transition to setup failed"
      },
      "fundingTeardown(DepositUtils.Deposit storage)": {
        "details": "This is called when we go to ACTIVE or setup fails without fraud"
      },
      "getKeepPubkeyResult(DepositUtils.Deposit storage)": {
        "details": "calls out to the keep contract, should get 64 bytes back",
        "return": "the 64 byte pubkey"
      },
      "notifyFraudFundingTimeout(DepositUtils.Deposit storage)": {
        "details": "This is not a funder fault. The signers have faulted, so the funder shouldn't fund",
        "params": {
          "_d": "deposit storage pointer"
        }
      },
      "notifyFundingTimeout(DepositUtils.Deposit storage)": {
        "details": "This is considered a funder fault, and we revoke their bond",
        "params": {
          "_d": "deposit storage pointer"
        }
      },
      "notifySignerSetupFailure(DepositUtils.Deposit storage)": {
        "details": "We rely on the keep system punishes the signers in this case",
        "params": {
          "_d": "deposit storage pointer"
        }
      },
      "partiallySlashForFraudInFunding(DepositUtils.Deposit storage)": {
        "details": "called only by notifyFraudFundingTimeout"
      },
      "provideBTCFundingProof(DepositUtils.Deposit storage,bytes,bytes,uint256,bytes)": {
        "details": "This is the happy-path of the funding flow. It means that we have suecceeded",
        "params": {
          "_bitcoinHeaders": "An array of tightly-packed bitcoin headers",
          "_bitcoinTx": "The bitcoin tx that purportedly contains the funding output",
          "_d": "deposit storage pointer",
          "_index": "The index of the tx in the Bitcoin block (1-indexed)",
          "_merkleProof": "The merkle proof of inclusion of the tx in the bitcoin block"
        },
        "return": "True if successful, False if prevented by timeout, otherwise revert"
      },
      "provideFraudBTCFundingProof(DepositUtils.Deposit storage,bytes,bytes,uint256,bytes)": {
        "details": "We reward the funder the entire bond if this occurs",
        "params": {
          "_bitcoinHeaders": "An array of tightly-packed bitcoin headers",
          "_bitcoinTx": "The bitcoin tx that purportedly contains the funding output",
          "_d": "deposit storage pointer",
          "_index": "The index of the tx in the Bitcoin block (1-indexed)",
          "_merkleProof": "The merkle proof of inclusion of the tx in the bitcoin block"
        },
        "return": "True if successful, False if prevented by timeout, otherwise revert"
      },
      "provideFundingECDSAFraudProof(DepositUtils.Deposit storage,uint8,bytes32,bytes32,bytes32,bytes)": {
        "details": "ECDSA is NOT SECURE unless you verify the digest",
        "params": {
          "_d": "deposit storage pointer",
          "_preimage": "The sha256 preimage of the digest",
          "_r": "Signature R value",
          "_s": "Signature S value",
          "_signedDigest": "The digest signed by the signature vrs tuple",
          "_v": "Signature recovery value"
        },
        "return": "True if successful, otherwise revert"
      },
      "retrieveSignerPubkey(DepositUtils.Deposit storage)": {
        "details": "We store the pubkey as 2 bytestrings, X and Y.",
        "params": {
          "_d": "deposit storage pointer"
        },
        "return": "True if successful, otherwise revert"
      },
      "returnFunderBond(DepositUtils.Deposit storage)": {
        "details": "Returns the balance if insufficient. Always call this before distributing signer payments"
      },
      "revokeFunderBond(DepositUtils.Deposit storage)": {
        "details": "Called only by notifyFundingTimeout"
      },
      "validateAndParseFundingSPVProof(DepositUtils.Deposit storage,bytes,bytes,uint256,bytes)": {
        "details": "Stateless SPV Proof & Bitcoin tx format documented elsewhere",
        "params": {
          "_bitcoinHeaders": "An array of tightly-packed bitcoin headers",
          "_bitcoinTx": "The bitcoin tx that purportedly contain the funding output",
          "_d": "deposit storage pointer",
          "_index": "The index of the tx in the Bitcoin block (1-indexed)",
          "_merkleProof": "The merkle proof of inclusion of the tx in the bitcoin block"
        },
        "return": "The 8-byte LE UTXO size in satoshi, the 36byte outpoint"
      }
    }
  },
  "userdoc": {
    "methods": {
      "createNewDeposit(DepositUtils.Deposit storage,uint256,uint256)": {
        "notice": "The system can spin up a new deposit"
      },
      "distributeSignerBondsToFunder(DepositUtils.Deposit storage)": {
        "notice": "Seizes signer bonds and distributes them to the funder"
      },
      "findAndParseFundingOutput(DepositUtils.Deposit storage,bytes)": {
        "notice": "Parses a bitcoin tx to find an output paying the signing group PKH"
      },
      "fundingFraudTeardown(DepositUtils.Deposit storage)": {
        "notice": "Deletes state after the funding ECDSA fraud process"
      },
      "fundingTeardown(DepositUtils.Deposit storage)": {
        "notice": "Deletes state after funding"
      },
      "getKeepPubkeyResult(DepositUtils.Deposit storage)": {
        "notice": "get the signer pubkey for our keep"
      },
      "notifyFraudFundingTimeout(DepositUtils.Deposit storage)": {
        "notice": "Anyone may notify the contract no funding proof was submitted during funding fraud"
      },
      "notifyFundingTimeout(DepositUtils.Deposit storage)": {
        "notice": "Anyone may notify the contract that the funder has failed to send BTC"
      },
      "notifySignerSetupFailure(DepositUtils.Deposit storage)": {
        "notice": "Anyone may notify the contract that signing group setup has timed out"
      },
      "partiallySlashForFraudInFunding(DepositUtils.Deposit storage)": {
        "notice": "slashes the signers partially for committing fraud before funding occurs"
      },
      "provideBTCFundingProof(DepositUtils.Deposit storage,bytes,bytes,uint256,bytes)": {
        "notice": "Anyone may notify the deposit of a funding proof to activate the deposit"
      },
      "provideFraudBTCFundingProof(DepositUtils.Deposit storage,bytes,bytes,uint256,bytes)": {
        "notice": "Anyone may notify the deposit of a funding proof during funding fraud"
      },
      "provideFundingECDSAFraudProof(DepositUtils.Deposit storage,uint8,bytes32,bytes32,bytes32,bytes)": {
        "notice": "Anyone can provide a signature that was not requested to prove fraud during funding"
      },
      "retrieveSignerPubkey(DepositUtils.Deposit storage)": {
        "notice": "we poll the Keep contract to retrieve our pubkey"
      },
      "returnFunderBond(DepositUtils.Deposit storage)": {
        "notice": "Returns the funder's bond plus a payment at contract teardown"
      },
      "revokeFunderBond(DepositUtils.Deposit storage)": {
        "notice": "Transfers the funders bond to the signers if the funder never funds"
      },
      "validateAndParseFundingSPVProof(DepositUtils.Deposit storage,bytes,bytes,uint256,bytes)": {
        "notice": "Validates the funding tx and parses information from it"
      }
    }
  }
}