{
  "contractName": "Deposit",
  "abi": [
    {
      "inputs": [],
      "payable": false,
      "stateMutability": "nonpayable",
      "type": "constructor"
    },
    {
      "payable": true,
      "stateMutability": "payable",
      "type": "fallback"
    },
    {
      "constant": true,
      "inputs": [],
      "name": "getCurrentState",
      "outputs": [
        {
          "name": "",
          "type": "uint256"
        }
      ],
      "payable": false,
      "stateMutability": "view",
      "type": "function"
    },
    {
      "constant": false,
      "inputs": [
        {
          "name": "_TBTCSystem",
          "type": "address"
        },
        {
          "name": "_TBTCToken",
          "type": "address"
        },
        {
          "name": "_KeepBridge",
          "type": "address"
        },
        {
          "name": "_m",
          "type": "uint256"
        },
        {
          "name": "_n",
          "type": "uint256"
        }
      ],
      "name": "createNewDeposit",
      "outputs": [
        {
          "name": "",
          "type": "bool"
        }
      ],
      "payable": true,
      "stateMutability": "payable",
      "type": "function"
    },
    {
      "constant": false,
      "inputs": [
        {
          "name": "_outputValueBytes",
          "type": "bytes8"
        },
        {
          "name": "_requesterPKH",
          "type": "bytes20"
        }
      ],
      "name": "requestRedemption",
      "outputs": [
        {
          "name": "",
          "type": "bool"
        }
      ],
      "payable": false,
      "stateMutability": "nonpayable",
      "type": "function"
    },
    {
      "constant": false,
      "inputs": [
        {
          "name": "_v",
          "type": "uint8"
        },
        {
          "name": "_r",
          "type": "bytes32"
        },
        {
          "name": "_s",
          "type": "bytes32"
        }
      ],
      "name": "provideRedemptionSignature",
      "outputs": [
        {
          "name": "",
          "type": "bool"
        }
      ],
      "payable": false,
      "stateMutability": "nonpayable",
      "type": "function"
    },
    {
      "constant": false,
      "inputs": [
        {
          "name": "_previousOutputValueBytes",
          "type": "bytes8"
        },
        {
          "name": "_newOutputValueBytes",
          "type": "bytes8"
        }
      ],
      "name": "increaseRedemptionFee",
      "outputs": [
        {
          "name": "",
          "type": "bool"
        }
      ],
      "payable": false,
      "stateMutability": "nonpayable",
      "type": "function"
    },
    {
      "constant": false,
      "inputs": [
        {
          "name": "_bitcoinTx",
          "type": "bytes"
        },
        {
          "name": "_merkleProof",
          "type": "bytes"
        },
        {
          "name": "_index",
          "type": "uint256"
        },
        {
          "name": "_bitcoinHeaders",
          "type": "bytes"
        }
      ],
      "name": "provideRedemptionProof",
      "outputs": [
        {
          "name": "",
          "type": "bool"
        }
      ],
      "payable": false,
      "stateMutability": "nonpayable",
      "type": "function"
    },
    {
      "constant": false,
      "inputs": [],
      "name": "notifySignatureTimeout",
      "outputs": [
        {
          "name": "",
          "type": "bool"
        }
      ],
      "payable": false,
      "stateMutability": "nonpayable",
      "type": "function"
    },
    {
      "constant": false,
      "inputs": [],
      "name": "notifyRedemptionProofTimeout",
      "outputs": [
        {
          "name": "",
          "type": "bool"
        }
      ],
      "payable": false,
      "stateMutability": "nonpayable",
      "type": "function"
    },
    {
      "constant": false,
      "inputs": [],
      "name": "notifySignerSetupFailure",
      "outputs": [
        {
          "name": "",
          "type": "bool"
        }
      ],
      "payable": false,
      "stateMutability": "nonpayable",
      "type": "function"
    },
    {
      "constant": false,
      "inputs": [],
      "name": "retrieveSignerPubkey",
      "outputs": [
        {
          "name": "",
          "type": "bool"
        }
      ],
      "payable": false,
      "stateMutability": "nonpayable",
      "type": "function"
    },
    {
      "constant": false,
      "inputs": [],
      "name": "notifyFundingTimeout",
      "outputs": [
        {
          "name": "",
          "type": "bool"
        }
      ],
      "payable": false,
      "stateMutability": "nonpayable",
      "type": "function"
    },
    {
      "constant": false,
      "inputs": [
        {
          "name": "_v",
          "type": "uint8"
        },
        {
          "name": "_r",
          "type": "bytes32"
        },
        {
          "name": "_s",
          "type": "bytes32"
        },
        {
          "name": "_signedDigest",
          "type": "bytes32"
        },
        {
          "name": "_preimage",
          "type": "bytes"
        }
      ],
      "name": "provideFundingECDSAFraudProof",
      "outputs": [
        {
          "name": "",
          "type": "bool"
        }
      ],
      "payable": false,
      "stateMutability": "nonpayable",
      "type": "function"
    },
    {
      "constant": false,
      "inputs": [],
      "name": "notifyFraudFundingTimeout",
      "outputs": [
        {
          "name": "",
          "type": "bool"
        }
      ],
      "payable": false,
      "stateMutability": "nonpayable",
      "type": "function"
    },
    {
      "constant": false,
      "inputs": [
        {
          "name": "_bitcoinTx",
          "type": "bytes"
        },
        {
          "name": "_merkleProof",
          "type": "bytes"
        },
        {
          "name": "_index",
          "type": "uint256"
        },
        {
          "name": "_bitcoinHeaders",
          "type": "bytes"
        }
      ],
      "name": "provideFraudBTCFundingProof",
      "outputs": [
        {
          "name": "",
          "type": "bool"
        }
      ],
      "payable": false,
      "stateMutability": "nonpayable",
      "type": "function"
    },
    {
      "constant": false,
      "inputs": [
        {
          "name": "_bitcoinTx",
          "type": "bytes"
        },
        {
          "name": "_merkleProof",
          "type": "bytes"
        },
        {
          "name": "_index",
          "type": "uint256"
        },
        {
          "name": "_bitcoinHeaders",
          "type": "bytes"
        }
      ],
      "name": "provideBTCFundingProof",
      "outputs": [
        {
          "name": "",
          "type": "bool"
        }
      ],
      "payable": false,
      "stateMutability": "nonpayable",
      "type": "function"
    },
    {
      "constant": false,
      "inputs": [
        {
          "name": "_v",
          "type": "uint8"
        },
        {
          "name": "_r",
          "type": "bytes32"
        },
        {
          "name": "_s",
          "type": "bytes32"
        },
        {
          "name": "_signedDigest",
          "type": "bytes32"
        },
        {
          "name": "_preimage",
          "type": "bytes"
        }
      ],
      "name": "provideECDSAFraudProof",
      "outputs": [
        {
          "name": "",
          "type": "bool"
        }
      ],
      "payable": false,
      "stateMutability": "nonpayable",
      "type": "function"
    },
    {
      "constant": false,
      "inputs": [
        {
          "name": "_bitcoinTx",
          "type": "bytes"
        },
        {
          "name": "_merkleProof",
          "type": "bytes"
        },
        {
          "name": "_index",
          "type": "uint256"
        },
        {
          "name": "_bitcoinHeaders",
          "type": "bytes"
        }
      ],
      "name": "provideSPVFraudProof",
      "outputs": [
        {
          "name": "",
          "type": "bool"
        }
      ],
      "payable": false,
      "stateMutability": "nonpayable",
      "type": "function"
    },
    {
      "constant": false,
      "inputs": [],
      "name": "purchaseSignerBondsAtAuction",
      "outputs": [
        {
          "name": "",
          "type": "bool"
        }
      ],
      "payable": false,
      "stateMutability": "nonpayable",
      "type": "function"
    },
    {
      "constant": false,
      "inputs": [],
      "name": "notifyCourtesyCall",
      "outputs": [
        {
          "name": "",
          "type": "bool"
        }
      ],
      "payable": false,
      "stateMutability": "nonpayable",
      "type": "function"
    },
    {
      "constant": false,
      "inputs": [],
      "name": "exitCourtesyCall",
      "outputs": [
        {
          "name": "",
          "type": "bool"
        }
      ],
      "payable": false,
      "stateMutability": "nonpayable",
      "type": "function"
    },
    {
      "constant": false,
      "inputs": [],
      "name": "notifyUndercollateralizedLiquidation",
      "outputs": [
        {
          "name": "",
          "type": "bool"
        }
      ],
      "payable": false,
      "stateMutability": "nonpayable",
      "type": "function"
    },
    {
      "constant": false,
      "inputs": [],
      "name": "notifyCourtesyTimeout",
      "outputs": [
        {
          "name": "",
          "type": "bool"
        }
      ],
      "payable": false,
      "stateMutability": "nonpayable",
      "type": "function"
    },
    {
      "constant": false,
      "inputs": [],
      "name": "notifyDepositExpiryCourtesyCall",
      "outputs": [
        {
          "name": "",
          "type": "bool"
        }
      ],
      "payable": false,
      "stateMutability": "nonpayable",
      "type": "function"
    }
  ],
  "bytecode": "0x608060405234801561001057600080fd5b50611562806100206000396000f3006080604052600436106101195763ffffffff60e060020a60003504166306d6bf1a811461011b578063287b32e5146101445780632c735daa146101595780632d0994421461016e57806334cf5283146101dc578063378aa701146101f15780636278e1ac1461021857806372ed2b4a146102f35780637d18eed914610308578063861ac0121461034d5780638a68db6514610428578063902d2ead1461043d57806396aab311146104525780639894d73414610467578063b4bd2e7a146104a0578063b66f261a146104b5578063c1b8736814610590578063c4159559146105a5578063c4fbc69d146105c6578063d5eef971146106a1578063e64bc8291461070f578063e6d6aaba14610742578063ea3db25014610757575b005b34801561012757600080fd5b5061013061076c565b604080519115158252519081900360200190f35b34801561015057600080fd5b506101306107e1565b34801561016557600080fd5b50610130610837565b34801561017a57600080fd5b50604080516020601f6084356004818101359283018490048402850184019095528184526101309460ff813516946024803595604435956064359536959460a494909391019190819084018382808284375094975061088d9650505050505050565b3480156101e857600080fd5b506101306109b3565b3480156101fd57600080fd5b50610206610a09565b60408051918252519081900360200190f35b34801561022457600080fd5b506040805160206004803580820135601f810184900484028501840190955284845261013094369492936024939284019190819084018382808284375050604080516020601f89358b018035918201839004830284018301909452808352979a99988101979196509182019450925082915084018382808284375050604080516020601f818a01358b0180359182018390048302840183018552818452989b8a359b909a909994019750919550918201935091508190840183828082843750949750610a2a9650505050505050565b3480156102ff57600080fd5b50610130610bf7565b34801561031457600080fd5b5061013077ffffffffffffffffffffffffffffffffffffffffffffffff19600435166bffffffffffffffffffffffff1960243516610c4d565b34801561035957600080fd5b506040805160206004803580820135601f810184900484028501840190955284845261013094369492936024939284019190819084018382808284375050604080516020601f89358b018035918201839004830284018301909452808352979a99988101979196509182019450925082915084018382808284375050604080516020601f818a01358b0180359182018390048302840183018552818452989b8a359b909a909994019750919550918201935091508190840183828082843750949750610d039650505050505050565b34801561043457600080fd5b50610130610ebc565b34801561044957600080fd5b50610130610f12565b34801561045e57600080fd5b50610130610f68565b34801561047357600080fd5b5061013077ffffffffffffffffffffffffffffffffffffffffffffffff1960043581169060243516610fbe565b3480156104ac57600080fd5b50610130611087565b3480156104c157600080fd5b506040805160206004803580820135601f810184900484028501840190955284845261013094369492936024939284019190819084018382808284375050604080516020601f89358b018035918201839004830284018301909452808352979a99988101979196509182019450925082915084018382808284375050604080516020601f818a01358b0180359182018390048302840183018552818452989b8a359b909a9099940197509195509182019350915081908401838280828437509497506110dd9650505050505050565b34801561059c57600080fd5b50610130611162565b3480156105b157600080fd5b5061013060ff600435166024356044356111b8565b3480156105d257600080fd5b506040805160206004803580820135601f810184900484028501840190955284845261013094369492936024939284019190819084018382808284375050604080516020601f89358b018035918201839004830284018301909452808352979a99988101979196509182019450925082915084018382808284375050604080516020601f818a01358b0180359182018390048302840183018552818452989b8a359b909a90999401975091955091820193509150819084018382808284375094975061125d9650505050505050565b3480156106ad57600080fd5b50604080516020601f6084356004818101359283018490048402850184019095528184526101309460ff813516946024803595604435956064359536959460a49490939101919081908401838280828437509497506112e29650505050505050565b61013073ffffffffffffffffffffffffffffffffffffffff60043581169060243581169060443516606435608435611394565b34801561074e57600080fd5b5061013061148a565b34801561076357600080fd5b506101306114e0565b60008073__DepositFunding________________________63490f787190916040518263ffffffff1660e060020a0281526004018082815260200191505060006040518083038186803b1580156107c257600080fd5b505af41580156107d6573d6000803e3d6000fd5b505050506001905090565b60008073__DepositLiquidation____________________633bd675c890916040518263ffffffff1660e060020a0281526004018082815260200191505060006040518083038186803b1580156107c257600080fd5b60008073__DepositLiquidation____________________632ea8450690916040518263ffffffff1660e060020a0281526004018082815260200191505060006040518083038186803b1580156107c257600080fd5b6040517ffb12d9df00000000000000000000000000000000000000000000000000000000815260006004820181815260ff8816602484015260448301879052606483018690526084830185905260c060a48401908152845160c48501528451929373__DepositFunding________________________9363fb12d9df9386938c938c938c938c938c939192909160e4019060208501908083838d5b83811015610940578181015183820152602001610928565b50505050905090810190601f16801561096d5780820380516001836020036101000a031916815260200191505b5097505050505050505060006040518083038186803b15801561098f57600080fd5b505af41580156109a3573d6000803e3d6000fd5b5060019998505050505050505050565b60008073__DepositRedemption_____________________63cd53895490916040518263ffffffff1660e060020a0281526004018082815260200191505060006040518083038186803b1580156107c257600080fd5b60025474010000000000000000000000000000000000000000900460ff1690565b60008073__DepositFunding________________________63fe9834bb9091878787876040518663ffffffff1660e060020a02815260040180868152602001806020018060200185815260200180602001848103845288818151815260200191508051906020019080838360005b83811015610ab0578181015183820152602001610a98565b50505050905090810190601f168015610add5780820380516001836020036101000a031916815260200191505b50848103835287518152875160209182019189019080838360005b83811015610b10578181015183820152602001610af8565b50505050905090810190601f168015610b3d5780820380516001836020036101000a031916815260200191505b50848103825285518152855160209182019187019080838360005b83811015610b70578181015183820152602001610b58565b50505050905090810190601f168015610b9d5780820380516001836020036101000a031916815260200191505b509850505050505050505060206040518083038186803b158015610bc057600080fd5b505af4158015610bd4573d6000803e3d6000fd5b505050506040513d6020811015610bea57600080fd5b5060019695505050505050565b60008073__DepositLiquidation____________________63a43c845b90916040518263ffffffff1660e060020a0281526004018082815260200191505060006040518083038186803b1580156107c257600080fd5b604080517fea89624a00000000000000000000000000000000000000000000000000000000815260006004820181905277ffffffffffffffffffffffffffffffffffffffffffffffff19851660248301526bffffffffffffffffffffffff1984166044830152915173__DepositRedemption_____________________9163ea89624a9160648083019286929190829003018186803b158015610cef57600080fd5b505af4158015610bea573d6000803e3d6000fd5b60008073__DepositRedemption_____________________63eec163b89091878787876040518663ffffffff1660e060020a02815260040180868152602001806020018060200185815260200180602001848103845288818151815260200191508051906020019080838360005b83811015610d89578181015183820152602001610d71565b50505050905090810190601f168015610db65780820380516001836020036101000a031916815260200191505b50848103835287518152875160209182019189019080838360005b83811015610de9578181015183820152602001610dd1565b50505050905090810190601f168015610e165780820380516001836020036101000a031916815260200191505b50848103825285518152855160209182019187019080838360005b83811015610e49578181015183820152602001610e31565b50505050905090810190601f168015610e765780820380516001836020036101000a031916815260200191505b509850505050505050505060006040518083038186803b158015610e9957600080fd5b505af4158015610ead573d6000803e3d6000fd5b50600198975050505050505050565b60008073__DepositRedemption_____________________635976635790916040518263ffffffff1660e060020a0281526004018082815260200191505060006040518083038186803b1580156107c257600080fd5b60008073__DepositLiquidation____________________63c396a1f490916040518263ffffffff1660e060020a0281526004018082815260200191505060006040518083038186803b1580156107c257600080fd5b60008073__DepositLiquidation____________________63a221542190916040518263ffffffff1660e060020a0281526004018082815260200191505060006040518083038186803b1580156107c257600080fd5b604080517f2d0c21bf00000000000000000000000000000000000000000000000000000000815260006004820181905277ffffffffffffffffffffffffffffffffffffffffffffffff19808616602484015284166044830152915173__DepositRedemption_____________________91632d0c21bf916064808301926020929190829003018186803b15801561105457600080fd5b505af4158015611068573d6000803e3d6000fd5b505050506040513d602081101561107e57600080fd5b50519392505050565b60008073__DepositLiquidation____________________6393a3866490916040518263ffffffff1660e060020a0281526004018082815260200191505060006040518083038186803b1580156107c257600080fd5b60008073__DepositLiquidation____________________6310e0b6c39091878787876040518663ffffffff1660e060020a028152600401808681526020018060200180602001858152602001806020018481038452888181518152602001915080519060200190808383600083811015610d89578181015183820152602001610d71565b60008073__DepositFunding________________________635347b1de90916040518263ffffffff1660e060020a0281526004018082815260200191505060006040518083038186803b1580156107c257600080fd5b604080517f3c686baa00000000000000000000000000000000000000000000000000000000815260006004820181905260ff861660248301526044820185905260648201849052915173__DepositRedemption_____________________91633c686baa9160848083019286929190829003018186803b15801561123b57600080fd5b505af415801561124f573d6000803e3d6000fd5b506001979650505050505050565b60008073__DepositFunding________________________63fed4bcdf9091878787876040518663ffffffff1660e060020a028152600401808681526020018060200180602001858152602001806020018481038452888181518152602001915080519060200190808383600083811015610ab0578181015183820152602001610a98565b6040517f4941676c00000000000000000000000000000000000000000000000000000000815260006004820181815260ff8816602484015260448301879052606483018690526084830185905260c060a48401908152845160c48501528451929373__DepositLiquidation____________________93634941676c9386938c938c938c938c938c939192909160e4019060208501908083838d83811015610940578181015183820152602001610928565b6000805473ffffffffffffffffffffffffffffffffffffffff80881673ffffffffffffffffffffffffffffffffffffffff19928316178355600180548883169084161790556002805491871691909216179055604080517f09ab65f5000000000000000000000000000000000000000000000000000000008152600481018390526024810185905260448101849052905173__DepositFunding________________________916309ab65f5916064808301926020929190829003018186803b15801561146057600080fd5b505af4158015611474573d6000803e3d6000fd5b505050506040513d602081101561124f57600080fd5b60008073__DepositFunding________________________63cd40cc6490916040518263ffffffff1660e060020a0281526004018082815260200191505060006040518083038186803b1580156107c257600080fd5b60008073__DepositFunding________________________63bb21d02490916040518263ffffffff1660e060020a0281526004018082815260200191505060006040518083038186803b1580156107c257600080fd00a165627a7a723058203dae2296fbfc19486f1d3fd050b7ef61c128c3c36239481bb163604fcc8c5b9b0029",
  "source": "pragma solidity 0.4.25;\n\nimport {DepositLiquidation} from \"./DepositLiquidation.sol\";\nimport {DepositUtils} from \"./DepositUtils.sol\";\nimport {DepositFunding} from \"./DepositFunding.sol\";\nimport {DepositRedemption} from \"./DepositRedemption.sol\";\n\ncontract Deposit {\n\n    using DepositRedemption for DepositUtils.Deposit;\n    using DepositFunding for DepositUtils.Deposit;\n    using DepositLiquidation for DepositUtils.Deposit;\n    using DepositUtils for DepositUtils.Deposit;\n\n    DepositUtils.Deposit self;\n\n    // We separate the constructor from createNewDeposit to make proxy factories easier\n    /* solium-disable-next-line no-empty-blocks */\n    constructor () public {}\n\n    function () public payable {}\n\n    /// @notice     Get the integer representing the current state\n    /// @dev        We implement this because contracts don't handle foreign enums well\n    /// @return     The 0-indexed state from the DepositStates enum\n    function getCurrentState() public view returns (uint256) {\n        return uint256(self.currentState);\n    }\n\n    // THIS IS THE INIT FUNCTION\n    /// @notice         The system can spin up a new deposit\n    /// @dev            This should be called by an approved contract, not a developer\n    /// @param _m       m for m-of-n\n    /// @param _m       n for m-of-n\n    /// @return         True if successful, otherwise revert\n    function createNewDeposit(\n        address _TBTCSystem,\n        address _TBTCToken,\n        address _KeepBridge,\n        uint256 _m,\n        uint256 _n\n    ) public payable returns (bool) {\n        self.TBTCSystem = _TBTCSystem;\n        self.TBTCToken = _TBTCToken;\n        self.KeepBridge = _KeepBridge;\n        self.createNewDeposit(_m, _n);\n        return true;\n    }\n\n    /// @notice                     Anyone can request redemption\n    /// @dev                        The redeemer specifies details about the Bitcoin redemption tx\n    /// @param  _outputValueBytes   The 8-byte LE output size\n    /// @param  _requesterPKH       The 20-byte Bitcoin pubkeyhash to which to send funds\n    /// @return                     True if successful, otherwise revert\n    function requestRedemption(\n        bytes8 _outputValueBytes,\n        bytes20 _requesterPKH\n    ) public returns (bool) {\n        self.requestRedemption(_outputValueBytes, _requesterPKH);\n        return true;\n    }\n\n    /// @notice     Anyone may provide a withdrawal signature if it was requested\n    /// @dev        The signers will be penalized if this (or provideRedemptionProof) is not called\n    /// @param  _v  Signature recovery value\n    /// @param  _r  Signature R value\n    /// @param  _s  Signature S value\n    /// @return     True if successful, False if prevented by timeout, otherwise revert\n    function provideRedemptionSignature(\n        uint8 _v,\n        bytes32 _r,\n        bytes32 _s\n    ) public returns (bool) {\n        self.provideRedemptionSignature(_v, _r, _s);\n        return true;\n    }\n\n    /// @notice                             Anyone may notify the contract that a fee bump is needed\n    /// @dev                                This sends us back to AWAITING_WITHDRAWAL_SIGNATURE\n    /// @param  _previousOutputValueBytes   The previous output's value\n    /// @param  _newOutputValueBytes        The new output's value\n    /// @return                             True if successful, False if prevented by timeout, otherwise revert\n    function increaseRedemptionFee(\n        bytes8 _previousOutputValueBytes,\n        bytes8 _newOutputValueBytes\n    ) public returns (bool) {\n        return self.increaseRedemptionFee(_previousOutputValueBytes, _newOutputValueBytes);\n    }\n\n    /// @notice                 Anyone may provide a withdrawal proof to prove redemption\n    /// @dev                    The signers will be penalized if this is not called\n    /// @param  _bitcoinTx      The bitcoin tx that purportedly contain the redemption output\n    /// @param  _merkleProof    The merkle proof of inclusion of the tx in the bitcoin block\n    /// @param  _index          The index of the tx in the Bitcoin block (1-indexed)\n    /// @param  _bitcoinHeaders An array of tightly-packed bitcoin headers\n    /// @return                 True if successful, otherwise revert\n    function provideRedemptionProof(\n        bytes _bitcoinTx,\n        bytes _merkleProof,\n        uint256 _index,\n        bytes _bitcoinHeaders\n    ) public returns (bool) {\n        self.provideRedemptionProof(_bitcoinTx, _merkleProof, _index, _bitcoinHeaders);\n        return true;\n    }\n\n    /// @notice     Anyone may notify the contract that the signers have failed to produce a signature\n    /// @dev        This is considered fraud, and is punished\n    /// @return     True if successful, otherwise revert\n    function notifySignatureTimeout() public returns (bool) {\n        self.notifySignatureTimeout();\n        return true;\n    }\n\n    /// @notice     Anyone may notify the contract that the signers have failed to produce a redemption proof\n    /// @dev        This is considered fraud, and is punished\n    /// @return     True if successful, otherwise revert\n    function notifyRedemptionProofTimeout() public returns (bool) {\n        self.notifyRedemptionProofTimeout();\n        return true;\n    }\n\n    //\n    // FUNDING FLOW\n    //\n\n    /// @notice     Anyone may notify the contract that signing group setup has timed out\n    /// @dev        We rely on the keep system punishes the signers in this case\n    /// @return     True if successful, otherwise revert\n    function notifySignerSetupFailure() public returns (bool) {\n        self.notifySignerSetupFailure();\n        return true;\n    }\n\n    /// @notice             we poll the Keep contract to retrieve our pubkey\n    /// @dev                We store the pubkey as 2 bytestrings, X and Y.\n    /// @return             True if successful, otherwise revert\n    function retrieveSignerPubkey() public returns (bool) {\n        self.retrieveSignerPubkey();\n        return true;\n    }\n\n    /// @notice     Anyone may notify the contract that the funder has failed to send BTC\n    /// @dev        This is considered a funder fault, and we revoke their bond\n    /// @return     True if successful, otherwise revert\n    function notifyFundingTimeout() public returns (bool) {\n        self.notifyFundingTimeout();\n        return true;\n    }\n\n    /// @notice                 Anyone can provide a signature that was not requested to prove fraud during funding\n    /// @dev                    ECDSA is NOT SECURE unless you verify the digest\n    /// @param  _v              Signature recovery value\n    /// @param  _r              Signature R value\n    /// @param  _s              Signature S value\n    /// @param _signedDigest    The digest signed by the signature vrs tuple\n    /// @param _preimage        The sha256 preimage of the digest\n    /// @return                 True if successful, otherwise revert\n    function provideFundingECDSAFraudProof(\n        uint8 _v,\n        bytes32 _r,\n        bytes32 _s,\n        bytes32 _signedDigest,\n        bytes _preimage\n    ) public returns (bool) {\n        self.provideFundingECDSAFraudProof(_v, _r, _s, _signedDigest, _preimage);\n        return true;\n    }\n\n    /// @notice     Anyone may notify the contract no funding proof was submitted during funding fraud\n    /// @dev        This is not a funder fault. The signers have faulted, so the funder shouldn't fund\n    /// @return     True if successful, otherwise revert\n    function notifyFraudFundingTimeout() public returns (bool) {\n        self.notifyFraudFundingTimeout();\n        return true;\n    }\n\n    /// @notice                 Anyone may notify the deposit of a funding proof during funding fraud\n    /// @dev                    We reward the funder the entire bond if this occurs\n    /// @param  _bitcoinTx      The bitcoin tx that purportedly contains the funding output\n    /// @param  _merkleProof    The merkle proof of inclusion of the tx in the bitcoin block\n    /// @param  _index          The index of the tx in the Bitcoin block (1-indexed)\n    /// @param  _bitcoinHeaders An array of tightly-packed bitcoin headers\n    /// @return                 True if successful, False if prevented by timeout, otherwise revert\n    function provideFraudBTCFundingProof(\n        bytes _bitcoinTx,\n        bytes _merkleProof,\n        uint256 _index,\n        bytes _bitcoinHeaders\n    ) public returns (bool) {\n        self.provideFraudBTCFundingProof(_bitcoinTx, _merkleProof, _index, _bitcoinHeaders);\n        return true;\n    }\n\n    /// @notice                 Anyone may notify the deposit of a funding proof to activate the deposit\n    /// @dev                    This is the happy-path of the funding flow. It means that we have suecceeded\n    /// @param  _bitcoinTx      The bitcoin tx that purportedly contains the funding output\n    /// @param  _merkleProof    The merkle proof of inclusion of the tx in the bitcoin block\n    /// @param  _index          The index of the tx in the Bitcoin block (1-indexed)\n    /// @param  _bitcoinHeaders An array of tightly-packed bitcoin headers\n    /// @return                 True if successful, False if prevented by timeout, otherwise revert\n    function provideBTCFundingProof(\n        bytes _bitcoinTx,\n        bytes _merkleProof,\n        uint256 _index,\n        bytes _bitcoinHeaders\n    ) public returns (bool) {\n        self.provideBTCFundingProof(_bitcoinTx, _merkleProof, _index, _bitcoinHeaders);\n        return true;\n    }\n\n    //\n    // FRAUD\n    //\n\n    /// @notice                 Anyone can provide a signature that was not requested to prove fraud\n    /// @dev                    ECDSA is NOT SECURE unless you verify the digest\n    /// @param  _v              Signature recovery value\n    /// @param  _r              Signature R value\n    /// @param  _s              Signature S value\n    /// @param _signedDigest    The digest signed by the signature vrs tuple\n    /// @param _preimage        The sha256 preimage of the digest\n    /// @return                 True if successful, otherwise revert\n    function provideECDSAFraudProof(\n        uint8 _v,\n        bytes32 _r,\n        bytes32 _s,\n        bytes32 _signedDigest,\n        bytes _preimage\n    ) public returns (bool) {\n        self.provideECDSAFraudProof(_v, _r, _s, _signedDigest, _preimage);\n        return true;\n    }\n\n    /// @notice                 Anyone may notify the deposit of fraud via an SPV proof\n    /// @dev                    We strong prefer ECDSA fraud proofs\n    /// @param  _bitcoinTx      The bitcoin tx that purportedly contains the funding output\n    /// @param  _merkleProof    The merkle proof of inclusion of the tx in the bitcoin block\n    /// @param  _index          The index of the tx in the Bitcoin block (1-indexed)\n    /// @param  _bitcoinHeaders An array of tightly-packed bitcoin headers\n    /// @return                 True if successful, otherwise revert\n    function provideSPVFraudProof(\n        bytes _bitcoinTx,\n        bytes _merkleProof,\n        uint256 _index,\n        bytes _bitcoinHeaders\n    ) public returns (bool) {\n        self.provideSPVFraudProof(_bitcoinTx, _merkleProof, _index, _bitcoinHeaders);\n        return true;\n    }\n\n    ///\n    /// LIQUIDATION\n    ///\n\n    /// @notice     Closes an auction and purchases the signer bonds. Payout to buyer, funder, then signers if not fraud\n    /// @dev        For interface, reading auctionValue will give a past value. the current is better\n    /// @return     True if successful, revert otherwise\n    function purchaseSignerBondsAtAuction() public returns (bool) {\n        self.purchaseSignerBondsAtAuction();\n        return true;\n    }\n\n    /// @notice     Notify the contract that the signers are undercollateralized\n    /// @dev        Calls out to the system for oracle info\n    /// @return     True if successful, otherwise revert\n    function notifyCourtesyCall() public returns (bool) {\n        self.notifyCourtesyCall();\n        return true;\n    }\n\n    /// @notice     Goes from courtesy call to active\n    /// @dev        Only callable if collateral is sufficient and the deposit is not expiring\n    /// @return     True if successful, otherwise revert\n    function exitCourtesyCall() public returns (bool) {\n        self.exitCourtesyCall();\n        return true;\n    }\n\n    /// @notice     Notify the contract that the signers are undercollateralized\n    /// @dev        Calls out to the system for oracle info\n    /// @return     True if successful, otherwise revert\n    function notifyUndercollateralizedLiquidation() public returns (bool) {\n        self.notifyUndercollateralizedLiquidation();\n        return true;\n    }\n\n    /// @notice     Notifies the contract that the courtesy period has elapsed\n    /// @dev        This is treated as an abort, rather than fraud\n    /// @return     True if successful, otherwise revert\n    function notifyCourtesyTimeout() public returns (bool) {\n        self.notifyCourtesyTimeout();\n        return true;\n    }\n\n    /// @notice     Notifies the contract that its term limit has been reached\n    /// @dev        This initiates a courtesy call\n    /// @return     True if successful, otherwise revert\n    function notifyDepositExpiryCourtesyCall() public returns (bool) {\n        self.notifyDepositExpiryCourtesyCall();\n        return true;\n    }\n}\n",
  "sourcePath": "/Users/liamz/go/src/github.com/keep-network/tbtc/implementation/contracts/deposit/Deposit.sol",
  "compiler": {
    "name": "solc",
    "version": "0.4.25+commit.59dbf8f1.Emscripten.clang"
  },
  "schemaVersion": "3.0.10",
  "updatedAt": "2019-07-19T12:16:35.699Z",
  "devdoc": {
    "methods": {
      "createNewDeposit(address,address,address,uint256,uint256)": {
        "details": "This should be called by an approved contract, not a developer",
        "params": {
          "_m": "n for m-of-n"
        },
        "return": "True if successful, otherwise revert"
      },
      "exitCourtesyCall()": {
        "details": "Only callable if collateral is sufficient and the deposit is not expiring",
        "return": "True if successful, otherwise revert"
      },
      "getCurrentState()": {
        "details": "We implement this because contracts don't handle foreign enums well",
        "return": "The 0-indexed state from the DepositStates enum"
      },
      "increaseRedemptionFee(bytes8,bytes8)": {
        "details": "This sends us back to AWAITING_WITHDRAWAL_SIGNATURE",
        "params": {
          "_newOutputValueBytes": "The new output's value",
          "_previousOutputValueBytes": "The previous output's value"
        },
        "return": "True if successful, False if prevented by timeout, otherwise revert"
      },
      "notifyCourtesyCall()": {
        "details": "Calls out to the system for oracle info",
        "return": "True if successful, otherwise revert"
      },
      "notifyCourtesyTimeout()": {
        "details": "This is treated as an abort, rather than fraud",
        "return": "True if successful, otherwise revert"
      },
      "notifyDepositExpiryCourtesyCall()": {
        "details": "This initiates a courtesy call",
        "return": "True if successful, otherwise revert"
      },
      "notifyFraudFundingTimeout()": {
        "details": "This is not a funder fault. The signers have faulted, so the funder shouldn't fund",
        "return": "True if successful, otherwise revert"
      },
      "notifyFundingTimeout()": {
        "details": "This is considered a funder fault, and we revoke their bond",
        "return": "True if successful, otherwise revert"
      },
      "notifyRedemptionProofTimeout()": {
        "details": "This is considered fraud, and is punished",
        "return": "True if successful, otherwise revert"
      },
      "notifySignatureTimeout()": {
        "details": "This is considered fraud, and is punished",
        "return": "True if successful, otherwise revert"
      },
      "notifySignerSetupFailure()": {
        "details": "We rely on the keep system punishes the signers in this case",
        "return": "True if successful, otherwise revert"
      },
      "notifyUndercollateralizedLiquidation()": {
        "details": "Calls out to the system for oracle info",
        "return": "True if successful, otherwise revert"
      },
      "provideBTCFundingProof(bytes,bytes,uint256,bytes)": {
        "details": "This is the happy-path of the funding flow. It means that we have suecceeded",
        "params": {
          "_bitcoinHeaders": "An array of tightly-packed bitcoin headers",
          "_bitcoinTx": "The bitcoin tx that purportedly contains the funding output",
          "_index": "The index of the tx in the Bitcoin block (1-indexed)",
          "_merkleProof": "The merkle proof of inclusion of the tx in the bitcoin block"
        },
        "return": "True if successful, False if prevented by timeout, otherwise revert"
      },
      "provideECDSAFraudProof(uint8,bytes32,bytes32,bytes32,bytes)": {
        "details": "ECDSA is NOT SECURE unless you verify the digest",
        "params": {
          "_preimage": "The sha256 preimage of the digest",
          "_r": "Signature R value",
          "_s": "Signature S value",
          "_signedDigest": "The digest signed by the signature vrs tuple",
          "_v": "Signature recovery value"
        },
        "return": "True if successful, otherwise revert"
      },
      "provideFraudBTCFundingProof(bytes,bytes,uint256,bytes)": {
        "details": "We reward the funder the entire bond if this occurs",
        "params": {
          "_bitcoinHeaders": "An array of tightly-packed bitcoin headers",
          "_bitcoinTx": "The bitcoin tx that purportedly contains the funding output",
          "_index": "The index of the tx in the Bitcoin block (1-indexed)",
          "_merkleProof": "The merkle proof of inclusion of the tx in the bitcoin block"
        },
        "return": "True if successful, False if prevented by timeout, otherwise revert"
      },
      "provideFundingECDSAFraudProof(uint8,bytes32,bytes32,bytes32,bytes)": {
        "details": "ECDSA is NOT SECURE unless you verify the digest",
        "params": {
          "_preimage": "The sha256 preimage of the digest",
          "_r": "Signature R value",
          "_s": "Signature S value",
          "_signedDigest": "The digest signed by the signature vrs tuple",
          "_v": "Signature recovery value"
        },
        "return": "True if successful, otherwise revert"
      },
      "provideRedemptionProof(bytes,bytes,uint256,bytes)": {
        "details": "The signers will be penalized if this is not called",
        "params": {
          "_bitcoinHeaders": "An array of tightly-packed bitcoin headers",
          "_bitcoinTx": "The bitcoin tx that purportedly contain the redemption output",
          "_index": "The index of the tx in the Bitcoin block (1-indexed)",
          "_merkleProof": "The merkle proof of inclusion of the tx in the bitcoin block"
        },
        "return": "True if successful, otherwise revert"
      },
      "provideRedemptionSignature(uint8,bytes32,bytes32)": {
        "details": "The signers will be penalized if this (or provideRedemptionProof) is not called",
        "params": {
          "_r": "Signature R value",
          "_s": "Signature S value",
          "_v": "Signature recovery value"
        },
        "return": "True if successful, False if prevented by timeout, otherwise revert"
      },
      "provideSPVFraudProof(bytes,bytes,uint256,bytes)": {
        "details": "We strong prefer ECDSA fraud proofs",
        "params": {
          "_bitcoinHeaders": "An array of tightly-packed bitcoin headers",
          "_bitcoinTx": "The bitcoin tx that purportedly contains the funding output",
          "_index": "The index of the tx in the Bitcoin block (1-indexed)",
          "_merkleProof": "The merkle proof of inclusion of the tx in the bitcoin block"
        },
        "return": "True if successful, otherwise revert"
      },
      "purchaseSignerBondsAtAuction()": {
        "details": "For interface, reading auctionValue will give a past value. the current is better",
        "return": "True if successful, revert otherwise"
      },
      "requestRedemption(bytes8,bytes20)": {
        "details": "The redeemer specifies details about the Bitcoin redemption tx",
        "params": {
          "_outputValueBytes": "The 8-byte LE output size",
          "_requesterPKH": "The 20-byte Bitcoin pubkeyhash to which to send funds"
        },
        "return": "True if successful, otherwise revert"
      },
      "retrieveSignerPubkey()": {
        "details": "We store the pubkey as 2 bytestrings, X and Y.",
        "return": "True if successful, otherwise revert"
      }
    }
  },
  "userdoc": {
    "methods": {
      "createNewDeposit(address,address,address,uint256,uint256)": {
        "notice": "The system can spin up a new deposit"
      },
      "exitCourtesyCall()": {
        "notice": "Goes from courtesy call to active"
      },
      "getCurrentState()": {
        "notice": "Get the integer representing the current state"
      },
      "increaseRedemptionFee(bytes8,bytes8)": {
        "notice": "Anyone may notify the contract that a fee bump is needed"
      },
      "notifyCourtesyCall()": {
        "notice": "Notify the contract that the signers are undercollateralized"
      },
      "notifyCourtesyTimeout()": {
        "notice": "Notifies the contract that the courtesy period has elapsed"
      },
      "notifyDepositExpiryCourtesyCall()": {
        "notice": "Notifies the contract that its term limit has been reached"
      },
      "notifyFraudFundingTimeout()": {
        "notice": "Anyone may notify the contract no funding proof was submitted during funding fraud"
      },
      "notifyFundingTimeout()": {
        "notice": "Anyone may notify the contract that the funder has failed to send BTC"
      },
      "notifyRedemptionProofTimeout()": {
        "notice": "Anyone may notify the contract that the signers have failed to produce a redemption proof"
      },
      "notifySignatureTimeout()": {
        "notice": "Anyone may notify the contract that the signers have failed to produce a signature"
      },
      "notifySignerSetupFailure()": {
        "notice": "Anyone may notify the contract that signing group setup has timed out"
      },
      "notifyUndercollateralizedLiquidation()": {
        "notice": "Notify the contract that the signers are undercollateralized"
      },
      "provideBTCFundingProof(bytes,bytes,uint256,bytes)": {
        "notice": "Anyone may notify the deposit of a funding proof to activate the deposit"
      },
      "provideECDSAFraudProof(uint8,bytes32,bytes32,bytes32,bytes)": {
        "notice": "Anyone can provide a signature that was not requested to prove fraud"
      },
      "provideFraudBTCFundingProof(bytes,bytes,uint256,bytes)": {
        "notice": "Anyone may notify the deposit of a funding proof during funding fraud"
      },
      "provideFundingECDSAFraudProof(uint8,bytes32,bytes32,bytes32,bytes)": {
        "notice": "Anyone can provide a signature that was not requested to prove fraud during funding"
      },
      "provideRedemptionProof(bytes,bytes,uint256,bytes)": {
        "notice": "Anyone may provide a withdrawal proof to prove redemption"
      },
      "provideRedemptionSignature(uint8,bytes32,bytes32)": {
        "notice": "Anyone may provide a withdrawal signature if it was requested"
      },
      "provideSPVFraudProof(bytes,bytes,uint256,bytes)": {
        "notice": "Anyone may notify the deposit of fraud via an SPV proof"
      },
      "purchaseSignerBondsAtAuction()": {
        "notice": " LIQUIDATION  Closes an auction and purchases the signer bonds. Payout to buyer, funder, then signers if not fraud"
      },
      "requestRedemption(bytes8,bytes20)": {
        "notice": "Anyone can request redemption"
      },
      "retrieveSignerPubkey()": {
        "notice": "we poll the Keep contract to retrieve our pubkey"
      }
    }
  }
}