{
  "contractName": "DepositRedemption",
  "abi": [
    {
      "constant": false,
      "inputs": [
        {
          "name": "_d",
          "type": "DepositUtils.Deposit storage"
        }
      ],
      "name": "distributeSignerFee",
      "outputs": [],
      "payable": false,
      "stateMutability": "nonpayable",
      "type": "function"
    },
    {
      "constant": false,
      "inputs": [
        {
          "name": "_d",
          "type": "DepositUtils.Deposit storage"
        },
        {
          "name": "_digest",
          "type": "bytes32"
        }
      ],
      "name": "approveDigest",
      "outputs": [
        {
          "name": "",
          "type": "bool"
        }
      ],
      "payable": false,
      "stateMutability": "nonpayable",
      "type": "function"
    },
    {
      "constant": false,
      "inputs": [
        {
          "name": "_d",
          "type": "DepositUtils.Deposit storage"
        },
        {
          "name": "_outputValueBytes",
          "type": "bytes8"
        },
        {
          "name": "_requesterPKH",
          "type": "bytes20"
        }
      ],
      "name": "requestRedemption",
      "outputs": [],
      "payable": false,
      "stateMutability": "nonpayable",
      "type": "function"
    },
    {
      "constant": false,
      "inputs": [
        {
          "name": "_d",
          "type": "DepositUtils.Deposit storage"
        },
        {
          "name": "_v",
          "type": "uint8"
        },
        {
          "name": "_r",
          "type": "bytes32"
        },
        {
          "name": "_s",
          "type": "bytes32"
        }
      ],
      "name": "provideRedemptionSignature",
      "outputs": [],
      "payable": false,
      "stateMutability": "nonpayable",
      "type": "function"
    },
    {
      "constant": false,
      "inputs": [
        {
          "name": "_d",
          "type": "DepositUtils.Deposit storage"
        },
        {
          "name": "_previousOutputValueBytes",
          "type": "bytes8"
        },
        {
          "name": "_newOutputValueBytes",
          "type": "bytes8"
        }
      ],
      "name": "increaseRedemptionFee",
      "outputs": [
        {
          "name": "",
          "type": "bool"
        }
      ],
      "payable": false,
      "stateMutability": "nonpayable",
      "type": "function"
    },
    {
      "constant": true,
      "inputs": [
        {
          "name": "_d",
          "type": "DepositUtils.Deposit storage"
        },
        {
          "name": "_previousOutputValueBytes",
          "type": "bytes8"
        },
        {
          "name": "_newOutputValueBytes",
          "type": "bytes8"
        }
      ],
      "name": "checkRelationshipToPrevious",
      "outputs": [
        {
          "name": "_newOutputValue",
          "type": "uint256"
        }
      ],
      "payable": false,
      "stateMutability": "view",
      "type": "function"
    },
    {
      "constant": false,
      "inputs": [
        {
          "name": "_d",
          "type": "DepositUtils.Deposit storage"
        },
        {
          "name": "_bitcoinTx",
          "type": "bytes"
        },
        {
          "name": "_merkleProof",
          "type": "bytes"
        },
        {
          "name": "_index",
          "type": "uint256"
        },
        {
          "name": "_bitcoinHeaders",
          "type": "bytes"
        }
      ],
      "name": "provideRedemptionProof",
      "outputs": [],
      "payable": false,
      "stateMutability": "nonpayable",
      "type": "function"
    },
    {
      "constant": true,
      "inputs": [
        {
          "name": "_d",
          "type": "DepositUtils.Deposit storage"
        },
        {
          "name": "_bitcoinTx",
          "type": "bytes"
        }
      ],
      "name": "redemptionTransactionChecks",
      "outputs": [
        {
          "name": "",
          "type": "bytes32"
        },
        {
          "name": "",
          "type": "uint256"
        }
      ],
      "payable": false,
      "stateMutability": "view",
      "type": "function"
    },
    {
      "constant": false,
      "inputs": [
        {
          "name": "_d",
          "type": "DepositUtils.Deposit storage"
        }
      ],
      "name": "notifySignatureTimeout",
      "outputs": [],
      "payable": false,
      "stateMutability": "nonpayable",
      "type": "function"
    },
    {
      "constant": false,
      "inputs": [
        {
          "name": "_d",
          "type": "DepositUtils.Deposit storage"
        }
      ],
      "name": "notifyRedemptionProofTimeout",
      "outputs": [],
      "payable": false,
      "stateMutability": "nonpayable",
      "type": "function"
    }
  ],
  "bytecode": "0x613a98610030600b82828239805160001a6073146000811461002057610022565bfe5b5030600052607381538281f30073000000000000000000000000000000000000000030146080604052600436106100a15763ffffffff60e060020a6000350416631253f46f81146100a65780632d0c21bf146101105780633c686baa1461014f5780633f36b8c914610175578063597663571461018d5780636b9f182b146101a5578063cd538954146101c0578063d953c02b146101d8578063ea89624a14610208578063eec163b81461023f575b600080fd5b60408051602060046024803582810135601f81018590048502860185019096528585526100f795833595369560449491939091019190819084018382808284375094975061031f9650505050505050565b6040805192835260208301919091528051918290030190f35b81801561011c57600080fd5b5061013b600435600160c060020a031960243581169060443516610c4e565b604080519115158252519081900360200190f35b81801561015b57600080fd5b5061017360043560ff60243516604435606435611392565b005b81801561018157600080fd5b506101736004356117f2565b81801561019957600080fd5b50610173600435611a4e565b8180156101b157600080fd5b5061013b600435602435611c88565b8180156101cc57600080fd5b50610173600435611d33565b6101f6600435600160c060020a031960243581169060443516611efe565b60408051918252519081900360200190f35b81801561021457600080fd5b50610173600435600160c060020a0319602435166bffffffffffffffffffffffff19604435166123e0565b81801561024b57600080fd5b5060408051602060046024803582810135601f810185900485028601850190965285855261017395833595369560449491939091019190819084018382808284375050604080516020601f89358b018035918201839004830284018301909452808352979a99988101979196509182019450925082915084018382808284375050604080516020601f818a01358b0180359182018390048302840183018552818452989b8a359b909a909994019750919550918201935091508190840183828082843750949750612d489650505050505050565b600080606080606080606060008873__ValidateSPV___________________________636750d35b90916040518263ffffffff1660e060020a0281526004018080602001828103825283818151815260200191508051906020019080838360005b83811015610398578181015183820152602001610380565b50505050905090810190601f1680156103c55780820380516001836020036101000a031916815260200191505b509250505060006040518083038186803b1580156103e257600080fd5b505af41580156103f6573d6000803e3d6000fd5b505050506040513d6000823e601f3d908101601f1916820160405260c081101561041f57600080fd5b81019080805164010000000081111561043757600080fd5b8201602081018481111561044a57600080fd5b815164010000000081118282018710171561046457600080fd5b5050929190602001805164010000000081111561048057600080fd5b8201602081018481111561049357600080fd5b81516401000000008111828201871017156104ad57600080fd5b505092919060200180516401000000008111156104c957600080fd5b820160208101848111156104dc57600080fd5b81516401000000008111828201871017156104f657600080fd5b5050929190602001805164010000000081111561051257600080fd5b8201602081018481111561052557600080fd5b815164010000000081118282018710171561053f57600080fd5b5050929190602001805164010000000081111561055b57600080fd5b8201602081018481111561056e57600080fd5b815164010000000081118282018710171561058857600080fd5b5050602090910151969c50949a5092985090965091945091925050508015156105fb576040805160e560020a62461bcd02815260206004820152601160248201527f4661696c65642074782070617273696e67000000000000000000000000000000604482015290519081900360640190fd5b89601101604051808280546001816001161561010002031660029004801561065a5780601f1061063857610100808354040283529182019161065a565b820191906000526020600020905b815481529060010190602001808311610646575b50506040519081900381207fb8fa78300000000000000000000000000000000000000000000000000000000082526020600483018181528a5160248501528a5192955073__BTCUtils______________________________945063b8fa7830938b93919283926044909201919085019080838360005b838110156106e85781810151838201526020016106d0565b50505050905090810190601f1680156107155780820380516001836020036101000a031916815260200191505b509250505060006040518083038186803b15801561073257600080fd5b505af4158015610746573d6000803e3d6000fd5b505050506040513d6000823e601f3d908101601f19168201604052602081101561076f57600080fd5b81019080805164010000000081111561078757600080fd5b8201602081018481111561079a57600080fd5b81516401000000008111828201871017156107b457600080fd5b50509291905050506040518082805190602001908083835b602083106107eb5780518252601f1990920191602091820191016107cc565b6001836020036101000a038019825116818451168082178552505050505050905001915050604051809103902060001916141515610873576040805160e560020a62461bcd02815260206004820152601860248201527f5478207370656e6473207468652077726f6e67205554584f0000000000000000604482015290519081900360640190fd5b600b8a0154604080516c010000000000000000000000009092026bffffffffffffffffffffffff191660208084019190915281516014818503018152603490930191829052825182918401908083835b602083106108e25780518252601f1990920191602091820191016108c3565b51815160209384036101000a60001901801990921691161790526040519190930181900381207e0c81f40000000000000000000000000000000000000000000000000000000082526004820184815289516024840152895191965073__BTCUtils______________________________9550620c81f4948a94509092839260449091019185019080838360005b8381101561098757818101518382015260200161096f565b50505050905090810190601f1680156109b45780820380516001836020036101000a031916815260200191505b509250505060006040518083038186803b1580156109d157600080fd5b505af41580156109e5573d6000803e3d6000fd5b505050506040513d6000823e601f3d908101601f191682016040526020811015610a0e57600080fd5b810190808051640100000000811115610a2657600080fd5b82016020810184811115610a3957600080fd5b8151640100000000811182820187101715610a5357600080fd5b50509291905050506040518082805190602001908083835b60208310610a8a5780518252601f199092019160209182019101610a6b565b6001836020036101000a038019825116818451168082178552505050505050905001915050604051809103902060001916141515610b38576040805160e560020a62461bcd02815260206004820152602260248201527f54782073656e64732076616c756520746f2077726f6e67207075626b6579686160448201527f7368000000000000000000000000000000000000000000000000000000000000606482015290519081900360840190fd5b6040517f3e39b410000000000000000000000000000000000000000000000000000000008152602060048201818152855160248401528551849373__BTCUtils______________________________93633e39b410938993909283926044909101919085019080838360005b83811015610bbc578181015183820152602001610ba4565b50505050905090810190601f168015610be95780820380516001836020036101000a031916815260200191505b509250505060206040518083038186803b158015610c0657600080fd5b505af4158015610c1a573d6000803e3d6000fd5b505050506040513d6020811015610c3057600080fd5b505190985067ffffffffffffffff1696505050505050509250929050565b60008060008573__DepositStates_________________________63cb4536ad90916040518263ffffffff1660e060020a0281526004018082815260200191505060206040518083038186803b158015610ca757600080fd5b505af4158015610cbb573d6000803e3d6000fd5b505050506040513d6020811015610cd157600080fd5b50511515610d4f576040805160e560020a62461bcd02815260206004820152603460248201527f46656520696e637265617365206f6e6c7920617661696c61626c65206166746560448201527f72207369676e61747572652070726f7669646564000000000000000000000000606482015290519081900360840190fd5b73__TBTCConstants_________________________63f653c0b96040518163ffffffff1660e060020a02815260040160206040518083038186803b158015610d9657600080fd5b505af4158015610daa573d6000803e3d6000fd5b505050506040513d6020811015610dc057600080fd5b5051600d87015401421015610e1f576040805160e560020a62461bcd02815260206004820152601e60248201527f46656520696e637265617365206e6f7420796574207065726d69747465640000604482015290519081900360640190fd5b610e2a868686611efe565b915073__CheckBitcoinSigs______________________63831567a0876011018873__DepositUtils__________________________63e0dfd81a90916040518263ffffffff1660e060020a0281526004018082815260200191505060206040518083038186803b158015610e9e57600080fd5b505af4158015610eb2573d6000803e3d6000fd5b505050506040513d6020811015610ec857600080fd5b5051600f8a0154600b8b015460405160e060020a63ffffffff87160281526bffffffffffffffffffffffff198085166024830152600160c060020a031978010000000000000000000000000000000000000000000000009094028481166044840152938c1660648301526c01000000000000000000000000909202918216608482015260a06004820190815285546002600019600183161561010002019091160460a483018190528c9392829160c49091019088908015610fca5780601f10610f9f57610100808354040283529160200191610fca565b820191906000526020600020905b815481529060010190602001808311610fad57829003601f168201915b5050965050505050505060206040518083038186803b158015610fec57600080fd5b505af4158015611000573d6000803e3d6000fd5b505050506040513d602081101561101657600080fd5b505142600d880155600e870181905590506110318682611c88565b1515611087576040805160e560020a62461bcd02815260206004820152601360248201527f4b6565702072657475726e65642066616c736500000000000000000000000000604482015290519081900360640190fd5b8573__DepositStates_________________________63429fcb0d90916040518263ffffffff1660e060020a0281526004018082815260200191505060006040518083038186803b1580156110db57600080fd5b505af41580156110ef573d6000803e3d6000fd5b505050508573__OutsourceDepositLogging_______________635593d348909133848a73__DepositUtils__________________________6368bf68e190916040518263ffffffff1660e060020a0281526004018082815260200191505060206040518083038186803b15801561116657600080fd5b505af415801561117a573d6000803e3d6000fd5b505050506040513d602081101561119057600080fd5b5051600b8c0154604080517f68bf68e1000000000000000000000000000000000000000000000000000000008152600481018f905290516c0100000000000000000000000090920291611252918b9173__DepositUtils__________________________916368bf68e1916024808301926020929190829003018186803b15801561121a57600080fd5b505af415801561122e573d6000803e3d6000fd5b505050506040513d602081101561124457600080fd5b50519063ffffffff61359916565b8d6011016040518863ffffffff1660e060020a0281526004018088815260200187600160a060020a0316600160a060020a031681526020018660001916600019168152602001858152602001846bffffffffffffffffffffffff19166bffffffffffffffffffffffff191681526020018381526020018060200182810382528381815460018160011615610100020316600290048152602001915080546001816001161561010002031660029004801561134d5780601f106113225761010080835404028352916020019161134d565b820191906000526020600020905b81548152906001019060200180831161133057829003601f168201915b50509850505050505050505060006040518083038186803b15801561137157600080fd5b505af4158015611385573d6000803e3d6000fd5b5050505050509392505050565b8373__DepositStates_________________________63ef2bd3d090916040518263ffffffff1660e060020a0281526004018082815260200191505060206040518083038186803b1580156113e657600080fd5b505af41580156113fa573d6000803e3d6000fd5b505050506040513d602081101561141057600080fd5b5051151561148e576040805160e560020a62461bcd02815260206004820152602260248201527f4e6f742063757272656e746c79206177616974696e672061207369676e61747560448201527f7265000000000000000000000000000000000000000000000000000000000000606482015290519081900360840190fd5b8373__DepositUtils__________________________63db08d91990916040518263ffffffff1660e060020a0281526004018082815260200191505060006040518083038186803b1580156114e257600080fd5b505af41580156114f6573d6000803e3d6000fd5b505050506040513d6000823e601f3d908101601f19168201604052602081101561151f57600080fd5b81019080805164010000000081111561153757600080fd5b8201602081018481111561154a57600080fd5b815164010000000081118282018710171561156457600080fd5b5050600e8801546040517fcac9c9740000000000000000000000000000000000000000000000000000000081526024810182905260ff89166044820152606481018890526084810187905260a060048201908152835160a4830152835173__CheckBitcoinSigs______________________975063cac9c97496509394509192899289928992829160c40190602089019080838360005b838110156116135781810151838201526020016115fb565b50505050905090810190601f1680156116405780820380516001836020036101000a031916815260200191505b50965050505050505060206040518083038186803b15801561166157600080fd5b505af4158015611675573d6000803e3d6000fd5b505050506040513d602081101561168b57600080fd5b505115156116e3576040805160e560020a62461bcd02815260206004820152601160248201527f496e76616c6964207369676e6174757265000000000000000000000000000000604482015290519081900360640190fd5b8373__DepositStates_________________________63a6fd0b5690916040518263ffffffff1660e060020a0281526004018082815260200191505060006040518083038186803b15801561173757600080fd5b505af415801561174b573d6000803e3d6000fd5b50505050600e840154604080517f9e9b763600000000000000000000000000000000000000000000000000000000815260048101879052602481019290925260448201849052606482018390525173__OutsourceDepositLogging_______________91639e9b7636916084808301926000929190829003018186803b1580156117d457600080fd5b505af41580156117e8573d6000803e3d6000fd5b5050505050505050565b60018101546002820154604080517f75030f9c0000000000000000000000000000000000000000000000000000000081529051600160a060020a039384169384931691839163095ea7b391849173__DepositUtils__________________________916375030f9c916004808301926020929190829003018186803b15801561187a57600080fd5b505af415801561188e573d6000803e3d6000fd5b505050506040513d60208110156118a457600080fd5b50516040805160e060020a63ffffffff8616028152600160a060020a03909316600484015260248301919091525160448083019260209291908290030181600087803b1580156118f357600080fd5b505af1158015611907573d6000803e3d6000fd5b505050506040513d602081101561191d57600080fd5b50506005840154604080517f75030f9c0000000000000000000000000000000000000000000000000000000081529051600160a060020a038416926361dba7a4929091879173__DepositUtils__________________________916375030f9c91600480820192602092909190829003018186803b15801561199e57600080fd5b505af41580156119b2573d6000803e3d6000fd5b505050506040513d60208110156119c857600080fd5b50516040805160e060020a63ffffffff87160281526004810194909452600160a060020a03909216602484015260448301525160648083019260209291908290030181600087803b158015611a1c57600080fd5b505af1158015611a30573d6000803e3d6000fd5b505050506040513d6020811015611a4657600080fd5b505050505050565b8073__DepositStates_________________________63ef2bd3d090916040518263ffffffff1660e060020a0281526004018082815260200191505060206040518083038186803b158015611aa257600080fd5b505af4158015611ab6573d6000803e3d6000fd5b505050506040513d6020811015611acc57600080fd5b50511515611b4a576040805160e560020a62461bcd02815260206004820152602260248201527f4e6f742063757272656e746c79206177616974696e672061207369676e61747560448201527f7265000000000000000000000000000000000000000000000000000000000000606482015290519081900360840190fd5b73__TBTCConstants_________________________63d891dcdb6040518163ffffffff1660e060020a02815260040160206040518083038186803b158015611b9157600080fd5b505af4158015611ba5573d6000803e3d6000fd5b505050506040513d6020811015611bbb57600080fd5b5051600d820154014211611c19576040805160e560020a62461bcd02815260206004820152601f60248201527f5369676e61747572652074696d657220686173206e6f7420656c617073656400604482015290519081900360640190fd5b8073__DepositLiquidation____________________63648d3aa690916040518263ffffffff1660e060020a0281526004018082815260200191505060006040518083038186803b158015611c6d57600080fd5b505af4158015611c81573d6000803e3d6000fd5b5050505050565b60028201546005830154604080517fe3f6a5a500000000000000000000000000000000000000000000000000000000815260048101929092526024820184905251600092600160a060020a031691829163e3f6a5a59160448082019260209290919082900301818887803b158015611cff57600080fd5b505af1158015611d13573d6000803e3d6000fd5b505050506040513d6020811015611d2957600080fd5b5051949350505050565b8073__DepositStates_________________________63cb4536ad90916040518263ffffffff1660e060020a0281526004018082815260200191505060206040518083038186803b158015611d8757600080fd5b505af4158015611d9b573d6000803e3d6000fd5b505050506040513d6020811015611db157600080fd5b50511515611e2f576040805160e560020a62461bcd02815260206004820152602960248201527f4e6f742063757272656e746c79206177616974696e67206120726564656d707460448201527f696f6e2070726f6f660000000000000000000000000000000000000000000000606482015290519081900360840190fd5b73__TBTCConstants_________________________63b4d012196040518163ffffffff1660e060020a02815260040160206040518083038186803b158015611e7657600080fd5b505af4158015611e8a573d6000803e3d6000fd5b505050506040513d6020811015611ea057600080fd5b5051600d820154014211611c19576040805160e560020a62461bcd02815260206004820152601b60248201527f50726f6f662074696d657220686173206e6f7420656c61707365640000000000604482015290519081900360640190fd5b600080600073__DepositUtils__________________________63406af695866040518263ffffffff1660e060020a028152600401808277ffffffffffffffffffffffffffffffffffffffffffffffff191677ffffffffffffffffffffffffffffffffffffffffffffffff1916815260200191505060206040518083038186803b158015611f8b57600080fd5b505af4158015611f9f573d6000803e3d6000fd5b505050506040513d6020811015611fb557600080fd5b5051604080517f406af695000000000000000000000000000000000000000000000000000000008152600160c060020a031987166004820152905191935073__DepositUtils__________________________9163406af69591602480820192602092909190829003018186803b15801561202f57600080fd5b505af4158015612043573d6000803e3d6000fd5b505050506040513d602081101561205957600080fd5b5051600c870154909350612073838563ffffffff61359916565b146120c8576040805160e560020a62461bcd02815260206004820152601760248201527f4e6f7420616e20616c6c6f776564206665652073746570000000000000000000604482015290519081900360640190fd5b73__CheckBitcoinSigs______________________63831567a0876011018873__DepositUtils__________________________63e0dfd81a90916040518263ffffffff1660e060020a0281526004018082815260200191505060206040518083038186803b15801561213a57600080fd5b505af415801561214e573d6000803e3d6000fd5b505050506040513d602081101561216457600080fd5b5051600f8a0154600b8b015460405160e060020a63ffffffff87160281526bffffffffffffffffffffffff198085166024830152600160c060020a031978010000000000000000000000000000000000000000000000009094028481166044840152938d1660648301526c01000000000000000000000000909202918216608482015260a06004820190815285546002600019600183161561010002019091160460a483018190528d9392829160c490910190889080156122665780601f1061223b57610100808354040283529160200191612266565b820191906000526020600020905b81548152906001019060200180831161224957829003601f168201915b5050965050505050505060206040518083038186803b15801561228857600080fd5b505af415801561229c573d6000803e3d6000fd5b505050506040513d60208110156122b257600080fd5b5051600d870154604080517f1129a8a9000000000000000000000000000000000000000000000000000000008152600481018a9052602481018490529051929350909173__DepositUtils__________________________91631129a8a9916044808301926020929190829003018186803b15801561233057600080fd5b505af4158015612344573d6000803e3d6000fd5b505050506040513d602081101561235a57600080fd5b5051146123d7576040805160e560020a62461bcd02815260206004820152603760248201527f50726f76696465642070726576696f75732076616c756520646f6573206e6f7460448201527f207969656c642070726576696f75732073696768617368000000000000000000606482015290519081900360840190fd5b50509392505050565b60008060008573__DepositStates_________________________63afb8e29390916040518263ffffffff1660e060020a0281526004018082815260200191505060206040518083038186803b15801561243957600080fd5b505af415801561244d573d6000803e3d6000fd5b505050506040513d602081101561246357600080fd5b505115156124e1576040805160e560020a62461bcd02815260206004820152603760248201527f526564656d7074696f6e206f6e6c7920617661696c61626c652066726f6d204160448201527f6374697665206f7220436f757274657379207374617465000000000000000000606482015290519081900360840190fd5b6124ea866135f9565b60408051600160c060020a031987166020808301919091528251808303600801815260288301938490527f5196ba0300000000000000000000000000000000000000000000000000000000909352602c82018181528351604c840152835173__BTCUtils______________________________94635196ba039490938392606c909201919085019080838360005b83811015612590578181015183820152602001612578565b50505050905090810190601f1680156125bd5780820380516001836020036101000a031916815260200191505b509250505060006040518083038186803b1580156125da57600080fd5b505af41580156125ee573d6000803e3d6000fd5b505050506040513d6000823e601f3d908101601f19168201604052602081101561261757600080fd5b81019080805164010000000081111561262f57600080fd5b8201602081018481111561264257600080fd5b815164010000000081118282018710171561265c57600080fd5b50506040517f02d06d0500000000000000000000000000000000000000000000000000000000815260206004820181815283516024840152835173__BTCUtils______________________________97506302d06d0596509394509283926044019185019080838360005b838110156126df5781810151838201526020016126c7565b50505050905090810190601f16801561270c5780820380516001836020036101000a031916815260200191505b509250505060206040518083038186803b15801561272957600080fd5b505af415801561273d573d6000803e3d6000fd5b505050506040513d602081101561275357600080fd5b5051604080517f68bf68e10000000000000000000000000000000000000000000000000000000081526004810189905290519194506127ca91859173__DepositUtils__________________________916368bf68e191602480820192602092909190829003018186803b15801561121a57600080fd5b915073__TBTCConstants_________________________6386322af76040518163ffffffff1660e060020a02815260040160206040518083038186803b15801561281357600080fd5b505af4158015612827573d6000803e3d6000fd5b505050506040513d602081101561283d57600080fd5b5051821015612896576040805160e560020a62461bcd02815260206004820152600e60248201527f46656520697320746f6f206c6f77000000000000000000000000000000000000604482015290519081900360640190fd5b73__CheckBitcoinSigs______________________63831567a0876011018873__DepositUtils__________________________63e0dfd81a90916040518263ffffffff1660e060020a0281526004018082815260200191505060206040518083038186803b15801561290857600080fd5b505af415801561291c573d6000803e3d6000fd5b505050506040513d602081101561293257600080fd5b5051600f8a015460405160e060020a63ffffffff86160281526bffffffffffffffffffffffff198084166024830152600160c060020a031978010000000000000000000000000000000000000000000000009093028381166044840152928c1660648301528a16608482015260a06004820190815284546002600019600183161561010002019091160460a483018190528c928c9291829160c4019088908015612a1d5780601f106129f257610100808354040283529160200191612a1d565b820191906000526020600020905b815481529060010190602001808311612a0057829003601f168201915b5050965050505050505060206040518083038186803b158015612a3f57600080fd5b505af4158015612a53573d6000803e3d6000fd5b505050506040513d6020811015612a6957600080fd5b5051600a870180543373ffffffffffffffffffffffffffffffffffffffff1991821617909155600b880180549091166c010000000000000000000000008704179055600c870183905542600d880155600e87018190559050612acb8682611c88565b1515612b21576040805160e560020a62461bcd02815260206004820152601360248201527f4b6565702072657475726e65642066616c736500000000000000000000000000604482015290519081900360640190fd5b8573__DepositStates_________________________63429fcb0d90916040518263ffffffff1660e060020a0281526004018082815260200191505060006040518083038186803b158015612b7557600080fd5b505af4158015612b89573d6000803e3d6000fd5b505050508573__OutsourceDepositLogging_______________635593d348909133848a73__DepositUtils__________________________6368bf68e190916040518263ffffffff1660e060020a0281526004018082815260200191505060206040518083038186803b158015612c0057600080fd5b505af4158015612c14573d6000803e3d6000fd5b505050506040513d6020811015612c2a57600080fd5b505160405160e060020a63ffffffff871602815260048101858152600160a060020a038516602483015260448201849052606482018390526bffffffffffffffffffffffff198c16608483015260a482018a905260e060c4830190815260118f0180546002610100600183161502600019019091160460e485018190528e948d949293916101049091019084908015612d045780601f10612cd957610100808354040283529160200191612d04565b820191906000526020600020905b815481529060010190602001808311612ce757829003601f168201915b50509850505050505050505060006040518083038186803b158015612d2857600080fd5b505af4158015612d3c573d6000803e3d6000fd5b50505050505050505050565b6000808673__DepositStates_________________________63e0dfa4b390916040518263ffffffff1660e060020a0281526004018082815260200191505060206040518083038186803b158015612d9f57600080fd5b505af4158015612db3573d6000803e3d6000fd5b505050506040513d6020811015612dc957600080fd5b50511515612e47576040805160e560020a62461bcd02815260206004820152603260248201527f526564656d7074696f6e2070726f6f66206f6e6c7920616c6c6f77656420667260448201527f6f6d20726564656d7074696f6e20666c6f770000000000000000000000000000606482015290519081900360840190fd5b612e51878761031f565b6040517fe31952c300000000000000000000000000000000000000000000000000000000815260206004820181815287516024840152875194965092945073__ValidateSPV___________________________936331c03d0f93879373__BTCUtils______________________________9363e31952c3938b939283926044909101919085019080838360005b83811015612ef6578181015183820152602001612ede565b50505050905090810190601f168015612f235780820380516001836020036101000a031916815260200191505b509250505060006040518083038186803b158015612f4057600080fd5b505af4158015612f54573d6000803e3d6000fd5b505050506040513d6000823e601f3d908101601f191682016040526020811015612f7d57600080fd5b810190808051640100000000811115612f9557600080fd5b82016020810184811115612fa857600080fd5b8151640100000000811182820187101715612fc257600080fd5b50506040517f47f5343100000000000000000000000000000000000000000000000000000000815260206004820181815283516024840152835173__BytesLib______________________________97506347f5343196509394509283926044019185019080838360005b8381101561304557818101518382015260200161302d565b50505050905090810190601f1680156130725780820380516001836020036101000a031916815260200191505b509250505060206040518083038186803b15801561308f57600080fd5b505af41580156130a3573d6000803e3d6000fd5b505050506040513d60208110156130b957600080fd5b505160405160e060020a63ffffffff85160281526004810183815260248201839052606482018a90526080604483019081528b5160848401528b518c938c93929160a490910190602086019080838360005b8381101561312357818101518382015260200161310b565b50505050905090810190601f1680156131505780820380516001836020036101000a031916815260200191505b509550505050505060206040518083038186803b15801561317057600080fd5b505af4158015613184573d6000803e3d6000fd5b505050506040513d602081101561319a57600080fd5b50511515613218576040805160e560020a62461bcd02815260206004820152603060248201527f5478206d65726b6c652070726f6f66206973206e6f742076616c696420666f7260448201527f2070726f76696465642068656164657200000000000000000000000000000000606482015290519081900360840190fd5b604080517f5c7b82d7000000000000000000000000000000000000000000000000000000008152600481018981526024820192835285516044830152855173__DepositUtils__________________________93635c7b82d7938c93899390929160640190602085019080838360005b838110156132a0578181015183820152602001613288565b50505050905090810190601f1680156132cd5780820380516001836020036101000a031916815260200191505b50935050505060006040518083038186803b1580156132eb57600080fd5b505af41580156132ff573d6000803e3d6000fd5b5050505086600c0154600502613363828973__DepositUtils__________________________6368bf68e190916040518263ffffffff1660e060020a0281526004018082815260200191505060206040518083038186803b15801561121a57600080fd5b11156133b9576040805160e560020a62461bcd02815260206004820152601a60248201527f46656520756e65787065637465646c7920766572792068696768000000000000604482015290519081900360640190fd5b6133c2876117f2565b8673__DepositUtils__________________________63bcb7bc7290916040518263ffffffff1660e060020a0281526004018082815260200191505060006040518083038186803b15801561341657600080fd5b505af415801561342a573d6000803e3d6000fd5b505050508673__DepositStates_________________________63f09911ee90916040518263ffffffff1660e060020a0281526004018082815260200191505060006040518083038186803b15801561348257600080fd5b505af4158015613496573d6000803e3d6000fd5b505050508673__DepositUtils__________________________63a22b061490916040518263ffffffff1660e060020a0281526004018082815260200191505060006040518083038186803b1580156134ee57600080fd5b505af4158015613502573d6000803e3d6000fd5b5050604080517fb2d230b0000000000000000000000000000000000000000000000000000000008152600481018b905260248101869052905173__OutsourceDepositLogging_______________935063b2d230b092506044808301926000929190829003018186803b15801561357857600080fd5b505af415801561358c573d6000803e3d6000fd5b5050505050505050505050565b6000828211156135f3576040805160e560020a62461bcd02815260206004820152601d60248201527f556e646572666c6f7720647572696e67207375627472616374696f6e2e000000604482015290519081900360640190fd5b50900390565b6001810154604080517f70a082310000000000000000000000000000000000000000000000000000000081523360048201529051600160a060020a0390921691600091829184916370a0823191602480830192602092919082900301818787803b15801561366657600080fd5b505af115801561367a573d6000803e3d6000fd5b505050506040513d602081101561369057600080fd5b5051604080517f7a6fbf4200000000000000000000000000000000000000000000000000000000815260048101879052905191935073__DepositUtils__________________________91637a6fbf4291602480820192602092909190829003018186803b15801561370157600080fd5b505af4158015613715573d6000803e3d6000fd5b505050506040513d602081101561372b57600080fd5b50519050808210156137ad576040805160e560020a62461bcd02815260206004820152602960248201527f4e6f7420656e6f756768205442544320746f20636f766572206f75747374616e60448201527f64696e6720646562740000000000000000000000000000000000000000000000606482015290519081900360840190fd5b82600160a060020a03166379cc67903373__TBTCConstants_________________________63ecaf1cdf6040518163ffffffff1660e060020a02815260040160206040518083038186803b15801561380457600080fd5b505af4158015613818573d6000803e3d6000fd5b505050506040513d602081101561382e57600080fd5b50516040805160e060020a63ffffffff8616028152600160a060020a039093166004840152602483019190915251604480830192600092919082900301818387803b15801561387c57600080fd5b505af1158015613890573d6000803e3d6000fd5b5050505082600160a060020a03166323b872dd33306139b773__DepositUtils__________________________63d044de636040518163ffffffff1660e060020a02815260040160206040518083038186803b1580156138ef57600080fd5b505af4158015613903573d6000803e3d6000fd5b505050506040513d602081101561391957600080fd5b5051604080517f75030f9c000000000000000000000000000000000000000000000000000000008152905173__DepositUtils__________________________916375030f9c916004808301926020929190829003018186803b15801561397f57600080fd5b505af4158015613993573d6000803e3d6000fd5b505050506040513d60208110156139a957600080fd5b50519063ffffffff613a0b16565b6040805160e060020a63ffffffff8716028152600160a060020a0394851660048201529290931660248301526044820152905160648083019260209291908290030181600087803b158015611a1c57600080fd5b81810182811015613a66576040805160e560020a62461bcd02815260206004820152601960248201527f4f766572666c6f7720647572696e67206164646974696f6e2e00000000000000604482015290519081900360640190fd5b929150505600a165627a7a72305820371cd072150b44fd017d37d72c2be09f94564145d97048378fcf4e7191caf9a70029",
  "source": "pragma solidity 0.4.25;\n\nimport {SafeMath} from \"../bitcoin-spv/SafeMath.sol\";\nimport {DepositUtils} from \"./DepositUtils.sol\";\nimport {BTCUtils} from \"../bitcoin-spv/BTCUtils.sol\";\nimport {BytesLib} from \"../bitcoin-spv/BytesLib.sol\";\nimport {ValidateSPV} from \"../bitcoin-spv/ValidateSPV.sol\";\nimport {IKeep} from \"../interfaces/IKeep.sol\";\nimport {DepositStates} from \"./DepositStates.sol\";\nimport {OutsourceDepositLogging} from \"./OutsourceDepositLogging.sol\";\nimport {CheckBitcoinSigs} from \"../bitcoin-spv/SigCheck.sol\";\nimport {TBTCConstants} from \"./TBTCConstants.sol\";\nimport {IBurnableERC20} from \"../interfaces/IBurnableERC20.sol\";\nimport {CheckBitcoinSigs} from \"../bitcoin-spv/SigCheck.sol\";\nimport {DepositLiquidation} from \"./DepositLiquidation.sol\";\n\n\nlibrary DepositRedemption {\n\n    using SafeMath for uint256;\n    using CheckBitcoinSigs for bytes;\n    using BytesLib for bytes;\n    using BTCUtils for bytes;\n    using ValidateSPV for bytes;\n    using ValidateSPV for bytes32;\n\n    using DepositUtils for DepositUtils.Deposit;\n    using DepositStates for DepositUtils.Deposit;\n    using DepositLiquidation for DepositUtils.Deposit;\n    using OutsourceDepositLogging for DepositUtils.Deposit;\n\n    /// @notice     Pushes signer fee to the Keep group by transferring it to the Keep address\n    /// @dev        Approves the keep contract, then expects it to call transferFrom\n    function distributeSignerFee(DepositUtils.Deposit storage _d) public {\n        address _tbtcAddress = _d.TBTCToken;\n        IBurnableERC20 _tbtc = IBurnableERC20(_tbtcAddress);\n\n        IKeep _keep = IKeep(_d.KeepBridge);\n\n        _tbtc.approve(_d.KeepBridge, DepositUtils.signerFee());\n        _keep.distributeERC20ToKeepGroup(_d.keepID, _tbtcAddress, DepositUtils.signerFee());\n    }\n\n    /// @notice         approves a digest for signing by our keep group\n    /// @dev            calls out to the keep contract\n    /// @param  _digest the digest to approve\n    /// @return         true if approved, otherwise revert\n    function approveDigest(DepositUtils.Deposit storage _d, bytes32 _digest) public returns (bool) {\n        IKeep _keep = IKeep(_d.KeepBridge);\n        return _keep.approveDigest(_d.keepID, _digest);\n    }\n\n    function redemptionTBTCBurn(DepositUtils.Deposit storage _d) private {\n        // Burn the redeemer's TBTC plus enough extra to cover outstanding debt\n        // Requires user to approve first\n        /* TODO: implement such that it calls the system to burn TBTC? */\n        IBurnableERC20 _tbtc = IBurnableERC20(_d.TBTCToken);\n        uint256 _bal = _tbtc.balanceOf(msg.sender);\n        uint256 _red = _d.redemptionTBTCAmount();\n        require(_bal >= _red, \"Not enough TBTC to cover outstanding debt\");\n        _tbtc.burnFrom(msg.sender, TBTCConstants.getLotSize());\n        _tbtc.transferFrom(msg.sender, address(this), DepositUtils.signerFee().add(DepositUtils.beneficiaryReward()));\n    }\n\n    /// @notice                     Anyone can request redemption\n    /// @dev                        The redeemer specifies details about the Bitcoin redemption tx\n    /// @param  _d                  deposit storage pointer\n    /// @param  _outputValueBytes   The 8-byte LE output size\n    /// @param  _requesterPKH       The 20-byte Bitcoin pubkeyhash to which to send funds\n    function requestRedemption(\n        DepositUtils.Deposit storage _d,\n        bytes8 _outputValueBytes,\n        bytes20 _requesterPKH\n    ) public {\n        require(_d.inRedeemableState(), \"Redemption only available from Active or Courtesy state\");\n\n        redemptionTBTCBurn(_d);\n\n        // Convert the 8-byte LE ints to uint256\n        uint256 _outputValue = abi.encodePacked(_outputValueBytes).reverseEndianness().bytesToUint();\n        uint256 _requestedFee = _d.utxoSize().sub(_outputValue);\n        require(_requestedFee >= TBTCConstants.getMinimumRedemptionFee(), \"Fee is too low\");\n\n        // Calculate the sighash\n        bytes32 _sighash = CheckBitcoinSigs.oneInputOneOutputSighash(\n            _d.utxoOutpoint,\n            _d.signerPKH(),\n            _d.utxoSizeBytes,\n            _outputValueBytes,\n            _requesterPKH);\n\n        // write all request details\n        _d.requesterAddress = msg.sender;\n        _d.requesterPKH = _requesterPKH;\n        _d.initialRedemptionFee = _requestedFee;\n        _d.withdrawalRequestTime = block.timestamp;\n        _d.lastRequestedDigest = _sighash;\n        require(approveDigest(_d, _sighash), \"Keep returned false\");\n\n        _d.setAwaitingWithdrawalSignature();\n        _d.logRedemptionRequested(\n            msg.sender,\n            _sighash,\n            _d.utxoSize(),\n            _requesterPKH,\n            _requestedFee,\n            _d.utxoOutpoint);\n    }\n\n    /// @notice     Anyone may provide a withdrawal signature if it was requested\n    /// @dev        The signers will be penalized if this (or provideRedemptionProof) is not called\n    /// @param  _d  deposit storage pointer\n    /// @param  _v  Signature recovery value\n    /// @param  _r  Signature R value\n    /// @param  _s  Signature S value\n    function provideRedemptionSignature(\n        DepositUtils.Deposit storage _d,\n        uint8 _v,\n        bytes32 _r,\n        bytes32 _s\n    ) public {\n        require(_d.inAwaitingWithdrawalSignature(), \"Not currently awaiting a signature\");\n\n        // If we're outside of the signature window, we COULD punish signers here\n        // Instead, we consider this a no-harm-no-foul situation.\n        // The signers have not stolen funds. Most likely they've just inconvenienced someone\n\n        // The signature must be valid on the pubkey\n        require(\n            _d.signerPubkey().checkSig(\n                _d.lastRequestedDigest,\n                _v, _r, _s\n            ),\n            \"Invalid signature\"\n        );\n\n        // A signature has been provided, now we wait for fee bump or redemption\n        _d.setAwaitingWithdrawalProof();\n        _d.logGotRedemptionSignature(\n            _d.lastRequestedDigest,\n            _r,\n            _s);\n\n    }\n\n    /// @notice                             Anyone may notify the contract that a fee bump is needed\n    /// @dev                                This sends us back to AWAITING_WITHDRAWAL_SIGNATURE\n    /// @param  _d                          deposit storage pointer\n    /// @param  _previousOutputValueBytes   The previous output's value\n    /// @param  _newOutputValueBytes        The new output's value\n    /// @return                             True if successful, False if prevented by timeout, otherwise revert\n    function increaseRedemptionFee(\n        DepositUtils.Deposit storage _d,\n        bytes8 _previousOutputValueBytes,\n        bytes8 _newOutputValueBytes\n    ) public returns (bool) {\n        require(_d.inAwaitingWithdrawalProof(), \"Fee increase only available after signature provided\");\n        require(block.timestamp >= _d.withdrawalRequestTime + TBTCConstants.getIncreaseFeeTimer(), \"Fee increase not yet permitted\");\n\n        uint256 _newOutputValue = checkRelationshipToPrevious(_d, _previousOutputValueBytes, _newOutputValueBytes);\n\n        // Calculate the next sighash\n        bytes32 _sighash = CheckBitcoinSigs.oneInputOneOutputSighash(\n            _d.utxoOutpoint,\n            _d.signerPKH(),\n            _d.utxoSizeBytes,\n            _newOutputValueBytes,\n            _d.requesterPKH);\n\n        // Ratchet the signature and redemption proof timeouts\n        _d.withdrawalRequestTime = block.timestamp;\n        _d.lastRequestedDigest = _sighash;\n        require(approveDigest(_d, _sighash), \"Keep returned false\");\n\n        // Go back to waiting for a signature\n        _d.setAwaitingWithdrawalSignature();\n        _d.logRedemptionRequested(\n            msg.sender,\n            _sighash,\n            _d.utxoSize(),\n            _d.requesterPKH,\n            _d.utxoSize().sub(_newOutputValue),\n            _d.utxoOutpoint);\n    }\n\n    function checkRelationshipToPrevious(\n        DepositUtils.Deposit storage _d,\n        bytes8 _previousOutputValueBytes,\n        bytes8 _newOutputValueBytes\n    ) public view returns (uint256 _newOutputValue){\n\n        // Check that we're incrementing the fee by exactly the requester's initial fee\n        uint256 _previousOutputValue = DepositUtils.bytes8LEToUint(_previousOutputValueBytes);\n        _newOutputValue = DepositUtils.bytes8LEToUint(_newOutputValueBytes);\n        require(_previousOutputValue.sub(_newOutputValue) == _d.initialRedemptionFee, \"Not an allowed fee step\");\n\n        // Calculate the previous one so we can check that it really is the previous one\n        bytes32 _previousSighash = CheckBitcoinSigs.oneInputOneOutputSighash(\n            _d.utxoOutpoint,\n            _d.signerPKH(),\n            _d.utxoSizeBytes,\n            _previousOutputValueBytes,\n            _d.requesterPKH);\n        require(\n            _d.wasDigestApprovedForSigning(_previousSighash) == _d.withdrawalRequestTime,\n            \"Provided previous value does not yield previous sighash\"\n        );\n    }\n\n    /// @notice                 Anyone may provide a withdrawal proof to prove redemption\n    /// @dev                    The signers will be penalized if this is not called\n    /// @param  _d              deposit storage pointer\n    /// @param  _bitcoinTx      The bitcoin tx that purportedly contain the redemption output\n    /// @param  _merkleProof    The merkle proof of inclusion of the tx in the bitcoin block\n    /// @param  _index          The index of the tx in the Bitcoin block (1-indexed)\n    /// @param  _bitcoinHeaders An array of tightly-packed bitcoin headers\n    function provideRedemptionProof(\n        DepositUtils.Deposit storage _d,\n        bytes _bitcoinTx,\n        bytes _merkleProof,\n        uint256 _index,\n        bytes _bitcoinHeaders\n    ) public {\n        bytes32 _txid;\n        uint256 _fundingOutputValue;\n\n        require(_d.inRedemption(), \"Redemption proof only allowed from redemption flow\");\n        (_txid, _fundingOutputValue) = redemptionTransactionChecks(_d, _bitcoinTx);\n        // We don't use checkproof here because we need access to the parse info\n        require(\n            _txid.prove(\n                _bitcoinHeaders.extractMerkleRootLE().toBytes32(),\n                _merkleProof,\n                _index),\n            \"Tx merkle proof is not valid for provided header\");\n\n        _d.evaluateProofDifficulty(_bitcoinHeaders);\n\n        require((_d.utxoSize().sub(_fundingOutputValue)) <= _d.initialRedemptionFee * 5, \"Fee unexpectedly very high\");\n\n        // Transfer TBTC to signers\n        distributeSignerFee(_d);\n\n        // Transfer withheld amount to beneficiary\n        _d.distributeBeneficiaryReward();\n\n        // We're done yey!\n        _d.setRedeemed();\n        _d.redemptionTeardown();\n        _d.logRedeemed(_txid);\n    }\n\n    function redemptionTransactionChecks(\n        DepositUtils.Deposit storage _d,\n        bytes _bitcoinTx\n    ) public view returns (bytes32, uint256) {\n        bytes memory _nIns;\n        bytes memory _ins;\n        bytes memory _nOuts;\n        bytes memory _outs;\n        bytes memory _locktime;\n        bytes32 _txid;\n        (_nIns, _ins, _nOuts, _outs, _locktime, _txid) = _bitcoinTx.parseTransaction();\n        require(_txid != bytes32(0), \"Failed tx parsing\");\n        require(\n            keccak256(_ins.extractOutpoint()) == keccak256(_d.utxoOutpoint),\n            \"Tx spends the wrong UTXO\"\n        );\n        require(\n            keccak256(_outs.extractHash()) == keccak256(abi.encodePacked(_d.requesterPKH)),\n            \"Tx sends value to wrong pubkeyhash\"\n        );\n        return ( _txid, uint256(_outs.extractValue()));\n    }\n\n\n\n    /// @notice     Anyone may notify the contract that the signers have failed to produce a signature\n    /// @dev        This is considered fraud, and is punished\n    /// @param  _d  deposit storage pointer\n    function notifySignatureTimeout(DepositUtils.Deposit storage _d) public {\n        require(_d.inAwaitingWithdrawalSignature(), \"Not currently awaiting a signature\");\n        require(block.timestamp > _d.withdrawalRequestTime + TBTCConstants.getSignatureTimeout(), \"Signature timer has not elapsed\");\n        _d.startSignerAbortLiquidation();  // not fraud, just failure\n    }\n\n    /// @notice     Anyone may notify the contract that the signers have failed to produce a redemption proof\n    /// @dev        This is considered fraud, and is punished\n    /// @param  _d  deposit storage pointer\n    function notifyRedemptionProofTimeout(DepositUtils.Deposit storage _d) public {\n        require(_d.inAwaitingWithdrawalProof(), \"Not currently awaiting a redemption proof\");\n        require(block.timestamp > _d.withdrawalRequestTime + TBTCConstants.getRedepmtionProofTimeout(), \"Proof timer has not elapsed\");\n        _d.startSignerAbortLiquidation();  // not fraud, just failure\n    }\n}\n",
  "sourcePath": "/Users/liamz/go/src/github.com/keep-network/tbtc/implementation/contracts/deposit/DepositRedemption.sol",
  "compiler": {
    "name": "solc",
    "version": "0.4.25+commit.59dbf8f1.Emscripten.clang"
  },
  "schemaVersion": "3.0.10",
  "updatedAt": "2019-07-19T12:16:35.642Z",
  "devdoc": {
    "methods": {
      "approveDigest(DepositUtils.Deposit storage,bytes32)": {
        "details": "calls out to the keep contract",
        "params": {
          "_digest": "the digest to approve"
        },
        "return": "true if approved, otherwise revert"
      },
      "distributeSignerFee(DepositUtils.Deposit storage)": {
        "details": "Approves the keep contract, then expects it to call transferFrom"
      },
      "increaseRedemptionFee(DepositUtils.Deposit storage,bytes8,bytes8)": {
        "details": "This sends us back to AWAITING_WITHDRAWAL_SIGNATURE",
        "params": {
          "_d": "deposit storage pointer",
          "_newOutputValueBytes": "The new output's value",
          "_previousOutputValueBytes": "The previous output's value"
        },
        "return": "True if successful, False if prevented by timeout, otherwise revert"
      },
      "notifyRedemptionProofTimeout(DepositUtils.Deposit storage)": {
        "details": "This is considered fraud, and is punished",
        "params": {
          "_d": "deposit storage pointer"
        }
      },
      "notifySignatureTimeout(DepositUtils.Deposit storage)": {
        "details": "This is considered fraud, and is punished",
        "params": {
          "_d": "deposit storage pointer"
        }
      },
      "provideRedemptionProof(DepositUtils.Deposit storage,bytes,bytes,uint256,bytes)": {
        "details": "The signers will be penalized if this is not called",
        "params": {
          "_bitcoinHeaders": "An array of tightly-packed bitcoin headers",
          "_bitcoinTx": "The bitcoin tx that purportedly contain the redemption output",
          "_d": "deposit storage pointer",
          "_index": "The index of the tx in the Bitcoin block (1-indexed)",
          "_merkleProof": "The merkle proof of inclusion of the tx in the bitcoin block"
        }
      },
      "provideRedemptionSignature(DepositUtils.Deposit storage,uint8,bytes32,bytes32)": {
        "details": "The signers will be penalized if this (or provideRedemptionProof) is not called",
        "params": {
          "_d": "deposit storage pointer",
          "_r": "Signature R value",
          "_s": "Signature S value",
          "_v": "Signature recovery value"
        }
      },
      "requestRedemption(DepositUtils.Deposit storage,bytes8,bytes20)": {
        "details": "The redeemer specifies details about the Bitcoin redemption tx",
        "params": {
          "_d": "deposit storage pointer",
          "_outputValueBytes": "The 8-byte LE output size",
          "_requesterPKH": "The 20-byte Bitcoin pubkeyhash to which to send funds"
        }
      }
    }
  },
  "userdoc": {
    "methods": {
      "approveDigest(DepositUtils.Deposit storage,bytes32)": {
        "notice": "approves a digest for signing by our keep group"
      },
      "distributeSignerFee(DepositUtils.Deposit storage)": {
        "notice": "Pushes signer fee to the Keep group by transferring it to the Keep address"
      },
      "increaseRedemptionFee(DepositUtils.Deposit storage,bytes8,bytes8)": {
        "notice": "Anyone may notify the contract that a fee bump is needed"
      },
      "notifyRedemptionProofTimeout(DepositUtils.Deposit storage)": {
        "notice": "Anyone may notify the contract that the signers have failed to produce a redemption proof"
      },
      "notifySignatureTimeout(DepositUtils.Deposit storage)": {
        "notice": "Anyone may notify the contract that the signers have failed to produce a signature"
      },
      "provideRedemptionProof(DepositUtils.Deposit storage,bytes,bytes,uint256,bytes)": {
        "notice": "Anyone may provide a withdrawal proof to prove redemption"
      },
      "provideRedemptionSignature(DepositUtils.Deposit storage,uint8,bytes32,bytes32)": {
        "notice": "Anyone may provide a withdrawal signature if it was requested"
      },
      "requestRedemption(DepositUtils.Deposit storage,bytes8,bytes20)": {
        "notice": "Anyone can request redemption"
      }
    }
  }
}