{
  "contractName": "DepositStates",
  "abi": [
    {
      "constant": true,
      "inputs": [
        {
          "name": "_d",
          "type": "DepositUtils.Deposit storage"
        }
      ],
      "name": "inFunding",
      "outputs": [
        {
          "name": "",
          "type": "bool"
        }
      ],
      "payable": false,
      "stateMutability": "view",
      "type": "function"
    },
    {
      "constant": true,
      "inputs": [
        {
          "name": "_d",
          "type": "DepositUtils.Deposit storage"
        }
      ],
      "name": "inFundingFailure",
      "outputs": [
        {
          "name": "",
          "type": "bool"
        }
      ],
      "payable": false,
      "stateMutability": "view",
      "type": "function"
    },
    {
      "constant": true,
      "inputs": [
        {
          "name": "_d",
          "type": "DepositUtils.Deposit storage"
        }
      ],
      "name": "inSignerLiquidation",
      "outputs": [
        {
          "name": "",
          "type": "bool"
        }
      ],
      "payable": false,
      "stateMutability": "view",
      "type": "function"
    },
    {
      "constant": true,
      "inputs": [
        {
          "name": "_d",
          "type": "DepositUtils.Deposit storage"
        }
      ],
      "name": "inRedemption",
      "outputs": [
        {
          "name": "",
          "type": "bool"
        }
      ],
      "payable": false,
      "stateMutability": "view",
      "type": "function"
    },
    {
      "constant": true,
      "inputs": [
        {
          "name": "_d",
          "type": "DepositUtils.Deposit storage"
        }
      ],
      "name": "inEndState",
      "outputs": [
        {
          "name": "",
          "type": "bool"
        }
      ],
      "payable": false,
      "stateMutability": "view",
      "type": "function"
    },
    {
      "constant": true,
      "inputs": [
        {
          "name": "_d",
          "type": "DepositUtils.Deposit storage"
        }
      ],
      "name": "inRedeemableState",
      "outputs": [
        {
          "name": "",
          "type": "bool"
        }
      ],
      "payable": false,
      "stateMutability": "view",
      "type": "function"
    },
    {
      "constant": true,
      "inputs": [
        {
          "name": "_d",
          "type": "DepositUtils.Deposit storage"
        }
      ],
      "name": "inStart",
      "outputs": [
        {
          "name": "",
          "type": "bool"
        }
      ],
      "payable": false,
      "stateMutability": "view",
      "type": "function"
    },
    {
      "constant": true,
      "inputs": [
        {
          "name": "_d",
          "type": "DepositUtils.Deposit storage"
        }
      ],
      "name": "inAwaitingSignerSetup",
      "outputs": [
        {
          "name": "",
          "type": "bool"
        }
      ],
      "payable": false,
      "stateMutability": "view",
      "type": "function"
    },
    {
      "constant": true,
      "inputs": [
        {
          "name": "_d",
          "type": "DepositUtils.Deposit storage"
        }
      ],
      "name": "inAwaitingBTCFundingProof",
      "outputs": [
        {
          "name": "",
          "type": "bool"
        }
      ],
      "payable": false,
      "stateMutability": "view",
      "type": "function"
    },
    {
      "constant": true,
      "inputs": [
        {
          "name": "_d",
          "type": "DepositUtils.Deposit storage"
        }
      ],
      "name": "inFraudAwaitingBTCFundingProof",
      "outputs": [
        {
          "name": "",
          "type": "bool"
        }
      ],
      "payable": false,
      "stateMutability": "view",
      "type": "function"
    },
    {
      "constant": true,
      "inputs": [
        {
          "name": "_d",
          "type": "DepositUtils.Deposit storage"
        }
      ],
      "name": "inFailedSetup",
      "outputs": [
        {
          "name": "",
          "type": "bool"
        }
      ],
      "payable": false,
      "stateMutability": "view",
      "type": "function"
    },
    {
      "constant": true,
      "inputs": [
        {
          "name": "_d",
          "type": "DepositUtils.Deposit storage"
        }
      ],
      "name": "inActive",
      "outputs": [
        {
          "name": "",
          "type": "bool"
        }
      ],
      "payable": false,
      "stateMutability": "view",
      "type": "function"
    },
    {
      "constant": true,
      "inputs": [
        {
          "name": "_d",
          "type": "DepositUtils.Deposit storage"
        }
      ],
      "name": "inAwaitingWithdrawalSignature",
      "outputs": [
        {
          "name": "",
          "type": "bool"
        }
      ],
      "payable": false,
      "stateMutability": "view",
      "type": "function"
    },
    {
      "constant": true,
      "inputs": [
        {
          "name": "_d",
          "type": "DepositUtils.Deposit storage"
        }
      ],
      "name": "inAwaitingWithdrawalProof",
      "outputs": [
        {
          "name": "",
          "type": "bool"
        }
      ],
      "payable": false,
      "stateMutability": "view",
      "type": "function"
    },
    {
      "constant": true,
      "inputs": [
        {
          "name": "_d",
          "type": "DepositUtils.Deposit storage"
        }
      ],
      "name": "inRedeemed",
      "outputs": [
        {
          "name": "",
          "type": "bool"
        }
      ],
      "payable": false,
      "stateMutability": "view",
      "type": "function"
    },
    {
      "constant": true,
      "inputs": [
        {
          "name": "_d",
          "type": "DepositUtils.Deposit storage"
        }
      ],
      "name": "inCourtesyCall",
      "outputs": [
        {
          "name": "",
          "type": "bool"
        }
      ],
      "payable": false,
      "stateMutability": "view",
      "type": "function"
    },
    {
      "constant": true,
      "inputs": [
        {
          "name": "_d",
          "type": "DepositUtils.Deposit storage"
        }
      ],
      "name": "inFraudLiquidationInProgress",
      "outputs": [
        {
          "name": "",
          "type": "bool"
        }
      ],
      "payable": false,
      "stateMutability": "view",
      "type": "function"
    },
    {
      "constant": true,
      "inputs": [
        {
          "name": "_d",
          "type": "DepositUtils.Deposit storage"
        }
      ],
      "name": "inLiquidationInProgress",
      "outputs": [
        {
          "name": "",
          "type": "bool"
        }
      ],
      "payable": false,
      "stateMutability": "view",
      "type": "function"
    },
    {
      "constant": true,
      "inputs": [
        {
          "name": "_d",
          "type": "DepositUtils.Deposit storage"
        }
      ],
      "name": "inLiquidated",
      "outputs": [
        {
          "name": "",
          "type": "bool"
        }
      ],
      "payable": false,
      "stateMutability": "view",
      "type": "function"
    },
    {
      "constant": false,
      "inputs": [
        {
          "name": "_d",
          "type": "DepositUtils.Deposit storage"
        }
      ],
      "name": "setAwaitingSignerSetup",
      "outputs": [],
      "payable": false,
      "stateMutability": "nonpayable",
      "type": "function"
    },
    {
      "constant": false,
      "inputs": [
        {
          "name": "_d",
          "type": "DepositUtils.Deposit storage"
        }
      ],
      "name": "setAwaitingBTCFundingProof",
      "outputs": [],
      "payable": false,
      "stateMutability": "nonpayable",
      "type": "function"
    },
    {
      "constant": false,
      "inputs": [
        {
          "name": "_d",
          "type": "DepositUtils.Deposit storage"
        }
      ],
      "name": "setFraudAwaitingBTCFundingProof",
      "outputs": [],
      "payable": false,
      "stateMutability": "nonpayable",
      "type": "function"
    },
    {
      "constant": false,
      "inputs": [
        {
          "name": "_d",
          "type": "DepositUtils.Deposit storage"
        }
      ],
      "name": "setFailedSetup",
      "outputs": [],
      "payable": false,
      "stateMutability": "nonpayable",
      "type": "function"
    },
    {
      "constant": false,
      "inputs": [
        {
          "name": "_d",
          "type": "DepositUtils.Deposit storage"
        }
      ],
      "name": "setActive",
      "outputs": [],
      "payable": false,
      "stateMutability": "nonpayable",
      "type": "function"
    },
    {
      "constant": false,
      "inputs": [
        {
          "name": "_d",
          "type": "DepositUtils.Deposit storage"
        }
      ],
      "name": "setAwaitingWithdrawalSignature",
      "outputs": [],
      "payable": false,
      "stateMutability": "nonpayable",
      "type": "function"
    },
    {
      "constant": false,
      "inputs": [
        {
          "name": "_d",
          "type": "DepositUtils.Deposit storage"
        }
      ],
      "name": "setAwaitingWithdrawalProof",
      "outputs": [],
      "payable": false,
      "stateMutability": "nonpayable",
      "type": "function"
    },
    {
      "constant": false,
      "inputs": [
        {
          "name": "_d",
          "type": "DepositUtils.Deposit storage"
        }
      ],
      "name": "setRedeemed",
      "outputs": [],
      "payable": false,
      "stateMutability": "nonpayable",
      "type": "function"
    },
    {
      "constant": false,
      "inputs": [
        {
          "name": "_d",
          "type": "DepositUtils.Deposit storage"
        }
      ],
      "name": "setCourtesyCall",
      "outputs": [],
      "payable": false,
      "stateMutability": "nonpayable",
      "type": "function"
    },
    {
      "constant": false,
      "inputs": [
        {
          "name": "_d",
          "type": "DepositUtils.Deposit storage"
        }
      ],
      "name": "setFraudLiquidationInProgress",
      "outputs": [],
      "payable": false,
      "stateMutability": "nonpayable",
      "type": "function"
    },
    {
      "constant": false,
      "inputs": [
        {
          "name": "_d",
          "type": "DepositUtils.Deposit storage"
        }
      ],
      "name": "setLiquidationInProgress",
      "outputs": [],
      "payable": false,
      "stateMutability": "nonpayable",
      "type": "function"
    },
    {
      "constant": false,
      "inputs": [
        {
          "name": "_d",
          "type": "DepositUtils.Deposit storage"
        }
      ],
      "name": "setLiquidated",
      "outputs": [],
      "payable": false,
      "stateMutability": "nonpayable",
      "type": "function"
    }
  ],
  "bytecode": "0x610597610030600b82828239805160001a6073146000811461002057610022565bfe5b5030600052607381538281f30073000000000000000000000000000000000000000030146080604052600436106101a15763ffffffff7c0100000000000000000000000000000000000000000000000000000000600035041663056256a881146101a65780630f2c6355146101c057806316cddf4e146101df578063171b2a05146101f757806327f274491461020f57806328a7a3361461021a578063375ec4201461023257806339e1b2c41461024a578063429fcb0d1461025557806348312fa31461026d5780635a332575146102785780635dd33d9914610283578063652d34301461029b5780636fdbb3c4146102a6578063761275bf146102be57806376fa99021461024a5780638be5e97f146102c95780639df1b346146102e1578063a2f9a980146102ec578063a6fd0b56146102f7578063afb8e2931461030f578063b0b6855a1461031a578063b5e6a0a014610325578063b65fb6cb14610330578063c28eab401461033b578063cb4536ad14610353578063dcf5c88c1461035e578063e0dfa4b314610369578063ef2bd3d014610374578063f09911ee1461037f578063fb0611ff14610397575b600080fd5b8180156101b257600080fd5b506101be6004356103a2565b005b6101cb6004356103c4565b604080519115158252519081900360200190f35b8180156101eb57600080fd5b506101be6004356103e4565b81801561020357600080fd5b506101be6004356103eb565b6101cb6004356103f2565b81801561022657600080fd5b506101be6004356103fb565b81801561023e57600080fd5b506101be600435610402565b6101cb600435610409565b81801561026157600080fd5b506101be600435610412565b6101cb600435610419565b6101cb600435610442565b81801561028f57600080fd5b506101be60043561047f565b6101cb600435610486565b8180156102b257600080fd5b506101be60043561048e565b6101cb600435610495565b8180156102d557600080fd5b506101be60043561049e565b6101cb6004356104a5565b6101cb6004356104ae565b81801561030357600080fd5b506101be6004356104b7565b6101cb6004356104be565b6101cb6004356104e1565b6101cb6004356104ea565b6101cb6004356104f3565b81801561034757600080fd5b506101be6004356104fc565b6101cb600435610503565b6101cb60043561050c565b6101cb600435610515565b6101cb600435610538565b81801561038b57600080fd5b506101be600435610541565b6101cb600435610548565b600c5b8160020160146101000a81548160ff021916908360ff16021790555050565b600060055b600283015460a060020a900460ff9081169116149050919050565b60016103a5565b60096103a5565b600060026103c9565b60036103a5565b60056103a5565b600060036103c9565b60066103a5565b600281015460009060ff60a060020a909104166001148061043c575060026103c9565b92915050565b600281015460009060ff60a060020a90910416600c14806104725750600282015460ff60a060020a909104166008145b8061043c575060046103c9565b600b6103a5565b6000806103c9565b60046103a5565b600060096103c9565b60026103a5565b6000600c6103c9565b6000600a6103c9565b60076103a5565b600281015460009060ff60a060020a909104166005148061043c575060096103c9565b600060086103c9565b600060016103c9565b600060046103c9565b600a6103a5565b600060076103c9565b6000600b6103c9565b600281015460009060ff60a060020a909104166006148061043c575060076103c9565b600060066103c9565b60086103a5565b600281015460009060ff60a060020a90910416600b148061043c5750600a6103c95600a165627a7a723058201b5a7f8cdceb5cbb0855cd4e570543b0b16d13015e7fff93ef1944fff717ea760029",
  "source": "pragma solidity 0.4.25;\n\nimport {DepositUtils} from \"./DepositUtils.sol\";\n\nlibrary DepositStates {\n\n    enum States {\n        // DOES NOT EXIST YET\n        START,\n\n        // FUNDING FLOW\n        AWAITING_SIGNER_SETUP,\n        AWAITING_BTC_FUNDING_PROOF,\n\n        // FAILED SETUP\n        FRAUD_AWAITING_BTC_FUNDING_PROOF,\n        FAILED_SETUP,\n\n        // ACTIVE\n        ACTIVE,  // includes courtesy call\n\n        // REDEMPTION FLOW\n        AWAITING_WITHDRAWAL_SIGNATURE,\n        AWAITING_WITHDRAWAL_PROOF,\n        REDEEMED,\n\n        // SIGNER LIQUIDATION FLOW\n        COURTESY_CALL,\n        FRAUD_LIQUIDATION_IN_PROGRESS,\n        LIQUIDATION_IN_PROGRESS,\n        LIQUIDATED\n    }\n\n    /// @notice     Check if the contract is currently in the funding flow\n    /// @dev        This checks on the funding flow happy path, not the fraud path\n    /// @param _d   deposit storage pointer\n    /// @return     True if contract is currently in the funding flow else False\n    function inFunding(DepositUtils.Deposit storage _d) public view returns (bool) {\n        return (\n            _d.currentState == uint8(States.AWAITING_SIGNER_SETUP)\n         || _d.currentState == uint8(States.AWAITING_BTC_FUNDING_PROOF)\n        );\n    }\n\n    /// @notice     Check if the contract is currently in the funding faud flow\n    /// @dev        This checks for the flow, not the SETUP_FAILED termination state\n    /// @param _d   deposit storage pointer\n    /// @return     True if contract is currently in the funding fraud flow else False\n    function inFundingFailure(DepositUtils.Deposit storage _d) public view returns (bool) {\n        return (_d.currentState == uint8(States.FRAUD_AWAITING_BTC_FUNDING_PROOF));\n    }\n\n    /// @notice     Check if the contract is currently in the signer liquidation flow\n    /// @dev        This could be caused by fraud, or by an unfilled margin call\n    /// @param _d   deposit storage pointer\n    /// @return     True if contract is currently in the liquidaton flow else False\n    function inSignerLiquidation(DepositUtils.Deposit storage _d) public view returns (bool) {\n        return (\n            _d.currentState == uint8(States.LIQUIDATION_IN_PROGRESS)\n         || _d.currentState == uint8(States.FRAUD_LIQUIDATION_IN_PROGRESS)\n        );\n    }\n\n    /// @notice     Check if the contract is currently in the redepmtion flow\n    /// @dev        This checks on the redemption flow, not the REDEEMED termination state\n    /// @param _d   deposit storage pointer\n    /// @return     True if contract is currently in the redemption flow else False\n    function inRedemption(DepositUtils.Deposit storage _d) public view returns (bool) {\n        return (\n            _d.currentState == uint8(States.AWAITING_WITHDRAWAL_SIGNATURE)\n         || _d.currentState == uint8(States.AWAITING_WITHDRAWAL_PROOF)\n        );\n    }\n\n    /// @notice     Check if the contract has halted\n    /// @dev        This checks on any halt state, regardless of triggering circumstances\n    /// @param _d   deposit storage pointer\n    /// @return     True if contract has halted permanently\n    function inEndState(DepositUtils.Deposit storage _d) public view returns (bool) {\n        return (\n            _d.currentState == uint8(States.LIQUIDATED)\n         || _d.currentState == uint8(States.REDEEMED)\n         || _d.currentState == uint8(States.FAILED_SETUP)\n        );\n    }\n\n    /// @notice     Check if the contract is available for a redemption request\n    /// @dev        Redemption is available from active and courtesy call\n    /// @param _d   deposit storage pointer\n    /// @return     True if available, False otherwise\n    function inRedeemableState(DepositUtils.Deposit storage _d) public view returns (bool) {\n        return (\n            _d.currentState == uint8(States.ACTIVE)\n         || _d.currentState == uint8(States.COURTESY_CALL)\n        );\n    }\n\n    /// @notice     Check if the contract is currently in the start state (awaiting setup)\n    /// @dev        This checks on the funding flow happy path, not the fraud path\n    /// @param _d   deposit storage pointer\n    /// @return     True if contract is currently in the start state else False\n    function inStart(DepositUtils.Deposit storage _d) public view returns (bool) {\n        return (_d.currentState == uint8(States.START));\n    }\n\n    function inAwaitingSignerSetup(DepositUtils.Deposit storage _d) external view returns (bool) {\n        return _d.currentState == uint8(States.AWAITING_SIGNER_SETUP);\n    }\n\n    function inAwaitingBTCFundingProof(DepositUtils.Deposit storage _d) external view returns (bool) {\n        return _d.currentState == uint8(States.AWAITING_BTC_FUNDING_PROOF);\n    }\n\n    function inFraudAwaitingBTCFundingProof(DepositUtils.Deposit storage _d) external view returns (bool) {\n        return _d.currentState == uint8(States.FRAUD_AWAITING_BTC_FUNDING_PROOF);\n    }\n\n    function inFailedSetup(DepositUtils.Deposit storage _d) external view returns (bool) {\n        return _d.currentState == uint8(States.FAILED_SETUP);\n    }\n\n    function inActive(DepositUtils.Deposit storage _d) external view returns (bool) {\n        return _d.currentState == uint8(States.ACTIVE);\n    }\n\n    function inAwaitingWithdrawalSignature(DepositUtils.Deposit storage _d) external view returns (bool) {\n        return _d.currentState == uint8(States.AWAITING_WITHDRAWAL_SIGNATURE);\n    }\n\n    function inAwaitingWithdrawalProof(DepositUtils.Deposit storage _d) external view returns (bool) {\n        return _d.currentState == uint8(States.AWAITING_WITHDRAWAL_PROOF);\n    }\n\n    function inRedeemed(DepositUtils.Deposit storage _d) external view returns (bool) {\n        return _d.currentState == uint8(States.REDEEMED);\n    }\n\n    function inCourtesyCall(DepositUtils.Deposit storage _d) external view returns (bool) {\n        return _d.currentState == uint8(States.COURTESY_CALL);\n    }\n\n    function inFraudLiquidationInProgress(DepositUtils.Deposit storage _d) external view returns (bool) {\n        return _d.currentState == uint8(States.FRAUD_LIQUIDATION_IN_PROGRESS);\n    }\n\n    function inLiquidationInProgress(DepositUtils.Deposit storage _d) external view returns (bool) {\n        return _d.currentState == uint8(States.LIQUIDATION_IN_PROGRESS);\n    }\n\n    function inLiquidated(DepositUtils.Deposit storage _d) external view returns (bool) {\n        return _d.currentState == uint8(States.LIQUIDATED);\n    }\n\n    function setAwaitingSignerSetup(DepositUtils.Deposit storage _d) external {\n        _d.currentState = uint8(States.AWAITING_SIGNER_SETUP);\n    }\n\n    function setAwaitingBTCFundingProof(DepositUtils.Deposit storage _d) external {\n        _d.currentState = uint8(States.AWAITING_BTC_FUNDING_PROOF);\n    }\n\n    function setFraudAwaitingBTCFundingProof(DepositUtils.Deposit storage _d) external {\n        _d.currentState = uint8(States.FRAUD_AWAITING_BTC_FUNDING_PROOF);\n    }\n\n    function setFailedSetup(DepositUtils.Deposit storage _d) external {\n        _d.currentState = uint8(States.FAILED_SETUP);\n    }\n\n    function setActive(DepositUtils.Deposit storage _d) external {\n        _d.currentState = uint8(States.ACTIVE);\n    }\n\n    function setAwaitingWithdrawalSignature(DepositUtils.Deposit storage _d) external {\n        _d.currentState = uint8(States.AWAITING_WITHDRAWAL_SIGNATURE);\n    }\n\n    function setAwaitingWithdrawalProof(DepositUtils.Deposit storage _d) external {\n        _d.currentState = uint8(States.AWAITING_WITHDRAWAL_PROOF);\n    }\n\n    function setRedeemed(DepositUtils.Deposit storage _d) external {\n        _d.currentState = uint8(States.REDEEMED);\n    }\n\n    function setCourtesyCall(DepositUtils.Deposit storage _d) external {\n        _d.currentState = uint8(States.COURTESY_CALL);\n    }\n\n    function setFraudLiquidationInProgress(DepositUtils.Deposit storage _d) external {\n        _d.currentState = uint8(States.FRAUD_LIQUIDATION_IN_PROGRESS);\n    }\n\n    function setLiquidationInProgress(DepositUtils.Deposit storage _d) external {\n        _d.currentState = uint8(States.LIQUIDATION_IN_PROGRESS);\n    }\n\n    function setLiquidated(DepositUtils.Deposit storage _d) external {\n        _d.currentState = uint8(States.LIQUIDATED);\n    }\n}\n",
  "sourcePath": "/Users/liamz/go/src/github.com/keep-network/tbtc/implementation/contracts/deposit/DepositStates.sol",
  "compiler": {
    "name": "solc",
    "version": "0.4.25+commit.59dbf8f1.Emscripten.clang"
  },
  "schemaVersion": "3.0.10",
  "updatedAt": "2019-07-19T12:16:35.562Z",
  "devdoc": {
    "methods": {
      "inEndState(DepositUtils.Deposit storage)": {
        "details": "This checks on any halt state, regardless of triggering circumstances",
        "params": {
          "_d": "deposit storage pointer"
        },
        "return": "True if contract has halted permanently"
      },
      "inFunding(DepositUtils.Deposit storage)": {
        "details": "This checks on the funding flow happy path, not the fraud path",
        "params": {
          "_d": "deposit storage pointer"
        },
        "return": "True if contract is currently in the funding flow else False"
      },
      "inFundingFailure(DepositUtils.Deposit storage)": {
        "details": "This checks for the flow, not the SETUP_FAILED termination state",
        "params": {
          "_d": "deposit storage pointer"
        },
        "return": "True if contract is currently in the funding fraud flow else False"
      },
      "inRedeemableState(DepositUtils.Deposit storage)": {
        "details": "Redemption is available from active and courtesy call",
        "params": {
          "_d": "deposit storage pointer"
        },
        "return": "True if available, False otherwise"
      },
      "inRedemption(DepositUtils.Deposit storage)": {
        "details": "This checks on the redemption flow, not the REDEEMED termination state",
        "params": {
          "_d": "deposit storage pointer"
        },
        "return": "True if contract is currently in the redemption flow else False"
      },
      "inSignerLiquidation(DepositUtils.Deposit storage)": {
        "details": "This could be caused by fraud, or by an unfilled margin call",
        "params": {
          "_d": "deposit storage pointer"
        },
        "return": "True if contract is currently in the liquidaton flow else False"
      },
      "inStart(DepositUtils.Deposit storage)": {
        "details": "This checks on the funding flow happy path, not the fraud path",
        "params": {
          "_d": "deposit storage pointer"
        },
        "return": "True if contract is currently in the start state else False"
      }
    }
  },
  "userdoc": {
    "methods": {
      "inEndState(DepositUtils.Deposit storage)": {
        "notice": "Check if the contract has halted"
      },
      "inFunding(DepositUtils.Deposit storage)": {
        "notice": "Check if the contract is currently in the funding flow"
      },
      "inFundingFailure(DepositUtils.Deposit storage)": {
        "notice": "Check if the contract is currently in the funding faud flow"
      },
      "inRedeemableState(DepositUtils.Deposit storage)": {
        "notice": "Check if the contract is available for a redemption request"
      },
      "inRedemption(DepositUtils.Deposit storage)": {
        "notice": "Check if the contract is currently in the redepmtion flow"
      },
      "inSignerLiquidation(DepositUtils.Deposit storage)": {
        "notice": "Check if the contract is currently in the signer liquidation flow"
      },
      "inStart(DepositUtils.Deposit storage)": {
        "notice": "Check if the contract is currently in the start state (awaiting setup)"
      }
    }
  }
}