{
  "contractName": "DepositLiquidation",
  "abi": [
    {
      "constant": false,
      "inputs": [
        {
          "name": "_d",
          "type": "DepositUtils.Deposit storage"
        },
        {
          "name": "_v",
          "type": "uint8"
        },
        {
          "name": "_r",
          "type": "bytes32"
        },
        {
          "name": "_s",
          "type": "bytes32"
        },
        {
          "name": "_signedDigest",
          "type": "bytes32"
        },
        {
          "name": "_preimage",
          "type": "bytes"
        }
      ],
      "name": "submitSignatureFraud",
      "outputs": [
        {
          "name": "_isFraud",
          "type": "bool"
        }
      ],
      "payable": false,
      "stateMutability": "nonpayable",
      "type": "function"
    },
    {
      "constant": true,
      "inputs": [
        {
          "name": "_d",
          "type": "DepositUtils.Deposit storage"
        }
      ],
      "name": "getCollateralizationPercentage",
      "outputs": [
        {
          "name": "",
          "type": "uint256"
        }
      ],
      "payable": false,
      "stateMutability": "view",
      "type": "function"
    },
    {
      "constant": false,
      "inputs": [
        {
          "name": "_d",
          "type": "DepositUtils.Deposit storage"
        }
      ],
      "name": "startSignerFraudLiquidation",
      "outputs": [],
      "payable": false,
      "stateMutability": "nonpayable",
      "type": "function"
    },
    {
      "constant": false,
      "inputs": [
        {
          "name": "_d",
          "type": "DepositUtils.Deposit storage"
        }
      ],
      "name": "startSignerAbortLiquidation",
      "outputs": [],
      "payable": false,
      "stateMutability": "nonpayable",
      "type": "function"
    },
    {
      "constant": false,
      "inputs": [
        {
          "name": "_d",
          "type": "DepositUtils.Deposit storage"
        },
        {
          "name": "_v",
          "type": "uint8"
        },
        {
          "name": "_r",
          "type": "bytes32"
        },
        {
          "name": "_s",
          "type": "bytes32"
        },
        {
          "name": "_signedDigest",
          "type": "bytes32"
        },
        {
          "name": "_preimage",
          "type": "bytes"
        }
      ],
      "name": "provideECDSAFraudProof",
      "outputs": [],
      "payable": false,
      "stateMutability": "nonpayable",
      "type": "function"
    },
    {
      "constant": false,
      "inputs": [
        {
          "name": "_d",
          "type": "DepositUtils.Deposit storage"
        },
        {
          "name": "_bitcoinTx",
          "type": "bytes"
        },
        {
          "name": "_merkleProof",
          "type": "bytes"
        },
        {
          "name": "_index",
          "type": "uint256"
        },
        {
          "name": "_bitcoinHeaders",
          "type": "bytes"
        }
      ],
      "name": "provideSPVFraudProof",
      "outputs": [],
      "payable": false,
      "stateMutability": "nonpayable",
      "type": "function"
    },
    {
      "constant": false,
      "inputs": [
        {
          "name": "_d",
          "type": "DepositUtils.Deposit storage"
        }
      ],
      "name": "purchaseSignerBondsAtAuction",
      "outputs": [],
      "payable": false,
      "stateMutability": "nonpayable",
      "type": "function"
    },
    {
      "constant": false,
      "inputs": [
        {
          "name": "_d",
          "type": "DepositUtils.Deposit storage"
        }
      ],
      "name": "notifyCourtesyCall",
      "outputs": [],
      "payable": false,
      "stateMutability": "nonpayable",
      "type": "function"
    },
    {
      "constant": false,
      "inputs": [
        {
          "name": "_d",
          "type": "DepositUtils.Deposit storage"
        }
      ],
      "name": "exitCourtesyCall",
      "outputs": [],
      "payable": false,
      "stateMutability": "nonpayable",
      "type": "function"
    },
    {
      "constant": false,
      "inputs": [
        {
          "name": "_d",
          "type": "DepositUtils.Deposit storage"
        }
      ],
      "name": "notifyUndercollateralizedLiquidation",
      "outputs": [],
      "payable": false,
      "stateMutability": "nonpayable",
      "type": "function"
    },
    {
      "constant": false,
      "inputs": [
        {
          "name": "_d",
          "type": "DepositUtils.Deposit storage"
        }
      ],
      "name": "notifyCourtesyTimeout",
      "outputs": [],
      "payable": false,
      "stateMutability": "nonpayable",
      "type": "function"
    },
    {
      "constant": false,
      "inputs": [
        {
          "name": "_d",
          "type": "DepositUtils.Deposit storage"
        }
      ],
      "name": "notifyDepositExpiryCourtesyCall",
      "outputs": [],
      "payable": false,
      "stateMutability": "nonpayable",
      "type": "function"
    }
  ],
  "bytecode": "0x613ba3610030600b82828239805160001a6073146000811461002057610022565bfe5b5030600052607381538281f30073000000000000000000000000000000000000000030146080604052600436106100b75763ffffffff60e060020a6000350416630427cacd81146100bc57806310e0b6c31461013f578063181db948146102215780632ea84506146102395780633bd675c8146102515780634941676c1461026957806360ca747e146102d8578063648d3aa6146102f557806393a386641461030d578063a221542114610325578063a43c845b1461033d578063c396a1f414610355575b600080fd5b8180156100c857600080fd5b50604080516020600460a43581810135601f810184900484028501840190955284845261012b948235946024803560ff16956044359560643595608435953695929460c494920191819084018382808284375094975061036d9650505050505050565b604080519115158252519081900360200190f35b81801561014b57600080fd5b5060408051602060046024803582810135601f810185900485028601850190965285855261021f95833595369560449491939091019190819084018382808284375050604080516020601f89358b018035918201839004830284018301909452808352979a99988101979196509182019450925082915084018382808284375050604080516020601f818a01358b0180359182018390048302840183018552818452989b8a359b909a9099940197509195509182019350915081908401838280828437509497506104b79650505050505050565b005b81801561022d57600080fd5b5061021f6004356115ec565b81801561024557600080fd5b5061021f60043561171d565b81801561025d57600080fd5b5061021f600435611dee565b81801561027557600080fd5b50604080516020600460a43581810135601f810184900484028501840190955284845261021f948235946024803560ff16956044359560643595608435953695929460c494920191819084018382808284375094975061214b9650505050505050565b6102e360043561250e565b60408051918252519081900360200190f35b81801561030157600080fd5b5061021f600435612741565b81801561031957600080fd5b5061021f6004356128c7565b81801561033157600080fd5b5061021f600435612ac3565b81801561034957600080fd5b5061021f600435612d7f565b81801561036157600080fd5b5061021f600435612f25565b6000808760020160009054906101000a9004600160a060020a0316905080600160a060020a031663c7cd19a1896005015489898989896040518763ffffffff1660e060020a028152600401808781526020018660ff1660ff16815260200185600019166000191681526020018460001916600019168152602001836000191660001916815260200180602001828103825283818151815260200191508051906020019080838360005b8381101561042e578181015183820152602001610416565b50505050905090810190601f16801561045b5780820380516001836020036101000a031916815260200191505b50975050505050505050602060405180830381600087803b15801561047f57600080fd5b505af1158015610493573d6000803e3d6000fd5b505050506040513d60208110156104a957600080fd5b505198975050505050505050565b6060806000806000808a73__DepositStates_________________________6348312fa390916040518263ffffffff1660e060020a0281526004018082815260200191505060206040518083038186803b15801561051457600080fd5b505af4158015610528573d6000803e3d6000fd5b505050506040513d602081101561053e57600080fd5b50511580156105ca57508a73__DepositStates_________________________6339e1b2c490916040518263ffffffff1660e060020a0281526004018082815260200191505060206040518083038186803b15801561059c57600080fd5b505af41580156105b0573d6000803e3d6000fd5b505050506040513d60208110156105c657600080fd5b5051155b1515610646576040805160e560020a62461bcd02815260206004820152602f60248201527f5350562046726175642070726f6f6673206e6f742076616c6964206265666f7260448201527f65204163746976652073746174652e0000000000000000000000000000000000606482015290519081900360840190fd5b8a73__DepositStates_________________________63fb0611ff90916040518263ffffffff1660e060020a0281526004018082815260200191505060206040518083038186803b15801561069a57600080fd5b505af41580156106ae573d6000803e3d6000fd5b505050506040513d60208110156106c457600080fd5b505115610741576040805160e560020a62461bcd02815260206004820152602660248201527f5369676e6572206c69717569646174696f6e20616c726561647920696e20707260448201527f6f67726573730000000000000000000000000000000000000000000000000000606482015290519081900360840190fd5b8a73__DepositStates_________________________635a33257590916040518263ffffffff1660e060020a0281526004018082815260200191505060206040518083038186803b15801561079557600080fd5b505af41580156107a9573d6000803e3d6000fd5b505050506040513d60208110156107bf57600080fd5b505115610816576040805160e560020a62461bcd02815260206004820152601360248201527f436f6e7472616374206861732068616c74656400000000000000000000000000604482015290519081900360640190fd5b8a73__DepositUtils__________________________63566d081690918c8c8c8c6040518663ffffffff1660e060020a02815260040180868152602001806020018060200185815260200180602001848103845288818151815260200191508051906020019080838360005b8381101561089a578181015183820152602001610882565b50505050905090810190601f1680156108c75780820380516001836020036101000a031916815260200191505b50848103835287518152875160209182019189019080838360005b838110156108fa5781810151838201526020016108e2565b50505050905090810190601f1680156109275780820380516001836020036101000a031916815260200191505b50848103825285518152855160209182019187019080838360005b8381101561095a578181015183820152602001610942565b50505050905090810190601f1680156109875780820380516001836020036101000a031916815260200191505b509850505050505050505060206040518083038186803b1580156109aa57600080fd5b505af41580156109be573d6000803e3d6000fd5b505050506040513d60208110156109d457600080fd5b5060009350505b6040517fb230b7420000000000000000000000000000000000000000000000000000000081526020600482018181528c5160248401528c5173__BTCUtils______________________________9363b230b742938f939283926044019185019080838360005b83811015610a59578181015183820152602001610a41565b50505050905090810190601f168015610a865780820380516001836020036101000a031916815260200191505b509250505060206040518083038186803b158015610aa357600080fd5b505af4158015610ab7573d6000803e3d6000fd5b505050506040513d6020811015610acd57600080fd5b505160ff9081169084161015610e7757604080517f98b979b400000000000000000000000000000000000000000000000000000000815260ff85166024820152600481019182528b5160448201528b5173__BTCUtils______________________________926398b979b4928e928892918291606490910190602086019080838360005b83811015610b69578181015183820152602001610b51565b50505050905090810190601f168015610b965780820380516001836020036101000a031916815260200191505b50935050505060006040518083038186803b158015610bb457600080fd5b505af4158015610bc8573d6000803e3d6000fd5b505050506040513d6000823e601f3d908101601f191682016040526020811015610bf157600080fd5b810190808051640100000000811115610c0957600080fd5b82016020810184811115610c1c57600080fd5b8151640100000000811182820187101715610c3657600080fd5b505092919050505095508a6011016040518082805460018160011615610100020316600290048015610c9f5780601f10610c7d576101008083540402835291820191610c9f565b820191906000526020600020905b815481529060010190602001808311610c8b575b50506040519081900381207fb8fa78300000000000000000000000000000000000000000000000000000000082526020600483018181528b5160248501528b5192955073__BTCUtils______________________________945063b8fa7830938c93919283926044909201919085019080838360005b83811015610d2d578181015183820152602001610d15565b50505050905090810190601f168015610d5a5780820380516001836020036101000a031916815260200191505b509250505060006040518083038186803b158015610d7757600080fd5b505af4158015610d8b573d6000803e3d6000fd5b505050506040513d6000823e601f3d908101601f191682016040526020811015610db457600080fd5b810190808051640100000000811115610dcc57600080fd5b82016020810184811115610ddf57600080fd5b8151640100000000811182820187101715610df957600080fd5b50509291905050506040518082805190602001908083835b60208310610e305780518252601f199092019160209182019101610e11565b6001836020036101000a0380198251168184511680821785525050505050509050019150506040518091039020600019161415610e6c57600193505b6001909201916109db565b831515610ef4576040805160e560020a62461bcd02815260206004820152602660248201527f4e6f20696e707574207370656e64696e6720637573746f64696564205554584f60448201527f20666f756e640000000000000000000000000000000000000000000000000000606482015290519081900360840190fd5b60059150610f91826001018c600c0154028c73__DepositUtils__________________________6368bf68e190916040518263ffffffff1660e060020a0281526004018082815260200191505060206040518083038186803b158015610f5957600080fd5b505af4158015610f6d573d6000803e3d6000fd5b505050506040513d6020811015610f8357600080fd5b50519063ffffffff6131af16565b9050600092505b6040517f379cf68c0000000000000000000000000000000000000000000000000000000081526020600482018181528c5160248401528c5173__BTCUtils______________________________9363379cf68c938f939283926044019185019080838360005b83811015611016578181015183820152602001610ffe565b50505050905090810190601f1680156110435780820380516001836020036101000a031916815260200191505b509250505060206040518083038186803b15801561106057600080fd5b505af4158015611074573d6000803e3d6000fd5b505050506040513d602081101561108a57600080fd5b505160ff90811690841610156115d657604080517e9941a600000000000000000000000000000000000000000000000000000000815260ff85166024820152600481019182528b5160448201528b5173__BTCUtils______________________________92629941a6928e928892918291606490910190602086019080838360005b8381101561112457818101518382015260200161110c565b50505050905090810190601f1680156111515780820380516001836020036101000a031916815260200191505b50935050505060006040518083038186803b15801561116f57600080fd5b505af4158015611183573d6000803e3d6000fd5b505050506040513d6000823e601f3d908101601f1916820160405260208110156111ac57600080fd5b8101908080516401000000008111156111c457600080fd5b820160208101848111156111d757600080fd5b81516401000000008111828201871017156111f157600080fd5b50506040517f3e39b410000000000000000000000000000000000000000000000000000000008152602060048201818152835160248401528351939b5087965073__BTCUtils______________________________9550633e39b41094508b93909283926044909101919085019080838360005b8381101561127d578181015183820152602001611265565b50505050905090810190601f1680156112aa5780820380516001836020036101000a031916815260200191505b509250505060206040518083038186803b1580156112c757600080fd5b505af41580156112db573d6000803e3d6000fd5b505050506040513d60208110156112f157600080fd5b505167ffffffffffffffff16108015906115505750600b8b0154604080516c010000000000000000000000009092026bffffffffffffffffffffffff191660208084019190915281516014818503018152603490930191829052825182918401908083835b602083106113755780518252601f199092019160209182019101611356565b51815160209384036101000a60001901801990921691161790526040519190930181900381207e0c81f4000000000000000000000000000000000000000000000000000000008252600482018481528b5160248401528b5191965073__BTCUtils______________________________9550620c81f4948c94509092839260449091019185019080838360005b8381101561141a578181015183820152602001611402565b50505050905090810190601f1680156114475780820380516001836020036101000a031916815260200191505b509250505060006040518083038186803b15801561146457600080fd5b505af4158015611478573d6000803e3d6000fd5b505050506040513d6000823e601f3d908101601f1916820160405260208110156114a157600080fd5b8101908080516401000000008111156114b957600080fd5b820160208101848111156114cc57600080fd5b81516401000000008111828201871017156114e657600080fd5b50509291905050506040518082805190602001908083835b6020831061151d5780518252601f1990920191602091820191016114fe565b6001836020036101000a038019825116818451168082178552505050505050905001915050604051809103902060001916145b156115cb576040805160e560020a62461bcd02815260206004820152603060248201527f466f756e6420616e206f757470757420706179696e672074686520726564656560448201527f6d65722061732072657175657374656400000000000000000000000000000000606482015290519081900360840190fd5b600190920191610f98565b6115df8b6115ec565b5050505050505050505050565b6115f581613214565b8073__DepositStates_________________________639df1b34690916040518263ffffffff1660e060020a0281526004018082815260200191505060206040518083038186803b15801561164957600080fd5b505af415801561165d573d6000803e3d6000fd5b505050506040513d602081101561167357600080fd5b5051156116ad576040513390303180156108fc02916000818181858888f193505050501580156116a7573d6000803e3d6000fd5b5061171a565b8073__DepositStates_________________________63c28eab4090916040518263ffffffff1660e060020a0281526004018082815260200191505060006040518083038186803b15801561170157600080fd5b505af4158015611715573d6000803e3d6000fd5b505050505b50565b60008060008373__DepositStates_________________________63a2f9a98090916040518263ffffffff1660e060020a0281526004018082815260200191505060206040518083038186803b15801561177657600080fd5b505af415801561178a573d6000803e3d6000fd5b505050506040513d60208110156117a057600080fd5b5051604080517ffb0611ff00000000000000000000000000000000000000000000000000000000815260048101879052905191945073__DepositStates_________________________9163fb0611ff91602480820192602092909190829003018186803b15801561181157600080fd5b505af4158015611825573d6000803e3d6000fd5b505050506040513d602081101561183b57600080fd5b50511515611893576040805160e560020a62461bcd02815260206004820152601160248201527f4e6f206163746976652061756374696f6e000000000000000000000000000000604482015290519081900360640190fd5b8373__DepositStates_________________________63056256a890916040518263ffffffff1660e060020a0281526004018082815260200191505060006040518083038186803b1580156118e757600080fd5b505af41580156118fb573d6000803e3d6000fd5b505050508373__OutsourceDepositLogging_______________6332e42f2d90916040518263ffffffff1660e060020a0281526004018082815260200191505060006040518083038186803b15801561195357600080fd5b505af4158015611967573d6000803e3d6000fd5b505050508360010160009054906101000a9004600160a060020a0316915073__TBTCConstants_________________________63ecaf1cdf6040518163ffffffff1660e060020a02815260040160206040518083038186803b1580156119cc57600080fd5b505af41580156119e0573d6000803e3d6000fd5b505050506040513d60208110156119f657600080fd5b5051604080517f70a082310000000000000000000000000000000000000000000000000000000081523360048201529051600160a060020a038516916370a082319160248083019260209291908290030181600087803b158015611a5957600080fd5b505af1158015611a6d573d6000803e3d6000fd5b505050506040513d6020811015611a8357600080fd5b50511015611b01576040805160e560020a62461bcd02815260206004820152602960248201527f4e6f7420656e6f756768205442544320746f20636f766572206f75747374616e60448201527f64696e6720646562740000000000000000000000000000000000000000000000606482015290519081900360840190fd5b81600160a060020a03166379cc67903373__TBTCConstants_________________________63ecaf1cdf6040518163ffffffff1660e060020a02815260040160206040518083038186803b158015611b5857600080fd5b505af4158015611b6c573d6000803e3d6000fd5b505050506040513d6020811015611b8257600080fd5b50516040805160e060020a63ffffffff8616028152600160a060020a039093166004840152602483019190915251604480830192600092919082900301818387803b158015611bd057600080fd5b505af1158015611be4573d6000803e3d6000fd5b505050508373__DepositUtils__________________________6350ef3aa190916040518263ffffffff1660e060020a0281526004018082815260200191505060206040518083038186803b158015611c3c57600080fd5b505af4158015611c50573d6000803e3d6000fd5b505050506040513d6020811015611c6657600080fd5b5051604051909150339082156108fc029083906000818181858888f19350505050158015611c98573d6000803e3d6000fd5b508373__DepositUtils__________________________63bcb7bc7290916040518263ffffffff1660e060020a0281526004018082815260200191505060006040518083038186803b158015611ced57600080fd5b505af4158015611d01573d6000803e3d6000fd5b5050506000303111159050611de8578215611d4957604051600090303180156108fc029183818181858288f19350505050158015611d43573d6000803e3d6000fd5b50611de8565b604080517fcd2acda80000000000000000000000000000000000000000000000000000000081526004810186905230316024820152905173__DepositUtils__________________________9163cd2acda8916044808301926020929190829003018186803b158015611dbb57600080fd5b505af4158015611dcf573d6000803e3d6000fd5b505050506040513d6020811015611de557600080fd5b50505b50505050565b8073__DepositStates_________________________63761275bf90916040518263ffffffff1660e060020a0281526004018082815260200191505060206040518083038186803b158015611e4257600080fd5b505af4158015611e56573d6000803e3d6000fd5b505050506040513d6020811015611e6c57600080fd5b50511515611ec4576040805160e560020a62461bcd02815260206004820152601e60248201527f4e6f742063757272656e746c7920696e20636f7572746573792063616c6c0000604482015290519081900360640190fd5b73__TBTCConstants_________________________63d565d1f16040518163ffffffff1660e060020a02815260040160206040518083038186803b158015611f0b57600080fd5b505af4158015611f1f573d6000803e3d6000fd5b505050506040513d6020811015611f3557600080fd5b5051601082015401421115611f94576040805160e560020a62461bcd02815260206004820152601360248201527f4465706f736974206973206578706972696e6700000000000000000000000000604482015290519081900360640190fd5b73__TBTCConstants_________________________632851f4db6040518163ffffffff1660e060020a02815260040160206040518083038186803b158015611fdb57600080fd5b505af4158015611fef573d6000803e3d6000fd5b505050506040513d602081101561200557600080fd5b50516120108261250e565b101561208b576040805160e560020a62461bcd028152602060048201526024808201527f4465706f736974206973207374696c6c20756e646572636f6c6c61746572616c60448201527f697a656400000000000000000000000000000000000000000000000000000000606482015290519081900360840190fd5b8073__DepositStates_________________________63375ec42090916040518263ffffffff1660e060020a0281526004018082815260200191505060006040518083038186803b1580156120df57600080fd5b505af41580156120f3573d6000803e3d6000fd5b505050508073__OutsourceDepositLogging_______________632a2542e490916040518263ffffffff1660e060020a0281526004018082815260200191505060006040518083038186803b15801561170157600080fd5b8573__DepositStates_________________________6348312fa390916040518263ffffffff1660e060020a0281526004018082815260200191505060206040518083038186803b15801561219f57600080fd5b505af41580156121b3573d6000803e3d6000fd5b505050506040513d60208110156121c957600080fd5b505115801561225557508573__DepositStates_________________________6339e1b2c490916040518263ffffffff1660e060020a0281526004018082815260200191505060206040518083038186803b15801561222757600080fd5b505af415801561223b573d6000803e3d6000fd5b505050506040513d602081101561225157600080fd5b5051155b15156122d1576040805160e560020a62461bcd02815260206004820152602960248201527f5573652070726f7669646546756e64696e674543445341467261756450726f6f60448201527f6620696e73746561640000000000000000000000000000000000000000000000606482015290519081900360840190fd5b8573__DepositStates_________________________63fb0611ff90916040518263ffffffff1660e060020a0281526004018082815260200191505060206040518083038186803b15801561232557600080fd5b505af4158015612339573d6000803e3d6000fd5b505050506040513d602081101561234f57600080fd5b5051156123cc576040805160e560020a62461bcd02815260206004820152602660248201527f5369676e6572206c69717569646174696f6e20616c726561647920696e20707260448201527f6f67726573730000000000000000000000000000000000000000000000000000606482015290519081900360840190fd5b8573__DepositStates_________________________635a33257590916040518263ffffffff1660e060020a0281526004018082815260200191505060206040518083038186803b15801561242057600080fd5b505af4158015612434573d6000803e3d6000fd5b505050506040513d602081101561244a57600080fd5b5051156124a1576040805160e560020a62461bcd02815260206004820152601360248201527f436f6e7472616374206861732068616c74656400000000000000000000000000604482015290519081900360640190fd5b6124af86868686868661036d565b1515612505576040805160e560020a62461bcd02815260206004820152601660248201527f5369676e6174757265206973206e6f7420667261756400000000000000000000604482015290519081900360640190fd5b611de5866115ec565b60008060008060008573__DepositUtils__________________________63b6f3e9fc90916040518263ffffffff1660e060020a0281526004018082815260200191505060206040518083038186803b15801561256a57600080fd5b505af415801561257e573d6000803e3d6000fd5b505050506040513d602081101561259457600080fd5b505193508315806125ac5750670de0b6b3a764000084115b15612601576040805160e560020a62461bcd02815260206004820152601b60248201527f4f7261636c652072657475726e65642061206261642070726963650000000000604482015290519081900360640190fd5b73__TBTCConstants_________________________63ecaf1cdf6040518163ffffffff1660e060020a02815260040160206040518083038186803b15801561264857600080fd5b505af415801561265c573d6000803e3d6000fd5b505050506040513d602081101561267257600080fd5b5051604080517f2fac808a000000000000000000000000000000000000000000000000000000008152600481018990529051919450858502935073__DepositUtils__________________________91632fac808a91602480820192602092909190829003018186803b1580156126e857600080fd5b505af41580156126fc573d6000803e3d6000fd5b505050506040513d602081101561271257600080fd5b505190506127378261272b83606463ffffffff61372216565b9063ffffffff61379916565b9695505050505050565b61274a81613214565b8073__DepositStates_________________________639df1b34690916040518263ffffffff1660e060020a0281526004018082815260200191505060206040518083038186803b15801561279e57600080fd5b505af41580156127b2573d6000803e3d6000fd5b505050506040513d60208110156127c857600080fd5b50511561287357604080517fcd2acda80000000000000000000000000000000000000000000000000000000081526004810183905230316024820152905173__DepositUtils__________________________9163cd2acda8916044808301926020929190829003018186803b15801561284157600080fd5b505af4158015612855573d6000803e3d6000fd5b505050506040513d602081101561286b57600080fd5b5061171a9050565b8073__DepositStates_________________________635dd33d9990916040518263ffffffff1660e060020a0281526004018082815260200191505060006040518083038186803b15801561170157600080fd5b8073__DepositStates_________________________63afb8e29390916040518263ffffffff1660e060020a0281526004018082815260200191505060206040518083038186803b15801561291b57600080fd5b505af415801561292f573d6000803e3d6000fd5b505050506040513d602081101561294557600080fd5b505115156129c3576040805160e560020a62461bcd02815260206004820152602660248201527f4465706f736974206e6f7420696e20616374697665206f7220636f757274657360448201527f792063616c6c0000000000000000000000000000000000000000000000000000606482015290519081900360840190fd5b73__TBTCConstants_________________________636760dab96040518163ffffffff1660e060020a02815260040160206040518083038186803b158015612a0a57600080fd5b505af4158015612a1e573d6000803e3d6000fd5b505050506040513d6020811015612a3457600080fd5b5051612a3f8261250e565b10612aba576040805160e560020a62461bcd02815260206004820152602160248201527f4465706f736974206861732073756666696369656e7420636f6c6c617465726160448201527f6c00000000000000000000000000000000000000000000000000000000000000606482015290519081900360840190fd5b61171a81612741565b8073__DepositStates_________________________630f2c635590916040518263ffffffff1660e060020a0281526004018082815260200191505060206040518083038186803b158015612b1757600080fd5b505af4158015612b2b573d6000803e3d6000fd5b505050506040513d6020811015612b4157600080fd5b50511515612bbf576040805160e560020a62461bcd02815260206004820152602860248201527f43616e206f6e6c7920636f7572746573792063616c6c2066726f6d206163746960448201527f7665207374617465000000000000000000000000000000000000000000000000606482015290519081900360840190fd5b73__TBTCConstants_________________________632851f4db6040518163ffffffff1660e060020a02815260040160206040518083038186803b158015612c0657600080fd5b505af4158015612c1a573d6000803e3d6000fd5b505050506040513d6020811015612c3057600080fd5b5051612c3b8261250e565b10612cb6576040805160e560020a62461bcd02815260206004820152602260248201527f5369676e65727320686176652073756666696369656e7420636f6c6c6174657260448201527f616c000000000000000000000000000000000000000000000000000000000000606482015290519081900360840190fd5b4281600401819055508073__DepositStates_________________________63171b2a0590916040518263ffffffff1660e060020a0281526004018082815260200191505060006040518083038186803b158015612d1357600080fd5b505af4158015612d27573d6000803e3d6000fd5b505050508073__OutsourceDepositLogging_______________63e35227b890916040518263ffffffff1660e060020a0281526004018082815260200191505060006040518083038186803b15801561170157600080fd5b8073__DepositStates_________________________63761275bf90916040518263ffffffff1660e060020a0281526004018082815260200191505060206040518083038186803b158015612dd357600080fd5b505af4158015612de7573d6000803e3d6000fd5b505050506040513d6020811015612dfd57600080fd5b50511515612e55576040805160e560020a62461bcd02815260206004820152601d60248201527f4e6f7420696e206120636f7572746573792063616c6c20706572696f64000000604482015290519081900360640190fd5b73__TBTCConstants_________________________639887426d6040518163ffffffff1660e060020a02815260040160206040518083038186803b158015612e9c57600080fd5b505af4158015612eb0573d6000803e3d6000fd5b505050506040513d6020811015612ec657600080fd5b5051600482015401421015612aba576040805160e560020a62461bcd02815260206004820152601f60248201527f436f75727465737920706572696f6420686173206e6f7420656c617073656400604482015290519081900360640190fd5b8073__DepositStates_________________________630f2c635590916040518263ffffffff1660e060020a0281526004018082815260200191505060206040518083038186803b158015612f7957600080fd5b505af4158015612f8d573d6000803e3d6000fd5b505050506040513d6020811015612fa357600080fd5b50511515612ffb576040805160e560020a62461bcd02815260206004820152601560248201527f4465706f736974206973206e6f74206163746976650000000000000000000000604482015290519081900360640190fd5b73__TBTCConstants_________________________63d565d1f16040518163ffffffff1660e060020a02815260040160206040518083038186803b15801561304257600080fd5b505af4158015613056573d6000803e3d6000fd5b505050506040513d602081101561306c57600080fd5b50516010820154014210156130cb576040805160e560020a62461bcd02815260206004820152601860248201527f4465706f736974207465726d206e6f7420656c61707365640000000000000000604482015290519081900360640190fd5b8073__DepositStates_________________________63171b2a0590916040518263ffffffff1660e060020a0281526004018082815260200191505060006040518083038186803b15801561311f57600080fd5b505af4158015613133573d6000803e3d6000fd5b505050508073__OutsourceDepositLogging_______________63e35227b890916040518263ffffffff1660e060020a0281526004018082815260200191505060006040518083038186803b15801561318b57600080fd5b505af415801561319f573d6000803e3d6000fd5b5050505042816004018190555050565b600082821115613209576040805160e560020a62461bcd02815260206004820152601d60248201527f556e646572666c6f7720647572696e67207375627472616374696f6e2e000000604482015290519081900360640190fd5b508082035b92915050565b604080517f5cba343800000000000000000000000000000000000000000000000000000000815260048101839052600160248201529051600091829173__OutsourceDepositLogging_______________91635cba34389160448083019286929190829003018186803b15801561328a57600080fd5b505af415801561329e573d6000803e3d6000fd5b505050508273__DepositUtils__________________________63a22b061490916040518263ffffffff1660e060020a0281526004018082815260200191505060006040518083038186803b1580156132f657600080fd5b505af415801561330a573d6000803e3d6000fd5b505050508273__DepositUtils__________________________63f6d3e5b990916040518263ffffffff1660e060020a0281526004018082815260200191505060206040518083038186803b15801561336257600080fd5b505af4158015613376573d6000803e3d6000fd5b505050506040513d602081101561338c57600080fd5b506133989050836137ae565b9150811561370f578273__DepositStates_________________________63056256a890916040518263ffffffff1660e060020a0281526004018082815260200191505060006040518083038186803b1580156133f457600080fd5b505af4158015613408573d6000803e3d6000fd5b505050508273__OutsourceDepositLogging_______________6332e42f2d90916040518263ffffffff1660e060020a0281526004018082815260200191505060006040518083038186803b15801561346057600080fd5b505af4158015613474573d6000803e3d6000fd5b505050508273__DepositUtils__________________________63bcb7bc7290916040518263ffffffff1660e060020a0281526004018082815260200191505060006040518083038186803b1580156134cc57600080fd5b505af41580156134e0573d6000803e3d6000fd5b505050506001830154600a840154600160a060020a03918216925016156136225780600160a060020a03166323b872dd3085600a0160009054906101000a9004600160a060020a031673__TBTCConstants_________________________63ecaf1cdf6040518163ffffffff1660e060020a02815260040160206040518083038186803b15801561357057600080fd5b505af4158015613584573d6000803e3d6000fd5b505050506040513d602081101561359a57600080fd5b50516040805160e060020a63ffffffff8716028152600160a060020a0394851660048201529290931660248301526044820152905160648083019260209291908290030181600087803b1580156135f057600080fd5b505af1158015613604573d6000803e3d6000fd5b505050506040513d602081101561361a57600080fd5b5061370a9050565b80600160a060020a03166379cc67903073__TBTCConstants_________________________63ecaf1cdf6040518163ffffffff1660e060020a02815260040160206040518083038186803b15801561367957600080fd5b505af415801561368d573d6000803e3d6000fd5b505050506040513d60208110156136a357600080fd5b50516040805160e060020a63ffffffff8616028152600160a060020a039093166004840152602483019190915251604480830192600092919082900301818387803b1580156136f157600080fd5b505af1158015613705573d6000803e3d6000fd5b505050505b61371d565b81151561371d574260038401555b505050565b60008215156137335750600061320e565b5081810281838281151561374357fe5b041461320e576040805160e560020a62461bcd02815260206004820152601f60248201527f4f766572666c6f7720647572696e67206d756c7469706c69636174696f6e2e00604482015290519081900360640190fd5b600081838115156137a657fe5b049392505050565b6000806000806000808660000160009054906101000a9004600160a060020a0316600160a060020a0316633e6dfa366040518163ffffffff1660e060020a028152600401602060405180830381600087803b15801561380c57600080fd5b505af1158015613820573d6000803e3d6000fd5b505050506040513d602081101561383657600080fd5b50516001880154604080517f06f2bf62000000000000000000000000000000000000000000000000000000008152600160a060020a0392831660048201529051929750908716916306f2bf62916024808201926020929091908290030181600087803b1580156138a557600080fd5b505af11580156138b9573d6000803e3d6000fd5b505050506040513d60208110156138cf57600080fd5b50519350600160a060020a03841615156138ec5760009550613b12565b6139fe73__DepositUtils__________________________63d044de636040518163ffffffff1660e060020a02815260040160206040518083038186803b15801561393657600080fd5b505af415801561394a573d6000803e3d6000fd5b505050506040513d602081101561396057600080fd5b5051604080517fecaf1cdf000000000000000000000000000000000000000000000000000000008152905173__TBTCConstants_________________________9163ecaf1cdf916004808301926020929190829003018186803b1580156139c657600080fd5b505af41580156139da573d6000803e3d6000fd5b505050506040513d60208110156139f057600080fd5b50519063ffffffff613b1c16565b925083600160a060020a03166395b68fe7846040518263ffffffff1660e060020a02815260040180828152602001915050602060405180830381600087803b158015613a4957600080fd5b505af1158015613a5d573d6000803e3d6000fd5b505050506040513d6020811015613a7357600080fd5b505191503031821115613a895760009550613b12565b42600101905083600160a060020a0316636b1d4db78385846040518463ffffffff1660e060020a02815260040180838152602001828152602001925050506020604051808303818588803b158015613ae057600080fd5b505af1158015613af4573d6000803e3d6000fd5b50505050506040513d6020811015613b0b57600080fd5b5060019650505b5050505050919050565b8181018281101561320e576040805160e560020a62461bcd02815260206004820152601960248201527f4f766572666c6f7720647572696e67206164646974696f6e2e00000000000000604482015290519081900360640190fd00a165627a7a723058209e28fa8dccd41e6311c0a9eac4864882a0649e5dffaa4a5b8807a77daa83faff0029",
  "source": "pragma solidity 0.4.25;\n\nimport {SafeMath} from \"../bitcoin-spv/SafeMath.sol\";\nimport {BTCUtils} from \"../bitcoin-spv/BTCUtils.sol\";\nimport {DepositStates} from \"./DepositStates.sol\";\nimport {DepositUtils} from \"./DepositUtils.sol\";\nimport {TBTCConstants} from \"./TBTCConstants.sol\";\nimport {IKeep} from \"../interfaces/IKeep.sol\";\nimport {OutsourceDepositLogging} from \"./OutsourceDepositLogging.sol\";\nimport {IBurnableERC20} from \"../interfaces/IBurnableERC20.sol\";\nimport {IUniswapFactory} from \"../uniswap/IUniswapFactory.sol\";\nimport {IUniswapExchange} from \"../uniswap/IUniswapExchange.sol\";\nimport {ITBTCSystem} from \"../interfaces/ITBTCSystem.sol\";\n\nlibrary DepositLiquidation {\n\n    using BTCUtils for bytes;\n    using SafeMath for uint256;\n\n    using DepositUtils for DepositUtils.Deposit;\n    using DepositStates for DepositUtils.Deposit;\n    using OutsourceDepositLogging for DepositUtils.Deposit;\n\n    /// @notice     Tries to liquidate the position on-chain using the signer bond\n    /// @dev        Calls out to other contracts, watch for re-entrance\n    /// @return     True if Liquidated, False otherwise\n    // TODO(liamz): make attemptToLiquidateOnchain internal, check for re-entry\n    function attemptToLiquidateOnchain(\n        DepositUtils.Deposit storage _d\n    ) internal returns (bool) {\n        IUniswapFactory uniswapFactory = IUniswapFactory(ITBTCSystem(_d.TBTCSystem).getUniswapFactory());\n        IUniswapExchange exchange = IUniswapExchange(uniswapFactory.getExchange(_d.TBTCToken));\n        if(exchange == address(0x0)) {\n            return false;\n        }\n\n        // with collateralization = 125%, we can assume an order of\n        // 1.0005 TBTC (equivalent to will be filled\n        uint MIN_TBTC = TBTCConstants.getLotSize().add(DepositUtils.beneficiaryReward());\n\n        uint ethPrice = exchange.getTokenToEthInputPrice(MIN_TBTC);\n        if(address(this).balance < ethPrice) {\n            return false;\n        }\n\n        uint deadline = block.timestamp + 1;\n        exchange.ethToTokenSwapOutput.value(ethPrice)(MIN_TBTC, deadline);\n\n        return true;\n    }\n\n    /// @notice                 Notifies the keep contract of fraud\n    /// @dev                    Calls out to the keep contract. this could get expensive if preimage is large\n    /// @param  _d               deposit storage pointer\n    /// @param  _v              Signature recovery value\n    /// @param  _r              Signature R value\n    /// @param  _s              Signature S value\n    /// @param _signedDigest    The digest signed by the signature vrs tuple\n    /// @param _preimage        The sha256 preimage of the digest\n    /// @return                 True if fraud, otherwise revert\n    function submitSignatureFraud(\n        DepositUtils.Deposit storage _d,\n        uint8 _v,\n        bytes32 _r,\n        bytes32 _s,\n        bytes32 _signedDigest,\n        bytes _preimage\n    ) public returns (bool _isFraud) {\n        IKeep _keep = IKeep(_d.KeepBridge);\n        return _keep.submitSignatureFraud(_d.keepID, _v, _r, _s, _signedDigest, _preimage);\n    }\n\n    /// @notice     Determines the collateralization percentage of the signing group\n    /// @dev        Compares the bond value and lot value\n    /// @param _d   deposit storage pointer\n    /// @return     collateralization percentage as uint\n    function getCollateralizationPercentage(DepositUtils.Deposit storage _d) public view returns (uint256) {\n\n        // Determine value of the lot in wei\n        uint256 _oraclePrice = _d.fetchOraclePrice();\n        if (_oraclePrice == 0 || _oraclePrice > 10 ** 18) {\n            /*\n              This is if a sat is worth 0 wei, or is worth 1 ether\n              TODO: what should this behavior be?\n            */\n            revert(\"Oracle returned a bad price\");\n        }\n\n        uint256 _lotSize = TBTCConstants.getLotSize();\n        uint256 _lotValue = _lotSize * _oraclePrice;\n\n        // Amount of wei the signers have\n        uint256 _bondValue = _d.fetchBondAmount();\n\n        // This converts into a percentage\n        return (_bondValue.mul(100).div(_lotValue));\n    }\n\n    function startLiquidation(DepositUtils.Deposit storage _d) internal {\n        _d.logStartedLiquidation(true);\n        // Reclaim used state for gas savings\n        _d.redemptionTeardown();\n\n        _d.seizeSignerBonds();\n        bool _liquidated = attemptToLiquidateOnchain(_d);\n\n        if (_liquidated) {\n            _d.setLiquidated();\n            _d.logLiquidated();\n\n            _d.distributeBeneficiaryReward();\n\n            IBurnableERC20 _tbtc = IBurnableERC20(_d.TBTCToken);\n\n            if (_d.requesterAddress != address(0)) { // redemption\n                _tbtc.transferFrom(address(this), _d.requesterAddress, TBTCConstants.getLotSize());\n            } else {\n                // maintain supply peg\n                _tbtc.burnFrom(address(this), TBTCConstants.getLotSize());\n            }\n\n        } else if (!_liquidated) {\n            _d.liquidationInitiated = block.timestamp;  // Store the timestamp for auction\n        }\n    }\n\n\n    /// @notice         Starts signer liquidation due to fraud\n    /// @dev            We first attempt to liquidate on chain, then by auction\n    /// @param  _d      deposit storage pointer\n    function startSignerFraudLiquidation(DepositUtils.Deposit storage _d) public {\n        startLiquidation(_d);\n        if(_d.inLiquidated()) {\n            // send remaining eth to maintainer\n            msg.sender.transfer(address(this).balance);\n        } else {\n            _d.setFraudLiquidationInProgress();\n        }\n    }\n\n    /// @notice         Starts signer liquidation due to abort or undercollateralization\n    /// @dev            We first attempt to liquidate on chain, then by auction\n    /// @param  _d      deposit storage pointer\n    function startSignerAbortLiquidation(DepositUtils.Deposit storage _d) public {\n        startLiquidation(_d);\n        if(_d.inLiquidated()) {\n            // send remaining eth to signers\n            _d.pushFundsToKeepGroup(address(this).balance);\n        } else {\n            _d.setLiquidationInProgress();\n        }\n    }\n\n    /// @notice                 Anyone can provide a signature that was not requested to prove fraud\n    /// @dev                    ECDSA is NOT SECURE unless you verify the digest\n    /// @param  _d              deposit storage pointer\n    /// @param  _v              Signature recovery value\n    /// @param  _r              Signature R value\n    /// @param  _s              Signature S value\n    /// @param _signedDigest    The digest signed by the signature vrs tuple\n    /// @param _preimage        The sha256 preimage of the digest\n    function provideECDSAFraudProof(\n        DepositUtils.Deposit storage _d,\n        uint8 _v,\n        bytes32 _r,\n        bytes32 _s,\n        bytes32 _signedDigest,\n        bytes _preimage\n    ) public {\n        require(\n            !_d.inFunding() && !_d.inFundingFailure(),\n            \"Use provideFundingECDSAFraudProof instead\"\n        );\n        require(\n            !_d.inSignerLiquidation(),\n            \"Signer liquidation already in progress\"\n        );\n        require(!_d.inEndState(), \"Contract has halted\");\n        require(submitSignatureFraud(_d, _v, _r, _s, _signedDigest, _preimage), \"Signature is not fraud\");\n        startSignerFraudLiquidation(_d);\n    }\n\n    /// @notice                 Anyone may notify the deposit of fraud via an SPV proof\n    /// @dev                    We strong prefer ECDSA fraud proofs\n    /// @param  _d              deposit storage pointer\n    /// @param  _bitcoinTx      The bitcoin tx that purportedly contains the funding output\n    /// @param  _merkleProof    The merkle proof of inclusion of the tx in the bitcoin block\n    /// @param  _index          The index of the tx in the Bitcoin block (1-indexed)\n    /// @param  _bitcoinHeaders An array of tightly-packed bitcoin headers\n    function provideSPVFraudProof(\n        DepositUtils.Deposit storage _d,\n        bytes _bitcoinTx,\n        bytes _merkleProof,\n        uint256 _index,\n        bytes _bitcoinHeaders\n    ) public {\n        bytes memory _input;\n        bytes memory _output;\n        bool _inputConsumed;\n        uint8 i;\n\n        require(\n            !_d.inFunding() && !_d.inFundingFailure(),\n            \"SPV Fraud proofs not valid before Active state.\"\n        );\n        require(\n            !_d.inSignerLiquidation(),\n            \"Signer liquidation already in progress\"\n        );\n        require(!_d.inEndState(), \"Contract has halted\");\n\n        _d.checkProof(_bitcoinTx, _merkleProof, _index, _bitcoinHeaders);\n        for (i = 0; i < _bitcoinTx.extractNumInputs(); i++) {\n            _input = _bitcoinTx.extractInputAtIndex(i);\n            if (keccak256(_input.extractOutpoint()) == keccak256(_d.utxoOutpoint)) {\n                _inputConsumed = true;\n            }\n        }\n        require(_inputConsumed, \"No input spending custodied UTXO found\");\n\n        uint256 _permittedFeeBumps = 5;  /* TODO: can we refactor withdrawal flow to improve this? */\n        uint256 _requiredOutputSize = _d.utxoSize().sub((_d.initialRedemptionFee * (1 + _permittedFeeBumps)));\n        for (i = 0; i < _bitcoinTx.extractNumOutputs(); i++) {\n            _output = _bitcoinTx.extractOutputAtIndex(i);\n\n            if (_output.extractValue() >= _requiredOutputSize\n                && keccak256(_output.extractHash()) == keccak256(abi.encodePacked(_d.requesterPKH))) {\n                revert(\"Found an output paying the redeemer as requested\");\n            }\n        }\n\n        startSignerFraudLiquidation(_d);\n    }\n\n    /// @notice     Closes an auction and purchases the signer bonds. Payout to buyer, funder, then signers if not fraud\n    /// @dev        For interface, reading auctionValue will give a past value. the current is better\n    /// @param  _d  deposit storage pointer\n    function purchaseSignerBondsAtAuction(DepositUtils.Deposit storage _d) public {\n        bool _wasFraud = _d.inFraudLiquidationInProgress();\n        require(_d.inSignerLiquidation(), \"No active auction\");\n\n        _d.setLiquidated();\n        _d.logLiquidated();\n\n        // Burn the outstanding TBTC\n        IBurnableERC20 _tbtc = IBurnableERC20(_d.TBTCToken);\n        require(_tbtc.balanceOf(msg.sender) >= TBTCConstants.getLotSize(), \"Not enough TBTC to cover outstanding debt\");\n        _tbtc.burnFrom(msg.sender, TBTCConstants.getLotSize());  // burn minimal amount to cover size\n\n        // Distribute funds to auction buyer\n        uint256 _valueToDistribute = _d.auctionValue();\n        msg.sender.transfer(_valueToDistribute);\n\n        // Send any TBTC left to the beneficiary\n        _d.distributeBeneficiaryReward();\n\n        // then if there are funds left, and it wasn't fraud, pay out the signers\n        if (address(this).balance > 0) {\n            if (_wasFraud) {\n                // Burn it\n                address(0).transfer(address(this).balance);\n            } else {\n                // Send it back\n                _d.pushFundsToKeepGroup(address(this).balance);\n            }\n        }\n    }\n\n    /// @notice     Notify the contract that the signers are undercollateralized\n    /// @dev        Calls out to the system for oracle info\n    /// @param  _d  deposit storage pointer\n    function notifyCourtesyCall(DepositUtils.Deposit storage _d) public  {\n        require(_d.inActive(), \"Can only courtesy call from active state\");\n        require(getCollateralizationPercentage(_d) < TBTCConstants.getUndercollateralizedPercent(), \"Signers have sufficient collateral\");\n        _d.courtesyCallInitiated = block.timestamp;\n        _d.setCourtesyCall();\n        _d.logCourtesyCalled();\n    }\n\n    /// @notice     Goes from courtesy call to active\n    /// @dev        Only callable if collateral is sufficient and the deposit is not expiring\n    /// @param  _d  deposit storage pointer\n    function exitCourtesyCall(DepositUtils.Deposit storage _d) public {\n        require(_d.inCourtesyCall(), \"Not currently in courtesy call\");\n        require(block.timestamp <= _d.fundedAt + TBTCConstants.getDepositTerm(), \"Deposit is expiring\");\n        require(getCollateralizationPercentage(_d) >= TBTCConstants.getUndercollateralizedPercent(), \"Deposit is still undercollateralized\");\n        _d.setActive();\n        _d.logExitedCourtesyCall();\n    }\n\n    /// @notice     Notify the contract that the signers are undercollateralized\n    /// @dev        Calls out to the system for oracle info\n    /// @param  _d  deposit storage pointer\n    function notifyUndercollateralizedLiquidation(DepositUtils.Deposit storage _d) public {\n        require(_d.inRedeemableState(), \"Deposit not in active or courtesy call\");\n        require(getCollateralizationPercentage(_d) < TBTCConstants.getSeverelyUndercollateralizedPercent(), \"Deposit has sufficient collateral\");\n        startSignerAbortLiquidation(_d);\n    }\n\n    /// @notice     Notifies the contract that the courtesy period has elapsed\n    /// @dev        This is treated as an abort, rather than fraud\n    /// @param  _d  deposit storage pointer\n    function notifyCourtesyTimeout(DepositUtils.Deposit storage _d) public {\n        require(_d.inCourtesyCall(), \"Not in a courtesy call period\");\n        require(block.timestamp >= _d.courtesyCallInitiated + TBTCConstants.getCourtesyCallTimeout(), \"Courtesy period has not elapsed\");\n        startSignerAbortLiquidation(_d);\n    }\n\n    /// @notice     Notifies the contract that its term limit has been reached\n    /// @dev        This initiates a courtesy call\n    /// @param  _d  deposit storage pointer\n    function notifyDepositExpiryCourtesyCall(DepositUtils.Deposit storage _d) public {\n        require(_d.inActive(), \"Deposit is not active\");\n        require(block.timestamp >= _d.fundedAt + TBTCConstants.getDepositTerm(), \"Deposit term not elapsed\");\n        _d.setCourtesyCall();\n        _d.logCourtesyCalled();\n        _d.courtesyCallInitiated = block.timestamp;\n    }\n}\n",
  "sourcePath": "/Users/liamz/go/src/github.com/keep-network/tbtc/implementation/contracts/deposit/DepositLiquidation.sol",
  "compiler": {
    "name": "solc",
    "version": "0.4.25+commit.59dbf8f1.Emscripten.clang"
  },
  "schemaVersion": "3.0.10",
  "updatedAt": "2019-07-19T12:16:35.668Z",
  "devdoc": {
    "methods": {
      "exitCourtesyCall(DepositUtils.Deposit storage)": {
        "details": "Only callable if collateral is sufficient and the deposit is not expiring",
        "params": {
          "_d": "deposit storage pointer"
        }
      },
      "getCollateralizationPercentage(DepositUtils.Deposit storage)": {
        "details": "Compares the bond value and lot value",
        "params": {
          "_d": "deposit storage pointer"
        },
        "return": "collateralization percentage as uint"
      },
      "notifyCourtesyCall(DepositUtils.Deposit storage)": {
        "details": "Calls out to the system for oracle info",
        "params": {
          "_d": "deposit storage pointer"
        }
      },
      "notifyCourtesyTimeout(DepositUtils.Deposit storage)": {
        "details": "This is treated as an abort, rather than fraud",
        "params": {
          "_d": "deposit storage pointer"
        }
      },
      "notifyDepositExpiryCourtesyCall(DepositUtils.Deposit storage)": {
        "details": "This initiates a courtesy call",
        "params": {
          "_d": "deposit storage pointer"
        }
      },
      "notifyUndercollateralizedLiquidation(DepositUtils.Deposit storage)": {
        "details": "Calls out to the system for oracle info",
        "params": {
          "_d": "deposit storage pointer"
        }
      },
      "provideECDSAFraudProof(DepositUtils.Deposit storage,uint8,bytes32,bytes32,bytes32,bytes)": {
        "details": "ECDSA is NOT SECURE unless you verify the digest",
        "params": {
          "_d": "deposit storage pointer",
          "_preimage": "The sha256 preimage of the digest",
          "_r": "Signature R value",
          "_s": "Signature S value",
          "_signedDigest": "The digest signed by the signature vrs tuple",
          "_v": "Signature recovery value"
        }
      },
      "provideSPVFraudProof(DepositUtils.Deposit storage,bytes,bytes,uint256,bytes)": {
        "details": "We strong prefer ECDSA fraud proofs",
        "params": {
          "_bitcoinHeaders": "An array of tightly-packed bitcoin headers",
          "_bitcoinTx": "The bitcoin tx that purportedly contains the funding output",
          "_d": "deposit storage pointer",
          "_index": "The index of the tx in the Bitcoin block (1-indexed)",
          "_merkleProof": "The merkle proof of inclusion of the tx in the bitcoin block"
        }
      },
      "purchaseSignerBondsAtAuction(DepositUtils.Deposit storage)": {
        "details": "For interface, reading auctionValue will give a past value. the current is better",
        "params": {
          "_d": "deposit storage pointer"
        }
      },
      "startSignerAbortLiquidation(DepositUtils.Deposit storage)": {
        "details": "We first attempt to liquidate on chain, then by auction",
        "params": {
          "_d": "deposit storage pointer"
        }
      },
      "startSignerFraudLiquidation(DepositUtils.Deposit storage)": {
        "details": "We first attempt to liquidate on chain, then by auction",
        "params": {
          "_d": "deposit storage pointer"
        }
      },
      "submitSignatureFraud(DepositUtils.Deposit storage,uint8,bytes32,bytes32,bytes32,bytes)": {
        "details": "Calls out to the keep contract. this could get expensive if preimage is large",
        "params": {
          "_d": "deposit storage pointer",
          "_preimage": "The sha256 preimage of the digest",
          "_r": "Signature R value",
          "_s": "Signature S value",
          "_signedDigest": "The digest signed by the signature vrs tuple",
          "_v": "Signature recovery value"
        },
        "return": "True if fraud, otherwise revert"
      }
    }
  },
  "userdoc": {
    "methods": {
      "exitCourtesyCall(DepositUtils.Deposit storage)": {
        "notice": "Goes from courtesy call to active"
      },
      "getCollateralizationPercentage(DepositUtils.Deposit storage)": {
        "notice": "Determines the collateralization percentage of the signing group"
      },
      "notifyCourtesyCall(DepositUtils.Deposit storage)": {
        "notice": "Notify the contract that the signers are undercollateralized"
      },
      "notifyCourtesyTimeout(DepositUtils.Deposit storage)": {
        "notice": "Notifies the contract that the courtesy period has elapsed"
      },
      "notifyDepositExpiryCourtesyCall(DepositUtils.Deposit storage)": {
        "notice": "Notifies the contract that its term limit has been reached"
      },
      "notifyUndercollateralizedLiquidation(DepositUtils.Deposit storage)": {
        "notice": "Notify the contract that the signers are undercollateralized"
      },
      "provideECDSAFraudProof(DepositUtils.Deposit storage,uint8,bytes32,bytes32,bytes32,bytes)": {
        "notice": "Anyone can provide a signature that was not requested to prove fraud"
      },
      "provideSPVFraudProof(DepositUtils.Deposit storage,bytes,bytes,uint256,bytes)": {
        "notice": "Anyone may notify the deposit of fraud via an SPV proof"
      },
      "purchaseSignerBondsAtAuction(DepositUtils.Deposit storage)": {
        "notice": "Closes an auction and purchases the signer bonds. Payout to buyer, funder, then signers if not fraud"
      },
      "startSignerAbortLiquidation(DepositUtils.Deposit storage)": {
        "notice": "Starts signer liquidation due to abort or undercollateralization"
      },
      "startSignerFraudLiquidation(DepositUtils.Deposit storage)": {
        "notice": "Starts signer liquidation due to fraud"
      },
      "submitSignatureFraud(DepositUtils.Deposit storage,uint8,bytes32,bytes32,bytes32,bytes)": {
        "notice": "Notifies the keep contract of fraud"
      }
    }
  }
}