{
  "contractName": "DepositUtils",
  "abi": [
    {
      "constant": true,
      "inputs": [
        {
          "name": "_d",
          "type": "DepositUtils.Deposit storage"
        }
      ],
      "name": "currentBlockDifficulty",
      "outputs": [
        {
          "name": "",
          "type": "uint256"
        }
      ],
      "payable": false,
      "stateMutability": "view",
      "type": "function"
    },
    {
      "constant": true,
      "inputs": [
        {
          "name": "_d",
          "type": "DepositUtils.Deposit storage"
        }
      ],
      "name": "previousBlockDifficulty",
      "outputs": [
        {
          "name": "",
          "type": "uint256"
        }
      ],
      "payable": false,
      "stateMutability": "view",
      "type": "function"
    },
    {
      "constant": true,
      "inputs": [
        {
          "name": "_d",
          "type": "DepositUtils.Deposit storage"
        },
        {
          "name": "_bitcoinHeaders",
          "type": "bytes"
        }
      ],
      "name": "evaluateProofDifficulty",
      "outputs": [],
      "payable": false,
      "stateMutability": "view",
      "type": "function"
    },
    {
      "constant": true,
      "inputs": [
        {
          "name": "_d",
          "type": "DepositUtils.Deposit storage"
        },
        {
          "name": "_bitcoinTx",
          "type": "bytes"
        },
        {
          "name": "_merkleProof",
          "type": "bytes"
        },
        {
          "name": "_index",
          "type": "uint256"
        },
        {
          "name": "_bitcoinHeaders",
          "type": "bytes"
        }
      ],
      "name": "checkProof",
      "outputs": [
        {
          "name": "",
          "type": "bytes32"
        }
      ],
      "payable": false,
      "stateMutability": "view",
      "type": "function"
    },
    {
      "constant": true,
      "inputs": [
        {
          "name": "_d",
          "type": "DepositUtils.Deposit storage"
        }
      ],
      "name": "auctionValue",
      "outputs": [
        {
          "name": "",
          "type": "uint256"
        }
      ],
      "payable": false,
      "stateMutability": "view",
      "type": "function"
    },
    {
      "constant": true,
      "inputs": [],
      "name": "signerFee",
      "outputs": [
        {
          "name": "",
          "type": "uint256"
        }
      ],
      "payable": false,
      "stateMutability": "pure",
      "type": "function"
    },
    {
      "constant": true,
      "inputs": [],
      "name": "beneficiaryReward",
      "outputs": [
        {
          "name": "",
          "type": "uint256"
        }
      ],
      "payable": false,
      "stateMutability": "pure",
      "type": "function"
    },
    {
      "constant": true,
      "inputs": [
        {
          "name": "_d",
          "type": "DepositUtils.Deposit storage"
        }
      ],
      "name": "redemptionTBTCAmount",
      "outputs": [
        {
          "name": "",
          "type": "uint256"
        }
      ],
      "payable": false,
      "stateMutability": "view",
      "type": "function"
    },
    {
      "constant": true,
      "inputs": [
        {
          "name": "_d",
          "type": "DepositUtils.Deposit storage"
        }
      ],
      "name": "auctionTBTCAmount",
      "outputs": [
        {
          "name": "",
          "type": "uint256"
        }
      ],
      "payable": false,
      "stateMutability": "view",
      "type": "function"
    },
    {
      "constant": true,
      "inputs": [
        {
          "name": "_pubkeyY",
          "type": "bytes32"
        }
      ],
      "name": "determineCompressionPrefix",
      "outputs": [
        {
          "name": "",
          "type": "bytes"
        }
      ],
      "payable": false,
      "stateMutability": "pure",
      "type": "function"
    },
    {
      "constant": true,
      "inputs": [
        {
          "name": "_pubkeyX",
          "type": "bytes32"
        },
        {
          "name": "_pubkeyY",
          "type": "bytes32"
        }
      ],
      "name": "compressPubkey",
      "outputs": [
        {
          "name": "",
          "type": "bytes"
        }
      ],
      "payable": false,
      "stateMutability": "pure",
      "type": "function"
    },
    {
      "constant": true,
      "inputs": [
        {
          "name": "_d",
          "type": "DepositUtils.Deposit storage"
        }
      ],
      "name": "signerPubkey",
      "outputs": [
        {
          "name": "",
          "type": "bytes"
        }
      ],
      "payable": false,
      "stateMutability": "view",
      "type": "function"
    },
    {
      "constant": true,
      "inputs": [
        {
          "name": "_d",
          "type": "DepositUtils.Deposit storage"
        }
      ],
      "name": "signerPKH",
      "outputs": [
        {
          "name": "",
          "type": "bytes20"
        }
      ],
      "payable": false,
      "stateMutability": "view",
      "type": "function"
    },
    {
      "constant": true,
      "inputs": [
        {
          "name": "_d",
          "type": "DepositUtils.Deposit storage"
        }
      ],
      "name": "utxoSize",
      "outputs": [
        {
          "name": "",
          "type": "uint256"
        }
      ],
      "payable": false,
      "stateMutability": "view",
      "type": "function"
    },
    {
      "constant": true,
      "inputs": [
        {
          "name": "_d",
          "type": "DepositUtils.Deposit storage"
        }
      ],
      "name": "fetchOraclePrice",
      "outputs": [
        {
          "name": "",
          "type": "uint256"
        }
      ],
      "payable": false,
      "stateMutability": "view",
      "type": "function"
    },
    {
      "constant": true,
      "inputs": [
        {
          "name": "_d",
          "type": "DepositUtils.Deposit storage"
        }
      ],
      "name": "fetchBondAmount",
      "outputs": [
        {
          "name": "",
          "type": "uint256"
        }
      ],
      "payable": false,
      "stateMutability": "view",
      "type": "function"
    },
    {
      "constant": true,
      "inputs": [
        {
          "name": "_b",
          "type": "bytes8"
        }
      ],
      "name": "bytes8LEToUint",
      "outputs": [
        {
          "name": "",
          "type": "uint256"
        }
      ],
      "payable": false,
      "stateMutability": "pure",
      "type": "function"
    },
    {
      "constant": true,
      "inputs": [
        {
          "name": "_d",
          "type": "DepositUtils.Deposit storage"
        },
        {
          "name": "_digest",
          "type": "bytes32"
        }
      ],
      "name": "wasDigestApprovedForSigning",
      "outputs": [
        {
          "name": "",
          "type": "uint256"
        }
      ],
      "payable": false,
      "stateMutability": "view",
      "type": "function"
    },
    {
      "constant": true,
      "inputs": [
        {
          "name": "_d",
          "type": "DepositUtils.Deposit storage"
        }
      ],
      "name": "depositBeneficiary",
      "outputs": [
        {
          "name": "",
          "type": "address"
        }
      ],
      "payable": false,
      "stateMutability": "view",
      "type": "function"
    },
    {
      "constant": false,
      "inputs": [
        {
          "name": "_d",
          "type": "DepositUtils.Deposit storage"
        }
      ],
      "name": "redemptionTeardown",
      "outputs": [],
      "payable": false,
      "stateMutability": "nonpayable",
      "type": "function"
    },
    {
      "constant": false,
      "inputs": [
        {
          "name": "_d",
          "type": "DepositUtils.Deposit storage"
        }
      ],
      "name": "seizeSignerBonds",
      "outputs": [
        {
          "name": "",
          "type": "uint256"
        }
      ],
      "payable": false,
      "stateMutability": "nonpayable",
      "type": "function"
    },
    {
      "constant": false,
      "inputs": [
        {
          "name": "_d",
          "type": "DepositUtils.Deposit storage"
        }
      ],
      "name": "distributeBeneficiaryReward",
      "outputs": [],
      "payable": false,
      "stateMutability": "nonpayable",
      "type": "function"
    },
    {
      "constant": false,
      "inputs": [
        {
          "name": "_d",
          "type": "DepositUtils.Deposit storage"
        },
        {
          "name": "_ethValue",
          "type": "uint256"
        }
      ],
      "name": "pushFundsToKeepGroup",
      "outputs": [
        {
          "name": "",
          "type": "bool"
        }
      ],
      "payable": false,
      "stateMutability": "nonpayable",
      "type": "function"
    }
  ],
  "bytecode": "0x6121a4610030600b82828239805160001a6073146000811461002057610022565bfe5b5030600052607381538281f30073000000000000000000000000000000000000000030146080604052600436106101305763ffffffff60e060020a6000350416631129a8a9811461013557806327e75cee146101555780632fac808a146101d5578063406af695146101e057806350ef3aa114610206578063566d0816146102115780635c7b82d7146102e457806365fbe4bd1461033757806368bf68e11461035e57806368c2bd861461036957806375030f9c146103745780637a6fbf421461037c5780638fdd038814610387578063a22b061414610392578063b6f3e9fc146103aa578063bcb7bc72146103b5578063cd2acda8146103cd578063d044de63146103fc578063d9ab8b8114610404578063db08d91914610412578063e0dfd81a1461041d578063e2d6473d1461044a578063f6d3e5b914610455575b600080fd5b61014360043560243561046d565b60408051918252519081900360200190f35b610160600435610518565b6040805160208082528351818301528351919283929083019185019080838360005b8381101561019a578181015183820152602001610182565b50505050905090810190601f1680156101c75780820380516001836020036101000a031916815260200191505b509250505060405180910390f35b61014360043561059a565b61014377ffffffffffffffffffffffffffffffffffffffffffffffff196004351661063d565b6101436004356108c1565b60408051602060046024803582810135601f810185900485028601850190965285855261014395833595369560449491939091019190819084018382808284375050604080516020601f89358b018035918201839004830284018301909452808352979a99988101979196509182019450925082915084018382808284375050604080516020601f818a01358b0180359182018390048302840183018552818452989b8a359b909a909994019750919550918201935091508190840183828082843750949750610ad19650505050505050565b60408051602060046024803582810135601f810185900485028601850190965285855261033595833595369560449491939091019190819084018382808284375094975061118e9650505050505050565b005b6103426004356115dd565b60408051600160a060020a039092168252519081900360200190f35b610143600435611644565b610143600435611676565b6101436116d7565b6101436004356117f0565b6101436004356118b7565b81801561039e57600080fd5b50610335600435611918565b61014360043561194f565b8180156103c157600080fd5b506103356004356119b0565b8180156103d957600080fd5b506103e8600435602435611a62565b604080519115158252519081900360200190f35b610143611b5b565b610160600435602435611ba7565b610160600435611c1e565b610428600435611c4f565b604080516bffffffffffffffffffffffff199092168252519081900360200190f35b610143600435611de8565b81801561046157600080fd5b50610143600435611e79565b60028201546005830154604080517fc451027900000000000000000000000000000000000000000000000000000000815260048101929092526024820184905251600092600160a060020a031691829163c45102799160448082019260209290919082900301818887803b1580156104e457600080fd5b505af11580156104f8573d6000803e3d6000fd5b505050506040513d602081101561050e57600080fd5b5051949350505050565b60606001808316141561055f575060408051808201909152600181527f03000000000000000000000000000000000000000000000000000000000000006020820152610595565b5060408051808201909152600181527f020000000000000000000000000000000000000000000000000000000000000060208201525b919050565b60028101546005820154604080517f7fd8bba9000000000000000000000000000000000000000000000000000000008152600481019290925251600092600160a060020a0316918291637fd8bba99160248082019260209290919082900301818887803b15801561060a57600080fd5b505af115801561061e573d6000803e3d6000fd5b505050506040513d602081101561063457600080fd5b50519392505050565b6040805177ffffffffffffffffffffffffffffffffffffffffffffffff1983166020808301919091528251808303600801815260288301938490527f5196ba0300000000000000000000000000000000000000000000000000000000909352602c82018181528351604c840152835160009473__BTCUtils______________________________94635196ba03949193928392606c909201918501908083838b5b838110156106f65781810151838201526020016106de565b50505050905090810190601f1680156107235780820380516001836020036101000a031916815260200191505b509250505060006040518083038186803b15801561074057600080fd5b505af4158015610754573d6000803e3d6000fd5b505050506040513d6000823e601f3d908101601f19168201604052602081101561077d57600080fd5b81019080805164010000000081111561079557600080fd5b820160208101848111156107a857600080fd5b81516401000000008111828201871017156107c257600080fd5b50506040517f02d06d0500000000000000000000000000000000000000000000000000000000815260206004820181815283516024840152835173__BTCUtils______________________________97506302d06d0596509394509283926044019185019080838360005b8381101561084557818101518382015260200161082d565b50505050905090810190601f1680156108725780820380516001836020036101000a031916815260200191505b509250505060206040518083038186803b15801561088f57600080fd5b505af41580156108a3573d6000803e3d6000fd5b505050506040513d60208110156108b957600080fd5b505192915050565b6000806000806000806108e1876003015442611f9090919063ffffffff16565b945030600160a060020a031631935073__TBTCConstants_________________________6378cb51af6040518163ffffffff1660e060020a02815260040160206040518083038186803b15801561093757600080fd5b505af415801561094b573d6000803e3d6000fd5b505050506040513d602081101561096157600080fd5b505185111561097257839550610ac7565b73__TBTCConstants_________________________63c4572eb96040518163ffffffff1660e060020a02815260040160206040518083038186803b1580156109b957600080fd5b505af41580156109cd573d6000803e3d6000fd5b505050506040513d60208110156109e357600080fd5b5051604080517f78cb51af0000000000000000000000000000000000000000000000000000000081529051919450610aa99173__TBTCConstants_________________________916378cb51af916004808301926020929190829003018186803b158015610a5057600080fd5b505af4158015610a64573d6000803e3d6000fd5b505050506040513d6020811015610a7a57600080fd5b5051610a9d87610a9160648863ffffffff611f9016565b9063ffffffff611ff016565b9063ffffffff61206716565b915050818101610ac46064610a9d868463ffffffff611ff016565b95505b5050505050919050565b6000606080606080606060008a73__ValidateSPV___________________________636750d35b90916040518263ffffffff1660e060020a0281526004018080602001828103825283818151815260200191508051906020019080838360005b83811015610b49578181015183820152602001610b31565b50505050905090810190601f168015610b765780820380516001836020036101000a031916815260200191505b509250505060006040518083038186803b158015610b9357600080fd5b505af4158015610ba7573d6000803e3d6000fd5b505050506040513d6000823e601f3d908101601f1916820160405260c0811015610bd057600080fd5b810190808051640100000000811115610be857600080fd5b82016020810184811115610bfb57600080fd5b8151640100000000811182820187101715610c1557600080fd5b50509291906020018051640100000000811115610c3157600080fd5b82016020810184811115610c4457600080fd5b8151640100000000811182820187101715610c5e57600080fd5b50509291906020018051640100000000811115610c7a57600080fd5b82016020810184811115610c8d57600080fd5b8151640100000000811182820187101715610ca757600080fd5b50509291906020018051640100000000811115610cc357600080fd5b82016020810184811115610cd657600080fd5b8151640100000000811182820187101715610cf057600080fd5b50509291906020018051640100000000811115610d0c57600080fd5b82016020810184811115610d1f57600080fd5b8151640100000000811182820187101715610d3957600080fd5b5050602090910151969c50949a509298509096509194509192505050801515610dac576040805160e560020a62461bcd02815260206004820152601160248201527f4661696c65642074782070617273696e67000000000000000000000000000000604482015290519081900360640190fd5b806000191673__ValidateSPV___________________________6331c03d0f90918a73__BTCUtils______________________________63e31952c390916040518263ffffffff1660e060020a0281526004018080602001828103825283818151815260200191508051906020019080838360005b83811015610e39578181015183820152602001610e21565b50505050905090810190601f168015610e665780820380516001836020036101000a031916815260200191505b509250505060006040518083038186803b158015610e8357600080fd5b505af4158015610e97573d6000803e3d6000fd5b505050506040513d6000823e601f3d908101601f191682016040526020811015610ec057600080fd5b810190808051640100000000811115610ed857600080fd5b82016020810184811115610eeb57600080fd5b8151640100000000811182820187101715610f0557600080fd5b50506040517f47f5343100000000000000000000000000000000000000000000000000000000815260206004820181815283516024840152835173__BytesLib______________________________97506347f5343196509394509283926044019185019080838360005b83811015610f88578181015183820152602001610f70565b50505050905090810190601f168015610fb55780820380516001836020036101000a031916815260200191505b509250505060206040518083038186803b158015610fd257600080fd5b505af4158015610fe6573d6000803e3d6000fd5b505050506040513d6020811015610ffc57600080fd5b81019080805190602001909291905050508d8d6040518563ffffffff1660e060020a028152600401808560001916600019168152602001846000191660001916815260200180602001838152602001828103825284818151815260200191508051906020019080838360005b83811015611080578181015183820152602001611068565b50505050905090810190601f1680156110ad5780820380516001836020036101000a031916815260200191505b509550505050505060206040518083038186803b1580156110cd57600080fd5b505af41580156110e1573d6000803e3d6000fd5b505050506040513d60208110156110f757600080fd5b50511515611175576040805160e560020a62461bcd02815260206004820152603760248201527f5478206d65726b6c652070726f6f66206973206e6f742076616c696420666f7260448201527f2070726f76696465642068656164657220616e64207478000000000000000000606482015290519081900360840190fd5b61117f8c8961118e565b9b9a5050505050505050505050565b600080600080600061119f876118b7565b93506111aa87611676565b6040517f0ca25cc000000000000000000000000000000000000000000000000000000000815260206004820181815289516024840152895193965073__BTCUtils______________________________93630ca25cc0938b9383926044909201919085019080838360005b8381101561122d578181015183820152602001611215565b50505050905090810190601f16801561125a5780820380516001836020036101000a031916815260200191505b509250505060206040518083038186803b15801561127757600080fd5b505af415801561128b573d6000803e3d6000fd5b505050506040513d60208110156112a157600080fd5b5051604080517f88dbbe3400000000000000000000000000000000000000000000000000000000815260048101929092525173__BTCUtils______________________________916388dbbe34916024808301926020929190829003018186803b15801561130e57600080fd5b505af4158015611322573d6000803e3d6000fd5b505050506040513d602081101561133857600080fd5b505191508382141561134c578394506113d2565b8282141561135c578294506113d2565b6040805160e560020a62461bcd02815260206004820152602560248201527f6e6f742061742063757272656e74206f722070726576696f757320646966666960448201527f63756c7479000000000000000000000000000000000000000000000000000000606482015290519081900360840190fd5b6040517f3e36138900000000000000000000000000000000000000000000000000000000815260206004820181815288516024840152885173__ValidateSPV___________________________93633e361389938b939283926044019185019080838360005b83811015611450578181015183820152602001611438565b50505050905090810190601f16801561147d5780820380516001836020036101000a031916815260200191505b509250505060206040518083038186803b15801561149a57600080fd5b505af41580156114ae573d6000803e3d6000fd5b505050506040513d60208110156114c457600080fd5b5051905060038111611546576040805160e560020a62461bcd02815260206004820152602260248201527f56616c69646174655350562072657475726e656420616e206572726f7220636f60448201527f6465000000000000000000000000000000000000000000000000000000000000606482015290519081900360840190fd5b61155785600663ffffffff611ff016565b8110156115d4576040805160e560020a62461bcd02815260206004820152603360248201527f496e73756666696369656e7420616363756d756c61746564206469666669637560448201527f6c747920696e2068656164657220636861696e00000000000000000000000000606482015290519081900360840190fd5b50505050505050565b8054604080517f6352211e0000000000000000000000000000000000000000000000000000000081523060048201529051600092600160a060020a0316918291636352211e9160248082019260209290919082900301818887803b15801561060a57600080fd5b600f8101546000906116709078010000000000000000000000000000000000000000000000000261063d565b92915050565b8054604080517f402b783d0000000000000000000000000000000000000000000000000000000081529051600092600160a060020a031691829163402b783d9160048082019260209290919082900301818887803b15801561060a57600080fd5b60006117eb73__TBTCConstants_________________________6360e98d596040518163ffffffff1660e060020a02815260040160206040518083038186803b15801561172357600080fd5b505af4158015611737573d6000803e3d6000fd5b505050506040513d602081101561174d57600080fd5b5051604080517fecaf1cdf000000000000000000000000000000000000000000000000000000008152905173__TBTCConstants_________________________9163ecaf1cdf916004808301926020929190829003018186803b1580156117b357600080fd5b505af41580156117c7573d6000803e3d6000fd5b505050506040513d60208110156117dd57600080fd5b50519063ffffffff61206716565b905090565b600a810154600090600160a060020a031615156118af576118a8611812611b5b565b61189c61181d6116d7565b73__TBTCConstants_________________________63ecaf1cdf6040518163ffffffff1660e060020a02815260040160206040518083038186803b15801561186457600080fd5b505af4158015611878573d6000803e3d6000fd5b505050506040513d602081101561188e57600080fd5b50519063ffffffff61207c16565b9063ffffffff61207c16565b9050610595565b506000610595565b8054604080517fdab70cb10000000000000000000000000000000000000000000000000000000081529051600092600160a060020a031691829163dab70cb19160048082019260209290919082900301818887803b15801561060a57600080fd5b600b8101805473ffffffffffffffffffffffffffffffffffffffff191690556000600c8201819055600d8201819055600e90910155565b8054604080517fadd1c8170000000000000000000000000000000000000000000000000000000081529051600092600160a060020a031691829163add1c8179160048082019260209290919082900301818887803b15801561060a57600080fd5b6001810154600160a060020a03168063a9059cbb6119cd846115dd565b6119d5611b5b565b6040518363ffffffff1660e060020a0281526004018083600160a060020a0316600160a060020a0316815260200182815260200192505050602060405180830381600087803b158015611a2757600080fd5b505af1158015611a3b573d6000803e3d6000fd5b505050506040513d6020811015611a5157600080fd5b50511515611a5e57600080fd5b5050565b6000803031831115611abe576040805160e560020a62461bcd02815260206004820152601860248201527f4e6f7420656e6f7567682066756e647320746f2073656e640000000000000000604482015290519081900360640190fd5b5060028301546005840154604080517f76d77b73000000000000000000000000000000000000000000000000000000008152600481019290925251600160a060020a039092169182916376d77b7391869160248082019260209290919082900301818588803b158015611b3057600080fd5b505af1158015611b44573d6000803e3d6000fd5b50505050506040513d602081101561050e57600080fd5b60006117eb73__TBTCConstants_________________________63a1f6c6396040518163ffffffff1660e060020a02815260040160206040518083038186803b15801561172357600080fd5b6060611bb282610518565b836040516020018083805190602001908083835b60208310611be55780518252601f199092019160209182019101611bc6565b51815160209384036101000a60001901801990921691161790529201938452506040805180850381529390910190525091505092915050565b6008810154600990910154604080516020810193909352828101919091528051808303820181526060909201905290565b6000606080611c6684600801548560090154611ba7565b6040517f48cf5c9400000000000000000000000000000000000000000000000000000000815260206004820181815283516024840152835193955073__BTCUtils______________________________936348cf5c9493879383926044909201919085019080838360005b83811015611ce9578181015183820152602001611cd1565b50505050905090810190601f168015611d165780820380516001836020036101000a031916815260200191505b509250505060006040518083038186803b158015611d3357600080fd5b505af4158015611d47573d6000803e3d6000fd5b505050506040513d6000823e601f3d908101601f191682016040526020811015611d7057600080fd5b810190808051640100000000811115611d8857600080fd5b82016020810184811115611d9b57600080fd5b8151640100000000811182820187101715611db557600080fd5b50909450611dd19350849250600091505063ffffffff6120d716565b6c0100000000000000000000000002949350505050565b600a810154600090600160a060020a031615156118af5773__TBTCConstants_________________________63ecaf1cdf6040518163ffffffff1660e060020a02815260040160206040518083038186803b158015611e4657600080fd5b505af4158015611e5a573d6000803e3d6000fd5b505050506040513d6020811015611e7057600080fd5b50519050610595565b60028101546005820154604080517fe9e8b4f9000000000000000000000000000000000000000000000000000000008152600481019290925251600092303192600160a060020a03909116918491839163e9e8b4f99160248082019260209290919082900301818787803b158015611ef057600080fd5b505af1158015611f04573d6000803e3d6000fd5b505050506040513d6020811015611f1a57600080fd5b505030319050828111611f77576040805160e560020a62461bcd02815260206004820152601d60248201527f4e6f2066756e64732072656365697665642c20756e6578706563746564000000604482015290519081900360640190fd5b611f87818463ffffffff611f9016565b95945050505050565b600082821115611fea576040805160e560020a62461bcd02815260206004820152601d60248201527f556e646572666c6f7720647572696e67207375627472616374696f6e2e000000604482015290519081900360640190fd5b50900390565b600082151561200157506000611670565b5081810281838281151561201157fe5b0414611670576040805160e560020a62461bcd02815260206004820152601f60248201527f4f766572666c6f7720647572696e67206d756c7469706c69636174696f6e2e00604482015290519081900360640190fd5b6000818381151561207457fe5b049392505050565b81810182811015611670576040805160e560020a62461bcd02815260206004820152601960248201527f4f766572666c6f7720647572696e67206164646974696f6e2e00000000000000604482015290519081900360640190fd5b6000808260140184511015151561215e576040805160e560020a62461bcd02815260206004820152602160248201527f4164647265737320636f6e76657273696f6e206f7574206f6620626f756e647360448201527f2e00000000000000000000000000000000000000000000000000000000000000606482015290519081900360840190fd5b505001602001516c010000000000000000000000009004905600a165627a7a723058206df3743e71f3d7cd1748cd4842c9cc19ee9219aba164837987e6aed3403f24930029",
  "source": "pragma solidity 0.4.25;\n\nimport {ValidateSPV} from \"../bitcoin-spv/ValidateSPV.sol\";\nimport {SafeMath} from \"../bitcoin-spv/SafeMath.sol\";\nimport {BTCUtils} from \"../bitcoin-spv/BTCUtils.sol\";\nimport {BytesLib} from \"../bitcoin-spv/BytesLib.sol\";\nimport {TBTCConstants} from \"./TBTCConstants.sol\";\nimport {ITBTCSystem} from \"../interfaces/ITBTCSystem.sol\";\nimport {IERC721} from \"../interfaces/IERC721.sol\";\nimport {IKeep} from \"../interfaces/IKeep.sol\";\nimport {IBurnableERC20} from \"../interfaces/IBurnableERC20.sol\";\n\nlibrary DepositUtils {\n\n    using SafeMath for uint256;\n    using BytesLib for bytes;\n    using BTCUtils for bytes;\n    using BTCUtils for uint256;\n    using ValidateSPV for bytes;\n    using ValidateSPV for bytes32;\n\n    struct Deposit {\n\n        // SET DURING CONSTRUCTION\n        address TBTCSystem;\n        address TBTCToken;\n        address KeepBridge;\n        uint8 currentState;\n\n        // SET ON FRAUD\n        uint256 liquidationInitiated;  // Timestamp of when liquidation starts\n        uint256 courtesyCallInitiated; // When the courtesy call is issued\n\n        // written when we request a keep\n        uint256 keepID;  // The ID of our keep group\n        uint256 signingGroupRequestedAt;  // timestamp of signing group request\n\n        // written when we get a keep result\n        uint256 fundingProofTimerStart;  // start of the funding proof period. reused for funding fraud proof period\n        bytes32 signingGroupPubkeyX;  // The X coordinate of the signing group's pubkey\n        bytes32 signingGroupPubkeyY;  // The Y coordinate of the signing group's pubkey\n\n        // INITIALLY WRITTEN BY REDEMPTION FLOW\n        address requesterAddress;  // The requester's addr4ess, used as fallback for fraud in redemption\n        bytes20 requesterPKH;  // The 20-byte requeser PKH\n        uint256 initialRedemptionFee;  // the initial fee as requested\n        uint256 withdrawalRequestTime;  // the most recent withdrawal request timestamp\n        bytes32 lastRequestedDigest;  // the digest most recently requested for signing\n\n        // written when we get funded\n        bytes8 utxoSizeBytes;  // LE uint. the size of the deposit UTXO in satoshis\n        uint256 fundedAt; // timestamp when funding proof was received\n        bytes utxoOutpoint;  // the 36-byte outpoint of the custodied UTXO\n    }\n\n    /// @notice         Gets the current block difficulty\n    /// @dev            Calls the light relay and gets the current block difficulty\n    /// @return         The difficulty\n    function currentBlockDifficulty(Deposit storage _d) public view returns (uint256) {\n        ITBTCSystem _sys = ITBTCSystem(_d.TBTCSystem);\n        return _sys.fetchRelayCurrentDifficulty();\n    }\n\n    /// @notice         Gets the previous block difficulty\n    /// @dev            Calls the light relay and gets the previous block difficulty\n    /// @return         The difficulty\n    function previousBlockDifficulty(Deposit storage _d) public view returns (uint256) {\n        ITBTCSystem _sys = ITBTCSystem(_d.TBTCSystem);\n        return _sys.fetchRelayPreviousDifficulty();\n    }\n\n    /// @notice                     Evaluates the header difficulties in a proof\n    /// @dev                        Uses the light oracle to source recent difficulty\n    /// @param  _bitcoinHeaders     The header chain to evaluate\n    /// @return                     True if acceptable, otherwise revert\n    function evaluateProofDifficulty(Deposit storage _d, bytes _bitcoinHeaders) public view {\n        uint256 _reqDiff;\n        uint256 _current = currentBlockDifficulty(_d);\n        uint256 _previous = previousBlockDifficulty(_d);\n        uint256 _firstHeaderDiff = _bitcoinHeaders.extractTarget().calculateDifficulty();\n\n        if (_firstHeaderDiff == _current) {\n            _reqDiff = _current;\n        } else if (_firstHeaderDiff == _previous) {\n            _reqDiff = _previous;\n        } else {\n            revert(\"not at current or previous difficulty\");\n        }\n\n        uint256 _observedDiff = _bitcoinHeaders.validateHeaderChain();\n        require(_observedDiff > 3, \"ValidateSPV returned an error code\");\n        /* TODO: make this better than 6 */\n        require(\n            _observedDiff >= _reqDiff.mul(6),\n            \"Insufficient accumulated difficulty in header chain\"\n        );\n    }\n\n    /// @notice                 Syntactically check an SPV proof for a bitcoin tx\n    /// @dev                    Stateless SPV Proof verification documented elsewhere\n    /// @param _d               deposit storage pointer\n    /// @param  _bitcoinTx      The bitcoin tx that is purportedly included in the header chain\n    /// @param  _merkleProof    The merkle proof of inclusion of the tx in the bitcoin block\n    /// @param  _index          The index of the tx in the Bitcoin block (1-indexed)\n    /// @param  _bitcoinHeaders An array of tightly-packed bitcoin headers\n    /// @return                 The 32 byte transaction id (little-endian, not block-explorer)\n    function checkProof(\n        Deposit storage _d,\n        bytes _bitcoinTx,\n        bytes _merkleProof,\n        uint256 _index,\n        bytes _bitcoinHeaders\n    ) public view returns (bytes32) {\n        bytes memory _nIns;\n        bytes memory _ins;\n        bytes memory _nOuts;\n        bytes memory _outs;\n        bytes memory _locktime;\n        bytes32 _txid;\n        (_nIns, _ins, _nOuts, _outs, _locktime, _txid) = _bitcoinTx.parseTransaction();\n        require(_txid != bytes32(0), \"Failed tx parsing\");\n        require(\n            _txid.prove(\n                _bitcoinHeaders.extractMerkleRootLE().toBytes32(),\n                _merkleProof,\n                _index),\n            \"Tx merkle proof is not valid for provided header and tx\");\n\n        evaluateProofDifficulty(_d, _bitcoinHeaders);\n\n        return _txid;\n    }\n\n    /// @notice     Calculates the amount of value at auction right now\n    /// @dev        We calculate the % of the auction that has elapsed, then scale the value up\n    /// @param _d   deposit storage pointer\n    /// @return     the value to distribute in the auction at the current time\n    function auctionValue(Deposit storage _d) public view returns (uint256) {\n        uint256 _elapsed = block.timestamp.sub(_d.liquidationInitiated);\n        uint256 _available = address(this).balance;\n        if (_elapsed > TBTCConstants.getAuctionDuration()) {\n            return _available;\n        }\n\n        // This should make a smooth flow from base% to 100%\n        uint256 _basePercentage = TBTCConstants.getAuctionBasePercentage();\n        uint256 _elapsedPercentage = uint256(100).sub(_basePercentage).mul(_elapsed).div(TBTCConstants.getAuctionDuration());\n        uint256 _percentage = _basePercentage + _elapsedPercentage;\n\n        return _available.mul(_percentage).div(100);\n    }\n\n    /// @notice         Determines the fees due to the signers for work performeds\n    /// @dev            Signers are paid based on the TBTC issued\n    /// @return         Accumulated fees in smallest TBTC unit (tsat)\n    function signerFee() public pure returns (uint256) {\n        return TBTCConstants.getLotSize().div(TBTCConstants.getSignerFeeDivisor());\n    }\n\n    /// @notice     calculates the beneficiary reward based on the deposit size\n    /// @dev        the amount of extra ether to pay the beneficiary at closing time\n    /// @return     the amount of ether in wei to pay the beneficiary\n    function beneficiaryReward() public pure returns (uint256) {\n        return TBTCConstants.getLotSize().div(TBTCConstants.getBeneficiaryRewardDivisor());\n    }\n\n    /// @notice         Determines the amount of TBTC paid to redeem the deposit\n    /// @dev            This is the amount of TBTC needed to repay to redeem the Deposit\n    /// @return         Outstanding debt in smallest TBTC unit (tsat)\n    function redemptionTBTCAmount(Deposit storage _d) public view returns (uint256) {\n        if (_d.requesterAddress == address(0)) {\n            return TBTCConstants.getLotSize().add(signerFee()).add(beneficiaryReward());\n        } else {\n            return 0;\n        }\n    }\n\n    /// @notice     Determines the amount of TBTC accepted in the auction\n    /// @dev        If requesterAddress is non-0, that means we came from redemption, and no auction should happen\n    /// @return     The amount of TBTC that must be paid at auction for the signer's bond\n    function auctionTBTCAmount(Deposit storage _d) public view returns (uint256) {\n        if (_d.requesterAddress == address(0)) {\n            return TBTCConstants.getLotSize();\n        } else {\n            return 0;\n        }\n    }\n\n    /// @notice             Determines the prefix to the compressed public key\n    /// @dev                The prefix encodes the parity of the Y coordinate\n    /// @param  _pubkeyY    The Y coordinate of the public key\n    /// @return             The 1-byte prefix for the compressed key\n    function determineCompressionPrefix(bytes32 _pubkeyY) public pure returns (bytes) {\n        if(uint256(_pubkeyY) & 1 == 1) {\n            return hex\"03\";  // Odd Y\n        } else {\n            return hex\"02\";  // Even Y\n        }\n    }\n\n    /// @notice             Compresses a public key\n    /// @dev                Converts the 64-byte key to a 33-byte key, bitcoin-style\n    /// @param  _pubkeyX    The X coordinate of the public key\n    /// @param  _pubkeyY    The Y coordinate of the public key\n    /// @return             The 33-byte compressed pubkey\n    function compressPubkey(bytes32 _pubkeyX, bytes32 _pubkeyY) public pure returns (bytes) {\n        return abi.encodePacked(determineCompressionPrefix(_pubkeyY), _pubkeyX);\n    }\n\n    /// @notice         Returns the packed public key (64 bytes) for the signing group\n    /// @dev            We store it as 2 bytes32, (2 slots) then repack it on demand\n    /// @return         64 byte public key\n    function signerPubkey(Deposit storage _d) public view returns (bytes) {\n        return abi.encodePacked(_d.signingGroupPubkeyX, _d.signingGroupPubkeyY);\n    }\n\n    /// @notice         Returns the Bitcoin pubkeyhash (hash160) for the signing group\n    /// @dev            This is used in bitcoin output scripts for the signers\n    /// @return         20-bytes public key hash\n    function signerPKH(Deposit storage _d) public view returns (bytes20) {\n        bytes memory _pubkey = compressPubkey(_d.signingGroupPubkeyX, _d.signingGroupPubkeyY);\n        bytes memory _digest = _pubkey.hash160();\n        return bytes20(_digest.toAddress(0));  // dirty solidity hack\n    }\n\n    /// @notice         Returns the size of the deposit UTXO in satoshi\n    /// @dev            We store the deposit as bytes8 to make signature checking easier\n    /// @return         UTXO value in satoshi\n    function utxoSize(Deposit storage _d) public view returns (uint256) {\n        return bytes8LEToUint(_d.utxoSizeBytes);\n    }\n\n    /// @notice     Gets the current oracle price of Bitcoin in Ether\n    /// @dev        Polls the oracle via the system contract\n    /// @return     The current price of 1 sat in wei\n    function fetchOraclePrice(Deposit storage _d) public view returns (uint256) {\n        ITBTCSystem _sys = ITBTCSystem(_d.TBTCSystem);\n        return _sys.fetchOraclePrice();\n    }\n\n    /// @notice     Fetches the Keep's bond amount in wei\n    /// @dev        Calls the keep contract to do so\n    /// @return     The amount of bonded ETH in wei\n    function fetchBondAmount(Deposit storage _d) public view returns (uint256) {\n        IKeep _keep = IKeep(_d.KeepBridge);\n        return _keep.checkBondAmount(_d.keepID);\n    }\n\n    /// @notice         Convert a LE bytes8 to a uint256\n    /// @dev            Do this by converting to bytes, then reversing endianness, then converting to int\n    /// @return         The uint256 represented in LE by the bytes8\n    function bytes8LEToUint(bytes8 _b) public pure returns (uint256) {\n        return abi.encodePacked(_b).reverseEndianness().bytesToUint();\n    }\n\n    /// @notice         determines whether a digest has been approved for our keep group\n    /// @dev            calls out to the keep contract, storing a 256bit int costs the same as a bool\n    /// @param  _digest the digest to check approval time for\n    /// @return         the time it was approved. 0 if unapproved\n    function wasDigestApprovedForSigning(Deposit storage _d, bytes32 _digest) public view returns (uint256) {\n        IKeep _keep = IKeep(_d.KeepBridge);\n        return _keep.wasDigestApprovedForSigning(_d.keepID, _digest);\n    }\n\n    /// @notice         Looks up the deposit beneficiary by calling the tBTC system\n    /// @dev            We cast the address to a uint256 to match the 721 standard\n    /// @return         The current deposit beneficiary\n    function depositBeneficiary(Deposit storage _d) public view returns (address) {\n        IERC721 _systemContract = IERC721(_d.TBTCSystem);\n        return _systemContract.ownerOf(uint256(address(this)));\n    }\n\n    /// @notice     Deletes state after termination of redemption process\n    /// @dev        We keep around the requester address so we can pay them out\n    function redemptionTeardown(Deposit storage _d) public {\n        // don't 0 requesterAddress because we use it to calculate auctionTBTCAmount\n        _d.requesterPKH = bytes20(0);\n        _d.initialRedemptionFee = 0;\n        _d.withdrawalRequestTime = 0;\n        _d.lastRequestedDigest = bytes32(0);\n    }\n\n    /// @notice     Seize the signer bond from the keep contract\n    /// @dev        we check our balance before and after\n    /// @return     the amount of ether seized\n    function seizeSignerBonds(Deposit storage _d) public returns (uint256) {\n        uint256 _preCallBalance = address(this).balance;\n        IKeep _keep = IKeep(_d.KeepBridge);\n        _keep.seizeSignerBonds(_d.keepID);\n        uint256 _postCallBalance = address(this).balance;\n        require(_postCallBalance > _preCallBalance, \"No funds received, unexpected\");\n        return _postCallBalance.sub(_preCallBalance);\n    }\n\n    /// @notice     Distributes the beneficiary reward to the beneficiary\n    /// @dev        We distribute the whole TBTC balance as a convenience,\n    ///             whenever this is called we are shutting down.\n    function distributeBeneficiaryReward(Deposit storage _d) public {\n        IBurnableERC20 _tbtc = IBurnableERC20(_d.TBTCToken);\n        /* solium-disable-next-line */\n        require(_tbtc.transfer(depositBeneficiary(_d), beneficiaryReward()));\n    }\n\n    /// @notice             pushes ether held by the deposit to the signer group\n    /// @dev                useful for returning bonds to the group, or otherwise paying them\n    /// @param  _ethValue   the amount of ether to send\n    /// @return             true if successful, otherwise revert\n    function pushFundsToKeepGroup(Deposit storage _d, uint256 _ethValue) public returns (bool) {\n        require(address(this).balance >= _ethValue, \"Not enough funds to send\");\n        IKeep _keep = IKeep(_d.KeepBridge);\n        return _keep.distributeEthToKeepGroup.value(_ethValue)(_d.keepID);\n    }\n}\n",
  "sourcePath": "/Users/liamz/go/src/github.com/keep-network/tbtc/implementation/contracts/deposit/DepositUtils.sol",
  "compiler": {
    "name": "solc",
    "version": "0.4.25+commit.59dbf8f1.Emscripten.clang"
  },
  "schemaVersion": "3.0.10",
  "updatedAt": "2019-07-19T12:16:35.577Z",
  "devdoc": {
    "methods": {
      "auctionTBTCAmount(DepositUtils.Deposit storage)": {
        "details": "If requesterAddress is non-0, that means we came from redemption, and no auction should happen",
        "return": "The amount of TBTC that must be paid at auction for the signer's bond"
      },
      "auctionValue(DepositUtils.Deposit storage)": {
        "details": "We calculate the % of the auction that has elapsed, then scale the value up",
        "params": {
          "_d": "deposit storage pointer"
        },
        "return": "the value to distribute in the auction at the current time"
      },
      "beneficiaryReward()": {
        "details": "the amount of extra ether to pay the beneficiary at closing time",
        "return": "the amount of ether in wei to pay the beneficiary"
      },
      "bytes8LEToUint(bytes8)": {
        "details": "Do this by converting to bytes, then reversing endianness, then converting to int",
        "return": "The uint256 represented in LE by the bytes8"
      },
      "checkProof(DepositUtils.Deposit storage,bytes,bytes,uint256,bytes)": {
        "details": "Stateless SPV Proof verification documented elsewhere",
        "params": {
          "_bitcoinHeaders": "An array of tightly-packed bitcoin headers",
          "_bitcoinTx": "The bitcoin tx that is purportedly included in the header chain",
          "_d": "deposit storage pointer",
          "_index": "The index of the tx in the Bitcoin block (1-indexed)",
          "_merkleProof": "The merkle proof of inclusion of the tx in the bitcoin block"
        },
        "return": "The 32 byte transaction id (little-endian, not block-explorer)"
      },
      "compressPubkey(bytes32,bytes32)": {
        "details": "Converts the 64-byte key to a 33-byte key, bitcoin-style",
        "params": {
          "_pubkeyX": "The X coordinate of the public key",
          "_pubkeyY": "The Y coordinate of the public key"
        },
        "return": "The 33-byte compressed pubkey"
      },
      "currentBlockDifficulty(DepositUtils.Deposit storage)": {
        "details": "Calls the light relay and gets the current block difficulty",
        "return": "The difficulty"
      },
      "depositBeneficiary(DepositUtils.Deposit storage)": {
        "details": "We cast the address to a uint256 to match the 721 standard",
        "return": "The current deposit beneficiary"
      },
      "determineCompressionPrefix(bytes32)": {
        "details": "The prefix encodes the parity of the Y coordinate",
        "params": {
          "_pubkeyY": "The Y coordinate of the public key"
        },
        "return": "The 1-byte prefix for the compressed key"
      },
      "distributeBeneficiaryReward(DepositUtils.Deposit storage)": {
        "details": "We distribute the whole TBTC balance as a convenience,             whenever this is called we are shutting down."
      },
      "evaluateProofDifficulty(DepositUtils.Deposit storage,bytes)": {
        "details": "Uses the light oracle to source recent difficulty",
        "params": {
          "_bitcoinHeaders": "The header chain to evaluate"
        },
        "return": "True if acceptable, otherwise revert"
      },
      "fetchBondAmount(DepositUtils.Deposit storage)": {
        "details": "Calls the keep contract to do so",
        "return": "The amount of bonded ETH in wei"
      },
      "fetchOraclePrice(DepositUtils.Deposit storage)": {
        "details": "Polls the oracle via the system contract",
        "return": "The current price of 1 sat in wei"
      },
      "previousBlockDifficulty(DepositUtils.Deposit storage)": {
        "details": "Calls the light relay and gets the previous block difficulty",
        "return": "The difficulty"
      },
      "pushFundsToKeepGroup(DepositUtils.Deposit storage,uint256)": {
        "details": "useful for returning bonds to the group, or otherwise paying them",
        "params": {
          "_ethValue": "the amount of ether to send"
        },
        "return": "true if successful, otherwise revert"
      },
      "redemptionTBTCAmount(DepositUtils.Deposit storage)": {
        "details": "This is the amount of TBTC needed to repay to redeem the Deposit",
        "return": "Outstanding debt in smallest TBTC unit (tsat)"
      },
      "redemptionTeardown(DepositUtils.Deposit storage)": {
        "details": "We keep around the requester address so we can pay them out"
      },
      "seizeSignerBonds(DepositUtils.Deposit storage)": {
        "details": "we check our balance before and after",
        "return": "the amount of ether seized"
      },
      "signerFee()": {
        "details": "Signers are paid based on the TBTC issued",
        "return": "Accumulated fees in smallest TBTC unit (tsat)"
      },
      "signerPKH(DepositUtils.Deposit storage)": {
        "details": "This is used in bitcoin output scripts for the signers",
        "return": "20-bytes public key hash"
      },
      "signerPubkey(DepositUtils.Deposit storage)": {
        "details": "We store it as 2 bytes32, (2 slots) then repack it on demand",
        "return": "64 byte public key"
      },
      "utxoSize(DepositUtils.Deposit storage)": {
        "details": "We store the deposit as bytes8 to make signature checking easier",
        "return": "UTXO value in satoshi"
      },
      "wasDigestApprovedForSigning(DepositUtils.Deposit storage,bytes32)": {
        "details": "calls out to the keep contract, storing a 256bit int costs the same as a bool",
        "params": {
          "_digest": "the digest to check approval time for"
        },
        "return": "the time it was approved. 0 if unapproved"
      }
    }
  },
  "userdoc": {
    "methods": {
      "auctionTBTCAmount(DepositUtils.Deposit storage)": {
        "notice": "Determines the amount of TBTC accepted in the auction"
      },
      "auctionValue(DepositUtils.Deposit storage)": {
        "notice": "Calculates the amount of value at auction right now"
      },
      "beneficiaryReward()": {
        "notice": "calculates the beneficiary reward based on the deposit size"
      },
      "bytes8LEToUint(bytes8)": {
        "notice": "Convert a LE bytes8 to a uint256"
      },
      "checkProof(DepositUtils.Deposit storage,bytes,bytes,uint256,bytes)": {
        "notice": "Syntactically check an SPV proof for a bitcoin tx"
      },
      "compressPubkey(bytes32,bytes32)": {
        "notice": "Compresses a public key"
      },
      "currentBlockDifficulty(DepositUtils.Deposit storage)": {
        "notice": "Gets the current block difficulty"
      },
      "depositBeneficiary(DepositUtils.Deposit storage)": {
        "notice": "Looks up the deposit beneficiary by calling the tBTC system"
      },
      "determineCompressionPrefix(bytes32)": {
        "notice": "Determines the prefix to the compressed public key"
      },
      "distributeBeneficiaryReward(DepositUtils.Deposit storage)": {
        "notice": "Distributes the beneficiary reward to the beneficiary"
      },
      "evaluateProofDifficulty(DepositUtils.Deposit storage,bytes)": {
        "notice": "Evaluates the header difficulties in a proof"
      },
      "fetchBondAmount(DepositUtils.Deposit storage)": {
        "notice": "Fetches the Keep's bond amount in wei"
      },
      "fetchOraclePrice(DepositUtils.Deposit storage)": {
        "notice": "Gets the current oracle price of Bitcoin in Ether"
      },
      "previousBlockDifficulty(DepositUtils.Deposit storage)": {
        "notice": "Gets the previous block difficulty"
      },
      "pushFundsToKeepGroup(DepositUtils.Deposit storage,uint256)": {
        "notice": "pushes ether held by the deposit to the signer group"
      },
      "redemptionTBTCAmount(DepositUtils.Deposit storage)": {
        "notice": "Determines the amount of TBTC paid to redeem the deposit"
      },
      "redemptionTeardown(DepositUtils.Deposit storage)": {
        "notice": "Deletes state after termination of redemption process"
      },
      "seizeSignerBonds(DepositUtils.Deposit storage)": {
        "notice": "Seize the signer bond from the keep contract"
      },
      "signerFee()": {
        "notice": "Determines the fees due to the signers for work performeds"
      },
      "signerPKH(DepositUtils.Deposit storage)": {
        "notice": "Returns the Bitcoin pubkeyhash (hash160) for the signing group"
      },
      "signerPubkey(DepositUtils.Deposit storage)": {
        "notice": "Returns the packed public key (64 bytes) for the signing group"
      },
      "utxoSize(DepositUtils.Deposit storage)": {
        "notice": "Returns the size of the deposit UTXO in satoshi"
      },
      "wasDigestApprovedForSigning(DepositUtils.Deposit storage,bytes32)": {
        "notice": "determines whether a digest has been approved for our keep group"
      }
    }
  }
}