{
  "contractName": "OutsourceDepositLogging",
  "abi": [
    {
      "constant": false,
      "inputs": [
        {
          "name": "_d",
          "type": "DepositUtils.Deposit storage"
        },
        {
          "name": "_keepID",
          "type": "uint256"
        }
      ],
      "name": "logCreated",
      "outputs": [],
      "payable": false,
      "stateMutability": "nonpayable",
      "type": "function"
    },
    {
      "constant": false,
      "inputs": [
        {
          "name": "_d",
          "type": "DepositUtils.Deposit storage"
        },
        {
          "name": "_requester",
          "type": "address"
        },
        {
          "name": "_digest",
          "type": "bytes32"
        },
        {
          "name": "_utxoSize",
          "type": "uint256"
        },
        {
          "name": "_requesterPKH",
          "type": "bytes20"
        },
        {
          "name": "_requestedFee",
          "type": "uint256"
        },
        {
          "name": "_outpoint",
          "type": "bytes"
        }
      ],
      "name": "logRedemptionRequested",
      "outputs": [],
      "payable": false,
      "stateMutability": "nonpayable",
      "type": "function"
    },
    {
      "constant": false,
      "inputs": [
        {
          "name": "_d",
          "type": "DepositUtils.Deposit storage"
        },
        {
          "name": "_digest",
          "type": "bytes32"
        },
        {
          "name": "_r",
          "type": "bytes32"
        },
        {
          "name": "_s",
          "type": "bytes32"
        }
      ],
      "name": "logGotRedemptionSignature",
      "outputs": [],
      "payable": false,
      "stateMutability": "nonpayable",
      "type": "function"
    },
    {
      "constant": false,
      "inputs": [
        {
          "name": "_d",
          "type": "DepositUtils.Deposit storage"
        },
        {
          "name": "_signingGroupPubkeyX",
          "type": "bytes32"
        },
        {
          "name": "_signingGroupPubkeyY",
          "type": "bytes32"
        }
      ],
      "name": "logRegisteredPubkey",
      "outputs": [],
      "payable": false,
      "stateMutability": "nonpayable",
      "type": "function"
    },
    {
      "constant": false,
      "inputs": [
        {
          "name": "_d",
          "type": "DepositUtils.Deposit storage"
        }
      ],
      "name": "logSetupFailed",
      "outputs": [],
      "payable": false,
      "stateMutability": "nonpayable",
      "type": "function"
    },
    {
      "constant": false,
      "inputs": [
        {
          "name": "_d",
          "type": "DepositUtils.Deposit storage"
        }
      ],
      "name": "logFraudDuringSetup",
      "outputs": [],
      "payable": false,
      "stateMutability": "nonpayable",
      "type": "function"
    },
    {
      "constant": false,
      "inputs": [
        {
          "name": "_d",
          "type": "DepositUtils.Deposit storage"
        }
      ],
      "name": "logFunded",
      "outputs": [],
      "payable": false,
      "stateMutability": "nonpayable",
      "type": "function"
    },
    {
      "constant": false,
      "inputs": [
        {
          "name": "_d",
          "type": "DepositUtils.Deposit storage"
        }
      ],
      "name": "logCourtesyCalled",
      "outputs": [],
      "payable": false,
      "stateMutability": "nonpayable",
      "type": "function"
    },
    {
      "constant": false,
      "inputs": [
        {
          "name": "_d",
          "type": "DepositUtils.Deposit storage"
        },
        {
          "name": "_wasFraud",
          "type": "bool"
        }
      ],
      "name": "logStartedLiquidation",
      "outputs": [],
      "payable": false,
      "stateMutability": "nonpayable",
      "type": "function"
    },
    {
      "constant": false,
      "inputs": [
        {
          "name": "_d",
          "type": "DepositUtils.Deposit storage"
        },
        {
          "name": "_txid",
          "type": "bytes32"
        }
      ],
      "name": "logRedeemed",
      "outputs": [],
      "payable": false,
      "stateMutability": "nonpayable",
      "type": "function"
    },
    {
      "constant": false,
      "inputs": [
        {
          "name": "_d",
          "type": "DepositUtils.Deposit storage"
        }
      ],
      "name": "logLiquidated",
      "outputs": [],
      "payable": false,
      "stateMutability": "nonpayable",
      "type": "function"
    },
    {
      "constant": false,
      "inputs": [
        {
          "name": "_d",
          "type": "DepositUtils.Deposit storage"
        }
      ],
      "name": "logExitedCourtesyCall",
      "outputs": [],
      "payable": false,
      "stateMutability": "nonpayable",
      "type": "function"
    }
  ],
  "bytecode": "0x61088d610030600b82828239805160001a6073146000811461002057610022565bfe5b5030600052607381538281f30073000000000000000000000000000000000000000030146080604052600436106100d05763ffffffff7c010000000000000000000000000000000000000000000000000000000060003504166309d65d2481146100d5578063161c9a75146100ef5780632a2542e41461010757806332e42f2d1461011f5780634a799278146101375780635593d348146101555780635cba3438146101a55780639e9b7636146101c2578063b2d230b0146101e3578063cac90dc3146101fe578063cebb22f514610219578063e35227b814610231575b600080fd5b8180156100e157600080fd5b506100ed600435610249565b005b8180156100fb57600080fd5b506100ed6004356102d9565b81801561011357600080fd5b506100ed600435610339565b81801561012b57600080fd5b506100ed600435610399565b81801561014357600080fd5b506100ed6004356024356044356103f9565b81801561016157600080fd5b506100ed600480359060248035600160a060020a03169160443591606435916084356bffffffffffffffffffffffff19169160a4359160c435918201910135610499565b8180156101b157600080fd5b506100ed6004356024351515610592565b8180156101ce57600080fd5b506100ed60043560243560443560643561062b565b8180156101ef57600080fd5b506100ed6004356024356106d3565b81801561020a57600080fd5b506100ed60043560243561073a565b81801561022557600080fd5b506100ed6004356107a1565b81801561023d57600080fd5b506100ed600435610801565b8054604080517fe2c50ad80000000000000000000000000000000000000000000000000000000081529051600160a060020a0390921691829163e2c50ad89160048083019260209291908290030181600087803b1580156102a957600080fd5b505af11580156102bd573d6000803e3d6000fd5b505050506040513d60208110156102d357600080fd5b50505050565b8054604080517f8c7365030000000000000000000000000000000000000000000000000000000081529051600160a060020a03909216918291638c7365039160048083019260209291908290030181600087803b1580156102a957600080fd5b8054604080517f22e5724c0000000000000000000000000000000000000000000000000000000081529051600160a060020a039092169182916322e5724c9160048083019260209291908290030181600087803b1580156102a957600080fd5b8054604080517fc8fba2430000000000000000000000000000000000000000000000000000000081529051600160a060020a0390921691829163c8fba2439160048083019260209291908290030181600087803b1580156102a957600080fd5b8254604080517f869f946900000000000000000000000000000000000000000000000000000000815260048101859052602481018490529051600160a060020a0390921691829163869f94699160448083019260209291908290030181600087803b15801561046757600080fd5b505af115801561047b573d6000803e3d6000fd5b505050506040513d602081101561049157600080fd5b505050505050565b87546040517f2b8af661000000000000000000000000000000000000000000000000000000008152600160a060020a0389811660048301908152602483018a9052604483018990526bffffffffffffffffffffffff19881660648401526084830187905260c060a4840190815260c4840186905291909316928392632b8af661928c928c928c928c928c928c928c929160e401848480828437820191505098505050505050505050602060405180830381600087803b15801561055b57600080fd5b505af115801561056f573d6000803e3d6000fd5b505050506040513d602081101561058557600080fd5b5050505050505050505050565b8154604080517f3aac346700000000000000000000000000000000000000000000000000000000815283151560048201529051600160a060020a03909216918291633aac34679160248083019260209291908290030181600087803b1580156105fa57600080fd5b505af115801561060e573d6000803e3d6000fd5b505050506040513d602081101561062457600080fd5b5050505050565b8354604080517ff760621e0000000000000000000000000000000000000000000000000000000081526004810186905260248101859052604481018490529051600160a060020a0390921691829163f760621e9160648083019260209291908290030181600087803b1580156106a057600080fd5b505af11580156106b4573d6000803e3d6000fd5b505050506040513d60208110156106ca57600080fd5b50505050505050565b8154604080517f6e1ba283000000000000000000000000000000000000000000000000000000008152600481018490529051600160a060020a03909216918291636e1ba2839160248083019260209291908290030181600087803b1580156105fa57600080fd5b8154604080517f7e8ece3f000000000000000000000000000000000000000000000000000000008152600481018490529051600160a060020a03909216918291637e8ece3f9160248083019260209291908290030181600087803b1580156105fa57600080fd5b8054604080517fa831c8160000000000000000000000000000000000000000000000000000000081529051600160a060020a0390921691829163a831c8169160048083019260209291908290030181600087803b1580156102a957600080fd5b8054604080517f22a147e60000000000000000000000000000000000000000000000000000000081529051600160a060020a039092169182916322a147e69160048083019260209291908290030181600087803b1580156102a957600080fd00a165627a7a72305820812579c1c122e75c9cbea8ad68ef8c535578e05bf1a37596b13fc8a2ed769c530029",
  "source": "pragma solidity 0.4.25;\n\nimport {DepositLog} from \"../DepositLog.sol\";\nimport {DepositUtils} from \"./DepositUtils.sol\";\n\nlibrary OutsourceDepositLogging {\n\n\n    /// @notice             Fires a Created event\n    /// @dev                We append the sender, which is the deposit contract that called\n    /// @param  _keepID     The ID of the associated keep request\n    function logCreated(DepositUtils.Deposit storage _d, uint256 _keepID) external {\n        DepositLog _logger = DepositLog(_d.TBTCSystem);\n        _logger.logCreated(_keepID);\n    }\n\n    /// @notice                 Fires a RedemptionRequested event\n    /// @dev                    This is the only event without an explicit timestamp\n    /// @param  _requester      The ethereum address of the requester\n    /// @param  _digest         The calculated sighash digest\n    /// @param  _utxoSize       The size of the utxo in sat\n    /// @param  _requesterPKH   The requester's 20-byte bitcoin pkh\n    /// @param  _requestedFee   The requester or bump-system specified fee\n    /// @param  _outpoint       The 36 byte outpoint\n    /// @return                 True if successful, else revert\n    function logRedemptionRequested(\n        DepositUtils.Deposit storage _d,\n        address _requester,\n        bytes32 _digest,\n        uint256 _utxoSize,\n        bytes20 _requesterPKH,\n        uint256 _requestedFee,\n        bytes _outpoint\n    ) external {\n        DepositLog _logger = DepositLog(_d.TBTCSystem);\n        _logger.logRedemptionRequested(\n            _requester,\n            _digest,\n            _utxoSize,\n            _requesterPKH,\n            _requestedFee,\n            _outpoint);\n    }\n\n    /// @notice         Fires a GotRedemptionSignature event\n    /// @dev            We append the sender, which is the deposit contract that called\n    /// @param  _digest signed digest\n    /// @param  _r      signature r value\n    /// @param  _s      signature s value\n    /// @return         True if successful, else revert\n    function logGotRedemptionSignature(\n        DepositUtils.Deposit storage _d,\n        bytes32 _digest,\n        bytes32 _r,\n        bytes32 _s\n    ) external {\n        DepositLog _logger = DepositLog(_d.TBTCSystem);\n        _logger.logGotRedemptionSignature(\n            _digest,\n            _r,\n            _s\n        );\n    }\n\n    /// @notice     Fires a RegisteredPubkey event\n    /// @dev        The logger is on a system contract, so all logs from all deposits are from the smae addres\n    function logRegisteredPubkey(\n        DepositUtils.Deposit storage _d,\n        bytes32 _signingGroupPubkeyX,\n        bytes32 _signingGroupPubkeyY\n    ) external {\n        DepositLog _logger = DepositLog(_d.TBTCSystem);\n        _logger.logRegisteredPubkey(\n            _signingGroupPubkeyX,\n            _signingGroupPubkeyY);\n    }\n\n    /// @notice     Fires a SetupFailed event\n    /// @dev        The logger is on a system contract, so all logs from all deposits are from the smae addres\n    function logSetupFailed(DepositUtils.Deposit storage _d) external {\n        DepositLog _logger = DepositLog(_d.TBTCSystem);\n        _logger.logSetupFailed();\n    }\n\n    /// @notice     Fires a FraudDuringSetup event\n    /// @dev        The logger is on a system contract, so all logs from all deposits are from the smae addres\n    function logFraudDuringSetup(DepositUtils.Deposit storage _d) external {\n        DepositLog _logger = DepositLog(_d.TBTCSystem);\n        _logger.logFraudDuringSetup();\n    }\n\n    /// @notice     Fires a Funded event\n    /// @dev        The logger is on a system contract, so all logs from all deposits are from the smae addres\n    function logFunded(DepositUtils.Deposit storage _d) external {\n        DepositLog _logger = DepositLog(_d.TBTCSystem);\n        _logger.logFunded();\n    }\n\n    /// @notice     Fires a CourtesyCalled event\n    /// @dev        The logger is on a system contract, so all logs from all deposits are from the smae addres\n    function logCourtesyCalled(DepositUtils.Deposit storage _d) external {\n        DepositLog _logger = DepositLog(_d.TBTCSystem);\n        _logger.logCourtesyCalled();\n    }\n\n    /// @notice             Fires a StartedLiquidation event\n    /// @dev                We append the sender, which is the deposit contract that called\n    /// @param _wasFraud    True if liquidating for fraud\n    function logStartedLiquidation(DepositUtils.Deposit storage _d, bool _wasFraud) external {\n        DepositLog _logger = DepositLog(_d.TBTCSystem);\n        _logger.logStartedLiquidation(_wasFraud);\n    }\n\n    /// @notice     Fires a Redeemed event\n    /// @dev        The logger is on a system contract, so all logs from all deposits are from the smae addres\n    function logRedeemed(DepositUtils.Deposit storage _d, bytes32 _txid) external {\n        DepositLog _logger = DepositLog(_d.TBTCSystem);\n        _logger.logRedeemed(_txid);\n    }\n\n    /// @notice     Fires a Liquidated event\n    /// @dev        The logger is on a system contract, so all logs from all deposits are from the smae addres\n    function logLiquidated(DepositUtils.Deposit storage _d) external {\n        DepositLog _logger = DepositLog(_d.TBTCSystem);\n        _logger.logLiquidated();\n    }\n\n    /// @notice     Fires a ExitedCourtesyCall event\n    /// @dev        The logger is on a system contract, so all logs from all deposits are from the smae addres\n    function logExitedCourtesyCall(DepositUtils.Deposit storage _d) external {\n        DepositLog _logger = DepositLog(_d.TBTCSystem);\n        _logger.logExitedCourtesyCall();\n    }\n}\n",
  "sourcePath": "/Users/liamz/go/src/github.com/keep-network/tbtc/implementation/contracts/deposit/OutsourceDepositLogging.sol",
  "compiler": {
    "name": "solc",
    "version": "0.4.25+commit.59dbf8f1.Emscripten.clang"
  },
  "schemaVersion": "3.0.10",
  "updatedAt": "2019-07-19T12:16:35.544Z",
  "devdoc": {
    "methods": {
      "logCourtesyCalled(DepositUtils.Deposit storage)": {
        "details": "The logger is on a system contract, so all logs from all deposits are from the smae addres"
      },
      "logCreated(DepositUtils.Deposit storage,uint256)": {
        "details": "We append the sender, which is the deposit contract that called",
        "params": {
          "_keepID": "The ID of the associated keep request"
        }
      },
      "logExitedCourtesyCall(DepositUtils.Deposit storage)": {
        "details": "The logger is on a system contract, so all logs from all deposits are from the smae addres"
      },
      "logFraudDuringSetup(DepositUtils.Deposit storage)": {
        "details": "The logger is on a system contract, so all logs from all deposits are from the smae addres"
      },
      "logFunded(DepositUtils.Deposit storage)": {
        "details": "The logger is on a system contract, so all logs from all deposits are from the smae addres"
      },
      "logGotRedemptionSignature(DepositUtils.Deposit storage,bytes32,bytes32,bytes32)": {
        "details": "We append the sender, which is the deposit contract that called",
        "params": {
          "_digest": "signed digest",
          "_r": "signature r value",
          "_s": "signature s value"
        },
        "return": "True if successful, else revert"
      },
      "logLiquidated(DepositUtils.Deposit storage)": {
        "details": "The logger is on a system contract, so all logs from all deposits are from the smae addres"
      },
      "logRedeemed(DepositUtils.Deposit storage,bytes32)": {
        "details": "The logger is on a system contract, so all logs from all deposits are from the smae addres"
      },
      "logRedemptionRequested(DepositUtils.Deposit storage,address,bytes32,uint256,bytes20,uint256,bytes)": {
        "details": "This is the only event without an explicit timestamp",
        "params": {
          "_digest": "The calculated sighash digest",
          "_outpoint": "The 36 byte outpoint",
          "_requestedFee": "The requester or bump-system specified fee",
          "_requester": "The ethereum address of the requester",
          "_requesterPKH": "The requester's 20-byte bitcoin pkh",
          "_utxoSize": "The size of the utxo in sat"
        },
        "return": "True if successful, else revert"
      },
      "logRegisteredPubkey(DepositUtils.Deposit storage,bytes32,bytes32)": {
        "details": "The logger is on a system contract, so all logs from all deposits are from the smae addres"
      },
      "logSetupFailed(DepositUtils.Deposit storage)": {
        "details": "The logger is on a system contract, so all logs from all deposits are from the smae addres"
      },
      "logStartedLiquidation(DepositUtils.Deposit storage,bool)": {
        "details": "We append the sender, which is the deposit contract that called",
        "params": {
          "_wasFraud": "True if liquidating for fraud"
        }
      }
    }
  },
  "userdoc": {
    "methods": {
      "logCourtesyCalled(DepositUtils.Deposit storage)": {
        "notice": "Fires a CourtesyCalled event"
      },
      "logCreated(DepositUtils.Deposit storage,uint256)": {
        "notice": "Fires a Created event"
      },
      "logExitedCourtesyCall(DepositUtils.Deposit storage)": {
        "notice": "Fires a ExitedCourtesyCall event"
      },
      "logFraudDuringSetup(DepositUtils.Deposit storage)": {
        "notice": "Fires a FraudDuringSetup event"
      },
      "logFunded(DepositUtils.Deposit storage)": {
        "notice": "Fires a Funded event"
      },
      "logGotRedemptionSignature(DepositUtils.Deposit storage,bytes32,bytes32,bytes32)": {
        "notice": "Fires a GotRedemptionSignature event"
      },
      "logLiquidated(DepositUtils.Deposit storage)": {
        "notice": "Fires a Liquidated event"
      },
      "logRedeemed(DepositUtils.Deposit storage,bytes32)": {
        "notice": "Fires a Redeemed event"
      },
      "logRedemptionRequested(DepositUtils.Deposit storage,address,bytes32,uint256,bytes20,uint256,bytes)": {
        "notice": "Fires a RedemptionRequested event"
      },
      "logRegisteredPubkey(DepositUtils.Deposit storage,bytes32,bytes32)": {
        "notice": "Fires a RegisteredPubkey event"
      },
      "logSetupFailed(DepositUtils.Deposit storage)": {
        "notice": "Fires a SetupFailed event"
      },
      "logStartedLiquidation(DepositUtils.Deposit storage,bool)": {
        "notice": "Fires a StartedLiquidation event"
      }
    }
  }
}