{
  "contractName": "SPVStore",
  "abi": [
    {
      "constant": true,
      "inputs": [
        {
          "name": "",
          "type": "bytes32"
        }
      ],
      "name": "transactions",
      "outputs": [
        {
          "name": "validationComplete",
          "type": "bool"
        },
        {
          "name": "txid",
          "type": "bytes32"
        },
        {
          "name": "locktime",
          "type": "uint32"
        },
        {
          "name": "numInputs",
          "type": "uint8"
        },
        {
          "name": "numOutputs",
          "type": "uint8"
        }
      ],
      "payable": false,
      "stateMutability": "view",
      "type": "function"
    },
    {
      "constant": true,
      "inputs": [
        {
          "name": "",
          "type": "bytes32"
        }
      ],
      "name": "headers",
      "outputs": [
        {
          "name": "digest",
          "type": "bytes32"
        },
        {
          "name": "version",
          "type": "uint32"
        },
        {
          "name": "prevHash",
          "type": "bytes32"
        },
        {
          "name": "merkleRoot",
          "type": "bytes32"
        },
        {
          "name": "timestamp",
          "type": "uint32"
        },
        {
          "name": "target",
          "type": "uint256"
        },
        {
          "name": "nonce",
          "type": "uint32"
        }
      ],
      "payable": false,
      "stateMutability": "view",
      "type": "function"
    },
    {
      "anonymous": false,
      "inputs": [
        {
          "indexed": true,
          "name": "_txid",
          "type": "bytes32"
        },
        {
          "indexed": true,
          "name": "_digest",
          "type": "bytes32"
        }
      ],
      "name": "Validated",
      "type": "event"
    },
    {
      "anonymous": false,
      "inputs": [
        {
          "indexed": true,
          "name": "_txid",
          "type": "bytes32"
        }
      ],
      "name": "TxStored",
      "type": "event"
    },
    {
      "anonymous": false,
      "inputs": [
        {
          "indexed": true,
          "name": "_digest",
          "type": "bytes32"
        }
      ],
      "name": "HeaderStored",
      "type": "event"
    },
    {
      "constant": false,
      "inputs": [
        {
          "name": "_txid",
          "type": "bytes32"
        },
        {
          "name": "_digest",
          "type": "bytes32"
        },
        {
          "name": "_proof",
          "type": "bytes"
        },
        {
          "name": "_index",
          "type": "uint256"
        }
      ],
      "name": "validate",
      "outputs": [
        {
          "name": "",
          "type": "bool"
        }
      ],
      "payable": false,
      "stateMutability": "nonpayable",
      "type": "function"
    },
    {
      "constant": false,
      "inputs": [
        {
          "name": "_tx",
          "type": "bytes"
        }
      ],
      "name": "parseAndStoreTransaction",
      "outputs": [
        {
          "name": "",
          "type": "bytes32"
        }
      ],
      "payable": false,
      "stateMutability": "nonpayable",
      "type": "function"
    },
    {
      "constant": false,
      "inputs": [
        {
          "name": "_header",
          "type": "bytes"
        }
      ],
      "name": "parseAndStoreHeader",
      "outputs": [
        {
          "name": "",
          "type": "bytes32"
        }
      ],
      "payable": false,
      "stateMutability": "nonpayable",
      "type": "function"
    },
    {
      "constant": true,
      "inputs": [
        {
          "name": "_txid",
          "type": "bytes32"
        },
        {
          "name": "_index",
          "type": "uint8"
        }
      ],
      "name": "getTransactionInput",
      "outputs": [
        {
          "name": "",
          "type": "uint32"
        },
        {
          "name": "",
          "type": "bytes32"
        },
        {
          "name": "",
          "type": "uint32"
        }
      ],
      "payable": false,
      "stateMutability": "view",
      "type": "function"
    },
    {
      "constant": true,
      "inputs": [
        {
          "name": "_txid",
          "type": "bytes32"
        },
        {
          "name": "_index",
          "type": "uint8"
        }
      ],
      "name": "getTransactionOutput",
      "outputs": [
        {
          "name": "",
          "type": "uint64"
        },
        {
          "name": "",
          "type": "uint8"
        },
        {
          "name": "",
          "type": "bytes"
        }
      ],
      "payable": false,
      "stateMutability": "view",
      "type": "function"
    }
  ],
  "bytecode": "0x608060405234801561001057600080fd5b50611699806100206000396000f3006080604052600436106100695763ffffffff60e060020a600035041663460d1e96811461006e578063642f2eaf146100e45780639e7f270014610134578063ca1c6e781461018f578063dfe7d61a1461024b578063e6a3d4b714610291578063f37786e9146102fc575b600080fd5b34801561007a57600080fd5b50604080516020600460443581810135601f81018490048402850184019095528484526100d094823594602480359536959460649492019190819084018382808284375094975050933594506103559350505050565b604080519115158252519081900360200190f35b3480156100f057600080fd5b506100fc6004356104e2565b604080519515158652602086019490945263ffffffff9092168484015260ff9081166060850152166080830152519081900360a00190f35b34801561014057600080fd5b5061014c600435610525565b6040805197885263ffffffff9687166020890152878101959095526060870193909352908416608086015260a085015290911660c0830152519081900360e00190f35b34801561019b57600080fd5b506101ad60043560ff6024351661056b565b60405167ffffffffffffffff84168152602081018360038111156101cd57fe5b60ff16815260200180602001828103825283818151815260200191508051906020019080838360005b8381101561020e5781810151838201526020016101f6565b50505050905090810190601f16801561023b5780820380516001836020036101000a031916815260200191505b5094505050505060405180910390f35b34801561025757600080fd5b5061026960043560ff6024351661064a565b6040805163ffffffff9485168152602081019390935292168183015290519081900360600190f35b34801561029d57600080fd5b506040805160206004803580820135601f81018490048402850184019095528484526102ea9436949293602493928401919081908401838280828437509497506106859650505050505050565b60408051918252519081900360200190f35b34801561030857600080fd5b506040805160206004803580820135601f81018490048402850184019095528484526102ea94369492936024939284019190819084018382808284375094975061083e9650505050505050565b6000838152600160205260408120541515610372575060006104da565b60008481526001602090815260408083206003015490517f31c03d0f00000000000000000000000000000000000000000000000000000000815260048101898152602482018390526064820187905260806044830190815288516084840152885173__ValidateSPV___________________________966331c03d0f968d96958c958c959094909360a4909201928701918190849084905b8381101561042257818101518382015260200161040a565b50505050905090810190601f16801561044f5780820380516001836020036101000a031916815260200191505b509550505050505060206040518083038186803b15801561046f57600080fd5b505af4158015610483573d6000803e3d6000fd5b505050506040513d602081101561049957600080fd5b505115156104a9575060006104da565b604051849086907f53ca427a92f72a57135ea947b5ec9feda4ab0da9b540258625cb96da70ac417390600090a35060015b949350505050565b60006020819052908152604090208054600182015460029092015460ff918216929163ffffffff8216916401000000008104821691650100000000009091041685565b6001602081905260009182526040909120805491810154600282015460038301546004840154600585015460069095015463ffffffff9485169593949293918316921687565b60008281526020818152604080832060ff8581168552600490910183528184208054600191820180548551601f600295831615610100026000190190921694909404908101879004870284018701909552848352869560609567ffffffffffffffff8416956801000000000000000090940490931693919283918301828280156106365780601f1061060b57610100808354040283529160200191610636565b820191906000526020600020905b81548152906001019060200180831161061957829003601f168201915b505050505090509250925092509250925092565b60009182526020828152604080842060ff9390931684526003909201905290208054600182015460029092015463ffffffff91821693911690565b6000806000806000806000808873__ValidateSPV___________________________6372464ca090916040518263ffffffff1660e060020a0281526004018080602001828103825283818151815260200191508051906020019080838360005b838110156106fd5781810151838201526020016106e5565b50505050905090810190601f16801561072a5780820380516001836020036101000a031916815260200191505b509250505060e06040518083038186803b15801561074757600080fd5b505af415801561075b573d6000803e3d6000fd5b505050506040513d60e081101561077157600080fd5b5080516020808301516040808501516060860151608087015160a088015160c0909801516000888152600197889052858120898155978801805463ffffffff808a1663ffffffff199283161790925560028a0187905560038a0186905560048a01805483871690831617905560058a018c90556006909901805491841691909916179097559351969e50939c50909a50985090965092945091925088917f427e146eb77f78634ac427a2df3843d7b1ac94e69f5012494f981569a1c275c191a25094979650505050505050565b6000606080606080606060008060008973__ValidateSPV___________________________636750d35b90916040518263ffffffff1660e060020a0281526004018080602001828103825283818151815260200191508051906020019080838360005b838110156108b95781810151838201526020016108a1565b50505050905090810190601f1680156108e65780820380516001836020036101000a031916815260200191505b509250505060006040518083038186803b15801561090357600080fd5b505af4158015610917573d6000803e3d6000fd5b505050506040513d6000823e601f3d908101601f1916820160405260c081101561094057600080fd5b81019080805164010000000081111561095857600080fd5b8201602081018481111561096b57600080fd5b815164010000000081118282018710171561098557600080fd5b505092919060200180516401000000008111156109a157600080fd5b820160208101848111156109b457600080fd5b81516401000000008111828201871017156109ce57600080fd5b505092919060200180516401000000008111156109ea57600080fd5b820160208101848111156109fd57600080fd5b8151640100000000811182820187101715610a1757600080fd5b50509291906020018051640100000000811115610a3357600080fd5b82016020810184811115610a4657600080fd5b8151640100000000811182820187101715610a6057600080fd5b50509291906020018051640100000000811115610a7c57600080fd5b82016020810184811115610a8f57600080fd5b8151640100000000811182820187101715610aa957600080fd5b505092919060200180519060200190929190505050809850819950829a50839b50849c50859d505050505050508773__BTCUtils______________________________6302d06d0590916040518263ffffffff1660e060020a0281526004018080602001828103825283818151815260200191508051906020019080838360005b83811015610b42578181015183820152602001610b2a565b50505050905090810190601f168015610b6f5780820380516001836020036101000a031916815260200191505b509250505060206040518083038186803b158015610b8c57600080fd5b505af4158015610ba0573d6000803e3d6000fd5b505050506040513d6020811015610bb657600080fd5b50516040517f02d06d0500000000000000000000000000000000000000000000000000000000815260206004820181815289516024840152895193955073__BTCUtils______________________________936302d06d05938b9383926044909201919085019080838360005b83811015610c3b578181015183820152602001610c23565b50505050905090810190601f168015610c685780820380516001836020036101000a031916815260200191505b509250505060206040518083038186803b158015610c8557600080fd5b505af4158015610c99573d6000803e3d6000fd5b505050506040513d6020811015610caf57600080fd5b50519050610cbe838b84610e97565b1515610cc957610e8a565b610cd4838b836111a3565b1515610cdf57610e8a565b600083815260208181526040808320600101869055517f02d06d050000000000000000000000000000000000000000000000000000000081526004810182815287516024830152875173__BTCUtils______________________________946302d06d05948a948493604490910192918601918190849084905b83811015610d71578181015183820152602001610d59565b50505050905090810190601f168015610d9e5780820380516001836020036101000a031916815260200191505b509250505060206040518083038186803b158015610dbb57600080fd5b505af4158015610dcf573d6000803e3d6000fd5b505050506040513d6020811015610de557600080fd5b5051600084815260208190526040808220600201805463ffffffff191663ffffffff9094169390931764ff00000000191664010000000060ff878116919091029190911765ff00000000001916650100000000009186169190910217909255905184917fbc486255f7a2e70f728566f3c2be0603333a32146da4332892c30a3cfeaf618291a26000838152602081905260409020805460ff1916600117905591975087915b5050505050505050919050565b6000610ea1611593565b60005b8360ff168160ff16101561119557604080517f98b979b400000000000000000000000000000000000000000000000000000000815260ff831660248201526004810191825286516044820152865173__BTCUtils______________________________926398b979b49289928692918291606490910190602086019080838360005b83811015610f3e578181015183820152602001610f26565b50505050905090810190601f168015610f6b5780820380516001836020036101000a031916815260200191505b50935050505060006040518083038186803b158015610f8957600080fd5b505af4158015610f9d573d6000803e3d6000fd5b505050506040513d6000823e601f3d908101601f191682016040526020811015610fc657600080fd5b810190808051640100000000811115610fde57600080fd5b82016020810184811115610ff157600080fd5b815164010000000081118282018710171561100b57600080fd5b50506040517f36e7ea2400000000000000000000000000000000000000000000000000000000815260206004820181815283516024840152835173__ValidateSPV___________________________97506336e7ea2496509394509283926044019185019080838360005b8381101561108e578181015183820152602001611076565b50505050905090810190601f1680156110bb5780820380516001836020036101000a031916815260200191505b509250505060606040518083038186803b1580156110d857600080fd5b505af41580156110ec573d6000803e3d6000fd5b505050506040513d606081101561110257600080fd5b50805160208083015160409384015163ffffffff90811694870194909452908501819052911683521515611139576000925061119a565b60008681526020818152604080832060ff851684526003018252918290208451815463ffffffff1990811663ffffffff928316178355928601516001808401919091559386015160029092018054909316911617905501610ea4565b600192505b50509392505050565b6000806111ae6115b3565b60005b8460ff168160ff16101561158457604080517e9941a600000000000000000000000000000000000000000000000000000000815260ff831660248201526004810191825287516044820152875173__BTCUtils______________________________92629941a6928a928692918291606490910190602086019080838360005b83811015611249578181015183820152602001611231565b50505050905090810190601f1680156112765780820380516001836020036101000a031916815260200191505b50935050505060006040518083038186803b15801561129457600080fd5b505af41580156112a8573d6000803e3d6000fd5b505050506040513d6000823e601f3d908101601f1916820160405260208110156112d157600080fd5b8101908080516401000000008111156112e957600080fd5b820160208101848111156112fc57600080fd5b815164010000000081118282018710171561131657600080fd5b50506040517fef21425b00000000000000000000000000000000000000000000000000000000815260206004820181815283516024840152835173__ValidateSPV___________________________975063ef21425b96509394509283926044019185019080838360005b83811015611399578181015183820152602001611381565b50505050905090810190601f1680156113c65780820380516001836020036101000a031916815260200191505b509250505060006040518083038186803b1580156113e357600080fd5b505af41580156113f7573d6000803e3d6000fd5b505050506040513d6000823e601f3d908101601f19168201604052606081101561142057600080fd5b815160208301516040840180519294919382019264010000000081111561144657600080fd5b8201602081018481111561145957600080fd5b815164010000000081118282018710171561147357600080fd5b5050604088015250505067ffffffffffffffff9091168352925060ff831615156114a05760009350611589565b8260ff16600114156114c8576020820160015b908160038111156114c057fe5b9052506114f3565b8260ff16600214156114df576020820160026114b3565b8260ff16600314156114f357600360208301525b60008781526020818152604080832060ff8516845260040182529091208351815467ffffffffffffffff191667ffffffffffffffff90911617808255918401518492829068ff000000000000000019166801000000000000000083600381111561155957fe5b0217905550604082015180516115799160018401916020909101906115d2565b5050506001016111b1565b600193505b5050509392505050565b604080516060810182526000808252602082018190529181019190915290565b6040805160608082018352600080835260208301529181019190915290565b828054600181600116156101000203166002900490600052602060002090601f016020900481019282601f1061161357805160ff1916838001178555611640565b82800160010185558215611640579182015b82811115611640578251825591602001919060010190611625565b5061164c929150611650565b5090565b61166a91905b8082111561164c5760008155600101611656565b905600a165627a7a723058208866e38c062b3e612506eab39efe4eafd9fcca728dce434818dcb2cbcd033a7d0029",
  "source": "pragma solidity 0.4.25;\n\n/** @title BitcoinSPVDemo */\n/** @author Summa (https://summa.one) */\n\nimport {ValidateSPV} from \"./ValidateSPV.sol\";\nimport {BTCUtils} from \"./BTCUtils.sol\";\nimport {BytesLib} from \"./BytesLib.sol\";\nimport {SafeMath} from \"./SafeMath.sol\";\n\n\ncontract SPVStore {\n\n    using ValidateSPV for bytes;\n    using ValidateSPV for bytes32;\n    using BTCUtils for bytes;\n    using BytesLib for bytes;\n    using SafeMath for uint256;\n\n    event Validated(bytes32 indexed _txid, bytes32 indexed _digest);\n    event TxStored(bytes32 indexed _txid);\n    event HeaderStored(bytes32 indexed _digest);\n\n    enum OutputTypes { NONE, WPKH, WSH, OP_RETURN }\n\n    struct TxIn {\n        uint32 sequence;            // 4 byte sequence number\n        bytes32 hash;               // 32 byte previous tx hash\n        uint32 index;               // 4 bytes index\n    }\n\n    struct TxOut {\n        uint64 value;               // 8 byte value\n        OutputTypes outputType;\n        bytes payload;              // pubkey hash, script hash, or OP_RETURN data\n    }\n\n    struct Transaction {\n        bool validationComplete;    // true if transaction is validated\n        bytes32 txid;               // 32 byte tx id, little endian\n        uint32 locktime;            // 4 byte locktime\n        uint8 numInputs;            // number tx inputs\n        uint8 numOutputs;           // number tx outputs\n        mapping (uint8 => TxIn) inputs;\n        mapping (uint8 => TxOut) outputs;\n    }\n\n    struct Header {\n        bytes32 digest;             // 32 byte little endian digest\n        uint32 version;             // 4 byte version\n        bytes32 prevHash;           // 32 byte previous block hash\n        bytes32 merkleRoot;         // 32 byte tx root\n        uint32 timestamp;           // 4 byte timestamp\n        uint256 target;             // 4 byte nBits == 32 byte integer\n        uint32 nonce;               // 4 byte nonce\n    }\n\n    mapping(bytes32 => Transaction) public transactions;    // Transactions\n    mapping(bytes32 => Header) public headers;              // Parsed headers\n\n    /// @notice             Validates tx inclusion in block\n    /// @param _txid        The transaction hash\n    /// @param _digest      The header hash\n    /// @param _proof       The raw byte proof (concatenated LE hashes)\n    /// @param _index       The index of the leaf\n    /// @return             true if fully valid, false otherwise\n    function validate( bytes32 _txid, bytes32 _digest, bytes _proof, uint _index) public returns (bool) {\n\n        // Return false if invalid proof\n        if (headers[_digest].digest == bytes32(0)) { return false; }\n        if (!_txid.prove(headers[_digest].merkleRoot, _proof, _index)) { return false; }\n\n        // Emit Validated event\n        emit Validated(_txid, _digest);\n\n        // Return true if valid proof\n        return true;\n    }\n\n    /// @notice         Parses a tx and stores to the mapping\n    /// @param _tx      The raw byte tx\n    /// @return         true if valid format, false otherwise\n    function parseAndStoreTransaction(bytes _tx) public returns (bytes32) {\n\n        bytes memory _nIns;\n        bytes memory _ins;\n        bytes memory _nOuts;\n        bytes memory _outs;\n        bytes memory _locktime;\n        bytes32 _txid;\n\n        (_nIns, _ins, _nOuts, _outs, _locktime, _txid) = _tx.parseTransaction();\n        uint8 _nInputs = uint8(_nIns.bytesToUint());\n        uint8 _nOutputs = uint8(_nOuts.bytesToUint());\n\n        // Parse and store inputs, if failed to parse or store then bubble up error\n        if (!parseAndStoreInputs(_txid, _tx, _nInputs)) { return; }\n\n        // Parse and store outputs, if failed to parse or store then bubble up error\n        if (!parseAndStoreOutputs(_txid, _tx, _nOutputs)) { return; }\n\n        // Store transaction data in mapping\n        transactions[_txid].txid = _txid;\n        transactions[_txid].locktime = uint32(_locktime.bytesToUint());\n        transactions[_txid].numInputs = _nInputs;\n        transactions[_txid].numOutputs = _nOutputs;\n\n        // Emit TxStored event\n        emit TxStored(_txid);\n\n        // Mark transaction validated\n        transactions[_txid].validationComplete = true;\n\n        // Return transaction hash\n        return _txid;\n    }\n\n    /// @notice             Parses a header and stores to the mapping\n    /// @param _header      The raw byte header\n    /// @return             true if valid format, false otherwise\n    function parseAndStoreHeader(bytes _header) public returns (bytes32) {\n\n        bytes32 _digest;\n        uint32 _version;\n        bytes32 _prevHash;\n        bytes32 _merkleRoot;\n        uint32 _timestamp;\n        uint256 _target;\n        uint32 _nonce;\n\n        (_digest, _version, _prevHash, _merkleRoot, _timestamp, _target, _nonce) = _header.parseHeader();\n\n        headers[_digest].digest = _digest;\n        headers[_digest].version = _version;\n        headers[_digest].prevHash = _prevHash;\n        headers[_digest].merkleRoot = _merkleRoot;\n        headers[_digest].timestamp = _timestamp;\n        headers[_digest].target = _target;\n        headers[_digest].nonce = _nonce;\n\n        // Emit HeaderStored event\n        emit HeaderStored(_digest);\n\n        // Return header digest\n        return _digest;\n    }\n\n    /// @notice             View stored transaction input variables\n    /// @param _txid        The transaction hash\n    /// @param _index       Input index to view\n    /// @return             Input sequence, hash, and index\n    function getTransactionInput(bytes32 _txid, uint8 _index) public view returns (uint32, bytes32, uint32) {\n        return (\n            transactions[_txid].inputs[_index].sequence,\n            transactions[_txid].inputs[_index].hash,\n            transactions[_txid].inputs[_index].index);\n    }\n\n    /// @notice             View stored transaction output variables\n    /// @param _txid        Transaction hash\n    /// @param _index       Output index to view\n    /// @return             Output valiue, type, and payload\n    function getTransactionOutput(bytes32 _txid, uint8 _index) public view returns (uint64, OutputTypes, bytes) {\n        return (\n            transactions[_txid].outputs[_index].value,\n            transactions[_txid].outputs[_index].outputType,\n            transactions[_txid].outputs[_index].payload);\n    }\n\n    /// @notice             Parses a tx's inputs and stores to the mapping\n    /// @param _txid        Transaction hash\n    /// @param _tx          Raw byte tx\n    /// @param _nInputs     Number of inputs\n    /// @return             true if valid format, false otherwise\n    function parseAndStoreInputs(bytes32 _txid, bytes _tx, uint8 _nInputs) internal returns (bool) {\n        TxIn memory _input;\n\n        for (uint8 i = 0; i < _nInputs; i++) {\n\n            (_input.sequence, _input.hash, _input.index) = _tx.extractInputAtIndex(i).parseInput();\n\n            // If invalid hash, return false\n            if (_input.hash == bytes32(0)) { return false; }\n\n            transactions[_txid].inputs[i] = _input;\n        }\n\n        return true;\n    }\n\n    /// @notice             Parses a tx's outputs and stores to the mapping\n    /// @param _txid        Transaction hash\n    /// @param _tx          Raw byte tx\n    /// @param _nOutputs    Number of outputs\n    /// @return             true if valid format, false otherwise\n    function parseAndStoreOutputs(bytes32 _txid, bytes _tx, uint8 _nOutputs) internal returns (bool) {\n        uint8 _outputType;\n        TxOut memory _output;\n\n        for (uint8 i = 0; i < _nOutputs; i++) {\n\n            (_output.value, _outputType, _output.payload) = _tx.extractOutputAtIndex(i).parseOutput();\n\n            // If unidentifiable output type, return false\n            if (_outputType == 0) { return false; }\n\n            if (_outputType == 1) {\n                _output.outputType = OutputTypes.WPKH;\n            } else if (_outputType == 2) {\n                _output.outputType = OutputTypes.WSH;\n            } else if (_outputType == 3) {\n                _output.outputType = OutputTypes.OP_RETURN;\n            }\n\n            transactions[_txid].outputs[i] = _output;\n        }\n\n        return true;\n    }\n}\n",
  "sourcePath": "/Users/liamz/go/src/github.com/keep-network/tbtc/implementation/contracts/bitcoin-spv/SPVStore.sol",
  "compiler": {
    "name": "solc",
    "version": "0.4.25+commit.59dbf8f1.Emscripten.clang"
  },
  "schemaVersion": "3.0.10",
  "updatedAt": "2019-07-17T13:24:12.161Z",
  "devdoc": {
    "methods": {
      "getTransactionInput(bytes32,uint8)": {
        "params": {
          "_index": "Input index to view",
          "_txid": "The transaction hash"
        },
        "return": "Input sequence, hash, and index"
      },
      "getTransactionOutput(bytes32,uint8)": {
        "params": {
          "_index": "Output index to view",
          "_txid": "Transaction hash"
        },
        "return": "Output valiue, type, and payload"
      },
      "parseAndStoreHeader(bytes)": {
        "params": {
          "_header": "The raw byte header"
        },
        "return": "true if valid format, false otherwise"
      },
      "parseAndStoreTransaction(bytes)": {
        "params": {
          "_tx": "The raw byte tx"
        },
        "return": "true if valid format, false otherwise"
      },
      "validate(bytes32,bytes32,bytes,uint256)": {
        "params": {
          "_digest": "The header hash",
          "_index": "The index of the leaf",
          "_proof": "The raw byte proof (concatenated LE hashes)",
          "_txid": "The transaction hash"
        },
        "return": "true if fully valid, false otherwise"
      }
    }
  },
  "userdoc": {
    "methods": {
      "getTransactionInput(bytes32,uint8)": {
        "notice": "View stored transaction input variables"
      },
      "getTransactionOutput(bytes32,uint8)": {
        "notice": "View stored transaction output variables"
      },
      "parseAndStoreHeader(bytes)": {
        "notice": "Parses a header and stores to the mapping"
      },
      "parseAndStoreTransaction(bytes)": {
        "notice": "Parses a tx and stores to the mapping"
      },
      "validate(bytes32,bytes32,bytes,uint256)": {
        "notice": "Validates tx inclusion in block"
      }
    }
  }
}