{
  "contractName": "TBTCConstants",
  "abi": [
    {
      "constant": true,
      "inputs": [],
      "name": "DEPOSIT_TERM_LENGTH",
      "outputs": [
        {
          "name": "",
          "type": "uint256"
        }
      ],
      "payable": false,
      "stateMutability": "view",
      "type": "function"
    },
    {
      "constant": true,
      "inputs": [],
      "name": "FUNDING_PROOF_TIMEOUT",
      "outputs": [
        {
          "name": "",
          "type": "uint256"
        }
      ],
      "payable": false,
      "stateMutability": "view",
      "type": "function"
    },
    {
      "constant": true,
      "inputs": [],
      "name": "SEVERELY_UNDERCOLLATERALIZED_THRESHOLD_PERCENT",
      "outputs": [
        {
          "name": "",
          "type": "uint256"
        }
      ],
      "payable": false,
      "stateMutability": "view",
      "type": "function"
    },
    {
      "constant": true,
      "inputs": [],
      "name": "INCREASE_FEE_TIMER",
      "outputs": [
        {
          "name": "",
          "type": "uint256"
        }
      ],
      "payable": false,
      "stateMutability": "view",
      "type": "function"
    },
    {
      "constant": true,
      "inputs": [],
      "name": "UNDERCOLLATERALIZED_THRESHOLD_PERCENT",
      "outputs": [
        {
          "name": "",
          "type": "uint256"
        }
      ],
      "payable": false,
      "stateMutability": "view",
      "type": "function"
    },
    {
      "constant": true,
      "inputs": [],
      "name": "AUCTION_BASE_PERCENTAGE",
      "outputs": [
        {
          "name": "",
          "type": "uint256"
        }
      ],
      "payable": false,
      "stateMutability": "view",
      "type": "function"
    },
    {
      "constant": true,
      "inputs": [],
      "name": "FUNDING_FRAUD_PARTIAL_SLASH_DIVISOR",
      "outputs": [
        {
          "name": "",
          "type": "uint256"
        }
      ],
      "payable": false,
      "stateMutability": "view",
      "type": "function"
    },
    {
      "constant": true,
      "inputs": [],
      "name": "REDEMPTION_SIGNATURE_TIMEOUT",
      "outputs": [
        {
          "name": "",
          "type": "uint256"
        }
      ],
      "payable": false,
      "stateMutability": "view",
      "type": "function"
    },
    {
      "constant": true,
      "inputs": [],
      "name": "BENEFICIARY_FEE_DIVISOR",
      "outputs": [
        {
          "name": "",
          "type": "uint256"
        }
      ],
      "payable": false,
      "stateMutability": "view",
      "type": "function"
    },
    {
      "constant": true,
      "inputs": [],
      "name": "FUNDER_BOND_AMOUNT_WEI",
      "outputs": [
        {
          "name": "",
          "type": "uint256"
        }
      ],
      "payable": false,
      "stateMutability": "view",
      "type": "function"
    },
    {
      "constant": true,
      "inputs": [],
      "name": "MINIMUM_REDEMPTION_FEE",
      "outputs": [
        {
          "name": "",
          "type": "uint256"
        }
      ],
      "payable": false,
      "stateMutability": "view",
      "type": "function"
    },
    {
      "constant": true,
      "inputs": [],
      "name": "LOT_SIZE",
      "outputs": [
        {
          "name": "",
          "type": "uint256"
        }
      ],
      "payable": false,
      "stateMutability": "view",
      "type": "function"
    },
    {
      "constant": true,
      "inputs": [],
      "name": "FRAUD_FUNDING_PROOF_TIMEOUT",
      "outputs": [
        {
          "name": "",
          "type": "uint256"
        }
      ],
      "payable": false,
      "stateMutability": "view",
      "type": "function"
    },
    {
      "constant": true,
      "inputs": [],
      "name": "SIGNER_FEE_DIVISOR",
      "outputs": [
        {
          "name": "",
          "type": "uint256"
        }
      ],
      "payable": false,
      "stateMutability": "view",
      "type": "function"
    },
    {
      "constant": true,
      "inputs": [],
      "name": "AUCTION_DURATION",
      "outputs": [
        {
          "name": "",
          "type": "uint256"
        }
      ],
      "payable": false,
      "stateMutability": "view",
      "type": "function"
    },
    {
      "constant": true,
      "inputs": [],
      "name": "FORMATION_TIMEOUT",
      "outputs": [
        {
          "name": "",
          "type": "uint256"
        }
      ],
      "payable": false,
      "stateMutability": "view",
      "type": "function"
    },
    {
      "constant": true,
      "inputs": [],
      "name": "REDEMPTION_PROOF_TIMEOUT",
      "outputs": [
        {
          "name": "",
          "type": "uint256"
        }
      ],
      "payable": false,
      "stateMutability": "view",
      "type": "function"
    },
    {
      "constant": true,
      "inputs": [],
      "name": "COURTESY_CALL_DURATION",
      "outputs": [
        {
          "name": "",
          "type": "uint256"
        }
      ],
      "payable": false,
      "stateMutability": "view",
      "type": "function"
    },
    {
      "constant": true,
      "inputs": [],
      "name": "getLotSize",
      "outputs": [
        {
          "name": "",
          "type": "uint256"
        }
      ],
      "payable": false,
      "stateMutability": "pure",
      "type": "function"
    },
    {
      "constant": true,
      "inputs": [],
      "name": "getSignerFeeDivisor",
      "outputs": [
        {
          "name": "",
          "type": "uint256"
        }
      ],
      "payable": false,
      "stateMutability": "pure",
      "type": "function"
    },
    {
      "constant": true,
      "inputs": [],
      "name": "getBeneficiaryRewardDivisor",
      "outputs": [
        {
          "name": "",
          "type": "uint256"
        }
      ],
      "payable": false,
      "stateMutability": "pure",
      "type": "function"
    },
    {
      "constant": true,
      "inputs": [],
      "name": "getFundingFraudPartialSlashDivisor",
      "outputs": [
        {
          "name": "",
          "type": "uint256"
        }
      ],
      "payable": false,
      "stateMutability": "pure",
      "type": "function"
    },
    {
      "constant": true,
      "inputs": [],
      "name": "getDepositTerm",
      "outputs": [
        {
          "name": "",
          "type": "uint256"
        }
      ],
      "payable": false,
      "stateMutability": "pure",
      "type": "function"
    },
    {
      "constant": true,
      "inputs": [],
      "name": "getUndercollateralizedPercent",
      "outputs": [
        {
          "name": "",
          "type": "uint256"
        }
      ],
      "payable": false,
      "stateMutability": "pure",
      "type": "function"
    },
    {
      "constant": true,
      "inputs": [],
      "name": "getSeverelyUndercollateralizedPercent",
      "outputs": [
        {
          "name": "",
          "type": "uint256"
        }
      ],
      "payable": false,
      "stateMutability": "pure",
      "type": "function"
    },
    {
      "constant": true,
      "inputs": [],
      "name": "getSignatureTimeout",
      "outputs": [
        {
          "name": "",
          "type": "uint256"
        }
      ],
      "payable": false,
      "stateMutability": "pure",
      "type": "function"
    },
    {
      "constant": true,
      "inputs": [],
      "name": "getIncreaseFeeTimer",
      "outputs": [
        {
          "name": "",
          "type": "uint256"
        }
      ],
      "payable": false,
      "stateMutability": "pure",
      "type": "function"
    },
    {
      "constant": true,
      "inputs": [],
      "name": "getRedepmtionProofTimeout",
      "outputs": [
        {
          "name": "",
          "type": "uint256"
        }
      ],
      "payable": false,
      "stateMutability": "pure",
      "type": "function"
    },
    {
      "constant": true,
      "inputs": [],
      "name": "getMinimumRedemptionFee",
      "outputs": [
        {
          "name": "",
          "type": "uint256"
        }
      ],
      "payable": false,
      "stateMutability": "pure",
      "type": "function"
    },
    {
      "constant": true,
      "inputs": [],
      "name": "getFundingTimeout",
      "outputs": [
        {
          "name": "",
          "type": "uint256"
        }
      ],
      "payable": false,
      "stateMutability": "pure",
      "type": "function"
    },
    {
      "constant": true,
      "inputs": [],
      "name": "getSigningGroupFormationTimeout",
      "outputs": [
        {
          "name": "",
          "type": "uint256"
        }
      ],
      "payable": false,
      "stateMutability": "pure",
      "type": "function"
    },
    {
      "constant": true,
      "inputs": [],
      "name": "getFraudFundingTimeout",
      "outputs": [
        {
          "name": "",
          "type": "uint256"
        }
      ],
      "payable": false,
      "stateMutability": "pure",
      "type": "function"
    },
    {
      "constant": true,
      "inputs": [],
      "name": "getFunderBondAmount",
      "outputs": [
        {
          "name": "",
          "type": "uint256"
        }
      ],
      "payable": false,
      "stateMutability": "pure",
      "type": "function"
    },
    {
      "constant": true,
      "inputs": [],
      "name": "getCourtesyCallTimeout",
      "outputs": [
        {
          "name": "",
          "type": "uint256"
        }
      ],
      "payable": false,
      "stateMutability": "pure",
      "type": "function"
    },
    {
      "constant": true,
      "inputs": [],
      "name": "getAuctionDuration",
      "outputs": [
        {
          "name": "",
          "type": "uint256"
        }
      ],
      "payable": false,
      "stateMutability": "pure",
      "type": "function"
    },
    {
      "constant": true,
      "inputs": [],
      "name": "getAuctionBasePercentage",
      "outputs": [
        {
          "name": "",
          "type": "uint256"
        }
      ],
      "payable": false,
      "stateMutability": "pure",
      "type": "function"
    }
  ],
  "bytecode": "0x6103cd610030600b82828239805160001a6073146000811461002057610022565bfe5b5030600052607381538281f30073000000000000000000000000000000000000000030146080604052600436106101d85763ffffffff7c01000000000000000000000000000000000000000000000000000000006000350416630a913dea81146101dd57806312aeac83146101f75780631999101b146101ff578063242c0ed0146102075780632851f4db1461020f57806338c86093146102175780633f8653ab1461021f5780634136c1e7146102275780634145cf8e1461022f578063582d1071146102375780635b6b452a1461023f57806360e98d5914610247578063655649201461024f5780636760dab9146102575780636da1dda21461025f5780637196e87b14610267578063741b5e4c1461026f57806378cb51af146102775780637fee67a21461027f57806386322af714610287578063866a5400146101f75780638ab279cf1461028f5780639887426d14610297578063a1f6c6391461029f578063a271e525146102a7578063a99b5283146101f7578063ac8bfdad146102af578063b4d0121914610297578063c342b1f714610217578063c4572eb9146102b7578063cdf9505014610217578063d565d1f1146102bf578063d891dcdb146102c7578063ecaf1cdf146102cf578063f653c0b9146102d7578063fc94f1d6146102af575b600080fd5b6101e56102df565b60408051918252519081900360200190f35b6101e56102e6565b6101e56102ec565b6101e56102f1565b6101e56102f7565b6101e56102fc565b6101e5610302565b6101e5610307565b6101e561030c565b6101e561031a565b6101e561031f565b6101e5610325565b6101e561032a565b6101e561032f565b6101e5610334565b6101e561033a565b6101e5610348565b6101e561034e565b6101e5610355565b6101e561035d565b6101e5610363565b6101e5610368565b6101e561036e565b6101e5610374565b6101e561037b565b6101e5610381565b6101e5610386565b6101e561038d565b6101e5610393565b6101e561039b565b62ed4e0081565b612a3081565b607881565b61384081565b608c90565b612a3090565b608c81565b605a81565b69021e19e0c9bab240000090565b600281565b611c2081565b60c890565b600290565b607890565b6103e881565b69021e19e0c9bab240000081565b6107d081565b6201518090565b6305f5e10081565b6107d090565b60c881565b61546090565b6103e890565b6201518081565b61546081565b605a90565b62ed4e0090565b611c2090565b6305f5e10090565b613840905600a165627a7a723058208e00d89bf247579b3c7b092039ad3917e374df4cd69cba18dfa4a451433bfdda0029",
  "source": "pragma solidity 0.4.25;\n\nlibrary TBTCConstants {\n\n    // This is intended to make it easy to update system params\n    // During testing swap this out with another constats contract\n\n    // System Parameters\n    uint256 public constant LOT_SIZE = 10 ** 8;  // tsatoshi\n    uint256 public constant SIGNER_FEE_DIVISOR = 200; // 1/200 == 50bps == 0.5% == 0.005\n    uint256 public constant BENEFICIARY_FEE_DIVISOR = 1000;  // 1/1000 = 10 bps = 0.1% = 0.001\n    uint256 public constant FUNDING_FRAUD_PARTIAL_SLASH_DIVISOR = 2;  // 1/2 = 5000bps = 50% = 0.5\n    uint256 public constant DEPOSIT_TERM_LENGTH = 180 * 24 * 60 * 60; // 180 days in seconds\n    uint256 public constant UNDERCOLLATERALIZED_THRESHOLD_PERCENT = 140;  // percent\n    uint256 public constant SEVERELY_UNDERCOLLATERALIZED_THRESHOLD_PERCENT = 120; // percent\n\n    // Redemption Flow\n    uint256 public constant REDEMPTION_SIGNATURE_TIMEOUT = 2 * 60 * 60;  // seconds\n    uint256 public constant INCREASE_FEE_TIMER = 4 * 60 * 60;  // seconds\n    uint256 public constant REDEMPTION_PROOF_TIMEOUT = 6 * 60 * 60;  // seconds\n    uint256 public constant MINIMUM_REDEMPTION_FEE = 2000; // satoshi\n\n    // Funding Flow\n    uint256 public constant FUNDING_PROOF_TIMEOUT = 3 * 60 * 60; // seconds\n    uint256 public constant FORMATION_TIMEOUT = 3 * 60 * 60; // seconds\n    uint256 public constant FRAUD_FUNDING_PROOF_TIMEOUT = 3 * 60 * 60; // seconds\n    uint256 public constant FUNDER_BOND_AMOUNT_WEI = 10 ** 22; // wei\n\n    // Liquidation Flow\n    uint256 public constant COURTESY_CALL_DURATION = 6 * 60 * 60; // seconds\n    uint256 public constant AUCTION_DURATION = 24 * 60 * 60; // seconds\n    uint256 public constant AUCTION_BASE_PERCENTAGE = 90; // percents\n\n\n    // Getters for easy access\n    function getLotSize() public pure returns (uint256) { return LOT_SIZE; }\n    function getSignerFeeDivisor() public pure returns (uint256) { return SIGNER_FEE_DIVISOR; }\n    function getBeneficiaryRewardDivisor() public pure returns (uint256) { return BENEFICIARY_FEE_DIVISOR; }\n    function getFundingFraudPartialSlashDivisor() public pure returns (uint256) { return FUNDING_FRAUD_PARTIAL_SLASH_DIVISOR; }\n    function getDepositTerm() public pure returns (uint256) { return DEPOSIT_TERM_LENGTH; }\n    function getUndercollateralizedPercent() public pure returns (uint256) { return UNDERCOLLATERALIZED_THRESHOLD_PERCENT; }\n    function getSeverelyUndercollateralizedPercent() public pure returns (uint256) { return SEVERELY_UNDERCOLLATERALIZED_THRESHOLD_PERCENT; }\n\n    function getSignatureTimeout() public pure returns (uint256) { return REDEMPTION_SIGNATURE_TIMEOUT; }\n    function getIncreaseFeeTimer() public pure returns (uint256) { return INCREASE_FEE_TIMER; }\n    function getRedepmtionProofTimeout() public pure returns (uint256) { return REDEMPTION_PROOF_TIMEOUT; }\n    function getMinimumRedemptionFee() public pure returns (uint256) { return MINIMUM_REDEMPTION_FEE; }\n\n    function getFundingTimeout() public pure returns (uint256) { return FUNDING_PROOF_TIMEOUT; }\n    function getSigningGroupFormationTimeout() public pure returns (uint256) { return FORMATION_TIMEOUT; }\n    function getFraudFundingTimeout() public pure returns (uint256) { return FRAUD_FUNDING_PROOF_TIMEOUT; }\n    function getFunderBondAmount() public pure returns (uint256) { return FUNDER_BOND_AMOUNT_WEI; }\n\n    function getCourtesyCallTimeout() public pure returns (uint256) { return COURTESY_CALL_DURATION; }\n    function getAuctionDuration() public pure returns (uint256) { return AUCTION_DURATION; }\n    function getAuctionBasePercentage() public pure returns (uint256) { return AUCTION_BASE_PERCENTAGE; }\n}\n",
  "sourcePath": "/Users/liamz/go/src/github.com/keep-network/tbtc/implementation/contracts/deposit/TBTCConstants.sol",
  "compiler": {
    "name": "solc",
    "version": "0.4.25+commit.59dbf8f1.Emscripten.clang"
  },
  "schemaVersion": "3.0.10",
  "updatedAt": "2019-07-19T12:16:35.709Z",
  "devdoc": {
    "methods": {}
  },
  "userdoc": {
    "methods": {}
  }
}