{
  "contractName": "ValidateSPV",
  "abi": [
    {
      "constant": true,
      "inputs": [
        {
          "name": "_txid",
          "type": "bytes32"
        },
        {
          "name": "_merkleRoot",
          "type": "bytes32"
        },
        {
          "name": "_proof",
          "type": "bytes"
        },
        {
          "name": "_index",
          "type": "uint256"
        }
      ],
      "name": "prove",
      "outputs": [
        {
          "name": "",
          "type": "bool"
        }
      ],
      "payable": false,
      "stateMutability": "pure",
      "type": "function"
    },
    {
      "constant": true,
      "inputs": [
        {
          "name": "_tx",
          "type": "bytes"
        }
      ],
      "name": "parseTransaction",
      "outputs": [
        {
          "name": "_nInputs",
          "type": "bytes"
        },
        {
          "name": "_inputs",
          "type": "bytes"
        },
        {
          "name": "_nOutputs",
          "type": "bytes"
        },
        {
          "name": "_outputs",
          "type": "bytes"
        },
        {
          "name": "_locktime",
          "type": "bytes"
        },
        {
          "name": "_txid",
          "type": "bytes32"
        }
      ],
      "payable": false,
      "stateMutability": "pure",
      "type": "function"
    },
    {
      "constant": true,
      "inputs": [
        {
          "name": "_tx",
          "type": "bytes"
        }
      ],
      "name": "extractAllInputs",
      "outputs": [
        {
          "name": "_nInputs",
          "type": "bytes"
        },
        {
          "name": "_inputs",
          "type": "bytes"
        }
      ],
      "payable": false,
      "stateMutability": "pure",
      "type": "function"
    },
    {
      "constant": true,
      "inputs": [
        {
          "name": "_tx",
          "type": "bytes"
        }
      ],
      "name": "extractAllOutputs",
      "outputs": [
        {
          "name": "_nOutputs",
          "type": "bytes"
        },
        {
          "name": "_outputs",
          "type": "bytes"
        }
      ],
      "payable": false,
      "stateMutability": "pure",
      "type": "function"
    },
    {
      "constant": true,
      "inputs": [
        {
          "name": "_version",
          "type": "bytes"
        },
        {
          "name": "_nInputs",
          "type": "bytes"
        },
        {
          "name": "_inputs",
          "type": "bytes"
        },
        {
          "name": "_nOutputs",
          "type": "bytes"
        },
        {
          "name": "_outputs",
          "type": "bytes"
        },
        {
          "name": "_locktime",
          "type": "bytes"
        }
      ],
      "name": "transactionHash",
      "outputs": [
        {
          "name": "",
          "type": "bytes32"
        }
      ],
      "payable": false,
      "stateMutability": "pure",
      "type": "function"
    },
    {
      "constant": true,
      "inputs": [
        {
          "name": "_bytes",
          "type": "bytes"
        }
      ],
      "name": "validatePrefix",
      "outputs": [
        {
          "name": "",
          "type": "bool"
        }
      ],
      "payable": false,
      "stateMutability": "pure",
      "type": "function"
    },
    {
      "constant": true,
      "inputs": [
        {
          "name": "_input",
          "type": "bytes"
        }
      ],
      "name": "parseInput",
      "outputs": [
        {
          "name": "_sequence",
          "type": "uint32"
        },
        {
          "name": "_hash",
          "type": "bytes32"
        },
        {
          "name": "_index",
          "type": "uint32"
        }
      ],
      "payable": false,
      "stateMutability": "pure",
      "type": "function"
    },
    {
      "constant": true,
      "inputs": [
        {
          "name": "_output",
          "type": "bytes"
        }
      ],
      "name": "parseOutput",
      "outputs": [
        {
          "name": "_value",
          "type": "uint64"
        },
        {
          "name": "_outputType",
          "type": "uint8"
        },
        {
          "name": "_payload",
          "type": "bytes"
        }
      ],
      "payable": false,
      "stateMutability": "pure",
      "type": "function"
    },
    {
      "constant": true,
      "inputs": [
        {
          "name": "_header",
          "type": "bytes"
        }
      ],
      "name": "parseHeader",
      "outputs": [
        {
          "name": "_digest",
          "type": "bytes32"
        },
        {
          "name": "_version",
          "type": "uint32"
        },
        {
          "name": "_prevHash",
          "type": "bytes32"
        },
        {
          "name": "_merkleRoot",
          "type": "bytes32"
        },
        {
          "name": "_timestamp",
          "type": "uint32"
        },
        {
          "name": "_target",
          "type": "uint256"
        },
        {
          "name": "_nonce",
          "type": "uint32"
        }
      ],
      "payable": false,
      "stateMutability": "pure",
      "type": "function"
    },
    {
      "constant": true,
      "inputs": [
        {
          "name": "_headers",
          "type": "bytes"
        }
      ],
      "name": "validateHeaderChain",
      "outputs": [
        {
          "name": "_reqDiff",
          "type": "uint256"
        }
      ],
      "payable": false,
      "stateMutability": "pure",
      "type": "function"
    },
    {
      "constant": true,
      "inputs": [
        {
          "name": "_digest",
          "type": "bytes32"
        },
        {
          "name": "_target",
          "type": "uint256"
        }
      ],
      "name": "validateHeaderWork",
      "outputs": [
        {
          "name": "",
          "type": "bool"
        }
      ],
      "payable": false,
      "stateMutability": "pure",
      "type": "function"
    },
    {
      "constant": true,
      "inputs": [
        {
          "name": "_header",
          "type": "bytes"
        },
        {
          "name": "_prevHeaderDigest",
          "type": "bytes32"
        }
      ],
      "name": "validateHeaderPrevHash",
      "outputs": [
        {
          "name": "",
          "type": "bool"
        }
      ],
      "payable": false,
      "stateMutability": "pure",
      "type": "function"
    }
  ],
  "bytecode": "0x613ccd610030600b82828239805160001a6073146000811461002057610022565bfe5b5030600052607381538281f30073000000000000000000000000000000000000000030146080604052600436106100b75763ffffffff60e060020a60003504166309e3041981146100bc57806331c03d0f1461025057806336e7ea24146102b95780633e3613891461032d57806362af6046146103795780636750d35b146103c55780636b4b99ab1461062a578063713248ca1461075457806372464ca014610762578063ddc982e9146107f1578063e041325a1461083d578063ef21425b1461088b575b600080fd5b6040805160206004803580820135601f810184900484028501840190955284845261023e94369492936024939284019190819084018382808284375050604080516020601f89358b018035918201839004830284018301909452808352979a99988101979196509182019450925082915084018382808284375050604080516020601f89358b018035918201839004830284018301909452808352979a99988101979196509182019450925082915084018382808284375050604080516020601f89358b018035918201839004830284018301909452808352979a99988101979196509182019450925082915084018382808284375050604080516020601f89358b018035918201839004830284018301909452808352979a99988101979196509182019450925082915084018382808284375050604080516020601f89358b018035918201839004830284018301909452808352979a9998810197919650918201945092508291508401838280828437509497506109399650505050505050565b60408051918252519081900360200190f35b604080516020600460443581810135601f81018490048402850184019095528484526102a59482359460248035953695946064949201919081908401838280828437509497505093359450610c109350505050565b604080519115158252519081900360200190f35b6040805160206004803580820135601f8101849004840285018401909552848452610305943694929360249392840191908190840183828082843750949750610f459650505050505050565b6040805163ffffffff9485168152602081019390935292168183015290519081900360600190f35b6040805160206004803580820135601f810184900484028501840190955284845261023e9436949293602493928401919081908401838280828437509497506112d29650505050505050565b6040805160206004803580820135601f81018490048402850184019095528484526102a59436949293602493928401919081908401838280828437509497506118269650505050505050565b6040805160206004803580820135601f81018490048402850184019095528484526104119436949293602493928401919081908401838280828437509497506119cf9650505050505050565b6040805160a0810183905260c08082528851908201528751909182916020808401928401916060850191608086019160e08701918e019080838360005b8381101561046657818101518382015260200161044e565b50505050905090810190601f1680156104935780820380516001836020036101000a031916815260200191505b5086810385528b5181528b516020918201918d019080838360005b838110156104c65781810151838201526020016104ae565b50505050905090810190601f1680156104f35780820380516001836020036101000a031916815260200191505b5086810384528a5181528a516020918201918c019080838360005b8381101561052657818101518382015260200161050e565b50505050905090810190601f1680156105535780820380516001836020036101000a031916815260200191505b5086810383528951815289516020918201918b019080838360005b8381101561058657818101518382015260200161056e565b50505050905090810190601f1680156105b35780820380516001836020036101000a031916815260200191505b5086810382528851815288516020918201918a019080838360005b838110156105e65781810151838201526020016105ce565b50505050905090810190601f1680156106135780820380516001836020036101000a031916815260200191505b509b50505050505050505050505060405180910390f35b6040805160206004803580820135601f8101849004840285018401909552848452610676943694929360249392840191908190840183828082843750949750611dd59650505050505050565b604051808060200180602001838103835285818151815260200191508051906020019080838360005b838110156106b757818101518382015260200161069f565b50505050905090810190601f1680156106e45780820380516001836020036101000a031916815260200191505b50838103825284518152845160209182019186019080838360005b838110156107175781810151838201526020016106ff565b50505050905090810190601f1680156107445780820380516001836020036101000a031916815260200191505b5094505050505060405180910390f35b6102a56004356024356121bb565b6040805160206004803580820135601f81018490048402850184019095528484526107ae9436949293602493928401919081908401838280828437509497506122d09650505050505050565b6040805197885263ffffffff9687166020890152878101959095526060870193909352908416608086015260a085015290911660c0830152519081900360e00190f35b6040805160206004803580820135601f81018490048402850184019095528484526106769436949293602493928401919081908401838280828437509497506130cf9650505050505050565b6040805160206004803580820135601f81018490048402850184019095528484526102a594369492936024939284019190819084018382808284375094975050933594506133c99350505050565b6040805160206004803580820135601f81018490048402850184019095528484526108d794369492936024939284019190819084018382808284375094975061361a9650505050505050565b604051808467ffffffffffffffff1667ffffffffffffffff1681526020018360ff1660ff1681526020018060200182810382528381815181526020019150805190602001908083836000838110156107175781810151838201526020016106ff565b60008686868686866040516020018087805190602001908083835b602083106109735780518252601f199092019160209182019101610954565b51815160209384036101000a600019018019909216911617905289519190930192890191508083835b602083106109bb5780518252601f19909201916020918201910161099c565b51815160209384036101000a600019018019909216911617905288519190930192880191508083835b60208310610a035780518252601f1990920191602091820191016109e4565b51815160209384036101000a600019018019909216911617905287519190930192870191508083835b60208310610a4b5780518252601f199092019160209182019101610a2c565b51815160209384036101000a600019018019909216911617905286519190930192860191508083835b60208310610a935780518252601f199092019160209182019101610a74565b51815160209384036101000a600019018019909216911617905285519190930192850191508083835b60208310610adb5780518252601f199092019160209182019101610abc565b51815160209384036101000a60001901801990921691161790526040805192909401828103601f19018352938490527f39efb09a0000000000000000000000000000000000000000000000000000000084526004840181815282516024860152825173__BTCUtils______________________________9c506339efb09a9b509299509750879650604490930194509187019250819050838360005b83811015610b8f578181015183820152602001610b77565b50505050905090810190601f168015610bbc5780820380516001836020036101000a031916815260200191505b509250505060206040518083038186803b158015610bd957600080fd5b505af4158015610bed573d6000803e3d6000fd5b505050506040513d6020811015610c0357600080fd5b5051979650505050505050565b6000841515610c2157506000610f3d565b84610c35846000602063ffffffff613ad116565b60405160e060020a6347f5343102815260206004820181815283516024840152835173__BytesLib______________________________946347f5343194909383926044909201919085019080838360005b83811015610c9f578181015183820152602001610c87565b50505050905090810190601f168015610ccc5780820380516001836020036101000a031916815260200191505b509250505060206040518083038186803b158015610ce957600080fd5b505af4158015610cfd573d6000803e3d6000fd5b505050506040513d6020811015610d1357600080fd5b505114610d2257506000610f3d565b82518490610d3d908590601f1901602063ffffffff613ad116565b60405160e060020a6347f5343102815260206004820181815283516024840152835173__BytesLib______________________________946347f5343194909383926044909201919085019080838360005b83811015610da7578181015183820152602001610d8f565b50505050905090810190601f168015610dd45780820380516001836020036101000a031916815260200191505b509250505060206040518083038186803b158015610df157600080fd5b505af4158015610e05573d6000803e3d6000fd5b505050506040513d6020811015610e1b57600080fd5b505114610e2a57506000610f3d565b604080517f9ba32073000000000000000000000000000000000000000000000000000000008152602481018490526004810191825284516044820152845173__BTCUtils______________________________92639ba320739287928792918291606490910190602086019080838360005b83811015610eb4578181015183820152602001610e9c565b50505050905090810190601f168015610ee15780820380516001836020036101000a031916815260200191505b50935050505060206040518083038186803b158015610eff57600080fd5b505af4158015610f13573d6000803e3d6000fd5b505050506040513d6020811015610f2957600080fd5b50511515610f3957506000610f3d565b5060015b949350505050565b6040805160008082529151600191819003820190208291829190610f6d908690602490613ad1565b6040518082805190602001908083835b60208310610f9c5780518252601f199092019160209182019101610f7d565b6001836020036101000a038019825116818451168082178552505050505050905001915050604051809103902060001916141515610fd9576112cb565b8351602914610fe7576112cb565b6040517fe79d3e2300000000000000000000000000000000000000000000000000000000815260206004820181815286516024840152865173__BTCUtils______________________________9363e79d3e239389939283926044019185019080838360005b8381101561106557818101518382015260200161104d565b50505050905090810190601f1680156110925780820380516001836020036101000a031916815260200191505b509250505060206040518083038186803b1580156110af57600080fd5b505af41580156110c3573d6000803e3d6000fd5b505050506040513d60208110156110d957600080fd5b50516040517fea66780100000000000000000000000000000000000000000000000000000000815260206004820181815287516024840152875173__BTCUtils______________________________9363ea667801938a939283926044019185019080838360005b83811015611159578181015183820152602001611141565b50505050905090810190601f1680156111865780820380516001836020036101000a031916815260200191505b509250505060206040518083038186803b1580156111a357600080fd5b505af41580156111b7573d6000803e3d6000fd5b505050506040513d60208110156111cd57600080fd5b50516040517faf7000d400000000000000000000000000000000000000000000000000000000815260206004820181815288516024840152885173__BTCUtils______________________________9363af7000d4938b939283926044019185019080838360005b8381101561124d578181015183820152602001611235565b50505050905090810190601f16801561127a5780820380516001836020036101000a031916815260200191505b509250505060206040518083038186803b15801561129757600080fd5b505af41580156112ab573d6000803e3d6000fd5b505050506040513d60208110156112c157600080fd5b5051919450925090505b9193909250565b60008060008060606000605087518115156112e957fe5b06156112f8576001955061181c565b6000935060009550600092505b86516050900483101561181c576050808402945061132c908890869063ffffffff613ad116565b9150821561134d5761133e82866133c9565b151561134d576002955061181c565b6040517f0ca25cc000000000000000000000000000000000000000000000000000000000815260206004820181815284516024840152845173__BTCUtils______________________________93630ca25cc09387939283926044019185019080838360005b838110156113cb5781810151838201526020016113b3565b50505050905090810190601f1680156113f85780820380516001836020036101000a031916815260200191505b509250505060206040518083038186803b15801561141557600080fd5b505af4158015611429573d6000803e3d6000fd5b505050506040513d602081101561143f57600080fd5b50516040517f39efb09a00000000000000000000000000000000000000000000000000000000815260206004820181815285516024840152855193945073__BTCUtils______________________________936339efb09a93879383926044909201919085019080838360005b838110156114c45781810151838201526020016114ac565b50505050905090810190601f1680156114f15780820380516001836020036101000a031916815260200191505b509250505060206040518083038186803b15801561150e57600080fd5b505af4158015611522573d6000803e3d6000fd5b505050506040513d602081101561153857600080fd5b50516040805160208181018490528251808303820181528284019384905260e060020a635196ba030290935260448201818152835160648401528351949950859473__BTCUtils______________________________94635196ba0394909383926084909201919085019080838360005b838110156115c15781810151838201526020016115a9565b50505050905090810190601f1680156115ee5780820380516001836020036101000a031916815260200191505b509250505060006040518083038186803b15801561160b57600080fd5b505af415801561161f573d6000803e3d6000fd5b505050506040513d6000823e601f3d908101601f19168201604052602081101561164857600080fd5b81019080805164010000000081111561166057600080fd5b8201602081018481111561167357600080fd5b815164010000000081118282018710171561168d57600080fd5b505060405160e060020a6302d06d0502815260206004820181815283516024840152835173__BTCUtils______________________________97506302d06d0596509394509283926044019185019080838360005b838110156116fa5781810151838201526020016116e2565b50505050905090810190601f1680156117275780820380516001836020036101000a031916815260200191505b509250505060206040518083038186803b15801561174457600080fd5b505af4158015611758573d6000803e3d6000fd5b505050506040513d602081101561176e57600080fd5b5051111561177f576003955061181c565b61180f8173__BTCUtils______________________________6388dbbe3490916040518263ffffffff1660e060020a0281526004018082815260200191505060206040518083038186803b1580156117d657600080fd5b505af41580156117ea573d6000803e3d6000fd5b505050506040513d602081101561180057600080fd5b5051879063ffffffff613bb416565b9550600190920191611305565b5050505050919050565b60008060068351101561183c57600091506119c9565b61184f836000600163ffffffff613ad116565b6040518082805190602001908083835b6020831061187e5780518252601f19909201916020918201910161185f565b5181516000196020949094036101000a93909301928316921916919091179052604080519390910183900383207f01000000000000000000000000000000000000000000000000000000000000008452905192839003600101909220919450508314915081905061191f5750604080517f02000000000000000000000000000000000000000000000000000000000000008152905190819003600101902081145b80156119c65750604080517b01000000000000000000000000000000000000000000000000000000815290516005918190038201902090611964908590600190613ad1565b6040518082805190602001908083835b602083106119935780518252601f199092019160209182019101611974565b6001836020036101000a038019825116818451168082178552505050505050905001915050604051809103902060001916145b91505b50919050565b606080606080606060006060808873__BTCUtils______________________________630f513b3590916040518263ffffffff1660e060020a0281526004018080602001828103825283818151815260200191508051906020019080838360005b83811015611a48578181015183820152602001611a30565b50505050905090810190601f168015611a755780820380516001836020036101000a031916815260200191505b509250505060006040518083038186803b158015611a9257600080fd5b505af4158015611aa6573d6000803e3d6000fd5b505050506040513d6000823e601f3d908101601f191682016040526020811015611acf57600080fd5b810190808051640100000000811115611ae757600080fd5b82016020810184811115611afa57600080fd5b8151640100000000811182820187101715611b1457600080fd5b50509291905050509150611b2782611826565b1515611b3257611dca565b611b45826000600463ffffffff613ad116565b9050611b5089611dd5565b604080516000815290519081900360010181208351939b5091995090918a9190819060208401908083835b60208310611b9a5780518252601f199092019160209182019101611b7b565b6001836020036101000a0380198251168184511680821785525050505050509050019150506040518091039020600019161415611bd657611dca565b611bdf896130cf565b6040805160008152905190819003600101812083519399509197509091889190819060208401908083835b60208310611c295780518252601f199092019160209182019101611c0a565b6001836020036101000a0380198251168184511680821785525050505050509050019150506040518091039020600019161415611c6557611dca565b6040517fdc1f9a140000000000000000000000000000000000000000000000000000000081526020600482018181528b5160248401528b5173__BTCUtils______________________________9363dc1f9a14938e939283926044019185019080838360005b83811015611ce3578181015183820152602001611ccb565b50505050905090810190601f168015611d105780820380516001836020036101000a031916815260200191505b509250505060006040518083038186803b158015611d2d57600080fd5b505af4158015611d41573d6000803e3d6000fd5b505050506040513d6000823e601f3d908101601f191682016040526020811015611d6a57600080fd5b810190808051640100000000811115611d8257600080fd5b82016020810184811115611d9557600080fd5b8151640100000000811182820187101715611daf57600080fd5b50509291905050509350611dc7818989898989610939565b92505b505091939550919395565b6040517f1486ab380000000000000000000000000000000000000000000000000000000081526020600482018181528351602484015283516060938493600093849373__BTCUtils______________________________93631486ab38938a93928392604401918501908083838b5b83811015611e5c578181015183820152602001611e44565b50505050905090810190601f168015611e895780820380516001836020036101000a031916815260200191505b509250505060006040518083038186803b158015611ea657600080fd5b505af4158015611eba573d6000803e3d6000fd5b505050506040513d6000823e601f3d908101601f191682016040526020811015611ee357600080fd5b810190808051640100000000811115611efb57600080fd5b82016020810184811115611f0e57600080fd5b8151640100000000811182820187101715611f2857600080fd5b50506040517fb230b7420000000000000000000000000000000000000000000000000000000081526020600482018181528b5160248401528b51939a5073__BTCUtils______________________________965063b230b74295508b94509283926044019185019080838360005b83811015611fae578181015183820152602001611f96565b50505050905090810190601f168015611fdb5780820380516001836020036101000a031916815260200191505b509250505060206040518083038186803b158015611ff857600080fd5b505af415801561200c573d6000803e3d6000fd5b505050506040513d602081101561202257600080fd5b50519150600090505b8160ff168160ff1610156121b457604080517f98b979b400000000000000000000000000000000000000000000000000000000815260ff83166024820152600481019182528651604482015286516121aa9273__BTCUtils______________________________926398b979b4928a9287929091829160640190602086019080838360005b838110156120c85781810151838201526020016120b0565b50505050905090810190601f1680156120f55780820380516001836020036101000a031916815260200191505b50935050505060006040518083038186803b15801561211357600080fd5b505af4158015612127573d6000803e3d6000fd5b505050506040513d6000823e601f3d908101601f19168201604052602081101561215057600080fd5b81019080805164010000000081111561216857600080fd5b8201602081018481111561217b57600080fd5b815164010000000081118282018710171561219557600080fd5b508894509092505063ffffffff613c26169050565b925060010161202b565b5050915091565b60008215156121cc575060006122ca565b6040805160208082018690528251808303820181528284019384905260e060020a6302d06d050290935260448201818152835160648401528351869473__BTCUtils______________________________946302d06d0594919392839260849092019185019080838360005b83811015612250578181015183820152602001612238565b50505050905090810190601f16801561227d5780820380516001836020036101000a031916815260200191505b509250505060206040518083038186803b15801561229a57600080fd5b505af41580156122ae573d6000803e3d6000fd5b505050506040513d60208110156122c457600080fd5b50511090505b92915050565b6000806000806000806000875160501415156122eb576130c4565b6040517f39efb09a0000000000000000000000000000000000000000000000000000000081526020600482018181528a5160248401528a5173__BTCUtils______________________________936339efb09a938d939283926044019185019080838360005b83811015612369578181015183820152602001612351565b50505050905090810190601f1680156123965780820380516001836020036101000a031916815260200191505b509250505060206040518083038186803b1580156123b357600080fd5b505af41580156123c7573d6000803e3d6000fd5b505050506040513d60208110156123dd57600080fd5b5051604080516020818101939093528151808203840181528183019283905260e060020a635196ba03029092526044810183815282516064830152825173__BTCUtils______________________________94635196ba039493839260849091019185019080838360005b83811015612460578181015183820152602001612448565b50505050905090810190601f16801561248d5780820380516001836020036101000a031916815260200191505b509250505060006040518083038186803b1580156124aa57600080fd5b505af41580156124be573d6000803e3d6000fd5b505050506040513d6000823e601f3d908101601f1916820160405260208110156124e757600080fd5b8101908080516401000000008111156124ff57600080fd5b8201602081018481111561251257600080fd5b815164010000000081118282018710171561252c57600080fd5b505060405160e060020a6347f5343102815260206004820181815283516024840152835173__BytesLib______________________________97506347f5343196509394509283926044019185019080838360005b83811015612599578181015183820152602001612581565b50505050905090810190601f1680156125c65780820380516001836020036101000a031916815260200191505b509250505060206040518083038186803b1580156125e357600080fd5b505af41580156125f7573d6000803e3d6000fd5b505050506040513d602081101561260d57600080fd5b50519650612624886000600463ffffffff613ad116565b60405160e060020a635196ba0302815260206004820181815283516024840152835173__BTCUtils______________________________94635196ba0394909383926044909201919085019080838360005b8381101561268e578181015183820152602001612676565b50505050905090810190601f1680156126bb5780820380516001836020036101000a031916815260200191505b509250505060006040518083038186803b1580156126d857600080fd5b505af41580156126ec573d6000803e3d6000fd5b505050506040513d6000823e601f3d908101601f19168201604052602081101561271557600080fd5b81019080805164010000000081111561272d57600080fd5b8201602081018481111561274057600080fd5b815164010000000081118282018710171561275a57600080fd5b505060405160e060020a6302d06d0502815260206004820181815283516024840152835173__BTCUtils______________________________97506302d06d0596509394509283926044019185019080838360005b838110156127c75781810151838201526020016127af565b50505050905090810190601f1680156127f45780820380516001836020036101000a031916815260200191505b509250505060206040518083038186803b15801561281157600080fd5b505af4158015612825573d6000803e3d6000fd5b505050506040513d602081101561283b57600080fd5b50516040517f20db3e0e0000000000000000000000000000000000000000000000000000000081526020600482018181528b5160248401528b5193995073__BTCUtils______________________________936320db3e0e938d9383926044909201919085019080838360005b838110156128c05781810151838201526020016128a8565b50505050905090810190601f1680156128ed5780820380516001836020036101000a031916815260200191505b509250505060006040518083038186803b15801561290a57600080fd5b505af415801561291e573d6000803e3d6000fd5b505050506040513d6000823e601f3d908101601f19168201604052602081101561294757600080fd5b81019080805164010000000081111561295f57600080fd5b8201602081018481111561297257600080fd5b815164010000000081118282018710171561298c57600080fd5b505060405160e060020a6347f5343102815260206004820181815283516024840152835173__BytesLib______________________________97506347f5343196509394509283926044019185019080838360005b838110156129f95781810151838201526020016129e1565b50505050905090810190601f168015612a265780820380516001836020036101000a031916815260200191505b509250505060206040518083038186803b158015612a4357600080fd5b505af4158015612a57573d6000803e3d6000fd5b505050506040513d6020811015612a6d57600080fd5b50516040517fe31952c30000000000000000000000000000000000000000000000000000000081526020600482018181528b5160248401528b5193985073__BTCUtils______________________________9363e31952c3938d9383926044909201919085019080838360005b83811015612af2578181015183820152602001612ada565b50505050905090810190601f168015612b1f5780820380516001836020036101000a031916815260200191505b509250505060006040518083038186803b158015612b3c57600080fd5b505af4158015612b50573d6000803e3d6000fd5b505050506040513d6000823e601f3d908101601f191682016040526020811015612b7957600080fd5b810190808051640100000000811115612b9157600080fd5b82016020810184811115612ba457600080fd5b8151640100000000811182820187101715612bbe57600080fd5b505060405160e060020a6347f5343102815260206004820181815283516024840152835173__BytesLib______________________________97506347f5343196509394509283926044019185019080838360005b83811015612c2b578181015183820152602001612c13565b50505050905090810190601f168015612c585780820380516001836020036101000a031916815260200191505b509250505060206040518083038186803b158015612c7557600080fd5b505af4158015612c89573d6000803e3d6000fd5b505050506040513d6020811015612c9f57600080fd5b50516040517fb59d07360000000000000000000000000000000000000000000000000000000081526020600482018181528b5160248401528b5193975073__BTCUtils______________________________9363b59d0736938d9383926044909201919085019080838360005b83811015612d24578181015183820152602001612d0c565b50505050905090810190601f168015612d515780820380516001836020036101000a031916815260200191505b509250505060206040518083038186803b158015612d6e57600080fd5b505af4158015612d82573d6000803e3d6000fd5b505050506040513d6020811015612d9857600080fd5b50516040517f0ca25cc00000000000000000000000000000000000000000000000000000000081526020600482018181528b5160248401528b5193965073__BTCUtils______________________________93630ca25cc0938d9383926044909201919085019080838360005b83811015612e1d578181015183820152602001612e05565b50505050905090810190601f168015612e4a5780820380516001836020036101000a031916815260200191505b509250505060206040518083038186803b158015612e6757600080fd5b505af4158015612e7b573d6000803e3d6000fd5b505050506040513d6020811015612e9157600080fd5b50519150612ea888604c600463ffffffff613ad116565b60405160e060020a635196ba0302815260206004820181815283516024840152835173__BTCUtils______________________________94635196ba0394909383926044909201919085019080838360005b83811015612f12578181015183820152602001612efa565b50505050905090810190601f168015612f3f5780820380516001836020036101000a031916815260200191505b509250505060006040518083038186803b158015612f5c57600080fd5b505af4158015612f70573d6000803e3d6000fd5b505050506040513d6000823e601f3d908101601f191682016040526020811015612f9957600080fd5b810190808051640100000000811115612fb157600080fd5b82016020810184811115612fc457600080fd5b8151640100000000811182820187101715612fde57600080fd5b505060405160e060020a6302d06d0502815260206004820181815283516024840152835173__BTCUtils______________________________97506302d06d0596509394509283926044019185019080838360005b8381101561304b578181015183820152602001613033565b50505050905090810190601f1680156130785780820380516001836020036101000a031916815260200191505b509250505060206040518083038186803b15801561309557600080fd5b505af41580156130a9573d6000803e3d6000fd5b505050506040513d60208110156130bf57600080fd5b505190505b919395979092949650565b6040517f737c1eea0000000000000000000000000000000000000000000000000000000081526020600482018181528351602484015283516060938493600093849373__BTCUtils______________________________9363737c1eea938a93928392604401918501908083838b5b8381101561315657818101518382015260200161313e565b50505050905090810190601f1680156131835780820380516001836020036101000a031916815260200191505b509250505060006040518083038186803b1580156131a057600080fd5b505af41580156131b4573d6000803e3d6000fd5b505050506040513d6000823e601f3d908101601f1916820160405260208110156131dd57600080fd5b8101908080516401000000008111156131f557600080fd5b8201602081018481111561320857600080fd5b815164010000000081118282018710171561322257600080fd5b50506040517f379cf68c0000000000000000000000000000000000000000000000000000000081526020600482018181528b5160248401528b51939a5073__BTCUtils______________________________965063379cf68c95508b94509283926044019185019080838360005b838110156132a8578181015183820152602001613290565b50505050905090810190601f1680156132d55780820380516001836020036101000a031916815260200191505b509250505060206040518083038186803b1580156132f257600080fd5b505af4158015613306573d6000803e3d6000fd5b505050506040513d602081101561331c57600080fd5b50519150600090505b8160ff168160ff1610156121b457604080517e9941a600000000000000000000000000000000000000000000000000000000815260ff83166024820152600481019182528651604482015286516133bf9273__BTCUtils______________________________92629941a6928a928792909182916064019060208601908083836000838110156120c85781810151838201526020016120b0565b9250600101613325565b6040517f20db3e0e000000000000000000000000000000000000000000000000000000008152602060048201818152845160248401528451600093849373__BTCUtils______________________________936320db3e0e9389939192839260440191908501908083838b5b8381101561344d578181015183820152602001613435565b50505050905090810190601f16801561347a5780820380516001836020036101000a031916815260200191505b509250505060006040518083038186803b15801561349757600080fd5b505af41580156134ab573d6000803e3d6000fd5b505050506040513d6000823e601f3d908101601f1916820160405260208110156134d457600080fd5b8101908080516401000000008111156134ec57600080fd5b820160208101848111156134ff57600080fd5b815164010000000081118282018710171561351957600080fd5b505060405160e060020a6347f5343102815260206004820181815283516024840152835173__BytesLib______________________________97506347f5343196509394509283926044019185019080838360005b8381101561358657818101518382015260200161356e565b50505050905090810190601f1680156135b35780820380516001836020036101000a031916815260200191505b509250505060206040518083038186803b1580156135d057600080fd5b505af41580156135e4573d6000803e3d6000fd5b505050506040513d60208110156135fa57600080fd5b5051905082811461360e5760009150613613565b600191505b5092915050565b6040517f3e39b4100000000000000000000000000000000000000000000000000000000081526020600482018181528351602484015283516000938493606093859373__BTCUtils______________________________93633e39b410938a93928392604401918501908083838b5b838110156136a1578181015183820152602001613689565b50505050905090810190601f1680156136ce5780820380516001836020036101000a031916815260200191505b509250505060206040518083038186803b1580156136eb57600080fd5b505af41580156136ff573d6000803e3d6000fd5b505050506040513d602081101561371557600080fd5b5051604080517f6a00000000000000000000000000000000000000000000000000000000000000815290516001918190038201902091955061375b908790600990613ad1565b6040518082805190602001908083835b6020831061378a5780518252601f19909201916020918201910161376b565b6001836020036101000a038019825116818451168082178552505050505050905001915050604051809103902060001916141561391d576040517fa6a54a940000000000000000000000000000000000000000000000000000000081526020600482018181528751602484015287516003965073__BTCUtils______________________________9363a6a54a94938a939283926044019185019080838360005b8381101561384357818101518382015260200161382b565b50505050905090810190601f1680156138705780820380516001836020036101000a031916815260200191505b509250505060006040518083038186803b15801561388d57600080fd5b505af41580156138a1573d6000803e3d6000fd5b505050506040513d6000823e601f3d908101601f1916820160405260208110156138ca57600080fd5b8101908080516401000000008111156138e257600080fd5b820160208101848111156138f557600080fd5b815164010000000081118282018710171561390f57600080fd5b50909550613ac99350505050565b613930856008600263ffffffff613ad116565b6040518082805190602001908083835b6020831061395f5780518252601f199092019160209182019101613940565b5181516000196020949094036101000a93909301928316921916919091179052604080519390910183900383207f220000000000000000000000000000000000000000000000000000000000000084529051928390036002019092209194505083141591506139e8905057600292506139e185600b602063ffffffff613ad116565b9150613ac9565b604080517f160000000000000000000000000000000000000000000000000000000000000081529051908190036002019020811415613a395760015b92506139e185600b601463ffffffff613ad116565b604080517f197600000000000000000000000000000000000000000000000000000000000081529051908190036002019020811415613a8957600492506139e185600c601463ffffffff613ad116565b604080517f17a900000000000000000000000000000000000000000000000000000000000081529051908190036002019020811415613ac9576005613a24565b509193909250565b606080828401855110151515613b4857604080517f08c379a000000000000000000000000000000000000000000000000000000000815260206004820152601360248201527f536c696365206f7574206f6620626f756e647300000000000000000000000000604482015290519081900360640190fd5b82158015613b6157604051915060208201604052613bab565b6040519150601f8416801560200281840101858101878315602002848b0101015b81831015613b9a578051835260209283019201613b82565b5050858452601f01601f1916604052505b50949350505050565b818101828110156122ca57604080517f08c379a000000000000000000000000000000000000000000000000000000000815260206004820152601960248201527f4f766572666c6f7720647572696e67206164646974696f6e2e00000000000000604482015290519081900360640190fd5b6060806040519050835180825260208201818101602087015b81831015613c57578051835260209283019201613c3f565b50855184518101855292509050808201602086015b81831015613c84578051835260209283019201613c6c565b509551919091011594909401601f01601f191660405293925050505600a165627a7a72305820aa4e1e0d23f90a0e72fb2ee31753d1867cb1c085ed8612431dc4dbaf8a8ff3460029",
  "source": "pragma solidity 0.4.25;\n\n/** @title ValidateSPV*/\n/** @author Summa (https://summa.one) */\n\nimport {BytesLib} from \"./BytesLib.sol\";\nimport {SafeMath} from \"./SafeMath.sol\";\nimport {BTCUtils} from \"./BTCUtils.sol\";\n\n\nlibrary ValidateSPV {\n\n    using BTCUtils for bytes;\n    using BTCUtils for uint256;\n    using BytesLib for bytes;\n    using SafeMath for uint256;\n\n    enum OutputTypes { NONE, WPKH, WSH, OP_RETURN, PKH, SH }\n\n    /// @notice                 Valides a tx inclusion in the block\n    /// @param _txid            The txid (LE)\n    /// @param _merkleRoot      The merkle root\n    /// @param _proof           The proof (concatenated LE hashes)\n    /// @param _index           The proof index\n    /// @return                 true if fully valid, false otherwise\n    function prove(\n        bytes32 _txid,\n        bytes32 _merkleRoot,\n        bytes _proof,\n        uint _index\n    ) public pure returns (bool) {\n\n        // If parsing failed, bubble up error\n        if (_txid == bytes32(0)) { return false; }\n\n        // If the first hash in the proof is not the txid, bubble up error\n        if (_proof.slice(0, 32).toBytes32() != _txid) { return false; }\n\n        // If the last hash in the proof is not the merkle root, bubble up error\n        if (_proof.slice(_proof.length - 32, 32).toBytes32() != _merkleRoot) { return false; }\n\n        // If the Merkle proof failed, bubble up error\n        if (!_proof.verifyHash256Merkle(_index)) { return false; }\n\n        return true;\n    }\n\n    /// @notice         Validates a tx from a bytestring\n    /// @dev            This supports ONLY WITNESS INPUTS AND OUTPUTS\n    /// @param _tx      Raw bytes tx\n    /// @return         Transaction num inputs, inputs, num outputs, outputs, locktime, txid\n    function parseTransaction(\n        bytes _tx\n    )\n    public pure returns (\n        bytes _nInputs,\n        bytes _inputs,\n        bytes _nOutputs,\n        bytes _outputs,\n        bytes _locktime,\n        bytes32 _txid\n    ) {\n\n        // Extract prefix and validate, if invalid, bubble up error\n        bytes memory _prefix = _tx.extractPrefix();\n        if (!validatePrefix(_prefix)) { return; }\n\n        // Extract version to calculate txid\n        bytes memory _version = _prefix.slice(0, 4);\n\n        // Extract number of inputs and inputs, if _nInputs is 0, bubble up error\n        (_nInputs, _inputs) = extractAllInputs(_tx);\n        if (keccak256(_nInputs) == keccak256(hex\"00\")) { return; }\n\n        // Extract number of outputs and outputs, if _nOutputs is 0, bubble up error\n        (_nOutputs, _outputs) = extractAllOutputs(_tx);\n        if (keccak256(_nOutputs) == keccak256(hex\"00\")) { return; }\n\n        // Extract locktime\n        _locktime = _tx.extractLocktimeLE();\n\n        // Calculate txid\n        _txid = transactionHash(_version, _nInputs, _inputs, _nOutputs, _outputs, _locktime);\n    }\n\n    /// @notice         Parses tx input\n    /// @param _tx      The raw byte tx\n    /// @return         Raw bytes num inputs and inputs\n    function extractAllInputs(bytes _tx) public pure returns (bytes _nInputs, bytes _inputs) {\n        _nInputs = _tx.extractNumInputsBytes();\n        uint8 _tmpN = _tx.extractNumInputs();\n\n        for (uint8 i = 0; i < _tmpN; i++) {\n            _inputs = _inputs.concat(_tx.extractInputAtIndex(i));\n        }\n    }\n\n    /// @notice         Parses tx outputs\n    /// @param _tx      The raw byte tx\n    /// @return         Raw bytes num outputs and outputs\n    function extractAllOutputs(bytes _tx) public pure returns (bytes _nOutputs, bytes _outputs) {\n        _nOutputs = _tx.extractNumOutputsBytes();\n        uint8 _tmpN = _tx.extractNumOutputs();\n\n        for (uint8 i = 0; i < _tmpN; i++) {\n            _outputs = _outputs.concat(_tx.extractOutputAtIndex(i));\n        }\n    }\n\n    /// @notice             Hashes transaction to get txid\n    /// @dev                This supports ONLY WITNESS INPUTS AND OUTPUTS\n    /// @param _version     4-bytes version\n    /// @param _nInputs     1-byte num inputs\n    /// @param _inputs      Raw bytes inputs\n    /// @param _nOutputs    1-byte num outputs\n    /// @param _outputs     Raw bytes ouputs\n    /// @return             32-byte transaction id, little endian\n    function transactionHash(\n        bytes _version,\n        bytes _nInputs,\n        bytes _inputs,\n        bytes _nOutputs,\n        bytes _outputs,\n        bytes _locktime\n    ) public pure returns (bytes32) {\n        // Get transaction hash dSha256(version + nIns + inputs + nOuts + outputs + locktime)\n        return abi.encodePacked(_version, _nInputs, _inputs, _nOutputs, _outputs, _locktime).hash256();\n    }\n\n    /// @notice         Validates the first 6 bytes of a transaction\n    /// @dev            First byte is the version. The next must be 0x0000000001\n    /// @param _bytes   Prefixed raw byte string (probably a tx)\n    /// @return         true if valid, otherwise false\n    function validatePrefix(bytes _bytes) public pure returns (bool) {\n\n        if (_bytes.length < 6) { return false; }\n\n        bytes32 _versionHash = keccak256(_bytes.slice(0, 1));\n\n        // Return true if prefix is version 1 or 2 and has segwit flag\n        return ((_versionHash == keccak256(hex\"01\") || _versionHash == keccak256(hex\"02\"))\n                && keccak256(_bytes.slice(1, 5)) == keccak256(hex\"0000000001\"));\n    }\n\n    /// @notice         Parses a tx input from raw input bytes\n    /// @dev            Checks for blank scriptSig\n    /// @param _input   Raw bytes tx input\n    /// @return         Tx input sequence number, tx hash, and index\n    function parseInput(bytes _input) public pure returns (uint32 _sequence, bytes32 _hash, uint32 _index) {\n\n        // Require segwit: if no 00 scriptSig, error\n        if (keccak256(_input.slice(36, 1)) != keccak256(hex\"00\")) { return; }\n\n        // Require that input is 41 bytes\n        if (_input.length != 41) { return; }\n\n        return (_input.extractSequence(), _input.extractTxId(), _input.extractTxIndex());\n    }\n\n    /// @notice         Parses a tx output from raw output bytes\n    /// @dev            Differentiates by output script prefix\n    /// @param _output  Raw bytes tx output\n    /// @return         Tx output value, output type, payload\n    function parseOutput(bytes _output) public pure returns (uint64 _value, uint8 _outputType, bytes _payload) {\n\n        _value = _output.extractValue();\n\n        if (keccak256(_output.slice(9, 1)) == keccak256(hex\"6a\")) {\n            // OP_RETURN\n            _outputType = uint8(OutputTypes.OP_RETURN);\n            _payload = _output.extractOpReturnData();\n        } else {\n            bytes32 _prefixHash = keccak256(_output.slice(8, 2));\n            if (_prefixHash == keccak256(hex\"2200\")) {\n                // P2WSH\n                _outputType = uint8(OutputTypes.WSH);\n                _payload = _output.slice(11, 32);\n            } else if (_prefixHash == keccak256(hex\"1600\")) {\n                // P2WPKH\n                _outputType = uint8(OutputTypes.WPKH);\n                _payload = _output.slice(11, 20);\n            } else if (_prefixHash == keccak256(hex\"1976\")) {\n                // PKH\n                _outputType = uint8(OutputTypes.PKH);\n                _payload = _output.slice(12, 20);\n            } else if (_prefixHash == keccak256(hex\"17a9\")) {\n                // SH\n                _outputType = uint8(OutputTypes.SH);\n                _payload = _output.slice(11, 20);\n            } else {\n                // If unidentifiable output type, bubble up error\n                return;\n            }\n        }\n\n        return (_value, _outputType, _payload);\n    }\n\n    /// @notice             Parses a block header struct from a bytestring\n    /// @dev                Block headers are always 80 bytes, see Bitcoin docs\n    /// @return             Header digest, version, previous block header hash, merkle root, timestamp, target, nonce\n    function parseHeader(bytes _header) public pure returns (\n        bytes32 _digest,\n        uint32 _version,\n        bytes32 _prevHash,\n        bytes32 _merkleRoot,\n        uint32 _timestamp,\n        uint256 _target,\n        uint32 _nonce\n    ) {\n        // If header has an invalid length, bubble up error\n        if (_header.length != 80) { return; }\n\n        _digest = abi.encodePacked(_header.hash256()).reverseEndianness().toBytes32();\n        _version = uint32(_header.slice(0, 4).reverseEndianness().bytesToUint());\n        _prevHash = _header.extractPrevBlockLE().toBytes32();\n        _merkleRoot = _header.extractMerkleRootLE().toBytes32();\n        _timestamp = _header.extractTimestamp();\n        _target = _header.extractTarget();\n        _nonce = uint32(_header.slice(76, 4).reverseEndianness().bytesToUint());\n\n        return(_digest, _version, _prevHash, _merkleRoot, _timestamp, _target, _nonce);\n    }\n\n    /// @notice             Checks validity of header chain\n    /// @notice             Compares the hash of each header to the prevHash in the next header\n    /// @param _headers     Raw byte array of header chain\n    /// @return             The total accumulated difficulty of the header chain\n    function validateHeaderChain(bytes _headers) public pure returns (uint256 _reqDiff) {\n\n        // Check header chain length\n        if (_headers.length % 80 != 0) { return 1; }\n\n        // Initialize header start index\n        bytes32 _digest;\n        uint256 _start = 0;\n\n        _reqDiff = 0;\n\n        for (uint i = 0; i < _headers.length / 80; i++) {\n\n            // ith header start index and ith header\n            _start = i * 80;\n            bytes memory _header = _headers.slice(_start, 80);\n\n            // After the first header, check that headers are in a chain\n            if (i != 0) {\n                if (!validateHeaderPrevHash(_header, _digest)) { return 2; }\n            }\n\n            // ith header target\n            uint256 _target = _header.extractTarget();\n\n            // Require that the header has sufficient work\n            _digest = _header.hash256();\n            if(abi.encodePacked(_digest).reverseEndianness().bytesToUint() > _target) {\n                return 3;\n            }\n\n            // Add ith header difficulty to difficulty sum\n            _reqDiff = _reqDiff.add(_target.calculateDifficulty());\n        }\n    }\n\n    /// @notice             Checks validity of header work\n    /// @param _digest      Header digest\n    /// @param _target      The target threshold\n    /// @return             true if header work is valid, false otherwise\n    function validateHeaderWork(bytes32 _digest, uint256 _target) public pure returns (bool) {\n        if (_digest == bytes32(0)) { return false; }\n        return (abi.encodePacked(_digest).bytesToUint() < _target);\n    }\n\n    /// @notice                     Checks validity of header chain\n    /// @dev                        Compares current header prevHash to previous header's digest\n    /// @param _header              The raw bytes header\n    /// @param _prevHeaderDigest    The previous header's digest\n    /// @return                     true if header chain is valid, false otherwise\n    function validateHeaderPrevHash(bytes _header, bytes32 _prevHeaderDigest) public pure returns (bool) {\n\n        // Extract prevHash of current header\n        bytes32 _prevHash = _header.extractPrevBlockLE().toBytes32();\n\n        // Compare prevHash of current header to previous header's digest\n        if (_prevHash != _prevHeaderDigest) { return false; }\n\n        return true;\n    }\n}\n",
  "sourcePath": "/Users/liamz/go/src/github.com/keep-network/tbtc/implementation/contracts/bitcoin-spv/ValidateSPV.sol",
  "compiler": {
    "name": "solc",
    "version": "0.4.25+commit.59dbf8f1.Emscripten.clang"
  },
  "schemaVersion": "3.0.10",
  "updatedAt": "2019-07-19T12:16:35.507Z",
  "devdoc": {
    "methods": {
      "extractAllInputs(bytes)": {
        "params": {
          "_tx": "The raw byte tx"
        },
        "return": "Raw bytes num inputs and inputs"
      },
      "extractAllOutputs(bytes)": {
        "params": {
          "_tx": "The raw byte tx"
        },
        "return": "Raw bytes num outputs and outputs"
      },
      "parseHeader(bytes)": {
        "details": "Block headers are always 80 bytes, see Bitcoin docs",
        "return": "Header digest, version, previous block header hash, merkle root, timestamp, target, nonce"
      },
      "parseInput(bytes)": {
        "details": "Checks for blank scriptSig",
        "params": {
          "_input": "Raw bytes tx input"
        },
        "return": "Tx input sequence number, tx hash, and index"
      },
      "parseOutput(bytes)": {
        "details": "Differentiates by output script prefix",
        "params": {
          "_output": "Raw bytes tx output"
        },
        "return": "Tx output value, output type, payload"
      },
      "parseTransaction(bytes)": {
        "details": "This supports ONLY WITNESS INPUTS AND OUTPUTS",
        "params": {
          "_tx": "Raw bytes tx"
        },
        "return": "Transaction num inputs, inputs, num outputs, outputs, locktime, txid"
      },
      "prove(bytes32,bytes32,bytes,uint256)": {
        "params": {
          "_index": "The proof index",
          "_merkleRoot": "The merkle root",
          "_proof": "The proof (concatenated LE hashes)",
          "_txid": "The txid (LE)"
        },
        "return": "true if fully valid, false otherwise"
      },
      "transactionHash(bytes,bytes,bytes,bytes,bytes,bytes)": {
        "details": "This supports ONLY WITNESS INPUTS AND OUTPUTS",
        "params": {
          "_inputs": "Raw bytes inputs",
          "_nInputs": "1-byte num inputs",
          "_nOutputs": "1-byte num outputs",
          "_outputs": "Raw bytes ouputs",
          "_version": "4-bytes version"
        },
        "return": "32-byte transaction id, little endian"
      },
      "validateHeaderChain(bytes)": {
        "params": {
          "_headers": "Raw byte array of header chain"
        },
        "return": "The total accumulated difficulty of the header chain"
      },
      "validateHeaderPrevHash(bytes,bytes32)": {
        "details": "Compares current header prevHash to previous header's digest",
        "params": {
          "_header": "The raw bytes header",
          "_prevHeaderDigest": "The previous header's digest"
        },
        "return": "true if header chain is valid, false otherwise"
      },
      "validateHeaderWork(bytes32,uint256)": {
        "params": {
          "_digest": "Header digest",
          "_target": "The target threshold"
        },
        "return": "true if header work is valid, false otherwise"
      },
      "validatePrefix(bytes)": {
        "details": "First byte is the version. The next must be 0x0000000001",
        "params": {
          "_bytes": "Prefixed raw byte string (probably a tx)"
        },
        "return": "true if valid, otherwise false"
      }
    }
  },
  "userdoc": {
    "methods": {
      "extractAllInputs(bytes)": {
        "notice": "Parses tx input"
      },
      "extractAllOutputs(bytes)": {
        "notice": "Parses tx outputs"
      },
      "parseHeader(bytes)": {
        "notice": "Parses a block header struct from a bytestring"
      },
      "parseInput(bytes)": {
        "notice": "Parses a tx input from raw input bytes"
      },
      "parseOutput(bytes)": {
        "notice": "Parses a tx output from raw output bytes"
      },
      "parseTransaction(bytes)": {
        "notice": "Validates a tx from a bytestring"
      },
      "prove(bytes32,bytes32,bytes,uint256)": {
        "notice": "Valides a tx inclusion in the block"
      },
      "transactionHash(bytes,bytes,bytes,bytes,bytes,bytes)": {
        "notice": "Hashes transaction to get txid"
      },
      "validateHeaderChain(bytes)": {
        "notice": "Checks validity of header chainCompares the hash of each header to the prevHash in the next header"
      },
      "validateHeaderPrevHash(bytes,bytes32)": {
        "notice": "Checks validity of header chain"
      },
      "validateHeaderWork(bytes32,uint256)": {
        "notice": "Checks validity of header work"
      },
      "validatePrefix(bytes)": {
        "notice": "Validates the first 6 bytes of a transaction"
      }
    }
  }
}