{
  "contractName": "Deposit",
  "abi": [
    {
      "inputs": [],
      "payable": false,
      "stateMutability": "nonpayable",
      "type": "constructor"
    },
    {
      "payable": true,
      "stateMutability": "payable",
      "type": "fallback"
    },
    {
      "constant": true,
      "inputs": [],
      "name": "getCurrentState",
      "outputs": [
        {
          "name": "",
          "type": "uint256"
        }
      ],
      "payable": false,
      "stateMutability": "view",
      "type": "function"
    },
    {
      "constant": true,
      "inputs": [],
      "name": "inActive",
      "outputs": [
        {
          "name": "",
          "type": "bool"
        }
      ],
      "payable": false,
      "stateMutability": "view",
      "type": "function"
    },
    {
      "constant": true,
      "inputs": [],
      "name": "remainingTerm",
      "outputs": [
        {
          "name": "",
          "type": "uint256"
        }
      ],
      "payable": false,
      "stateMutability": "view",
      "type": "function"
    },
    {
      "constant": true,
      "inputs": [],
      "name": "signerFee",
      "outputs": [
        {
          "name": "",
          "type": "uint256"
        }
      ],
      "payable": false,
      "stateMutability": "view",
      "type": "function"
    },
    {
      "constant": false,
      "inputs": [
        {
          "name": "_TBTCSystem",
          "type": "address"
        },
        {
          "name": "_TBTCToken",
          "type": "address"
        },
        {
          "name": "_TBTCDepositToken",
          "type": "address"
        },
        {
          "name": "_FeeRebateToken",
          "type": "address"
        },
        {
          "name": "_VendingMachine",
          "type": "address"
        },
        {
          "name": "_m",
          "type": "uint256"
        },
        {
          "name": "_n",
          "type": "uint256"
        }
      ],
      "name": "createNewDeposit",
      "outputs": [
        {
          "name": "",
          "type": "bool"
        }
      ],
      "payable": true,
      "stateMutability": "payable",
      "type": "function"
    },
    {
      "constant": false,
      "inputs": [
        {
          "name": "_outputValueBytes",
          "type": "bytes8"
        },
        {
          "name": "_requesterPKH",
          "type": "bytes20"
        },
        {
          "name": "_requesterAddress",
          "type": "address"
        }
      ],
      "name": "requestRedemption",
      "outputs": [
        {
          "name": "",
          "type": "bool"
        }
      ],
      "payable": false,
      "stateMutability": "nonpayable",
      "type": "function"
    },
    {
      "constant": true,
      "inputs": [
        {
          "name": "_requester",
          "type": "address"
        }
      ],
      "name": "getRedemptionTbtcRequirement",
      "outputs": [
        {
          "name": "",
          "type": "uint256"
        }
      ],
      "payable": false,
      "stateMutability": "view",
      "type": "function"
    },
    {
      "constant": false,
      "inputs": [
        {
          "name": "_v",
          "type": "uint8"
        },
        {
          "name": "_r",
          "type": "bytes32"
        },
        {
          "name": "_s",
          "type": "bytes32"
        }
      ],
      "name": "provideRedemptionSignature",
      "outputs": [
        {
          "name": "",
          "type": "bool"
        }
      ],
      "payable": false,
      "stateMutability": "nonpayable",
      "type": "function"
    },
    {
      "constant": false,
      "inputs": [
        {
          "name": "_previousOutputValueBytes",
          "type": "bytes8"
        },
        {
          "name": "_newOutputValueBytes",
          "type": "bytes8"
        }
      ],
      "name": "increaseRedemptionFee",
      "outputs": [
        {
          "name": "",
          "type": "bool"
        }
      ],
      "payable": false,
      "stateMutability": "nonpayable",
      "type": "function"
    },
    {
      "constant": false,
      "inputs": [
        {
          "name": "_txVersion",
          "type": "bytes4"
        },
        {
          "name": "_txInputVector",
          "type": "bytes"
        },
        {
          "name": "_txOutputVector",
          "type": "bytes"
        },
        {
          "name": "_txLocktime",
          "type": "bytes4"
        },
        {
          "name": "_merkleProof",
          "type": "bytes"
        },
        {
          "name": "_txIndexInBlock",
          "type": "uint256"
        },
        {
          "name": "_bitcoinHeaders",
          "type": "bytes"
        }
      ],
      "name": "provideRedemptionProof",
      "outputs": [
        {
          "name": "",
          "type": "bool"
        }
      ],
      "payable": false,
      "stateMutability": "nonpayable",
      "type": "function"
    },
    {
      "constant": false,
      "inputs": [],
      "name": "notifySignatureTimeout",
      "outputs": [
        {
          "name": "",
          "type": "bool"
        }
      ],
      "payable": false,
      "stateMutability": "nonpayable",
      "type": "function"
    },
    {
      "constant": false,
      "inputs": [],
      "name": "notifyRedemptionProofTimeout",
      "outputs": [
        {
          "name": "",
          "type": "bool"
        }
      ],
      "payable": false,
      "stateMutability": "nonpayable",
      "type": "function"
    },
    {
      "constant": false,
      "inputs": [],
      "name": "notifySignerSetupFailure",
      "outputs": [
        {
          "name": "",
          "type": "bool"
        }
      ],
      "payable": false,
      "stateMutability": "nonpayable",
      "type": "function"
    },
    {
      "constant": false,
      "inputs": [],
      "name": "retrieveSignerPubkey",
      "outputs": [
        {
          "name": "",
          "type": "bool"
        }
      ],
      "payable": false,
      "stateMutability": "nonpayable",
      "type": "function"
    },
    {
      "constant": false,
      "inputs": [],
      "name": "notifyFundingTimeout",
      "outputs": [
        {
          "name": "",
          "type": "bool"
        }
      ],
      "payable": false,
      "stateMutability": "nonpayable",
      "type": "function"
    },
    {
      "constant": false,
      "inputs": [
        {
          "name": "_v",
          "type": "uint8"
        },
        {
          "name": "_r",
          "type": "bytes32"
        },
        {
          "name": "_s",
          "type": "bytes32"
        },
        {
          "name": "_signedDigest",
          "type": "bytes32"
        },
        {
          "name": "_preimage",
          "type": "bytes"
        }
      ],
      "name": "provideFundingECDSAFraudProof",
      "outputs": [
        {
          "name": "",
          "type": "bool"
        }
      ],
      "payable": false,
      "stateMutability": "nonpayable",
      "type": "function"
    },
    {
      "constant": false,
      "inputs": [],
      "name": "notifyFraudFundingTimeout",
      "outputs": [
        {
          "name": "",
          "type": "bool"
        }
      ],
      "payable": false,
      "stateMutability": "nonpayable",
      "type": "function"
    },
    {
      "constant": false,
      "inputs": [
        {
          "name": "_txVersion",
          "type": "bytes4"
        },
        {
          "name": "_txInputVector",
          "type": "bytes"
        },
        {
          "name": "_txOutputVector",
          "type": "bytes"
        },
        {
          "name": "_txLocktime",
          "type": "bytes4"
        },
        {
          "name": "_fundingOutputIndex",
          "type": "uint8"
        },
        {
          "name": "_merkleProof",
          "type": "bytes"
        },
        {
          "name": "_txIndexInBlock",
          "type": "uint256"
        },
        {
          "name": "_bitcoinHeaders",
          "type": "bytes"
        }
      ],
      "name": "provideFraudBTCFundingProof",
      "outputs": [
        {
          "name": "",
          "type": "bool"
        }
      ],
      "payable": false,
      "stateMutability": "nonpayable",
      "type": "function"
    },
    {
      "constant": false,
      "inputs": [
        {
          "name": "_txVersion",
          "type": "bytes4"
        },
        {
          "name": "_txInputVector",
          "type": "bytes"
        },
        {
          "name": "_txOutputVector",
          "type": "bytes"
        },
        {
          "name": "_txLocktime",
          "type": "bytes4"
        },
        {
          "name": "_fundingOutputIndex",
          "type": "uint8"
        },
        {
          "name": "_merkleProof",
          "type": "bytes"
        },
        {
          "name": "_txIndexInBlock",
          "type": "uint256"
        },
        {
          "name": "_bitcoinHeaders",
          "type": "bytes"
        }
      ],
      "name": "provideBTCFundingProof",
      "outputs": [
        {
          "name": "",
          "type": "bool"
        }
      ],
      "payable": false,
      "stateMutability": "nonpayable",
      "type": "function"
    },
    {
      "constant": false,
      "inputs": [
        {
          "name": "_v",
          "type": "uint8"
        },
        {
          "name": "_r",
          "type": "bytes32"
        },
        {
          "name": "_s",
          "type": "bytes32"
        },
        {
          "name": "_signedDigest",
          "type": "bytes32"
        },
        {
          "name": "_preimage",
          "type": "bytes"
        }
      ],
      "name": "provideECDSAFraudProof",
      "outputs": [
        {
          "name": "",
          "type": "bool"
        }
      ],
      "payable": false,
      "stateMutability": "nonpayable",
      "type": "function"
    },
    {
      "constant": false,
      "inputs": [
        {
          "name": "_txVersion",
          "type": "bytes4"
        },
        {
          "name": "_txInputVector",
          "type": "bytes"
        },
        {
          "name": "_txOutputVector",
          "type": "bytes"
        },
        {
          "name": "_txLocktime",
          "type": "bytes4"
        },
        {
          "name": "_merkleProof",
          "type": "bytes"
        },
        {
          "name": "_txIndexInBlock",
          "type": "uint256"
        },
        {
          "name": "_targetInputIndex",
          "type": "uint8"
        },
        {
          "name": "_bitcoinHeaders",
          "type": "bytes"
        }
      ],
      "name": "provideSPVFraudProof",
      "outputs": [
        {
          "name": "",
          "type": "bool"
        }
      ],
      "payable": false,
      "stateMutability": "nonpayable",
      "type": "function"
    },
    {
      "constant": false,
      "inputs": [],
      "name": "purchaseSignerBondsAtAuction",
      "outputs": [
        {
          "name": "",
          "type": "bool"
        }
      ],
      "payable": false,
      "stateMutability": "nonpayable",
      "type": "function"
    },
    {
      "constant": false,
      "inputs": [],
      "name": "notifyCourtesyCall",
      "outputs": [
        {
          "name": "",
          "type": "bool"
        }
      ],
      "payable": false,
      "stateMutability": "nonpayable",
      "type": "function"
    },
    {
      "constant": false,
      "inputs": [],
      "name": "exitCourtesyCall",
      "outputs": [
        {
          "name": "",
          "type": "bool"
        }
      ],
      "payable": false,
      "stateMutability": "nonpayable",
      "type": "function"
    },
    {
      "constant": false,
      "inputs": [],
      "name": "notifyUndercollateralizedLiquidation",
      "outputs": [
        {
          "name": "",
          "type": "bool"
        }
      ],
      "payable": false,
      "stateMutability": "nonpayable",
      "type": "function"
    },
    {
      "constant": false,
      "inputs": [],
      "name": "notifyCourtesyTimeout",
      "outputs": [
        {
          "name": "",
          "type": "bool"
        }
      ],
      "payable": false,
      "stateMutability": "nonpayable",
      "type": "function"
    },
    {
      "constant": false,
      "inputs": [],
      "name": "notifyDepositExpiryCourtesyCall",
      "outputs": [
        {
          "name": "",
          "type": "bool"
        }
      ],
      "payable": false,
      "stateMutability": "nonpayable",
      "type": "function"
    }
  ],
  "bytecode": "0x608060405234801561001057600080fd5b506121f3806100206000396000f3fe60806040526004361061019c5760003560e01c806390669360116100ec578063d02fd9581161008a578063d9f74b0e11610064578063d9f74b0e14610d10578063e6d6aaba14610f83578063ea3db25014610f98578063f97a02fa14610fad5761019c565b8063d02fd958146109a6578063d459c416146109d9578063d5eef97114610c445761019c565b8063ac563be9116100c6578063ac563be9146106d0578063b4bd2e7a14610943578063c1b8736814610958578063c41595591461096d5761019c565b8063906693601461062757806396aab3111461067f5780639894d734146106945761019c565b8063378aa7011161015957806380be47d41161013357806380be47d41461033857806382925cf0146105ab5780638a68db65146105fd578063902d2ead146106125761019c565b8063378aa701146102f957806372ed2b4a1461030e57806375030f9c146103235761019c565b806306d6bf1a1461019e578063287b32e5146101c75780632c735daa146101dc5780632d099442146101f157806334cf5283146102bd57806335bc0ebe146102d2575b005b3480156101aa57600080fd5b506101b3610fc2565b604080519115158252519081900360200190f35b3480156101d357600080fd5b506101b3611034565b3480156101e857600080fd5b506101b3611087565b3480156101fd57600080fd5b506101b3600480360360a081101561021457600080fd5b60ff8235169160208101359160408201359160608101359181019060a081016080820135600160201b81111561024957600080fd5b82018360208201111561025b57600080fd5b803590602001918460018302840111600160201b8311171561027c57600080fd5b91908080601f0160208091040260200160405190810160405280939291908181526020018383808284376000920191909152509295506110da945050505050565b3480156102c957600080fd5b506101b36111e1565b3480156102de57600080fd5b506102e7611234565b60408051918252519081900360200190f35b34801561030557600080fd5b506102e76112b8565b34801561031a57600080fd5b506101b36112c8565b34801561032f57600080fd5b506102e761131b565b34801561034457600080fd5b506101b3600480360361010081101561035c57600080fd5b6001600160e01b03198235169190810190604081016020820135600160201b81111561038757600080fd5b82018360208201111561039957600080fd5b803590602001918460018302840111600160201b831117156103ba57600080fd5b91908080601f0160208091040260200160405190810160405280939291908181526020018383808284376000920191909152509295949360208101935035915050600160201b81111561040c57600080fd5b82018360208201111561041e57600080fd5b803590602001918460018302840111600160201b8311171561043f57600080fd5b91908080601f01602080910402602001604051908101604052809392919081815260200183838082843760009201919091525092956001600160e01b0319853516959094909350604081019250602001359050600160201b8111156104a357600080fd5b8201836020820111156104b557600080fd5b803590602001918460018302840111600160201b831117156104d657600080fd5b91908080601f016020809104026020016040519081016040528093929190818152602001838380828437600092019190915250929584359560ff60208701351695919450925060608101915060400135600160201b81111561053757600080fd5b82018360208201111561054957600080fd5b803590602001918460018302840111600160201b8311171561056a57600080fd5b91908080601f01602080910402602001604051908101604052809392919081815260200183838082843760009201919091525092955061136e945050505050565b6101b3600480360360e08110156105c157600080fd5b506001600160a01b0381358116916020810135821691604082013581169160608101358216916080820135169060a08101359060c001356115d5565b34801561060957600080fd5b506101b36116af565b34801561061e57600080fd5b506101b3611702565b34801561063357600080fd5b506101b36004803603606081101561064a57600080fd5b5080356001600160c01b0319169060208101356bffffffffffffffffffffffff191690604001356001600160a01b0316611755565b34801561068b57600080fd5b506101b36117fe565b3480156106a057600080fd5b506101b3600480360360408110156106b757600080fd5b506001600160c01b031981358116916020013516611851565b3480156106dc57600080fd5b506101b360048036036101008110156106f457600080fd5b6001600160e01b03198235169190810190604081016020820135600160201b81111561071f57600080fd5b82018360208201111561073157600080fd5b803590602001918460018302840111600160201b8311171561075257600080fd5b91908080601f0160208091040260200160405190810160405280939291908181526020018383808284376000920191909152509295949360208101935035915050600160201b8111156107a457600080fd5b8201836020820111156107b657600080fd5b803590602001918460018302840111600160201b831117156107d757600080fd5b91908080601f01602080910402602001604051908101604052809392919081815260200183838082843760009201919091525092956001600160e01b03198535169560ff60208701351695919450925060608101915060400135600160201b81111561084257600080fd5b82018360208201111561085457600080fd5b803590602001918460018302840111600160201b8311171561087557600080fd5b91908080601f01602080910402602001604051908101604052809392919081815260200183838082843760009201919091525092958435959094909350604081019250602001359050600160201b8111156108cf57600080fd5b8201836020820111156108e157600080fd5b803590602001918460018302840111600160201b8311171561090257600080fd5b91908080601f0160208091040260200160405190810160405280939291908181526020018383808284376000920191909152509295506118f0945050505050565b34801561094f57600080fd5b506101b3611b6b565b34801561096457600080fd5b506101b3611bbe565b34801561097957600080fd5b506101b36004803603606081101561099057600080fd5b5060ff8135169060208101359060400135611c11565b3480156109b257600080fd5b506102e7600480360360208110156109c957600080fd5b50356001600160a01b0316611c7b565b3480156109e557600080fd5b506101b3600480360360e08110156109fc57600080fd5b6001600160e01b03198235169190810190604081016020820135600160201b811115610a2757600080fd5b820183602082011115610a3957600080fd5b803590602001918460018302840111600160201b83111715610a5a57600080fd5b91908080601f0160208091040260200160405190810160405280939291908181526020018383808284376000920191909152509295949360208101935035915050600160201b811115610aac57600080fd5b820183602082011115610abe57600080fd5b803590602001918460018302840111600160201b83111715610adf57600080fd5b91908080601f01602080910402602001604051908101604052809392919081815260200183838082843760009201919091525092956001600160e01b0319853516959094909350604081019250602001359050600160201b811115610b4357600080fd5b820183602082011115610b5557600080fd5b803590602001918460018302840111600160201b83111715610b7657600080fd5b91908080601f01602080910402602001604051908101604052809392919081815260200183838082843760009201919091525092958435959094909350604081019250602001359050600160201b811115610bd057600080fd5b820183602082011115610be257600080fd5b803590602001918460018302840111600160201b83111715610c0357600080fd5b91908080601f016020809104026020016040519081016040528093929190818152602001838380828437600092019190915250929550611d10945050505050565b348015610c5057600080fd5b506101b3600480360360a0811015610c6757600080fd5b60ff8235169160208101359160408201359160608101359181019060a081016080820135600160201b811115610c9c57600080fd5b820183602082011115610cae57600080fd5b803590602001918460018302840111600160201b83111715610ccf57600080fd5b91908080601f016020809104026020016040519081016040528093929190818152602001838380828437600092019190915250929550611f68945050505050565b348015610d1c57600080fd5b506101b36004803603610100811015610d3457600080fd5b6001600160e01b03198235169190810190604081016020820135600160201b811115610d5f57600080fd5b820183602082011115610d7157600080fd5b803590602001918460018302840111600160201b83111715610d9257600080fd5b91908080601f0160208091040260200160405190810160405280939291908181526020018383808284376000920191909152509295949360208101935035915050600160201b811115610de457600080fd5b820183602082011115610df657600080fd5b803590602001918460018302840111600160201b83111715610e1757600080fd5b91908080601f01602080910402602001604051908101604052809392919081815260200183838082843760009201919091525092956001600160e01b03198535169560ff60208701351695919450925060608101915060400135600160201b811115610e8257600080fd5b820183602082011115610e9457600080fd5b803590602001918460018302840111600160201b83111715610eb557600080fd5b91908080601f01602080910402602001604051908101604052809392919081815260200183838082843760009201919091525092958435959094909350604081019250602001359050600160201b811115610f0f57600080fd5b820183602082011115610f2157600080fd5b803590602001918460018302840111600160201b83111715610f4257600080fd5b91908080601f016020809104026020016040519081016040528093929190818152602001838380828437600092019190915250929550611ffb945050505050565b348015610f8f57600080fd5b506101b36120c5565b348015610fa457600080fd5b506101b3612118565b348015610fb957600080fd5b506101b361216b565b60008073__DepositFunding________________________63490f787190916040518263ffffffff1660e01b81526004018082815260200191505060006040518083038186803b15801561101557600080fd5b505af4158015611029573d6000803e3d6000fd5b505050506001905090565b60008073__DepositLiquidation____________________633bd675c890916040518263ffffffff1660e01b81526004018082815260200191505060006040518083038186803b15801561101557600080fd5b60008073__DepositLiquidation____________________632ea8450690916040518263ffffffff1660e01b81526004018082815260200191505060006040518083038186803b15801561101557600080fd5b60008073__DepositFunding________________________63fb12d9df909188888888886040518763ffffffff1660e01b8152600401808781526020018660ff1660ff16815260200185815260200184815260200183815260200180602001828103825283818151815260200191508051906020019080838360005b8381101561116e578181015183820152602001611156565b50505050905090810190601f16801561119b5780820380516001836020036101000a031916815260200191505b5097505050505050505060006040518083038186803b1580156111bd57600080fd5b505af41580156111d1573d6000803e3d6000fd5b5060019998505050505050505050565b60008073__DepositRedemption_____________________63cd53895490916040518263ffffffff1660e01b81526004018082815260200191505060006040518083038186803b15801561101557600080fd5b60008073__DepositUtils__________________________6391f88c8590916040518263ffffffff1660e01b81526004018082815260200191505060206040518083038186803b15801561128757600080fd5b505af415801561129b573d6000803e3d6000fd5b505050506040513d60208110156112b157600080fd5b5051905090565b600454600160a01b900460ff1690565b60008073__DepositLiquidation____________________63a43c845b90916040518263ffffffff1660e01b81526004018082815260200191505060006040518083038186803b15801561101557600080fd5b60008073__DepositUtils__________________________63c02a309590916040518263ffffffff1660e01b81526004018082815260200191505060206040518083038186803b15801561128757600080fd5b60008073__DepositLiquidation____________________63b9f853f890918b8b8b8b8b8b8b8b6040518a63ffffffff1660e01b8152600401808a8152602001896001600160e01b0319166001600160e01b03191681526020018060200180602001886001600160e01b0319166001600160e01b0319168152602001806020018781526020018660ff1660ff1681526020018060200185810385528c818151815260200191508051906020019080838360005b83811015611439578181015183820152602001611421565b50505050905090810190601f1680156114665780820380516001836020036101000a031916815260200191505b5085810384528b5181528b516020918201918d019080838360005b83811015611499578181015183820152602001611481565b50505050905090810190601f1680156114c65780820380516001836020036101000a031916815260200191505b5085810383528951815289516020918201918b019080838360005b838110156114f95781810151838201526020016114e1565b50505050905090810190601f1680156115265780820380516001836020036101000a031916815260200191505b50858103825286518152865160209182019188019080838360005b83811015611559578181015183820152602001611541565b50505050905090810190601f1680156115865780820380516001836020036101000a031916815260200191505b509d505050505050505050505050505060006040518083038186803b1580156115ae57600080fd5b505af41580156115c2573d6000803e3d6000fd5b5060019c9b505050505050505050505050565b600080546001600160a01b03199081166001600160a01b038a81169190911783556001805483168a831617905560028054831689831617905560038054831688831617905560048054909216908616178155604080516309ab65f560e01b815291820183905260248201859052604482018490525173__DepositFunding________________________916309ab65f5916064808301926020929190829003018186803b15801561168557600080fd5b505af4158015611699573d6000803e3d6000fd5b505050506040513d60208110156111d157600080fd5b60008073__DepositRedemption_____________________635976635790916040518263ffffffff1660e01b81526004018082815260200191505060006040518083038186803b15801561101557600080fd5b60008073__DepositLiquidation____________________63c396a1f490916040518263ffffffff1660e01b81526004018082815260200191505060006040518083038186803b15801561101557600080fd5b60408051636874c9b360e01b81526000600482018190526001600160c01b0319861660248301526bffffffffffffffffffffffff19851660448301526001600160a01b0384166064830152915173__DepositRedemption_____________________91636874c9b39160848083019286929190829003018186803b1580156117dc57600080fd5b505af41580156117f0573d6000803e3d6000fd5b506001979650505050505050565b60008073__DepositLiquidation____________________63a221542190916040518263ffffffff1660e01b81526004018082815260200191505060006040518083038186803b15801561101557600080fd5b60408051632d0c21bf60e01b81526000600482018190526001600160c01b0319808616602484015284166044830152915173__DepositRedemption_____________________91632d0c21bf916064808301926020929190829003018186803b1580156118bd57600080fd5b505af41580156118d1573d6000803e3d6000fd5b505050506040513d60208110156118e757600080fd5b50519392505050565b60008073__DepositFunding________________________63f8e39deb90918b8b8b8b8b8b8b8b6040518a63ffffffff1660e01b8152600401808a8152602001896001600160e01b0319166001600160e01b03191681526020018060200180602001886001600160e01b0319166001600160e01b03191681526020018760ff1660ff168152602001806020018681526020018060200185810385528c818151815260200191508051906020019080838360005b838110156119bb5781810151838201526020016119a3565b50505050905090810190601f1680156119e85780820380516001836020036101000a031916815260200191505b5085810384528b5181528b516020918201918d019080838360005b83811015611a1b578181015183820152602001611a03565b50505050905090810190601f168015611a485780820380516001836020036101000a031916815260200191505b5085810383528851815288516020918201918a019080838360005b83811015611a7b578181015183820152602001611a63565b50505050905090810190601f168015611aa85780820380516001836020036101000a031916815260200191505b50858103825286518152865160209182019188019080838360005b83811015611adb578181015183820152602001611ac3565b50505050905090810190601f168015611b085780820380516001836020036101000a031916815260200191505b509d505050505050505050505050505060206040518083038186803b158015611b3057600080fd5b505af4158015611b44573d6000803e3d6000fd5b505050506040513d6020811015611b5a57600080fd5b5060019a9950505050505050505050565b60008073__DepositLiquidation____________________6393a3866490916040518263ffffffff1660e01b81526004018082815260200191505060006040518083038186803b15801561101557600080fd5b60008073__DepositFunding________________________635347b1de90916040518263ffffffff1660e01b81526004018082815260200191505060006040518083038186803b15801561101557600080fd5b60408051631e3435d560e11b815260006004820181905260ff861660248301526044820185905260648201849052915173__DepositRedemption_____________________91633c686baa9160848083019286929190829003018186803b1580156117dc57600080fd5b6040805163b17f218760e01b81526000600482018190526001600160a01b0384166024830152915173__DepositRedemption_____________________9163b17f2187916044808301926020929190829003018186803b158015611cde57600080fd5b505af4158015611cf2573d6000803e3d6000fd5b505050506040513d6020811015611d0857600080fd5b505192915050565b60008073__DepositRedemption_____________________636c7e2b9d90918a8a8a8a8a8a8a6040518963ffffffff1660e01b815260040180898152602001886001600160e01b0319166001600160e01b03191681526020018060200180602001876001600160e01b0319166001600160e01b0319168152602001806020018681526020018060200185810385528b818151815260200191508051906020019080838360005b83811015611dce578181015183820152602001611db6565b50505050905090810190601f168015611dfb5780820380516001836020036101000a031916815260200191505b5085810384528a5181528a516020918201918c019080838360005b83811015611e2e578181015183820152602001611e16565b50505050905090810190601f168015611e5b5780820380516001836020036101000a031916815260200191505b5085810383528851815288516020918201918a019080838360005b83811015611e8e578181015183820152602001611e76565b50505050905090810190601f168015611ebb5780820380516001836020036101000a031916815260200191505b50858103825286518152865160209182019188019080838360005b83811015611eee578181015183820152602001611ed6565b50505050905090810190601f168015611f1b5780820380516001836020036101000a031916815260200191505b509c5050505050505050505050505060006040518083038186803b158015611f4257600080fd5b505af4158015611f56573d6000803e3d6000fd5b5060019b9a5050505050505050505050565b60008073__DepositLiquidation____________________634941676c909188888888886040518763ffffffff1660e01b8152600401808781526020018660ff1660ff16815260200185815260200184815260200183815260200180602001828103825283818151815260200191508051906020019080838360008381101561116e578181015183820152602001611156565b60008073__DepositFunding________________________63d745519390918b8b8b8b8b8b8b8b6040518a63ffffffff1660e01b8152600401808a8152602001896001600160e01b0319166001600160e01b03191681526020018060200180602001886001600160e01b0319166001600160e01b03191681526020018760ff1660ff168152602001806020018681526020018060200185810385528c81815181526020019150805190602001908083836000838110156119bb5781810151838201526020016119a3565b60008073__DepositFunding________________________63cd40cc6490916040518263ffffffff1660e01b81526004018082815260200191505060006040518083038186803b15801561101557600080fd5b60008073__DepositFunding________________________63bb21d02490916040518263ffffffff1660e01b81526004018082815260200191505060006040518083038186803b15801561101557600080fd5b60008073__DepositStates_________________________630f2c635590916040518263ffffffff1660e01b81526004018082815260200191505060206040518083038186803b15801561128757600080fdfea265627a7a7230582032657cf121941913e77deb2cdf300b04108547cde28aa0f147bdef228972773664736f6c634300050a0032",
  "source": "pragma solidity ^0.5.10;\n\nimport {DepositLiquidation} from \"./DepositLiquidation.sol\";\nimport {DepositUtils} from \"./DepositUtils.sol\";\nimport {DepositFunding} from \"./DepositFunding.sol\";\nimport {DepositRedemption} from \"./DepositRedemption.sol\";\nimport {DepositStates} from \"./DepositStates.sol\";\n\ncontract Deposit {\n\n    using DepositRedemption for DepositUtils.Deposit;\n    using DepositFunding for DepositUtils.Deposit;\n    using DepositLiquidation for DepositUtils.Deposit;\n    using DepositUtils for DepositUtils.Deposit;\n    using DepositStates for DepositUtils.Deposit;\n\n    DepositUtils.Deposit self;\n\n    // We separate the constructor from createNewDeposit to make proxy factories easier\n    /* solium-disable-next-line no-empty-blocks */\n    constructor () public {}\n\n    function () external payable {}\n\n    /// @notice     Get the integer representing the current state\n    /// @dev        We implement this because contracts don't handle foreign enums well\n    /// @return     The 0-indexed state from the DepositStates enum\n    function getCurrentState() public view returns (uint256) {\n        return uint256(self.currentState);\n    }\n\n    /// @notice     Check if the Deposit is in ACTIVE state.\n    /// @return     True if state is ACTIVE, fale otherwise.\n    function inActive() public view returns (bool) {\n        return self.inActive();\n    }\n\n    /// @notice Retrieve the remaining term of the deposit in seconds.\n    /// @dev    The value is not guaranteed since block.timestmap can be lightly manipulated by miners.\n    /// @return The remaining term of the deposit in seconds. 0 if already at term\n    function remainingTerm() public view returns(uint256){\n        return self.remainingTerm();\n    }\n\n    /// @notice     Get the signer fee for the Deposit.\n    /// @return     Fee amount in TBTC\n    function signerFee() public view returns (uint256) {\n        return self.signerFee();\n    }\n\n    // THIS IS THE INIT FUNCTION\n    /// @notice         The system can spin up a new deposit\n    /// @dev            This should be called by an approved contract, not a developer\n    /// @param _m       m for m-of-n\n    /// @param _m       n for m-of-n\n    /// @return         True if successful, otherwise revert\n    function createNewDeposit(\n        address _TBTCSystem,\n        address _TBTCToken,\n        address _TBTCDepositToken,\n        address _FeeRebateToken,\n        address _VendingMachine,\n        uint256 _m,\n        uint256 _n\n    ) public payable returns (bool) {\n        self.TBTCSystem = _TBTCSystem;\n        self.TBTCToken = _TBTCToken;\n        self.TBTCDepositToken = _TBTCDepositToken;\n        self.FeeRebateToken = _FeeRebateToken;\n        self.VendingMachine = _VendingMachine;\n        self.createNewDeposit(_m, _n);\n        return true;\n    }\n\n    /// @notice                     Anyone can request redemption\n    /// @dev                        The redeemer specifies details about the Bitcoin redemption tx\n    /// @param  _outputValueBytes   The 8-byte LE output size\n    /// @param  _requesterPKH       The 20-byte Bitcoin pubkeyhash to which to send funds\n    /// @return                     True if successful, otherwise revert\n    function requestRedemption(\n        bytes8 _outputValueBytes,\n        bytes20 _requesterPKH,\n        address payable _requesterAddress\n    ) public returns (bool) {\n        self.requestRedemption(_outputValueBytes, _requesterPKH, _requesterAddress);\n        return true;\n    }\n\n    /// @notice View function for access to TBTC required by redemption.\n    /// @return The amount in TBTC needed to redeem the deposit.\n    function getRedemptionTbtcRequirement(address _requester) public view returns(uint256){       \n        return self.getRedemptionTbtcRequirement(_requester);\n    }\n\n    /// @notice     Anyone may provide a withdrawal signature if it was requested\n    /// @dev        The signers will be penalized if this (or provideRedemptionProof) is not called\n    /// @param  _v  Signature recovery value\n    /// @param  _r  Signature R value\n    /// @param  _s  Signature S value\n    /// @return     True if successful, False if prevented by timeout, otherwise revert\n    function provideRedemptionSignature(\n        uint8 _v,\n        bytes32 _r,\n        bytes32 _s\n    ) public returns (bool) {\n        self.provideRedemptionSignature(_v, _r, _s);\n        return true;\n    }\n\n    /// @notice                             Anyone may notify the contract that a fee bump is needed\n    /// @dev                                This sends us back to AWAITING_WITHDRAWAL_SIGNATURE\n    /// @param  _previousOutputValueBytes   The previous output's value\n    /// @param  _newOutputValueBytes        The new output's value\n    /// @return                             True if successful, False if prevented by timeout, otherwise revert\n    function increaseRedemptionFee(\n        bytes8 _previousOutputValueBytes,\n        bytes8 _newOutputValueBytes\n    ) public returns (bool) {\n        return self.increaseRedemptionFee(_previousOutputValueBytes, _newOutputValueBytes);\n    }\n\n    /// @notice                 Anyone may provide a withdrawal proof to prove redemption\n    /// @dev                    The signers will be penalized if this is not called\n    /// @param  _txVersion      Transaction version number (4-byte LE)\n    /// @param  _txInputVector  All transaction inputs prepended by the number of inputs encoded as a VarInt, max 0xFC(252) inputs\n    /// @param  _txOutputVector All transaction outputs prepended by the number of outputs encoded as a VarInt, max 0xFC(252) outputs\n    /// @param  _txLocktime     Final 4 bytes of the transaction\n    /// @param  _merkleProof    The merkle proof of inclusion of the tx in the bitcoin block\n    /// @param  _txIndexInBlock The index of the tx in the Bitcoin block (0-indexed)\n    /// @param  _bitcoinHeaders An array of tightly-packed bitcoin headers\n    function provideRedemptionProof(\n        bytes4 _txVersion,\n        bytes memory _txInputVector,\n        bytes memory _txOutputVector,\n        bytes4 _txLocktime,\n        bytes memory _merkleProof,\n        uint256 _txIndexInBlock,\n        bytes memory _bitcoinHeaders\n    ) public returns (bool) {\n        self.provideRedemptionProof(\n            _txVersion,\n            _txInputVector,\n            _txOutputVector,\n            _txLocktime,\n            _merkleProof,\n            _txIndexInBlock,\n            _bitcoinHeaders\n        );\n        return true;\n    }\n\n    /// @notice     Anyone may notify the contract that the signers have failed to produce a signature\n    /// @dev        This is considered fraud, and is punished\n    /// @return     True if successful, otherwise revert\n    function notifySignatureTimeout() public returns (bool) {\n        self.notifySignatureTimeout();\n        return true;\n    }\n\n    /// @notice     Anyone may notify the contract that the signers have failed to produce a redemption proof\n    /// @dev        This is considered fraud, and is punished\n    /// @return     True if successful, otherwise revert\n    function notifyRedemptionProofTimeout() public returns (bool) {\n        self.notifyRedemptionProofTimeout();\n        return true;\n    }\n\n    //\n    // FUNDING FLOW\n    //\n\n    /// @notice     Anyone may notify the contract that signing group setup has timed out\n    /// @dev        We rely on the keep system punishes the signers in this case\n    /// @return     True if successful, otherwise revert\n    function notifySignerSetupFailure() public returns (bool) {\n        self.notifySignerSetupFailure();\n        return true;\n    }\n\n    /// @notice             we poll the Keep contract to retrieve our pubkey\n    /// @dev                We store the pubkey as 2 bytestrings, X and Y.\n    /// @return             True if successful, otherwise revert\n    function retrieveSignerPubkey() public returns (bool) {\n        self.retrieveSignerPubkey();\n        return true;\n    }\n\n    /// @notice     Anyone may notify the contract that the funder has failed to send BTC\n    /// @dev        This is considered a funder fault, and we revoke their bond\n    /// @return     True if successful, otherwise revert\n    function notifyFundingTimeout() public returns (bool) {\n        self.notifyFundingTimeout();\n        return true;\n    }\n\n    /// @notice                 Anyone can provide a signature that was not requested to prove fraud during funding\n    /// @dev                    ECDSA is NOT SECURE unless you verify the digest\n    /// @param  _v              Signature recovery value\n    /// @param  _r              Signature R value\n    /// @param  _s              Signature S value\n    /// @param _signedDigest    The digest signed by the signature vrs tuple\n    /// @param _preimage        The sha256 preimage of the digest\n    /// @return                 True if successful, otherwise revert\n    function provideFundingECDSAFraudProof(\n        uint8 _v,\n        bytes32 _r,\n        bytes32 _s,\n        bytes32 _signedDigest,\n        bytes memory _preimage\n    ) public returns (bool) {\n        self.provideFundingECDSAFraudProof(_v, _r, _s, _signedDigest, _preimage);\n        return true;\n    }\n\n    /// @notice     Anyone may notify the contract no funding proof was submitted during funding fraud\n    /// @dev        This is not a funder fault. The signers have faulted, so the funder shouldn't fund\n    /// @return     True if successful, otherwise revert\n    function notifyFraudFundingTimeout() public returns (bool) {\n        self.notifyFraudFundingTimeout();\n        return true;\n    }\n\n    /// @notice                     Anyone may notify the deposit of a funding proof during funding fraud\n    //                              We reward the funder the entire bond if this occurs\n    /// @dev                        Takes a pre-parsed transaction and calculates values needed to verify funding\n    /// @param _txVersion           Transaction version number (4-byte LE)\n    /// @param _txInputVector       All transaction inputs prepended by the number of inputs encoded as a VarInt, max 0xFC(252) inputs\n    /// @param _txOutputVector      All transaction outputs prepended by the number of outputs encoded as a VarInt, max 0xFC(252) outputs\n    /// @param _txLocktime          Final 4 bytes of the transaction\n    /// @param _fundingOutputIndex  Index of funding output in _txOutputVector (0-indexed)\n    /// @param _merkleProof         The merkle proof of transaction inclusion in a block\n    /// @param _txIndexInBlock      Transaction index in the block (0-indexed)\n    /// @param _bitcoinHeaders      Single bytestring of 80-byte bitcoin headers, lowest height first\n    /// @return                     True if no errors are thrown\n    function provideFraudBTCFundingProof(\n        bytes4 _txVersion,\n        bytes memory _txInputVector,\n        bytes memory _txOutputVector,\n        bytes4 _txLocktime,\n        uint8 _fundingOutputIndex,\n        bytes memory _merkleProof,\n        uint256 _txIndexInBlock,\n        bytes memory _bitcoinHeaders\n    ) public returns (bool) {\n        self.provideFraudBTCFundingProof(\n            _txVersion,\n            _txInputVector,\n            _txOutputVector,\n            _txLocktime,\n            _fundingOutputIndex,\n            _merkleProof,\n            _txIndexInBlock,\n            _bitcoinHeaders\n        );\n        return true;\n    }\n\n    /// @notice                     Anyone may notify the deposit of a funding proof to activate the deposit\n    ///                             This is the happy-path of the funding flow. It means that we have succeeded\n    /// @dev                        Takes a pre-parsed transaction and calculates values needed to verify funding\n    /// @param _txVersion           Transaction version number (4-byte LE)\n    /// @param _txInputVector       All transaction inputs prepended by the number of inputs encoded as a VarInt, max 0xFC(252) inputs\n    /// @param _txOutputVector      All transaction outputs prepended by the number of outputs encoded as a VarInt, max 0xFC(252) outputs\n    /// @param _txLocktime          Final 4 bytes of the transaction\n    /// @param _fundingOutputIndex  Index of funding output in _txOutputVector (0-indexed)\n    /// @param _merkleProof         The merkle proof of transaction inclusion in a block\n    /// @param _txIndexInBlock      Transaction index in the block (0-indexed)\n    /// @param _bitcoinHeaders      Single bytestring of 80-byte bitcoin headers, lowest height first\n    /// @return                     True if no errors are thrown\n    function provideBTCFundingProof(\n        bytes4 _txVersion,\n        bytes memory _txInputVector,\n        bytes memory _txOutputVector,\n        bytes4 _txLocktime,\n        uint8 _fundingOutputIndex,\n        bytes memory _merkleProof,\n        uint256 _txIndexInBlock,\n        bytes memory _bitcoinHeaders\n    ) public returns (bool) {\n        self.provideBTCFundingProof(\n            _txVersion,\n            _txInputVector,\n            _txOutputVector,\n            _txLocktime,\n            _fundingOutputIndex,\n            _merkleProof,\n            _txIndexInBlock,\n            _bitcoinHeaders\n        );\n        return true;\n    }\n\n    //\n    // FRAUD\n    //\n\n    /// @notice                 Anyone can provide a signature that was not requested to prove fraud\n    /// @dev                    ECDSA is NOT SECURE unless you verify the digest\n    /// @param  _v              Signature recovery value\n    /// @param  _r              Signature R value\n    /// @param  _s              Signature S value\n    /// @param _signedDigest    The digest signed by the signature vrs tuple\n    /// @param _preimage        The sha256 preimage of the digest\n    /// @return                 True if successful, otherwise revert\n    function provideECDSAFraudProof(\n        uint8 _v,\n        bytes32 _r,\n        bytes32 _s,\n        bytes32 _signedDigest,\n        bytes memory _preimage\n    ) public returns (bool) {\n        self.provideECDSAFraudProof(_v, _r, _s, _signedDigest, _preimage);\n        return true;\n    }\n\n    /// @notice                   Anyone may notify the deposit of fraud via an SPV proof\n    /// @dev                      We strong prefer ECDSA fraud proofs\n    /// @param  _txVersion        Transaction version number (4-byte LE)\n    /// @param  _txInputVector    All transaction inputs prepended by the number of inputs encoded as a VarInt, max 0xFC(252) inputs\n    /// @param  _txOutputVector   All transaction outputs prepended by the number of outputs encoded as a VarInt, max 0xFC(252) outputs\n    /// @param  _txLocktime       Final 4 bytes of the transaction\n    /// @param  _merkleProof      The merkle proof of inclusion of the tx in the bitcoin block\n    /// @param  _txIndexInBlock   The index of the tx in the Bitcoin block (0-indexed)\n    /// @param  _targetInputIndex Index of the input that spends the custodied UTXO\n    /// @param  _bitcoinHeaders   An array of tightly-packed bitcoin headers\n    /// @return                   True if successful, otherwise revert\n    function provideSPVFraudProof(\n        bytes4 _txVersion,\n        bytes memory _txInputVector,\n        bytes memory _txOutputVector,\n        bytes4 _txLocktime,\n        bytes memory _merkleProof,\n        uint256 _txIndexInBlock,\n        uint8 _targetInputIndex,\n        bytes memory _bitcoinHeaders\n    ) public returns (bool) {\n        self.provideSPVFraudProof(\n            _txVersion,\n            _txInputVector,\n            _txOutputVector,\n            _txLocktime,\n            _merkleProof,\n            _txIndexInBlock,\n            _targetInputIndex,\n            _bitcoinHeaders\n        );\n        return true;\n    }\n\n    //\n    // LIQUIDATION\n    //\n\n    /// @notice     Closes an auction and purchases the signer bonds. Payout to buyer, funder, then signers if not fraud\n    /// @dev        For interface, reading auctionValue will give a past value. the current is better\n    /// @return     True if successful, revert otherwise\n    function purchaseSignerBondsAtAuction() public returns (bool) {\n        self.purchaseSignerBondsAtAuction();\n        return true;\n    }\n\n    /// @notice     Notify the contract that the signers are undercollateralized\n    /// @dev        Calls out to the system for oracle info\n    /// @return     True if successful, otherwise revert\n    function notifyCourtesyCall() public returns (bool) {\n        self.notifyCourtesyCall();\n        return true;\n    }\n\n    /// @notice     Goes from courtesy call to active\n    /// @dev        Only callable if collateral is sufficient and the deposit is not expiring\n    /// @return     True if successful, otherwise revert\n    function exitCourtesyCall() public returns (bool) {\n        self.exitCourtesyCall();\n        return true;\n    }\n\n    /// @notice     Notify the contract that the signers are undercollateralized\n    /// @dev        Calls out to the system for oracle info\n    /// @return     True if successful, otherwise revert\n    function notifyUndercollateralizedLiquidation() public returns (bool) {\n        self.notifyUndercollateralizedLiquidation();\n        return true;\n    }\n\n    /// @notice     Notifies the contract that the courtesy period has elapsed\n    /// @dev        This is treated as an abort, rather than fraud\n    /// @return     True if successful, otherwise revert\n    function notifyCourtesyTimeout() public returns (bool) {\n        self.notifyCourtesyTimeout();\n        return true;\n    }\n\n    /// @notice     Notifies the contract that its term limit has been reached\n    /// @dev        This initiates a courtesy call\n    /// @return     True if successful, otherwise revert\n    function notifyDepositExpiryCourtesyCall() public returns (bool) {\n        self.notifyDepositExpiryCourtesyCall();\n        return true;\n    }\n}\n",
  "sourcePath": "/tmp/82d41b08df438d8767a9183c446794e042fab4fc/implementation/contracts/deposit/Deposit.sol",
  "compiler": {
    "name": "solc",
    "version": "0.5.10+commit.5a6ea5b1.Emscripten.clang"
  },
  "schemaVersion": "3.0.21",
  "updatedAt": "2020-01-22T20:02:00.823Z",
  "networkType": "ethereum",
  "devdoc": {
    "methods": {
      "createNewDeposit(address,address,address,address,address,uint256,uint256)": {
        "details": "This should be called by an approved contract, not a developer",
        "params": {
          "_m": "n for m-of-n"
        },
        "return": "True if successful, otherwise revert"
      },
      "exitCourtesyCall()": {
        "details": "Only callable if collateral is sufficient and the deposit is not expiring",
        "return": "True if successful, otherwise revert"
      },
      "getCurrentState()": {
        "details": "We implement this because contracts don't handle foreign enums well",
        "return": "The 0-indexed state from the DepositStates enum"
      },
      "getRedemptionTbtcRequirement(address)": {
        "return": "The amount in TBTC needed to redeem the deposit."
      },
      "inActive()": {
        "return": "True if state is ACTIVE, fale otherwise."
      },
      "increaseRedemptionFee(bytes8,bytes8)": {
        "details": "This sends us back to AWAITING_WITHDRAWAL_SIGNATURE",
        "params": {
          "_newOutputValueBytes": "The new output's value",
          "_previousOutputValueBytes": "The previous output's value"
        },
        "return": "True if successful, False if prevented by timeout, otherwise revert"
      },
      "notifyCourtesyCall()": {
        "details": "Calls out to the system for oracle info",
        "return": "True if successful, otherwise revert"
      },
      "notifyCourtesyTimeout()": {
        "details": "This is treated as an abort, rather than fraud",
        "return": "True if successful, otherwise revert"
      },
      "notifyDepositExpiryCourtesyCall()": {
        "details": "This initiates a courtesy call",
        "return": "True if successful, otherwise revert"
      },
      "notifyFraudFundingTimeout()": {
        "details": "This is not a funder fault. The signers have faulted, so the funder shouldn't fund",
        "return": "True if successful, otherwise revert"
      },
      "notifyFundingTimeout()": {
        "details": "This is considered a funder fault, and we revoke their bond",
        "return": "True if successful, otherwise revert"
      },
      "notifyRedemptionProofTimeout()": {
        "details": "This is considered fraud, and is punished",
        "return": "True if successful, otherwise revert"
      },
      "notifySignatureTimeout()": {
        "details": "This is considered fraud, and is punished",
        "return": "True if successful, otherwise revert"
      },
      "notifySignerSetupFailure()": {
        "details": "We rely on the keep system punishes the signers in this case",
        "return": "True if successful, otherwise revert"
      },
      "notifyUndercollateralizedLiquidation()": {
        "details": "Calls out to the system for oracle info",
        "return": "True if successful, otherwise revert"
      },
      "provideBTCFundingProof(bytes4,bytes,bytes,bytes4,uint8,bytes,uint256,bytes)": {
        "details": "Takes a pre-parsed transaction and calculates values needed to verify funding",
        "params": {
          "_bitcoinHeaders": "Single bytestring of 80-byte bitcoin headers, lowest height first",
          "_fundingOutputIndex": "Index of funding output in _txOutputVector (0-indexed)",
          "_merkleProof": "The merkle proof of transaction inclusion in a block",
          "_txIndexInBlock": "Transaction index in the block (0-indexed)",
          "_txInputVector": "All transaction inputs prepended by the number of inputs encoded as a VarInt, max 0xFC(252) inputs",
          "_txLocktime": "Final 4 bytes of the transaction",
          "_txOutputVector": "All transaction outputs prepended by the number of outputs encoded as a VarInt, max 0xFC(252) outputs",
          "_txVersion": "Transaction version number (4-byte LE)"
        },
        "return": "True if no errors are thrown"
      },
      "provideECDSAFraudProof(uint8,bytes32,bytes32,bytes32,bytes)": {
        "details": "ECDSA is NOT SECURE unless you verify the digest",
        "params": {
          "_preimage": "The sha256 preimage of the digest",
          "_r": "Signature R value",
          "_s": "Signature S value",
          "_signedDigest": "The digest signed by the signature vrs tuple",
          "_v": "Signature recovery value"
        },
        "return": "True if successful, otherwise revert"
      },
      "provideFraudBTCFundingProof(bytes4,bytes,bytes,bytes4,uint8,bytes,uint256,bytes)": {
        "details": "Takes a pre-parsed transaction and calculates values needed to verify funding",
        "params": {
          "_bitcoinHeaders": "Single bytestring of 80-byte bitcoin headers, lowest height first",
          "_fundingOutputIndex": "Index of funding output in _txOutputVector (0-indexed)",
          "_merkleProof": "The merkle proof of transaction inclusion in a block",
          "_txIndexInBlock": "Transaction index in the block (0-indexed)",
          "_txInputVector": "All transaction inputs prepended by the number of inputs encoded as a VarInt, max 0xFC(252) inputs",
          "_txLocktime": "Final 4 bytes of the transaction",
          "_txOutputVector": "All transaction outputs prepended by the number of outputs encoded as a VarInt, max 0xFC(252) outputs",
          "_txVersion": "Transaction version number (4-byte LE)"
        },
        "return": "True if no errors are thrown"
      },
      "provideFundingECDSAFraudProof(uint8,bytes32,bytes32,bytes32,bytes)": {
        "details": "ECDSA is NOT SECURE unless you verify the digest",
        "params": {
          "_preimage": "The sha256 preimage of the digest",
          "_r": "Signature R value",
          "_s": "Signature S value",
          "_signedDigest": "The digest signed by the signature vrs tuple",
          "_v": "Signature recovery value"
        },
        "return": "True if successful, otherwise revert"
      },
      "provideRedemptionProof(bytes4,bytes,bytes,bytes4,bytes,uint256,bytes)": {
        "details": "The signers will be penalized if this is not called",
        "params": {
          "_bitcoinHeaders": "An array of tightly-packed bitcoin headers",
          "_merkleProof": "The merkle proof of inclusion of the tx in the bitcoin block",
          "_txIndexInBlock": "The index of the tx in the Bitcoin block (0-indexed)",
          "_txInputVector": "All transaction inputs prepended by the number of inputs encoded as a VarInt, max 0xFC(252) inputs",
          "_txLocktime": "Final 4 bytes of the transaction",
          "_txOutputVector": "All transaction outputs prepended by the number of outputs encoded as a VarInt, max 0xFC(252) outputs",
          "_txVersion": "Transaction version number (4-byte LE)"
        }
      },
      "provideRedemptionSignature(uint8,bytes32,bytes32)": {
        "details": "The signers will be penalized if this (or provideRedemptionProof) is not called",
        "params": {
          "_r": "Signature R value",
          "_s": "Signature S value",
          "_v": "Signature recovery value"
        },
        "return": "True if successful, False if prevented by timeout, otherwise revert"
      },
      "provideSPVFraudProof(bytes4,bytes,bytes,bytes4,bytes,uint256,uint8,bytes)": {
        "details": "We strong prefer ECDSA fraud proofs",
        "params": {
          "_bitcoinHeaders": "An array of tightly-packed bitcoin headers",
          "_merkleProof": "The merkle proof of inclusion of the tx in the bitcoin block",
          "_targetInputIndex": "Index of the input that spends the custodied UTXO",
          "_txIndexInBlock": "The index of the tx in the Bitcoin block (0-indexed)",
          "_txInputVector": "All transaction inputs prepended by the number of inputs encoded as a VarInt, max 0xFC(252) inputs",
          "_txLocktime": "Final 4 bytes of the transaction",
          "_txOutputVector": "All transaction outputs prepended by the number of outputs encoded as a VarInt, max 0xFC(252) outputs",
          "_txVersion": "Transaction version number (4-byte LE)"
        },
        "return": "True if successful, otherwise revert"
      },
      "purchaseSignerBondsAtAuction()": {
        "details": "For interface, reading auctionValue will give a past value. the current is better",
        "return": "True if successful, revert otherwise"
      },
      "remainingTerm()": {
        "details": "The value is not guaranteed since block.timestmap can be lightly manipulated by miners.",
        "return": "The remaining term of the deposit in seconds. 0 if already at term"
      },
      "requestRedemption(bytes8,bytes20,address)": {
        "details": "The redeemer specifies details about the Bitcoin redemption tx",
        "params": {
          "_outputValueBytes": "The 8-byte LE output size",
          "_requesterPKH": "The 20-byte Bitcoin pubkeyhash to which to send funds"
        },
        "return": "True if successful, otherwise revert"
      },
      "retrieveSignerPubkey()": {
        "details": "We store the pubkey as 2 bytestrings, X and Y.",
        "return": "True if successful, otherwise revert"
      },
      "signerFee()": {
        "return": "Fee amount in TBTC"
      }
    }
  },
  "userdoc": {
    "methods": {
      "createNewDeposit(address,address,address,address,address,uint256,uint256)": {
        "notice": "The system can spin up a new deposit"
      },
      "exitCourtesyCall()": {
        "notice": "Goes from courtesy call to active"
      },
      "getCurrentState()": {
        "notice": "Get the integer representing the current state"
      },
      "getRedemptionTbtcRequirement(address)": {
        "notice": "View function for access to TBTC required by redemption."
      },
      "inActive()": {
        "notice": "Check if the Deposit is in ACTIVE state."
      },
      "increaseRedemptionFee(bytes8,bytes8)": {
        "notice": "Anyone may notify the contract that a fee bump is needed"
      },
      "notifyCourtesyCall()": {
        "notice": "Notify the contract that the signers are undercollateralized"
      },
      "notifyCourtesyTimeout()": {
        "notice": "Notifies the contract that the courtesy period has elapsed"
      },
      "notifyDepositExpiryCourtesyCall()": {
        "notice": "Notifies the contract that its term limit has been reached"
      },
      "notifyFraudFundingTimeout()": {
        "notice": "Anyone may notify the contract no funding proof was submitted during funding fraud"
      },
      "notifyFundingTimeout()": {
        "notice": "Anyone may notify the contract that the funder has failed to send BTC"
      },
      "notifyRedemptionProofTimeout()": {
        "notice": "Anyone may notify the contract that the signers have failed to produce a redemption proof"
      },
      "notifySignatureTimeout()": {
        "notice": "Anyone may notify the contract that the signers have failed to produce a signature"
      },
      "notifySignerSetupFailure()": {
        "notice": "Anyone may notify the contract that signing group setup has timed out"
      },
      "notifyUndercollateralizedLiquidation()": {
        "notice": "Notify the contract that the signers are undercollateralized"
      },
      "provideBTCFundingProof(bytes4,bytes,bytes,bytes4,uint8,bytes,uint256,bytes)": {
        "notice": "Anyone may notify the deposit of a funding proof to activate the deposit                             This is the happy-path of the funding flow. It means that we have succeeded"
      },
      "provideECDSAFraudProof(uint8,bytes32,bytes32,bytes32,bytes)": {
        "notice": "Anyone can provide a signature that was not requested to prove fraud"
      },
      "provideFundingECDSAFraudProof(uint8,bytes32,bytes32,bytes32,bytes)": {
        "notice": "Anyone can provide a signature that was not requested to prove fraud during funding"
      },
      "provideRedemptionProof(bytes4,bytes,bytes,bytes4,bytes,uint256,bytes)": {
        "notice": "Anyone may provide a withdrawal proof to prove redemption"
      },
      "provideRedemptionSignature(uint8,bytes32,bytes32)": {
        "notice": "Anyone may provide a withdrawal signature if it was requested"
      },
      "provideSPVFraudProof(bytes4,bytes,bytes,bytes4,bytes,uint256,uint8,bytes)": {
        "notice": "Anyone may notify the deposit of fraud via an SPV proof"
      },
      "purchaseSignerBondsAtAuction()": {
        "notice": "Closes an auction and purchases the signer bonds. Payout to buyer, funder, then signers if not fraud"
      },
      "remainingTerm()": {
        "notice": "Retrieve the remaining term of the deposit in seconds."
      },
      "requestRedemption(bytes8,bytes20,address)": {
        "notice": "Anyone can request redemption"
      },
      "retrieveSignerPubkey()": {
        "notice": "we poll the Keep contract to retrieve our pubkey"
      },
      "signerFee()": {
        "notice": "Get the signer fee for the Deposit."
      }
    }
  }
}