{
  "contractName": "Deposit",
  "abi": [
    {
      "inputs": [],
      "payable": false,
      "stateMutability": "nonpayable",
      "type": "constructor",
      "signature": "constructor"
    },
    {
      "payable": true,
      "stateMutability": "payable",
      "type": "fallback"
    },
    {
      "constant": true,
      "inputs": [],
      "name": "getCurrentState",
      "outputs": [
        {
          "name": "",
          "type": "uint256"
        }
      ],
      "payable": false,
      "stateMutability": "view",
      "type": "function",
      "signature": "0x378aa701"
    },
    {
      "constant": false,
      "inputs": [
        {
          "name": "_TBTCSystem",
          "type": "address"
        },
        {
          "name": "_TBTCToken",
          "type": "address"
        },
        {
          "name": "_m",
          "type": "uint256"
        },
        {
          "name": "_n",
          "type": "uint256"
        }
      ],
      "name": "createNewDeposit",
      "outputs": [
        {
          "name": "",
          "type": "bool"
        }
      ],
      "payable": true,
      "stateMutability": "payable",
      "type": "function",
      "signature": "0xf31a43f1"
    },
    {
      "constant": false,
      "inputs": [
        {
          "name": "_outputValueBytes",
          "type": "bytes8"
        },
        {
          "name": "_requesterPKH",
          "type": "bytes20"
        }
      ],
      "name": "requestRedemption",
      "outputs": [
        {
          "name": "",
          "type": "bool"
        }
      ],
      "payable": false,
      "stateMutability": "nonpayable",
      "type": "function",
      "signature": "0x7d18eed9"
    },
    {
      "constant": false,
      "inputs": [
        {
          "name": "_v",
          "type": "uint8"
        },
        {
          "name": "_r",
          "type": "bytes32"
        },
        {
          "name": "_s",
          "type": "bytes32"
        }
      ],
      "name": "provideRedemptionSignature",
      "outputs": [
        {
          "name": "",
          "type": "bool"
        }
      ],
      "payable": false,
      "stateMutability": "nonpayable",
      "type": "function",
      "signature": "0xc4159559"
    },
    {
      "constant": false,
      "inputs": [
        {
          "name": "_previousOutputValueBytes",
          "type": "bytes8"
        },
        {
          "name": "_newOutputValueBytes",
          "type": "bytes8"
        }
      ],
      "name": "increaseRedemptionFee",
      "outputs": [
        {
          "name": "",
          "type": "bool"
        }
      ],
      "payable": false,
      "stateMutability": "nonpayable",
      "type": "function",
      "signature": "0x9894d734"
    },
    {
      "constant": false,
      "inputs": [
        {
          "name": "_txVersion",
          "type": "bytes4"
        },
        {
          "name": "_txInputVector",
          "type": "bytes"
        },
        {
          "name": "_txOutputVector",
          "type": "bytes"
        },
        {
          "name": "_txLocktime",
          "type": "bytes4"
        },
        {
          "name": "_merkleProof",
          "type": "bytes"
        },
        {
          "name": "_txIndexInBlock",
          "type": "uint256"
        },
        {
          "name": "_bitcoinHeaders",
          "type": "bytes"
        }
      ],
      "name": "provideRedemptionProof",
      "outputs": [
        {
          "name": "",
          "type": "bool"
        }
      ],
      "payable": false,
      "stateMutability": "nonpayable",
      "type": "function",
      "signature": "0xd459c416"
    },
    {
      "constant": false,
      "inputs": [],
      "name": "notifySignatureTimeout",
      "outputs": [
        {
          "name": "",
          "type": "bool"
        }
      ],
      "payable": false,
      "stateMutability": "nonpayable",
      "type": "function",
      "signature": "0x8a68db65"
    },
    {
      "constant": false,
      "inputs": [],
      "name": "notifyRedemptionProofTimeout",
      "outputs": [
        {
          "name": "",
          "type": "bool"
        }
      ],
      "payable": false,
      "stateMutability": "nonpayable",
      "type": "function",
      "signature": "0x34cf5283"
    },
    {
      "constant": false,
      "inputs": [],
      "name": "notifySignerSetupFailure",
      "outputs": [
        {
          "name": "",
          "type": "bool"
        }
      ],
      "payable": false,
      "stateMutability": "nonpayable",
      "type": "function",
      "signature": "0xe6d6aaba"
    },
    {
      "constant": false,
      "inputs": [],
      "name": "retrieveSignerPubkey",
      "outputs": [
        {
          "name": "",
          "type": "bool"
        }
      ],
      "payable": false,
      "stateMutability": "nonpayable",
      "type": "function",
      "signature": "0xea3db250"
    },
    {
      "constant": false,
      "inputs": [],
      "name": "notifyFundingTimeout",
      "outputs": [
        {
          "name": "",
          "type": "bool"
        }
      ],
      "payable": false,
      "stateMutability": "nonpayable",
      "type": "function",
      "signature": "0x06d6bf1a"
    },
    {
      "constant": false,
      "inputs": [
        {
          "name": "_v",
          "type": "uint8"
        },
        {
          "name": "_r",
          "type": "bytes32"
        },
        {
          "name": "_s",
          "type": "bytes32"
        },
        {
          "name": "_signedDigest",
          "type": "bytes32"
        },
        {
          "name": "_preimage",
          "type": "bytes"
        }
      ],
      "name": "provideFundingECDSAFraudProof",
      "outputs": [
        {
          "name": "",
          "type": "bool"
        }
      ],
      "payable": false,
      "stateMutability": "nonpayable",
      "type": "function",
      "signature": "0x2d099442"
    },
    {
      "constant": false,
      "inputs": [],
      "name": "notifyFraudFundingTimeout",
      "outputs": [
        {
          "name": "",
          "type": "bool"
        }
      ],
      "payable": false,
      "stateMutability": "nonpayable",
      "type": "function",
      "signature": "0xc1b87368"
    },
    {
      "constant": false,
      "inputs": [
        {
          "name": "_txVersion",
          "type": "bytes4"
        },
        {
          "name": "_txInputVector",
          "type": "bytes"
        },
        {
          "name": "_txOutputVector",
          "type": "bytes"
        },
        {
          "name": "_txLocktime",
          "type": "bytes4"
        },
        {
          "name": "_fundingOutputIndex",
          "type": "uint8"
        },
        {
          "name": "_merkleProof",
          "type": "bytes"
        },
        {
          "name": "_txIndexInBlock",
          "type": "uint256"
        },
        {
          "name": "_bitcoinHeaders",
          "type": "bytes"
        }
      ],
      "name": "provideFraudBTCFundingProof",
      "outputs": [
        {
          "name": "",
          "type": "bool"
        }
      ],
      "payable": false,
      "stateMutability": "nonpayable",
      "type": "function",
      "signature": "0xac563be9"
    },
    {
      "constant": false,
      "inputs": [
        {
          "name": "_txVersion",
          "type": "bytes4"
        },
        {
          "name": "_txInputVector",
          "type": "bytes"
        },
        {
          "name": "_txOutputVector",
          "type": "bytes"
        },
        {
          "name": "_txLocktime",
          "type": "bytes4"
        },
        {
          "name": "_fundingOutputIndex",
          "type": "uint8"
        },
        {
          "name": "_merkleProof",
          "type": "bytes"
        },
        {
          "name": "_txIndexInBlock",
          "type": "uint256"
        },
        {
          "name": "_bitcoinHeaders",
          "type": "bytes"
        }
      ],
      "name": "provideBTCFundingProof",
      "outputs": [
        {
          "name": "",
          "type": "bool"
        }
      ],
      "payable": false,
      "stateMutability": "nonpayable",
      "type": "function",
      "signature": "0xd9f74b0e"
    },
    {
      "constant": false,
      "inputs": [
        {
          "name": "_v",
          "type": "uint8"
        },
        {
          "name": "_r",
          "type": "bytes32"
        },
        {
          "name": "_s",
          "type": "bytes32"
        },
        {
          "name": "_signedDigest",
          "type": "bytes32"
        },
        {
          "name": "_preimage",
          "type": "bytes"
        }
      ],
      "name": "provideECDSAFraudProof",
      "outputs": [
        {
          "name": "",
          "type": "bool"
        }
      ],
      "payable": false,
      "stateMutability": "nonpayable",
      "type": "function",
      "signature": "0xd5eef971"
    },
    {
      "constant": false,
      "inputs": [
        {
          "name": "_txVersion",
          "type": "bytes4"
        },
        {
          "name": "_txInputVector",
          "type": "bytes"
        },
        {
          "name": "_txOutputVector",
          "type": "bytes"
        },
        {
          "name": "_txLocktime",
          "type": "bytes4"
        },
        {
          "name": "_merkleProof",
          "type": "bytes"
        },
        {
          "name": "_txIndexInBlock",
          "type": "uint256"
        },
        {
          "name": "_targetInputIndex",
          "type": "uint8"
        },
        {
          "name": "_bitcoinHeaders",
          "type": "bytes"
        }
      ],
      "name": "provideSPVFraudProof",
      "outputs": [
        {
          "name": "",
          "type": "bool"
        }
      ],
      "payable": false,
      "stateMutability": "nonpayable",
      "type": "function",
      "signature": "0x80be47d4"
    },
    {
      "constant": false,
      "inputs": [],
      "name": "purchaseSignerBondsAtAuction",
      "outputs": [
        {
          "name": "",
          "type": "bool"
        }
      ],
      "payable": false,
      "stateMutability": "nonpayable",
      "type": "function",
      "signature": "0x2c735daa"
    },
    {
      "constant": false,
      "inputs": [],
      "name": "notifyCourtesyCall",
      "outputs": [
        {
          "name": "",
          "type": "bool"
        }
      ],
      "payable": false,
      "stateMutability": "nonpayable",
      "type": "function",
      "signature": "0x96aab311"
    },
    {
      "constant": false,
      "inputs": [],
      "name": "exitCourtesyCall",
      "outputs": [
        {
          "name": "",
          "type": "bool"
        }
      ],
      "payable": false,
      "stateMutability": "nonpayable",
      "type": "function",
      "signature": "0x287b32e5"
    },
    {
      "constant": false,
      "inputs": [],
      "name": "notifyUndercollateralizedLiquidation",
      "outputs": [
        {
          "name": "",
          "type": "bool"
        }
      ],
      "payable": false,
      "stateMutability": "nonpayable",
      "type": "function",
      "signature": "0xb4bd2e7a"
    },
    {
      "constant": false,
      "inputs": [],
      "name": "notifyCourtesyTimeout",
      "outputs": [
        {
          "name": "",
          "type": "bool"
        }
      ],
      "payable": false,
      "stateMutability": "nonpayable",
      "type": "function",
      "signature": "0x72ed2b4a"
    },
    {
      "constant": false,
      "inputs": [],
      "name": "notifyDepositExpiryCourtesyCall",
      "outputs": [
        {
          "name": "",
          "type": "bool"
        }
      ],
      "payable": false,
      "stateMutability": "nonpayable",
      "type": "function",
      "signature": "0x902d2ead"
    }
  ],
  "bytecode": "0x608060405234801561001057600080fd5b5061206d806100206000396000f3fe6080604052600436106101445760003560e060020a9004806396aab311116100ba578063d459c41611610073578063d459c416146108f7578063d5eef97114610b6a578063d9f74b0e14610c38578063e6d6aaba14610eb3578063ea3db25014610ec8578063f31a43f114610edd57610144565b806396aab311146105b75780639894d734146105cc578063ac563be914610619578063b4bd2e7a14610894578063c1b87368146108a9578063c4159559146108be57610144565b8063378aa7011161010c578063378aa7011461027c57806372ed2b4a146102a35780637d18eed9146102b857806380be47d4146103125780638a68db651461058d578063902d2ead146105a257610144565b806306d6bf1a14610146578063287b32e51461016f5780632c735daa146101845780632d0994421461019957806334cf528314610267575b005b34801561015257600080fd5b5061015b610f26565b604080519115158252519081900360200190f35b34801561017b57600080fd5b5061015b610f9b565b34801561019057600080fd5b5061015b610ff1565b3480156101a557600080fd5b5061015b600480360360a08110156101bc57600080fd5b60ff8235169160208101359160408201359160608101359181019060a0810160808201356401000000008111156101f257600080fd5b82018360208201111561020457600080fd5b8035906020019184600183028401116401000000008311171561022657600080fd5b91908080601f016020809104026020016040519081016040528093929190818152602001838380828437600092019190915250929550611047945050505050565b34801561027357600080fd5b5061015b611151565b34801561028857600080fd5b506102916111a7565b60408051918252519081900360200190f35b3480156102af57600080fd5b5061015b6111c8565b3480156102c457600080fd5b5061015b600480360360408110156102db57600080fd5b50803577ffffffffffffffffffffffffffffffffffffffffffffffff191690602001356bffffffffffffffffffffffff191661121e565b34801561031e57600080fd5b5061015b600480360361010081101561033657600080fd5b600160e060020a0319823516919081019060408101602082013564010000000081111561036257600080fd5b82018360208201111561037457600080fd5b8035906020019184600183028401116401000000008311171561039657600080fd5b91908080601f01602080910402602001604051908101604052809392919081815260200183838082843760009201919091525092959493602081019350359150506401000000008111156103e957600080fd5b8201836020820111156103fb57600080fd5b8035906020019184600183028401116401000000008311171561041d57600080fd5b91908080601f0160208091040260200160405190810160405280939291908181526020018383808284376000920191909152509295600160e060020a031985351695909490935060408101925060200135905064010000000081111561048257600080fd5b82018360208201111561049457600080fd5b803590602001918460018302840111640100000000831117156104b657600080fd5b91908080601f016020809104026020016040519081016040528093929190818152602001838380828437600092019190915250929584359560ff6020870135169591945092506060810191506040013564010000000081111561051857600080fd5b82018360208201111561052a57600080fd5b8035906020019184600183028401116401000000008311171561054c57600080fd5b91908080601f0160208091040260200160405190810160405280939291908181526020018383808284376000920191909152509295506112e1945050505050565b34801561059957600080fd5b5061015b61154b565b3480156105ae57600080fd5b5061015b6115a1565b3480156105c357600080fd5b5061015b6115f7565b3480156105d857600080fd5b5061015b600480360360408110156105ef57600080fd5b5077ffffffffffffffffffffffffffffffffffffffffffffffff198135811691602001351661164d565b34801561062557600080fd5b5061015b600480360361010081101561063d57600080fd5b600160e060020a0319823516919081019060408101602082013564010000000081111561066957600080fd5b82018360208201111561067b57600080fd5b8035906020019184600183028401116401000000008311171561069d57600080fd5b91908080601f01602080910402602001604051908101604052809392919081815260200183838082843760009201919091525092959493602081019350359150506401000000008111156106f057600080fd5b82018360208201111561070257600080fd5b8035906020019184600183028401116401000000008311171561072457600080fd5b91908080601f0160208091040260200160405190810160405280939291908181526020018383808284376000920191909152509295600160e060020a03198535169560ff6020870135169591945092506060810191506040013564010000000081111561079057600080fd5b8201836020820111156107a257600080fd5b803590602001918460018302840111640100000000831117156107c457600080fd5b91908080601f0160208091040260200160405190810160405280939291908181526020018383808284376000920191909152509295843595909490935060408101925060200135905064010000000081111561081f57600080fd5b82018360208201111561083157600080fd5b8035906020019184600183028401116401000000008311171561085357600080fd5b91908080601f016020809104026020016040519081016040528093929190818152602001838380828437600092019190915250929550611716945050505050565b3480156108a057600080fd5b5061015b611994565b3480156108b557600080fd5b5061015b6119ea565b3480156108ca57600080fd5b5061015b600480360360608110156108e157600080fd5b5060ff8135169060208101359060400135611a40565b34801561090357600080fd5b5061015b600480360360e081101561091a57600080fd5b600160e060020a0319823516919081019060408101602082013564010000000081111561094657600080fd5b82018360208201111561095857600080fd5b8035906020019184600183028401116401000000008311171561097a57600080fd5b91908080601f01602080910402602001604051908101604052809392919081815260200183838082843760009201919091525092959493602081019350359150506401000000008111156109cd57600080fd5b8201836020820111156109df57600080fd5b80359060200191846001830284011164010000000083111715610a0157600080fd5b91908080601f0160208091040260200160405190810160405280939291908181526020018383808284376000920191909152509295600160e060020a0319853516959094909350604081019250602001359050640100000000811115610a6657600080fd5b820183602082011115610a7857600080fd5b80359060200191846001830284011164010000000083111715610a9a57600080fd5b91908080601f01602080910402602001604051908101604052809392919081815260200183838082843760009201919091525092958435959094909350604081019250602001359050640100000000811115610af557600080fd5b820183602082011115610b0757600080fd5b80359060200191846001830284011164010000000083111715610b2957600080fd5b91908080601f016020809104026020016040519081016040528093929190818152602001838380828437600092019190915250929550611ae5945050505050565b348015610b7657600080fd5b5061015b600480360360a0811015610b8d57600080fd5b60ff8235169160208101359160408201359160608101359181019060a081016080820135640100000000811115610bc357600080fd5b820183602082011115610bd557600080fd5b80359060200191846001830284011164010000000083111715610bf757600080fd5b91908080601f016020809104026020016040519081016040528093929190818152602001838380828437600092019190915250929550611d40945050505050565b348015610c4457600080fd5b5061015b6004803603610100811015610c5c57600080fd5b600160e060020a03198235169190810190604081016020820135640100000000811115610c8857600080fd5b820183602082011115610c9a57600080fd5b80359060200191846001830284011164010000000083111715610cbc57600080fd5b91908080601f0160208091040260200160405190810160405280939291908181526020018383808284376000920191909152509295949360208101935035915050640100000000811115610d0f57600080fd5b820183602082011115610d2157600080fd5b80359060200191846001830284011164010000000083111715610d4357600080fd5b91908080601f0160208091040260200160405190810160405280939291908181526020018383808284376000920191909152509295600160e060020a03198535169560ff60208701351695919450925060608101915060400135640100000000811115610daf57600080fd5b820183602082011115610dc157600080fd5b80359060200191846001830284011164010000000083111715610de357600080fd5b91908080601f01602080910402602001604051908101604052809392919081815260200183838082843760009201919091525092958435959094909350604081019250602001359050640100000000811115610e3e57600080fd5b820183602082011115610e5057600080fd5b80359060200191846001830284011164010000000083111715610e7257600080fd5b91908080601f016020809104026020016040519081016040528093929190818152602001838380828437600092019190915250929550611dd6945050505050565b348015610ebf57600080fd5b5061015b611ea3565b348015610ed457600080fd5b5061015b611ef9565b61015b60048036036080811015610ef357600080fd5b5073ffffffffffffffffffffffffffffffffffffffff813581169160208101359091169060408101359060600135611f4f565b60008073__DepositFunding________________________63490f787190916040518263ffffffff1660e060020a0281526004018082815260200191505060006040518083038186803b158015610f7c57600080fd5b505af4158015610f90573d6000803e3d6000fd5b505050506001905090565b60008073__DepositLiquidation____________________633bd675c890916040518263ffffffff1660e060020a0281526004018082815260200191505060006040518083038186803b158015610f7c57600080fd5b60008073__DepositLiquidation____________________632ea8450690916040518263ffffffff1660e060020a0281526004018082815260200191505060006040518083038186803b158015610f7c57600080fd5b60008073__DepositFunding________________________63fb12d9df909188888888886040518763ffffffff1660e060020a028152600401808781526020018660ff1660ff16815260200185815260200184815260200183815260200180602001828103825283818151815260200191508051906020019080838360005b838110156110de5781810151838201526020016110c6565b50505050905090810190601f16801561110b5780820380516001836020036101000a031916815260200191505b5097505050505050505060006040518083038186803b15801561112d57600080fd5b505af4158015611141573d6000803e3d6000fd5b5060019998505050505050505050565b60008073__DepositRedemption_____________________63cd53895490916040518263ffffffff1660e060020a0281526004018082815260200191505060006040518083038186803b158015610f7c57600080fd5b60015474010000000000000000000000000000000000000000900460ff1690565b60008073__DepositLiquidation____________________63a43c845b90916040518263ffffffff1660e060020a0281526004018082815260200191505060006040518083038186803b158015610f7c57600080fd5b604080517fea89624a00000000000000000000000000000000000000000000000000000000815260006004820181905277ffffffffffffffffffffffffffffffffffffffffffffffff19851660248301526bffffffffffffffffffffffff1984166044830152915173__DepositRedemption_____________________9163ea89624a9160648083019286929190829003018186803b1580156112c057600080fd5b505af41580156112d4573d6000803e3d6000fd5b5060019695505050505050565b60008073__DepositLiquidation____________________63b9f853f890918b8b8b8b8b8b8b8b6040518a63ffffffff1660e060020a028152600401808a815260200189600160e060020a031916600160e060020a0319168152602001806020018060200188600160e060020a031916600160e060020a0319168152602001806020018781526020018660ff1660ff1681526020018060200185810385528c818151815260200191508051906020019080838360005b838110156113af578181015183820152602001611397565b50505050905090810190601f1680156113dc5780820380516001836020036101000a031916815260200191505b5085810384528b5181528b516020918201918d019080838360005b8381101561140f5781810151838201526020016113f7565b50505050905090810190601f16801561143c5780820380516001836020036101000a031916815260200191505b5085810383528951815289516020918201918b019080838360005b8381101561146f578181015183820152602001611457565b50505050905090810190601f16801561149c5780820380516001836020036101000a031916815260200191505b50858103825286518152865160209182019188019080838360005b838110156114cf5781810151838201526020016114b7565b50505050905090810190601f1680156114fc5780820380516001836020036101000a031916815260200191505b509d505050505050505050505050505060006040518083038186803b15801561152457600080fd5b505af4158015611538573d6000803e3d6000fd5b5060019c9b505050505050505050505050565b60008073__DepositRedemption_____________________635976635790916040518263ffffffff1660e060020a0281526004018082815260200191505060006040518083038186803b158015610f7c57600080fd5b60008073__DepositLiquidation____________________63c396a1f490916040518263ffffffff1660e060020a0281526004018082815260200191505060006040518083038186803b158015610f7c57600080fd5b60008073__DepositLiquidation____________________63a221542190916040518263ffffffff1660e060020a0281526004018082815260200191505060006040518083038186803b158015610f7c57600080fd5b604080517f2d0c21bf00000000000000000000000000000000000000000000000000000000815260006004820181905277ffffffffffffffffffffffffffffffffffffffffffffffff19808616602484015284166044830152915173__DepositRedemption_____________________91632d0c21bf916064808301926020929190829003018186803b1580156116e357600080fd5b505af41580156116f7573d6000803e3d6000fd5b505050506040513d602081101561170d57600080fd5b50519392505050565b60008073__DepositFunding________________________63f8e39deb90918b8b8b8b8b8b8b8b6040518a63ffffffff1660e060020a028152600401808a815260200189600160e060020a031916600160e060020a0319168152602001806020018060200188600160e060020a031916600160e060020a03191681526020018760ff1660ff168152602001806020018681526020018060200185810385528c818151815260200191508051906020019080838360005b838110156117e45781810151838201526020016117cc565b50505050905090810190601f1680156118115780820380516001836020036101000a031916815260200191505b5085810384528b5181528b516020918201918d019080838360005b8381101561184457818101518382015260200161182c565b50505050905090810190601f1680156118715780820380516001836020036101000a031916815260200191505b5085810383528851815288516020918201918a019080838360005b838110156118a457818101518382015260200161188c565b50505050905090810190601f1680156118d15780820380516001836020036101000a031916815260200191505b50858103825286518152865160209182019188019080838360005b838110156119045781810151838201526020016118ec565b50505050905090810190601f1680156119315780820380516001836020036101000a031916815260200191505b509d505050505050505050505050505060206040518083038186803b15801561195957600080fd5b505af415801561196d573d6000803e3d6000fd5b505050506040513d602081101561198357600080fd5b5060019a9950505050505050505050565b60008073__DepositLiquidation____________________6393a3866490916040518263ffffffff1660e060020a0281526004018082815260200191505060006040518083038186803b158015610f7c57600080fd5b60008073__DepositFunding________________________635347b1de90916040518263ffffffff1660e060020a0281526004018082815260200191505060006040518083038186803b158015610f7c57600080fd5b604080517f3c686baa00000000000000000000000000000000000000000000000000000000815260006004820181905260ff861660248301526044820185905260648201849052915173__DepositRedemption_____________________91633c686baa9160848083019286929190829003018186803b158015611ac357600080fd5b505af4158015611ad7573d6000803e3d6000fd5b506001979650505050505050565b60008073__DepositRedemption_____________________636c7e2b9d90918a8a8a8a8a8a8a6040518963ffffffff1660e060020a0281526004018089815260200188600160e060020a031916600160e060020a0319168152602001806020018060200187600160e060020a031916600160e060020a0319168152602001806020018681526020018060200185810385528b818151815260200191508051906020019080838360005b83811015611ba6578181015183820152602001611b8e565b50505050905090810190601f168015611bd35780820380516001836020036101000a031916815260200191505b5085810384528a5181528a516020918201918c019080838360005b83811015611c06578181015183820152602001611bee565b50505050905090810190601f168015611c335780820380516001836020036101000a031916815260200191505b5085810383528851815288516020918201918a019080838360005b83811015611c66578181015183820152602001611c4e565b50505050905090810190601f168015611c935780820380516001836020036101000a031916815260200191505b50858103825286518152865160209182019188019080838360005b83811015611cc6578181015183820152602001611cae565b50505050905090810190601f168015611cf35780820380516001836020036101000a031916815260200191505b509c5050505050505050505050505060006040518083038186803b158015611d1a57600080fd5b505af4158015611d2e573d6000803e3d6000fd5b5060019b9a5050505050505050505050565b60008073__DepositLiquidation____________________634941676c909188888888886040518763ffffffff1660e060020a028152600401808781526020018660ff1660ff1681526020018581526020018481526020018381526020018060200182810382528381815181526020019150805190602001908083836000838110156110de5781810151838201526020016110c6565b60008073__DepositFunding________________________63d745519390918b8b8b8b8b8b8b8b6040518a63ffffffff1660e060020a028152600401808a815260200189600160e060020a031916600160e060020a0319168152602001806020018060200188600160e060020a031916600160e060020a03191681526020018760ff1660ff168152602001806020018681526020018060200185810385528c81815181526020019150805190602001908083836000838110156117e45781810151838201526020016117cc565b60008073__DepositFunding________________________63cd40cc6490916040518263ffffffff1660e060020a0281526004018082815260200191505060006040518083038186803b158015610f7c57600080fd5b60008073__DepositFunding________________________63bb21d02490916040518263ffffffff1660e060020a0281526004018082815260200191505060006040518083038186803b158015610f7c57600080fd5b6000805473ffffffffffffffffffffffffffffffffffffffff80871673ffffffffffffffffffffffffffffffffffffffff199283161783556001805491871691909216179055604080517f09ab65f5000000000000000000000000000000000000000000000000000000008152600481018390526024810185905260448101849052905173__DepositFunding________________________916309ab65f5916064808301926020929190829003018186803b15801561200e57600080fd5b505af4158015612022573d6000803e3d6000fd5b505050506040513d60208110156112d457600080fdfea265627a7a723058208ff81814e619e04ff5879f2e02de7bd7495ad43c2ea66940aad5bd1c50f87d4a64736f6c634300050a0032",
  "source": "pragma solidity ^0.5.10;\n\nimport {DepositLiquidation} from \"./DepositLiquidation.sol\";\nimport {DepositUtils} from \"./DepositUtils.sol\";\nimport {DepositFunding} from \"./DepositFunding.sol\";\nimport {DepositRedemption} from \"./DepositRedemption.sol\";\n\ncontract Deposit {\n\n    using DepositRedemption for DepositUtils.Deposit;\n    using DepositFunding for DepositUtils.Deposit;\n    using DepositLiquidation for DepositUtils.Deposit;\n    using DepositUtils for DepositUtils.Deposit;\n\n    DepositUtils.Deposit self;\n\n    // We separate the constructor from createNewDeposit to make proxy factories easier\n    /* solium-disable-next-line no-empty-blocks */\n    constructor () public {}\n\n    function () external payable {}\n\n    /// @notice     Get the integer representing the current state\n    /// @dev        We implement this because contracts don't handle foreign enums well\n    /// @return     The 0-indexed state from the DepositStates enum\n    function getCurrentState() public view returns (uint256) {\n        return uint256(self.currentState);\n    }\n\n    // THIS IS THE INIT FUNCTION\n    /// @notice         The system can spin up a new deposit\n    /// @dev            This should be called by an approved contract, not a developer\n    /// @param _m       m for m-of-n\n    /// @param _m       n for m-of-n\n    /// @return         True if successful, otherwise revert\n    function createNewDeposit(\n        address _TBTCSystem,\n        address _TBTCToken,\n        uint256 _m,\n        uint256 _n\n    ) public payable returns (bool) {\n        self.TBTCSystem = _TBTCSystem;\n        self.TBTCToken = _TBTCToken;\n        self.createNewDeposit(_m, _n);\n        return true;\n    }\n\n    /// @notice                     Anyone can request redemption\n    /// @dev                        The redeemer specifies details about the Bitcoin redemption tx\n    /// @param  _outputValueBytes   The 8-byte LE output size\n    /// @param  _requesterPKH       The 20-byte Bitcoin pubkeyhash to which to send funds\n    /// @return                     True if successful, otherwise revert\n    function requestRedemption(\n        bytes8 _outputValueBytes,\n        bytes20 _requesterPKH\n    ) public returns (bool) {\n        self.requestRedemption(_outputValueBytes, _requesterPKH);\n        return true;\n    }\n\n    /// @notice     Anyone may provide a withdrawal signature if it was requested\n    /// @dev        The signers will be penalized if this (or provideRedemptionProof) is not called\n    /// @param  _v  Signature recovery value\n    /// @param  _r  Signature R value\n    /// @param  _s  Signature S value\n    /// @return     True if successful, False if prevented by timeout, otherwise revert\n    function provideRedemptionSignature(\n        uint8 _v,\n        bytes32 _r,\n        bytes32 _s\n    ) public returns (bool) {\n        self.provideRedemptionSignature(_v, _r, _s);\n        return true;\n    }\n\n    /// @notice                             Anyone may notify the contract that a fee bump is needed\n    /// @dev                                This sends us back to AWAITING_WITHDRAWAL_SIGNATURE\n    /// @param  _previousOutputValueBytes   The previous output's value\n    /// @param  _newOutputValueBytes        The new output's value\n    /// @return                             True if successful, False if prevented by timeout, otherwise revert\n    function increaseRedemptionFee(\n        bytes8 _previousOutputValueBytes,\n        bytes8 _newOutputValueBytes\n    ) public returns (bool) {\n        return self.increaseRedemptionFee(_previousOutputValueBytes, _newOutputValueBytes);\n    }\n\n    /// @notice                 Anyone may provide a withdrawal proof to prove redemption\n    /// @dev                    The signers will be penalized if this is not called\n    /// @param  _txVersion      Transaction version number (4-byte LE)\n    /// @param  _txInputVector  All transaction inputs prepended by the number of inputs encoded as a VarInt, max 0xFC(252) inputs\n    /// @param  _txOutputVector All transaction outputs prepended by the number of outputs encoded as a VarInt, max 0xFC(252) outputs\n    /// @param  _txLocktime     Final 4 bytes of the transaction\n    /// @param  _merkleProof    The merkle proof of inclusion of the tx in the bitcoin block\n    /// @param  _txIndexInBlock The index of the tx in the Bitcoin block (0-indexed)\n    /// @param  _bitcoinHeaders An array of tightly-packed bitcoin headers\n    function provideRedemptionProof(\n        bytes4 _txVersion,\n        bytes memory _txInputVector,\n        bytes memory _txOutputVector,\n        bytes4 _txLocktime,\n        bytes memory _merkleProof,\n        uint256 _txIndexInBlock,\n        bytes memory _bitcoinHeaders\n    ) public returns (bool) {\n        self.provideRedemptionProof(\n            _txVersion,\n            _txInputVector,\n            _txOutputVector,\n            _txLocktime,\n            _merkleProof,\n            _txIndexInBlock,\n            _bitcoinHeaders\n        );\n        return true;\n    }\n\n    /// @notice     Anyone may notify the contract that the signers have failed to produce a signature\n    /// @dev        This is considered fraud, and is punished\n    /// @return     True if successful, otherwise revert\n    function notifySignatureTimeout() public returns (bool) {\n        self.notifySignatureTimeout();\n        return true;\n    }\n\n    /// @notice     Anyone may notify the contract that the signers have failed to produce a redemption proof\n    /// @dev        This is considered fraud, and is punished\n    /// @return     True if successful, otherwise revert\n    function notifyRedemptionProofTimeout() public returns (bool) {\n        self.notifyRedemptionProofTimeout();\n        return true;\n    }\n\n    //\n    // FUNDING FLOW\n    //\n\n    /// @notice     Anyone may notify the contract that signing group setup has timed out\n    /// @dev        We rely on the keep system punishes the signers in this case\n    /// @return     True if successful, otherwise revert\n    function notifySignerSetupFailure() public returns (bool) {\n        self.notifySignerSetupFailure();\n        return true;\n    }\n\n    /// @notice             we poll the Keep contract to retrieve our pubkey\n    /// @dev                We store the pubkey as 2 bytestrings, X and Y.\n    /// @return             True if successful, otherwise revert\n    function retrieveSignerPubkey() public returns (bool) {\n        self.retrieveSignerPubkey();\n        return true;\n    }\n\n    /// @notice     Anyone may notify the contract that the funder has failed to send BTC\n    /// @dev        This is considered a funder fault, and we revoke their bond\n    /// @return     True if successful, otherwise revert\n    function notifyFundingTimeout() public returns (bool) {\n        self.notifyFundingTimeout();\n        return true;\n    }\n\n    /// @notice                 Anyone can provide a signature that was not requested to prove fraud during funding\n    /// @dev                    ECDSA is NOT SECURE unless you verify the digest\n    /// @param  _v              Signature recovery value\n    /// @param  _r              Signature R value\n    /// @param  _s              Signature S value\n    /// @param _signedDigest    The digest signed by the signature vrs tuple\n    /// @param _preimage        The sha256 preimage of the digest\n    /// @return                 True if successful, otherwise revert\n    function provideFundingECDSAFraudProof(\n        uint8 _v,\n        bytes32 _r,\n        bytes32 _s,\n        bytes32 _signedDigest,\n        bytes memory _preimage\n    ) public returns (bool) {\n        self.provideFundingECDSAFraudProof(_v, _r, _s, _signedDigest, _preimage);\n        return true;\n    }\n\n    /// @notice     Anyone may notify the contract no funding proof was submitted during funding fraud\n    /// @dev        This is not a funder fault. The signers have faulted, so the funder shouldn't fund\n    /// @return     True if successful, otherwise revert\n    function notifyFraudFundingTimeout() public returns (bool) {\n        self.notifyFraudFundingTimeout();\n        return true;\n    }\n\n    /// @notice                     Anyone may notify the deposit of a funding proof during funding fraud\n    //                              We reward the funder the entire bond if this occurs\n    /// @dev                        Takes a pre-parsed transaction and calculates values needed to verify funding\n    /// @param _txVersion           Transaction version number (4-byte LE)\n    /// @param _txInputVector       All transaction inputs prepended by the number of inputs encoded as a VarInt, max 0xFC(252) inputs\n    /// @param _txOutputVector      All transaction outputs prepended by the number of outputs encoded as a VarInt, max 0xFC(252) outputs\n    /// @param _txLocktime          Final 4 bytes of the transaction\n    /// @param _fundingOutputIndex  Index of funding output in _txOutputVector (0-indexed)\n    /// @param _merkleProof         The merkle proof of transaction inclusion in a block\n    /// @param _txIndexInBlock      Transaction index in the block (0-indexed)\n    /// @param _bitcoinHeaders      Single bytestring of 80-byte bitcoin headers, lowest height first\n    /// @return                     True if no errors are thrown\n    function provideFraudBTCFundingProof(\n        bytes4 _txVersion,\n        bytes memory _txInputVector,\n        bytes memory _txOutputVector,\n        bytes4 _txLocktime,\n        uint8 _fundingOutputIndex,\n        bytes memory _merkleProof,\n        uint256 _txIndexInBlock,\n        bytes memory _bitcoinHeaders\n    ) public returns (bool) {\n        self.provideFraudBTCFundingProof(\n            _txVersion,\n            _txInputVector,\n            _txOutputVector,\n            _txLocktime,\n            _fundingOutputIndex,\n            _merkleProof,\n            _txIndexInBlock,\n            _bitcoinHeaders\n        );\n        return true;\n    }\n\n    /// @notice                     Anyone may notify the deposit of a funding proof to activate the deposit\n    ///                             This is the happy-path of the funding flow. It means that we have succeeded\n    /// @dev                        Takes a pre-parsed transaction and calculates values needed to verify funding\n    /// @param _txVersion           Transaction version number (4-byte LE)\n    /// @param _txInputVector       All transaction inputs prepended by the number of inputs encoded as a VarInt, max 0xFC(252) inputs\n    /// @param _txOutputVector      All transaction outputs prepended by the number of outputs encoded as a VarInt, max 0xFC(252) outputs\n    /// @param _txLocktime          Final 4 bytes of the transaction\n    /// @param _fundingOutputIndex  Index of funding output in _txOutputVector (0-indexed)\n    /// @param _merkleProof         The merkle proof of transaction inclusion in a block\n    /// @param _txIndexInBlock      Transaction index in the block (0-indexed)\n    /// @param _bitcoinHeaders      Single bytestring of 80-byte bitcoin headers, lowest height first\n    /// @return                     True if no errors are thrown\n    function provideBTCFundingProof(\n        bytes4 _txVersion,\n        bytes memory _txInputVector,\n        bytes memory _txOutputVector,\n        bytes4 _txLocktime,\n        uint8 _fundingOutputIndex,\n        bytes memory _merkleProof,\n        uint256 _txIndexInBlock,\n        bytes memory _bitcoinHeaders\n    ) public returns (bool) {\n        self.provideBTCFundingProof(\n            _txVersion,\n            _txInputVector,\n            _txOutputVector,\n            _txLocktime,\n            _fundingOutputIndex,\n            _merkleProof,\n            _txIndexInBlock,\n            _bitcoinHeaders\n        );\n        return true;\n    }\n\n    //\n    // FRAUD\n    //\n\n    /// @notice                 Anyone can provide a signature that was not requested to prove fraud\n    /// @dev                    ECDSA is NOT SECURE unless you verify the digest\n    /// @param  _v              Signature recovery value\n    /// @param  _r              Signature R value\n    /// @param  _s              Signature S value\n    /// @param _signedDigest    The digest signed by the signature vrs tuple\n    /// @param _preimage        The sha256 preimage of the digest\n    /// @return                 True if successful, otherwise revert\n    function provideECDSAFraudProof(\n        uint8 _v,\n        bytes32 _r,\n        bytes32 _s,\n        bytes32 _signedDigest,\n        bytes memory _preimage\n    ) public returns (bool) {\n        self.provideECDSAFraudProof(_v, _r, _s, _signedDigest, _preimage);\n        return true;\n    }\n\n    /// @notice                   Anyone may notify the deposit of fraud via an SPV proof\n    /// @dev                      We strong prefer ECDSA fraud proofs\n    /// @param  _txVersion        Transaction version number (4-byte LE)\n    /// @param  _txInputVector    All transaction inputs prepended by the number of inputs encoded as a VarInt, max 0xFC(252) inputs\n    /// @param  _txOutputVector   All transaction outputs prepended by the number of outputs encoded as a VarInt, max 0xFC(252) outputs\n    /// @param  _txLocktime       Final 4 bytes of the transaction\n    /// @param  _merkleProof      The merkle proof of inclusion of the tx in the bitcoin block\n    /// @param  _txIndexInBlock   The index of the tx in the Bitcoin block (0-indexed)\n    /// @param  _targetInputIndex Index of the input that spends the custodied UTXO\n    /// @param  _bitcoinHeaders   An array of tightly-packed bitcoin headers\n    /// @return                   True if successful, otherwise revert\n    function provideSPVFraudProof(\n        bytes4 _txVersion,\n        bytes memory _txInputVector,\n        bytes memory _txOutputVector,\n        bytes4 _txLocktime,\n        bytes memory _merkleProof,\n        uint256 _txIndexInBlock,\n        uint8 _targetInputIndex,\n        bytes memory _bitcoinHeaders\n    ) public returns (bool) {\n        self.provideSPVFraudProof(\n            _txVersion,\n            _txInputVector,\n            _txOutputVector,\n            _txLocktime,\n            _merkleProof,\n            _txIndexInBlock,\n            _targetInputIndex,\n            _bitcoinHeaders\n        );\n        return true;\n    }\n\n    ///\n    /// LIQUIDATION\n    ///\n\n    /// @notice     Closes an auction and purchases the signer bonds. Payout to buyer, funder, then signers if not fraud\n    /// @dev        For interface, reading auctionValue will give a past value. the current is better\n    /// @return     True if successful, revert otherwise\n    function purchaseSignerBondsAtAuction() public returns (bool) {\n        self.purchaseSignerBondsAtAuction();\n        return true;\n    }\n\n    /// @notice     Notify the contract that the signers are undercollateralized\n    /// @dev        Calls out to the system for oracle info\n    /// @return     True if successful, otherwise revert\n    function notifyCourtesyCall() public returns (bool) {\n        self.notifyCourtesyCall();\n        return true;\n    }\n\n    /// @notice     Goes from courtesy call to active\n    /// @dev        Only callable if collateral is sufficient and the deposit is not expiring\n    /// @return     True if successful, otherwise revert\n    function exitCourtesyCall() public returns (bool) {\n        self.exitCourtesyCall();\n        return true;\n    }\n\n    /// @notice     Notify the contract that the signers are undercollateralized\n    /// @dev        Calls out to the system for oracle info\n    /// @return     True if successful, otherwise revert\n    function notifyUndercollateralizedLiquidation() public returns (bool) {\n        self.notifyUndercollateralizedLiquidation();\n        return true;\n    }\n\n    /// @notice     Notifies the contract that the courtesy period has elapsed\n    /// @dev        This is treated as an abort, rather than fraud\n    /// @return     True if successful, otherwise revert\n    function notifyCourtesyTimeout() public returns (bool) {\n        self.notifyCourtesyTimeout();\n        return true;\n    }\n\n    /// @notice     Notifies the contract that its term limit has been reached\n    /// @dev        This initiates a courtesy call\n    /// @return     True if successful, otherwise revert\n    function notifyDepositExpiryCourtesyCall() public returns (bool) {\n        self.notifyDepositExpiryCourtesyCall();\n        return true;\n    }\n}\n",
  "sourcePath": "/tmp/3995681ba770dba41685eca88864e21ee89e83ad/implementation/contracts/deposit/Deposit.sol",
  "compiler": {
    "name": "solc",
    "version": "0.5.10+commit.5a6ea5b1.Emscripten.clang"
  },
  "schemaVersion": "3.0.2",
  "updatedAt": "2019-11-19T03:12:09.724Z",
  "devdoc": {
    "methods": {
      "createNewDeposit(address,address,uint256,uint256)": {
        "details": "This should be called by an approved contract, not a developer",
        "params": {
          "_m": "n for m-of-n"
        },
        "return": "True if successful, otherwise revert"
      },
      "exitCourtesyCall()": {
        "details": "Only callable if collateral is sufficient and the deposit is not expiring",
        "return": "True if successful, otherwise revert"
      },
      "getCurrentState()": {
        "details": "We implement this because contracts don't handle foreign enums well",
        "return": "The 0-indexed state from the DepositStates enum"
      },
      "increaseRedemptionFee(bytes8,bytes8)": {
        "details": "This sends us back to AWAITING_WITHDRAWAL_SIGNATURE",
        "params": {
          "_newOutputValueBytes": "The new output's value",
          "_previousOutputValueBytes": "The previous output's value"
        },
        "return": "True if successful, False if prevented by timeout, otherwise revert"
      },
      "notifyCourtesyCall()": {
        "details": "Calls out to the system for oracle info",
        "return": "True if successful, otherwise revert"
      },
      "notifyCourtesyTimeout()": {
        "details": "This is treated as an abort, rather than fraud",
        "return": "True if successful, otherwise revert"
      },
      "notifyDepositExpiryCourtesyCall()": {
        "details": "This initiates a courtesy call",
        "return": "True if successful, otherwise revert"
      },
      "notifyFraudFundingTimeout()": {
        "details": "This is not a funder fault. The signers have faulted, so the funder shouldn't fund",
        "return": "True if successful, otherwise revert"
      },
      "notifyFundingTimeout()": {
        "details": "This is considered a funder fault, and we revoke their bond",
        "return": "True if successful, otherwise revert"
      },
      "notifyRedemptionProofTimeout()": {
        "details": "This is considered fraud, and is punished",
        "return": "True if successful, otherwise revert"
      },
      "notifySignatureTimeout()": {
        "details": "This is considered fraud, and is punished",
        "return": "True if successful, otherwise revert"
      },
      "notifySignerSetupFailure()": {
        "details": "We rely on the keep system punishes the signers in this case",
        "return": "True if successful, otherwise revert"
      },
      "notifyUndercollateralizedLiquidation()": {
        "details": "Calls out to the system for oracle info",
        "return": "True if successful, otherwise revert"
      },
      "provideBTCFundingProof(bytes4,bytes,bytes,bytes4,uint8,bytes,uint256,bytes)": {
        "details": "Takes a pre-parsed transaction and calculates values needed to verify funding",
        "params": {
          "_bitcoinHeaders": "Single bytestring of 80-byte bitcoin headers, lowest height first",
          "_fundingOutputIndex": "Index of funding output in _txOutputVector (0-indexed)",
          "_merkleProof": "The merkle proof of transaction inclusion in a block",
          "_txIndexInBlock": "Transaction index in the block (0-indexed)",
          "_txInputVector": "All transaction inputs prepended by the number of inputs encoded as a VarInt, max 0xFC(252) inputs",
          "_txLocktime": "Final 4 bytes of the transaction",
          "_txOutputVector": "All transaction outputs prepended by the number of outputs encoded as a VarInt, max 0xFC(252) outputs",
          "_txVersion": "Transaction version number (4-byte LE)"
        },
        "return": "True if no errors are thrown"
      },
      "provideECDSAFraudProof(uint8,bytes32,bytes32,bytes32,bytes)": {
        "details": "ECDSA is NOT SECURE unless you verify the digest",
        "params": {
          "_preimage": "The sha256 preimage of the digest",
          "_r": "Signature R value",
          "_s": "Signature S value",
          "_signedDigest": "The digest signed by the signature vrs tuple",
          "_v": "Signature recovery value"
        },
        "return": "True if successful, otherwise revert"
      },
      "provideFraudBTCFundingProof(bytes4,bytes,bytes,bytes4,uint8,bytes,uint256,bytes)": {
        "details": "Takes a pre-parsed transaction and calculates values needed to verify funding",
        "params": {
          "_bitcoinHeaders": "Single bytestring of 80-byte bitcoin headers, lowest height first",
          "_fundingOutputIndex": "Index of funding output in _txOutputVector (0-indexed)",
          "_merkleProof": "The merkle proof of transaction inclusion in a block",
          "_txIndexInBlock": "Transaction index in the block (0-indexed)",
          "_txInputVector": "All transaction inputs prepended by the number of inputs encoded as a VarInt, max 0xFC(252) inputs",
          "_txLocktime": "Final 4 bytes of the transaction",
          "_txOutputVector": "All transaction outputs prepended by the number of outputs encoded as a VarInt, max 0xFC(252) outputs",
          "_txVersion": "Transaction version number (4-byte LE)"
        },
        "return": "True if no errors are thrown"
      },
      "provideFundingECDSAFraudProof(uint8,bytes32,bytes32,bytes32,bytes)": {
        "details": "ECDSA is NOT SECURE unless you verify the digest",
        "params": {
          "_preimage": "The sha256 preimage of the digest",
          "_r": "Signature R value",
          "_s": "Signature S value",
          "_signedDigest": "The digest signed by the signature vrs tuple",
          "_v": "Signature recovery value"
        },
        "return": "True if successful, otherwise revert"
      },
      "provideRedemptionProof(bytes4,bytes,bytes,bytes4,bytes,uint256,bytes)": {
        "details": "The signers will be penalized if this is not called",
        "params": {
          "_bitcoinHeaders": "An array of tightly-packed bitcoin headers",
          "_merkleProof": "The merkle proof of inclusion of the tx in the bitcoin block",
          "_txIndexInBlock": "The index of the tx in the Bitcoin block (0-indexed)",
          "_txInputVector": "All transaction inputs prepended by the number of inputs encoded as a VarInt, max 0xFC(252) inputs",
          "_txLocktime": "Final 4 bytes of the transaction",
          "_txOutputVector": "All transaction outputs prepended by the number of outputs encoded as a VarInt, max 0xFC(252) outputs",
          "_txVersion": "Transaction version number (4-byte LE)"
        }
      },
      "provideRedemptionSignature(uint8,bytes32,bytes32)": {
        "details": "The signers will be penalized if this (or provideRedemptionProof) is not called",
        "params": {
          "_r": "Signature R value",
          "_s": "Signature S value",
          "_v": "Signature recovery value"
        },
        "return": "True if successful, False if prevented by timeout, otherwise revert"
      },
      "provideSPVFraudProof(bytes4,bytes,bytes,bytes4,bytes,uint256,uint8,bytes)": {
        "details": "We strong prefer ECDSA fraud proofs",
        "params": {
          "_bitcoinHeaders": "An array of tightly-packed bitcoin headers",
          "_merkleProof": "The merkle proof of inclusion of the tx in the bitcoin block",
          "_targetInputIndex": "Index of the input that spends the custodied UTXO",
          "_txIndexInBlock": "The index of the tx in the Bitcoin block (0-indexed)",
          "_txInputVector": "All transaction inputs prepended by the number of inputs encoded as a VarInt, max 0xFC(252) inputs",
          "_txLocktime": "Final 4 bytes of the transaction",
          "_txOutputVector": "All transaction outputs prepended by the number of outputs encoded as a VarInt, max 0xFC(252) outputs",
          "_txVersion": "Transaction version number (4-byte LE)"
        },
        "return": "True if successful, otherwise revert"
      },
      "purchaseSignerBondsAtAuction()": {
        "details": "For interface, reading auctionValue will give a past value. the current is better",
        "return": "True if successful, revert otherwise"
      },
      "requestRedemption(bytes8,bytes20)": {
        "details": "The redeemer specifies details about the Bitcoin redemption tx",
        "params": {
          "_outputValueBytes": "The 8-byte LE output size",
          "_requesterPKH": "The 20-byte Bitcoin pubkeyhash to which to send funds"
        },
        "return": "True if successful, otherwise revert"
      },
      "retrieveSignerPubkey()": {
        "details": "We store the pubkey as 2 bytestrings, X and Y.",
        "return": "True if successful, otherwise revert"
      }
    }
  },
  "userdoc": {
    "methods": {
      "createNewDeposit(address,address,uint256,uint256)": {
        "notice": "The system can spin up a new deposit"
      },
      "exitCourtesyCall()": {
        "notice": "Goes from courtesy call to active"
      },
      "getCurrentState()": {
        "notice": "Get the integer representing the current state"
      },
      "increaseRedemptionFee(bytes8,bytes8)": {
        "notice": "Anyone may notify the contract that a fee bump is needed"
      },
      "notifyCourtesyCall()": {
        "notice": "Notify the contract that the signers are undercollateralized"
      },
      "notifyCourtesyTimeout()": {
        "notice": "Notifies the contract that the courtesy period has elapsed"
      },
      "notifyDepositExpiryCourtesyCall()": {
        "notice": "Notifies the contract that its term limit has been reached"
      },
      "notifyFraudFundingTimeout()": {
        "notice": "Anyone may notify the contract no funding proof was submitted during funding fraud"
      },
      "notifyFundingTimeout()": {
        "notice": "Anyone may notify the contract that the funder has failed to send BTC"
      },
      "notifyRedemptionProofTimeout()": {
        "notice": "Anyone may notify the contract that the signers have failed to produce a redemption proof"
      },
      "notifySignatureTimeout()": {
        "notice": "Anyone may notify the contract that the signers have failed to produce a signature"
      },
      "notifySignerSetupFailure()": {
        "notice": "Anyone may notify the contract that signing group setup has timed out"
      },
      "notifyUndercollateralizedLiquidation()": {
        "notice": "Notify the contract that the signers are undercollateralized"
      },
      "provideBTCFundingProof(bytes4,bytes,bytes,bytes4,uint8,bytes,uint256,bytes)": {
        "notice": "Anyone may notify the deposit of a funding proof to activate the deposit                             This is the happy-path of the funding flow. It means that we have succeeded"
      },
      "provideECDSAFraudProof(uint8,bytes32,bytes32,bytes32,bytes)": {
        "notice": "Anyone can provide a signature that was not requested to prove fraud"
      },
      "provideFundingECDSAFraudProof(uint8,bytes32,bytes32,bytes32,bytes)": {
        "notice": "Anyone can provide a signature that was not requested to prove fraud during funding"
      },
      "provideRedemptionProof(bytes4,bytes,bytes,bytes4,bytes,uint256,bytes)": {
        "notice": "Anyone may provide a withdrawal proof to prove redemption"
      },
      "provideRedemptionSignature(uint8,bytes32,bytes32)": {
        "notice": "Anyone may provide a withdrawal signature if it was requested"
      },
      "provideSPVFraudProof(bytes4,bytes,bytes,bytes4,bytes,uint256,uint8,bytes)": {
        "notice": "Anyone may notify the deposit of fraud via an SPV proof"
      },
      "purchaseSignerBondsAtAuction()": {
        "notice": " LIQUIDATION  Closes an auction and purchases the signer bonds. Payout to buyer, funder, then signers if not fraud"
      },
      "requestRedemption(bytes8,bytes20)": {
        "notice": "Anyone can request redemption"
      },
      "retrieveSignerPubkey()": {
        "notice": "we poll the Keep contract to retrieve our pubkey"
      }
    }
  }
}