{
  "contractName": "Deposit",
  "abi": [
    {
      "inputs": [],
      "payable": false,
      "stateMutability": "nonpayable",
      "type": "constructor"
    },
    {
      "payable": true,
      "stateMutability": "payable",
      "type": "fallback"
    },
    {
      "constant": true,
      "inputs": [],
      "name": "getCurrentState",
      "outputs": [
        {
          "name": "",
          "type": "uint256"
        }
      ],
      "payable": false,
      "stateMutability": "view",
      "type": "function"
    },
    {
      "constant": true,
      "inputs": [],
      "name": "inActive",
      "outputs": [
        {
          "name": "",
          "type": "bool"
        }
      ],
      "payable": false,
      "stateMutability": "view",
      "type": "function"
    },
    {
      "constant": true,
      "inputs": [],
      "name": "remainingTerm",
      "outputs": [
        {
          "name": "",
          "type": "uint256"
        }
      ],
      "payable": false,
      "stateMutability": "view",
      "type": "function"
    },
    {
      "constant": true,
      "inputs": [],
      "name": "signerFee",
      "outputs": [
        {
          "name": "",
          "type": "uint256"
        }
      ],
      "payable": false,
      "stateMutability": "view",
      "type": "function"
    },
    {
      "constant": false,
      "inputs": [
        {
          "name": "_TBTCSystem",
          "type": "address"
        },
        {
          "name": "_TBTCToken",
          "type": "address"
        },
        {
          "name": "_DepositOwnerToken",
          "type": "address"
        },
        {
          "name": "_FeeRebateToken",
          "type": "address"
        },
        {
          "name": "_VendingMachine",
          "type": "address"
        },
        {
          "name": "_m",
          "type": "uint256"
        },
        {
          "name": "_n",
          "type": "uint256"
        }
      ],
      "name": "createNewDeposit",
      "outputs": [
        {
          "name": "",
          "type": "bool"
        }
      ],
      "payable": true,
      "stateMutability": "payable",
      "type": "function"
    },
    {
      "constant": false,
      "inputs": [
        {
          "name": "_outputValueBytes",
          "type": "bytes8"
        },
        {
          "name": "_requesterPKH",
          "type": "bytes20"
        }
      ],
      "name": "requestRedemption",
      "outputs": [
        {
          "name": "",
          "type": "bool"
        }
      ],
      "payable": false,
      "stateMutability": "nonpayable",
      "type": "function"
    },
    {
      "constant": false,
      "inputs": [
        {
          "name": "_v",
          "type": "uint8"
        },
        {
          "name": "_r",
          "type": "bytes32"
        },
        {
          "name": "_s",
          "type": "bytes32"
        }
      ],
      "name": "provideRedemptionSignature",
      "outputs": [
        {
          "name": "",
          "type": "bool"
        }
      ],
      "payable": false,
      "stateMutability": "nonpayable",
      "type": "function"
    },
    {
      "constant": false,
      "inputs": [
        {
          "name": "_previousOutputValueBytes",
          "type": "bytes8"
        },
        {
          "name": "_newOutputValueBytes",
          "type": "bytes8"
        }
      ],
      "name": "increaseRedemptionFee",
      "outputs": [
        {
          "name": "",
          "type": "bool"
        }
      ],
      "payable": false,
      "stateMutability": "nonpayable",
      "type": "function"
    },
    {
      "constant": false,
      "inputs": [
        {
          "name": "_txVersion",
          "type": "bytes4"
        },
        {
          "name": "_txInputVector",
          "type": "bytes"
        },
        {
          "name": "_txOutputVector",
          "type": "bytes"
        },
        {
          "name": "_txLocktime",
          "type": "bytes4"
        },
        {
          "name": "_merkleProof",
          "type": "bytes"
        },
        {
          "name": "_txIndexInBlock",
          "type": "uint256"
        },
        {
          "name": "_bitcoinHeaders",
          "type": "bytes"
        }
      ],
      "name": "provideRedemptionProof",
      "outputs": [
        {
          "name": "",
          "type": "bool"
        }
      ],
      "payable": false,
      "stateMutability": "nonpayable",
      "type": "function"
    },
    {
      "constant": false,
      "inputs": [],
      "name": "notifySignatureTimeout",
      "outputs": [
        {
          "name": "",
          "type": "bool"
        }
      ],
      "payable": false,
      "stateMutability": "nonpayable",
      "type": "function"
    },
    {
      "constant": false,
      "inputs": [],
      "name": "notifyRedemptionProofTimeout",
      "outputs": [
        {
          "name": "",
          "type": "bool"
        }
      ],
      "payable": false,
      "stateMutability": "nonpayable",
      "type": "function"
    },
    {
      "constant": false,
      "inputs": [],
      "name": "notifySignerSetupFailure",
      "outputs": [
        {
          "name": "",
          "type": "bool"
        }
      ],
      "payable": false,
      "stateMutability": "nonpayable",
      "type": "function"
    },
    {
      "constant": false,
      "inputs": [],
      "name": "retrieveSignerPubkey",
      "outputs": [
        {
          "name": "",
          "type": "bool"
        }
      ],
      "payable": false,
      "stateMutability": "nonpayable",
      "type": "function"
    },
    {
      "constant": false,
      "inputs": [],
      "name": "notifyFundingTimeout",
      "outputs": [
        {
          "name": "",
          "type": "bool"
        }
      ],
      "payable": false,
      "stateMutability": "nonpayable",
      "type": "function"
    },
    {
      "constant": false,
      "inputs": [
        {
          "name": "_v",
          "type": "uint8"
        },
        {
          "name": "_r",
          "type": "bytes32"
        },
        {
          "name": "_s",
          "type": "bytes32"
        },
        {
          "name": "_signedDigest",
          "type": "bytes32"
        },
        {
          "name": "_preimage",
          "type": "bytes"
        }
      ],
      "name": "provideFundingECDSAFraudProof",
      "outputs": [
        {
          "name": "",
          "type": "bool"
        }
      ],
      "payable": false,
      "stateMutability": "nonpayable",
      "type": "function"
    },
    {
      "constant": false,
      "inputs": [],
      "name": "notifyFraudFundingTimeout",
      "outputs": [
        {
          "name": "",
          "type": "bool"
        }
      ],
      "payable": false,
      "stateMutability": "nonpayable",
      "type": "function"
    },
    {
      "constant": false,
      "inputs": [
        {
          "name": "_txVersion",
          "type": "bytes4"
        },
        {
          "name": "_txInputVector",
          "type": "bytes"
        },
        {
          "name": "_txOutputVector",
          "type": "bytes"
        },
        {
          "name": "_txLocktime",
          "type": "bytes4"
        },
        {
          "name": "_fundingOutputIndex",
          "type": "uint8"
        },
        {
          "name": "_merkleProof",
          "type": "bytes"
        },
        {
          "name": "_txIndexInBlock",
          "type": "uint256"
        },
        {
          "name": "_bitcoinHeaders",
          "type": "bytes"
        }
      ],
      "name": "provideFraudBTCFundingProof",
      "outputs": [
        {
          "name": "",
          "type": "bool"
        }
      ],
      "payable": false,
      "stateMutability": "nonpayable",
      "type": "function"
    },
    {
      "constant": false,
      "inputs": [
        {
          "name": "_txVersion",
          "type": "bytes4"
        },
        {
          "name": "_txInputVector",
          "type": "bytes"
        },
        {
          "name": "_txOutputVector",
          "type": "bytes"
        },
        {
          "name": "_txLocktime",
          "type": "bytes4"
        },
        {
          "name": "_fundingOutputIndex",
          "type": "uint8"
        },
        {
          "name": "_merkleProof",
          "type": "bytes"
        },
        {
          "name": "_txIndexInBlock",
          "type": "uint256"
        },
        {
          "name": "_bitcoinHeaders",
          "type": "bytes"
        }
      ],
      "name": "provideBTCFundingProof",
      "outputs": [
        {
          "name": "",
          "type": "bool"
        }
      ],
      "payable": false,
      "stateMutability": "nonpayable",
      "type": "function"
    },
    {
      "constant": false,
      "inputs": [
        {
          "name": "_v",
          "type": "uint8"
        },
        {
          "name": "_r",
          "type": "bytes32"
        },
        {
          "name": "_s",
          "type": "bytes32"
        },
        {
          "name": "_signedDigest",
          "type": "bytes32"
        },
        {
          "name": "_preimage",
          "type": "bytes"
        }
      ],
      "name": "provideECDSAFraudProof",
      "outputs": [
        {
          "name": "",
          "type": "bool"
        }
      ],
      "payable": false,
      "stateMutability": "nonpayable",
      "type": "function"
    },
    {
      "constant": false,
      "inputs": [
        {
          "name": "_txVersion",
          "type": "bytes4"
        },
        {
          "name": "_txInputVector",
          "type": "bytes"
        },
        {
          "name": "_txOutputVector",
          "type": "bytes"
        },
        {
          "name": "_txLocktime",
          "type": "bytes4"
        },
        {
          "name": "_merkleProof",
          "type": "bytes"
        },
        {
          "name": "_txIndexInBlock",
          "type": "uint256"
        },
        {
          "name": "_targetInputIndex",
          "type": "uint8"
        },
        {
          "name": "_bitcoinHeaders",
          "type": "bytes"
        }
      ],
      "name": "provideSPVFraudProof",
      "outputs": [
        {
          "name": "",
          "type": "bool"
        }
      ],
      "payable": false,
      "stateMutability": "nonpayable",
      "type": "function"
    },
    {
      "constant": false,
      "inputs": [],
      "name": "purchaseSignerBondsAtAuction",
      "outputs": [
        {
          "name": "",
          "type": "bool"
        }
      ],
      "payable": false,
      "stateMutability": "nonpayable",
      "type": "function"
    },
    {
      "constant": false,
      "inputs": [],
      "name": "notifyCourtesyCall",
      "outputs": [
        {
          "name": "",
          "type": "bool"
        }
      ],
      "payable": false,
      "stateMutability": "nonpayable",
      "type": "function"
    },
    {
      "constant": false,
      "inputs": [],
      "name": "exitCourtesyCall",
      "outputs": [
        {
          "name": "",
          "type": "bool"
        }
      ],
      "payable": false,
      "stateMutability": "nonpayable",
      "type": "function"
    },
    {
      "constant": false,
      "inputs": [],
      "name": "notifyUndercollateralizedLiquidation",
      "outputs": [
        {
          "name": "",
          "type": "bool"
        }
      ],
      "payable": false,
      "stateMutability": "nonpayable",
      "type": "function"
    },
    {
      "constant": false,
      "inputs": [],
      "name": "notifyCourtesyTimeout",
      "outputs": [
        {
          "name": "",
          "type": "bool"
        }
      ],
      "payable": false,
      "stateMutability": "nonpayable",
      "type": "function"
    },
    {
      "constant": false,
      "inputs": [],
      "name": "notifyDepositExpiryCourtesyCall",
      "outputs": [
        {
          "name": "",
          "type": "bool"
        }
      ],
      "payable": false,
      "stateMutability": "nonpayable",
      "type": "function"
    }
  ],
  "bytecode": "0x608060405234801561001057600080fd5b50612113806100206000396000f3fe6080604052600436106101815760003560e01c8063902d2ead116100d1578063c41595591161008a578063d9f74b0e11610064578063d9f74b0e14610cb3578063e6d6aaba14610f26578063ea3db25014610f3b578063f97a02fa14610f5057610181565b8063c415955914610943578063d459c4161461097c578063d5eef97114610be757610181565b8063902d2ead1461064057806396aab311146106555780639894d7341461066a578063ac563be9146106a6578063b4bd2e7a14610919578063c1b873681461092e57610181565b8063378aa7011161013e5780637d18eed9116101185780637d18eed91461031d57806380be47d41461036657806382925cf0146105d95780638a68db651461062b57610181565b8063378aa701146102de57806372ed2b4a146102f357806375030f9c1461030857610181565b806306d6bf1a14610183578063287b32e5146101ac5780632c735daa146101c15780632d099442146101d657806334cf5283146102a257806335bc0ebe146102b7575b005b34801561018f57600080fd5b50610198610f65565b604080519115158252519081900360200190f35b3480156101b857600080fd5b50610198610fd7565b3480156101cd57600080fd5b5061019861102a565b3480156101e257600080fd5b50610198600480360360a08110156101f957600080fd5b60ff8235169160208101359160408201359160608101359181019060a081016080820135600160201b81111561022e57600080fd5b82018360208201111561024057600080fd5b803590602001918460018302840111600160201b8311171561026157600080fd5b91908080601f01602080910402602001604051908101604052809392919081815260200183838082843760009201919091525092955061107d945050505050565b3480156102ae57600080fd5b50610198611184565b3480156102c357600080fd5b506102cc6111d7565b60408051918252519081900360200190f35b3480156102ea57600080fd5b506102cc61125b565b3480156102ff57600080fd5b5061019861126b565b34801561031457600080fd5b506102cc6112be565b34801561032957600080fd5b506101986004803603604081101561034057600080fd5b5080356001600160c01b03191690602001356bffffffffffffffffffffffff1916611311565b34801561037257600080fd5b50610198600480360361010081101561038a57600080fd5b6001600160e01b03198235169190810190604081016020820135600160201b8111156103b557600080fd5b8201836020820111156103c757600080fd5b803590602001918460018302840111600160201b831117156103e857600080fd5b91908080601f0160208091040260200160405190810160405280939291908181526020018383808284376000920191909152509295949360208101935035915050600160201b81111561043a57600080fd5b82018360208201111561044c57600080fd5b803590602001918460018302840111600160201b8311171561046d57600080fd5b91908080601f01602080910402602001604051908101604052809392919081815260200183838082843760009201919091525092956001600160e01b0319853516959094909350604081019250602001359050600160201b8111156104d157600080fd5b8201836020820111156104e357600080fd5b803590602001918460018302840111600160201b8311171561050457600080fd5b91908080601f016020809104026020016040519081016040528093929190818152602001838380828437600092019190915250929584359560ff60208701351695919450925060608101915060400135600160201b81111561056557600080fd5b82018360208201111561057757600080fd5b803590602001918460018302840111600160201b8311171561059857600080fd5b91908080601f0160208091040260200160405190810160405280939291908181526020018383808284376000920191909152509295506113aa945050505050565b610198600480360360e08110156105ef57600080fd5b506001600160a01b0381358116916020810135821691604082013581169160608101358216916080820135169060a08101359060c00135611611565b34801561063757600080fd5b506101986116eb565b34801561064c57600080fd5b5061019861173e565b34801561066157600080fd5b50610198611791565b34801561067657600080fd5b506101986004803603604081101561068d57600080fd5b506001600160c01b0319813581169160200135166117e4565b3480156106b257600080fd5b5061019860048036036101008110156106ca57600080fd5b6001600160e01b03198235169190810190604081016020820135600160201b8111156106f557600080fd5b82018360208201111561070757600080fd5b803590602001918460018302840111600160201b8311171561072857600080fd5b91908080601f0160208091040260200160405190810160405280939291908181526020018383808284376000920191909152509295949360208101935035915050600160201b81111561077a57600080fd5b82018360208201111561078c57600080fd5b803590602001918460018302840111600160201b831117156107ad57600080fd5b91908080601f01602080910402602001604051908101604052809392919081815260200183838082843760009201919091525092956001600160e01b03198535169560ff60208701351695919450925060608101915060400135600160201b81111561081857600080fd5b82018360208201111561082a57600080fd5b803590602001918460018302840111600160201b8311171561084b57600080fd5b91908080601f01602080910402602001604051908101604052809392919081815260200183838082843760009201919091525092958435959094909350604081019250602001359050600160201b8111156108a557600080fd5b8201836020820111156108b757600080fd5b803590602001918460018302840111600160201b831117156108d857600080fd5b91908080601f016020809104026020016040519081016040528093929190818152602001838380828437600092019190915250929550611883945050505050565b34801561092557600080fd5b50610198611afe565b34801561093a57600080fd5b50610198611b51565b34801561094f57600080fd5b506101986004803603606081101561096657600080fd5b5060ff8135169060208101359060400135611ba4565b34801561098857600080fd5b50610198600480360360e081101561099f57600080fd5b6001600160e01b03198235169190810190604081016020820135600160201b8111156109ca57600080fd5b8201836020820111156109dc57600080fd5b803590602001918460018302840111600160201b831117156109fd57600080fd5b91908080601f0160208091040260200160405190810160405280939291908181526020018383808284376000920191909152509295949360208101935035915050600160201b811115610a4f57600080fd5b820183602082011115610a6157600080fd5b803590602001918460018302840111600160201b83111715610a8257600080fd5b91908080601f01602080910402602001604051908101604052809392919081815260200183838082843760009201919091525092956001600160e01b0319853516959094909350604081019250602001359050600160201b811115610ae657600080fd5b820183602082011115610af857600080fd5b803590602001918460018302840111600160201b83111715610b1957600080fd5b91908080601f01602080910402602001604051908101604052809392919081815260200183838082843760009201919091525092958435959094909350604081019250602001359050600160201b811115610b7357600080fd5b820183602082011115610b8557600080fd5b803590602001918460018302840111600160201b83111715610ba657600080fd5b91908080601f016020809104026020016040519081016040528093929190818152602001838380828437600092019190915250929550611c30945050505050565b348015610bf357600080fd5b50610198600480360360a0811015610c0a57600080fd5b60ff8235169160208101359160408201359160608101359181019060a081016080820135600160201b811115610c3f57600080fd5b820183602082011115610c5157600080fd5b803590602001918460018302840111600160201b83111715610c7257600080fd5b91908080601f016020809104026020016040519081016040528093929190818152602001838380828437600092019190915250929550611e88945050505050565b348015610cbf57600080fd5b506101986004803603610100811015610cd757600080fd5b6001600160e01b03198235169190810190604081016020820135600160201b811115610d0257600080fd5b820183602082011115610d1457600080fd5b803590602001918460018302840111600160201b83111715610d3557600080fd5b91908080601f0160208091040260200160405190810160405280939291908181526020018383808284376000920191909152509295949360208101935035915050600160201b811115610d8757600080fd5b820183602082011115610d9957600080fd5b803590602001918460018302840111600160201b83111715610dba57600080fd5b91908080601f01602080910402602001604051908101604052809392919081815260200183838082843760009201919091525092956001600160e01b03198535169560ff60208701351695919450925060608101915060400135600160201b811115610e2557600080fd5b820183602082011115610e3757600080fd5b803590602001918460018302840111600160201b83111715610e5857600080fd5b91908080601f01602080910402602001604051908101604052809392919081815260200183838082843760009201919091525092958435959094909350604081019250602001359050600160201b811115610eb257600080fd5b820183602082011115610ec457600080fd5b803590602001918460018302840111600160201b83111715610ee557600080fd5b91908080601f016020809104026020016040519081016040528093929190818152602001838380828437600092019190915250929550611f1b945050505050565b348015610f3257600080fd5b50610198611fe5565b348015610f4757600080fd5b50610198612038565b348015610f5c57600080fd5b5061019861208b565b60008073__DepositFunding________________________63490f787190916040518263ffffffff1660e01b81526004018082815260200191505060006040518083038186803b158015610fb857600080fd5b505af4158015610fcc573d6000803e3d6000fd5b505050506001905090565b60008073__DepositLiquidation____________________633bd675c890916040518263ffffffff1660e01b81526004018082815260200191505060006040518083038186803b158015610fb857600080fd5b60008073__DepositLiquidation____________________632ea8450690916040518263ffffffff1660e01b81526004018082815260200191505060006040518083038186803b158015610fb857600080fd5b60008073__DepositFunding________________________63fb12d9df909188888888886040518763ffffffff1660e01b8152600401808781526020018660ff1660ff16815260200185815260200184815260200183815260200180602001828103825283818151815260200191508051906020019080838360005b838110156111115781810151838201526020016110f9565b50505050905090810190601f16801561113e5780820380516001836020036101000a031916815260200191505b5097505050505050505060006040518083038186803b15801561116057600080fd5b505af4158015611174573d6000803e3d6000fd5b5060019998505050505050505050565b60008073__DepositRedemption_____________________63cd53895490916040518263ffffffff1660e01b81526004018082815260200191505060006040518083038186803b158015610fb857600080fd5b60008073__DepositUtils__________________________6391f88c8590916040518263ffffffff1660e01b81526004018082815260200191505060206040518083038186803b15801561122a57600080fd5b505af415801561123e573d6000803e3d6000fd5b505050506040513d602081101561125457600080fd5b5051905090565b600454600160a01b900460ff1690565b60008073__DepositLiquidation____________________63a43c845b90916040518263ffffffff1660e01b81526004018082815260200191505060006040518083038186803b158015610fb857600080fd5b60008073__DepositUtils__________________________63c02a309590916040518263ffffffff1660e01b81526004018082815260200191505060206040518083038186803b15801561122a57600080fd5b60408051637544b12560e11b81526000600482018190526001600160c01b0319851660248301526bffffffffffffffffffffffff1984166044830152915173__DepositRedemption_____________________9163ea89624a9160648083019286929190829003018186803b15801561138957600080fd5b505af415801561139d573d6000803e3d6000fd5b5060019695505050505050565b60008073__DepositLiquidation____________________63b9f853f890918b8b8b8b8b8b8b8b6040518a63ffffffff1660e01b8152600401808a8152602001896001600160e01b0319166001600160e01b03191681526020018060200180602001886001600160e01b0319166001600160e01b0319168152602001806020018781526020018660ff1660ff1681526020018060200185810385528c818151815260200191508051906020019080838360005b8381101561147557818101518382015260200161145d565b50505050905090810190601f1680156114a25780820380516001836020036101000a031916815260200191505b5085810384528b5181528b516020918201918d019080838360005b838110156114d55781810151838201526020016114bd565b50505050905090810190601f1680156115025780820380516001836020036101000a031916815260200191505b5085810383528951815289516020918201918b019080838360005b8381101561153557818101518382015260200161151d565b50505050905090810190601f1680156115625780820380516001836020036101000a031916815260200191505b50858103825286518152865160209182019188019080838360005b8381101561159557818101518382015260200161157d565b50505050905090810190601f1680156115c25780820380516001836020036101000a031916815260200191505b509d505050505050505050505050505060006040518083038186803b1580156115ea57600080fd5b505af41580156115fe573d6000803e3d6000fd5b5060019c9b505050505050505050505050565b600080546001600160a01b03199081166001600160a01b038a81169190911783556001805483168a831617905560028054831689831617905560038054831688831617905560048054909216908616178155604080516309ab65f560e01b815291820183905260248201859052604482018490525173__DepositFunding________________________916309ab65f5916064808301926020929190829003018186803b1580156116c157600080fd5b505af41580156116d5573d6000803e3d6000fd5b505050506040513d602081101561117457600080fd5b60008073__DepositRedemption_____________________635976635790916040518263ffffffff1660e01b81526004018082815260200191505060006040518083038186803b158015610fb857600080fd5b60008073__DepositLiquidation____________________63c396a1f490916040518263ffffffff1660e01b81526004018082815260200191505060006040518083038186803b158015610fb857600080fd5b60008073__DepositLiquidation____________________63a221542190916040518263ffffffff1660e01b81526004018082815260200191505060006040518083038186803b158015610fb857600080fd5b60408051632d0c21bf60e01b81526000600482018190526001600160c01b0319808616602484015284166044830152915173__DepositRedemption_____________________91632d0c21bf916064808301926020929190829003018186803b15801561185057600080fd5b505af4158015611864573d6000803e3d6000fd5b505050506040513d602081101561187a57600080fd5b50519392505050565b60008073__DepositFunding________________________63f8e39deb90918b8b8b8b8b8b8b8b6040518a63ffffffff1660e01b8152600401808a8152602001896001600160e01b0319166001600160e01b03191681526020018060200180602001886001600160e01b0319166001600160e01b03191681526020018760ff1660ff168152602001806020018681526020018060200185810385528c818151815260200191508051906020019080838360005b8381101561194e578181015183820152602001611936565b50505050905090810190601f16801561197b5780820380516001836020036101000a031916815260200191505b5085810384528b5181528b516020918201918d019080838360005b838110156119ae578181015183820152602001611996565b50505050905090810190601f1680156119db5780820380516001836020036101000a031916815260200191505b5085810383528851815288516020918201918a019080838360005b83811015611a0e5781810151838201526020016119f6565b50505050905090810190601f168015611a3b5780820380516001836020036101000a031916815260200191505b50858103825286518152865160209182019188019080838360005b83811015611a6e578181015183820152602001611a56565b50505050905090810190601f168015611a9b5780820380516001836020036101000a031916815260200191505b509d505050505050505050505050505060206040518083038186803b158015611ac357600080fd5b505af4158015611ad7573d6000803e3d6000fd5b505050506040513d6020811015611aed57600080fd5b5060019a9950505050505050505050565b60008073__DepositLiquidation____________________6393a3866490916040518263ffffffff1660e01b81526004018082815260200191505060006040518083038186803b158015610fb857600080fd5b60008073__DepositFunding________________________635347b1de90916040518263ffffffff1660e01b81526004018082815260200191505060006040518083038186803b158015610fb857600080fd5b60408051631e3435d560e11b815260006004820181905260ff861660248301526044820185905260648201849052915173__DepositRedemption_____________________91633c686baa9160848083019286929190829003018186803b158015611c0e57600080fd5b505af4158015611c22573d6000803e3d6000fd5b506001979650505050505050565b60008073__DepositRedemption_____________________636c7e2b9d90918a8a8a8a8a8a8a6040518963ffffffff1660e01b815260040180898152602001886001600160e01b0319166001600160e01b03191681526020018060200180602001876001600160e01b0319166001600160e01b0319168152602001806020018681526020018060200185810385528b818151815260200191508051906020019080838360005b83811015611cee578181015183820152602001611cd6565b50505050905090810190601f168015611d1b5780820380516001836020036101000a031916815260200191505b5085810384528a5181528a516020918201918c019080838360005b83811015611d4e578181015183820152602001611d36565b50505050905090810190601f168015611d7b5780820380516001836020036101000a031916815260200191505b5085810383528851815288516020918201918a019080838360005b83811015611dae578181015183820152602001611d96565b50505050905090810190601f168015611ddb5780820380516001836020036101000a031916815260200191505b50858103825286518152865160209182019188019080838360005b83811015611e0e578181015183820152602001611df6565b50505050905090810190601f168015611e3b5780820380516001836020036101000a031916815260200191505b509c5050505050505050505050505060006040518083038186803b158015611e6257600080fd5b505af4158015611e76573d6000803e3d6000fd5b5060019b9a5050505050505050505050565b60008073__DepositLiquidation____________________634941676c909188888888886040518763ffffffff1660e01b8152600401808781526020018660ff1660ff1681526020018581526020018481526020018381526020018060200182810382528381815181526020019150805190602001908083836000838110156111115781810151838201526020016110f9565b60008073__DepositFunding________________________63d745519390918b8b8b8b8b8b8b8b6040518a63ffffffff1660e01b8152600401808a8152602001896001600160e01b0319166001600160e01b03191681526020018060200180602001886001600160e01b0319166001600160e01b03191681526020018760ff1660ff168152602001806020018681526020018060200185810385528c818151815260200191508051906020019080838360008381101561194e578181015183820152602001611936565b60008073__DepositFunding________________________63cd40cc6490916040518263ffffffff1660e01b81526004018082815260200191505060006040518083038186803b158015610fb857600080fd5b60008073__DepositFunding________________________63bb21d02490916040518263ffffffff1660e01b81526004018082815260200191505060006040518083038186803b158015610fb857600080fd5b60008073__DepositStates_________________________630f2c635590916040518263ffffffff1660e01b81526004018082815260200191505060206040518083038186803b15801561122a57600080fdfea265627a7a72305820c42112e7543433e08a29feabeb93c598fa4be905e3374ecc0937e786eafdeb7f64736f6c634300050a0032",
  "source": "pragma solidity ^0.5.10;\n\nimport {DepositLiquidation} from \"./DepositLiquidation.sol\";\nimport {DepositUtils} from \"./DepositUtils.sol\";\nimport {DepositFunding} from \"./DepositFunding.sol\";\nimport {DepositRedemption} from \"./DepositRedemption.sol\";\nimport {DepositStates} from \"./DepositStates.sol\";\n\ncontract Deposit {\n\n    using DepositRedemption for DepositUtils.Deposit;\n    using DepositFunding for DepositUtils.Deposit;\n    using DepositLiquidation for DepositUtils.Deposit;\n    using DepositUtils for DepositUtils.Deposit;\n    using DepositStates for DepositUtils.Deposit;\n\n    DepositUtils.Deposit self;\n\n    // We separate the constructor from createNewDeposit to make proxy factories easier\n    /* solium-disable-next-line no-empty-blocks */\n    constructor () public {}\n\n    function () external payable {}\n\n    /// @notice     Get the integer representing the current state\n    /// @dev        We implement this because contracts don't handle foreign enums well\n    /// @return     The 0-indexed state from the DepositStates enum\n    function getCurrentState() public view returns (uint256) {\n        return uint256(self.currentState);\n    }\n\n    /// @notice     Check if the Deposit is in ACTIVE state.\n    /// @return     True if state is ACTIVE, fale otherwise.\n    function inActive() public view returns (bool) {\n        return self.inActive();\n    }\n\n    /// @notice Retrieve the remaining term of the deposit in seconds.\n    /// @dev    The value is not guaranteed since block.timestmap can be lightly manipulated by miners.\n    /// @return The remaining term of the deposit in seconds. 0 if already at term\n    function remainingTerm() public view returns(uint256){\n        return self.remainingTerm();\n    }\n\n    /// @notice     Get the signer fee for the Deposit.\n    /// @return     Fee amount in TBTC\n    function signerFee() public view returns (uint256) {\n        return self.signerFee();\n    }\n\n    // THIS IS THE INIT FUNCTION\n    /// @notice         The system can spin up a new deposit\n    /// @dev            This should be called by an approved contract, not a developer\n    /// @param _m       m for m-of-n\n    /// @param _m       n for m-of-n\n    /// @return         True if successful, otherwise revert\n    function createNewDeposit(\n        address _TBTCSystem,\n        address _TBTCToken,\n        address _DepositOwnerToken,\n        address _FeeRebateToken,\n        address _VendingMachine,\n        uint256 _m,\n        uint256 _n\n    ) public payable returns (bool) {\n        self.TBTCSystem = _TBTCSystem;\n        self.TBTCToken = _TBTCToken;\n        self.DepositOwnerToken = _DepositOwnerToken;\n        self.FeeRebateToken = _FeeRebateToken;\n        self.VendingMachine = _VendingMachine;\n        self.createNewDeposit(_m, _n);\n        return true;\n    }\n\n    /// @notice                     Anyone can request redemption\n    /// @dev                        The redeemer specifies details about the Bitcoin redemption tx\n    /// @param  _outputValueBytes   The 8-byte LE output size\n    /// @param  _requesterPKH       The 20-byte Bitcoin pubkeyhash to which to send funds\n    /// @return                     True if successful, otherwise revert\n    function requestRedemption(\n        bytes8 _outputValueBytes,\n        bytes20 _requesterPKH\n    ) public returns (bool) {\n        self.requestRedemption(_outputValueBytes, _requesterPKH);\n        return true;\n    }\n\n    /// @notice     Anyone may provide a withdrawal signature if it was requested\n    /// @dev        The signers will be penalized if this (or provideRedemptionProof) is not called\n    /// @param  _v  Signature recovery value\n    /// @param  _r  Signature R value\n    /// @param  _s  Signature S value\n    /// @return     True if successful, False if prevented by timeout, otherwise revert\n    function provideRedemptionSignature(\n        uint8 _v,\n        bytes32 _r,\n        bytes32 _s\n    ) public returns (bool) {\n        self.provideRedemptionSignature(_v, _r, _s);\n        return true;\n    }\n\n    /// @notice                             Anyone may notify the contract that a fee bump is needed\n    /// @dev                                This sends us back to AWAITING_WITHDRAWAL_SIGNATURE\n    /// @param  _previousOutputValueBytes   The previous output's value\n    /// @param  _newOutputValueBytes        The new output's value\n    /// @return                             True if successful, False if prevented by timeout, otherwise revert\n    function increaseRedemptionFee(\n        bytes8 _previousOutputValueBytes,\n        bytes8 _newOutputValueBytes\n    ) public returns (bool) {\n        return self.increaseRedemptionFee(_previousOutputValueBytes, _newOutputValueBytes);\n    }\n\n    /// @notice                 Anyone may provide a withdrawal proof to prove redemption\n    /// @dev                    The signers will be penalized if this is not called\n    /// @param  _txVersion      Transaction version number (4-byte LE)\n    /// @param  _txInputVector  All transaction inputs prepended by the number of inputs encoded as a VarInt, max 0xFC(252) inputs\n    /// @param  _txOutputVector All transaction outputs prepended by the number of outputs encoded as a VarInt, max 0xFC(252) outputs\n    /// @param  _txLocktime     Final 4 bytes of the transaction\n    /// @param  _merkleProof    The merkle proof of inclusion of the tx in the bitcoin block\n    /// @param  _txIndexInBlock The index of the tx in the Bitcoin block (0-indexed)\n    /// @param  _bitcoinHeaders An array of tightly-packed bitcoin headers\n    function provideRedemptionProof(\n        bytes4 _txVersion,\n        bytes memory _txInputVector,\n        bytes memory _txOutputVector,\n        bytes4 _txLocktime,\n        bytes memory _merkleProof,\n        uint256 _txIndexInBlock,\n        bytes memory _bitcoinHeaders\n    ) public returns (bool) {\n        self.provideRedemptionProof(\n            _txVersion,\n            _txInputVector,\n            _txOutputVector,\n            _txLocktime,\n            _merkleProof,\n            _txIndexInBlock,\n            _bitcoinHeaders\n        );\n        return true;\n    }\n\n    /// @notice     Anyone may notify the contract that the signers have failed to produce a signature\n    /// @dev        This is considered fraud, and is punished\n    /// @return     True if successful, otherwise revert\n    function notifySignatureTimeout() public returns (bool) {\n        self.notifySignatureTimeout();\n        return true;\n    }\n\n    /// @notice     Anyone may notify the contract that the signers have failed to produce a redemption proof\n    /// @dev        This is considered fraud, and is punished\n    /// @return     True if successful, otherwise revert\n    function notifyRedemptionProofTimeout() public returns (bool) {\n        self.notifyRedemptionProofTimeout();\n        return true;\n    }\n\n    //\n    // FUNDING FLOW\n    //\n\n    /// @notice     Anyone may notify the contract that signing group setup has timed out\n    /// @dev        We rely on the keep system punishes the signers in this case\n    /// @return     True if successful, otherwise revert\n    function notifySignerSetupFailure() public returns (bool) {\n        self.notifySignerSetupFailure();\n        return true;\n    }\n\n    /// @notice             we poll the Keep contract to retrieve our pubkey\n    /// @dev                We store the pubkey as 2 bytestrings, X and Y.\n    /// @return             True if successful, otherwise revert\n    function retrieveSignerPubkey() public returns (bool) {\n        self.retrieveSignerPubkey();\n        return true;\n    }\n\n    /// @notice     Anyone may notify the contract that the funder has failed to send BTC\n    /// @dev        This is considered a funder fault, and we revoke their bond\n    /// @return     True if successful, otherwise revert\n    function notifyFundingTimeout() public returns (bool) {\n        self.notifyFundingTimeout();\n        return true;\n    }\n\n    /// @notice                 Anyone can provide a signature that was not requested to prove fraud during funding\n    /// @dev                    ECDSA is NOT SECURE unless you verify the digest\n    /// @param  _v              Signature recovery value\n    /// @param  _r              Signature R value\n    /// @param  _s              Signature S value\n    /// @param _signedDigest    The digest signed by the signature vrs tuple\n    /// @param _preimage        The sha256 preimage of the digest\n    /// @return                 True if successful, otherwise revert\n    function provideFundingECDSAFraudProof(\n        uint8 _v,\n        bytes32 _r,\n        bytes32 _s,\n        bytes32 _signedDigest,\n        bytes memory _preimage\n    ) public returns (bool) {\n        self.provideFundingECDSAFraudProof(_v, _r, _s, _signedDigest, _preimage);\n        return true;\n    }\n\n    /// @notice     Anyone may notify the contract no funding proof was submitted during funding fraud\n    /// @dev        This is not a funder fault. The signers have faulted, so the funder shouldn't fund\n    /// @return     True if successful, otherwise revert\n    function notifyFraudFundingTimeout() public returns (bool) {\n        self.notifyFraudFundingTimeout();\n        return true;\n    }\n\n    /// @notice                     Anyone may notify the deposit of a funding proof during funding fraud\n    //                              We reward the funder the entire bond if this occurs\n    /// @dev                        Takes a pre-parsed transaction and calculates values needed to verify funding\n    /// @param _txVersion           Transaction version number (4-byte LE)\n    /// @param _txInputVector       All transaction inputs prepended by the number of inputs encoded as a VarInt, max 0xFC(252) inputs\n    /// @param _txOutputVector      All transaction outputs prepended by the number of outputs encoded as a VarInt, max 0xFC(252) outputs\n    /// @param _txLocktime          Final 4 bytes of the transaction\n    /// @param _fundingOutputIndex  Index of funding output in _txOutputVector (0-indexed)\n    /// @param _merkleProof         The merkle proof of transaction inclusion in a block\n    /// @param _txIndexInBlock      Transaction index in the block (0-indexed)\n    /// @param _bitcoinHeaders      Single bytestring of 80-byte bitcoin headers, lowest height first\n    /// @return                     True if no errors are thrown\n    function provideFraudBTCFundingProof(\n        bytes4 _txVersion,\n        bytes memory _txInputVector,\n        bytes memory _txOutputVector,\n        bytes4 _txLocktime,\n        uint8 _fundingOutputIndex,\n        bytes memory _merkleProof,\n        uint256 _txIndexInBlock,\n        bytes memory _bitcoinHeaders\n    ) public returns (bool) {\n        self.provideFraudBTCFundingProof(\n            _txVersion,\n            _txInputVector,\n            _txOutputVector,\n            _txLocktime,\n            _fundingOutputIndex,\n            _merkleProof,\n            _txIndexInBlock,\n            _bitcoinHeaders\n        );\n        return true;\n    }\n\n    /// @notice                     Anyone may notify the deposit of a funding proof to activate the deposit\n    ///                             This is the happy-path of the funding flow. It means that we have succeeded\n    /// @dev                        Takes a pre-parsed transaction and calculates values needed to verify funding\n    /// @param _txVersion           Transaction version number (4-byte LE)\n    /// @param _txInputVector       All transaction inputs prepended by the number of inputs encoded as a VarInt, max 0xFC(252) inputs\n    /// @param _txOutputVector      All transaction outputs prepended by the number of outputs encoded as a VarInt, max 0xFC(252) outputs\n    /// @param _txLocktime          Final 4 bytes of the transaction\n    /// @param _fundingOutputIndex  Index of funding output in _txOutputVector (0-indexed)\n    /// @param _merkleProof         The merkle proof of transaction inclusion in a block\n    /// @param _txIndexInBlock      Transaction index in the block (0-indexed)\n    /// @param _bitcoinHeaders      Single bytestring of 80-byte bitcoin headers, lowest height first\n    /// @return                     True if no errors are thrown\n    function provideBTCFundingProof(\n        bytes4 _txVersion,\n        bytes memory _txInputVector,\n        bytes memory _txOutputVector,\n        bytes4 _txLocktime,\n        uint8 _fundingOutputIndex,\n        bytes memory _merkleProof,\n        uint256 _txIndexInBlock,\n        bytes memory _bitcoinHeaders\n    ) public returns (bool) {\n        self.provideBTCFundingProof(\n            _txVersion,\n            _txInputVector,\n            _txOutputVector,\n            _txLocktime,\n            _fundingOutputIndex,\n            _merkleProof,\n            _txIndexInBlock,\n            _bitcoinHeaders\n        );\n        return true;\n    }\n\n    //\n    // FRAUD\n    //\n\n    /// @notice                 Anyone can provide a signature that was not requested to prove fraud\n    /// @dev                    ECDSA is NOT SECURE unless you verify the digest\n    /// @param  _v              Signature recovery value\n    /// @param  _r              Signature R value\n    /// @param  _s              Signature S value\n    /// @param _signedDigest    The digest signed by the signature vrs tuple\n    /// @param _preimage        The sha256 preimage of the digest\n    /// @return                 True if successful, otherwise revert\n    function provideECDSAFraudProof(\n        uint8 _v,\n        bytes32 _r,\n        bytes32 _s,\n        bytes32 _signedDigest,\n        bytes memory _preimage\n    ) public returns (bool) {\n        self.provideECDSAFraudProof(_v, _r, _s, _signedDigest, _preimage);\n        return true;\n    }\n\n    /// @notice                   Anyone may notify the deposit of fraud via an SPV proof\n    /// @dev                      We strong prefer ECDSA fraud proofs\n    /// @param  _txVersion        Transaction version number (4-byte LE)\n    /// @param  _txInputVector    All transaction inputs prepended by the number of inputs encoded as a VarInt, max 0xFC(252) inputs\n    /// @param  _txOutputVector   All transaction outputs prepended by the number of outputs encoded as a VarInt, max 0xFC(252) outputs\n    /// @param  _txLocktime       Final 4 bytes of the transaction\n    /// @param  _merkleProof      The merkle proof of inclusion of the tx in the bitcoin block\n    /// @param  _txIndexInBlock   The index of the tx in the Bitcoin block (0-indexed)\n    /// @param  _targetInputIndex Index of the input that spends the custodied UTXO\n    /// @param  _bitcoinHeaders   An array of tightly-packed bitcoin headers\n    /// @return                   True if successful, otherwise revert\n    function provideSPVFraudProof(\n        bytes4 _txVersion,\n        bytes memory _txInputVector,\n        bytes memory _txOutputVector,\n        bytes4 _txLocktime,\n        bytes memory _merkleProof,\n        uint256 _txIndexInBlock,\n        uint8 _targetInputIndex,\n        bytes memory _bitcoinHeaders\n    ) public returns (bool) {\n        self.provideSPVFraudProof(\n            _txVersion,\n            _txInputVector,\n            _txOutputVector,\n            _txLocktime,\n            _merkleProof,\n            _txIndexInBlock,\n            _targetInputIndex,\n            _bitcoinHeaders\n        );\n        return true;\n    }\n\n    //\n    // LIQUIDATION\n    //\n\n    /// @notice     Closes an auction and purchases the signer bonds. Payout to buyer, funder, then signers if not fraud\n    /// @dev        For interface, reading auctionValue will give a past value. the current is better\n    /// @return     True if successful, revert otherwise\n    function purchaseSignerBondsAtAuction() public returns (bool) {\n        self.purchaseSignerBondsAtAuction();\n        return true;\n    }\n\n    /// @notice     Notify the contract that the signers are undercollateralized\n    /// @dev        Calls out to the system for oracle info\n    /// @return     True if successful, otherwise revert\n    function notifyCourtesyCall() public returns (bool) {\n        self.notifyCourtesyCall();\n        return true;\n    }\n\n    /// @notice     Goes from courtesy call to active\n    /// @dev        Only callable if collateral is sufficient and the deposit is not expiring\n    /// @return     True if successful, otherwise revert\n    function exitCourtesyCall() public returns (bool) {\n        self.exitCourtesyCall();\n        return true;\n    }\n\n    /// @notice     Notify the contract that the signers are undercollateralized\n    /// @dev        Calls out to the system for oracle info\n    /// @return     True if successful, otherwise revert\n    function notifyUndercollateralizedLiquidation() public returns (bool) {\n        self.notifyUndercollateralizedLiquidation();\n        return true;\n    }\n\n    /// @notice     Notifies the contract that the courtesy period has elapsed\n    /// @dev        This is treated as an abort, rather than fraud\n    /// @return     True if successful, otherwise revert\n    function notifyCourtesyTimeout() public returns (bool) {\n        self.notifyCourtesyTimeout();\n        return true;\n    }\n\n    /// @notice     Notifies the contract that its term limit has been reached\n    /// @dev        This initiates a courtesy call\n    /// @return     True if successful, otherwise revert\n    function notifyDepositExpiryCourtesyCall() public returns (bool) {\n        self.notifyDepositExpiryCourtesyCall();\n        return true;\n    }\n}\n",
  "sourcePath": "/tmp/46a38aeec76c1707279b44cd3da78d16dc8a88ed/implementation/contracts/deposit/Deposit.sol",
  "compiler": {
    "name": "solc",
    "version": "0.5.10+commit.5a6ea5b1.Emscripten.clang"
  },
  "schemaVersion": "3.0.20",
  "updatedAt": "2020-01-16T05:19:50.176Z",
  "networkType": "ethereum",
  "devdoc": {
    "methods": {
      "createNewDeposit(address,address,address,address,address,uint256,uint256)": {
        "details": "This should be called by an approved contract, not a developer",
        "params": {
          "_m": "n for m-of-n"
        },
        "return": "True if successful, otherwise revert"
      },
      "exitCourtesyCall()": {
        "details": "Only callable if collateral is sufficient and the deposit is not expiring",
        "return": "True if successful, otherwise revert"
      },
      "getCurrentState()": {
        "details": "We implement this because contracts don't handle foreign enums well",
        "return": "The 0-indexed state from the DepositStates enum"
      },
      "inActive()": {
        "return": "True if state is ACTIVE, fale otherwise."
      },
      "increaseRedemptionFee(bytes8,bytes8)": {
        "details": "This sends us back to AWAITING_WITHDRAWAL_SIGNATURE",
        "params": {
          "_newOutputValueBytes": "The new output's value",
          "_previousOutputValueBytes": "The previous output's value"
        },
        "return": "True if successful, False if prevented by timeout, otherwise revert"
      },
      "notifyCourtesyCall()": {
        "details": "Calls out to the system for oracle info",
        "return": "True if successful, otherwise revert"
      },
      "notifyCourtesyTimeout()": {
        "details": "This is treated as an abort, rather than fraud",
        "return": "True if successful, otherwise revert"
      },
      "notifyDepositExpiryCourtesyCall()": {
        "details": "This initiates a courtesy call",
        "return": "True if successful, otherwise revert"
      },
      "notifyFraudFundingTimeout()": {
        "details": "This is not a funder fault. The signers have faulted, so the funder shouldn't fund",
        "return": "True if successful, otherwise revert"
      },
      "notifyFundingTimeout()": {
        "details": "This is considered a funder fault, and we revoke their bond",
        "return": "True if successful, otherwise revert"
      },
      "notifyRedemptionProofTimeout()": {
        "details": "This is considered fraud, and is punished",
        "return": "True if successful, otherwise revert"
      },
      "notifySignatureTimeout()": {
        "details": "This is considered fraud, and is punished",
        "return": "True if successful, otherwise revert"
      },
      "notifySignerSetupFailure()": {
        "details": "We rely on the keep system punishes the signers in this case",
        "return": "True if successful, otherwise revert"
      },
      "notifyUndercollateralizedLiquidation()": {
        "details": "Calls out to the system for oracle info",
        "return": "True if successful, otherwise revert"
      },
      "provideBTCFundingProof(bytes4,bytes,bytes,bytes4,uint8,bytes,uint256,bytes)": {
        "details": "Takes a pre-parsed transaction and calculates values needed to verify funding",
        "params": {
          "_bitcoinHeaders": "Single bytestring of 80-byte bitcoin headers, lowest height first",
          "_fundingOutputIndex": "Index of funding output in _txOutputVector (0-indexed)",
          "_merkleProof": "The merkle proof of transaction inclusion in a block",
          "_txIndexInBlock": "Transaction index in the block (0-indexed)",
          "_txInputVector": "All transaction inputs prepended by the number of inputs encoded as a VarInt, max 0xFC(252) inputs",
          "_txLocktime": "Final 4 bytes of the transaction",
          "_txOutputVector": "All transaction outputs prepended by the number of outputs encoded as a VarInt, max 0xFC(252) outputs",
          "_txVersion": "Transaction version number (4-byte LE)"
        },
        "return": "True if no errors are thrown"
      },
      "provideECDSAFraudProof(uint8,bytes32,bytes32,bytes32,bytes)": {
        "details": "ECDSA is NOT SECURE unless you verify the digest",
        "params": {
          "_preimage": "The sha256 preimage of the digest",
          "_r": "Signature R value",
          "_s": "Signature S value",
          "_signedDigest": "The digest signed by the signature vrs tuple",
          "_v": "Signature recovery value"
        },
        "return": "True if successful, otherwise revert"
      },
      "provideFraudBTCFundingProof(bytes4,bytes,bytes,bytes4,uint8,bytes,uint256,bytes)": {
        "details": "Takes a pre-parsed transaction and calculates values needed to verify funding",
        "params": {
          "_bitcoinHeaders": "Single bytestring of 80-byte bitcoin headers, lowest height first",
          "_fundingOutputIndex": "Index of funding output in _txOutputVector (0-indexed)",
          "_merkleProof": "The merkle proof of transaction inclusion in a block",
          "_txIndexInBlock": "Transaction index in the block (0-indexed)",
          "_txInputVector": "All transaction inputs prepended by the number of inputs encoded as a VarInt, max 0xFC(252) inputs",
          "_txLocktime": "Final 4 bytes of the transaction",
          "_txOutputVector": "All transaction outputs prepended by the number of outputs encoded as a VarInt, max 0xFC(252) outputs",
          "_txVersion": "Transaction version number (4-byte LE)"
        },
        "return": "True if no errors are thrown"
      },
      "provideFundingECDSAFraudProof(uint8,bytes32,bytes32,bytes32,bytes)": {
        "details": "ECDSA is NOT SECURE unless you verify the digest",
        "params": {
          "_preimage": "The sha256 preimage of the digest",
          "_r": "Signature R value",
          "_s": "Signature S value",
          "_signedDigest": "The digest signed by the signature vrs tuple",
          "_v": "Signature recovery value"
        },
        "return": "True if successful, otherwise revert"
      },
      "provideRedemptionProof(bytes4,bytes,bytes,bytes4,bytes,uint256,bytes)": {
        "details": "The signers will be penalized if this is not called",
        "params": {
          "_bitcoinHeaders": "An array of tightly-packed bitcoin headers",
          "_merkleProof": "The merkle proof of inclusion of the tx in the bitcoin block",
          "_txIndexInBlock": "The index of the tx in the Bitcoin block (0-indexed)",
          "_txInputVector": "All transaction inputs prepended by the number of inputs encoded as a VarInt, max 0xFC(252) inputs",
          "_txLocktime": "Final 4 bytes of the transaction",
          "_txOutputVector": "All transaction outputs prepended by the number of outputs encoded as a VarInt, max 0xFC(252) outputs",
          "_txVersion": "Transaction version number (4-byte LE)"
        }
      },
      "provideRedemptionSignature(uint8,bytes32,bytes32)": {
        "details": "The signers will be penalized if this (or provideRedemptionProof) is not called",
        "params": {
          "_r": "Signature R value",
          "_s": "Signature S value",
          "_v": "Signature recovery value"
        },
        "return": "True if successful, False if prevented by timeout, otherwise revert"
      },
      "provideSPVFraudProof(bytes4,bytes,bytes,bytes4,bytes,uint256,uint8,bytes)": {
        "details": "We strong prefer ECDSA fraud proofs",
        "params": {
          "_bitcoinHeaders": "An array of tightly-packed bitcoin headers",
          "_merkleProof": "The merkle proof of inclusion of the tx in the bitcoin block",
          "_targetInputIndex": "Index of the input that spends the custodied UTXO",
          "_txIndexInBlock": "The index of the tx in the Bitcoin block (0-indexed)",
          "_txInputVector": "All transaction inputs prepended by the number of inputs encoded as a VarInt, max 0xFC(252) inputs",
          "_txLocktime": "Final 4 bytes of the transaction",
          "_txOutputVector": "All transaction outputs prepended by the number of outputs encoded as a VarInt, max 0xFC(252) outputs",
          "_txVersion": "Transaction version number (4-byte LE)"
        },
        "return": "True if successful, otherwise revert"
      },
      "purchaseSignerBondsAtAuction()": {
        "details": "For interface, reading auctionValue will give a past value. the current is better",
        "return": "True if successful, revert otherwise"
      },
      "remainingTerm()": {
        "details": "The value is not guaranteed since block.timestmap can be lightly manipulated by miners.",
        "return": "The remaining term of the deposit in seconds. 0 if already at term"
      },
      "requestRedemption(bytes8,bytes20)": {
        "details": "The redeemer specifies details about the Bitcoin redemption tx",
        "params": {
          "_outputValueBytes": "The 8-byte LE output size",
          "_requesterPKH": "The 20-byte Bitcoin pubkeyhash to which to send funds"
        },
        "return": "True if successful, otherwise revert"
      },
      "retrieveSignerPubkey()": {
        "details": "We store the pubkey as 2 bytestrings, X and Y.",
        "return": "True if successful, otherwise revert"
      },
      "signerFee()": {
        "return": "Fee amount in TBTC"
      }
    }
  },
  "userdoc": {
    "methods": {
      "createNewDeposit(address,address,address,address,address,uint256,uint256)": {
        "notice": "The system can spin up a new deposit"
      },
      "exitCourtesyCall()": {
        "notice": "Goes from courtesy call to active"
      },
      "getCurrentState()": {
        "notice": "Get the integer representing the current state"
      },
      "inActive()": {
        "notice": "Check if the Deposit is in ACTIVE state."
      },
      "increaseRedemptionFee(bytes8,bytes8)": {
        "notice": "Anyone may notify the contract that a fee bump is needed"
      },
      "notifyCourtesyCall()": {
        "notice": "Notify the contract that the signers are undercollateralized"
      },
      "notifyCourtesyTimeout()": {
        "notice": "Notifies the contract that the courtesy period has elapsed"
      },
      "notifyDepositExpiryCourtesyCall()": {
        "notice": "Notifies the contract that its term limit has been reached"
      },
      "notifyFraudFundingTimeout()": {
        "notice": "Anyone may notify the contract no funding proof was submitted during funding fraud"
      },
      "notifyFundingTimeout()": {
        "notice": "Anyone may notify the contract that the funder has failed to send BTC"
      },
      "notifyRedemptionProofTimeout()": {
        "notice": "Anyone may notify the contract that the signers have failed to produce a redemption proof"
      },
      "notifySignatureTimeout()": {
        "notice": "Anyone may notify the contract that the signers have failed to produce a signature"
      },
      "notifySignerSetupFailure()": {
        "notice": "Anyone may notify the contract that signing group setup has timed out"
      },
      "notifyUndercollateralizedLiquidation()": {
        "notice": "Notify the contract that the signers are undercollateralized"
      },
      "provideBTCFundingProof(bytes4,bytes,bytes,bytes4,uint8,bytes,uint256,bytes)": {
        "notice": "Anyone may notify the deposit of a funding proof to activate the deposit                             This is the happy-path of the funding flow. It means that we have succeeded"
      },
      "provideECDSAFraudProof(uint8,bytes32,bytes32,bytes32,bytes)": {
        "notice": "Anyone can provide a signature that was not requested to prove fraud"
      },
      "provideFundingECDSAFraudProof(uint8,bytes32,bytes32,bytes32,bytes)": {
        "notice": "Anyone can provide a signature that was not requested to prove fraud during funding"
      },
      "provideRedemptionProof(bytes4,bytes,bytes,bytes4,bytes,uint256,bytes)": {
        "notice": "Anyone may provide a withdrawal proof to prove redemption"
      },
      "provideRedemptionSignature(uint8,bytes32,bytes32)": {
        "notice": "Anyone may provide a withdrawal signature if it was requested"
      },
      "provideSPVFraudProof(bytes4,bytes,bytes,bytes4,bytes,uint256,uint8,bytes)": {
        "notice": "Anyone may notify the deposit of fraud via an SPV proof"
      },
      "purchaseSignerBondsAtAuction()": {
        "notice": "Closes an auction and purchases the signer bonds. Payout to buyer, funder, then signers if not fraud"
      },
      "remainingTerm()": {
        "notice": "Retrieve the remaining term of the deposit in seconds."
      },
      "requestRedemption(bytes8,bytes20)": {
        "notice": "Anyone can request redemption"
      },
      "retrieveSignerPubkey()": {
        "notice": "we poll the Keep contract to retrieve our pubkey"
      },
      "signerFee()": {
        "notice": "Get the signer fee for the Deposit."
      }
    }
  }
}