{
  "contractName": "DepositOwnerToken",
  "abi": [
    {
      "constant": true,
      "inputs": [
        {
          "name": "interfaceId",
          "type": "bytes4"
        }
      ],
      "name": "supportsInterface",
      "outputs": [
        {
          "name": "",
          "type": "bool"
        }
      ],
      "payable": false,
      "stateMutability": "view",
      "type": "function"
    },
    {
      "constant": true,
      "inputs": [],
      "name": "name",
      "outputs": [
        {
          "name": "",
          "type": "string"
        }
      ],
      "payable": false,
      "stateMutability": "view",
      "type": "function"
    },
    {
      "constant": true,
      "inputs": [
        {
          "name": "tokenId",
          "type": "uint256"
        }
      ],
      "name": "getApproved",
      "outputs": [
        {
          "name": "",
          "type": "address"
        }
      ],
      "payable": false,
      "stateMutability": "view",
      "type": "function"
    },
    {
      "constant": false,
      "inputs": [
        {
          "name": "to",
          "type": "address"
        },
        {
          "name": "tokenId",
          "type": "uint256"
        }
      ],
      "name": "approve",
      "outputs": [],
      "payable": false,
      "stateMutability": "nonpayable",
      "type": "function"
    },
    {
      "constant": false,
      "inputs": [
        {
          "name": "from",
          "type": "address"
        },
        {
          "name": "to",
          "type": "address"
        },
        {
          "name": "tokenId",
          "type": "uint256"
        }
      ],
      "name": "transferFrom",
      "outputs": [],
      "payable": false,
      "stateMutability": "nonpayable",
      "type": "function"
    },
    {
      "constant": false,
      "inputs": [
        {
          "name": "from",
          "type": "address"
        },
        {
          "name": "to",
          "type": "address"
        },
        {
          "name": "tokenId",
          "type": "uint256"
        }
      ],
      "name": "safeTransferFrom",
      "outputs": [],
      "payable": false,
      "stateMutability": "nonpayable",
      "type": "function"
    },
    {
      "constant": true,
      "inputs": [
        {
          "name": "tokenId",
          "type": "uint256"
        }
      ],
      "name": "ownerOf",
      "outputs": [
        {
          "name": "",
          "type": "address"
        }
      ],
      "payable": false,
      "stateMutability": "view",
      "type": "function"
    },
    {
      "constant": true,
      "inputs": [
        {
          "name": "owner",
          "type": "address"
        }
      ],
      "name": "balanceOf",
      "outputs": [
        {
          "name": "",
          "type": "uint256"
        }
      ],
      "payable": false,
      "stateMutability": "view",
      "type": "function"
    },
    {
      "constant": true,
      "inputs": [],
      "name": "symbol",
      "outputs": [
        {
          "name": "",
          "type": "string"
        }
      ],
      "payable": false,
      "stateMutability": "view",
      "type": "function"
    },
    {
      "constant": false,
      "inputs": [
        {
          "name": "to",
          "type": "address"
        },
        {
          "name": "approved",
          "type": "bool"
        }
      ],
      "name": "setApprovalForAll",
      "outputs": [],
      "payable": false,
      "stateMutability": "nonpayable",
      "type": "function"
    },
    {
      "constant": false,
      "inputs": [
        {
          "name": "from",
          "type": "address"
        },
        {
          "name": "to",
          "type": "address"
        },
        {
          "name": "tokenId",
          "type": "uint256"
        },
        {
          "name": "_data",
          "type": "bytes"
        }
      ],
      "name": "safeTransferFrom",
      "outputs": [],
      "payable": false,
      "stateMutability": "nonpayable",
      "type": "function"
    },
    {
      "constant": true,
      "inputs": [
        {
          "name": "tokenId",
          "type": "uint256"
        }
      ],
      "name": "tokenURI",
      "outputs": [
        {
          "name": "",
          "type": "string"
        }
      ],
      "payable": false,
      "stateMutability": "view",
      "type": "function"
    },
    {
      "constant": true,
      "inputs": [
        {
          "name": "owner",
          "type": "address"
        },
        {
          "name": "operator",
          "type": "address"
        }
      ],
      "name": "isApprovedForAll",
      "outputs": [
        {
          "name": "",
          "type": "bool"
        }
      ],
      "payable": false,
      "stateMutability": "view",
      "type": "function"
    },
    {
      "inputs": [],
      "payable": false,
      "stateMutability": "nonpayable",
      "type": "constructor"
    },
    {
      "anonymous": false,
      "inputs": [
        {
          "indexed": true,
          "name": "from",
          "type": "address"
        },
        {
          "indexed": true,
          "name": "to",
          "type": "address"
        },
        {
          "indexed": true,
          "name": "tokenId",
          "type": "uint256"
        }
      ],
      "name": "Transfer",
      "type": "event"
    },
    {
      "anonymous": false,
      "inputs": [
        {
          "indexed": true,
          "name": "owner",
          "type": "address"
        },
        {
          "indexed": true,
          "name": "approved",
          "type": "address"
        },
        {
          "indexed": true,
          "name": "tokenId",
          "type": "uint256"
        }
      ],
      "name": "Approval",
      "type": "event"
    },
    {
      "anonymous": false,
      "inputs": [
        {
          "indexed": true,
          "name": "owner",
          "type": "address"
        },
        {
          "indexed": true,
          "name": "operator",
          "type": "address"
        },
        {
          "indexed": false,
          "name": "approved",
          "type": "bool"
        }
      ],
      "name": "ApprovalForAll",
      "type": "event"
    },
    {
      "constant": false,
      "inputs": [
        {
          "name": "_to",
          "type": "address"
        },
        {
          "name": "_tokenId",
          "type": "uint256"
        }
      ],
      "name": "mint",
      "outputs": [],
      "payable": false,
      "stateMutability": "nonpayable",
      "type": "function"
    },
    {
      "constant": true,
      "inputs": [
        {
          "name": "_tokenId",
          "type": "uint256"
        }
      ],
      "name": "exists",
      "outputs": [
        {
          "name": "",
          "type": "bool"
        }
      ],
      "payable": false,
      "stateMutability": "view",
      "type": "function"
    }
  ],
  "bytecode": "0x60806040523480156200001157600080fd5b50604080518082018252601381527f4465706f736974204f776e657220546f6b656e000000000000000000000000006020808301919091528251808401909352600383527f444f5400000000000000000000000000000000000000000000000000000000009083015290620000af7f01ffc9a7000000000000000000000000000000000000000000000000000000006001600160e01b036200014b16565b620000e37f80ac58cd000000000000000000000000000000000000000000000000000000006001600160e01b036200014b16565b8151620000f89060059060208501906200021a565b5080516200010e9060069060208401906200021a565b50620001437f5b5e139f000000000000000000000000000000000000000000000000000000006001600160e01b036200014b16565b5050620002bf565b7fffffffff000000000000000000000000000000000000000000000000000000008082161415620001dd57604080517f08c379a000000000000000000000000000000000000000000000000000000000815260206004820152601c60248201527f4552433136353a20696e76616c696420696e7465726661636520696400000000604482015290519081900360640190fd5b7fffffffff00000000000000000000000000000000000000000000000000000000166000908152602081905260409020805460ff19166001179055565b828054600181600116156101000203166002900490600052602060002090601f016020900481019282601f106200025d57805160ff19168380011785556200028d565b828001600101855582156200028d579182015b828111156200028d57825182559160200191906001019062000270565b506200029b9291506200029f565b5090565b620002bc91905b808211156200029b5760008155600101620002a6565b90565b6111ba80620002cf6000396000f3fe608060405234801561001057600080fd5b50600436106100f55760003560e01c80634f558e7911610097578063a22cb46511610066578063a22cb4651461032b578063b88d4fde14610359578063c87b56dd1461041f578063e985e9c51461043c576100f5565b80634f558e79146102b15780636352211e146102ce57806370a08231146102eb57806395d89b4114610323576100f5565b8063095ea7b3116100d3578063095ea7b3146101eb57806323b872dd1461021957806340c10f191461024f57806342842e0e1461027b576100f5565b806301ffc9a7146100fa57806306fdde0314610135578063081812fc146101b2575b600080fd5b6101216004803603602081101561011057600080fd5b50356001600160e01b03191661046a565b604080519115158252519081900360200190f35b61013d610489565b6040805160208082528351818301528351919283929083019185019080838360005b8381101561017757818101518382015260200161015f565b50505050905090810190601f1680156101a45780820380516001836020036101000a031916815260200191505b509250505060405180910390f35b6101cf600480360360208110156101c857600080fd5b503561051f565b604080516001600160a01b039092168252519081900360200190f35b6102176004803603604081101561020157600080fd5b506001600160a01b038135169060200135610581565b005b6102176004803603606081101561022f57600080fd5b506001600160a01b03813581169160208101359091169060400135610692565b6102176004803603604081101561026557600080fd5b506001600160a01b0381351690602001356106e7565b6102176004803603606081101561029157600080fd5b506001600160a01b038135811691602081013590911690604001356106f5565b610121600480360360208110156102c757600080fd5b5035610710565b6101cf600480360360208110156102e457600080fd5b5035610721565b6103116004803603602081101561030157600080fd5b50356001600160a01b0316610775565b60408051918252519081900360200190f35b61013d6107dd565b6102176004803603604081101561034157600080fd5b506001600160a01b038135169060200135151561083e565b6102176004803603608081101561036f57600080fd5b6001600160a01b038235811692602081013590911691604082013591908101906080810160608201356401000000008111156103aa57600080fd5b8201836020820111156103bc57600080fd5b803590602001918460018302840111640100000000831117156103de57600080fd5b91908080601f01602080910402602001604051908101604052809392919081815260200183838082843760009201919091525092955061090a945050505050565b61013d6004803603602081101561043557600080fd5b5035610962565b6101216004803603604081101561045257600080fd5b506001600160a01b0381358116916020013516610a47565b6001600160e01b03191660009081526020819052604090205460ff1690565b60058054604080516020601f60026000196101006001881615020190951694909404938401819004810282018101909252828152606093909290918301828280156105155780601f106104ea57610100808354040283529160200191610515565b820191906000526020600020905b8154815290600101906020018083116104f857829003601f168201915b5050505050905090565b600061052a82610a75565b6105655760405162461bcd60e51b815260040180806020018281038252602c8152602001806110b0602c913960400191505060405180910390fd5b506000908152600260205260409020546001600160a01b031690565b600061058c82610721565b9050806001600160a01b0316836001600160a01b031614156105df5760405162461bcd60e51b81526004018080602001828103825260218152602001806111346021913960400191505060405180910390fd5b336001600160a01b03821614806105fb57506105fb8133610a47565b6106365760405162461bcd60e51b81526004018080602001828103825260388152602001806110256038913960400191505060405180910390fd5b60008281526002602052604080822080546001600160a01b0319166001600160a01b0387811691821790925591518593918516917f8c5be1e5ebec7d5bd14f71427d1e84f3dd0314c0f7b2291e5b200ac8c7c3b92591a4505050565b61069c3382610a92565b6106d75760405162461bcd60e51b81526004018080602001828103825260318152602001806111556031913960400191505060405180910390fd5b6106e2838383610b36565b505050565b6106f18282610c7a565b5050565b6106e28383836040518060200160405280600081525061090a565b600061071b82610a75565b92915050565b6000818152600160205260408120546001600160a01b03168061071b5760405162461bcd60e51b81526004018080602001828103825260298152602001806110876029913960400191505060405180910390fd5b60006001600160a01b0382166107bc5760405162461bcd60e51b815260040180806020018281038252602a81526020018061105d602a913960400191505060405180910390fd5b6001600160a01b038216600090815260036020526040902061071b90610dab565b60068054604080516020601f60026000196101006001881615020190951694909404938401819004810282018101909252828152606093909290918301828280156105155780601f106104ea57610100808354040283529160200191610515565b6001600160a01b03821633141561089c576040805162461bcd60e51b815260206004820152601960248201527f4552433732313a20617070726f766520746f2063616c6c657200000000000000604482015290519081900360640190fd5b3360008181526004602090815260408083206001600160a01b03871680855290835292819020805460ff1916861515908117909155815190815290519293927f17307eab39ab6107e8899845ad3d59bd9653f200f220920489ca2b5937696c31929181900390910190a35050565b610915848484610692565b61092184848484610daf565b61095c5760405162461bcd60e51b8152600401808060200182810382526032815260200180610fa36032913960400191505060405180910390fd5b50505050565b606061096d82610a75565b6109a85760405162461bcd60e51b815260040180806020018281038252602f815260200180611105602f913960400191505060405180910390fd5b60008281526007602090815260409182902080548351601f600260001961010060018616150201909316929092049182018490048402810184019094528084529091830182828015610a3b5780601f10610a1057610100808354040283529160200191610a3b565b820191906000526020600020905b815481529060010190602001808311610a1e57829003601f168201915b50505050509050919050565b6001600160a01b03918216600090815260046020908152604080832093909416825291909152205460ff1690565b6000908152600160205260409020546001600160a01b0316151590565b6000610a9d82610a75565b610ad85760405162461bcd60e51b815260040180806020018281038252602c815260200180610ff9602c913960400191505060405180910390fd5b6000610ae383610721565b9050806001600160a01b0316846001600160a01b03161480610b1e5750836001600160a01b0316610b138461051f565b6001600160a01b0316145b80610b2e5750610b2e8185610a47565b949350505050565b826001600160a01b0316610b4982610721565b6001600160a01b031614610b8e5760405162461bcd60e51b81526004018080602001828103825260298152602001806110dc6029913960400191505060405180910390fd5b6001600160a01b038216610bd35760405162461bcd60e51b8152600401808060200182810382526024815260200180610fd56024913960400191505060405180910390fd5b610bdc81610ee2565b6001600160a01b0383166000908152600360205260409020610bfd90610f1f565b6001600160a01b0382166000908152600360205260409020610c1e90610f36565b60008181526001602052604080822080546001600160a01b0319166001600160a01b0386811691821790925591518493918716917fddf252ad1be2c89b69c2b068fc378daa952ba7f163c4a11628f55a4df523b3ef91a4505050565b6001600160a01b038216610cd5576040805162461bcd60e51b815260206004820181905260248201527f4552433732313a206d696e7420746f20746865207a65726f2061646472657373604482015290519081900360640190fd5b610cde81610a75565b15610d30576040805162461bcd60e51b815260206004820152601c60248201527f4552433732313a20746f6b656e20616c7265616479206d696e74656400000000604482015290519081900360640190fd5b600081815260016020908152604080832080546001600160a01b0319166001600160a01b038716908117909155835260039091529020610d6f90610f36565b60405181906001600160a01b038416906000907fddf252ad1be2c89b69c2b068fc378daa952ba7f163c4a11628f55a4df523b3ef908290a45050565b5490565b6000610dc3846001600160a01b0316610f3f565b610dcf57506001610b2e565b604051630a85bd0160e11b815233600482018181526001600160a01b03888116602485015260448401879052608060648501908152865160848601528651600095928a169463150b7a029490938c938b938b939260a4019060208501908083838e5b83811015610e49578181015183820152602001610e31565b50505050905090810190601f168015610e765780820380516001836020036101000a031916815260200191505b5095505050505050602060405180830381600087803b158015610e9857600080fd5b505af1158015610eac573d6000803e3d6000fd5b505050506040513d6020811015610ec257600080fd5b50516001600160e01b031916630a85bd0160e11b14915050949350505050565b6000818152600260205260409020546001600160a01b031615610f1c57600081815260026020526040902080546001600160a01b03191690555b50565b8054610f3290600163ffffffff610f4516565b9055565b80546001019055565b3b151590565b600082821115610f9c576040805162461bcd60e51b815260206004820152601e60248201527f536166654d6174683a207375627472616374696f6e206f766572666c6f770000604482015290519081900360640190fd5b5090039056fe4552433732313a207472616e7366657220746f206e6f6e20455243373231526563656976657220696d706c656d656e7465724552433732313a207472616e7366657220746f20746865207a65726f20616464726573734552433732313a206f70657261746f7220717565727920666f72206e6f6e6578697374656e7420746f6b656e4552433732313a20617070726f76652063616c6c6572206973206e6f74206f776e6572206e6f7220617070726f76656420666f7220616c6c4552433732313a2062616c616e636520717565727920666f7220746865207a65726f20616464726573734552433732313a206f776e657220717565727920666f72206e6f6e6578697374656e7420746f6b656e4552433732313a20617070726f76656420717565727920666f72206e6f6e6578697374656e7420746f6b656e4552433732313a207472616e73666572206f6620746f6b656e2074686174206973206e6f74206f776e4552433732314d657461646174613a2055524920717565727920666f72206e6f6e6578697374656e7420746f6b656e4552433732313a20617070726f76616c20746f2063757272656e74206f776e65724552433732313a207472616e736665722063616c6c6572206973206e6f74206f776e6572206e6f7220617070726f766564a265627a7a7230582076cd3c727de84023fb0a08ed555a228ae9421f87a6a6d9eedd2cf72bce1e89ff64736f6c634300050a0032",
  "source": "pragma solidity ^0.5.10;\n\nimport \"openzeppelin-solidity/contracts/token/ERC721/ERC721Metadata.sol\";\n\ncontract DepositOwnerToken is ERC721Metadata {\n\n    constructor() ERC721Metadata(\"Deposit Owner Token\", \"DOT\") public {\n        // solium-disable-previous-line no-empty-blocks\n    }\n\n    /// @dev Mints a new token.\n    /// Reverts if the given token ID already exists.\n    /// @param _to The address that will own the minted token\n    /// @param _tokenId uint256 ID of the token to be minted\n    function mint(address _to, uint256 _tokenId) public {\n        _mint(_to, _tokenId);\n    }\n\n    /// @dev Returns whether the specified token exists.\n    /// @param _tokenId uint256 ID of the token to query the existence of\n    /// @return bool whether the token exists\n    function exists(uint256 _tokenId) public view returns (bool) {\n        return _exists(_tokenId);\n    }\n}",
  "sourcePath": "/tmp/46a38aeec76c1707279b44cd3da78d16dc8a88ed/implementation/contracts/system/DepositOwnerToken.sol",
  "compiler": {
    "name": "solc",
    "version": "0.5.10+commit.5a6ea5b1.Emscripten.clang"
  },
  "schemaVersion": "3.0.20",
  "updatedAt": "2020-01-16T05:19:50.361Z",
  "networkType": "ethereum",
  "devdoc": {
    "methods": {
      "approve(address,uint256)": {
        "details": "Approves another address to transfer the given token ID The zero address indicates there is no approved address. There can only be one approved address per token at a given time. Can only be called by the token owner or an approved operator.",
        "params": {
          "to": "address to be approved for the given token ID",
          "tokenId": "uint256 ID of the token to be approved"
        }
      },
      "balanceOf(address)": {
        "details": "Gets the balance of the specified address.",
        "params": {
          "owner": "address to query the balance of"
        },
        "return": "uint256 representing the amount owned by the passed address"
      },
      "exists(uint256)": {
        "details": "Returns whether the specified token exists.",
        "params": {
          "_tokenId": "uint256 ID of the token to query the existence of"
        },
        "return": "bool whether the token exists"
      },
      "getApproved(uint256)": {
        "details": "Gets the approved address for a token ID, or zero if no address set Reverts if the token ID does not exist.",
        "params": {
          "tokenId": "uint256 ID of the token to query the approval of"
        },
        "return": "address currently approved for the given token ID"
      },
      "isApprovedForAll(address,address)": {
        "details": "Tells whether an operator is approved by a given owner.",
        "params": {
          "operator": "operator address which you want to query the approval of",
          "owner": "owner address which you want to query the approval of"
        },
        "return": "bool whether the given operator is approved by the given owner"
      },
      "mint(address,uint256)": {
        "details": "Mints a new token. Reverts if the given token ID already exists.",
        "params": {
          "_to": "The address that will own the minted token",
          "_tokenId": "uint256 ID of the token to be minted"
        }
      },
      "name()": {
        "details": "Gets the token name.",
        "return": "string representing the token name"
      },
      "ownerOf(uint256)": {
        "details": "Gets the owner of the specified token ID.",
        "params": {
          "tokenId": "uint256 ID of the token to query the owner of"
        },
        "return": "address currently marked as the owner of the given token ID"
      },
      "safeTransferFrom(address,address,uint256)": {
        "details": "Safely transfers the ownership of a given token ID to another address If the target address is a contract, it must implement `onERC721Received`, which is called upon a safe transfer, and return the magic value `bytes4(keccak256(\"onERC721Received(address,address,uint256,bytes)\"))`; otherwise, the transfer is reverted. Requires the msg.sender to be the owner, approved, or operator",
        "params": {
          "from": "current owner of the token",
          "to": "address to receive the ownership of the given token ID",
          "tokenId": "uint256 ID of the token to be transferred"
        }
      },
      "safeTransferFrom(address,address,uint256,bytes)": {
        "details": "Safely transfers the ownership of a given token ID to another address If the target address is a contract, it must implement `onERC721Received`, which is called upon a safe transfer, and return the magic value `bytes4(keccak256(\"onERC721Received(address,address,uint256,bytes)\"))`; otherwise, the transfer is reverted. Requires the msg.sender to be the owner, approved, or operator",
        "params": {
          "_data": "bytes data to send along with a safe transfer check",
          "from": "current owner of the token",
          "to": "address to receive the ownership of the given token ID",
          "tokenId": "uint256 ID of the token to be transferred"
        }
      },
      "setApprovalForAll(address,bool)": {
        "details": "Sets or unsets the approval of a given operator An operator is allowed to transfer all tokens of the sender on their behalf.",
        "params": {
          "approved": "representing the status of the approval to be set",
          "to": "operator address to set the approval"
        }
      },
      "supportsInterface(bytes4)": {
        "details": "See `IERC165.supportsInterface`.     * Time complexity O(1), guaranteed to always use less than 30 000 gas."
      },
      "symbol()": {
        "details": "Gets the token symbol.",
        "return": "string representing the token symbol"
      },
      "tokenURI(uint256)": {
        "details": "Returns an URI for a given token ID. Throws if the token ID does not exist. May return an empty string.",
        "params": {
          "tokenId": "uint256 ID of the token to query"
        }
      },
      "transferFrom(address,address,uint256)": {
        "details": "Transfers the ownership of a given token ID to another address. Usage of this method is discouraged, use `safeTransferFrom` whenever possible. Requires the msg.sender to be the owner, approved, or operator.",
        "params": {
          "from": "current owner of the token",
          "to": "address to receive the ownership of the given token ID",
          "tokenId": "uint256 ID of the token to be transferred"
        }
      }
    }
  },
  "userdoc": {
    "methods": {}
  }
}