{
  "contractName": "TBTCConstants",
  "abi": [
    {
      "constant": true,
      "inputs": [],
      "name": "TX_PROOF_DIFFICULTY_FACTOR",
      "outputs": [
        {
          "name": "",
          "type": "uint256"
        }
      ],
      "payable": false,
      "stateMutability": "view",
      "type": "function"
    },
    {
      "constant": true,
      "inputs": [],
      "name": "DEPOSIT_TERM_LENGTH",
      "outputs": [
        {
          "name": "",
          "type": "uint256"
        }
      ],
      "payable": false,
      "stateMutability": "view",
      "type": "function"
    },
    {
      "constant": true,
      "inputs": [],
      "name": "FUNDING_PROOF_TIMEOUT",
      "outputs": [
        {
          "name": "",
          "type": "uint256"
        }
      ],
      "payable": false,
      "stateMutability": "view",
      "type": "function"
    },
    {
      "constant": true,
      "inputs": [],
      "name": "SEVERELY_UNDERCOLLATERALIZED_THRESHOLD_PERCENT",
      "outputs": [
        {
          "name": "",
          "type": "uint256"
        }
      ],
      "payable": false,
      "stateMutability": "view",
      "type": "function"
    },
    {
      "constant": true,
      "inputs": [],
      "name": "INCREASE_FEE_TIMER",
      "outputs": [
        {
          "name": "",
          "type": "uint256"
        }
      ],
      "payable": false,
      "stateMutability": "view",
      "type": "function"
    },
    {
      "constant": true,
      "inputs": [],
      "name": "UNDERCOLLATERALIZED_THRESHOLD_PERCENT",
      "outputs": [
        {
          "name": "",
          "type": "uint256"
        }
      ],
      "payable": false,
      "stateMutability": "view",
      "type": "function"
    },
    {
      "constant": true,
      "inputs": [],
      "name": "AUCTION_BASE_PERCENTAGE",
      "outputs": [
        {
          "name": "",
          "type": "uint256"
        }
      ],
      "payable": false,
      "stateMutability": "view",
      "type": "function"
    },
    {
      "constant": true,
      "inputs": [],
      "name": "FUNDING_FRAUD_PARTIAL_SLASH_DIVISOR",
      "outputs": [
        {
          "name": "",
          "type": "uint256"
        }
      ],
      "payable": false,
      "stateMutability": "view",
      "type": "function"
    },
    {
      "constant": true,
      "inputs": [],
      "name": "REDEMPTION_SIGNATURE_TIMEOUT",
      "outputs": [
        {
          "name": "",
          "type": "uint256"
        }
      ],
      "payable": false,
      "stateMutability": "view",
      "type": "function"
    },
    {
      "constant": true,
      "inputs": [],
      "name": "BENEFICIARY_FEE_DIVISOR",
      "outputs": [
        {
          "name": "",
          "type": "uint256"
        }
      ],
      "payable": false,
      "stateMutability": "view",
      "type": "function"
    },
    {
      "constant": true,
      "inputs": [],
      "name": "FUNDER_BOND_AMOUNT_WEI",
      "outputs": [
        {
          "name": "",
          "type": "uint256"
        }
      ],
      "payable": false,
      "stateMutability": "view",
      "type": "function"
    },
    {
      "constant": true,
      "inputs": [],
      "name": "MINIMUM_REDEMPTION_FEE",
      "outputs": [
        {
          "name": "",
          "type": "uint256"
        }
      ],
      "payable": false,
      "stateMutability": "view",
      "type": "function"
    },
    {
      "constant": true,
      "inputs": [],
      "name": "PERMITTED_FEE_BUMPS",
      "outputs": [
        {
          "name": "",
          "type": "uint256"
        }
      ],
      "payable": false,
      "stateMutability": "view",
      "type": "function"
    },
    {
      "constant": true,
      "inputs": [],
      "name": "FRAUD_FUNDING_PROOF_TIMEOUT",
      "outputs": [
        {
          "name": "",
          "type": "uint256"
        }
      ],
      "payable": false,
      "stateMutability": "view",
      "type": "function"
    },
    {
      "constant": true,
      "inputs": [],
      "name": "AUCTION_DURATION",
      "outputs": [
        {
          "name": "",
          "type": "uint256"
        }
      ],
      "payable": false,
      "stateMutability": "view",
      "type": "function"
    },
    {
      "constant": true,
      "inputs": [],
      "name": "FORMATION_TIMEOUT",
      "outputs": [
        {
          "name": "",
          "type": "uint256"
        }
      ],
      "payable": false,
      "stateMutability": "view",
      "type": "function"
    },
    {
      "constant": true,
      "inputs": [],
      "name": "REDEMPTION_PROOF_TIMEOUT",
      "outputs": [
        {
          "name": "",
          "type": "uint256"
        }
      ],
      "payable": false,
      "stateMutability": "view",
      "type": "function"
    },
    {
      "constant": true,
      "inputs": [],
      "name": "LOT_SIZE_BTC",
      "outputs": [
        {
          "name": "",
          "type": "uint256"
        }
      ],
      "payable": false,
      "stateMutability": "view",
      "type": "function"
    },
    {
      "constant": true,
      "inputs": [],
      "name": "COURTESY_CALL_DURATION",
      "outputs": [
        {
          "name": "",
          "type": "uint256"
        }
      ],
      "payable": false,
      "stateMutability": "view",
      "type": "function"
    },
    {
      "constant": true,
      "inputs": [],
      "name": "getLotSizeBtc",
      "outputs": [
        {
          "name": "",
          "type": "uint256"
        }
      ],
      "payable": false,
      "stateMutability": "pure",
      "type": "function"
    },
    {
      "constant": true,
      "inputs": [],
      "name": "getLotSizeTbtc",
      "outputs": [
        {
          "name": "",
          "type": "uint256"
        }
      ],
      "payable": false,
      "stateMutability": "pure",
      "type": "function"
    },
    {
      "constant": true,
      "inputs": [],
      "name": "getBeneficiaryRewardDivisor",
      "outputs": [
        {
          "name": "",
          "type": "uint256"
        }
      ],
      "payable": false,
      "stateMutability": "pure",
      "type": "function"
    },
    {
      "constant": true,
      "inputs": [],
      "name": "getFundingFraudPartialSlashDivisor",
      "outputs": [
        {
          "name": "",
          "type": "uint256"
        }
      ],
      "payable": false,
      "stateMutability": "pure",
      "type": "function"
    },
    {
      "constant": true,
      "inputs": [],
      "name": "getDepositTerm",
      "outputs": [
        {
          "name": "",
          "type": "uint256"
        }
      ],
      "payable": false,
      "stateMutability": "pure",
      "type": "function"
    },
    {
      "constant": true,
      "inputs": [],
      "name": "getUndercollateralizedPercent",
      "outputs": [
        {
          "name": "",
          "type": "uint256"
        }
      ],
      "payable": false,
      "stateMutability": "pure",
      "type": "function"
    },
    {
      "constant": true,
      "inputs": [],
      "name": "getSeverelyUndercollateralizedPercent",
      "outputs": [
        {
          "name": "",
          "type": "uint256"
        }
      ],
      "payable": false,
      "stateMutability": "pure",
      "type": "function"
    },
    {
      "constant": true,
      "inputs": [],
      "name": "getTxProofDifficultyFactor",
      "outputs": [
        {
          "name": "",
          "type": "uint256"
        }
      ],
      "payable": false,
      "stateMutability": "pure",
      "type": "function"
    },
    {
      "constant": true,
      "inputs": [],
      "name": "getSignatureTimeout",
      "outputs": [
        {
          "name": "",
          "type": "uint256"
        }
      ],
      "payable": false,
      "stateMutability": "pure",
      "type": "function"
    },
    {
      "constant": true,
      "inputs": [],
      "name": "getIncreaseFeeTimer",
      "outputs": [
        {
          "name": "",
          "type": "uint256"
        }
      ],
      "payable": false,
      "stateMutability": "pure",
      "type": "function"
    },
    {
      "constant": true,
      "inputs": [],
      "name": "getRedemptionProofTimeout",
      "outputs": [
        {
          "name": "",
          "type": "uint256"
        }
      ],
      "payable": false,
      "stateMutability": "pure",
      "type": "function"
    },
    {
      "constant": true,
      "inputs": [],
      "name": "getMinimumRedemptionFee",
      "outputs": [
        {
          "name": "",
          "type": "uint256"
        }
      ],
      "payable": false,
      "stateMutability": "pure",
      "type": "function"
    },
    {
      "constant": true,
      "inputs": [],
      "name": "getFundingTimeout",
      "outputs": [
        {
          "name": "",
          "type": "uint256"
        }
      ],
      "payable": false,
      "stateMutability": "pure",
      "type": "function"
    },
    {
      "constant": true,
      "inputs": [],
      "name": "getSigningGroupFormationTimeout",
      "outputs": [
        {
          "name": "",
          "type": "uint256"
        }
      ],
      "payable": false,
      "stateMutability": "pure",
      "type": "function"
    },
    {
      "constant": true,
      "inputs": [],
      "name": "getFraudFundingTimeout",
      "outputs": [
        {
          "name": "",
          "type": "uint256"
        }
      ],
      "payable": false,
      "stateMutability": "pure",
      "type": "function"
    },
    {
      "constant": true,
      "inputs": [],
      "name": "getFunderBondAmount",
      "outputs": [
        {
          "name": "",
          "type": "uint256"
        }
      ],
      "payable": false,
      "stateMutability": "pure",
      "type": "function"
    },
    {
      "constant": true,
      "inputs": [],
      "name": "getCourtesyCallTimeout",
      "outputs": [
        {
          "name": "",
          "type": "uint256"
        }
      ],
      "payable": false,
      "stateMutability": "pure",
      "type": "function"
    },
    {
      "constant": true,
      "inputs": [],
      "name": "getAuctionDuration",
      "outputs": [
        {
          "name": "",
          "type": "uint256"
        }
      ],
      "payable": false,
      "stateMutability": "pure",
      "type": "function"
    },
    {
      "constant": true,
      "inputs": [],
      "name": "getAuctionBasePercentage",
      "outputs": [
        {
          "name": "",
          "type": "uint256"
        }
      ],
      "payable": false,
      "stateMutability": "pure",
      "type": "function"
    },
    {
      "constant": true,
      "inputs": [],
      "name": "getPermittedFeeBumps",
      "outputs": [
        {
          "name": "",
          "type": "uint256"
        }
      ],
      "payable": false,
      "stateMutability": "pure",
      "type": "function"
    }
  ],
  "bytecode": "0x610441610026600b82828239805160001a60731461001957fe5b30600052607381538281f3fe73000000000000000000000000000000000000000030146080604052600436106102475760003560e01c806378cb51af11610145578063c342b1f7116100c2578063d891dcdb11610086578063d891dcdb14610346578063dc9240ef14610316578063dce85d3a146102de578063f653c0b91461034e578063fc94f1d61461032657610247565b8063c342b1f714610296578063c4572eb91461032e578063cdf9505014610296578063d4270ee614610336578063d565d1f11461033e57610247565b80639b3fd99f116101095780639b3fd99f1461030e578063a1f6c63914610316578063a271e5251461031e578063a99b52831461026e578063ac8bfdad1461032657610247565b806378cb51af146102f65780637b9adf7c146102fe57806386322af714610306578063866a54001461026e5780639887426d146102b657610247565b80634136c1e7116101d3578063655649201161019757806365564920146102ce5780636760dab9146102d65780636da1dda2146102de5780637196e87b146102e6578063741b5e4c146102ee57610247565b80634136c1e7146102a65780634145cf8e146102ae5780635480b4b2146102b6578063582d1071146102be5780635b6b452a146102c657610247565b8063242c0ed01161021a578063242c0ed01461027e5780632851f4db1461028657806328f768941461028e57806338c86093146102965780633f8653ab1461029e57610247565b806302b7044b1461024c5780630a913dea1461026657806312aeac831461026e5780631999101b14610276575b600080fd5b610254610356565b60408051918252519081900360200190f35b61025461035b565b610254610362565b610254610368565b61025461036d565b610254610373565b610254610378565b61025461037d565b610254610383565b610254610388565b61025461038d565b610254610394565b61025461039a565b61025461039f565b6102546103a5565b6102546103aa565b6102546103af565b6102546103b5565b6102546103bc565b6102546103c1565b6102546103c8565b6102546103cd565b6102546103d2565b6102546103d7565b6102546103dd565b6102546103e4565b6102546103ea565b6102546103ef565b6102546103f9565b610254610400565b610254610406565b600181565b62ed4e0081565b612a3081565b607881565b61384081565b608c90565b600590565b612a3090565b608c81565b605a81565b620186a090565b61546090565b600281565b611c2081565b600290565b607890565b6103e881565b620186a081565b609681565b6201518090565b600581565b609690565b600190565b6103e890565b6201518081565b61546081565b605a90565b6509184e72a00090565b62ed4e0090565b611c2090565b6138409056fea265627a7a723058206877240201d49e23b128b864a94d4c0cc93ee55e4647cfbebcc663f3a66ad73e64736f6c634300050a0032",
  "source": "pragma solidity ^0.5.10;\n\nlibrary TBTCConstants {\n\n    // This is intended to make it easy to update system params\n    // During testing swap this out with another constats contract\n\n    // System Parameters\n    uint256 public constant LOT_SIZE_BTC = 1000; // satoshi TODO: decreased for testing, set it back original value `10 ** 8`\n    uint256 public constant BENEFICIARY_FEE_DIVISOR = 1000;  // 1/1000 = 10 bps = 0.1% = 0.001\n\n    uint256 public constant FUNDING_FRAUD_PARTIAL_SLASH_DIVISOR = 2;  // 1/2 = 5000bps = 50% = 0.5\n    uint256 public constant DEPOSIT_TERM_LENGTH = 180 * 24 * 60 * 60; // 180 days in seconds\n    uint256 public constant UNDERCOLLATERALIZED_THRESHOLD_PERCENT = 140;  // percent\n    uint256 public constant SEVERELY_UNDERCOLLATERALIZED_THRESHOLD_PERCENT = 120; // percent\n    uint256 public constant TX_PROOF_DIFFICULTY_FACTOR = 1; // TODO: decreased for testing, original value: `6`\n\n    // Redemption Flow\n    uint256 public constant REDEMPTION_SIGNATURE_TIMEOUT = 2 * 60 * 60;  // seconds\n    uint256 public constant INCREASE_FEE_TIMER = 4 * 60 * 60;  // seconds\n    uint256 public constant REDEMPTION_PROOF_TIMEOUT = 6 * 60 * 60;  // seconds\n    uint256 public constant MINIMUM_REDEMPTION_FEE = 150; // satoshi TODO: decreased for testing, set it back original value `2000`\n\n    // Funding Flow\n    uint256 public constant FUNDING_PROOF_TIMEOUT = 3 * 60 * 60; // seconds\n    uint256 public constant FORMATION_TIMEOUT = 3 * 60 * 60; // seconds\n    uint256 public constant FRAUD_FUNDING_PROOF_TIMEOUT = 3 * 60 * 60; // seconds\n    uint256 public constant FUNDER_BOND_AMOUNT_WEI = 10 ** 5; // wei\n\n    // Liquidation Flow\n    uint256 public constant COURTESY_CALL_DURATION = 6 * 60 * 60; // seconds\n    uint256 public constant AUCTION_DURATION = 24 * 60 * 60; // seconds\n    uint256 public constant AUCTION_BASE_PERCENTAGE = 90; // percents\n    uint256 public constant PERMITTED_FEE_BUMPS = 5; // number of times the fee can be increased\n\n    // Getters for easy access\n    function getLotSizeBtc() public pure returns (uint256) { return LOT_SIZE_BTC; }\n    function getLotSizeTbtc() public pure returns (uint256) { return LOT_SIZE_BTC * 10 ** 10; }\n    function getBeneficiaryRewardDivisor() public pure returns (uint256) { return BENEFICIARY_FEE_DIVISOR; }\n    function getFundingFraudPartialSlashDivisor() public pure returns (uint256) { return FUNDING_FRAUD_PARTIAL_SLASH_DIVISOR; }\n    function getDepositTerm() public pure returns (uint256) { return DEPOSIT_TERM_LENGTH; }\n    function getUndercollateralizedPercent() public pure returns (uint256) { return UNDERCOLLATERALIZED_THRESHOLD_PERCENT; }\n    function getSeverelyUndercollateralizedPercent() public pure returns (uint256) { return SEVERELY_UNDERCOLLATERALIZED_THRESHOLD_PERCENT; }\n    function getTxProofDifficultyFactor() public pure returns (uint256) { return TX_PROOF_DIFFICULTY_FACTOR; }\n\n    function getSignatureTimeout() public pure returns (uint256) { return REDEMPTION_SIGNATURE_TIMEOUT; }\n    function getIncreaseFeeTimer() public pure returns (uint256) { return INCREASE_FEE_TIMER; }\n    function getRedemptionProofTimeout() public pure returns (uint256) { return REDEMPTION_PROOF_TIMEOUT; }\n    function getMinimumRedemptionFee() public pure returns (uint256) { return MINIMUM_REDEMPTION_FEE; }\n\n    function getFundingTimeout() public pure returns (uint256) { return FUNDING_PROOF_TIMEOUT; }\n    function getSigningGroupFormationTimeout() public pure returns (uint256) { return FORMATION_TIMEOUT; }\n    function getFraudFundingTimeout() public pure returns (uint256) { return FRAUD_FUNDING_PROOF_TIMEOUT; }\n    function getFunderBondAmount() public pure returns (uint256) { return FUNDER_BOND_AMOUNT_WEI; }\n\n    function getCourtesyCallTimeout() public pure returns (uint256) { return COURTESY_CALL_DURATION; }\n    function getAuctionDuration() public pure returns (uint256) { return AUCTION_DURATION; }\n    function getAuctionBasePercentage() public pure returns (uint256) { return AUCTION_BASE_PERCENTAGE; }\n    function getPermittedFeeBumps() public pure returns (uint256) {return PERMITTED_FEE_BUMPS; }\n}\n",
  "sourcePath": "/tmp/82d41b08df438d8767a9183c446794e042fab4fc/implementation/contracts/deposit/TBTCConstants.sol",
  "compiler": {
    "name": "solc",
    "version": "0.5.10+commit.5a6ea5b1.Emscripten.clang"
  },
  "schemaVersion": "3.0.21",
  "updatedAt": "2020-01-22T20:02:00.934Z",
  "networkType": "ethereum",
  "devdoc": {
    "methods": {}
  },
  "userdoc": {
    "methods": {}
  }
}