{
  "contractName": "TBTCConstants",
  "abi": [
    {
      "constant": true,
      "inputs": [],
      "name": "TX_PROOF_DIFFICULTY_FACTOR",
      "outputs": [
        {
          "name": "",
          "type": "uint256"
        }
      ],
      "payable": false,
      "stateMutability": "view",
      "type": "function"
    },
    {
      "constant": true,
      "inputs": [],
      "name": "DEPOSIT_TERM_LENGTH",
      "outputs": [
        {
          "name": "",
          "type": "uint256"
        }
      ],
      "payable": false,
      "stateMutability": "view",
      "type": "function"
    },
    {
      "constant": true,
      "inputs": [],
      "name": "FUNDING_PROOF_TIMEOUT",
      "outputs": [
        {
          "name": "",
          "type": "uint256"
        }
      ],
      "payable": false,
      "stateMutability": "view",
      "type": "function"
    },
    {
      "constant": true,
      "inputs": [],
      "name": "SEVERELY_UNDERCOLLATERALIZED_THRESHOLD_PERCENT",
      "outputs": [
        {
          "name": "",
          "type": "uint256"
        }
      ],
      "payable": false,
      "stateMutability": "view",
      "type": "function"
    },
    {
      "constant": true,
      "inputs": [],
      "name": "INCREASE_FEE_TIMER",
      "outputs": [
        {
          "name": "",
          "type": "uint256"
        }
      ],
      "payable": false,
      "stateMutability": "view",
      "type": "function"
    },
    {
      "constant": true,
      "inputs": [],
      "name": "UNDERCOLLATERALIZED_THRESHOLD_PERCENT",
      "outputs": [
        {
          "name": "",
          "type": "uint256"
        }
      ],
      "payable": false,
      "stateMutability": "view",
      "type": "function"
    },
    {
      "constant": true,
      "inputs": [],
      "name": "AUCTION_BASE_PERCENTAGE",
      "outputs": [
        {
          "name": "",
          "type": "uint256"
        }
      ],
      "payable": false,
      "stateMutability": "view",
      "type": "function"
    },
    {
      "constant": true,
      "inputs": [],
      "name": "FUNDING_FRAUD_PARTIAL_SLASH_DIVISOR",
      "outputs": [
        {
          "name": "",
          "type": "uint256"
        }
      ],
      "payable": false,
      "stateMutability": "view",
      "type": "function"
    },
    {
      "constant": true,
      "inputs": [],
      "name": "REDEMPTION_SIGNATURE_TIMEOUT",
      "outputs": [
        {
          "name": "",
          "type": "uint256"
        }
      ],
      "payable": false,
      "stateMutability": "view",
      "type": "function"
    },
    {
      "constant": true,
      "inputs": [],
      "name": "BENEFICIARY_FEE_DIVISOR",
      "outputs": [
        {
          "name": "",
          "type": "uint256"
        }
      ],
      "payable": false,
      "stateMutability": "view",
      "type": "function"
    },
    {
      "constant": true,
      "inputs": [],
      "name": "FUNDER_BOND_AMOUNT_WEI",
      "outputs": [
        {
          "name": "",
          "type": "uint256"
        }
      ],
      "payable": false,
      "stateMutability": "view",
      "type": "function"
    },
    {
      "constant": true,
      "inputs": [],
      "name": "MINIMUM_REDEMPTION_FEE",
      "outputs": [
        {
          "name": "",
          "type": "uint256"
        }
      ],
      "payable": false,
      "stateMutability": "view",
      "type": "function"
    },
    {
      "constant": true,
      "inputs": [],
      "name": "PERMITTED_FEE_BUMPS",
      "outputs": [
        {
          "name": "",
          "type": "uint256"
        }
      ],
      "payable": false,
      "stateMutability": "view",
      "type": "function"
    },
    {
      "constant": true,
      "inputs": [],
      "name": "LOT_SIZE",
      "outputs": [
        {
          "name": "",
          "type": "uint256"
        }
      ],
      "payable": false,
      "stateMutability": "view",
      "type": "function"
    },
    {
      "constant": true,
      "inputs": [],
      "name": "FRAUD_FUNDING_PROOF_TIMEOUT",
      "outputs": [
        {
          "name": "",
          "type": "uint256"
        }
      ],
      "payable": false,
      "stateMutability": "view",
      "type": "function"
    },
    {
      "constant": true,
      "inputs": [],
      "name": "AUCTION_DURATION",
      "outputs": [
        {
          "name": "",
          "type": "uint256"
        }
      ],
      "payable": false,
      "stateMutability": "view",
      "type": "function"
    },
    {
      "constant": true,
      "inputs": [],
      "name": "FORMATION_TIMEOUT",
      "outputs": [
        {
          "name": "",
          "type": "uint256"
        }
      ],
      "payable": false,
      "stateMutability": "view",
      "type": "function"
    },
    {
      "constant": true,
      "inputs": [],
      "name": "REDEMPTION_PROOF_TIMEOUT",
      "outputs": [
        {
          "name": "",
          "type": "uint256"
        }
      ],
      "payable": false,
      "stateMutability": "view",
      "type": "function"
    },
    {
      "constant": true,
      "inputs": [],
      "name": "SATOSHI_MULTIPLIER",
      "outputs": [
        {
          "name": "",
          "type": "uint256"
        }
      ],
      "payable": false,
      "stateMutability": "view",
      "type": "function"
    },
    {
      "constant": true,
      "inputs": [],
      "name": "COURTESY_CALL_DURATION",
      "outputs": [
        {
          "name": "",
          "type": "uint256"
        }
      ],
      "payable": false,
      "stateMutability": "view",
      "type": "function"
    },
    {
      "constant": true,
      "inputs": [],
      "name": "getLotSize",
      "outputs": [
        {
          "name": "",
          "type": "uint256"
        }
      ],
      "payable": false,
      "stateMutability": "pure",
      "type": "function"
    },
    {
      "constant": true,
      "inputs": [],
      "name": "getSatoshiMultiplier",
      "outputs": [
        {
          "name": "",
          "type": "uint256"
        }
      ],
      "payable": false,
      "stateMutability": "pure",
      "type": "function"
    },
    {
      "constant": true,
      "inputs": [],
      "name": "getBeneficiaryRewardDivisor",
      "outputs": [
        {
          "name": "",
          "type": "uint256"
        }
      ],
      "payable": false,
      "stateMutability": "pure",
      "type": "function"
    },
    {
      "constant": true,
      "inputs": [],
      "name": "getFundingFraudPartialSlashDivisor",
      "outputs": [
        {
          "name": "",
          "type": "uint256"
        }
      ],
      "payable": false,
      "stateMutability": "pure",
      "type": "function"
    },
    {
      "constant": true,
      "inputs": [],
      "name": "getDepositTerm",
      "outputs": [
        {
          "name": "",
          "type": "uint256"
        }
      ],
      "payable": false,
      "stateMutability": "pure",
      "type": "function"
    },
    {
      "constant": true,
      "inputs": [],
      "name": "getUndercollateralizedPercent",
      "outputs": [
        {
          "name": "",
          "type": "uint256"
        }
      ],
      "payable": false,
      "stateMutability": "pure",
      "type": "function"
    },
    {
      "constant": true,
      "inputs": [],
      "name": "getSeverelyUndercollateralizedPercent",
      "outputs": [
        {
          "name": "",
          "type": "uint256"
        }
      ],
      "payable": false,
      "stateMutability": "pure",
      "type": "function"
    },
    {
      "constant": true,
      "inputs": [],
      "name": "getTxProofDifficultyFactor",
      "outputs": [
        {
          "name": "",
          "type": "uint256"
        }
      ],
      "payable": false,
      "stateMutability": "pure",
      "type": "function"
    },
    {
      "constant": true,
      "inputs": [],
      "name": "getSignatureTimeout",
      "outputs": [
        {
          "name": "",
          "type": "uint256"
        }
      ],
      "payable": false,
      "stateMutability": "pure",
      "type": "function"
    },
    {
      "constant": true,
      "inputs": [],
      "name": "getIncreaseFeeTimer",
      "outputs": [
        {
          "name": "",
          "type": "uint256"
        }
      ],
      "payable": false,
      "stateMutability": "pure",
      "type": "function"
    },
    {
      "constant": true,
      "inputs": [],
      "name": "getRedepmtionProofTimeout",
      "outputs": [
        {
          "name": "",
          "type": "uint256"
        }
      ],
      "payable": false,
      "stateMutability": "pure",
      "type": "function"
    },
    {
      "constant": true,
      "inputs": [],
      "name": "getMinimumRedemptionFee",
      "outputs": [
        {
          "name": "",
          "type": "uint256"
        }
      ],
      "payable": false,
      "stateMutability": "pure",
      "type": "function"
    },
    {
      "constant": true,
      "inputs": [],
      "name": "getFundingTimeout",
      "outputs": [
        {
          "name": "",
          "type": "uint256"
        }
      ],
      "payable": false,
      "stateMutability": "pure",
      "type": "function"
    },
    {
      "constant": true,
      "inputs": [],
      "name": "getSigningGroupFormationTimeout",
      "outputs": [
        {
          "name": "",
          "type": "uint256"
        }
      ],
      "payable": false,
      "stateMutability": "pure",
      "type": "function"
    },
    {
      "constant": true,
      "inputs": [],
      "name": "getFraudFundingTimeout",
      "outputs": [
        {
          "name": "",
          "type": "uint256"
        }
      ],
      "payable": false,
      "stateMutability": "pure",
      "type": "function"
    },
    {
      "constant": true,
      "inputs": [],
      "name": "getFunderBondAmount",
      "outputs": [
        {
          "name": "",
          "type": "uint256"
        }
      ],
      "payable": false,
      "stateMutability": "pure",
      "type": "function"
    },
    {
      "constant": true,
      "inputs": [],
      "name": "getCourtesyCallTimeout",
      "outputs": [
        {
          "name": "",
          "type": "uint256"
        }
      ],
      "payable": false,
      "stateMutability": "pure",
      "type": "function"
    },
    {
      "constant": true,
      "inputs": [],
      "name": "getAuctionDuration",
      "outputs": [
        {
          "name": "",
          "type": "uint256"
        }
      ],
      "payable": false,
      "stateMutability": "pure",
      "type": "function"
    },
    {
      "constant": true,
      "inputs": [],
      "name": "getAuctionBasePercentage",
      "outputs": [
        {
          "name": "",
          "type": "uint256"
        }
      ],
      "payable": false,
      "stateMutability": "pure",
      "type": "function"
    },
    {
      "constant": true,
      "inputs": [],
      "name": "getPermittedFeeBumps",
      "outputs": [
        {
          "name": "",
          "type": "uint256"
        }
      ],
      "payable": false,
      "stateMutability": "pure",
      "type": "function"
    }
  ],
  "bytecode": "0x61045c610026600b82828239805160001a60731461001957fe5b30600052607381538281f3fe73000000000000000000000000000000000000000030146080604052600436106102525760003560e01c80637fee67a211610145578063b4d01219116100c2578063d565d1f111610086578063d565d1f114610351578063d891dcdb14610359578063ecaf1cdf14610321578063f653c0b914610361578063fc94f1d61461033157610252565b8063b4d0121914610311578063c342b1f7146102a1578063c4572eb914610341578063c7ba034714610349578063cdf95050146102a157610252565b8063a1f6c63911610109578063a1f6c63914610321578063a271e52514610329578063a99b528314610279578063ac8bfdad14610331578063ae9eb1271461033957610252565b80637fee67a2146102e157806386322af714610309578063866a5400146102795780639887426d146103115780639b3fd99f1461031957610252565b80634145cf8e116101d35780636da1dda2116101975780636da1dda2146102e15780637196e87b146102e9578063741b5e4c146102f157806378cb51af146102f95780637b9adf7c1461030157610252565b80634145cf8e146102b9578063582d1071146102c15780635b6b452a146102c957806365564920146102d15780636760dab9146102d957610252565b80632851f4db1161021a5780632851f4db1461029157806328f768941461029957806338c86093146102a15780633f8653ab146102a95780634136c1e7146102b157610252565b806302b7044b146102575780630a913dea1461027157806312aeac83146102795780631999101b14610281578063242c0ed014610289575b600080fd5b61025f610369565b60408051918252519081900360200190f35b61025f61036e565b61025f610375565b61025f61037b565b61025f610380565b61025f610386565b61025f61038b565b61025f610390565b61025f610396565b61025f61039b565b61025f6103a0565b61025f6103a7565b61025f6103ac565b61025f6103b2565b61025f6103b7565b61025f6103bc565b61025f6103c2565b61025f6103c9565b61025f6103ce565b61025f6103d5565b61025f6103da565b61025f6103df565b61025f6103e5565b61025f6103ea565b61025f6103f0565b61025f6103f7565b61025f6103fd565b61025f610406565b61025f61040b565b61025f610414565b61025f61041b565b61025f610421565b600181565b62ed4e0081565b612a3081565b607881565b61384081565b608c90565b600590565b612a3090565b608c81565b605a81565b620186a090565b600281565b611c2081565b600290565b607890565b6103e881565b620186a081565b609681565b6201518090565b600581565b609690565b61546090565b600190565b6103e890565b6201518081565b61546081565b6402540be40090565b605a90565b6402540be40081565b62ed4e0090565b611c2090565b6138409056fea265627a7a72305820b0c9e1454bcf0829469ddbd065f17e868189181ddccc71ea79652b4dd3305a0464736f6c634300050a0032",
  "source": "pragma solidity ^0.5.10;\n\nlibrary TBTCConstants {\n\n    // This is intended to make it easy to update system params\n    // During testing swap this out with another constats contract\n\n    // System Parameters\n    uint256 public constant LOT_SIZE = 1000; // satoshi TODO: decreased for testing, set it back original value `10 ** 8`\n    uint256 public constant SATOSHI_MULTIPLIER = 10 ** 10; // multiplier to convert satoshi to TBTC token units\n    uint256 public constant BENEFICIARY_FEE_DIVISOR = 1000;  // 1/1000 = 10 bps = 0.1% = 0.001\n    uint256 public constant FUNDING_FRAUD_PARTIAL_SLASH_DIVISOR = 2;  // 1/2 = 5000bps = 50% = 0.5\n    uint256 public constant DEPOSIT_TERM_LENGTH = 180 * 24 * 60 * 60; // 180 days in seconds\n    uint256 public constant UNDERCOLLATERALIZED_THRESHOLD_PERCENT = 140;  // percent\n    uint256 public constant SEVERELY_UNDERCOLLATERALIZED_THRESHOLD_PERCENT = 120; // percent\n    uint256 public constant TX_PROOF_DIFFICULTY_FACTOR = 1; // TODO: decreased for testing, original value: `6`\n\n    // Redemption Flow\n    uint256 public constant REDEMPTION_SIGNATURE_TIMEOUT = 2 * 60 * 60;  // seconds\n    uint256 public constant INCREASE_FEE_TIMER = 4 * 60 * 60;  // seconds\n    uint256 public constant REDEMPTION_PROOF_TIMEOUT = 6 * 60 * 60;  // seconds\n    uint256 public constant MINIMUM_REDEMPTION_FEE = 150; // satoshi TODO: decreased for testing, set it back original value `2000`\n\n    // Funding Flow\n    uint256 public constant FUNDING_PROOF_TIMEOUT = 3 * 60 * 60; // seconds\n    uint256 public constant FORMATION_TIMEOUT = 3 * 60 * 60; // seconds\n    uint256 public constant FRAUD_FUNDING_PROOF_TIMEOUT = 3 * 60 * 60; // seconds\n    uint256 public constant FUNDER_BOND_AMOUNT_WEI = 10 ** 5; // wei\n\n    // Liquidation Flow\n    uint256 public constant COURTESY_CALL_DURATION = 6 * 60 * 60; // seconds\n    uint256 public constant AUCTION_DURATION = 24 * 60 * 60; // seconds\n    uint256 public constant AUCTION_BASE_PERCENTAGE = 90; // percents\n    uint256 public constant PERMITTED_FEE_BUMPS = 5; // number of times the fee can be increased\n\n    // Getters for easy access\n    function getLotSize() public pure returns (uint256) { return LOT_SIZE; }\n    function getSatoshiMultiplier() public pure returns (uint256) { return SATOSHI_MULTIPLIER; }\n    function getBeneficiaryRewardDivisor() public pure returns (uint256) { return BENEFICIARY_FEE_DIVISOR; }\n    function getFundingFraudPartialSlashDivisor() public pure returns (uint256) { return FUNDING_FRAUD_PARTIAL_SLASH_DIVISOR; }\n    function getDepositTerm() public pure returns (uint256) { return DEPOSIT_TERM_LENGTH; }\n    function getUndercollateralizedPercent() public pure returns (uint256) { return UNDERCOLLATERALIZED_THRESHOLD_PERCENT; }\n    function getSeverelyUndercollateralizedPercent() public pure returns (uint256) { return SEVERELY_UNDERCOLLATERALIZED_THRESHOLD_PERCENT; }\n    function getTxProofDifficultyFactor() public pure returns (uint256) { return TX_PROOF_DIFFICULTY_FACTOR; }\n\n    function getSignatureTimeout() public pure returns (uint256) { return REDEMPTION_SIGNATURE_TIMEOUT; }\n    function getIncreaseFeeTimer() public pure returns (uint256) { return INCREASE_FEE_TIMER; }\n    function getRedepmtionProofTimeout() public pure returns (uint256) { return REDEMPTION_PROOF_TIMEOUT; }\n    function getMinimumRedemptionFee() public pure returns (uint256) { return MINIMUM_REDEMPTION_FEE; }\n\n    function getFundingTimeout() public pure returns (uint256) { return FUNDING_PROOF_TIMEOUT; }\n    function getSigningGroupFormationTimeout() public pure returns (uint256) { return FORMATION_TIMEOUT; }\n    function getFraudFundingTimeout() public pure returns (uint256) { return FRAUD_FUNDING_PROOF_TIMEOUT; }\n    function getFunderBondAmount() public pure returns (uint256) { return FUNDER_BOND_AMOUNT_WEI; }\n\n    function getCourtesyCallTimeout() public pure returns (uint256) { return COURTESY_CALL_DURATION; }\n    function getAuctionDuration() public pure returns (uint256) { return AUCTION_DURATION; }\n    function getAuctionBasePercentage() public pure returns (uint256) { return AUCTION_BASE_PERCENTAGE; }\n    function getPermittedFeeBumps() public pure returns (uint256) {return PERMITTED_FEE_BUMPS; }\n}\n",
  "sourcePath": "/tmp/46a38aeec76c1707279b44cd3da78d16dc8a88ed/implementation/contracts/deposit/TBTCConstants.sol",
  "compiler": {
    "name": "solc",
    "version": "0.5.10+commit.5a6ea5b1.Emscripten.clang"
  },
  "schemaVersion": "3.0.20",
  "updatedAt": "2020-01-16T05:19:50.274Z",
  "networkType": "ethereum",
  "devdoc": {
    "methods": {}
  },
  "userdoc": {
    "methods": {}
  }
}