{
  "contractName": "TBTCSystem",
  "abi": [
    {
      "constant": true,
      "inputs": [
        {
          "name": "interfaceId",
          "type": "bytes4"
        }
      ],
      "name": "supportsInterface",
      "outputs": [
        {
          "name": "",
          "type": "bool"
        }
      ],
      "payable": false,
      "stateMutability": "view",
      "type": "function",
      "signature": "0x01ffc9a7"
    },
    {
      "constant": true,
      "inputs": [
        {
          "name": "tokenId",
          "type": "uint256"
        }
      ],
      "name": "getApproved",
      "outputs": [
        {
          "name": "",
          "type": "address"
        }
      ],
      "payable": false,
      "stateMutability": "view",
      "type": "function",
      "signature": "0x081812fc"
    },
    {
      "constant": false,
      "inputs": [
        {
          "name": "to",
          "type": "address"
        },
        {
          "name": "tokenId",
          "type": "uint256"
        }
      ],
      "name": "approve",
      "outputs": [],
      "payable": false,
      "stateMutability": "nonpayable",
      "type": "function",
      "signature": "0x095ea7b3"
    },
    {
      "constant": false,
      "inputs": [],
      "name": "logCourtesyCalled",
      "outputs": [
        {
          "name": "",
          "type": "bool"
        }
      ],
      "payable": false,
      "stateMutability": "nonpayable",
      "type": "function",
      "signature": "0x22a147e6"
    },
    {
      "constant": false,
      "inputs": [],
      "name": "logExitedCourtesyCall",
      "outputs": [
        {
          "name": "",
          "type": "bool"
        }
      ],
      "payable": false,
      "stateMutability": "nonpayable",
      "type": "function",
      "signature": "0x22e5724c"
    },
    {
      "constant": false,
      "inputs": [
        {
          "name": "from",
          "type": "address"
        },
        {
          "name": "to",
          "type": "address"
        },
        {
          "name": "tokenId",
          "type": "uint256"
        }
      ],
      "name": "transferFrom",
      "outputs": [],
      "payable": false,
      "stateMutability": "nonpayable",
      "type": "function",
      "signature": "0x23b872dd"
    },
    {
      "constant": false,
      "inputs": [
        {
          "name": "_keepAddress",
          "type": "address"
        }
      ],
      "name": "logCreated",
      "outputs": [
        {
          "name": "",
          "type": "bool"
        }
      ],
      "payable": false,
      "stateMutability": "nonpayable",
      "type": "function",
      "signature": "0x282bfd38"
    },
    {
      "constant": false,
      "inputs": [
        {
          "name": "_requester",
          "type": "address"
        },
        {
          "name": "_digest",
          "type": "bytes32"
        },
        {
          "name": "_utxoSize",
          "type": "uint256"
        },
        {
          "name": "_requesterPKH",
          "type": "bytes20"
        },
        {
          "name": "_requestedFee",
          "type": "uint256"
        },
        {
          "name": "_outpoint",
          "type": "bytes"
        }
      ],
      "name": "logRedemptionRequested",
      "outputs": [
        {
          "name": "",
          "type": "bool"
        }
      ],
      "payable": false,
      "stateMutability": "nonpayable",
      "type": "function",
      "signature": "0x2b8af661"
    },
    {
      "constant": false,
      "inputs": [
        {
          "name": "_wasFraud",
          "type": "bool"
        }
      ],
      "name": "logStartedLiquidation",
      "outputs": [
        {
          "name": "",
          "type": "bool"
        }
      ],
      "payable": false,
      "stateMutability": "nonpayable",
      "type": "function",
      "signature": "0x3aac3467"
    },
    {
      "constant": false,
      "inputs": [
        {
          "name": "from",
          "type": "address"
        },
        {
          "name": "to",
          "type": "address"
        },
        {
          "name": "tokenId",
          "type": "uint256"
        }
      ],
      "name": "safeTransferFrom",
      "outputs": [],
      "payable": false,
      "stateMutability": "nonpayable",
      "type": "function",
      "signature": "0x42842e0e"
    },
    {
      "constant": true,
      "inputs": [
        {
          "name": "tokenId",
          "type": "uint256"
        }
      ],
      "name": "ownerOf",
      "outputs": [
        {
          "name": "",
          "type": "address"
        }
      ],
      "payable": false,
      "stateMutability": "view",
      "type": "function",
      "signature": "0x6352211e"
    },
    {
      "constant": false,
      "inputs": [
        {
          "name": "_txid",
          "type": "bytes32"
        }
      ],
      "name": "logRedeemed",
      "outputs": [
        {
          "name": "",
          "type": "bool"
        }
      ],
      "payable": false,
      "stateMutability": "nonpayable",
      "type": "function",
      "signature": "0x6e1ba283"
    },
    {
      "constant": true,
      "inputs": [
        {
          "name": "owner",
          "type": "address"
        }
      ],
      "name": "balanceOf",
      "outputs": [
        {
          "name": "",
          "type": "uint256"
        }
      ],
      "payable": false,
      "stateMutability": "view",
      "type": "function",
      "signature": "0x70a08231"
    },
    {
      "constant": false,
      "inputs": [],
      "name": "renounceOwnership",
      "outputs": [],
      "payable": false,
      "stateMutability": "nonpayable",
      "type": "function",
      "signature": "0x715018a6"
    },
    {
      "constant": false,
      "inputs": [
        {
          "name": "_signingGroupPubkeyX",
          "type": "bytes32"
        },
        {
          "name": "_signingGroupPubkeyY",
          "type": "bytes32"
        }
      ],
      "name": "logRegisteredPubkey",
      "outputs": [
        {
          "name": "",
          "type": "bool"
        }
      ],
      "payable": false,
      "stateMutability": "nonpayable",
      "type": "function",
      "signature": "0x869f9469"
    },
    {
      "constant": false,
      "inputs": [],
      "name": "logFunded",
      "outputs": [
        {
          "name": "",
          "type": "bool"
        }
      ],
      "payable": false,
      "stateMutability": "nonpayable",
      "type": "function",
      "signature": "0x8c736503"
    },
    {
      "constant": true,
      "inputs": [],
      "name": "owner",
      "outputs": [
        {
          "name": "",
          "type": "address"
        }
      ],
      "payable": false,
      "stateMutability": "view",
      "type": "function",
      "signature": "0x8da5cb5b"
    },
    {
      "constant": true,
      "inputs": [],
      "name": "isOwner",
      "outputs": [
        {
          "name": "",
          "type": "bool"
        }
      ],
      "payable": false,
      "stateMutability": "view",
      "type": "function",
      "signature": "0x8f32d59b"
    },
    {
      "constant": true,
      "inputs": [
        {
          "name": "_caller",
          "type": "address"
        }
      ],
      "name": "approvedToLog",
      "outputs": [
        {
          "name": "",
          "type": "bool"
        }
      ],
      "payable": false,
      "stateMutability": "view",
      "type": "function",
      "signature": "0x9ffb3862"
    },
    {
      "constant": false,
      "inputs": [
        {
          "name": "to",
          "type": "address"
        },
        {
          "name": "approved",
          "type": "bool"
        }
      ],
      "name": "setApprovalForAll",
      "outputs": [],
      "payable": false,
      "stateMutability": "nonpayable",
      "type": "function",
      "signature": "0xa22cb465"
    },
    {
      "constant": false,
      "inputs": [],
      "name": "logSetupFailed",
      "outputs": [
        {
          "name": "",
          "type": "bool"
        }
      ],
      "payable": false,
      "stateMutability": "nonpayable",
      "type": "function",
      "signature": "0xa831c816"
    },
    {
      "constant": false,
      "inputs": [
        {
          "name": "from",
          "type": "address"
        },
        {
          "name": "to",
          "type": "address"
        },
        {
          "name": "tokenId",
          "type": "uint256"
        },
        {
          "name": "_data",
          "type": "bytes"
        }
      ],
      "name": "safeTransferFrom",
      "outputs": [],
      "payable": false,
      "stateMutability": "nonpayable",
      "type": "function",
      "signature": "0xb88d4fde"
    },
    {
      "constant": false,
      "inputs": [],
      "name": "logLiquidated",
      "outputs": [
        {
          "name": "",
          "type": "bool"
        }
      ],
      "payable": false,
      "stateMutability": "nonpayable",
      "type": "function",
      "signature": "0xc8fba243"
    },
    {
      "constant": true,
      "inputs": [],
      "name": "keepRegistry",
      "outputs": [
        {
          "name": "",
          "type": "address"
        }
      ],
      "payable": false,
      "stateMutability": "view",
      "type": "function",
      "signature": "0xd895738d"
    },
    {
      "constant": false,
      "inputs": [],
      "name": "logFraudDuringSetup",
      "outputs": [
        {
          "name": "",
          "type": "bool"
        }
      ],
      "payable": false,
      "stateMutability": "nonpayable",
      "type": "function",
      "signature": "0xe2c50ad8"
    },
    {
      "constant": true,
      "inputs": [
        {
          "name": "owner",
          "type": "address"
        },
        {
          "name": "operator",
          "type": "address"
        }
      ],
      "name": "isApprovedForAll",
      "outputs": [
        {
          "name": "",
          "type": "bool"
        }
      ],
      "payable": false,
      "stateMutability": "view",
      "type": "function",
      "signature": "0xe985e9c5"
    },
    {
      "constant": false,
      "inputs": [
        {
          "name": "newOwner",
          "type": "address"
        }
      ],
      "name": "transferOwnership",
      "outputs": [],
      "payable": false,
      "stateMutability": "nonpayable",
      "type": "function",
      "signature": "0xf2fde38b"
    },
    {
      "constant": true,
      "inputs": [],
      "name": "tbtcUniswapExchange",
      "outputs": [
        {
          "name": "",
          "type": "address"
        }
      ],
      "payable": false,
      "stateMutability": "view",
      "type": "function",
      "signature": "0xf34ed984"
    },
    {
      "constant": false,
      "inputs": [
        {
          "name": "_digest",
          "type": "bytes32"
        },
        {
          "name": "_r",
          "type": "bytes32"
        },
        {
          "name": "_s",
          "type": "bytes32"
        }
      ],
      "name": "logGotRedemptionSignature",
      "outputs": [
        {
          "name": "",
          "type": "bool"
        }
      ],
      "payable": false,
      "stateMutability": "nonpayable",
      "type": "function",
      "signature": "0xf760621e"
    },
    {
      "inputs": [
        {
          "name": "_depositFactory",
          "type": "address"
        }
      ],
      "payable": false,
      "stateMutability": "nonpayable",
      "type": "constructor",
      "signature": "constructor"
    },
    {
      "anonymous": false,
      "inputs": [
        {
          "indexed": true,
          "name": "_depositContractAddress",
          "type": "address"
        },
        {
          "indexed": true,
          "name": "_keepAddress",
          "type": "address"
        },
        {
          "indexed": false,
          "name": "_timestamp",
          "type": "uint256"
        }
      ],
      "name": "Created",
      "type": "event",
      "signature": "0x822b3073be62c5c7f143c2dcd71ee266434ee935d90a1eec3be34710ac8ec1a2"
    },
    {
      "anonymous": false,
      "inputs": [
        {
          "indexed": true,
          "name": "_depositContractAddress",
          "type": "address"
        },
        {
          "indexed": true,
          "name": "_requester",
          "type": "address"
        },
        {
          "indexed": true,
          "name": "_digest",
          "type": "bytes32"
        },
        {
          "indexed": false,
          "name": "_utxoSize",
          "type": "uint256"
        },
        {
          "indexed": false,
          "name": "_requesterPKH",
          "type": "bytes20"
        },
        {
          "indexed": false,
          "name": "_requestedFee",
          "type": "uint256"
        },
        {
          "indexed": false,
          "name": "_outpoint",
          "type": "bytes"
        }
      ],
      "name": "RedemptionRequested",
      "type": "event",
      "signature": "0xc878d7c38ac02179fd80904f0f6c8126ea8659612f4cbb389af37ddf671eb761"
    },
    {
      "anonymous": false,
      "inputs": [
        {
          "indexed": true,
          "name": "_depositContractAddress",
          "type": "address"
        },
        {
          "indexed": true,
          "name": "_digest",
          "type": "bytes32"
        },
        {
          "indexed": false,
          "name": "_r",
          "type": "bytes32"
        },
        {
          "indexed": false,
          "name": "_s",
          "type": "bytes32"
        },
        {
          "indexed": false,
          "name": "_timestamp",
          "type": "uint256"
        }
      ],
      "name": "GotRedemptionSignature",
      "type": "event",
      "signature": "0x7f7d7327762d01d2c4a552ea0be2bc5a76264574a80aa78083e691a840e509f2"
    },
    {
      "anonymous": false,
      "inputs": [
        {
          "indexed": true,
          "name": "_depositContractAddress",
          "type": "address"
        },
        {
          "indexed": false,
          "name": "_signingGroupPubkeyX",
          "type": "bytes32"
        },
        {
          "indexed": false,
          "name": "_signingGroupPubkeyY",
          "type": "bytes32"
        },
        {
          "indexed": false,
          "name": "_timestamp",
          "type": "uint256"
        }
      ],
      "name": "RegisteredPubkey",
      "type": "event",
      "signature": "0x8ee737ab16909c4e9d1b750814a4393c9f84ab5d3a29c08c313b783fc846ae33"
    },
    {
      "anonymous": false,
      "inputs": [
        {
          "indexed": true,
          "name": "_depositContractAddress",
          "type": "address"
        },
        {
          "indexed": false,
          "name": "_timestamp",
          "type": "uint256"
        }
      ],
      "name": "SetupFailed",
      "type": "event",
      "signature": "0x8fd2cfb62a35fccc1ecef829f83a6c2f840b73dad49d3eaaa402909752086d4b"
    },
    {
      "anonymous": false,
      "inputs": [
        {
          "indexed": true,
          "name": "_depositContractAddress",
          "type": "address"
        },
        {
          "indexed": false,
          "name": "_timestamp",
          "type": "uint256"
        }
      ],
      "name": "FraudDuringSetup",
      "type": "event",
      "signature": "0x1e61af503f1d7de21d5300094c18bf8700f82b2951a4d54dd2adda13f6b3da30"
    },
    {
      "anonymous": false,
      "inputs": [
        {
          "indexed": true,
          "name": "_depositContractAddress",
          "type": "address"
        },
        {
          "indexed": false,
          "name": "_timestamp",
          "type": "uint256"
        }
      ],
      "name": "Funded",
      "type": "event",
      "signature": "0x5af8184bef8e4b45eb9f6ed7734d04da38ced226495548f46e0c8ff8d7d9a524"
    },
    {
      "anonymous": false,
      "inputs": [
        {
          "indexed": true,
          "name": "_depositContractAddress",
          "type": "address"
        },
        {
          "indexed": false,
          "name": "_timestamp",
          "type": "uint256"
        }
      ],
      "name": "CourtesyCalled",
      "type": "event",
      "signature": "0x6e7b45210b79c12cd1332babd8d86c0bbb9ca898a89ce0404f17064dbfba18c0"
    },
    {
      "anonymous": false,
      "inputs": [
        {
          "indexed": true,
          "name": "_depositContractAddress",
          "type": "address"
        },
        {
          "indexed": false,
          "name": "_timestamp",
          "type": "uint256"
        }
      ],
      "name": "ExitedCourtesyCall",
      "type": "event",
      "signature": "0x07f0eaafadb9abb1d28da85d4b4c74f1939fd61b535c7f5ab501f618f07e76ee"
    },
    {
      "anonymous": false,
      "inputs": [
        {
          "indexed": true,
          "name": "_depositContractAddress",
          "type": "address"
        },
        {
          "indexed": false,
          "name": "_wasFraud",
          "type": "bool"
        },
        {
          "indexed": false,
          "name": "_timestamp",
          "type": "uint256"
        }
      ],
      "name": "StartedLiquidation",
      "type": "event",
      "signature": "0xbef11c059eefba82a15aea8a3a89c86fd08d7711c88fa7daea2632a55488510c"
    },
    {
      "anonymous": false,
      "inputs": [
        {
          "indexed": true,
          "name": "_depositContractAddress",
          "type": "address"
        },
        {
          "indexed": true,
          "name": "_txid",
          "type": "bytes32"
        },
        {
          "indexed": false,
          "name": "_timestamp",
          "type": "uint256"
        }
      ],
      "name": "Redeemed",
      "type": "event",
      "signature": "0x44b7f176bcc739b54bd0800fe491cbdea19df7d4d6b19c281462e6b4fc504344"
    },
    {
      "anonymous": false,
      "inputs": [
        {
          "indexed": true,
          "name": "_depositContractAddress",
          "type": "address"
        },
        {
          "indexed": false,
          "name": "_timestamp",
          "type": "uint256"
        }
      ],
      "name": "Liquidated",
      "type": "event",
      "signature": "0xa5ee7a2b0254fce91deed604506790ed7fa072d0b14cba4859c3bc8955b9caac"
    },
    {
      "anonymous": false,
      "inputs": [
        {
          "indexed": true,
          "name": "from",
          "type": "address"
        },
        {
          "indexed": true,
          "name": "to",
          "type": "address"
        },
        {
          "indexed": true,
          "name": "tokenId",
          "type": "uint256"
        }
      ],
      "name": "Transfer",
      "type": "event",
      "signature": "0xddf252ad1be2c89b69c2b068fc378daa952ba7f163c4a11628f55a4df523b3ef"
    },
    {
      "anonymous": false,
      "inputs": [
        {
          "indexed": true,
          "name": "owner",
          "type": "address"
        },
        {
          "indexed": true,
          "name": "approved",
          "type": "address"
        },
        {
          "indexed": true,
          "name": "tokenId",
          "type": "uint256"
        }
      ],
      "name": "Approval",
      "type": "event",
      "signature": "0x8c5be1e5ebec7d5bd14f71427d1e84f3dd0314c0f7b2291e5b200ac8c7c3b925"
    },
    {
      "anonymous": false,
      "inputs": [
        {
          "indexed": true,
          "name": "owner",
          "type": "address"
        },
        {
          "indexed": true,
          "name": "operator",
          "type": "address"
        },
        {
          "indexed": false,
          "name": "approved",
          "type": "bool"
        }
      ],
      "name": "ApprovalForAll",
      "type": "event",
      "signature": "0x17307eab39ab6107e8899845ad3d59bd9653f200f220920489ca2b5937696c31"
    },
    {
      "anonymous": false,
      "inputs": [
        {
          "indexed": true,
          "name": "previousOwner",
          "type": "address"
        },
        {
          "indexed": true,
          "name": "newOwner",
          "type": "address"
        }
      ],
      "name": "OwnershipTransferred",
      "type": "event",
      "signature": "0x8be0079c531659141344cd1fd0a4f28419497f9722a3daafe3b4186f6b6457e0"
    },
    {
      "constant": false,
      "inputs": [
        {
          "name": "_keepRegistry",
          "type": "address"
        },
        {
          "name": "_tbtcUniswapExchange",
          "type": "address"
        }
      ],
      "name": "initialize",
      "outputs": [],
      "payable": false,
      "stateMutability": "nonpayable",
      "type": "function",
      "signature": "0x485cc955"
    },
    {
      "constant": true,
      "inputs": [],
      "name": "getTBTCUniswapExchange",
      "outputs": [
        {
          "name": "",
          "type": "address"
        }
      ],
      "payable": false,
      "stateMutability": "view",
      "type": "function",
      "signature": "0xaa336740"
    },
    {
      "constant": true,
      "inputs": [],
      "name": "fetchOraclePrice",
      "outputs": [
        {
          "name": "",
          "type": "uint256"
        }
      ],
      "payable": false,
      "stateMutability": "view",
      "type": "function",
      "signature": "0xadd1c817"
    },
    {
      "constant": true,
      "inputs": [],
      "name": "fetchRelayCurrentDifficulty",
      "outputs": [
        {
          "name": "",
          "type": "uint256"
        }
      ],
      "payable": false,
      "stateMutability": "view",
      "type": "function",
      "signature": "0xdab70cb1"
    },
    {
      "constant": true,
      "inputs": [],
      "name": "fetchRelayPreviousDifficulty",
      "outputs": [
        {
          "name": "",
          "type": "uint256"
        }
      ],
      "payable": false,
      "stateMutability": "view",
      "type": "function",
      "signature": "0x402b783d"
    },
    {
      "constant": false,
      "inputs": [
        {
          "name": "_currentDifficulty",
          "type": "uint256"
        }
      ],
      "name": "submitCurrentDifficulty",
      "outputs": [],
      "payable": false,
      "stateMutability": "nonpayable",
      "type": "function",
      "signature": "0x0bcfd609"
    },
    {
      "constant": false,
      "inputs": [
        {
          "name": "_m",
          "type": "uint256"
        },
        {
          "name": "_n",
          "type": "uint256"
        }
      ],
      "name": "requestNewKeep",
      "outputs": [
        {
          "name": "_keepAddress",
          "type": "address"
        }
      ],
      "payable": true,
      "stateMutability": "payable",
      "type": "function",
      "signature": "0xdafd59b2"
    },
    {
      "constant": false,
      "inputs": [
        {
          "name": "_to",
          "type": "address"
        },
        {
          "name": "_tokenId",
          "type": "uint256"
        }
      ],
      "name": "mint",
      "outputs": [],
      "payable": false,
      "stateMutability": "nonpayable",
      "type": "function",
      "signature": "0x40c10f19"
    },
    {
      "constant": false,
      "inputs": [
        {
          "name": "_depositAddress",
          "type": "address"
        }
      ],
      "name": "isDeposit",
      "outputs": [
        {
          "name": "",
          "type": "bool"
        }
      ],
      "payable": false,
      "stateMutability": "nonpayable",
      "type": "function",
      "signature": "0xf690a3a3"
    }
  ],
  "bytecode": "0x60806040526006805460a060020a60ff02191690556001600781905560085564e8d4a510006009553480156200003457600080fd5b50604051620021ec380380620021ec833981810160405260208110156200005a57600080fd5b505160008054600160a060020a03191633178082556040518392600160a060020a039290921691907f8be0079c531659141344cd1fd0a4f28419497f9722a3daafe3b4186f6b6457e0908290a3620000db7f01ffc9a70000000000000000000000000000000000000000000000000000000064010000000062000136810204565b6200010f7f80ac58cd0000000000000000000000000000000000000000000000000000000064010000000062000136810204565b60068054600160a060020a031916600160a060020a03929092169190911790555062000208565b7fffffffff000000000000000000000000000000000000000000000000000000008082161415620001c857604080517f08c379a000000000000000000000000000000000000000000000000000000000815260206004820152601c60248201527f4552433136353a20696e76616c696420696e7465726661636520696400000000604482015290519081900360640190fd5b7fffffffff00000000000000000000000000000000000000000000000000000000166000908152600160208190526040909120805460ff19169091179055565b611fd480620002186000396000f3fe608060405260043610610242576000357c0100000000000000000000000000000000000000000000000000000000900480638c73650311610140578063c8fba243116100c8578063e985e9c51161008c578063e985e9c5146108e5578063f2fde38b14610920578063f34ed98414610953578063f690a3a314610968578063f760621e1461099b57610242565b8063c8fba2431461086e578063d895738d14610883578063dab70cb114610898578063dafd59b2146108ad578063e2c50ad8146108d057610242565b8063a22cb4651161010f578063a22cb46514610721578063a831c8161461075c578063aa33674014610771578063add1c81714610786578063b88d4fde1461079b57610242565b80638c736503146106af5780638da5cb5b146106c45780638f32d59b146106d95780639ffb3862146106ee57610242565b80633aac3467116101ce5780636352211e116101925780636352211e146105e35780636e1ba2831461060d57806370a0823114610637578063715018a61461066a578063869f94691461067f57610242565b80633aac3467146104d9578063402b783d1461050557806340c10f191461052c57806342842e0e14610565578063485cc955146105a857610242565b806322a147e61161021557806322a147e61461034f57806322e5724c1461036457806323b872dd14610379578063282bfd38146103bc5780632b8af661146103ef57610242565b806301ffc9a714610247578063081812fc146102a4578063095ea7b3146102ea5780630bcfd60914610325575b600080fd5b34801561025357600080fd5b506102906004803603602081101561026a57600080fd5b50357bffffffffffffffffffffffffffffffffffffffffffffffffffffffff19166109d1565b604080519115158252519081900360200190f35b3480156102b057600080fd5b506102ce600480360360208110156102c757600080fd5b5035610a09565b60408051600160a060020a039092168252519081900360200190f35b3480156102f657600080fd5b506103236004803603604081101561030d57600080fd5b50600160a060020a038135169060200135610a6e565b005b34801561033157600080fd5b506103236004803603602081101561034857600080fd5b5035610b85565b34801561035b57600080fd5b50610290610b9c565b34801561037057600080fd5b50610290610bf0565b34801561038557600080fd5b506103236004803603606081101561039c57600080fd5b50600160a060020a03813581169160208101359091169060400135610c43565b3480156103c857600080fd5b50610290600480360360208110156103df57600080fd5b5035600160a060020a0316610c9b565b3480156103fb57600080fd5b50610290600480360360c081101561041257600080fd5b600160a060020a03823516916020810135916040820135916bffffffffffffffffffffffff19606082013516916080820135919081019060c0810160a082013564010000000081111561046457600080fd5b82018360208201111561047657600080fd5b8035906020019184600183028401116401000000008311171561049857600080fd5b91908080601f016020809104026020016040519081016040528093929190818152602001838380828437600092019190915250929550610cfa945050505050565b3480156104e557600080fd5b50610290600480360360208110156104fc57600080fd5b50351515610e03565b34801561051157600080fd5b5061051a610e5d565b60408051918252519081900360200190f35b34801561053857600080fd5b506103236004803603604081101561054f57600080fd5b50600160a060020a038135169060200135610e63565b34801561057157600080fd5b506103236004803603606081101561058857600080fd5b50600160a060020a03813581169160208101359091169060400135610ebd565b3480156105b457600080fd5b50610323600480360360408110156105cb57600080fd5b50600160a060020a0381358116916020013516610ed8565b3480156105ef57600080fd5b506102ce6004803603602081101561060657600080fd5b503561100a565b34801561061957600080fd5b506102906004803603602081101561063057600080fd5b5035611067565b34801561064357600080fd5b5061051a6004803603602081101561065a57600080fd5b5035600160a060020a03166110bd565b34801561067657600080fd5b50610323611128565b34801561068b57600080fd5b50610290600480360360408110156106a257600080fd5b50803590602001356111ce565b3480156106bb57600080fd5b50610290611230565b3480156106d057600080fd5b506102ce611283565b3480156106e557600080fd5b50610290611292565b3480156106fa57600080fd5b506102906004803603602081101561071157600080fd5b5035600160a060020a03166112a3565b34801561072d57600080fd5b506103236004803603604081101561074457600080fd5b50600160a060020a03813516906020013515156112a9565b34801561076857600080fd5b50610290611378565b34801561077d57600080fd5b506102ce6113cb565b34801561079257600080fd5b5061051a6113da565b3480156107a757600080fd5b50610323600480360360808110156107be57600080fd5b600160a060020a038235811692602081013590911691604082013591908101906080810160608201356401000000008111156107f957600080fd5b82018360208201111561080b57600080fd5b8035906020019184600183028401116401000000008311171561082d57600080fd5b91908080601f0160208091040260200160405190810160405280939291908181526020018383808284376000920191909152509295506113e0945050505050565b34801561087a57600080fd5b5061029061143b565b34801561088f57600080fd5b506102ce61148e565b3480156108a457600080fd5b5061051a61149d565b6102ce600480360360408110156108c357600080fd5b50803590602001356114a3565b3480156108dc57600080fd5b5061029061160a565b3480156108f157600080fd5b506102906004803603604081101561090857600080fd5b50600160a060020a038135811691602001351661165d565b34801561092c57600080fd5b506103236004803603602081101561094357600080fd5b5035600160a060020a031661168b565b34801561095f57600080fd5b506102ce6116f0565b34801561097457600080fd5b506102906004803603602081101561098b57600080fd5b5035600160a060020a03166116ff565b3480156109a757600080fd5b50610290600480360360608110156109be57600080fd5b5080359060208101359060400135611713565b7bffffffffffffffffffffffffffffffffffffffffffffffffffffffff19811660009081526001602052604090205460ff165b919050565b6000610a1482611778565b610a525760405160e560020a62461bcd02815260040180806020018281038252602c815260200180611ed3602c913960400191505060405180910390fd5b50600090815260036020526040902054600160a060020a031690565b6000610a798261100a565b905080600160a060020a031683600160a060020a03161415610acf5760405160e560020a62461bcd028152600401808060200182810382526021815260200180611f286021913960400191505060405180910390fd5b33600160a060020a0382161480610aeb5750610aeb813361165d565b610b295760405160e560020a62461bcd028152600401808060200182810382526038815260200180611e486038913960400191505060405180910390fd5b6000828152600360205260408082208054600160a060020a031916600160a060020a0387811691821790925591518593918516917f8c5be1e5ebec7d5bd14f71427d1e84f3dd0314c0f7b2291e5b200ac8c7c3b92591a4505050565b8060075414610b9957600780546008558190555b50565b6000610ba7336112a3565b610bb357506000610bed565b60408051428152905133917f6e7b45210b79c12cd1332babd8d86c0bbb9ca898a89ce0404f17064dbfba18c0919081900360200190a25060015b90565b6000610bfb336112a3565b610c0757506000610bed565b60408051428152905133917f07f0eaafadb9abb1d28da85d4b4c74f1939fd61b535c7f5ab501f618f07e76ee919081900360200190a250600190565b610c4d3382611795565b610c8b5760405160e560020a62461bcd028152600401808060200182810382526031815260200180611f496031913960400191505060405180910390fd5b610c9683838361183c565b505050565b6000610ca6336112a3565b610cb257506000610a04565b604080514281529051600160a060020a0384169133917f822b3073be62c5c7f143c2dcd71ee266434ee935d90a1eec3be34710ac8ec1a29181900360200190a3506001919050565b6000610d05336112a3565b610d1157506000610df9565b8587600160a060020a031633600160a060020a03167fc878d7c38ac02179fd80904f0f6c8126ea8659612f4cbb389af37ddf671eb7618888888860405180858152602001846bffffffffffffffffffffffff19166bffffffffffffffffffffffff1916815260200183815260200180602001828103825283818151815260200191508051906020019080838360005b83811015610db8578181015183820152602001610da0565b50505050905090810190601f168015610de55780820380516001836020036101000a031916815260200191505b509550505050505060405180910390a45060015b9695505050505050565b6000610e0e336112a3565b610e1a57506000610a04565b604080518315158152426020820152815133927fbef11c059eefba82a15aea8a3a89c86fd08d7711c88fa7daea2632a55488510c928290030190a2506001919050565b60085490565b600654600160a060020a03163314610eaf5760405160e560020a62461bcd028152600401808060200182810382526026815260200180611f7a6026913960400191505060405180910390fd5b610eb98282611986565b5050565b610c96838383604051806020016040528060008152506113e0565b610ee0611292565b610f34576040805160e560020a62461bcd02815260206004820181905260248201527f4f776e61626c653a2063616c6c6572206973206e6f7420746865206f776e6572604482015290519081900360640190fd5b60065474010000000000000000000000000000000000000000900460ff1615610fa7576040805160e560020a62461bcd02815260206004820152601360248201527f616c726561647920696e697469616c697a656400000000000000000000000000604482015290519081900360640190fd5b600a8054600160a060020a03938416600160a060020a031991821617909155600b80549290931691161790556006805474ff0000000000000000000000000000000000000000191674010000000000000000000000000000000000000000179055565b600081815260026020526040812054600160a060020a0316806110615760405160e560020a62461bcd028152600401808060200182810382526029815260200180611eaa6029913960400191505060405180910390fd5b92915050565b6000611072336112a3565b61107e57506000610a04565b604080514281529051839133917f44b7f176bcc739b54bd0800fe491cbdea19df7d4d6b19c281462e6b4fc5043449181900360200190a3506001919050565b6000600160a060020a0382166111075760405160e560020a62461bcd02815260040180806020018281038252602a815260200180611e80602a913960400191505060405180910390fd5b600160a060020a038216600090815260046020526040902061106190611abd565b611130611292565b611184576040805160e560020a62461bcd02815260206004820181905260248201527f4f776e61626c653a2063616c6c6572206973206e6f7420746865206f776e6572604482015290519081900360640190fd5b60008054604051600160a060020a03909116907f8be0079c531659141344cd1fd0a4f28419497f9722a3daafe3b4186f6b6457e0908390a360008054600160a060020a0319169055565b60006111d9336112a3565b6111e557506000611061565b60408051848152602081018490524281830152905133917f8ee737ab16909c4e9d1b750814a4393c9f84ab5d3a29c08c313b783fc846ae33919081900360600190a250600192915050565b600061123b336112a3565b61124757506000610bed565b60408051428152905133917f5af8184bef8e4b45eb9f6ed7734d04da38ced226495548f46e0c8ff8d7d9a524919081900360200190a250600190565b600054600160a060020a031690565b600054600160a060020a0316331490565b50600190565b600160a060020a03821633141561130a576040805160e560020a62461bcd02815260206004820152601960248201527f4552433732313a20617070726f766520746f2063616c6c657200000000000000604482015290519081900360640190fd5b336000818152600560209081526040808320600160a060020a03871680855290835292819020805460ff1916861515908117909155815190815290519293927f17307eab39ab6107e8899845ad3d59bd9653f200f220920489ca2b5937696c31929181900390910190a35050565b6000611383336112a3565b61138f57506000610bed565b60408051428152905133917f8fd2cfb62a35fccc1ecef829f83a6c2f840b73dad49d3eaaa402909752086d4b919081900360200190a250600190565b600b54600160a060020a031690565b60095490565b6113eb848484610c43565b6113f784848484611ac1565b6114355760405160e560020a62461bcd028152600401808060200182810382526032815260200180611da06032913960400191505060405180910390fd5b50505050565b6000611446336112a3565b61145257506000610bed565b60408051428152905133917fa5ee7a2b0254fce91deed604506790ed7fa072d0b14cba4859c3bc8955b9caac919081900360200190a250600190565b600a54600160a060020a031681565b60075490565b600a54604080517fb2bd5b6d000000000000000000000000000000000000000000000000000000008152602060048201819052600960248301527f45434453414b6565700000000000000000000000000000000000000000000000604483015291516000938493600160a060020a039091169263b2bd5b6d9260648083019392829003018186803b15801561153757600080fd5b505afa15801561154b573d6000803e3d6000fd5b505050506040513d602081101561156157600080fd5b5051604080517fd485782700000000000000000000000000000000000000000000000000000000815260048101869052602481018790523360448201529051919250600160a060020a0383169163d4857827916064808201926020929091908290030181600087803b1580156115d657600080fd5b505af11580156115ea573d6000803e3d6000fd5b505050506040513d602081101561160057600080fd5b5051949350505050565b6000611615336112a3565b61162157506000610bed565b60408051428152905133917f1e61af503f1d7de21d5300094c18bf8700f82b2951a4d54dd2adda13f6b3da30919081900360200190a250600190565b600160a060020a03918216600090815260056020908152604080832093909416825291909152205460ff1690565b611693611292565b6116e7576040805160e560020a62461bcd02815260206004820181905260248201527f4f776e61626c653a2063616c6c6572206973206e6f7420746865206f776e6572604482015290519081900360640190fd5b610b9981611c3b565b600b54600160a060020a031681565b600061106182600160a060020a0316611778565b600061171e336112a3565b61172a57506000611771565b604080518481526020810184905242818301529051859133917f7f7d7327762d01d2c4a552ea0be2bc5a76264574a80aa78083e691a840e509f29181900360600190a35060015b9392505050565b600090815260026020526040902054600160a060020a0316151590565b60006117a082611778565b6117de5760405160e560020a62461bcd02815260040180806020018281038252602c815260200180611e1c602c913960400191505060405180910390fd5b60006117e98361100a565b905080600160a060020a031684600160a060020a03161480611824575083600160a060020a031661181984610a09565b600160a060020a0316145b806118345750611834818561165d565b949350505050565b82600160a060020a031661184f8261100a565b600160a060020a0316146118975760405160e560020a62461bcd028152600401808060200182810382526029815260200180611eff6029913960400191505060405180910390fd5b600160a060020a0382166118df5760405160e560020a62461bcd028152600401808060200182810382526024815260200180611df86024913960400191505060405180910390fd5b6118e881611cde565b600160a060020a038316600090815260046020526040902061190990611d19565b600160a060020a038216600090815260046020526040902061192a90611d30565b6000818152600260205260408082208054600160a060020a031916600160a060020a0386811691821790925591518493918716917fddf252ad1be2c89b69c2b068fc378daa952ba7f163c4a11628f55a4df523b3ef91a4505050565b600160a060020a0382166119e4576040805160e560020a62461bcd02815260206004820181905260248201527f4552433732313a206d696e7420746f20746865207a65726f2061646472657373604482015290519081900360640190fd5b6119ed81611778565b15611a42576040805160e560020a62461bcd02815260206004820152601c60248201527f4552433732313a20746f6b656e20616c7265616479206d696e74656400000000604482015290519081900360640190fd5b60008181526002602090815260408083208054600160a060020a031916600160a060020a038716908117909155835260049091529020611a8190611d30565b6040518190600160a060020a038416906000907fddf252ad1be2c89b69c2b068fc378daa952ba7f163c4a11628f55a4df523b3ef908290a45050565b5490565b6000611ad584600160a060020a0316611d39565b611ae157506001611834565b6040517f150b7a020000000000000000000000000000000000000000000000000000000081523360048201818152600160a060020a03888116602485015260448401879052608060648501908152865160848601528651600095928a169463150b7a029490938c938b938b939260a4019060208501908083838e5b83811015611b74578181015183820152602001611b5c565b50505050905090810190601f168015611ba15780820380516001836020036101000a031916815260200191505b5095505050505050602060405180830381600087803b158015611bc357600080fd5b505af1158015611bd7573d6000803e3d6000fd5b505050506040513d6020811015611bed57600080fd5b50517bffffffffffffffffffffffffffffffffffffffffffffffffffffffff19167f150b7a020000000000000000000000000000000000000000000000000000000014915050949350505050565b600160a060020a038116611c835760405160e560020a62461bcd028152600401808060200182810382526026815260200180611dd26026913960400191505060405180910390fd5b60008054604051600160a060020a03808516939216917f8be0079c531659141344cd1fd0a4f28419497f9722a3daafe3b4186f6b6457e091a360008054600160a060020a031916600160a060020a0392909216919091179055565b600081815260036020526040902054600160a060020a031615610b995760009081526003602052604090208054600160a060020a0319169055565b8054611d2c90600163ffffffff611d3f16565b9055565b80546001019055565b3b151590565b600082821115611d99576040805160e560020a62461bcd02815260206004820152601e60248201527f536166654d6174683a207375627472616374696f6e206f766572666c6f770000604482015290519081900360640190fd5b5090039056fe4552433732313a207472616e7366657220746f206e6f6e20455243373231526563656976657220696d706c656d656e7465724f776e61626c653a206e6577206f776e657220697320746865207a65726f20616464726573734552433732313a207472616e7366657220746f20746865207a65726f20616464726573734552433732313a206f70657261746f7220717565727920666f72206e6f6e6578697374656e7420746f6b656e4552433732313a20617070726f76652063616c6c6572206973206e6f74206f776e6572206e6f7220617070726f76656420666f7220616c6c4552433732313a2062616c616e636520717565727920666f7220746865207a65726f20616464726573734552433732313a206f776e657220717565727920666f72206e6f6e6578697374656e7420746f6b656e4552433732313a20617070726f76656420717565727920666f72206e6f6e6578697374656e7420746f6b656e4552433732313a207472616e73666572206f6620746f6b656e2074686174206973206e6f74206f776e4552433732313a20617070726f76616c20746f2063757272656e74206f776e65724552433732313a207472616e736665722063616c6c6572206973206e6f74206f776e6572206e6f7220617070726f76656443616c6c6572206d757374206265206465706f736974466163746f727920636f6e7472616374a265627a7a7230582027650df41b020af352fc51cda14230645f4cb28a866d96d40be6d8d90f3fc2a264736f6c634300050a0032",
  "source": "/* solium-disable function-order */\npragma solidity ^0.5.10;\n\nimport {IKeepRegistry} from \"@keep-network/keep-ecdsa/contracts/api/IKeepRegistry.sol\";\nimport {IECDSAKeepVendor} from \"@keep-network/keep-ecdsa/contracts/api/IECDSAKeepVendor.sol\";\n\nimport {ITBTCSystem} from \"../interfaces/ITBTCSystem.sol\";\nimport {DepositLog} from \"../DepositLog.sol\";\n\nimport \"openzeppelin-solidity/contracts/token/ERC721/ERC721.sol\";\nimport \"openzeppelin-solidity/contracts/ownership/Ownable.sol\";\nimport \"./ERC721MinterAuthority.sol\";\n\ncontract TBTCSystem is Ownable, ITBTCSystem, ERC721, ERC721MinterAuthority, DepositLog {\n\n    bool _initialized = false;\n\n    uint256 currentDifficulty = 1;\n    uint256 previousDifficulty = 1;\n    uint256 oraclePrice = 10 ** 12;\n\n    address public keepRegistry;\n    address public tbtcUniswapExchange;\n\n    constructor(address _depositFactory)\n        ERC721MinterAuthority(_depositFactory)\n        public\n    {\n            // solium-disable-previous-line no-empty-blocks\n    }\n\n    function initialize(\n        address _keepRegistry,\n        address _tbtcUniswapExchange\n    ) external onlyOwner {\n        require(!_initialized, \"already initialized\");\n\n        keepRegistry = _keepRegistry;\n        tbtcUniswapExchange = _tbtcUniswapExchange;\n\n        _initialized = true;\n    }\n\n    function getTBTCUniswapExchange() external view returns (address) {\n        return tbtcUniswapExchange;\n    }\n\n    // Price Oracle\n    function fetchOraclePrice() external view returns (uint256) {\n        return oraclePrice;\n    }\n\n    // Difficulty Oracle\n    // TODO: This is a workaround. It will be replaced by tbtc-difficulty-oracle.\n    function fetchRelayCurrentDifficulty() external view returns (uint256) {\n        return currentDifficulty;\n    }\n\n    function fetchRelayPreviousDifficulty() external view returns (uint256) {\n        return previousDifficulty;\n    }\n\n    function submitCurrentDifficulty(uint256 _currentDifficulty) public {\n        if (currentDifficulty != _currentDifficulty) {\n            previousDifficulty = currentDifficulty;\n            currentDifficulty = _currentDifficulty;\n        }\n    }\n\n    /// @notice Request a new keep opening.\n    /// @param _m Minimum number of honest keep members required to sign.\n    /// @param _n Number of members in the keep.\n    /// @return Address of a new keep.\n    function requestNewKeep(uint256 _m, uint256 _n)\n        external\n        payable\n        returns (address _keepAddress)\n    {\n        address keepVendorAddress = IKeepRegistry(keepRegistry)\n            .getVendor(\"ECDSAKeep\");\n\n        _keepAddress = IECDSAKeepVendor(keepVendorAddress)\n            .openKeep(_n,_m, msg.sender);\n    }\n\n    /// @notice          Function to mint a new token.\n    /// @dev             Reverts if the given token ID already exists.\n    ///                  This function can only be called by depositFactory\n    /// @param _to       The address that will own the minted token\n    /// @param _tokenId  uint256 ID of the token to be minted\n    function mint(address _to, uint256 _tokenId) public onlyFactory {\n        _mint(_to, _tokenId);\n    }\n\n    /// @notice  Checks if an address is a deposit.\n    /// @dev     Verifies if Deposit ERC721 token with given address exists.\n    /// @param _depositAddress  The address to check\n    /// @return  True if deposit with given value exists, false otherwise.\n    function isDeposit(address _depositAddress) public returns (bool){\n        return _exists(uint256(_depositAddress));\n    }\n}\n",
  "sourcePath": "/tmp/3995681ba770dba41685eca88864e21ee89e83ad/implementation/contracts/system/TBTCSystem.sol",
  "compiler": {
    "name": "solc",
    "version": "0.5.10+commit.5a6ea5b1.Emscripten.clang"
  },
  "schemaVersion": "3.0.2",
  "updatedAt": "2019-11-19T03:13:06.206Z",
  "devdoc": {
    "methods": {
      "approve(address,uint256)": {
        "details": "Approves another address to transfer the given token ID The zero address indicates there is no approved address. There can only be one approved address per token at a given time. Can only be called by the token owner or an approved operator.",
        "params": {
          "to": "address to be approved for the given token ID",
          "tokenId": "uint256 ID of the token to be approved"
        }
      },
      "approvedToLog(address)": {
        "details": "Calls the system to check if the caller is a Deposit                     We don't require this, so deposits are not bricked if the system borks",
        "params": {
          "_caller": "The address of the calling contract"
        },
        "return": "True if approved, otherwise false"
      },
      "balanceOf(address)": {
        "details": "Gets the balance of the specified address.",
        "params": {
          "owner": "address to query the balance of"
        },
        "return": "uint256 representing the amount owned by the passed address"
      },
      "getApproved(uint256)": {
        "details": "Gets the approved address for a token ID, or zero if no address set Reverts if the token ID does not exist.",
        "params": {
          "tokenId": "uint256 ID of the token to query the approval of"
        },
        "return": "address currently approved for the given token ID"
      },
      "isApprovedForAll(address,address)": {
        "details": "Tells whether an operator is approved by a given owner.",
        "params": {
          "operator": "operator address which you want to query the approval of",
          "owner": "owner address which you want to query the approval of"
        },
        "return": "bool whether the given operator is approved by the given owner"
      },
      "isDeposit(address)": {
        "details": "Verifies if Deposit ERC721 token with given address exists.",
        "params": {
          "_depositAddress": "The address to check"
        },
        "return": "True if deposit with given value exists, false otherwise."
      },
      "isOwner()": {
        "details": "Returns true if the caller is the current owner."
      },
      "logCourtesyCalled()": {
        "details": "We append the sender, which is the deposit contract that called             returns false if not approved, to prevent accidentally halting Deposit",
        "return": "True if successful, else false"
      },
      "logCreated(address)": {
        "details": "We append the sender, which is the deposit contract that called",
        "params": {
          "_keepAddress": "The address of the associated keep"
        },
        "return": "True if successful, else revert"
      },
      "logExitedCourtesyCall()": {
        "details": "We append the sender, which is the deposit contract that called             returns false if not approved, to prevent accidentally halting Deposit",
        "return": "True if successful, else false"
      },
      "logFraudDuringSetup()": {
        "details": "We append the sender, which is the deposit contract that called             returns false if not approved, to prevent accidentally halting Deposit",
        "return": "True if successful, else false"
      },
      "logFunded()": {
        "details": "We append the sender, which is the deposit contract that called             returns false if not approved, to prevent accidentally halting Deposit",
        "return": "True if successful, else false"
      },
      "logGotRedemptionSignature(bytes32,bytes32,bytes32)": {
        "details": "We append the sender, which is the deposit contract that called",
        "params": {
          "_digest": "signed digest",
          "_r": "signature r value",
          "_s": "signature s value"
        },
        "return": "True if successful, else revert"
      },
      "logLiquidated()": {
        "details": "We append the sender, which is the deposit contract that called             returns false if not approved, to prevent accidentally halting Deposit",
        "return": "True if successful, else false"
      },
      "logRedeemed(bytes32)": {
        "details": "We append the sender, which is the deposit contract that called             returns false if not approved, to prevent accidentally halting Deposit",
        "return": "True if successful, else false"
      },
      "logRedemptionRequested(address,bytes32,uint256,bytes20,uint256,bytes)": {
        "details": "This is the only event without an explicit timestamp",
        "params": {
          "_digest": "The calculated sighash digest",
          "_outpoint": "The 36 byte outpoint",
          "_requestedFee": "The requester or bump-system specified fee",
          "_requester": "The ethereum address of the requester",
          "_requesterPKH": "The requester's 20-byte bitcoin pkh",
          "_utxoSize": "The size of the utxo in sat"
        },
        "return": "True if successful, else revert"
      },
      "logRegisteredPubkey(bytes32,bytes32)": {
        "details": "We append the sender, which is the deposit contract that called             returns false if not approved, to prevent accidentally halting Deposit",
        "return": "True if successful, else false"
      },
      "logSetupFailed()": {
        "details": "We append the sender, which is the deposit contract that called             returns false if not approved, to prevent accidentally halting Deposit",
        "return": "True if successful, else false"
      },
      "logStartedLiquidation(bool)": {
        "details": "We append the sender, which is the deposit contract that called",
        "params": {
          "_wasFraud": "True if liquidating for fraud"
        },
        "return": "True if successful, else revert"
      },
      "mint(address,uint256)": {
        "details": "Reverts if the given token ID already exists.                  This function can only be called by depositFactory",
        "params": {
          "_to": "The address that will own the minted token",
          "_tokenId": "uint256 ID of the token to be minted"
        }
      },
      "owner()": {
        "details": "Returns the address of the current owner."
      },
      "ownerOf(uint256)": {
        "details": "Gets the owner of the specified token ID.",
        "params": {
          "tokenId": "uint256 ID of the token to query the owner of"
        },
        "return": "address currently marked as the owner of the given token ID"
      },
      "renounceOwnership()": {
        "details": "Leaves the contract without owner. It will not be possible to call `onlyOwner` functions anymore. Can only be called by the current owner.     * > Note: Renouncing ownership will leave the contract without an owner, thereby removing any functionality that is only available to the owner."
      },
      "requestNewKeep(uint256,uint256)": {
        "params": {
          "_m": "Minimum number of honest keep members required to sign.",
          "_n": "Number of members in the keep."
        },
        "return": "Address of a new keep."
      },
      "safeTransferFrom(address,address,uint256)": {
        "details": "Safely transfers the ownership of a given token ID to another address If the target address is a contract, it must implement `onERC721Received`, which is called upon a safe transfer, and return the magic value `bytes4(keccak256(\"onERC721Received(address,address,uint256,bytes)\"))`; otherwise, the transfer is reverted. Requires the msg.sender to be the owner, approved, or operator",
        "params": {
          "from": "current owner of the token",
          "to": "address to receive the ownership of the given token ID",
          "tokenId": "uint256 ID of the token to be transferred"
        }
      },
      "safeTransferFrom(address,address,uint256,bytes)": {
        "details": "Safely transfers the ownership of a given token ID to another address If the target address is a contract, it must implement `onERC721Received`, which is called upon a safe transfer, and return the magic value `bytes4(keccak256(\"onERC721Received(address,address,uint256,bytes)\"))`; otherwise, the transfer is reverted. Requires the msg.sender to be the owner, approved, or operator",
        "params": {
          "_data": "bytes data to send along with a safe transfer check",
          "from": "current owner of the token",
          "to": "address to receive the ownership of the given token ID",
          "tokenId": "uint256 ID of the token to be transferred"
        }
      },
      "setApprovalForAll(address,bool)": {
        "details": "Sets or unsets the approval of a given operator An operator is allowed to transfer all tokens of the sender on their behalf.",
        "params": {
          "approved": "representing the status of the approval to be set",
          "to": "operator address to set the approval"
        }
      },
      "supportsInterface(bytes4)": {
        "details": "See `IERC165.supportsInterface`.     * Time complexity O(1), guaranteed to always use less than 30 000 gas."
      },
      "transferFrom(address,address,uint256)": {
        "details": "Transfers the ownership of a given token ID to another address. Usage of this method is discouraged, use `safeTransferFrom` whenever possible. Requires the msg.sender to be the owner, approved, or operator.",
        "params": {
          "from": "current owner of the token",
          "to": "address to receive the ownership of the given token ID",
          "tokenId": "uint256 ID of the token to be transferred"
        }
      },
      "transferOwnership(address)": {
        "details": "Transfers ownership of the contract to a new account (`newOwner`). Can only be called by the current owner."
      }
    }
  },
  "userdoc": {
    "methods": {
      "approvedToLog(address)": {
        "notice": " AUTH  Checks if an address is an allowed logger"
      },
      "isDeposit(address)": {
        "notice": "Checks if an address is a deposit."
      },
      "logCourtesyCalled()": {
        "notice": "Fires a CourtesyCalled event"
      },
      "logCreated(address)": {
        "notice": " Logging  Fires a Created event"
      },
      "logExitedCourtesyCall()": {
        "notice": "Fires a ExitedCourtesyCall event"
      },
      "logFraudDuringSetup()": {
        "notice": "Fires a FraudDuringSetup event"
      },
      "logFunded()": {
        "notice": "Fires a Funded event"
      },
      "logGotRedemptionSignature(bytes32,bytes32,bytes32)": {
        "notice": "Fires a GotRedemptionSignature event"
      },
      "logLiquidated()": {
        "notice": "Fires a Liquidated event"
      },
      "logRedeemed(bytes32)": {
        "notice": "Fires a Redeemed event"
      },
      "logRedemptionRequested(address,bytes32,uint256,bytes20,uint256,bytes)": {
        "notice": "Fires a RedemptionRequested event"
      },
      "logRegisteredPubkey(bytes32,bytes32)": {
        "notice": "Fires a RegisteredPubkey event"
      },
      "logSetupFailed()": {
        "notice": "Fires a SetupFailed event"
      },
      "logStartedLiquidation(bool)": {
        "notice": "Fires a StartedLiquidation event"
      },
      "mint(address,uint256)": {
        "notice": "Function to mint a new token."
      },
      "requestNewKeep(uint256,uint256)": {
        "notice": "Request a new keep opening."
      }
    }
  }
}