{
  "contractName": "TBTCSystem",
  "abi": [
    {
      "constant": false,
      "inputs": [],
      "name": "logCourtesyCalled",
      "outputs": [
        {
          "name": "",
          "type": "bool"
        }
      ],
      "payable": false,
      "stateMutability": "nonpayable",
      "type": "function"
    },
    {
      "constant": false,
      "inputs": [],
      "name": "logExitedCourtesyCall",
      "outputs": [
        {
          "name": "",
          "type": "bool"
        }
      ],
      "payable": false,
      "stateMutability": "nonpayable",
      "type": "function"
    },
    {
      "constant": false,
      "inputs": [
        {
          "name": "_keepAddress",
          "type": "address"
        }
      ],
      "name": "logCreated",
      "outputs": [
        {
          "name": "",
          "type": "bool"
        }
      ],
      "payable": false,
      "stateMutability": "nonpayable",
      "type": "function"
    },
    {
      "constant": false,
      "inputs": [
        {
          "name": "_requester",
          "type": "address"
        },
        {
          "name": "_digest",
          "type": "bytes32"
        },
        {
          "name": "_utxoSize",
          "type": "uint256"
        },
        {
          "name": "_requesterPKH",
          "type": "bytes20"
        },
        {
          "name": "_requestedFee",
          "type": "uint256"
        },
        {
          "name": "_outpoint",
          "type": "bytes"
        }
      ],
      "name": "logRedemptionRequested",
      "outputs": [
        {
          "name": "",
          "type": "bool"
        }
      ],
      "payable": false,
      "stateMutability": "nonpayable",
      "type": "function"
    },
    {
      "constant": false,
      "inputs": [
        {
          "name": "_wasFraud",
          "type": "bool"
        }
      ],
      "name": "logStartedLiquidation",
      "outputs": [
        {
          "name": "",
          "type": "bool"
        }
      ],
      "payable": false,
      "stateMutability": "nonpayable",
      "type": "function"
    },
    {
      "constant": false,
      "inputs": [
        {
          "name": "_txid",
          "type": "bytes32"
        }
      ],
      "name": "logRedeemed",
      "outputs": [
        {
          "name": "",
          "type": "bool"
        }
      ],
      "payable": false,
      "stateMutability": "nonpayable",
      "type": "function"
    },
    {
      "constant": false,
      "inputs": [],
      "name": "renounceOwnership",
      "outputs": [],
      "payable": false,
      "stateMutability": "nonpayable",
      "type": "function"
    },
    {
      "constant": true,
      "inputs": [],
      "name": "priceFeed",
      "outputs": [
        {
          "name": "",
          "type": "address"
        }
      ],
      "payable": false,
      "stateMutability": "view",
      "type": "function"
    },
    {
      "constant": false,
      "inputs": [
        {
          "name": "_signingGroupPubkeyX",
          "type": "bytes32"
        },
        {
          "name": "_signingGroupPubkeyY",
          "type": "bytes32"
        }
      ],
      "name": "logRegisteredPubkey",
      "outputs": [
        {
          "name": "",
          "type": "bool"
        }
      ],
      "payable": false,
      "stateMutability": "nonpayable",
      "type": "function"
    },
    {
      "constant": false,
      "inputs": [],
      "name": "logFunded",
      "outputs": [
        {
          "name": "",
          "type": "bool"
        }
      ],
      "payable": false,
      "stateMutability": "nonpayable",
      "type": "function"
    },
    {
      "constant": true,
      "inputs": [],
      "name": "owner",
      "outputs": [
        {
          "name": "",
          "type": "address"
        }
      ],
      "payable": false,
      "stateMutability": "view",
      "type": "function"
    },
    {
      "constant": true,
      "inputs": [],
      "name": "isOwner",
      "outputs": [
        {
          "name": "",
          "type": "bool"
        }
      ],
      "payable": false,
      "stateMutability": "view",
      "type": "function"
    },
    {
      "constant": true,
      "inputs": [
        {
          "name": "_caller",
          "type": "address"
        }
      ],
      "name": "approvedToLog",
      "outputs": [
        {
          "name": "",
          "type": "bool"
        }
      ],
      "payable": false,
      "stateMutability": "view",
      "type": "function"
    },
    {
      "constant": false,
      "inputs": [],
      "name": "logSetupFailed",
      "outputs": [
        {
          "name": "",
          "type": "bool"
        }
      ],
      "payable": false,
      "stateMutability": "nonpayable",
      "type": "function"
    },
    {
      "constant": false,
      "inputs": [],
      "name": "logLiquidated",
      "outputs": [
        {
          "name": "",
          "type": "bool"
        }
      ],
      "payable": false,
      "stateMutability": "nonpayable",
      "type": "function"
    },
    {
      "constant": true,
      "inputs": [],
      "name": "keepRegistry",
      "outputs": [
        {
          "name": "",
          "type": "address"
        }
      ],
      "payable": false,
      "stateMutability": "view",
      "type": "function"
    },
    {
      "constant": false,
      "inputs": [],
      "name": "logFraudDuringSetup",
      "outputs": [
        {
          "name": "",
          "type": "bool"
        }
      ],
      "payable": false,
      "stateMutability": "nonpayable",
      "type": "function"
    },
    {
      "constant": false,
      "inputs": [
        {
          "name": "newOwner",
          "type": "address"
        }
      ],
      "name": "transferOwnership",
      "outputs": [],
      "payable": false,
      "stateMutability": "nonpayable",
      "type": "function"
    },
    {
      "constant": false,
      "inputs": [
        {
          "name": "_digest",
          "type": "bytes32"
        },
        {
          "name": "_r",
          "type": "bytes32"
        },
        {
          "name": "_s",
          "type": "bytes32"
        }
      ],
      "name": "logGotRedemptionSignature",
      "outputs": [
        {
          "name": "",
          "type": "bool"
        }
      ],
      "payable": false,
      "stateMutability": "nonpayable",
      "type": "function"
    },
    {
      "inputs": [
        {
          "name": "_priceFeed",
          "type": "address"
        }
      ],
      "payable": false,
      "stateMutability": "nonpayable",
      "type": "constructor"
    },
    {
      "anonymous": false,
      "inputs": [
        {
          "indexed": true,
          "name": "_depositContractAddress",
          "type": "address"
        },
        {
          "indexed": true,
          "name": "_keepAddress",
          "type": "address"
        },
        {
          "indexed": false,
          "name": "_timestamp",
          "type": "uint256"
        }
      ],
      "name": "Created",
      "type": "event"
    },
    {
      "anonymous": false,
      "inputs": [
        {
          "indexed": true,
          "name": "_depositContractAddress",
          "type": "address"
        },
        {
          "indexed": true,
          "name": "_requester",
          "type": "address"
        },
        {
          "indexed": true,
          "name": "_digest",
          "type": "bytes32"
        },
        {
          "indexed": false,
          "name": "_utxoSize",
          "type": "uint256"
        },
        {
          "indexed": false,
          "name": "_requesterPKH",
          "type": "bytes20"
        },
        {
          "indexed": false,
          "name": "_requestedFee",
          "type": "uint256"
        },
        {
          "indexed": false,
          "name": "_outpoint",
          "type": "bytes"
        }
      ],
      "name": "RedemptionRequested",
      "type": "event"
    },
    {
      "anonymous": false,
      "inputs": [
        {
          "indexed": true,
          "name": "_depositContractAddress",
          "type": "address"
        },
        {
          "indexed": true,
          "name": "_digest",
          "type": "bytes32"
        },
        {
          "indexed": false,
          "name": "_r",
          "type": "bytes32"
        },
        {
          "indexed": false,
          "name": "_s",
          "type": "bytes32"
        },
        {
          "indexed": false,
          "name": "_timestamp",
          "type": "uint256"
        }
      ],
      "name": "GotRedemptionSignature",
      "type": "event"
    },
    {
      "anonymous": false,
      "inputs": [
        {
          "indexed": true,
          "name": "_depositContractAddress",
          "type": "address"
        },
        {
          "indexed": false,
          "name": "_signingGroupPubkeyX",
          "type": "bytes32"
        },
        {
          "indexed": false,
          "name": "_signingGroupPubkeyY",
          "type": "bytes32"
        },
        {
          "indexed": false,
          "name": "_timestamp",
          "type": "uint256"
        }
      ],
      "name": "RegisteredPubkey",
      "type": "event"
    },
    {
      "anonymous": false,
      "inputs": [
        {
          "indexed": true,
          "name": "_depositContractAddress",
          "type": "address"
        },
        {
          "indexed": false,
          "name": "_timestamp",
          "type": "uint256"
        }
      ],
      "name": "SetupFailed",
      "type": "event"
    },
    {
      "anonymous": false,
      "inputs": [
        {
          "indexed": true,
          "name": "_depositContractAddress",
          "type": "address"
        },
        {
          "indexed": false,
          "name": "_timestamp",
          "type": "uint256"
        }
      ],
      "name": "FraudDuringSetup",
      "type": "event"
    },
    {
      "anonymous": false,
      "inputs": [
        {
          "indexed": true,
          "name": "_depositContractAddress",
          "type": "address"
        },
        {
          "indexed": false,
          "name": "_timestamp",
          "type": "uint256"
        }
      ],
      "name": "Funded",
      "type": "event"
    },
    {
      "anonymous": false,
      "inputs": [
        {
          "indexed": true,
          "name": "_depositContractAddress",
          "type": "address"
        },
        {
          "indexed": false,
          "name": "_timestamp",
          "type": "uint256"
        }
      ],
      "name": "CourtesyCalled",
      "type": "event"
    },
    {
      "anonymous": false,
      "inputs": [
        {
          "indexed": true,
          "name": "_depositContractAddress",
          "type": "address"
        },
        {
          "indexed": false,
          "name": "_timestamp",
          "type": "uint256"
        }
      ],
      "name": "ExitedCourtesyCall",
      "type": "event"
    },
    {
      "anonymous": false,
      "inputs": [
        {
          "indexed": true,
          "name": "_depositContractAddress",
          "type": "address"
        },
        {
          "indexed": false,
          "name": "_wasFraud",
          "type": "bool"
        },
        {
          "indexed": false,
          "name": "_timestamp",
          "type": "uint256"
        }
      ],
      "name": "StartedLiquidation",
      "type": "event"
    },
    {
      "anonymous": false,
      "inputs": [
        {
          "indexed": true,
          "name": "_depositContractAddress",
          "type": "address"
        },
        {
          "indexed": true,
          "name": "_txid",
          "type": "bytes32"
        },
        {
          "indexed": false,
          "name": "_timestamp",
          "type": "uint256"
        }
      ],
      "name": "Redeemed",
      "type": "event"
    },
    {
      "anonymous": false,
      "inputs": [
        {
          "indexed": true,
          "name": "_depositContractAddress",
          "type": "address"
        },
        {
          "indexed": false,
          "name": "_timestamp",
          "type": "uint256"
        }
      ],
      "name": "Liquidated",
      "type": "event"
    },
    {
      "anonymous": false,
      "inputs": [
        {
          "indexed": true,
          "name": "previousOwner",
          "type": "address"
        },
        {
          "indexed": true,
          "name": "newOwner",
          "type": "address"
        }
      ],
      "name": "OwnershipTransferred",
      "type": "event"
    },
    {
      "constant": false,
      "inputs": [
        {
          "name": "_keepRegistry",
          "type": "address"
        }
      ],
      "name": "initialize",
      "outputs": [],
      "payable": false,
      "stateMutability": "nonpayable",
      "type": "function"
    },
    {
      "constant": false,
      "inputs": [
        {
          "name": "_allowNewDeposits",
          "type": "bool"
        }
      ],
      "name": "setAllowNewDeposits",
      "outputs": [],
      "payable": false,
      "stateMutability": "nonpayable",
      "type": "function"
    },
    {
      "constant": true,
      "inputs": [],
      "name": "getAllowNewDeposits",
      "outputs": [
        {
          "name": "",
          "type": "bool"
        }
      ],
      "payable": false,
      "stateMutability": "view",
      "type": "function"
    },
    {
      "constant": false,
      "inputs": [
        {
          "name": "_signerFeeDivisor",
          "type": "uint256"
        }
      ],
      "name": "setSignerFeeDivisor",
      "outputs": [],
      "payable": false,
      "stateMutability": "nonpayable",
      "type": "function"
    },
    {
      "constant": true,
      "inputs": [],
      "name": "getSignerFeeDivisor",
      "outputs": [
        {
          "name": "",
          "type": "uint256"
        }
      ],
      "payable": false,
      "stateMutability": "view",
      "type": "function"
    },
    {
      "constant": true,
      "inputs": [],
      "name": "fetchBitcoinPrice",
      "outputs": [
        {
          "name": "",
          "type": "uint256"
        }
      ],
      "payable": false,
      "stateMutability": "view",
      "type": "function"
    },
    {
      "constant": true,
      "inputs": [],
      "name": "fetchRelayCurrentDifficulty",
      "outputs": [
        {
          "name": "",
          "type": "uint256"
        }
      ],
      "payable": false,
      "stateMutability": "view",
      "type": "function"
    },
    {
      "constant": true,
      "inputs": [],
      "name": "fetchRelayPreviousDifficulty",
      "outputs": [
        {
          "name": "",
          "type": "uint256"
        }
      ],
      "payable": false,
      "stateMutability": "view",
      "type": "function"
    },
    {
      "constant": false,
      "inputs": [
        {
          "name": "_currentDifficulty",
          "type": "uint256"
        }
      ],
      "name": "submitCurrentDifficulty",
      "outputs": [],
      "payable": false,
      "stateMutability": "nonpayable",
      "type": "function"
    },
    {
      "constant": false,
      "inputs": [
        {
          "name": "_m",
          "type": "uint256"
        },
        {
          "name": "_n",
          "type": "uint256"
        }
      ],
      "name": "requestNewKeep",
      "outputs": [
        {
          "name": "_keepAddress",
          "type": "address"
        }
      ],
      "payable": true,
      "stateMutability": "payable",
      "type": "function"
    }
  ],
  "bytecode": "0x60806040526000805460ff60a01b199081169091556001808055600255600480549091167401000000000000000000000000000000000000000017905560c860055534801561004d57600080fd5b5060405161122d38038061122d8339818101604052602081101561007057600080fd5b5051600080546001600160a01b03191633178082556040516001600160a01b039190911691907f8be0079c531659141344cd1fd0a4f28419497f9722a3daafe3b4186f6b6457e0908290a3600480546001600160a01b0319166001600160a01b0392909216919091179055611143806100ea6000396000f3fe6080604052600436106101c25760003560e01c8063869f9469116100f7578063c4d66de811610095578063dafd59b211610064578063dafd59b2146105cf578063e2c50ad8146105f2578063f2fde38b14610607578063f760621e1461063a576101c2565b8063c4d66de81461055d578063c8fba24314610590578063d895738d146105a5578063dab70cb1146105ba576101c2565b80638f32d59b116100d15780638f32d59b146104eb5780639ffb386214610500578063a6c1691c14610533578063a831c81614610548576101c2565b8063869f9469146104915780638c736503146104c15780638da5cb5b146104d6576101c2565b8063402b783d116101645780636e1ba2831161013e5780636e1ba283146103f7578063715018a614610421578063741bef1a146104365780637c9ebf7514610467576101c2565b8063402b783d1461038f57806360e98d59146103b65780636d0207f4146103cb576101c2565b806322e5724c116101a057806322e5724c14610231578063282bfd38146102465780632b8af661146102795780633aac346714610363576101c2565b80630bcfd609146101c75780630d7eb1c4146101f357806322a147e61461021c575b600080fd5b3480156101d357600080fd5b506101f1600480360360208110156101ea57600080fd5b5035610670565b005b3480156101ff57600080fd5b50610208610687565b604080519115158252519081900360200190f35b34801561022857600080fd5b50610208610698565b34801561023d57600080fd5b506102086106eb565b34801561025257600080fd5b506102086004803603602081101561026957600080fd5b50356001600160a01b031661073e565b34801561028557600080fd5b50610208600480360360c081101561029c57600080fd5b6001600160a01b03823516916020810135916040820135916bffffffffffffffffffffffff19606082013516916080820135919081019060c0810160a08201356401000000008111156102ee57600080fd5b82018360208201111561030057600080fd5b8035906020019184600183028401116401000000008311171561032257600080fd5b91908080601f01602080910402602001604051908101604052809392919081815260200183838082843760009201919091525092955061079e945050505050565b34801561036f57600080fd5b506102086004803603602081101561038657600080fd5b503515156108a7565b34801561039b57600080fd5b506103a4610901565b60408051918252519081900360200190f35b3480156103c257600080fd5b506103a4610907565b3480156103d757600080fd5b506101f1600480360360208110156103ee57600080fd5b5035151561090d565b34801561040357600080fd5b506102086004803603602081101561041a57600080fd5b5035610972565b34801561042d57600080fd5b506101f16109c8565b34801561044257600080fd5b5061044b610a59565b604080516001600160a01b039092168252519081900360200190f35b34801561047357600080fd5b506101f16004803603602081101561048a57600080fd5b5035610a68565b34801561049d57600080fd5b50610208600480360360408110156104b457600080fd5b5080359060200135610af3565b3480156104cd57600080fd5b50610208610b56565b3480156104e257600080fd5b5061044b610ba9565b3480156104f757600080fd5b50610208610bb8565b34801561050c57600080fd5b506102086004803603602081101561052357600080fd5b50356001600160a01b0316610bc9565b34801561053f57600080fd5b506103a4610bcf565b34801561055457600080fd5b50610208610c50565b34801561056957600080fd5b506101f16004803603602081101561058057600080fd5b50356001600160a01b0316610ca3565b34801561059c57600080fd5b50610208610d75565b3480156105b157600080fd5b5061044b610dc8565b3480156105c657600080fd5b506103a4610dd7565b61044b600480360360408110156105e557600080fd5b5080359060200135610ddd565b3480156105fe57600080fd5b50610208610efe565b34801561061357600080fd5b506101f16004803603602081101561062a57600080fd5b50356001600160a01b0316610f51565b34801561064657600080fd5b506102086004803603606081101561065d57600080fd5b5080359060208101359060400135610fa1565b806001541461068457600180546002558190555b50565b600454600160a01b900460ff165b90565b60006106a333610bc9565b6106af57506000610695565b60408051428152905133917f6e7b45210b79c12cd1332babd8d86c0bbb9ca898a89ce0404f17064dbfba18c0919081900360200190a250600190565b60006106f633610bc9565b61070257506000610695565b60408051428152905133917f07f0eaafadb9abb1d28da85d4b4c74f1939fd61b535c7f5ab501f618f07e76ee919081900360200190a250600190565b600061074933610bc9565b61075557506000610799565b6040805142815290516001600160a01b0384169133917f822b3073be62c5c7f143c2dcd71ee266434ee935d90a1eec3be34710ac8ec1a29181900360200190a35060015b919050565b60006107a933610bc9565b6107b55750600061089d565b85876001600160a01b0316336001600160a01b03167fc878d7c38ac02179fd80904f0f6c8126ea8659612f4cbb389af37ddf671eb7618888888860405180858152602001846bffffffffffffffffffffffff19166bffffffffffffffffffffffff1916815260200183815260200180602001828103825283818151815260200191508051906020019080838360005b8381101561085c578181015183820152602001610844565b50505050905090810190601f1680156108895780820380516001836020036101000a031916815260200191505b509550505050505060405180910390a45060015b9695505050505050565b60006108b233610bc9565b6108be57506000610799565b604080518315158152426020820152815133927fbef11c059eefba82a15aea8a3a89c86fd08d7711c88fa7daea2632a55488510c928290030190a2506001919050565b60025490565b60055490565b610915610bb8565b610954576040805162461bcd60e51b815260206004820181905260248201526000805160206110cd833981519152604482015290519081900360640190fd5b60048054911515600160a01b0260ff60a01b19909216919091179055565b600061097d33610bc9565b61098957506000610799565b604080514281529051839133917f44b7f176bcc739b54bd0800fe491cbdea19df7d4d6b19c281462e6b4fc5043449181900360200190a3506001919050565b6109d0610bb8565b610a0f576040805162461bcd60e51b815260206004820181905260248201526000805160206110cd833981519152604482015290519081900360640190fd5b600080546040516001600160a01b03909116907f8be0079c531659141344cd1fd0a4f28419497f9722a3daafe3b4186f6b6457e0908390a3600080546001600160a01b0319169055565b6004546001600160a01b031681565b610a70610bb8565b610aaf576040805162461bcd60e51b815260206004820181905260248201526000805160206110cd833981519152604482015290519081900360640190fd5b60018111610aee5760405162461bcd60e51b81526004018080602001828103825260228152602001806110ed6022913960400191505060405180910390fd5b600555565b6000610afe33610bc9565b610b0a57506000610b50565b60408051848152602081018490524281830152905133917f8ee737ab16909c4e9d1b750814a4393c9f84ab5d3a29c08c313b783fc846ae33919081900360600190a25060015b92915050565b6000610b6133610bc9565b610b6d57506000610695565b60408051428152905133917f5af8184bef8e4b45eb9f6ed7734d04da38ced226495548f46e0c8ff8d7d9a524919081900360200190a250600190565b6000546001600160a01b031690565b6000546001600160a01b0316331490565b50600190565b6000600460009054906101000a90046001600160a01b03166001600160a01b03166398d5fdca6040518163ffffffff1660e01b815260040160206040518083038186803b158015610c1f57600080fd5b505afa158015610c33573d6000803e3d6000fd5b505050506040513d6020811015610c4957600080fd5b5051905090565b6000610c5b33610bc9565b610c6757506000610695565b60408051428152905133917f8fd2cfb62a35fccc1ecef829f83a6c2f840b73dad49d3eaaa402909752086d4b919081900360200190a250600190565b610cab610bb8565b610cea576040805162461bcd60e51b815260206004820181905260248201526000805160206110cd833981519152604482015290519081900360640190fd5b600054600160a01b900460ff1615610d3f576040805162461bcd60e51b8152602060048201526013602482015272185b1c9958591e481a5b9a5d1a585b1a5e9959606a1b604482015290519081900360640190fd5b600380546001600160a01b039092166001600160a01b03199092169190911790556000805460ff60a01b1916600160a01b179055565b6000610d8033610bc9565b610d8c57506000610695565b60408051428152905133917fa5ee7a2b0254fce91deed604506790ed7fa072d0b14cba4859c3bc8955b9caac919081900360200190a250600190565b6003546001600160a01b031681565b60015490565b6003546040805163b2bd5b6d60e01b81526020600482018190526009602483015268045434453414b6565760bc1b6044830152915160009384936001600160a01b039091169263b2bd5b6d9260648083019392829003018186803b158015610e4457600080fd5b505afa158015610e58573d6000803e3d6000fd5b505050506040513d6020811015610e6e57600080fd5b50516040805163d485782760e01b8152600481018690526024810187905233604482015290519192506001600160a01b0383169163d4857827916064808201926020929091908290030181600087803b158015610eca57600080fd5b505af1158015610ede573d6000803e3d6000fd5b505050506040513d6020811015610ef457600080fd5b5051949350505050565b6000610f0933610bc9565b610f1557506000610695565b60408051428152905133917f1e61af503f1d7de21d5300094c18bf8700f82b2951a4d54dd2adda13f6b3da30919081900360200190a250600190565b610f59610bb8565b610f98576040805162461bcd60e51b815260206004820181905260248201526000805160206110cd833981519152604482015290519081900360640190fd5b61068481611006565b6000610fac33610bc9565b610fb857506000610fff565b604080518481526020810184905242818301529051859133917f7f7d7327762d01d2c4a552ea0be2bc5a76264574a80aa78083e691a840e509f29181900360600190a35060015b9392505050565b6001600160a01b03811661104b5760405162461bcd60e51b81526004018080602001828103825260268152602001806110a76026913960400191505060405180910390fd5b600080546040516001600160a01b03808516939216917f8be0079c531659141344cd1fd0a4f28419497f9722a3daafe3b4186f6b6457e091a3600080546001600160a01b0319166001600160a01b039290921691909117905556fe4f776e61626c653a206e6577206f776e657220697320746865207a65726f20616464726573734f776e61626c653a2063616c6c6572206973206e6f7420746865206f776e65725369676e657220666565206d757374206265206c6f776572207468616e2031303025a265627a7a72305820d1a2398ebc96f9b22f336fcc70cc4b7d29e264b4b97c3056af4eaa9ff9bd63dd64736f6c634300050a0032",
  "source": "/* solium-disable function-order */\npragma solidity ^0.5.10;\n\nimport {IKeepRegistry} from \"@keep-network/keep-ecdsa/contracts/api/IKeepRegistry.sol\";\nimport {IECDSAKeepVendor} from \"@keep-network/keep-ecdsa/contracts/api/IECDSAKeepVendor.sol\";\n\nimport {ITBTCSystem} from \"../interfaces/ITBTCSystem.sol\";\nimport {IBTCETHPriceFeed} from \"../interfaces/IBTCETHPriceFeed.sol\";\nimport {DepositLog} from \"../DepositLog.sol\";\n\nimport \"openzeppelin-solidity/contracts/ownership/Ownable.sol\";\n\ncontract TBTCSystem is Ownable, ITBTCSystem, DepositLog {\n\n    bool _initialized = false;\n\n    uint256 currentDifficulty = 1;\n    uint256 previousDifficulty = 1;\n\n    address public keepRegistry;\n    address public priceFeed;\n\n    // Governed parameters by the TBTCSystem owner\n    bool private allowNewDeposits = true;\n    uint256 private signerFeeDivisor = 200; // 1/200 == 50bps == 0.5% == 0.005\n\n\n    constructor(address _priceFeed) public {\n        priceFeed = _priceFeed;\n    }\n\n    function initialize(\n        address _keepRegistry\n    ) external onlyOwner {\n        require(!_initialized, \"already initialized\");\n\n        keepRegistry = _keepRegistry;\n        _initialized = true;\n    }\n\n    /// @notice Enables/disables new deposits from being created.\n    /// @param _allowNewDeposits Whether to allow new deposits.\n    function setAllowNewDeposits(bool _allowNewDeposits)\n        external onlyOwner\n    {\n        allowNewDeposits = _allowNewDeposits;\n    }\n\n    /// @notice Gets whether new deposits are allowed.\n    function getAllowNewDeposits() public view returns (bool) { return allowNewDeposits; }\n\n    /// @notice Set the system signer fee divisor.\n    /// @param _signerFeeDivisor The signer fee divisor.\n    function setSignerFeeDivisor(uint256 _signerFeeDivisor)\n        external onlyOwner\n    {\n        require(_signerFeeDivisor > 1, \"Signer fee must be lower than 100%\");\n        signerFeeDivisor = _signerFeeDivisor;\n    }\n\n    /// @notice Gets the system signer fee divisor.\n    /// @return The signer fee divisor.\n    function getSignerFeeDivisor() public view returns (uint256) { return signerFeeDivisor; }\n\n    // Price Feed\n    function fetchBitcoinPrice() external view returns (uint256) {\n        return IBTCETHPriceFeed(priceFeed).getPrice();\n    }\n\n    // Difficulty Oracle\n    // TODO: This is a workaround. It will be replaced by tbtc-difficulty-oracle.\n    function fetchRelayCurrentDifficulty() external view returns (uint256) {\n        return currentDifficulty;\n    }\n\n    function fetchRelayPreviousDifficulty() external view returns (uint256) {\n        return previousDifficulty;\n    }\n\n    function submitCurrentDifficulty(uint256 _currentDifficulty) public {\n        if (currentDifficulty != _currentDifficulty) {\n            previousDifficulty = currentDifficulty;\n            currentDifficulty = _currentDifficulty;\n        }\n    }\n\n    /// @notice Request a new keep opening.\n    /// @param _m Minimum number of honest keep members required to sign.\n    /// @param _n Number of members in the keep.\n    /// @return Address of a new keep.\n    function requestNewKeep(uint256 _m, uint256 _n)\n        external\n        payable\n        returns (address _keepAddress)\n    {\n        address keepVendorAddress = IKeepRegistry(keepRegistry)\n            .getVendor(\"ECDSAKeep\");\n\n        _keepAddress = IECDSAKeepVendor(keepVendorAddress)\n            .openKeep(_n,_m, msg.sender);\n    }\n}\n",
  "sourcePath": "/tmp/46a38aeec76c1707279b44cd3da78d16dc8a88ed/implementation/contracts/system/TBTCSystem.sol",
  "compiler": {
    "name": "solc",
    "version": "0.5.10+commit.5a6ea5b1.Emscripten.clang"
  },
  "schemaVersion": "3.0.20",
  "updatedAt": "2020-01-16T05:22:00.327Z",
  "networkType": "ethereum",
  "devdoc": {
    "methods": {
      "approvedToLog(address)": {
        "details": "Calls the system to check if the caller is a Deposit                     We don't require this, so deposits are not bricked if the system borks",
        "params": {
          "_caller": "The address of the calling contract"
        },
        "return": "True if approved, otherwise false"
      },
      "getSignerFeeDivisor()": {
        "return": "The signer fee divisor."
      },
      "isOwner()": {
        "details": "Returns true if the caller is the current owner."
      },
      "logCourtesyCalled()": {
        "details": "We append the sender, which is the deposit contract that called             returns false if not approved, to prevent accidentally halting Deposit",
        "return": "True if successful, else false"
      },
      "logCreated(address)": {
        "details": "We append the sender, which is the deposit contract that called",
        "params": {
          "_keepAddress": "The address of the associated keep"
        },
        "return": "True if successful, else revert"
      },
      "logExitedCourtesyCall()": {
        "details": "We append the sender, which is the deposit contract that called             returns false if not approved, to prevent accidentally halting Deposit",
        "return": "True if successful, else false"
      },
      "logFraudDuringSetup()": {
        "details": "We append the sender, which is the deposit contract that called             returns false if not approved, to prevent accidentally halting Deposit",
        "return": "True if successful, else false"
      },
      "logFunded()": {
        "details": "We append the sender, which is the deposit contract that called             returns false if not approved, to prevent accidentally halting Deposit",
        "return": "True if successful, else false"
      },
      "logGotRedemptionSignature(bytes32,bytes32,bytes32)": {
        "details": "We append the sender, which is the deposit contract that called",
        "params": {
          "_digest": "signed digest",
          "_r": "signature r value",
          "_s": "signature s value"
        },
        "return": "True if successful, else revert"
      },
      "logLiquidated()": {
        "details": "We append the sender, which is the deposit contract that called             returns false if not approved, to prevent accidentally halting Deposit",
        "return": "True if successful, else false"
      },
      "logRedeemed(bytes32)": {
        "details": "We append the sender, which is the deposit contract that called             returns false if not approved, to prevent accidentally halting Deposit",
        "return": "True if successful, else false"
      },
      "logRedemptionRequested(address,bytes32,uint256,bytes20,uint256,bytes)": {
        "details": "This is the only event without an explicit timestamp",
        "params": {
          "_digest": "The calculated sighash digest",
          "_outpoint": "The 36 byte outpoint",
          "_requestedFee": "The requester or bump-system specified fee",
          "_requester": "The ethereum address of the requester",
          "_requesterPKH": "The requester's 20-byte bitcoin pkh",
          "_utxoSize": "The size of the utxo in sat"
        },
        "return": "True if successful, else revert"
      },
      "logRegisteredPubkey(bytes32,bytes32)": {
        "details": "We append the sender, which is the deposit contract that called             returns false if not approved, to prevent accidentally halting Deposit",
        "return": "True if successful, else false"
      },
      "logSetupFailed()": {
        "details": "We append the sender, which is the deposit contract that called             returns false if not approved, to prevent accidentally halting Deposit",
        "return": "True if successful, else false"
      },
      "logStartedLiquidation(bool)": {
        "details": "We append the sender, which is the deposit contract that called",
        "params": {
          "_wasFraud": "True if liquidating for fraud"
        },
        "return": "True if successful, else revert"
      },
      "owner()": {
        "details": "Returns the address of the current owner."
      },
      "renounceOwnership()": {
        "details": "Leaves the contract without owner. It will not be possible to call `onlyOwner` functions anymore. Can only be called by the current owner.     * > Note: Renouncing ownership will leave the contract without an owner, thereby removing any functionality that is only available to the owner."
      },
      "requestNewKeep(uint256,uint256)": {
        "params": {
          "_m": "Minimum number of honest keep members required to sign.",
          "_n": "Number of members in the keep."
        },
        "return": "Address of a new keep."
      },
      "setAllowNewDeposits(bool)": {
        "params": {
          "_allowNewDeposits": "Whether to allow new deposits."
        }
      },
      "setSignerFeeDivisor(uint256)": {
        "params": {
          "_signerFeeDivisor": "The signer fee divisor."
        }
      },
      "transferOwnership(address)": {
        "details": "Transfers ownership of the contract to a new account (`newOwner`). Can only be called by the current owner."
      }
    }
  },
  "userdoc": {
    "methods": {
      "approvedToLog(address)": {
        "notice": "Checks if an address is an allowed logger"
      },
      "getAllowNewDeposits()": {
        "notice": "Gets whether new deposits are allowed."
      },
      "getSignerFeeDivisor()": {
        "notice": "Gets the system signer fee divisor."
      },
      "logCourtesyCalled()": {
        "notice": "Fires a CourtesyCalled event"
      },
      "logCreated(address)": {
        "notice": "Fires a Created event"
      },
      "logExitedCourtesyCall()": {
        "notice": "Fires a ExitedCourtesyCall event"
      },
      "logFraudDuringSetup()": {
        "notice": "Fires a FraudDuringSetup event"
      },
      "logFunded()": {
        "notice": "Fires a Funded event"
      },
      "logGotRedemptionSignature(bytes32,bytes32,bytes32)": {
        "notice": "Fires a GotRedemptionSignature event"
      },
      "logLiquidated()": {
        "notice": "Fires a Liquidated event"
      },
      "logRedeemed(bytes32)": {
        "notice": "Fires a Redeemed event"
      },
      "logRedemptionRequested(address,bytes32,uint256,bytes20,uint256,bytes)": {
        "notice": "Fires a RedemptionRequested event"
      },
      "logRegisteredPubkey(bytes32,bytes32)": {
        "notice": "Fires a RegisteredPubkey event"
      },
      "logSetupFailed()": {
        "notice": "Fires a SetupFailed event"
      },
      "logStartedLiquidation(bool)": {
        "notice": "Fires a StartedLiquidation event"
      },
      "requestNewKeep(uint256,uint256)": {
        "notice": "Request a new keep opening."
      },
      "setAllowNewDeposits(bool)": {
        "notice": "Enables/disables new deposits from being created."
      },
      "setSignerFeeDivisor(uint256)": {
        "notice": "Set the system signer fee divisor."
      }
    }
  }
}