{
  "contractName": "VendingMachine",
  "abi": [
    {
      "inputs": [
        {
          "name": "_tbtcToken",
          "type": "address"
        },
        {
          "name": "_depositOwnerToken",
          "type": "address"
        },
        {
          "name": "_feeRebateToken",
          "type": "address"
        }
      ],
      "payable": false,
      "stateMutability": "nonpayable",
      "type": "constructor"
    },
    {
      "constant": false,
      "inputs": [
        {
          "name": "_depositAddress",
          "type": "address"
        }
      ],
      "name": "isQualified",
      "outputs": [
        {
          "name": "",
          "type": "bool"
        }
      ],
      "payable": false,
      "stateMutability": "nonpayable",
      "type": "function"
    },
    {
      "constant": false,
      "inputs": [
        {
          "name": "_dotId",
          "type": "uint256"
        }
      ],
      "name": "tbtcToDot",
      "outputs": [],
      "payable": false,
      "stateMutability": "nonpayable",
      "type": "function"
    },
    {
      "constant": false,
      "inputs": [
        {
          "name": "_dotId",
          "type": "uint256"
        }
      ],
      "name": "dotToTbtc",
      "outputs": [],
      "payable": false,
      "stateMutability": "nonpayable",
      "type": "function"
    },
    {
      "constant": false,
      "inputs": [
        {
          "name": "_depositAddress",
          "type": "address"
        },
        {
          "name": "_txVersion",
          "type": "bytes4"
        },
        {
          "name": "_txInputVector",
          "type": "bytes"
        },
        {
          "name": "_txOutputVector",
          "type": "bytes"
        },
        {
          "name": "_txLocktime",
          "type": "bytes4"
        },
        {
          "name": "_fundingOutputIndex",
          "type": "uint8"
        },
        {
          "name": "_merkleProof",
          "type": "bytes"
        },
        {
          "name": "_txIndexInBlock",
          "type": "uint256"
        },
        {
          "name": "_bitcoinHeaders",
          "type": "bytes"
        }
      ],
      "name": "unqualifiedDepositToTbtc",
      "outputs": [],
      "payable": false,
      "stateMutability": "nonpayable",
      "type": "function"
    }
  ],
  "bytecode": "0x608060405234801561001057600080fd5b506040516111c73803806111c78339818101604052606081101561003357600080fd5b5080516020820151604090920151600080546001600160a01b039384166001600160a01b03199182161790915560018054948416948216949094179093556002805492909116919092161790556111388061008f6000396000f3fe608060405234801561001057600080fd5b506004361061004c5760003560e01c806341b487ab14610051578063452e83c214610070578063a421d6681461008d578063efa4b199146100c7575b600080fd5b61006e6004803603602081101561006757600080fd5b503561033b565b005b61006e6004803603602081101561008657600080fd5b5035610849565b6100b3600480360360208110156100a357600080fd5b50356001600160a01b0316610bce565b604080519115158252519081900360200190f35b61006e60048036036101208110156100de57600080fd5b6001600160a01b03823516916001600160e01b031960208201351691810190606081016040820135600160201b81111561011757600080fd5b82018360208201111561012957600080fd5b803590602001918460018302840111600160201b8311171561014a57600080fd5b91908080601f0160208091040260200160405190810160405280939291908181526020018383808284376000920191909152509295949360208101935035915050600160201b81111561019c57600080fd5b8201836020820111156101ae57600080fd5b803590602001918460018302840111600160201b831117156101cf57600080fd5b91908080601f01602080910402602001604051908101604052809392919081815260200183838082843760009201919091525092956001600160e01b03198535169560ff60208701351695919450925060608101915060400135600160201b81111561023a57600080fd5b82018360208201111561024c57600080fd5b803590602001918460018302840111600160201b8311171561026d57600080fd5b91908080601f01602080910402602001604051908101604052809392919081815260200183838082843760009201919091525092958435959094909350604081019250602001359050600160201b8111156102c757600080fd5b8201836020820111156102d957600080fd5b803590602001918460018302840111600160201b831117156102fa57600080fd5b91908080601f016020809104026020016040519081016040528093929190818152602001838380828437600092019190915250929550610c3b945050505050565b60015460408051634f558e7960e01b81526004810184905290516001600160a01b0390921691634f558e7991602480820192602092909190829003018186803b15801561038757600080fd5b505afa15801561039b573d6000803e3d6000fd5b505050506040513d60208110156103b157600080fd5b50516103ee5760405162461bcd60e51b81526004018080602001828103825260228152602001806110e26022913960400191505060405180910390fd5b6103f781610bce565b610444576040805162461bcd60e51b815260206004820152601960248201527811195c1bdcda5d081b5d5cdd081899481c5d585b1a599a5959603a1b604482015290519081900360640190fd5b600154604080516323b872dd60e01b81523360048201523060248201526044810184905290516001600160a01b03909216916323b872dd9160648082019260009290919082900301818387803b15801561049d57600080fd5b505af11580156104b1573d6000803e3d6000fd5b5050505060008190506000816001600160a01b03166375030f9c6040518163ffffffff1660e01b815260040160206040518083038186803b1580156104f557600080fd5b505afa158015610509573d6000803e3d6000fd5b505050506040513d602081101561051f57600080fd5b50519050600061052d610f06565b600054604080516370a0823160e01b81526001600160a01b0388811660048301529151939450859391909216916370a08231916024808301926020929190829003018186803b15801561057f57600080fd5b505afa158015610593573d6000803e3d6000fd5b505050506040513d60208110156105a957600080fd5b505110156106d9576000546001600160a01b03166340c10f19336105d3848663ffffffff61100f16565b6040518363ffffffff1660e01b815260040180836001600160a01b03166001600160a01b0316815260200182815260200192505050602060405180830381600087803b15801561062257600080fd5b505af1158015610636573d6000803e3d6000fd5b505050506040513d602081101561064c57600080fd5b505060008054604080516340c10f1960e01b81526001600160a01b03888116600483015260248201879052915191909216926340c10f1992604480820193602093909283900390910190829087803b1580156106a757600080fd5b505af11580156106bb573d6000803e3d6000fd5b505050506040513d60208110156106d157600080fd5b5061075b9050565b60008054604080516340c10f1960e01b81523360048201526024810185905290516001600160a01b03909216926340c10f19926044808401936020939083900390910190829087803b15801561072e57600080fd5b505af1158015610742573d6000803e3d6000fd5b505050506040513d602081101561075857600080fd5b50505b60025460408051634f558e7960e01b81526004810187905290516001600160a01b0390921691634f558e7991602480820192602092909190829003018186803b1580156107a757600080fd5b505afa1580156107bb573d6000803e3d6000fd5b505050506040513d60208110156107d157600080fd5b505161084357600254604080516340c10f1960e01b81523360048201526024810187905290516001600160a01b03909216916340c10f199160448082019260009290919082900301818387803b15801561082a57600080fd5b505af115801561083e573d6000803e3d6000fd5b505050505b50505050565b60015460408051634f558e7960e01b81526004810184905290516001600160a01b0390921691634f558e7991602480820192602092909190829003018186803b15801561089557600080fd5b505afa1580156108a9573d6000803e3d6000fd5b505050506040513d60208110156108bf57600080fd5b50516108fc5760405162461bcd60e51b81526004018080602001828103825260228152602001806110e26022913960400191505060405180910390fd5b61090581610bce565b610952576040805162461bcd60e51b815260206004820152601960248201527811195c1bdcda5d081b5d5cdd081899481c5d585b1a599a5959603a1b604482015290519081900360640190fd5b600061095c610f06565b600054604080516370a0823160e01b8152336004820152905192935083926001600160a01b03909216916370a0823191602480820192602092909190829003018186803b1580156109ac57600080fd5b505afa1580156109c0573d6000803e3d6000fd5b505050506040513d60208110156109d657600080fd5b50511015610a2b576040805162461bcd60e51b815260206004820181905260248201527f4e6f7420656e6f756768205442544320666f7220444f542065786368616e6765604482015290519081900360640190fd5b600080546040805163079cc67960e41b81523360048201526024810185905290516001600160a01b03909216926379cc67909260448084019382900301818387803b158015610a7957600080fd5b505af1158015610a8d573d6000803e3d6000fd5b5050600154604080516331a9108f60e11b81526004810187905290513094506001600160a01b039092169250636352211e916024808301926020929190829003018186803b158015610ade57600080fd5b505afa158015610af2573d6000803e3d6000fd5b505050506040513d6020811015610b0857600080fd5b50516001600160a01b031614610b59576040805162461bcd60e51b815260206004820152601160248201527011195c1bdcda5d081a5cc81b1bd8dad959607a1b604482015290519081900360640190fd5b600154604080516323b872dd60e01b81523060048201523360248201526044810185905290516001600160a01b03909216916323b872dd9160648082019260009290919082900301818387803b158015610bb257600080fd5b505af1158015610bc6573d6000803e3d6000fd5b505050505050565b6000816001600160a01b031663f97a02fa6040518163ffffffff1660e01b815260040160206040518083038186803b158015610c0957600080fd5b505afa158015610c1d573d6000803e3d6000fd5b505050506040513d6020811015610c3357600080fd5b505192915050565b6000899050806001600160a01b031663d9f74b0e8a8a8a8a8a8a8a8a6040518963ffffffff1660e01b815260040180896001600160e01b0319166001600160e01b03191681526020018060200180602001886001600160e01b0319166001600160e01b03191681526020018760ff1660ff168152602001806020018681526020018060200185810385528c818151815260200191508051906020019080838360005b83811015610cf5578181015183820152602001610cdd565b50505050905090810190601f168015610d225780820380516001836020036101000a031916815260200191505b5085810384528b5181528b516020918201918d019080838360005b83811015610d55578181015183820152602001610d3d565b50505050905090810190601f168015610d825780820380516001836020036101000a031916815260200191505b5085810383528851815288516020918201918a019080838360005b83811015610db5578181015183820152602001610d9d565b50505050905090810190601f168015610de25780820380516001836020036101000a031916815260200191505b50858103825286518152865160209182019188019080838360005b83811015610e15578181015183820152602001610dfd565b50505050905090810190601f168015610e425780820380516001836020036101000a031916815260200191505b509c50505050505050505050505050602060405180830381600087803b158015610e6b57600080fd5b505af1158015610e7f573d6000803e3d6000fd5b505050506040513d6020811015610e9557600080fd5b5051610ee8576040805162461bcd60e51b815260206004820152601f60248201527f6661696c656420746f2070726f766964652066756e64696e672070726f6f6600604482015290519081900360640190fd5b610efa8a6001600160a01b031661033b565b50505050505050505050565b60008073__TBTCConstants_________________________63ae9eb1276040518163ffffffff1660e01b815260040160206040518083038186803b158015610f4d57600080fd5b505af4158015610f61573d6000803e3d6000fd5b505050506040513d6020811015610f7757600080fd5b50516040805163ecaf1cdf60e01b8152905191925060009161100891849173__TBTCConstants_________________________9163ecaf1cdf916004808301926020929190829003018186803b158015610fd057600080fd5b505af4158015610fe4573d6000803e3d6000fd5b505050506040513d6020811015610ffa57600080fd5b50519063ffffffff61107116565b9250505090565b600082821115611066576040805162461bcd60e51b815260206004820152601d60248201527f556e646572666c6f7720647572696e67207375627472616374696f6e2e000000604482015290519081900360640190fd5b508082035b92915050565b6000826110805750600061106b565b508181028183828161108e57fe5b041461106b576040805162461bcd60e51b815260206004820152601f60248201527f4f766572666c6f7720647572696e67206d756c7469706c69636174696f6e2e00604482015290519081900360640190fdfe4465706f736974204f776e657220546f6b656e20646f6573206e6f74206578697374a265627a7a72305820b8c00e53dc080044f78eb3b9b566c161cfaabfd7262ffd5c4f48a3df25a4f82d64736f6c634300050a0032",
  "source": "pragma solidity ^0.5.10;\n\nimport {SafeMath} from \"@summa-tx/bitcoin-spv-sol/contracts/SafeMath.sol\";\nimport {DepositOwnerToken} from \"./DepositOwnerToken.sol\";\nimport {FeeRebateToken} from \"./FeeRebateToken.sol\";\nimport {TBTCToken} from \"./TBTCToken.sol\";\nimport {TBTCConstants} from \"../deposit/TBTCConstants.sol\";\nimport {DepositUtils} from \"../deposit/DepositUtils.sol\";\nimport \"../deposit/Deposit.sol\";\n\ncontract VendingMachine {\n    using SafeMath for uint256;\n\n    TBTCToken tbtcToken;\n    DepositOwnerToken depositOwnerToken;\n    FeeRebateToken feeRebateToken;\n\n    constructor(\n        address _tbtcToken,\n        address _depositOwnerToken,\n        address _feeRebateToken\n    ) public {\n        tbtcToken = TBTCToken(_tbtcToken);\n        depositOwnerToken = DepositOwnerToken(_depositOwnerToken);\n        feeRebateToken = FeeRebateToken(_feeRebateToken);\n    }\n\n    /// @notice Determines whether a deposit is qualified for minting TBTC.\n    /// @param _depositAddress the address of the deposit\n    function isQualified(address payable _depositAddress) public returns (bool) {\n        return Deposit(_depositAddress).inActive();\n    }\n\n    /// @notice Pay back the deposit's TBTC and receive the Deposit Owner Token.\n    /// @dev    Burns TBTC, transfers DOT from vending machine to caller\n    /// @param _dotId ID of Deposit Owner Token to buy\n    function tbtcToDot(uint256 _dotId) public {\n        require(depositOwnerToken.exists(_dotId), \"Deposit Owner Token does not exist\");\n        require(isQualified(address(_dotId)), \"Deposit must be qualified\");\n\n        uint256 getDepositValue = getDepositValue();\n        require(tbtcToken.balanceOf(msg.sender) >= getDepositValue, \"Not enough TBTC for DOT exchange\");\n        tbtcToken.burnFrom(msg.sender, getDepositValue);\n\n        // TODO do we need the owner check below? transferFrom can be approved for a user, which might be an interesting use case.\n        require(depositOwnerToken.ownerOf(_dotId) == address(this), \"Deposit is locked\");\n        depositOwnerToken.transferFrom(address(this), msg.sender, _dotId);\n    }\n\n    /// @notice Trade in the Deposit Owner Token and mint TBTC.\n    /// @dev    Transfers DOT from caller to vending machine, and mints TBTC to caller\n    /// @param _dotId ID of Deposit Owner Token to sell\n    function dotToTbtc(uint256 _dotId) public {\n        require(depositOwnerToken.exists(_dotId), \"Deposit Owner Token does not exist\");\n        require(isQualified(address(_dotId)), \"Deposit must be qualified\");\n\n        depositOwnerToken.transferFrom(msg.sender, address(this), _dotId);\n\n        // If the backing Deposit does not have a signer fee in escrow, mint it.\n        Deposit deposit = Deposit(address(uint160(_dotId)));\n        uint256 signerFee = deposit.signerFee();\n        uint256 depositValue = getDepositValue();\n\n        if(tbtcToken.balanceOf(address(_dotId)) < signerFee) {\n            tbtcToken.mint(msg.sender, depositValue.sub(signerFee));\n            tbtcToken.mint(address(_dotId), signerFee);\n        }\n        else{\n            tbtcToken.mint(msg.sender, depositValue);\n        }\n\n        // owner of the DOT during first TBTC mint receives the FRT\n        if(!feeRebateToken.exists(_dotId)){\n            feeRebateToken.mint(msg.sender, _dotId);\n        }\n    }\n\n    // WRAPPERS\n\n    /// @notice Qualifies a deposit and mints TBTC.\n    /// @dev User must allow VendingManchine to transfer DOT\n    function unqualifiedDepositToTbtc(\n        address payable _depositAddress,\n        bytes4 _txVersion,\n        bytes memory _txInputVector,\n        bytes memory _txOutputVector,\n        bytes4 _txLocktime,\n        uint8 _fundingOutputIndex,\n        bytes memory _merkleProof,\n        uint256 _txIndexInBlock,\n        bytes memory _bitcoinHeaders\n    ) public {\n        Deposit _d = Deposit(_depositAddress);\n        require(\n            _d.provideBTCFundingProof(\n                _txVersion,\n                _txInputVector,\n                _txOutputVector,\n                _txLocktime,\n                _fundingOutputIndex,\n                _merkleProof,\n                _txIndexInBlock,\n                _bitcoinHeaders\n            ),\n            \"failed to provide funding proof\");\n\n        dotToTbtc(uint256(_depositAddress));\n    }\n\n    // HELPERS\n\n    // TODO temporary helper function\n    /// @notice Gets the Deposit lot size less signer fees\n    /// @return amount in TBTC\n    function getDepositValue() internal returns (uint) {\n        uint256 _multiplier = TBTCConstants.getSatoshiMultiplier();\n        uint256 _totalValue = TBTCConstants.getLotSize().mul(_multiplier);\n        return _totalValue;\n    }\n}",
  "sourcePath": "/tmp/46a38aeec76c1707279b44cd3da78d16dc8a88ed/implementation/contracts/system/VendingMachine.sol",
  "compiler": {
    "name": "solc",
    "version": "0.5.10+commit.5a6ea5b1.Emscripten.clang"
  },
  "schemaVersion": "3.0.20",
  "updatedAt": "2020-01-16T05:13:39.008Z",
  "devdoc": {
    "methods": {
      "dotToTbtc(uint256)": {
        "details": "Transfers DOT from caller to vending machine, and mints TBTC to caller",
        "params": {
          "_dotId": "ID of Deposit Owner Token to sell"
        }
      },
      "isQualified(address)": {
        "params": {
          "_depositAddress": "the address of the deposit"
        }
      },
      "tbtcToDot(uint256)": {
        "details": "Burns TBTC, transfers DOT from vending machine to caller",
        "params": {
          "_dotId": "ID of Deposit Owner Token to buy"
        }
      },
      "unqualifiedDepositToTbtc(address,bytes4,bytes,bytes,bytes4,uint8,bytes,uint256,bytes)": {
        "details": "User must allow VendingManchine to transfer DOT"
      }
    }
  },
  "userdoc": {
    "methods": {
      "dotToTbtc(uint256)": {
        "notice": "Trade in the Deposit Owner Token and mint TBTC."
      },
      "isQualified(address)": {
        "notice": "Determines whether a deposit is qualified for minting TBTC."
      },
      "tbtcToDot(uint256)": {
        "notice": "Pay back the deposit's TBTC and receive the Deposit Owner Token."
      },
      "unqualifiedDepositToTbtc(address,bytes4,bytes,bytes,bytes4,uint8,bytes,uint256,bytes)": {
        "notice": "Qualifies a deposit and mints TBTC."
      }
    }
  }
}